{
  "_format": "hh-sol-artifact-1",
  "contractName": "CanvasGame",
  "sourceName": "src/backend/contracts/CanvasGame.sol",
  "abi": [
    {
      "inputs": [
        {
          "internalType": "address",
          "name": "registry",
          "type": "address"
        }
      ],
      "stateMutability": "nonpayable",
      "type": "constructor"
    },
    {
      "anonymous": false,
      "inputs": [
        {
          "indexed": true,
          "internalType": "address",
          "name": "owner",
          "type": "address"
        },
        {
          "indexed": true,
          "internalType": "address",
          "name": "approved",
          "type": "address"
        },
        {
          "indexed": true,
          "internalType": "uint256",
          "name": "tokenId",
          "type": "uint256"
        }
      ],
      "name": "Approval",
      "type": "event"
    },
    {
      "anonymous": false,
      "inputs": [
        {
          "indexed": true,
          "internalType": "address",
          "name": "owner",
          "type": "address"
        },
        {
          "indexed": true,
          "internalType": "address",
          "name": "operator",
          "type": "address"
        },
        {
          "indexed": false,
          "internalType": "bool",
          "name": "approved",
          "type": "bool"
        }
      ],
      "name": "ApprovalForAll",
      "type": "event"
    },
    {
      "anonymous": false,
      "inputs": [
        {
          "indexed": true,
          "internalType": "address",
          "name": "previousOwner",
          "type": "address"
        },
        {
          "indexed": true,
          "internalType": "address",
          "name": "newOwner",
          "type": "address"
        }
      ],
      "name": "OwnershipTransferred",
      "type": "event"
    },
    {
      "anonymous": false,
      "inputs": [
        {
          "indexed": true,
          "internalType": "address",
          "name": "from",
          "type": "address"
        },
        {
          "indexed": true,
          "internalType": "address",
          "name": "to",
          "type": "address"
        },
        {
          "indexed": true,
          "internalType": "uint256",
          "name": "tokenId",
          "type": "uint256"
        }
      ],
      "name": "Transfer",
      "type": "event"
    },
    {
      "inputs": [
        {
          "internalType": "address",
          "name": "to",
          "type": "address"
        },
        {
          "internalType": "uint256",
          "name": "tokenId",
          "type": "uint256"
        }
      ],
      "name": "approve",
      "outputs": [],
      "stateMutability": "nonpayable",
      "type": "function"
    },
    {
      "inputs": [
        {
          "internalType": "address",
          "name": "owner",
          "type": "address"
        }
      ],
      "name": "balanceOf",
      "outputs": [
        {
          "internalType": "uint256",
          "name": "",
          "type": "uint256"
        }
      ],
      "stateMutability": "view",
      "type": "function"
    },
    {
      "inputs": [
        {
          "internalType": "uint256",
          "name": "tokenId",
          "type": "uint256"
        }
      ],
      "name": "getApproved",
      "outputs": [
        {
          "internalType": "address",
          "name": "",
          "type": "address"
        }
      ],
      "stateMutability": "view",
      "type": "function"
    },
    {
      "inputs": [
        {
          "internalType": "address",
          "name": "owner",
          "type": "address"
        },
        {
          "internalType": "address",
          "name": "operator",
          "type": "address"
        }
      ],
      "name": "isApprovedForAll",
      "outputs": [
        {
          "internalType": "bool",
          "name": "",
          "type": "bool"
        }
      ],
      "stateMutability": "view",
      "type": "function"
    },
    {
      "inputs": [
        {
          "internalType": "uint256",
          "name": "tokenId",
          "type": "uint256"
        },
        {
          "internalType": "uint256",
          "name": "x",
          "type": "uint256"
        },
        {
          "internalType": "uint256",
          "name": "y",
          "type": "uint256"
        }
      ],
      "name": "makeMove",
      "outputs": [],
      "stateMutability": "nonpayable",
      "type": "function"
    },
    {
      "inputs": [],
      "name": "name",
      "outputs": [
        {
          "internalType": "string",
          "name": "",
          "type": "string"
        }
      ],
      "stateMutability": "view",
      "type": "function"
    },
    {
      "inputs": [],
      "name": "owner",
      "outputs": [
        {
          "internalType": "address",
          "name": "",
          "type": "address"
        }
      ],
      "stateMutability": "view",
      "type": "function"
    },
    {
      "inputs": [
        {
          "internalType": "uint256",
          "name": "tokenId",
          "type": "uint256"
        }
      ],
      "name": "ownerOf",
      "outputs": [
        {
          "internalType": "address",
          "name": "",
          "type": "address"
        }
      ],
      "stateMutability": "view",
      "type": "function"
    },
    {
      "inputs": [],
      "name": "renounceOwnership",
      "outputs": [],
      "stateMutability": "nonpayable",
      "type": "function"
    },
    {
      "inputs": [
        {
          "internalType": "address",
          "name": "to",
          "type": "address"
        }
      ],
      "name": "safeMint",
      "outputs": [
        {
          "internalType": "uint256",
          "name": "",
          "type": "uint256"
        }
      ],
      "stateMutability": "nonpayable",
      "type": "function"
    },
    {
      "inputs": [
        {
          "internalType": "address",
          "name": "from",
          "type": "address"
        },
        {
          "internalType": "address",
          "name": "to",
          "type": "address"
        },
        {
          "internalType": "uint256",
          "name": "tokenId",
          "type": "uint256"
        }
      ],
      "name": "safeTransferFrom",
      "outputs": [],
      "stateMutability": "nonpayable",
      "type": "function"
    },
    {
      "inputs": [
        {
          "internalType": "address",
          "name": "from",
          "type": "address"
        },
        {
          "internalType": "address",
          "name": "to",
          "type": "address"
        },
        {
          "internalType": "uint256",
          "name": "tokenId",
          "type": "uint256"
        },
        {
          "internalType": "bytes",
          "name": "data",
          "type": "bytes"
        }
      ],
      "name": "safeTransferFrom",
      "outputs": [],
      "stateMutability": "nonpayable",
      "type": "function"
    },
    {
      "inputs": [
        {
          "internalType": "address",
          "name": "operator",
          "type": "address"
        },
        {
          "internalType": "bool",
          "name": "approved",
          "type": "bool"
        }
      ],
      "name": "setApprovalForAll",
      "outputs": [],
      "stateMutability": "nonpayable",
      "type": "function"
    },
    {
      "inputs": [
        {
          "internalType": "bytes4",
          "name": "interfaceId",
          "type": "bytes4"
        }
      ],
      "name": "supportsInterface",
      "outputs": [
        {
          "internalType": "bool",
          "name": "",
          "type": "bool"
        }
      ],
      "stateMutability": "view",
      "type": "function"
    },
    {
      "inputs": [],
      "name": "symbol",
      "outputs": [
        {
          "internalType": "string",
          "name": "",
          "type": "string"
        }
      ],
      "stateMutability": "view",
      "type": "function"
    },
    {
      "inputs": [
        {
          "internalType": "uint256",
          "name": "tokenId",
          "type": "uint256"
        }
      ],
      "name": "tokenURI",
      "outputs": [
        {
          "internalType": "string",
          "name": "",
          "type": "string"
        }
      ],
      "stateMutability": "view",
      "type": "function"
    },
    {
      "inputs": [
        {
          "internalType": "address",
          "name": "from",
          "type": "address"
        },
        {
          "internalType": "address",
          "name": "to",
          "type": "address"
        },
        {
          "internalType": "uint256",
          "name": "tokenId",
          "type": "uint256"
        }
      ],
      "name": "transferFrom",
      "outputs": [],
      "stateMutability": "nonpayable",
      "type": "function"
    },
    {
      "inputs": [
        {
          "internalType": "address",
          "name": "newOwner",
          "type": "address"
        }
      ],
      "name": "transferOwnership",
      "outputs": [],
      "stateMutability": "nonpayable",
      "type": "function"
    }
  ],
  "bytecode": "0x60c0604052600660808190526563616e76617360d01b60a09081526200002991600c9190620003b5565b506040518060600160405280602a81526020016200210f602a913980516200005a91600d91602090910190620003b5565b503480156200006857600080fd5b5060405162002139380380620021398339810160408190526200008b916200045b565b6040805180820182526005815264141a5e195b60da1b60208083019182528351808501909452600384526249544d60e81b908401528151919291620000d391600091620003b5565b508051620000e9906001906020840190620003b5565b50505062000106620001006200024260201b60201c565b62000246565b600980546001600160a01b0319166001600160a01b038316908117909155633a9151b030600c620001434662000298602090811b62000a0817901c565b604051602001620001569291906200059f565b6040516020818303038152906040526040518363ffffffff1660e01b8152600401620001849291906200062a565b6020604051808303816000875af1158015620001a4573d6000803e3d6000fd5b505050506040513d601f19601f82011682018060405250810190620001ca91906200066e565b600b81905550600c620001e8466200029860201b62000a081760201c565b62000200600b546200029860201b62000a081760201c565b604051602001620002149392919062000688565b604051602081830303815290604052600a90805190602001906200023a929190620003b5565b5050620007b6565b3390565b600780546001600160a01b038381166001600160a01b0319831681179093556040519116919082907f8be0079c531659141344cd1fd0a4f28419497f9722a3daafe3b4186f6b6457e090600090a35050565b606081620002bd5750506040805180820190915260018152600360fc1b602082015290565b8160005b8115620002ed5780620002d481620006f3565b9150620002e59050600a8362000727565b9150620002c1565b6000816001600160401b038111156200030a576200030a6200073e565b6040519080825280601f01601f19166020018201604052801562000335576020820181803683370190505b5090505b8415620003ad576200034d60018362000754565b91506200035c600a866200076e565b6200036990603062000785565b60f81b818381518110620003815762000381620007a0565b60200101906001600160f81b031916908160001a905350620003a5600a8662000727565b945062000339565b949350505050565b828054620003c3906200048d565b90600052602060002090601f016020900481019282620003e7576000855562000432565b82601f106200040257805160ff191683800117855562000432565b8280016001018555821562000432579182015b828111156200043257825182559160200191906001019062000415565b506200044092915062000444565b5090565b5b8082111562000440576000815560010162000445565b6000602082840312156200046e57600080fd5b81516001600160a01b03811681146200048657600080fd5b9392505050565b600181811c90821680620004a257607f821691505b60208210811415620004c457634e487b7160e01b600052602260045260246000fd5b50919050565b8054600090600181811c9080831680620004e557607f831692505b60208084108214156200050857634e487b7160e01b600052602260045260246000fd5b8180156200051f5760018114620005315762000560565b60ff1986168952848901965062000560565b60008881526020902060005b86811015620005585781548b8201529085019083016200053d565b505084890196505b50505050505092915050565b60005b83811015620005895781810151838201526020016200056f565b8381111562000599576000848401525b50505050565b6c021a922a0aa22902a20a126229609d1b81526000620005c3600d830185620004ca565b605f60f81b81528351620005df8160018401602088016200056c565b7f2028696420696e742c2065787465726e616c5f6c696e6b20746578742c207820600192909101918201526b696e742c207920696e74293b60a01b6021820152602d01949350505050565b60018060a01b03831681526040602082015260008251806040840152620006598160608501602087016200056c565b601f01601f1916919091016060019392505050565b6000602082840312156200068157600080fd5b5051919050565b6000620006968286620004ca565b605f60f81b8082528551620006b3816001850160208a016200056c565b60019201918201528351620006d08160028401602088016200056c565b0160020195945050505050565b634e487b7160e01b600052601160045260246000fd5b60006000198214156200070a576200070a620006dd565b5060010190565b634e487b7160e01b600052601260045260246000fd5b60008262000739576200073962000711565b500490565b634e487b7160e01b600052604160045260246000fd5b600082821015620007695762000769620006dd565b500390565b60008262000780576200078062000711565b500690565b600082198211156200079b576200079b620006dd565b500190565b634e487b7160e01b600052603260045260246000fd5b61194980620007c66000396000f3fe608060405234801561001057600080fd5b50600436106101165760003560e01c8063715018a6116100a2578063b88d4fde11610071578063b88d4fde14610239578063c87b56dd1461024c578063cfc2f5ff1461025f578063e985e9c514610272578063f2fde38b146102ae57600080fd5b8063715018a6146102055780638da5cb5b1461020d57806395d89b411461021e578063a22cb4651461022657600080fd5b806323b872dd116100e957806323b872dd1461019857806340d097c3146101ab57806342842e0e146101cc5780636352211e146101df57806370a08231146101f257600080fd5b806301ffc9a71461011b57806306fdde0314610143578063081812fc14610158578063095ea7b314610183575b600080fd5b61012e61012936600461129a565b6102c1565b60405190151581526020015b60405180910390f35b61014b610313565b60405161013a919061130f565b61016b610166366004611322565b6103a5565b6040516001600160a01b03909116815260200161013a565b610196610191366004611350565b6103cc565b005b6101966101a636600461137c565b6104e7565b6101be6101b93660046113bd565b610518565b60405190815260200161013a565b6101966101da36600461137c565b6105e2565b61016b6101ed366004611322565b6105fd565b6101be6102003660046113bd565b61065d565b6101966106e3565b6007546001600160a01b031661016b565b61014b6106f7565b6101966102343660046113da565b610706565b61019661024736600461142e565b610715565b61014b61025a366004611322565b61074d565b61019661026d36600461150e565b610851565b61012e61028036600461153a565b6001600160a01b03918216600090815260056020908152604080832093909416825291909152205460ff1690565b6101966102bc3660046113bd565b61098f565b60006001600160e01b031982166380ac58cd60e01b14806102f257506001600160e01b03198216635b5e139f60e01b145b8061030d57506301ffc9a760e01b6001600160e01b03198316145b92915050565b60606000805461032290611568565b80601f016020809104026020016040519081016040528092919081815260200182805461034e90611568565b801561039b5780601f106103705761010080835404028352916020019161039b565b820191906000526020600020905b81548152906001019060200180831161037e57829003601f168201915b5050505050905090565b60006103b082610b06565b506000908152600460205260409020546001600160a01b031690565b60006103d7826105fd565b9050806001600160a01b0316836001600160a01b0316141561044a5760405162461bcd60e51b815260206004820152602160248201527f4552433732313a20617070726f76616c20746f2063757272656e74206f776e656044820152603960f91b60648201526084015b60405180910390fd5b336001600160a01b038216148061046657506104668133610280565b6104d85760405162461bcd60e51b815260206004820152603e60248201527f4552433732313a20617070726f76652063616c6c6572206973206e6f7420746f60448201527f6b656e206f776e6572206e6f7220617070726f76656420666f7220616c6c00006064820152608401610441565b6104e28383610b65565b505050565b6104f13382610bd3565b61050d5760405162461bcd60e51b8152600401610441906115a3565b6104e2838383610c51565b60008061052460085490565b600954600b549192506001600160a01b03169063eaf5d04e903090600a61054a86610a08565b60405160200161055b92919061160d565b6040516020818303038152906040526040518463ffffffff1660e01b815260040161058893929190611737565b600060405180830381600087803b1580156105a257600080fd5b505af11580156105b6573d6000803e3d6000fd5b505050506105d4838260405180602001604052806000815250610ded565b61030d600880546001019055565b6104e283838360405180602001604052806000815250610715565b6000818152600260205260408120546001600160a01b03168061030d5760405162461bcd60e51b8152602060048201526018602482015277115490cdcc8c4e881a5b9d985b1a59081d1bdad95b88125160421b6044820152606401610441565b60006001600160a01b0382166106c75760405162461bcd60e51b815260206004820152602960248201527f4552433732313a2061646472657373207a65726f206973206e6f7420612076616044820152683634b21037bbb732b960b91b6064820152608401610441565b506001600160a01b031660009081526003602052604090205490565b6106eb610e20565b6106f56000610e7a565b565b60606001805461032290611568565b610711338383610ecc565b5050565b61071f3383610bd3565b61073b5760405162461bcd60e51b8152600401610441906115a3565b61074784848484610f9b565b50505050565b606061075882610b06565b6000828152600660205260408120805461077190611568565b80601f016020809104026020016040519081016040528092919081815260200182805461079d90611568565b80156107ea5780601f106107bf576101008083540402835291602001916107ea565b820191906000526020600020905b8154815290600101906020018083116107cd57829003601f168201915b5050505050905060006107fb610fce565b905080516000141561080e575092915050565b815115610840578082604051602001610828929190611767565b60405160208183030381529060405292505050919050565b61084984610fdd565b949350505050565b6040516331a9108f60e11b81526004810184905233903090636352211e90602401602060405180830381865afa15801561088f573d6000803e3d6000fd5b505050506040513d601f19601f820116820180604052508101906108b39190611796565b6001600160a01b0316146108f95760405162461bcd60e51b815260206004820152600d60248201526c24b73b30b634b21037bbb732b960991b6044820152606401610441565b61020082108015610908575060015b6109445760405162461bcd60e51b815260206004820152600d60248201526c4f7574206f6620626f756e647360981b6044820152606401610441565b61020081108015610953575060015b6104e25760405162461bcd60e51b815260206004820152600d60248201526c4f7574206f6620626f756e647360981b6044820152606401610441565b610997610e20565b6001600160a01b0381166109fc5760405162461bcd60e51b815260206004820152602660248201527f4f776e61626c653a206e6577206f776e657220697320746865207a65726f206160448201526564647265737360d01b6064820152608401610441565b610a0581610e7a565b50565b606081610a2c5750506040805180820190915260018152600360fc1b602082015290565b8160005b8115610a565780610a40816117c9565b9150610a4f9050600a836117fa565b9150610a30565b60008167ffffffffffffffff811115610a7157610a71611418565b6040519080825280601f01601f191660200182016040528015610a9b576020820181803683370190505b5090505b841561084957610ab060018361180e565b9150610abd600a86611825565b610ac8906030611839565b60f81b818381518110610add57610add611851565b60200101906001600160f81b031916908160001a905350610aff600a866117fa565b9450610a9f565b6000818152600260205260409020546001600160a01b0316610a055760405162461bcd60e51b8152602060048201526018602482015277115490cdcc8c4e881a5b9d985b1a59081d1bdad95b88125160421b6044820152606401610441565b600081815260046020526040902080546001600160a01b0319166001600160a01b0384169081179091558190610b9a826105fd565b6001600160a01b03167f8c5be1e5ebec7d5bd14f71427d1e84f3dd0314c0f7b2291e5b200ac8c7c3b92560405160405180910390a45050565b600080610bdf836105fd565b9050806001600160a01b0316846001600160a01b03161480610c2657506001600160a01b0380821660009081526005602090815260408083209388168352929052205460ff165b806108495750836001600160a01b0316610c3f846103a5565b6001600160a01b031614949350505050565b826001600160a01b0316610c64826105fd565b6001600160a01b031614610cc85760405162461bcd60e51b815260206004820152602560248201527f4552433732313a207472616e736665722066726f6d20696e636f72726563742060448201526437bbb732b960d91b6064820152608401610441565b6001600160a01b038216610d2a5760405162461bcd60e51b8152602060048201526024808201527f4552433732313a207472616e7366657220746f20746865207a65726f206164646044820152637265737360e01b6064820152608401610441565b610d35600082610b65565b6001600160a01b0383166000908152600360205260408120805460019290610d5e90849061180e565b90915550506001600160a01b0382166000908152600360205260408120805460019290610d8c908490611839565b909155505060008181526002602052604080822080546001600160a01b0319166001600160a01b0386811691821790925591518493918716917fddf252ad1be2c89b69c2b068fc378daa952ba7f163c4a11628f55a4df523b3ef91a4505050565b610df78383611044565b610e046000848484611186565b6104e25760405162461bcd60e51b815260040161044190611867565b6007546001600160a01b031633146106f55760405162461bcd60e51b815260206004820181905260248201527f4f776e61626c653a2063616c6c6572206973206e6f7420746865206f776e65726044820152606401610441565b600780546001600160a01b038381166001600160a01b0319831681179093556040519116919082907f8be0079c531659141344cd1fd0a4f28419497f9722a3daafe3b4186f6b6457e090600090a35050565b816001600160a01b0316836001600160a01b03161415610f2e5760405162461bcd60e51b815260206004820152601960248201527f4552433732313a20617070726f766520746f2063616c6c6572000000000000006044820152606401610441565b6001600160a01b03838116600081815260056020908152604080832094871680845294825291829020805460ff191686151590811790915591519182527f17307eab39ab6107e8899845ad3d59bd9653f200f220920489ca2b5937696c31910160405180910390a3505050565b610fa6848484610c51565b610fb284848484611186565b6107475760405162461bcd60e51b815260040161044190611867565b6060600d805461032290611568565b6060610fe882610b06565b6000610ff2610fce565b90506000815111611012576040518060200160405280600081525061103d565b8061101c84610a08565b60405160200161102d929190611767565b6040516020818303038152906040525b9392505050565b6001600160a01b03821661109a5760405162461bcd60e51b815260206004820181905260248201527f4552433732313a206d696e7420746f20746865207a65726f20616464726573736044820152606401610441565b6000818152600260205260409020546001600160a01b0316156110ff5760405162461bcd60e51b815260206004820152601c60248201527f4552433732313a20746f6b656e20616c7265616479206d696e746564000000006044820152606401610441565b6001600160a01b0382166000908152600360205260408120805460019290611128908490611839565b909155505060008181526002602052604080822080546001600160a01b0319166001600160a01b03861690811790915590518392907fddf252ad1be2c89b69c2b068fc378daa952ba7f163c4a11628f55a4df523b3ef908290a45050565b60006001600160a01b0384163b1561127957604051630a85bd0160e11b81526001600160a01b0385169063150b7a02906111ca9033908990889088906004016118b9565b6020604051808303816000875af1925050508015611205575060408051601f3d908101601f19168201909252611202918101906118f6565b60015b61125f573d808015611233576040519150601f19603f3d011682016040523d82523d6000602084013e611238565b606091505b5080516112575760405162461bcd60e51b815260040161044190611867565b805181602001fd5b6001600160e01b031916630a85bd0160e11b149050610849565b506001949350505050565b6001600160e01b031981168114610a0557600080fd5b6000602082840312156112ac57600080fd5b813561103d81611284565b60005b838110156112d25781810151838201526020016112ba565b838111156107475750506000910152565b600081518084526112fb8160208601602086016112b7565b601f01601f19169290920160200192915050565b60208152600061103d60208301846112e3565b60006020828403121561133457600080fd5b5035919050565b6001600160a01b0381168114610a0557600080fd5b6000806040838503121561136357600080fd5b823561136e8161133b565b946020939093013593505050565b60008060006060848603121561139157600080fd5b833561139c8161133b565b925060208401356113ac8161133b565b929592945050506040919091013590565b6000602082840312156113cf57600080fd5b813561103d8161133b565b600080604083850312156113ed57600080fd5b82356113f88161133b565b91506020830135801515811461140d57600080fd5b809150509250929050565b634e487b7160e01b600052604160045260246000fd5b6000806000806080858703121561144457600080fd5b843561144f8161133b565b9350602085013561145f8161133b565b925060408501359150606085013567ffffffffffffffff8082111561148357600080fd5b818701915087601f83011261149757600080fd5b8135818111156114a9576114a9611418565b604051601f8201601f19908116603f011681019083821181831017156114d1576114d1611418565b816040528281528a60208487010111156114ea57600080fd5b82602086016020830137600060208483010152809550505050505092959194509250565b60008060006060848603121561152357600080fd5b505081359360208301359350604090920135919050565b6000806040838503121561154d57600080fd5b82356115588161133b565b9150602083013561140d8161133b565b600181811c9082168061157c57607f821691505b6020821081141561159d57634e487b7160e01b600052602260045260246000fd5b50919050565b6020808252602e908201527f4552433732313a2063616c6c6572206973206e6f7420746f6b656e206f776e6560408201526d1c881b9bdc88185c1c1c9bdd995960921b606082015260800190565b600081516116038185602086016112b7565b9290920192915050565b6b024a729a2a92a1024a72a27960a51b81526000600c6000855481600182811c91508083168061163e57607f831692505b602080841082141561165e57634e487b7160e01b86526022600452602486fd5b8180156116725760018114611687576116b8565b60ff1986168a890152848a01880196506116b8565b60008c81526020902060005b868110156116ae5781548c82018b0152908501908301611693565b505087858b010196505b5050505050506117006116fa827f202869642c2065787465726e616c5f6c696e6b2c20782c2079292056414c55458152620a640560eb1b602082015260230190565b866115f1565b91505061172c817f2c20276e6f742e696d706c656d656e7465642e78797a272c20302c20302900009052565b601e01949350505050565b60018060a01b038416815282602082015260606040820152600061175e60608301846112e3565b95945050505050565b600083516117798184602088016112b7565b83519083019061178d8183602088016112b7565b01949350505050565b6000602082840312156117a857600080fd5b815161103d8161133b565b634e487b7160e01b600052601160045260246000fd5b60006000198214156117dd576117dd6117b3565b5060010190565b634e487b7160e01b600052601260045260246000fd5b600082611809576118096117e4565b500490565b600082821015611820576118206117b3565b500390565b600082611834576118346117e4565b500690565b6000821982111561184c5761184c6117b3565b500190565b634e487b7160e01b600052603260045260246000fd5b60208082526032908201527f4552433732313a207472616e7366657220746f206e6f6e20455243373231526560408201527131b2b4bb32b91034b6b83632b6b2b73a32b960711b606082015260800190565b6001600160a01b03858116825284166020820152604081018390526080606082018190526000906118ec908301846112e3565b9695505050505050565b60006020828403121561190857600080fd5b815161103d8161128456fea26469706673582212204075b63a3afe6f881006ab3f6bc6cdd1fa93ac7dc95e3d88e903995cea04b88f64736f6c634300080c003368747470733a2f2f746573746e65742e7461626c656c616e642e6e6574776f726b2f71756572793f733d",
  "linkReferences": {},
  "deployedLinkReferences": {}
}