{
  "_format": "hh-sol-artifact-1",
  "contractName": "FactoryContract",
  "sourceName": "src/backend/contracts/FactoryContract.sol",
  "abi": [
    {
      "inputs": [],
      "stateMutability": "nonpayable",
      "type": "constructor"
    },
    {
      "anonymous": false,
      "inputs": [
        {
          "indexed": false,
          "internalType": "address",
          "name": "previousAdmin",
          "type": "address"
        },
        {
          "indexed": false,
          "internalType": "address",
          "name": "newAdmin",
          "type": "address"
        }
      ],
      "name": "AdminChanged",
      "type": "event"
    },
    {
      "anonymous": false,
      "inputs": [
        {
          "indexed": true,
          "internalType": "address",
          "name": "beacon",
          "type": "address"
        }
      ],
      "name": "BeaconUpgraded",
      "type": "event"
    },
    {
      "anonymous": false,
      "inputs": [
        {
          "indexed": false,
          "internalType": "uint8",
          "name": "version",
          "type": "uint8"
        }
      ],
      "name": "Initialized",
      "type": "event"
    },
    {
      "anonymous": false,
      "inputs": [
        {
          "indexed": true,
          "internalType": "address",
          "name": "previousOwner",
          "type": "address"
        },
        {
          "indexed": true,
          "internalType": "address",
          "name": "newOwner",
          "type": "address"
        }
      ],
      "name": "OwnershipTransferred",
      "type": "event"
    },
    {
      "anonymous": false,
      "inputs": [
        {
          "indexed": true,
          "internalType": "address",
          "name": "implementation",
          "type": "address"
        }
      ],
      "name": "Upgraded",
      "type": "event"
    },
    {
      "inputs": [
        {
          "internalType": "uint256",
          "name": "_communityId",
          "type": "uint256"
        },
        {
          "internalType": "string",
          "name": "_name",
          "type": "string"
        },
        {
          "internalType": "string",
          "name": "_symbol",
          "type": "string"
        },
        {
          "internalType": "uint256",
          "name": "_supply",
          "type": "uint256"
        }
      ],
      "name": "deployFTContract",
      "outputs": [],
      "stateMutability": "nonpayable",
      "type": "function"
    },
    {
      "inputs": [
        {
          "internalType": "uint256",
          "name": "_communityId",
          "type": "uint256"
        },
        {
          "internalType": "string",
          "name": "_name",
          "type": "string"
        },
        {
          "internalType": "string",
          "name": "_symbol",
          "type": "string"
        }
      ],
      "name": "deployNFTCollectionContract",
      "outputs": [],
      "stateMutability": "nonpayable",
      "type": "function"
    },
    {
      "inputs": [
        {
          "internalType": "address",
          "name": "_mainContractAddress",
          "type": "address"
        }
      ],
      "name": "initialize",
      "outputs": [],
      "stateMutability": "nonpayable",
      "type": "function"
    },
    {
      "inputs": [],
      "name": "owner",
      "outputs": [
        {
          "internalType": "address",
          "name": "",
          "type": "address"
        }
      ],
      "stateMutability": "view",
      "type": "function"
    },
    {
      "inputs": [],
      "name": "proxiableUUID",
      "outputs": [
        {
          "internalType": "bytes32",
          "name": "",
          "type": "bytes32"
        }
      ],
      "stateMutability": "view",
      "type": "function"
    },
    {
      "inputs": [],
      "name": "renounceOwnership",
      "outputs": [],
      "stateMutability": "nonpayable",
      "type": "function"
    },
    {
      "inputs": [
        {
          "internalType": "address",
          "name": "newOwner",
          "type": "address"
        }
      ],
      "name": "transferOwnership",
      "outputs": [],
      "stateMutability": "nonpayable",
      "type": "function"
    },
    {
      "inputs": [
        {
          "internalType": "address",
          "name": "newImplementation",
          "type": "address"
        }
      ],
      "name": "upgradeTo",
      "outputs": [],
      "stateMutability": "nonpayable",
      "type": "function"
    },
    {
      "inputs": [
        {
          "internalType": "address",
          "name": "newImplementation",
          "type": "address"
        },
        {
          "internalType": "bytes",
          "name": "data",
          "type": "bytes"
        }
      ],
      "name": "upgradeToAndCall",
      "outputs": [],
      "stateMutability": "payable",
      "type": "function"
    }
  ],
  "bytecode": "0x60a06040523060805234801561001457600080fd5b5061001d610022565b6100e2565b600054610100900460ff161561008e5760405162461bcd60e51b815260206004820152602760248201527f496e697469616c697a61626c653a20636f6e747261637420697320696e697469604482015266616c697a696e6760c81b606482015260840160405180910390fd5b60005460ff90811610156100e0576000805460ff191660ff9081179091556040519081527f7f26b83ff96e1f2b6a682f133852f6798a09c465da95921460cefb38474024989060200160405180910390a15b565b608051615d0d610119600039600081816101e00152818161022c015281816102d50152818161031801526103b40152615d0d6000f3fe608060405260043610620000915760003560e01c80638da5cb5b11620000605780638da5cb5b1462000117578063c4d66de81462000141578063d6bbb1021462000166578063ee01380d146200018b578063f2fde38b14620001b057600080fd5b80633659cfe614620000965780634f1ef28614620000bd57806352d1902d14620000d4578063715018a614620000ff575b600080fd5b348015620000a357600080fd5b50620000bb620000b536600462001053565b620001d5565b005b620000bb620000ce36600462001106565b620002ca565b348015620000e157600080fd5b50620000ec620003a7565b6040519081526020015b60405180910390f35b3480156200010c57600080fd5b50620000bb6200045d565b3480156200012457600080fd5b506033546040516001600160a01b039091168152602001620000f6565b3480156200014e57600080fd5b50620000bb6200016036600462001053565b62000475565b3480156200017357600080fd5b50620000bb6200018536600462001194565b620005c4565b3480156200019857600080fd5b50620000bb620001aa36600462001208565b62000801565b348015620001bd57600080fd5b50620000bb620001cf36600462001053565b62000a89565b306001600160a01b037f00000000000000000000000000000000000000000000000000000000000000001614156200022a5760405162461bcd60e51b8152600401620002219062001284565b60405180910390fd5b7f00000000000000000000000000000000000000000000000000000000000000006001600160a01b03166200027560008051602062005c91833981519152546001600160a01b031690565b6001600160a01b0316146200029e5760405162461bcd60e51b81526004016200022190620012d0565b620002a98162000b05565b60408051600080825260208201909252620002c79183919062000b0f565b50565b306001600160a01b037f0000000000000000000000000000000000000000000000000000000000000000161415620003165760405162461bcd60e51b8152600401620002219062001284565b7f00000000000000000000000000000000000000000000000000000000000000006001600160a01b03166200036160008051602062005c91833981519152546001600160a01b031690565b6001600160a01b0316146200038a5760405162461bcd60e51b81526004016200022190620012d0565b620003958262000b05565b620003a38282600162000b0f565b5050565b6000306001600160a01b037f00000000000000000000000000000000000000000000000000000000000000001614620004495760405162461bcd60e51b815260206004820152603860248201527f555550535570677261646561626c653a206d757374206e6f742062652063616c60448201527f6c6564207468726f7567682064656c656761746563616c6c0000000000000000606482015260840162000221565b5060008051602062005c9183398151915290565b6200046762000c8c565b62000473600062000ce8565b565b600054610100900460ff1615808015620004965750600054600160ff909116105b80620004b25750303b158015620004b2575060005460ff166001145b620005175760405162461bcd60e51b815260206004820152602e60248201527f496e697469616c697a61626c653a20636f6e747261637420697320616c72656160448201526d191e481a5b9a5d1a585b1a5e995960921b606482015260840162000221565b6000805460ff1916600117905580156200053b576000805461ff0019166101001790555b6200054562000d3a565b6200054f62000d6e565b60c980546001600160a01b0384166001600160a01b0319918216811790925560ca805490911690911790558015620003a3576000805461ff0019169055604051600181527f7f26b83ff96e1f2b6a682f133852f6798a09c465da95921460cefb38474024989060200160405180910390a15050565b600382511015620005e95760405162461bcd60e51b815260040162000221906200131c565b6003815110158015620005fe57506005815111155b6200061d5760405162461bcd60e51b815260040162000221906200136b565b60ca5460405163397fd15760e11b81523360048201526024810185905260009182916001600160a01b03909116906372ffa2ae90604401606060405180830381865afa15801562000672573d6000803e3d6000fd5b505050506040513d601f19601f82011682018060405250810190620006989190620013ac565b5090925090506001600160a01b03811615620007035760405162461bcd60e51b815260206004820152602360248201527f436f6d6d756e69747920616c72656164792068617665204e465420436f6e74726044820152621858dd60ea1b606482015260840162000221565b6000848433604051620007169062001021565b620007249392919062001451565b604051809103906000f08015801562000741573d6000803e3d6000fd5b5060cb80546001810182556000919091527fa7ce836d032b2bf62b7e2097a8e0a6d8aeb35405ad15271e96d3b0188a1d06fb0180546001600160a01b0319166001600160a01b0383811691821790925560ca5460405163b1c80f7f60e01b815233600482015260248101889052604481019290925292935091169063b1c80f7f90606401600060405180830381600087803b158015620007e057600080fd5b505af1158015620007f5573d6000803e3d6000fd5b50505050505050505050565b600383511015620008265760405162461bcd60e51b815260040162000221906200131c565b60038251101580156200083b57506005825111155b6200085a5760405162461bcd60e51b815260040162000221906200136b565b60008111620008a25760405162461bcd60e51b815260206004820152601360248201527215dc9bdb99c81cdd5c1c1b1e48185b5bdd5b9d606a1b604482015260640162000221565b60ca5460405163397fd15760e11b81523360048201526024810186905260009182916001600160a01b03909116906372ffa2ae90604401606060405180830381865afa158015620008f7573d6000803e3d6000fd5b505050506040513d601f19601f820116820180604052508101906200091d9190620013ac565b919350909150506001600160a01b03811615620009885760405162461bcd60e51b815260206004820152602260248201527f436f6d6d756e69747920616c7265616479206861766520465420436f6e74726160448201526118dd60f21b606482015260840162000221565b6000858533866040516200099c906200102f565b620009ab949392919062001493565b604051809103906000f080158015620009c8573d6000803e3d6000fd5b5060cc80546001810182556000919091527f47197230e1e4b29fc0bd84d7d78966c0925452aff72a2a121538b102457e9ebe0180546001600160a01b0319166001600160a01b0383811691821790925560ca546040516380deed0760e01b81523360048201526024810188905260448101929092529293509116906380deed0790606401600060405180830381600087803b15801562000a6757600080fd5b505af115801562000a7c573d6000803e3d6000fd5b5050505050505050505050565b62000a9362000c8c565b6001600160a01b03811662000afa5760405162461bcd60e51b815260206004820152602660248201527f4f776e61626c653a206e6577206f776e657220697320746865207a65726f206160448201526564647265737360d01b606482015260840162000221565b620002c78162000ce8565b620002c762000c8c565b7f4910fdfa16fed3260ed0e7147f7cc6da11a60208b5b9406d12a635614ffd91435460ff161562000b4a5762000b458362000d98565b505050565b826001600160a01b03166352d1902d6040518163ffffffff1660e01b8152600401602060405180830381865afa92505050801562000ba7575060408051601f3d908101601f1916820190925262000ba491810190620014d9565b60015b62000c0c5760405162461bcd60e51b815260206004820152602e60248201527f45524331393637557067726164653a206e657720696d706c656d656e7461746960448201526d6f6e206973206e6f74205555505360901b606482015260840162000221565b60008051602062005c91833981519152811462000c7e5760405162461bcd60e51b815260206004820152602960248201527f45524331393637557067726164653a20756e737570706f727465642070726f786044820152681a58589b195555525160ba1b606482015260840162000221565b5062000b4583838362000e37565b6033546001600160a01b03163314620004735760405162461bcd60e51b815260206004820181905260248201527f4f776e61626c653a2063616c6c6572206973206e6f7420746865206f776e6572604482015260640162000221565b603380546001600160a01b038381166001600160a01b0319831681179093556040519116919082907f8be0079c531659141344cd1fd0a4f28419497f9722a3daafe3b4186f6b6457e090600090a35050565b600054610100900460ff1662000d645760405162461bcd60e51b81526004016200022190620014f3565b6200047362000e68565b600054610100900460ff16620004735760405162461bcd60e51b81526004016200022190620014f3565b6001600160a01b0381163b62000e075760405162461bcd60e51b815260206004820152602d60248201527f455243313936373a206e657720696d706c656d656e746174696f6e206973206e60448201526c1bdd08184818dbdb9d1c9858dd609a1b606482015260840162000221565b60008051602062005c9183398151915280546001600160a01b0319166001600160a01b0392909216919091179055565b62000e428362000e9d565b60008251118062000e505750805b1562000b455762000e62838362000edf565b50505050565b600054610100900460ff1662000e925760405162461bcd60e51b81526004016200022190620014f3565b620004733362000ce8565b62000ea88162000d98565b6040516001600160a01b038216907fbc7cd75a20ee27fd9adebab32041f755214dbc6bffa90cc0225b39da2e5c2d3b90600090a250565b60606001600160a01b0383163b62000f495760405162461bcd60e51b815260206004820152602660248201527f416464726573733a2064656c65676174652063616c6c20746f206e6f6e2d636f6044820152651b9d1c9858dd60d21b606482015260840162000221565b600080846001600160a01b03168460405162000f6691906200153e565b600060405180830381855af49150503d806000811462000fa3576040519150601f19603f3d011682016040523d82523d6000602084013e62000fa8565b606091505b509150915062000fd3828260405180606001604052806027815260200162005cb16027913962000fdc565b95945050505050565b6060831562000fed5750816200101a565b82511562000ffe5782518084602001fd5b8160405162461bcd60e51b81526004016200022191906200155c565b9392505050565b613540806200157283390190565b6111df8062004ab283390190565b6001600160a01b0381168114620002c757600080fd5b6000602082840312156200106657600080fd5b81356200101a816200103d565b634e487b7160e01b600052604160045260246000fd5b600067ffffffffffffffff80841115620010a757620010a762001073565b604051601f8501601f19908116603f01168101908282118183101715620010d257620010d262001073565b81604052809350858152868686011115620010ec57600080fd5b858560208301376000602087830101525050509392505050565b600080604083850312156200111a57600080fd5b823562001127816200103d565b9150602083013567ffffffffffffffff8111156200114457600080fd5b8301601f810185136200115657600080fd5b620011678582356020840162001089565b9150509250929050565b600082601f8301126200118357600080fd5b6200101a8383356020850162001089565b600080600060608486031215620011aa57600080fd5b83359250602084013567ffffffffffffffff80821115620011ca57600080fd5b620011d88783880162001171565b93506040860135915080821115620011ef57600080fd5b50620011fe8682870162001171565b9150509250925092565b600080600080608085870312156200121f57600080fd5b84359350602085013567ffffffffffffffff808211156200123f57600080fd5b6200124d8883890162001171565b945060408701359150808211156200126457600080fd5b50620012738782880162001171565b949793965093946060013593505050565b6020808252602c908201527f46756e6374696f6e206d7573742062652063616c6c6564207468726f7567682060408201526b19195b1959d85d1958d85b1b60a21b606082015260800190565b6020808252602c908201527f46756e6374696f6e206d7573742062652063616c6c6564207468726f7567682060408201526b6163746976652070726f787960a01b606082015260800190565b6020808252602f908201527f436f6c6c656374696f6e206e616d652073686f756c64206265206c6f6e67657260408201526e207468616e20322073796d626f6c7360881b606082015260800190565b60208082526021908201527f53796d626f6c206c656e6774682073686f756c6420626520332d3520636861726040820152607360f81b606082015260800190565b600080600060608486031215620013c257600080fd5b835192506020840151620013d6816200103d565b6040850151909250620013e9816200103d565b809150509250925092565b60005b8381101562001411578181015183820152602001620013f7565b8381111562000e625750506000910152565b600081518084526200143d816020860160208601620013f4565b601f01601f19169290920160200192915050565b60608152600062001466606083018662001423565b82810360208401526200147a818662001423565b91505060018060a01b0383166040830152949350505050565b608081526000620014a8608083018762001423565b8281036020840152620014bc818762001423565b6001600160a01b0395909516604084015250506060015292915050565b600060208284031215620014ec57600080fd5b5051919050565b6020808252602b908201527f496e697469616c697a61626c653a20636f6e7472616374206973206e6f74206960408201526a6e697469616c697a696e6760a81b606082015260800190565b6000825162001552818460208701620013f4565b9190910192915050565b6020815260006200101a60208301846200142356fe60806040523480156200001157600080fd5b506040516200354038038062003540833981016040819052620000349162000366565b6040805160208101909152600081526200004e81620000a7565b506200005a33620000c0565b6003805460ff60a01b19169055620000728162000112565b825162000087906005906020860190620001f3565b5081516200009d906006906020850190620001f3565b5050505062000430565b8051620000bc906002906020840190620001f3565b5050565b600380546001600160a01b038381166001600160a01b0319831681179093556040519116919082907f8be0079c531659141344cd1fd0a4f28419497f9722a3daafe3b4186f6b6457e090600090a35050565b6200011c62000195565b6001600160a01b038116620001875760405162461bcd60e51b815260206004820152602660248201527f4f776e61626c653a206e6577206f776e657220697320746865207a65726f206160448201526564647265737360d01b60648201526084015b60405180910390fd5b6200019281620000c0565b50565b6003546001600160a01b03163314620001f15760405162461bcd60e51b815260206004820181905260248201527f4f776e61626c653a2063616c6c6572206973206e6f7420746865206f776e657260448201526064016200017e565b565b8280546200020190620003f3565b90600052602060002090601f01602090048101928262000225576000855562000270565b82601f106200024057805160ff191683800117855562000270565b8280016001018555821562000270579182015b828111156200027057825182559160200191906001019062000253565b506200027e92915062000282565b5090565b5b808211156200027e576000815560010162000283565b634e487b7160e01b600052604160045260246000fd5b600082601f830112620002c157600080fd5b81516001600160401b0380821115620002de57620002de62000299565b604051601f8301601f19908116603f0116810190828211818310171562000309576200030962000299565b816040528381526020925086838588010111156200032657600080fd5b600091505b838210156200034a57858201830151818301840152908201906200032b565b838211156200035c5760008385830101525b9695505050505050565b6000806000606084860312156200037c57600080fd5b83516001600160401b03808211156200039457600080fd5b620003a287838801620002af565b94506020860151915080821115620003b957600080fd5b50620003c886828701620002af565b604086015190935090506001600160a01b0381168114620003e857600080fd5b809150509250925092565b600181811c908216806200040857607f821691505b602082108114156200042a57634e487b7160e01b600052602260045260246000fd5b50919050565b61310080620004406000396000f3fe60806040526004361061019b5760003560e01c80635e7ea74c116100ec578063a22cb4651161008a578063e985e9c511610064578063e985e9c514610496578063f242432a146104df578063f2fde38b146104ff578063fdbda0ec1461051f57600080fd5b8063a22cb46514610429578063bd85b03914610449578063cb27d43f1461047657600080fd5b80638cf73248116100c65780638cf73248146103b95780638da5cb5b146103d957806392676fda1461040157806395d89b411461041457600080fd5b80635e7ea74c1461036f578063715018a61461038f5780638456cb59146103a457600080fd5b80632e17af071161015957806346e635861161013357806346e63586146102d25780634e1273f4146102f45780634f558e79146103215780635c975abb1461035057600080fd5b80632e17af07146102875780632eb2c2d61461029d5780633f4ba83a146102bd57600080fd5b8062fdd58e146101a057806301ffc9a7146101d357806302fe53051461020357806306fdde03146102255780630e89341c14610247578063156e29f614610267575b600080fd5b3480156101ac57600080fd5b506101c06101bb366004612413565b610553565b6040519081526020015b60405180910390f35b3480156101df57600080fd5b506101f36101ee366004612453565b6105e9565b60405190151581526020016101ca565b34801561020f57600080fd5b5061022361021e366004612527565b61063b565b005b34801561023157600080fd5b5061023a61064f565b6040516101ca91906125b1565b34801561025357600080fd5b5061023a6102623660046125c4565b6106dd565b34801561027357600080fd5b506102236102823660046125dd565b6107a3565b34801561029357600080fd5b506101c060075481565b3480156102a957600080fd5b506102236102b83660046126a5565b61095b565b3480156102c957600080fd5b506102236109a7565b3480156102de57600080fd5b506102e76109b9565b6040516101ca919061274f565b34801561030057600080fd5b5061031461030f3660046128aa565b610c2a565b6040516101ca9190612949565b34801561032d57600080fd5b506101f361033c3660046125c4565b600090815260046020526040902054151590565b34801561035c57600080fd5b50600354600160a01b900460ff166101f3565b34801561037b57600080fd5b5061022361038a3660046129b3565b610d54565b34801561039b57600080fd5b50610223610ede565b3480156103b057600080fd5b50610223610ef0565b3480156103c557600080fd5b506102236103d43660046129f3565b610f00565b3480156103e557600080fd5b506003546040516001600160a01b0390911681526020016101ca565b61022361040f366004612a57565b611036565b34801561042057600080fd5b5061023a611252565b34801561043557600080fd5b50610223610444366004612a79565b61125f565b34801561045557600080fd5b506101c06104643660046125c4565b60009081526004602052604090205490565b34801561048257600080fd5b50610223610491366004612ab5565b61126e565b3480156104a257600080fd5b506101f36104b1366004612b61565b6001600160a01b03918216600090815260016020908152604080832093909416825291909152205460ff1690565b3480156104eb57600080fd5b506102236104fa366004612b94565b6114be565b34801561050b57600080fd5b5061022361051a366004612bf9565b611503565b34801561052b57600080fd5b5061053f61053a3660046125c4565b611579565b6040516101ca989796959493929190612c14565b60006001600160a01b0383166105c35760405162461bcd60e51b815260206004820152602a60248201527f455243313135353a2061646472657373207a65726f206973206e6f742061207660448201526930b634b21037bbb732b960b11b60648201526084015b60405180910390fd5b506000908152602081815260408083206001600160a01b03949094168352929052205490565b60006001600160e01b03198216636cdb3d1360e11b148061061a57506001600160e01b031982166303a24d0760e21b145b8061063557506301ffc9a760e01b6001600160e01b03198316145b92915050565b610643611789565b61064c816117e3565b50565b6005805461065c90612c98565b80601f016020809104026020016040519081016040528092919081815260200182805461068890612c98565b80156106d55780601f106106aa576101008083540402835291602001916106d5565b820191906000526020600020905b8154815290600101906020018083116106b857829003601f168201915b505050505081565b6060600060086106ee600185612ce9565b815481106106fe576106fe612d00565b9060005260206000209060090201905080600101805461071d90612c98565b80601f016020809104026020016040519081016040528092919081815260200182805461074990612c98565b80156107965780601f1061076b57610100808354040283529160200191610796565b820191906000526020600020905b81548152906001019060200180831161077957829003601f168201915b5050505050915050919050565b6107ab611789565b600081116107ef5760405162461bcd60e51b815260206004820152601160248201527015dc9bdb99c81b5a5b9d08185b5bdd5b9d607a1b60448201526064016105ba565b6000821161080f5760405162461bcd60e51b81526004016105ba90612d16565b6007548211156108315760405162461bcd60e51b81526004016105ba90612d16565b6001600160a01b0383166108875760405162461bcd60e51b815260206004820181905260248201527f57726f6e672064657374696e6174696f6e2077616c6c6574204164647265737360448201526064016105ba565b60006008610896600185612ce9565b815481106108a6576108a6612d00565b9060005260206000209060090201905060008160050154111561091f578181600601546108d39190612d40565b8160050154101561091f5760405162461bcd60e51b8152602060048201526016602482015275139bdd08195b9bdd59da081cdd5c1c1b1e481b19599d60521b60448201526064016105ba565b818160060160008282546109339190612d40565b92505081905550610955848484604051806020016040528060008152506117f6565b50505050565b6001600160a01b038516331480610977575061097785336104b1565b6109935760405162461bcd60e51b81526004016105ba90612d58565b6109a08585858585611919565b5050505050565b6109af611789565b6109b7611b04565b565b60606008805480602002602001604051908101604052809291908181526020016000905b82821015610c21578382906000526020600020906009020160405180610100016040529081600082018054610a1190612c98565b80601f0160208091040260200160405190810160405280929190818152602001828054610a3d90612c98565b8015610a8a5780601f10610a5f57610100808354040283529160200191610a8a565b820191906000526020600020905b815481529060010190602001808311610a6d57829003601f168201915b50505050508152602001600182018054610aa390612c98565b80601f0160208091040260200160405190810160405280929190818152602001828054610acf90612c98565b8015610b1c5780601f10610af157610100808354040283529160200191610b1c565b820191906000526020600020905b815481529060010190602001808311610aff57829003601f168201915b50505050508152602001600282018054610b3590612c98565b80601f0160208091040260200160405190810160405280929190818152602001828054610b6190612c98565b8015610bae5780601f10610b8357610100808354040283529160200191610bae565b820191906000526020600020905b815481529060010190602001808311610b9157829003601f168201915b5050509183525050600382015460208083019190915260048301546040808401919091526005840154606084015260068401546080840152805180820190915260078401546001600160a01b031681526008909301548382015260a09091019190915290825260019290920191016109dd565b50505050905090565b60608151835114610c8f5760405162461bcd60e51b815260206004820152602960248201527f455243313135353a206163636f756e747320616e6420696473206c656e677468604482015268040dad2e6dac2e8c6d60bb1b60648201526084016105ba565b6000835167ffffffffffffffff811115610cab57610cab612470565b604051908082528060200260200182016040528015610cd4578160200160208202803683370190505b50905060005b8451811015610d4c57610d1f858281518110610cf857610cf8612d00565b6020026020010151858381518110610d1257610d12612d00565b6020026020010151610553565b828281518110610d3157610d31612d00565b6020908102919091010152610d4581612da7565b9050610cda565b509392505050565b610d5c611789565b600754841115610d7e5760405162461bcd60e51b81526004016105ba90612d16565b60006008610d8d600187612ce9565b81548110610d9d57610d9d612d00565b906000526020600020906009020190506000831115610e15578060060154831015610e155760405162461bcd60e51b815260206004820152602260248201527f537570706c79206973206c657373207468617420616c7265616479206d696e74604482015261195960f21b60648201526084016105ba565b81516001600160a01b031615610e9e576000826020015111610e795760405162461bcd60e51b815260206004820152601e60248201527f506c656173652070726f7669646520726f79616c74792070657263656e74000060448201526064016105ba565b605a82602001511115610e9e5760405162461bcd60e51b81526004016105ba90612dc2565b6004810193909355600583019190915580516007830180546001600160a01b0319166001600160a01b039092169190911790556020015160089091015550565b610ee6611789565b6109b76000611b59565b610ef8611789565b6109b7611bab565b610f08611789565b60008511610f285760405162461bcd60e51b81526004016105ba90612d16565b600754851115610f4a5760405162461bcd60e51b81526004016105ba90612d16565b60006004856005811115610f6057610f60612e08565b1415610f7757610f74620f423f6000611bee565b90505b6040518060a00160405280858152602001848152602001866005811115610fa057610fa0612e08565b81526020018381526020018281525060096000888152602001908152602001600020600082015181600001556020820151816001015560408201518160020160006101000a81548160ff0219169083600581111561100057611000612e08565b021790555060608201518051611020916003840191602090910190612309565b5060808201518160040155905050505050505050565b61103e611c62565b600081116110825760405162461bcd60e51b815260206004820152601160248201527015dc9bdb99c81b5a5b9d08185b5bdd5b9d607a1b60448201526064016105ba565b600082116110a25760405162461bcd60e51b81526004016105ba90612d16565b6007548211156110c45760405162461bcd60e51b81526004016105ba90612d16565b600060086110d3600185612ce9565b815481106110e3576110e3612d00565b9060005260206000209060090201905060008160050154111561115c578181600601546111109190612d40565b8160050154101561115c5760405162461bcd60e51b8152602060048201526016602482015275139bdd08195b9bdd59da081cdd5c1c1b1e481b19599d60521b60448201526064016105ba565b6004810154156111c75760008160040154836111789190612e1e565b9050803410156111c15760405162461bcd60e51b815260206004820152601460248201527315dc9bdb99c81c185e5b595b9d08185b5bdd5b9d60621b60448201526064016105ba565b50611217565b816001146112175760405162461bcd60e51b815260206004820152601e60248201527f596f752063616e2774206d696e74206d6f7265207468616e2031204e4654000060448201526064016105ba565b8181600601600082825461122b9190612d40565b9250508190555061124d338484604051806020016040528060008152506117f6565b505050565b6006805461065c90612c98565b61126a338383611caf565b5050565b611276611789565b60008651116112b85760405162461bcd60e51b815260206004820152600e60248201526d57726f6e67206a736f6e2055524960901b60448201526064016105ba565b60008551116112fb5760405162461bcd60e51b815260206004820152600f60248201526e57726f6e67206d656469612055524960881b60448201526064016105ba565b80516001600160a01b03161561138457600081602001511161135f5760405162461bcd60e51b815260206004820152601e60248201527f506c656173652070726f7669646520726f79616c74792070657263656e74000060448201526064016105ba565b605a816020015111156113845760405162461bcd60e51b81526004016105ba90612dc2565b6001600760008282546113979190612d40565b90915550506040805161010081018252858152602080820189905291810187905260075460608201526080810185905260a08101849052600060c0820181905260e0820184905260088054600181018255915281518051929360099092027ff3f7a9fe364faab93b216da50a3214154f22a0a2b415b23a84c8169e8b636ee30192611425928492019061236e565b50602082810151805161143e926001850192019061236e565b506040820151805161145a91600284019160209091019061236e565b50606082015160038201556080820151600482015560a0820151600582015560c0820151600682015560e09091015180516007830180546001600160a01b0319166001600160a01b0390921691909117905560200151600890910155505050505050565b6001600160a01b0385163314806114da57506114da85336104b1565b6114f65760405162461bcd60e51b81526004016105ba90612d58565b6109a08585858585611d90565b61150b611789565b6001600160a01b0381166115705760405162461bcd60e51b815260206004820152602660248201527f4f776e61626c653a206e6577206f776e657220697320746865207a65726f206160448201526564647265737360d01b60648201526084016105ba565b61064c81611b59565b6008818154811061158957600080fd5b90600052602060002090600902016000915090508060000180546115ac90612c98565b80601f01602080910402602001604051908101604052809291908181526020018280546115d890612c98565b80156116255780601f106115fa57610100808354040283529160200191611625565b820191906000526020600020905b81548152906001019060200180831161160857829003601f168201915b50505050509080600101805461163a90612c98565b80601f016020809104026020016040519081016040528092919081815260200182805461166690612c98565b80156116b35780601f10611688576101008083540402835291602001916116b3565b820191906000526020600020905b81548152906001019060200180831161169657829003601f168201915b5050505050908060020180546116c890612c98565b80601f01602080910402602001604051908101604052809291908181526020018280546116f490612c98565b80156117415780601f1061171657610100808354040283529160200191611741565b820191906000526020600020905b81548152906001019060200180831161172457829003601f168201915b5050505060038301546004840154600585015460068601546040805180820190915260078801546001600160a01b031681526008909701546020880152949592949193509188565b6003546001600160a01b031633146109b75760405162461bcd60e51b815260206004820181905260248201527f4f776e61626c653a2063616c6c6572206973206e6f7420746865206f776e657260448201526064016105ba565b805161126a90600290602084019061236e565b6001600160a01b0384166118565760405162461bcd60e51b815260206004820152602160248201527f455243313135353a206d696e7420746f20746865207a65726f206164647265736044820152607360f81b60648201526084016105ba565b33600061186285611ec8565b9050600061186f85611ec8565b905061188083600089858589611f13565b6000868152602081815260408083206001600160a01b038b168452909152812080548792906118b0908490612d40565b909155505060408051878152602081018790526001600160a01b03808a1692600092918716917fc3d58168c5ae7397731d063d5bbf3d657854427343f4c083240f7aacaa2d0f62910160405180910390a461191083600089898989611f29565b50505050505050565b815183511461197b5760405162461bcd60e51b815260206004820152602860248201527f455243313135353a2069647320616e6420616d6f756e7473206c656e677468206044820152670dad2e6dac2e8c6d60c31b60648201526084016105ba565b6001600160a01b0384166119a15760405162461bcd60e51b81526004016105ba90612e3d565b336119b0818787878787611f13565b60005b8451811015611a965760008582815181106119d0576119d0612d00565b6020026020010151905060008583815181106119ee576119ee612d00565b602090810291909101810151600084815280835260408082206001600160a01b038e168352909352919091205490915081811015611a3e5760405162461bcd60e51b81526004016105ba90612e82565b6000838152602081815260408083206001600160a01b038e8116855292528083208585039055908b16825281208054849290611a7b908490612d40565b9250508190555050505080611a8f90612da7565b90506119b3565b50846001600160a01b0316866001600160a01b0316826001600160a01b03167f4a39dc06d4c0dbc64b70af90fd698a233a518aa5d07e595d983b8c0526c8f7fb8787604051611ae6929190612ecc565b60405180910390a4611afc818787878787612085565b505050505050565b611b0c612140565b6003805460ff60a01b191690557f5db9ee0a495bf2e6ff9c91a7834c1ba4fdd244a5e8aa4e537bd38aeae4b073aa335b6040516001600160a01b03909116815260200160405180910390a1565b600380546001600160a01b038381166001600160a01b0319831681179093556040519116919082907f8be0079c531659141344cd1fd0a4f28419497f9722a3daafe3b4186f6b6457e090600090a35050565b611bb3611c62565b6003805460ff60a01b1916600160a01b1790557f62e78cea01bee320cd4e420270b5ea74000d11b0c9f74754ebdbfc544b05a258611b3c3390565b6040516001600160f81b031960f883901b1660208201526bffffffffffffffffffffffff193360601b1660218201524460358201524260558201526001607582015260009083906095016040516020818303038152906040528051906020012060001c611c5b9190612efa565b9392505050565b600354600160a01b900460ff16156109b75760405162461bcd60e51b815260206004820152601060248201526f14185d5cd8589b194e881c185d5cd95960821b60448201526064016105ba565b816001600160a01b0316836001600160a01b03161415611d235760405162461bcd60e51b815260206004820152602960248201527f455243313135353a2073657474696e6720617070726f76616c20737461747573604482015268103337b91039b2b63360b91b60648201526084016105ba565b6001600160a01b03838116600081815260016020908152604080832094871680845294825291829020805460ff191686151590811790915591519182527f17307eab39ab6107e8899845ad3d59bd9653f200f220920489ca2b5937696c31910160405180910390a3505050565b6001600160a01b038416611db65760405162461bcd60e51b81526004016105ba90612e3d565b336000611dc285611ec8565b90506000611dcf85611ec8565b9050611ddf838989858589611f13565b6000868152602081815260408083206001600160a01b038c16845290915290205485811015611e205760405162461bcd60e51b81526004016105ba90612e82565b6000878152602081815260408083206001600160a01b038d8116855292528083208985039055908a16825281208054889290611e5d908490612d40565b909155505060408051888152602081018890526001600160a01b03808b16928c821692918816917fc3d58168c5ae7397731d063d5bbf3d657854427343f4c083240f7aacaa2d0f62910160405180910390a4611ebd848a8a8a8a8a611f29565b505050505050505050565b60408051600180825281830190925260609160009190602080830190803683370190505090508281600081518110611f0257611f02612d00565b602090810291909101015292915050565b611f1b611c62565b611afc868686868686612190565b6001600160a01b0384163b15611afc5760405163f23a6e6160e01b81526001600160a01b0385169063f23a6e6190611f6d9089908990889088908890600401612f1c565b6020604051808303816000875af1925050508015611fa8575060408051601f3d908101601f19168201909252611fa591810190612f61565b60015b61205557611fb4612f7e565b806308c379a01415611fee5750611fc9612f9a565b80611fd45750611ff0565b8060405162461bcd60e51b81526004016105ba91906125b1565b505b60405162461bcd60e51b815260206004820152603460248201527f455243313135353a207472616e7366657220746f206e6f6e20455243313135356044820152732932b1b2b4bb32b91034b6b83632b6b2b73a32b960611b60648201526084016105ba565b6001600160e01b0319811663f23a6e6160e01b146119105760405162461bcd60e51b81526004016105ba90613024565b6001600160a01b0384163b15611afc5760405163bc197c8160e01b81526001600160a01b0385169063bc197c81906120c9908990899088908890889060040161306c565b6020604051808303816000875af1925050508015612104575060408051601f3d908101601f1916820190925261210191810190612f61565b60015b61211057611fb4612f7e565b6001600160e01b0319811663bc197c8160e01b146119105760405162461bcd60e51b81526004016105ba90613024565b600354600160a01b900460ff166109b75760405162461bcd60e51b815260206004820152601460248201527314185d5cd8589b194e881b9bdd081c185d5cd95960621b60448201526064016105ba565b6001600160a01b0385166122175760005b8351811015612215578281815181106121bc576121bc612d00565b6020026020010151600460008684815181106121da576121da612d00565b6020026020010151815260200190815260200160002060008282546121ff9190612d40565b9091555061220e905081612da7565b90506121a1565b505b6001600160a01b038416611afc5760005b835181101561191057600084828151811061224557612245612d00565b60200260200101519050600084838151811061226357612263612d00565b60200260200101519050600060046000848152602001908152602001600020549050818110156122e65760405162461bcd60e51b815260206004820152602860248201527f455243313135353a206275726e20616d6f756e74206578636565647320746f74604482015267616c537570706c7960c01b60648201526084016105ba565b6000928352600460205260409092209103905561230281612da7565b9050612228565b82805482825590600052602060002090810192821561235e579160200282015b8281111561235e57825182546001600160a01b0319166001600160a01b03909116178255602090920191600190910190612329565b5061236a9291506123e2565b5090565b82805461237a90612c98565b90600052602060002090601f01602090048101928261239c576000855561235e565b82601f106123b557805160ff191683800117855561235e565b8280016001018555821561235e579182015b8281111561235e5782518255916020019190600101906123c7565b5b8082111561236a57600081556001016123e3565b80356001600160a01b038116811461240e57600080fd5b919050565b6000806040838503121561242657600080fd5b61242f836123f7565b946020939093013593505050565b6001600160e01b03198116811461064c57600080fd5b60006020828403121561246557600080fd5b8135611c5b8161243d565b634e487b7160e01b600052604160045260246000fd5b601f8201601f1916810167ffffffffffffffff811182821017156124ac576124ac612470565b6040525050565b600082601f8301126124c457600080fd5b813567ffffffffffffffff8111156124de576124de612470565b6040516124f5601f8301601f191660200182612486565b81815284602083860101111561250a57600080fd5b816020850160208301376000918101602001919091529392505050565b60006020828403121561253957600080fd5b813567ffffffffffffffff81111561255057600080fd5b61255c848285016124b3565b949350505050565b6000815180845260005b8181101561258a5760208185018101518683018201520161256e565b8181111561259c576000602083870101525b50601f01601f19169290920160200192915050565b602081526000611c5b6020830184612564565b6000602082840312156125d657600080fd5b5035919050565b6000806000606084860312156125f257600080fd5b6125fb846123f7565b95602085013595506040909401359392505050565b600067ffffffffffffffff82111561262a5761262a612470565b5060051b60200190565b600082601f83011261264557600080fd5b8135602061265282612610565b60405161265f8282612486565b83815260059390931b850182019282810191508684111561267f57600080fd5b8286015b8481101561269a5780358352918301918301612683565b509695505050505050565b600080600080600060a086880312156126bd57600080fd5b6126c6866123f7565b94506126d4602087016123f7565b9350604086013567ffffffffffffffff808211156126f157600080fd5b6126fd89838a01612634565b9450606088013591508082111561271357600080fd5b61271f89838a01612634565b9350608088013591508082111561273557600080fd5b50612742888289016124b3565b9150509295509295909350565b60006020808301818452808551808352604092508286019150828160051b87010184880160005b8381101561282f57603f198984030185528151610120815181865261279d82870182612564565b915050888201518582038a8701526127b58282612564565b91505087820151858203898701526127cd8282612564565b606084810151908801526080808501519088015260a0808501519088015260c0808501519088015260e09384015180516001600160a01b0316858901526020810151610100890152939092509050509588019593505090860190600101612776565b509098975050505050505050565b600082601f83011261284e57600080fd5b8135602061285b82612610565b6040516128688282612486565b83815260059390931b850182019282810191508684111561288857600080fd5b8286015b8481101561269a5761289d816123f7565b835291830191830161288c565b600080604083850312156128bd57600080fd5b823567ffffffffffffffff808211156128d557600080fd5b6128e18683870161283d565b935060208501359150808211156128f757600080fd5b5061290485828601612634565b9150509250929050565b600081518084526020808501945080840160005b8381101561293e57815187529582019590820190600101612922565b509495945050505050565b602081526000611c5b602083018461290e565b60006040828403121561296e57600080fd5b6040516040810181811067ffffffffffffffff8211171561299157612991612470565b6040529050806129a0836123f7565b8152602083013560208201525092915050565b60008060008060a085870312156129c957600080fd5b8435935060208501359250604085013591506129e8866060870161295c565b905092959194509250565b600080600080600060a08688031215612a0b57600080fd5b85359450602086013560068110612a2157600080fd5b93506040860135925060608601359150608086013567ffffffffffffffff811115612a4b57600080fd5b6127428882890161283d565b60008060408385031215612a6a57600080fd5b50508035926020909101359150565b60008060408385031215612a8c57600080fd5b612a95836123f7565b915060208301358015158114612aaa57600080fd5b809150509250929050565b60008060008060008060e08789031215612ace57600080fd5b863567ffffffffffffffff80821115612ae657600080fd5b612af28a838b016124b3565b97506020890135915080821115612b0857600080fd5b612b148a838b016124b3565b96506040890135915080821115612b2a57600080fd5b50612b3789828a016124b3565b9450506060870135925060808701359150612b558860a0890161295c565b90509295509295509295565b60008060408385031215612b7457600080fd5b612b7d836123f7565b9150612b8b602084016123f7565b90509250929050565b600080600080600060a08688031215612bac57600080fd5b612bb5866123f7565b9450612bc3602087016123f7565b93506040860135925060608601359150608086013567ffffffffffffffff811115612bed57600080fd5b612742888289016124b3565b600060208284031215612c0b57600080fd5b611c5b826123f7565b6000610120808352612c288184018c612564565b90508281036020840152612c3c818b612564565b90508281036040840152612c50818a612564565b9150508660608301528560808301528460a08301528360c0830152612c8b60e083018480516001600160a01b03168252602090810151910152565b9998505050505050505050565b600181811c90821680612cac57607f821691505b60208210811415612ccd57634e487b7160e01b600052602260045260246000fd5b50919050565b634e487b7160e01b600052601160045260246000fd5b600082821015612cfb57612cfb612cd3565b500390565b634e487b7160e01b600052603260045260246000fd5b60208082526010908201526f2bb937b7339021b7b63632b1ba34b7b760811b604082015260600190565b60008219821115612d5357612d53612cd3565b500190565b6020808252602f908201527f455243313135353a2063616c6c6572206973206e6f7420746f6b656e206f776e60408201526e195c881b9bdc88185c1c1c9bdd9959608a1b606082015260800190565b6000600019821415612dbb57612dbb612cd3565b5060010190565b60208082526026908201527f526f79616c74792070657263656e742063616e2774206265206d6f7265207468604082015265616e2039302560d01b606082015260800190565b634e487b7160e01b600052602160045260246000fd5b6000816000190483118215151615612e3857612e38612cd3565b500290565b60208082526025908201527f455243313135353a207472616e7366657220746f20746865207a65726f206164604082015264647265737360d81b606082015260800190565b6020808252602a908201527f455243313135353a20696e73756666696369656e742062616c616e636520666f60408201526939103a3930b739b332b960b11b606082015260800190565b604081526000612edf604083018561290e565b8281036020840152612ef1818561290e565b95945050505050565b600082612f1757634e487b7160e01b600052601260045260246000fd5b500690565b6001600160a01b03868116825285166020820152604081018490526060810183905260a060808201819052600090612f5690830184612564565b979650505050505050565b600060208284031215612f7357600080fd5b8151611c5b8161243d565b600060033d1115612f975760046000803e5060005160e01c5b90565b600060443d1015612fa85790565b6040516003193d81016004833e81513d67ffffffffffffffff8160248401118184111715612fd857505050505090565b8285019150815181811115612ff05750505050505090565b843d870101602082850101111561300a5750505050505090565b61301960208286010187612486565b509095945050505050565b60208082526028908201527f455243313135353a204552433131353552656365697665722072656a656374656040820152676420746f6b656e7360c01b606082015260800190565b6001600160a01b0386811682528516602082015260a0604082018190526000906130989083018661290e565b82810360608401526130aa818661290e565b905082810360808401526130be8185612564565b9897505050505050505056fea264697066735822122064335d0618004b31e1a5d6a81389845112d88dcba76f918155c31f3cb7eb979b64736f6c634300080c003360806040523480156200001157600080fd5b50604051620011df380380620011df8339810160408190526200003491620004c5565b8351849084906200004d90600390602085019062000352565b5080516200006390600490602084019062000352565b50506005805460ff19169055506200007b33620000af565b6200009a826200009483670de0b6b3a76400006200056e565b62000109565b620000a58262000200565b50505050620005e8565b600580546001600160a01b03838116610100818102610100600160a81b031985161790945560405193909204169182907f8be0079c531659141344cd1fd0a4f28419497f9722a3daafe3b4186f6b6457e090600090a35050565b6001600160a01b038216620001655760405162461bcd60e51b815260206004820152601f60248201527f45524332303a206d696e7420746f20746865207a65726f20616464726573730060448201526064015b60405180910390fd5b62000173600083836200027f565b806002600082825462000187919062000590565b90915550506001600160a01b03821660009081526020819052604081208054839290620001b690849062000590565b90915550506040518181526001600160a01b038316906000907fddf252ad1be2c89b69c2b068fc378daa952ba7f163c4a11628f55a4df523b3ef9060200160405180910390a35050565b6200020a620002a6565b6001600160a01b038116620002715760405162461bcd60e51b815260206004820152602660248201527f4f776e61626c653a206e6577206f776e657220697320746865207a65726f206160448201526564647265737360d01b60648201526084016200015c565b6200027c81620000af565b50565b620002896200030a565b620002a1838383620002a160201b620004c81760201c565b505050565b6005546001600160a01b03610100909104163314620003085760405162461bcd60e51b815260206004820181905260248201527f4f776e61626c653a2063616c6c6572206973206e6f7420746865206f776e657260448201526064016200015c565b565b60055460ff1615620003085760405162461bcd60e51b815260206004820152601060248201526f14185d5cd8589b194e881c185d5cd95960821b60448201526064016200015c565b8280546200036090620005ab565b90600052602060002090601f016020900481019282620003845760008555620003cf565b82601f106200039f57805160ff1916838001178555620003cf565b82800160010185558215620003cf579182015b82811115620003cf578251825591602001919060010190620003b2565b50620003dd929150620003e1565b5090565b5b80821115620003dd5760008155600101620003e2565b634e487b7160e01b600052604160045260246000fd5b600082601f8301126200042057600080fd5b81516001600160401b03808211156200043d576200043d620003f8565b604051601f8301601f19908116603f01168101908282118183101715620004685762000468620003f8565b816040528381526020925086838588010111156200048557600080fd5b600091505b83821015620004a957858201830151818301840152908201906200048a565b83821115620004bb5760008385830101525b9695505050505050565b60008060008060808587031215620004dc57600080fd5b84516001600160401b0380821115620004f457600080fd5b62000502888389016200040e565b955060208701519150808211156200051957600080fd5b5062000528878288016200040e565b604087015190945090506001600160a01b03811681146200054857600080fd5b6060959095015193969295505050565b634e487b7160e01b600052601160045260246000fd5b60008160001904831182151516156200058b576200058b62000558565b500290565b60008219821115620005a657620005a662000558565b500190565b600181811c90821680620005c057607f821691505b60208210811415620005e257634e487b7160e01b600052602260045260246000fd5b50919050565b610be780620005f86000396000f3fe608060405234801561001057600080fd5b506004361061010b5760003560e01c806370a08231116100a257806395d89b411161007157806395d89b411461020f578063a457c2d714610217578063a9059cbb1461022a578063dd62ed3e1461023d578063f2fde38b1461025057600080fd5b806370a08231146101ad578063715018a6146101d65780638456cb59146101de5780638da5cb5b146101e657600080fd5b8063313ce567116100de578063313ce5671461017657806339509351146101855780633f4ba83a146101985780635c975abb146101a257600080fd5b806306fdde0314610110578063095ea7b31461012e57806318160ddd1461015157806323b872dd14610163575b600080fd5b610118610263565b6040516101259190610a24565b60405180910390f35b61014161013c366004610a95565b6102f5565b6040519015158152602001610125565b6002545b604051908152602001610125565b610141610171366004610abf565b61030d565b60405160128152602001610125565b610141610193366004610a95565b610331565b6101a0610353565b005b60055460ff16610141565b6101556101bb366004610afb565b6001600160a01b031660009081526020819052604090205490565b6101a0610365565b6101a0610377565b60055461010090046001600160a01b03166040516001600160a01b039091168152602001610125565b610118610387565b610141610225366004610a95565b610396565b610141610238366004610a95565b610416565b61015561024b366004610b1d565b610424565b6101a061025e366004610afb565b61044f565b60606003805461027290610b50565b80601f016020809104026020016040519081016040528092919081815260200182805461029e90610b50565b80156102eb5780601f106102c0576101008083540402835291602001916102eb565b820191906000526020600020905b8154815290600101906020018083116102ce57829003601f168201915b5050505050905090565b6000336103038185856104cd565b5060019392505050565b60003361031b8582856105f1565b61032685858561066b565b506001949350505050565b6000336103038185856103448383610424565b61034e9190610b8b565b6104cd565b61035b610844565b6103636108a4565b565b61036d610844565b61036360006108f6565b61037f610844565b610363610950565b60606004805461027290610b50565b600033816103a48286610424565b9050838110156104095760405162461bcd60e51b815260206004820152602560248201527f45524332303a2064656372656173656420616c6c6f77616e63652062656c6f77604482015264207a65726f60d81b60648201526084015b60405180910390fd5b61032682868684036104cd565b60003361030381858561066b565b6001600160a01b03918216600090815260016020908152604080832093909416825291909152205490565b610457610844565b6001600160a01b0381166104bc5760405162461bcd60e51b815260206004820152602660248201527f4f776e61626c653a206e6577206f776e657220697320746865207a65726f206160448201526564647265737360d01b6064820152608401610400565b6104c5816108f6565b50565b505050565b6001600160a01b03831661052f5760405162461bcd60e51b8152602060048201526024808201527f45524332303a20617070726f76652066726f6d20746865207a65726f206164646044820152637265737360e01b6064820152608401610400565b6001600160a01b0382166105905760405162461bcd60e51b815260206004820152602260248201527f45524332303a20617070726f766520746f20746865207a65726f206164647265604482015261737360f01b6064820152608401610400565b6001600160a01b0383811660008181526001602090815260408083209487168084529482529182902085905590518481527f8c5be1e5ebec7d5bd14f71427d1e84f3dd0314c0f7b2291e5b200ac8c7c3b925910160405180910390a3505050565b60006105fd8484610424565b9050600019811461066557818110156106585760405162461bcd60e51b815260206004820152601d60248201527f45524332303a20696e73756666696369656e7420616c6c6f77616e63650000006044820152606401610400565b61066584848484036104cd565b50505050565b6001600160a01b0383166106cf5760405162461bcd60e51b815260206004820152602560248201527f45524332303a207472616e736665722066726f6d20746865207a65726f206164604482015264647265737360d81b6064820152608401610400565b6001600160a01b0382166107315760405162461bcd60e51b815260206004820152602360248201527f45524332303a207472616e7366657220746f20746865207a65726f206164647260448201526265737360e81b6064820152608401610400565b61073c83838361098d565b6001600160a01b038316600090815260208190526040902054818110156107b45760405162461bcd60e51b815260206004820152602660248201527f45524332303a207472616e7366657220616d6f756e7420657863656564732062604482015265616c616e636560d01b6064820152608401610400565b6001600160a01b038085166000908152602081905260408082208585039055918516815290812080548492906107eb908490610b8b565b92505081905550826001600160a01b0316846001600160a01b03167fddf252ad1be2c89b69c2b068fc378daa952ba7f163c4a11628f55a4df523b3ef8460405161083791815260200190565b60405180910390a3610665565b6005546001600160a01b036101009091041633146103635760405162461bcd60e51b815260206004820181905260248201527f4f776e61626c653a2063616c6c6572206973206e6f7420746865206f776e65726044820152606401610400565b6108ac610995565b6005805460ff191690557f5db9ee0a495bf2e6ff9c91a7834c1ba4fdd244a5e8aa4e537bd38aeae4b073aa335b6040516001600160a01b03909116815260200160405180910390a1565b600580546001600160a01b03838116610100818102610100600160a81b031985161790945560405193909204169182907f8be0079c531659141344cd1fd0a4f28419497f9722a3daafe3b4186f6b6457e090600090a35050565b6109586109de565b6005805460ff191660011790557f62e78cea01bee320cd4e420270b5ea74000d11b0c9f74754ebdbfc544b05a2586108d93390565b6104c86109de565b60055460ff166103635760405162461bcd60e51b815260206004820152601460248201527314185d5cd8589b194e881b9bdd081c185d5cd95960621b6044820152606401610400565b60055460ff16156103635760405162461bcd60e51b815260206004820152601060248201526f14185d5cd8589b194e881c185d5cd95960821b6044820152606401610400565b600060208083528351808285015260005b81811015610a5157858101830151858201604001528201610a35565b81811115610a63576000604083870101525b50601f01601f1916929092016040019392505050565b80356001600160a01b0381168114610a9057600080fd5b919050565b60008060408385031215610aa857600080fd5b610ab183610a79565b946020939093013593505050565b600080600060608486031215610ad457600080fd5b610add84610a79565b9250610aeb60208501610a79565b9150604084013590509250925092565b600060208284031215610b0d57600080fd5b610b1682610a79565b9392505050565b60008060408385031215610b3057600080fd5b610b3983610a79565b9150610b4760208401610a79565b90509250929050565b600181811c90821680610b6457607f821691505b60208210811415610b8557634e487b7160e01b600052602260045260246000fd5b50919050565b60008219821115610bac57634e487b7160e01b600052601160045260246000fd5b50019056fea26469706673582212204745b4c8989a9c6169cb77b4a6aa007aa2c06984094bef28da7124ebf5cca7e464736f6c634300080c0033360894a13ba1a3210667c828492db98dca3e2076cc3735a920a3ca505d382bbc416464726573733a206c6f772d6c6576656c2064656c65676174652063616c6c206661696c6564a2646970667358221220ae58113b25276e0f7e124a2fe1994d912ae3a49fd2847f159e0e884af21a5fd164736f6c634300080c0033",
  "linkReferences": {},
  "deployedLinkReferences": {}
}