{
  "_format": "hh-sol-artifact-1",
  "contractName": "FactoryFTContract",
  "sourceName": "src/backend/contracts/FactoryFTContract.sol",
  "abi": [
    {
      "inputs": [],
      "stateMutability": "nonpayable",
      "type": "constructor"
    },
    {
      "anonymous": false,
      "inputs": [
        {
          "indexed": false,
          "internalType": "address",
          "name": "previousAdmin",
          "type": "address"
        },
        {
          "indexed": false,
          "internalType": "address",
          "name": "newAdmin",
          "type": "address"
        }
      ],
      "name": "AdminChanged",
      "type": "event"
    },
    {
      "anonymous": false,
      "inputs": [
        {
          "indexed": true,
          "internalType": "address",
          "name": "beacon",
          "type": "address"
        }
      ],
      "name": "BeaconUpgraded",
      "type": "event"
    },
    {
      "anonymous": false,
      "inputs": [
        {
          "indexed": false,
          "internalType": "uint8",
          "name": "version",
          "type": "uint8"
        }
      ],
      "name": "Initialized",
      "type": "event"
    },
    {
      "anonymous": false,
      "inputs": [
        {
          "indexed": true,
          "internalType": "address",
          "name": "previousOwner",
          "type": "address"
        },
        {
          "indexed": true,
          "internalType": "address",
          "name": "newOwner",
          "type": "address"
        }
      ],
      "name": "OwnershipTransferred",
      "type": "event"
    },
    {
      "anonymous": false,
      "inputs": [
        {
          "indexed": true,
          "internalType": "address",
          "name": "implementation",
          "type": "address"
        }
      ],
      "name": "Upgraded",
      "type": "event"
    },
    {
      "inputs": [
        {
          "internalType": "uint256",
          "name": "_communityId",
          "type": "uint256"
        },
        {
          "internalType": "string",
          "name": "_name",
          "type": "string"
        },
        {
          "internalType": "string",
          "name": "_symbol",
          "type": "string"
        },
        {
          "internalType": "uint256",
          "name": "_supply",
          "type": "uint256"
        }
      ],
      "name": "deployFTContract",
      "outputs": [],
      "stateMutability": "nonpayable",
      "type": "function"
    },
    {
      "inputs": [
        {
          "internalType": "address",
          "name": "_mainContractAddress",
          "type": "address"
        }
      ],
      "name": "initialize",
      "outputs": [],
      "stateMutability": "nonpayable",
      "type": "function"
    },
    {
      "inputs": [],
      "name": "owner",
      "outputs": [
        {
          "internalType": "address",
          "name": "",
          "type": "address"
        }
      ],
      "stateMutability": "view",
      "type": "function"
    },
    {
      "inputs": [],
      "name": "proxiableUUID",
      "outputs": [
        {
          "internalType": "bytes32",
          "name": "",
          "type": "bytes32"
        }
      ],
      "stateMutability": "view",
      "type": "function"
    },
    {
      "inputs": [],
      "name": "renounceOwnership",
      "outputs": [],
      "stateMutability": "nonpayable",
      "type": "function"
    },
    {
      "inputs": [
        {
          "internalType": "address",
          "name": "newOwner",
          "type": "address"
        }
      ],
      "name": "transferOwnership",
      "outputs": [],
      "stateMutability": "nonpayable",
      "type": "function"
    },
    {
      "inputs": [
        {
          "internalType": "address",
          "name": "newImplementation",
          "type": "address"
        }
      ],
      "name": "upgradeTo",
      "outputs": [],
      "stateMutability": "nonpayable",
      "type": "function"
    },
    {
      "inputs": [
        {
          "internalType": "address",
          "name": "newImplementation",
          "type": "address"
        },
        {
          "internalType": "bytes",
          "name": "data",
          "type": "bytes"
        }
      ],
      "name": "upgradeToAndCall",
      "outputs": [],
      "stateMutability": "payable",
      "type": "function"
    }
  ],
  "bytecode": "0x60a06040523060805234801561001457600080fd5b5061001d610022565b6100e2565b600054610100900460ff161561008e5760405162461bcd60e51b815260206004820152602760248201527f496e697469616c697a61626c653a20636f6e747261637420697320696e697469604482015266616c697a696e6760c81b606482015260840160405180910390fd5b60005460ff90811610156100e0576000805460ff191660ff9081179091556040519081527f7f26b83ff96e1f2b6a682f133852f6798a09c465da95921460cefb38474024989060200160405180910390a15b565b6080516131b3610119600039600081816101af015281816101fb015281816102a4015281816102e7015261038301526131b36000f3fe608060405260043610620000855760003560e01c80638da5cb5b11620000545780638da5cb5b146200010b578063c4d66de81462000135578063ee01380d146200015a578063f2fde38b146200017f57600080fd5b80633659cfe6146200008a5780634f1ef28614620000b157806352d1902d14620000c8578063715018a614620000f3575b600080fd5b3480156200009757600080fd5b50620000af620000a936600462000e47565b620001a4565b005b620000af620000c236600462000efa565b62000299565b348015620000d557600080fd5b50620000e062000376565b6040519081526020015b60405180910390f35b3480156200010057600080fd5b50620000af6200042c565b3480156200011857600080fd5b506033546040516001600160a01b039091168152602001620000ea565b3480156200014257600080fd5b50620000af6200015436600462000e47565b62000444565b3480156200016757600080fd5b50620000af6200017936600462000f88565b62000583565b3480156200018c57600080fd5b50620000af6200019e36600462000e47565b6200088b565b306001600160a01b037f0000000000000000000000000000000000000000000000000000000000000000161415620001f95760405162461bcd60e51b8152600401620001f09062001004565b60405180910390fd5b7f00000000000000000000000000000000000000000000000000000000000000006001600160a01b03166200024460008051602062003137833981519152546001600160a01b031690565b6001600160a01b0316146200026d5760405162461bcd60e51b8152600401620001f09062001050565b620002788162000907565b60408051600080825260208201909252620002969183919062000911565b50565b306001600160a01b037f0000000000000000000000000000000000000000000000000000000000000000161415620002e55760405162461bcd60e51b8152600401620001f09062001004565b7f00000000000000000000000000000000000000000000000000000000000000006001600160a01b03166200033060008051602062003137833981519152546001600160a01b031690565b6001600160a01b031614620003595760405162461bcd60e51b8152600401620001f09062001050565b620003648262000907565b620003728282600162000911565b5050565b6000306001600160a01b037f00000000000000000000000000000000000000000000000000000000000000001614620004185760405162461bcd60e51b815260206004820152603860248201527f555550535570677261646561626c653a206d757374206e6f742062652063616c60448201527f6c6564207468726f7567682064656c656761746563616c6c00000000000000006064820152608401620001f0565b506000805160206200313783398151915290565b6200043662000a8e565b62000442600062000aea565b565b600054610100900460ff1615808015620004655750600054600160ff909116105b80620004815750303b15801562000481575060005460ff166001145b620004e65760405162461bcd60e51b815260206004820152602e60248201527f496e697469616c697a61626c653a20636f6e747261637420697320616c72656160448201526d191e481a5b9a5d1a585b1a5e995960921b6064820152608401620001f0565b6000805460ff1916600117905580156200050a576000805461ff0019166101001790555b6200051462000b3c565b6200051e62000b70565b60c980546001600160a01b0319166001600160a01b038416179055801562000372576000805461ff0019169055604051600181527f7f26b83ff96e1f2b6a682f133852f6798a09c465da95921460cefb38474024989060200160405180910390a15050565b600383511015620005ef5760405162461bcd60e51b815260206004820152602f60248201527f436f6c6c656374696f6e206e616d652073686f756c64206265206c6f6e67657260448201526e207468616e20322073796d626f6c7360881b6064820152608401620001f0565b60038251101580156200060457506005825111155b6200065c5760405162461bcd60e51b815260206004820152602160248201527f53796d626f6c206c656e6774682073686f756c6420626520332d3520636861726044820152607360f81b6064820152608401620001f0565b60008111620006a45760405162461bcd60e51b815260206004820152601360248201527215dc9bdb99c81cdd5c1c1b1e48185b5bdd5b9d606a1b6044820152606401620001f0565b60c95460405163397fd15760e11b81523360048201526024810186905260009182916001600160a01b03909116906372ffa2ae90604401606060405180830381865afa158015620006f9573d6000803e3d6000fd5b505050506040513d601f19601f820116820180604052508101906200071f91906200109c565b919350909150506001600160a01b038116156200078a5760405162461bcd60e51b815260206004820152602260248201527f436f6d6d756e69747920616c7265616479206861766520465420436f6e74726160448201526118dd60f21b6064820152608401620001f0565b6000858533866040516200079e9062000e23565b620007ad949392919062001141565b604051809103906000f080158015620007ca573d6000803e3d6000fd5b5060ca80546001810182556000919091527f42d72674974f694b5f5159593243114d38a5c39c89d6b62fee061ff523240ee10180546001600160a01b0319166001600160a01b0383811691821790925560c9546040516380deed0760e01b81523360048201526024810188905260448101929092529293509116906380deed0790606401600060405180830381600087803b1580156200086957600080fd5b505af11580156200087e573d6000803e3d6000fd5b5050505050505050505050565b6200089562000a8e565b6001600160a01b038116620008fc5760405162461bcd60e51b815260206004820152602660248201527f4f776e61626c653a206e6577206f776e657220697320746865207a65726f206160448201526564647265737360d01b6064820152608401620001f0565b620002968162000aea565b6200029662000a8e565b7f4910fdfa16fed3260ed0e7147f7cc6da11a60208b5b9406d12a635614ffd91435460ff16156200094c57620009478362000b9a565b505050565b826001600160a01b03166352d1902d6040518163ffffffff1660e01b8152600401602060405180830381865afa925050508015620009a9575060408051601f3d908101601f19168201909252620009a69181019062001187565b60015b62000a0e5760405162461bcd60e51b815260206004820152602e60248201527f45524331393637557067726164653a206e657720696d706c656d656e7461746960448201526d6f6e206973206e6f74205555505360901b6064820152608401620001f0565b60008051602062003137833981519152811462000a805760405162461bcd60e51b815260206004820152602960248201527f45524331393637557067726164653a20756e737570706f727465642070726f786044820152681a58589b195555525160ba1b6064820152608401620001f0565b506200094783838362000c39565b6033546001600160a01b03163314620004425760405162461bcd60e51b815260206004820181905260248201527f4f776e61626c653a2063616c6c6572206973206e6f7420746865206f776e65726044820152606401620001f0565b603380546001600160a01b038381166001600160a01b0319831681179093556040519116919082907f8be0079c531659141344cd1fd0a4f28419497f9722a3daafe3b4186f6b6457e090600090a35050565b600054610100900460ff1662000b665760405162461bcd60e51b8152600401620001f090620011a1565b6200044262000c6a565b600054610100900460ff16620004425760405162461bcd60e51b8152600401620001f090620011a1565b6001600160a01b0381163b62000c095760405162461bcd60e51b815260206004820152602d60248201527f455243313936373a206e657720696d706c656d656e746174696f6e206973206e60448201526c1bdd08184818dbdb9d1c9858dd609a1b6064820152608401620001f0565b6000805160206200313783398151915280546001600160a01b0319166001600160a01b0392909216919091179055565b62000c448362000c9f565b60008251118062000c525750805b15620009475762000c64838362000ce1565b50505050565b600054610100900460ff1662000c945760405162461bcd60e51b8152600401620001f090620011a1565b620004423362000aea565b62000caa8162000b9a565b6040516001600160a01b038216907fbc7cd75a20ee27fd9adebab32041f755214dbc6bffa90cc0225b39da2e5c2d3b90600090a250565b60606001600160a01b0383163b62000d4b5760405162461bcd60e51b815260206004820152602660248201527f416464726573733a2064656c65676174652063616c6c20746f206e6f6e2d636f6044820152651b9d1c9858dd60d21b6064820152608401620001f0565b600080846001600160a01b03168460405162000d689190620011ec565b600060405180830381855af49150503d806000811462000da5576040519150601f19603f3d011682016040523d82523d6000602084013e62000daa565b606091505b509150915062000dd58282604051806060016040528060278152602001620031576027913962000dde565b95945050505050565b6060831562000def57508162000e1c565b82511562000e005782518084602001fd5b8160405162461bcd60e51b8152600401620001f091906200120a565b9392505050565b611f17806200122083390190565b6001600160a01b03811681146200029657600080fd5b60006020828403121562000e5a57600080fd5b813562000e1c8162000e31565b634e487b7160e01b600052604160045260246000fd5b600067ffffffffffffffff8084111562000e9b5762000e9b62000e67565b604051601f8501601f19908116603f0116810190828211818310171562000ec65762000ec662000e67565b8160405280935085815286868601111562000ee057600080fd5b858560208301376000602087830101525050509392505050565b6000806040838503121562000f0e57600080fd5b823562000f1b8162000e31565b9150602083013567ffffffffffffffff81111562000f3857600080fd5b8301601f8101851362000f4a57600080fd5b62000f5b8582356020840162000e7d565b9150509250929050565b600082601f83011262000f7757600080fd5b62000e1c8383356020850162000e7d565b6000806000806080858703121562000f9f57600080fd5b84359350602085013567ffffffffffffffff8082111562000fbf57600080fd5b62000fcd8883890162000f65565b9450604087013591508082111562000fe457600080fd5b5062000ff38782880162000f65565b949793965093946060013593505050565b6020808252602c908201527f46756e6374696f6e206d7573742062652063616c6c6564207468726f7567682060408201526b19195b1959d85d1958d85b1b60a21b606082015260800190565b6020808252602c908201527f46756e6374696f6e206d7573742062652063616c6c6564207468726f7567682060408201526b6163746976652070726f787960a01b606082015260800190565b600080600060608486031215620010b257600080fd5b835192506020840151620010c68162000e31565b6040850151909250620010d98162000e31565b809150509250925092565b60005b8381101562001101578181015183820152602001620010e7565b8381111562000c645750506000910152565b600081518084526200112d816020860160208601620010e4565b601f01601f19169290920160200192915050565b60808152600062001156608083018762001113565b82810360208401526200116a818762001113565b6001600160a01b0395909516604084015250506060015292915050565b6000602082840312156200119a57600080fd5b5051919050565b6020808252602b908201527f496e697469616c697a61626c653a20636f6e7472616374206973206e6f74206960408201526a6e697469616c697a696e6760a81b606082015260800190565b6000825162001200818460208701620010e4565b9190910192915050565b60208152600062000e1c60208301846200111356fe60806040523480156200001157600080fd5b5060405162001f1738038062001f178339810160408190526200003491620004c5565b8351849084906200004d90600390602085019062000352565b5080516200006390600490602084019062000352565b50506005805460ff19169055506200007b33620000af565b6200009a826200009483670de0b6b3a76400006200056e565b62000109565b620000a58262000200565b50505050620005e8565b600580546001600160a01b03838116610100818102610100600160a81b031985161790945560405193909204169182907f8be0079c531659141344cd1fd0a4f28419497f9722a3daafe3b4186f6b6457e090600090a35050565b6001600160a01b038216620001655760405162461bcd60e51b815260206004820152601f60248201527f45524332303a206d696e7420746f20746865207a65726f20616464726573730060448201526064015b60405180910390fd5b62000173600083836200027f565b806002600082825462000187919062000590565b90915550506001600160a01b03821660009081526020819052604081208054839290620001b690849062000590565b90915550506040518181526001600160a01b038316906000907fddf252ad1be2c89b69c2b068fc378daa952ba7f163c4a11628f55a4df523b3ef9060200160405180910390a35050565b6200020a620002a6565b6001600160a01b038116620002715760405162461bcd60e51b815260206004820152602660248201527f4f776e61626c653a206e6577206f776e657220697320746865207a65726f206160448201526564647265737360d01b60648201526084016200015c565b6200027c81620000af565b50565b620002896200030a565b620002a1838383620002a160201b620008261760201c565b505050565b6005546001600160a01b03610100909104163314620003085760405162461bcd60e51b815260206004820181905260248201527f4f776e61626c653a2063616c6c6572206973206e6f7420746865206f776e657260448201526064016200015c565b565b60055460ff1615620003085760405162461bcd60e51b815260206004820152601060248201526f14185d5cd8589b194e881c185d5cd95960821b60448201526064016200015c565b8280546200036090620005ab565b90600052602060002090601f016020900481019282620003845760008555620003cf565b82601f106200039f57805160ff1916838001178555620003cf565b82800160010185558215620003cf579182015b82811115620003cf578251825591602001919060010190620003b2565b50620003dd929150620003e1565b5090565b5b80821115620003dd5760008155600101620003e2565b634e487b7160e01b600052604160045260246000fd5b600082601f8301126200042057600080fd5b81516001600160401b03808211156200043d576200043d620003f8565b604051601f8301601f19908116603f01168101908282118183101715620004685762000468620003f8565b816040528381526020925086838588010111156200048557600080fd5b600091505b83821015620004a957858201830151818301840152908201906200048a565b83821115620004bb5760008385830101525b9695505050505050565b60008060008060808587031215620004dc57600080fd5b84516001600160401b0380821115620004f457600080fd5b62000502888389016200040e565b955060208701519150808211156200051957600080fd5b5062000528878288016200040e565b604087015190945090506001600160a01b03811681146200054857600080fd5b6060959095015193969295505050565b634e487b7160e01b600052601160045260246000fd5b60008160001904831182151516156200058b576200058b62000558565b500290565b60008219821115620005a657620005a662000558565b500190565b600181811c90821680620005c057607f821691505b60208210811415620005e257634e487b7160e01b600052602260045260246000fd5b50919050565b61191f80620005f86000396000f3fe60806040526004361061012a5760003560e01c806370a08231116100ab578063a457c2d71161006f578063a457c2d714610315578063a6b0363314610335578063a9059cbb14610357578063b46d9d6714610377578063dd62ed3e1461038a578063f2fde38b146103aa57600080fd5b806370a082311461026a578063715018a6146102a05780638456cb59146102b55780638da5cb5b146102ca57806395d89b411461030057600080fd5b8063381da488116100f2578063381da488146101e557806339509351146102075780633f4ba83a146102275780635c975abb1461023c57806369b0aafa1461025457600080fd5b806306fdde031461012f578063095ea7b31461015a57806318160ddd1461018a57806323b872dd146101a9578063313ce567146101c9575b600080fd5b34801561013b57600080fd5b506101446103ca565b6040516101519190611402565b60405180910390f35b34801561016657600080fd5b5061017a610175366004611473565b61045c565b6040519015158152602001610151565b34801561019657600080fd5b506002545b604051908152602001610151565b3480156101b557600080fd5b5061017a6101c436600461149d565b610474565b3480156101d557600080fd5b5060405160128152602001610151565b3480156101f157600080fd5b506102056102003660046114d9565b610498565b005b34801561021357600080fd5b5061017a610222366004611473565b61082b565b34801561023357600080fd5b5061020561084d565b34801561024857600080fd5b5060055460ff1661017a565b34801561026057600080fd5b5061019b60065481565b34801561027657600080fd5b5061019b6102853660046114f2565b6001600160a01b031660009081526020819052604090205490565b3480156102ac57600080fd5b5061020561085f565b3480156102c157600080fd5b50610205610871565b3480156102d657600080fd5b5060055461010090046001600160a01b03166040516001600160a01b039091168152602001610151565b34801561030c57600080fd5b50610144610881565b34801561032157600080fd5b5061017a610330366004611473565b610890565b34801561034157600080fd5b5061034a610910565b6040516101519190611589565b34801561036357600080fd5b5061017a610372366004611473565b610a63565b61020561038536600461169b565b610a71565b34801561039657600080fd5b5061019b6103a53660046117b0565b610c5d565b3480156103b657600080fd5b506102056103c53660046114f2565b610c88565b6060600380546103d9906117e3565b80601f0160208091040260200160405190810160405280929190818152602001828054610405906117e3565b80156104525780601f1061042757610100808354040283529160200191610452565b820191906000526020600020905b81548152906001019060200180831161043557829003601f168201915b5050505050905090565b60003361046a818585610d01565b5060019392505050565b600033610482858285610e25565b61048d858585610e99565b506001949350505050565b6104a0611072565b6104a86112c6565b60005b60065481101561079d5782600782815481106104c9576104c961181e565b90600052602060002090600a020160000154141561078d57600781815481106104f4576104f461181e565b90600052602060002090600a020160405180610140016040529081600082015481526020016001820154815260200160028201548152602001600382015481526020016004820154815260200160058201548152602001600682015481526020016007820160009054906101000a900460ff1660058111156105785761057861150d565b60058111156105895761058961150d565b8152602001600882018054806020026020016040519081016040528092919081815260200182805480156105e657602002820191906000526020600020905b81546001600160a01b031681526001909101906020018083116105c8575b50505091835250506009919091015460ff16151560209091015260075490925060011015610711576007600160065461061f919061184a565b8154811061062f5761062f61181e565b90600052602060002090600a0201600782815481106106505761065061181e565b90600052602060002090600a0201600082015481600001556001820154816001015560028201548160020155600382015481600301556004820154816004015560058201548160050155600682015481600601556007820160009054906101000a900460ff168160070160006101000a81548160ff021916908360058111156106db576106db61150d565b0217905550600882810180546106f4928401919061132a565b506009918201549101805460ff191660ff90921615159190911790555b600780548061072257610722611861565b600082815260208120600a6000199093019283020181815560018101829055600281018290556003810182905560048101829055600581018290556006810182905560078101805460ff191690559061077e600883018261137a565b50600901805460ff1916905590555b61079681611877565b90506104ab565b506000816040015182602001516107b4919061184a565b905080156108265760405163a9059cbb60e01b815233600482015260248101829052309063a9059cbb906044016020604051808303816000875af1158015610800573d6000803e3d6000fd5b505050506040513d601f19601f820116820180604052508101906108249190611892565b505b505050565b60003361046a81858561083e8383610c5d565b61084891906118af565b610d01565b610855611072565b61085d6110d2565b565b610867611072565b61085d6000611124565b610879611072565b61085d61117e565b6060600480546103d9906117e3565b6000338161089e8286610c5d565b9050838110156109035760405162461bcd60e51b815260206004820152602560248201527f45524332303a2064656372656173656420616c6c6f77616e63652062656c6f77604482015264207a65726f60d81b60648201526084015b60405180910390fd5b61048d8286868403610d01565b60606007805480602002602001604051908101604052809291908181526020016000905b82821015610a5a57838290600052602060002090600a020160405180610140016040529081600082015481526020016001820154815260200160028201548152602001600382015481526020016004820154815260200160058201548152602001600682015481526020016007820160009054906101000a900460ff1660058111156109c2576109c261150d565b60058111156109d3576109d361150d565b815260200160088201805480602002602001604051908101604052809291908181526020018280548015610a3057602002820191906000526020600020905b81546001600160a01b03168152600190910190602001808311610a12575b50505091835250506009919091015460ff1615156020918201529082526001929092019101610934565b50505050905090565b60003361046a818585610e99565b610a79611072565b60006004886005811115610a8f57610a8f61150d565b1415610aa657610aa3620f423f60016111bb565b90505b6040516323b872dd60e01b8152336004820152306024820181905260448201859052906323b872dd906064016020604051808303816000875af1158015610af1573d6000803e3d6000fd5b505050506040513d601f19601f82011682018060405250810190610b159190611892565b50600160066000828254610b2991906118af565b9250508190555060076040518061014001604052806006548152602001858152602001600081526020018481526020018981526020018881526020018381526020018a6005811115610b7d57610b7d61150d565b815260208082018990528715156040928301528354600181810186556000958652948290208451600a909202019081559083015181850155908201516002820155606082015160038201556080820151600482015560a082015160058083019190915560c0830151600683015560e0830151600783018054949593949193909260ff19909216918490811115610c1557610c1561150d565b02179055506101008201518051610c36916008840191602090910190611398565b5061012091909101516009909101805460ff19169115159190911790555050505050505050565b6001600160a01b03918216600090815260016020908152604080832093909416825291909152205490565b610c90611072565b6001600160a01b038116610cf55760405162461bcd60e51b815260206004820152602660248201527f4f776e61626c653a206e6577206f776e657220697320746865207a65726f206160448201526564647265737360d01b60648201526084016108fa565b610cfe81611124565b50565b6001600160a01b038316610d635760405162461bcd60e51b8152602060048201526024808201527f45524332303a20617070726f76652066726f6d20746865207a65726f206164646044820152637265737360e01b60648201526084016108fa565b6001600160a01b038216610dc45760405162461bcd60e51b815260206004820152602260248201527f45524332303a20617070726f766520746f20746865207a65726f206164647265604482015261737360f01b60648201526084016108fa565b6001600160a01b0383811660008181526001602090815260408083209487168084529482529182902085905590518481527f8c5be1e5ebec7d5bd14f71427d1e84f3dd0314c0f7b2291e5b200ac8c7c3b925910160405180910390a3505050565b6000610e318484610c5d565b905060001981146108245781811015610e8c5760405162461bcd60e51b815260206004820152601d60248201527f45524332303a20696e73756666696369656e7420616c6c6f77616e636500000060448201526064016108fa565b6108248484848403610d01565b6001600160a01b038316610efd5760405162461bcd60e51b815260206004820152602560248201527f45524332303a207472616e736665722066726f6d20746865207a65726f206164604482015264647265737360d81b60648201526084016108fa565b6001600160a01b038216610f5f5760405162461bcd60e51b815260206004820152602360248201527f45524332303a207472616e7366657220746f20746865207a65726f206164647260448201526265737360e81b60648201526084016108fa565b610f6a83838361122f565b6001600160a01b03831660009081526020819052604090205481811015610fe25760405162461bcd60e51b815260206004820152602660248201527f45524332303a207472616e7366657220616d6f756e7420657863656564732062604482015265616c616e636560d01b60648201526084016108fa565b6001600160a01b038085166000908152602081905260408082208585039055918516815290812080548492906110199084906118af565b92505081905550826001600160a01b0316846001600160a01b03167fddf252ad1be2c89b69c2b068fc378daa952ba7f163c4a11628f55a4df523b3ef8460405161106591815260200190565b60405180910390a3610824565b6005546001600160a01b0361010090910416331461085d5760405162461bcd60e51b815260206004820181905260248201527f4f776e61626c653a2063616c6c6572206973206e6f7420746865206f776e657260448201526064016108fa565b6110da611237565b6005805460ff191690557f5db9ee0a495bf2e6ff9c91a7834c1ba4fdd244a5e8aa4e537bd38aeae4b073aa335b6040516001600160a01b03909116815260200160405180910390a1565b600580546001600160a01b03838116610100818102610100600160a81b031985161790945560405193909204169182907f8be0079c531659141344cd1fd0a4f28419497f9722a3daafe3b4186f6b6457e090600090a35050565b611186611280565b6005805460ff191660011790557f62e78cea01bee320cd4e420270b5ea74000d11b0c9f74754ebdbfc544b05a2586111073390565b6040516001600160f81b031960f883901b1660208201526bffffffffffffffffffffffff193360601b1660218201524460358201524260558201526001607582015260009083906095016040516020818303038152906040528051906020012060001c61122891906118c7565b9392505050565b610826611280565b60055460ff1661085d5760405162461bcd60e51b815260206004820152601460248201527314185d5cd8589b194e881b9bdd081c185d5cd95960621b60448201526064016108fa565b60055460ff161561085d5760405162461bcd60e51b815260206004820152601060248201526f14185d5cd8589b194e881c185d5cd95960821b60448201526064016108fa565b60405180610140016040528060008152602001600081526020016000815260200160008152602001600081526020016000815260200160008152602001600060058111156113165761131661150d565b815260606020820152600060409091015290565b82805482825590600052602060002090810192821561136a5760005260206000209182015b8281111561136a57825482559160010191906001019061134f565b506113769291506113ed565b5090565b5080546000825590600052602060002090810190610cfe91906113ed565b82805482825590600052602060002090810192821561136a579160200282015b8281111561136a57825182546001600160a01b0319166001600160a01b039091161782556020909201916001909101906113b8565b5b8082111561137657600081556001016113ee565b600060208083528351808285015260005b8181101561142f57858101830151858201604001528201611413565b81811115611441576000604083870101525b50601f01601f1916929092016040019392505050565b80356001600160a01b038116811461146e57600080fd5b919050565b6000806040838503121561148657600080fd5b61148f83611457565b946020939093013593505050565b6000806000606084860312156114b257600080fd5b6114bb84611457565b92506114c960208501611457565b9150604084013590509250925092565b6000602082840312156114eb57600080fd5b5035919050565b60006020828403121561150457600080fd5b61122882611457565b634e487b7160e01b600052602160045260246000fd5b6006811061154157634e487b7160e01b600052602160045260246000fd5b9052565b600081518084526020808501945080840160005b8381101561157e5781516001600160a01b031687529582019590820190600101611559565b509495945050505050565b60006020808301818452808551808352604092508286019150828160051b87010184880160005b8381101561165e57888303603f1901855281518051845287810151888501528681015187850152606080820151908501526080808201519085015260a0808201519085015260c0808201519085015260e080820151610140919061161682880182611523565b505061010080830151828288015261163083880182611545565b9250505061012080830151925061164a8187018415159052565b5095880195935050908601906001016115b0565b509098975050505050505050565b634e487b7160e01b600052604160045260246000fd5b8015158114610cfe57600080fd5b803561146e81611682565b600080600080600080600060e0888a0312156116b657600080fd5b8735600681106116c557600080fd5b9650602088810135965060408901359550606089013567ffffffffffffffff808211156116f157600080fd5b818b0191508b601f83011261170557600080fd5b8135818111156117175761171761166c565b8060051b604051601f19603f8301168101818110858211171561173c5761173c61166c565b60405291825284820192508381018501918e83111561175a57600080fd5b938501935b8285101561177f5761177085611457565b8452938501939285019261175f565b80995050505050505061179460808901611690565b925060a0880135915060c0880135905092959891949750929550565b600080604083850312156117c357600080fd5b6117cc83611457565b91506117da60208401611457565b90509250929050565b600181811c908216806117f757607f821691505b6020821081141561181857634e487b7160e01b600052602260045260246000fd5b50919050565b634e487b7160e01b600052603260045260246000fd5b634e487b7160e01b600052601160045260246000fd5b60008282101561185c5761185c611834565b500390565b634e487b7160e01b600052603160045260246000fd5b600060001982141561188b5761188b611834565b5060010190565b6000602082840312156118a457600080fd5b815161122881611682565b600082198211156118c2576118c2611834565b500190565b6000826118e457634e487b7160e01b600052601260045260246000fd5b50069056fea2646970667358221220213f79dd2b4fb9603fbf3f9cd51636d2eff49b15543bf235be475f2846ac9dd864736f6c634300080c0033360894a13ba1a3210667c828492db98dca3e2076cc3735a920a3ca505d382bbc416464726573733a206c6f772d6c6576656c2064656c65676174652063616c6c206661696c6564a26469706673582212202dfb303270e58904c782d5336348509539a41f76559b8c65a324c2b22db4a0e764736f6c634300080c0033",
  "linkReferences": {},
  "deployedLinkReferences": {}
}