{
  "_format": "hh-sol-artifact-1",
  "contractName": "FactoryMembersContract",
  "sourceName": "src/backend/contracts/FactoryMembersContract.sol",
  "abi": [
    {
      "inputs": [],
      "stateMutability": "nonpayable",
      "type": "constructor"
    },
    {
      "anonymous": false,
      "inputs": [
        {
          "indexed": false,
          "internalType": "address",
          "name": "previousAdmin",
          "type": "address"
        },
        {
          "indexed": false,
          "internalType": "address",
          "name": "newAdmin",
          "type": "address"
        }
      ],
      "name": "AdminChanged",
      "type": "event"
    },
    {
      "anonymous": false,
      "inputs": [
        {
          "indexed": true,
          "internalType": "address",
          "name": "beacon",
          "type": "address"
        }
      ],
      "name": "BeaconUpgraded",
      "type": "event"
    },
    {
      "anonymous": false,
      "inputs": [
        {
          "indexed": false,
          "internalType": "uint8",
          "name": "version",
          "type": "uint8"
        }
      ],
      "name": "Initialized",
      "type": "event"
    },
    {
      "anonymous": false,
      "inputs": [
        {
          "indexed": true,
          "internalType": "address",
          "name": "previousOwner",
          "type": "address"
        },
        {
          "indexed": true,
          "internalType": "address",
          "name": "newOwner",
          "type": "address"
        }
      ],
      "name": "OwnershipTransferred",
      "type": "event"
    },
    {
      "anonymous": false,
      "inputs": [
        {
          "indexed": true,
          "internalType": "address",
          "name": "implementation",
          "type": "address"
        }
      ],
      "name": "Upgraded",
      "type": "event"
    },
    {
      "inputs": [
        {
          "internalType": "uint256",
          "name": "_communityId",
          "type": "uint256"
        },
        {
          "internalType": "address",
          "name": "_owner",
          "type": "address"
        }
      ],
      "name": "deployContract",
      "outputs": [],
      "stateMutability": "nonpayable",
      "type": "function"
    },
    {
      "inputs": [
        {
          "internalType": "address",
          "name": "_mainContractAddress",
          "type": "address"
        },
        {
          "internalType": "address",
          "name": "_registry",
          "type": "address"
        }
      ],
      "name": "initialize",
      "outputs": [],
      "stateMutability": "nonpayable",
      "type": "function"
    },
    {
      "inputs": [],
      "name": "owner",
      "outputs": [
        {
          "internalType": "address",
          "name": "",
          "type": "address"
        }
      ],
      "stateMutability": "view",
      "type": "function"
    },
    {
      "inputs": [],
      "name": "proxiableUUID",
      "outputs": [
        {
          "internalType": "bytes32",
          "name": "",
          "type": "bytes32"
        }
      ],
      "stateMutability": "view",
      "type": "function"
    },
    {
      "inputs": [],
      "name": "renounceOwnership",
      "outputs": [],
      "stateMutability": "nonpayable",
      "type": "function"
    },
    {
      "inputs": [
        {
          "internalType": "address",
          "name": "newOwner",
          "type": "address"
        }
      ],
      "name": "transferOwnership",
      "outputs": [],
      "stateMutability": "nonpayable",
      "type": "function"
    },
    {
      "inputs": [
        {
          "internalType": "address",
          "name": "newImplementation",
          "type": "address"
        }
      ],
      "name": "upgradeTo",
      "outputs": [],
      "stateMutability": "nonpayable",
      "type": "function"
    },
    {
      "inputs": [
        {
          "internalType": "address",
          "name": "newImplementation",
          "type": "address"
        },
        {
          "internalType": "bytes",
          "name": "data",
          "type": "bytes"
        }
      ],
      "name": "upgradeToAndCall",
      "outputs": [],
      "stateMutability": "payable",
      "type": "function"
    }
  ],
  "bytecode": "0x60a06040523060805234801561001457600080fd5b5061001d610022565b6100e2565b600054610100900460ff161561008e5760405162461bcd60e51b815260206004820152602760248201527f496e697469616c697a61626c653a20636f6e747261637420697320696e697469604482015266616c697a696e6760c81b606482015260840160405180910390fd5b60005460ff90811610156100e0576000805460ff191660ff9081179091556040519081527f7f26b83ff96e1f2b6a682f133852f6798a09c465da95921460cefb38474024989060200160405180910390a15b565b60805161221d610119600039600081816101af015281816101fb015281816103fa0152818161043d01526104d9015261221d6000f3fe608060405260043610620000855760003560e01c80636648c14d11620000545780636648c14d1462000118578063715018a6146200013d5780638da5cb5b1462000155578063f2fde38b146200017f57600080fd5b80633659cfe6146200008a578063485cc95514620000b15780634f1ef28614620000d657806352d1902d14620000ed575b600080fd5b3480156200009757600080fd5b50620000af620000a936600462000dbd565b620001a4565b005b348015620000be57600080fd5b50620000af620000d036600462000ddb565b62000299565b620000af620000e736600462000e88565b620003ef565b348015620000fa57600080fd5b5062000105620004cc565b6040519081526020015b60405180910390f35b3480156200012557600080fd5b50620000af6200013736600462000f23565b62000582565b3480156200014a57600080fd5b50620000af620007e7565b3480156200016257600080fd5b506033546040516001600160a01b0390911681526020016200010f565b3480156200018c57600080fd5b50620000af6200019e36600462000dbd565b620007ff565b306001600160a01b037f0000000000000000000000000000000000000000000000000000000000000000161415620001f95760405162461bcd60e51b8152600401620001f09062000f49565b60405180910390fd5b7f00000000000000000000000000000000000000000000000000000000000000006001600160a01b031662000244600080516020620021a1833981519152546001600160a01b031690565b6001600160a01b0316146200026d5760405162461bcd60e51b8152600401620001f09062000f95565b62000278816200087b565b60408051600080825260208201909252620002969183919062000885565b50565b600054610100900460ff1615808015620002ba5750600054600160ff909116105b80620002d65750303b158015620002d6575060005460ff166001145b6200033b5760405162461bcd60e51b815260206004820152602e60248201527f496e697469616c697a61626c653a20636f6e747261637420697320616c72656160448201526d191e481a5b9a5d1a585b1a5e995960921b6064820152608401620001f0565b6000805460ff1916600117905580156200035f576000805461ff0019166101001790555b62000369620009fd565b6200037362000a31565b60c980546001600160a01b038086166001600160a01b03199283161790925560ca8054928516929091169190911790558015620003ea576000805461ff0019169055604051600181527f7f26b83ff96e1f2b6a682f133852f6798a09c465da95921460cefb38474024989060200160405180910390a15b505050565b306001600160a01b037f00000000000000000000000000000000000000000000000000000000000000001614156200043b5760405162461bcd60e51b8152600401620001f09062000f49565b7f00000000000000000000000000000000000000000000000000000000000000006001600160a01b031662000486600080516020620021a1833981519152546001600160a01b031690565b6001600160a01b031614620004af5760405162461bcd60e51b8152600401620001f09062000f95565b620004ba826200087b565b620004c88282600162000885565b5050565b6000306001600160a01b037f000000000000000000000000000000000000000000000000000000000000000016146200056e5760405162461bcd60e51b815260206004820152603860248201527f555550535570677261646561626c653a206d757374206e6f742062652063616c60448201527f6c6564207468726f7567682064656c656761746563616c6c00000000000000006064820152608401620001f0565b50600080516020620021a183398151915290565b60c954604051635b25bfbb60e11b8152600481018490526000916001600160a01b03169063b64b7f7690602401606060405180830381865afa158015620005cd573d6000803e3d6000fd5b505050506040513d601f19601f82011682018060405250810190620005f3919062000ff2565b925050508015620006575760405162461bcd60e51b815260206004820152602760248201527f436f6d6d756e69747920616c72656164792068617665204d656d6265727320436044820152661bdb9d1c9858dd60ca1b6064820152608401620001f0565b60ca5460405160009184916001600160a01b039091169086906200067b9062000d92565b6001600160a01b0393841681529290911660208301526040820152606001604051809103906000f080158015620006b6573d6000803e3d6000fd5b5060cb805460018101825560009182527fa7ce836d032b2bf62b7e2097a8e0a6d8aeb35405ad15271e96d3b0188a1d06fb0180546001600160a01b0319166001600160a01b03841690811790915560408051639b58c14960e01b8152905193945091928392639b58c14991600480830192869291908290030181865afa15801562000745573d6000803e3d6000fd5b505050506040513d6000823e601f3d908101601f191682016040526200076f9190810190620010bf565b60c954604051630bb2e72560e31b81529294509092506001600160a01b031690635d97392890620007ab90899087908790879060040162001158565b600060405180830381600087803b158015620007c657600080fd5b505af1158015620007db573d6000803e3d6000fd5b50505050505050505050565b620007f162000a5b565b620007fd600062000ab7565b565b6200080962000a5b565b6001600160a01b038116620008705760405162461bcd60e51b815260206004820152602660248201527f4f776e61626c653a206e6577206f776e657220697320746865207a65726f206160448201526564647265737360d01b6064820152608401620001f0565b620002968162000ab7565b6200029662000a5b565b7f4910fdfa16fed3260ed0e7147f7cc6da11a60208b5b9406d12a635614ffd91435460ff1615620008bb57620003ea8362000b09565b826001600160a01b03166352d1902d6040518163ffffffff1660e01b8152600401602060405180830381865afa92505050801562000918575060408051601f3d908101601f191682019092526200091591810190620011a3565b60015b6200097d5760405162461bcd60e51b815260206004820152602e60248201527f45524331393637557067726164653a206e657720696d706c656d656e7461746960448201526d6f6e206973206e6f74205555505360901b6064820152608401620001f0565b600080516020620021a18339815191528114620009ef5760405162461bcd60e51b815260206004820152602960248201527f45524331393637557067726164653a20756e737570706f727465642070726f786044820152681a58589b195555525160ba1b6064820152608401620001f0565b50620003ea83838362000ba8565b600054610100900460ff1662000a275760405162461bcd60e51b8152600401620001f090620011bd565b620007fd62000bd9565b600054610100900460ff16620007fd5760405162461bcd60e51b8152600401620001f090620011bd565b6033546001600160a01b03163314620007fd5760405162461bcd60e51b815260206004820181905260248201527f4f776e61626c653a2063616c6c6572206973206e6f7420746865206f776e65726044820152606401620001f0565b603380546001600160a01b038381166001600160a01b0319831681179093556040519116919082907f8be0079c531659141344cd1fd0a4f28419497f9722a3daafe3b4186f6b6457e090600090a35050565b6001600160a01b0381163b62000b785760405162461bcd60e51b815260206004820152602d60248201527f455243313936373a206e657720696d706c656d656e746174696f6e206973206e60448201526c1bdd08184818dbdb9d1c9858dd609a1b6064820152608401620001f0565b600080516020620021a183398151915280546001600160a01b0319166001600160a01b0392909216919091179055565b62000bb38362000c0e565b60008251118062000bc15750805b15620003ea5762000bd3838362000c50565b50505050565b600054610100900460ff1662000c035760405162461bcd60e51b8152600401620001f090620011bd565b620007fd3362000ab7565b62000c198162000b09565b6040516001600160a01b038216907fbc7cd75a20ee27fd9adebab32041f755214dbc6bffa90cc0225b39da2e5c2d3b90600090a250565b60606001600160a01b0383163b62000cba5760405162461bcd60e51b815260206004820152602660248201527f416464726573733a2064656c65676174652063616c6c20746f206e6f6e2d636f6044820152651b9d1c9858dd60d21b6064820152608401620001f0565b600080846001600160a01b03168460405162000cd7919062001208565b600060405180830381855af49150503d806000811462000d14576040519150601f19603f3d011682016040523d82523d6000602084013e62000d19565b606091505b509150915062000d448282604051806060016040528060278152602001620021c16027913962000d4d565b95945050505050565b6060831562000d5e57508162000d8b565b82511562000d6f5782518084602001fd5b8160405162461bcd60e51b8152600401620001f0919062001226565b9392505050565b610f65806200123c83390190565b80356001600160a01b038116811462000db857600080fd5b919050565b60006020828403121562000dd057600080fd5b62000d8b8262000da0565b6000806040838503121562000def57600080fd5b62000dfa8362000da0565b915062000e0a6020840162000da0565b90509250929050565b634e487b7160e01b600052604160045260246000fd5b604051601f8201601f1916810167ffffffffffffffff8111828210171562000e555762000e5562000e13565b604052919050565b600067ffffffffffffffff82111562000e7a5762000e7a62000e13565b50601f01601f191660200190565b6000806040838503121562000e9c57600080fd5b62000ea78362000da0565b9150602083013567ffffffffffffffff81111562000ec457600080fd5b8301601f8101851362000ed657600080fd5b803562000eed62000ee78262000e5d565b62000e29565b81815286602083850101111562000f0357600080fd5b816020840160208301376000602083830101528093505050509250929050565b6000806040838503121562000f3757600080fd5b8235915062000e0a6020840162000da0565b6020808252602c908201527f46756e6374696f6e206d7573742062652063616c6c6564207468726f7567682060408201526b19195b1959d85d1958d85b1b60a21b606082015260800190565b6020808252602c908201527f46756e6374696f6e206d7573742062652063616c6c6564207468726f7567682060408201526b6163746976652070726f787960a01b606082015260800190565b8051801515811462000db857600080fd5b6000806000606084860312156200100857600080fd5b620010138462000fe1565b9250620010236020850162000fe1565b9150620010336040850162000fe1565b90509250925092565b60005b83811015620010595781810151838201526020016200103f565b8381111562000bd35750506000910152565b600082601f8301126200107d57600080fd5b81516200108e62000ee78262000e5d565b818152846020838601011115620010a457600080fd5b620010b78260208301602087016200103c565b949350505050565b60008060408385031215620010d357600080fd5b825167ffffffffffffffff80821115620010ec57600080fd5b620010fa868387016200106b565b935060208501519150808211156200111157600080fd5b5062001120858286016200106b565b9150509250929050565b60008151808452620011448160208601602086016200103c565b601f01601f19169290920160200192915050565b8481526001600160a01b038416602082015260806040820181905260009062001184908301856200112a565b82810360608401526200119881856200112a565b979650505050505050565b600060208284031215620011b657600080fd5b5051919050565b6020808252602b908201527f496e697469616c697a61626c653a20636f6e7472616374206973206e6f74206960408201526a6e697469616c697a696e6760a81b606082015260800190565b600082516200121c8184602087016200103c565b9190910192915050565b60208152600062000d8b60208301846200112a56fe60c060405260076080819052666d656d6265727360c81b60a09081526200002a916002919062000458565b5060408051808201909152600c8082526b6d656d6265725f737461747360a01b6020909201918252620000609160059162000458565b503480156200006e57600080fd5b5060405162000f6538038062000f6583398101604081905262000091916200051b565b6200009c336200020a565b620000a7836200025a565b60006002620000c183620002dd60201b6200030f1760201c565b620000d746620002dd60201b6200030f1760201c565b604051602001620000eb93929190620005ea565b60408051808303601f1901815290829052600180546001600160a01b0319166001600160a01b038716908117909155909250600091633a9151b090309062000138908690602001620006b3565b6040516020818303038152906040526040518363ffffffff1660e01b81526004016200016692919062000726565b6020604051808303816000875af115801562000186573d6000803e3d6000fd5b505050506040513d601f19601f82011682018060405250810190620001ac91906200076a565b905081620001c582620002dd60201b6200030f1760201c565b604051602001620001d892919062000784565b60405160208183030381529060405260039080519060200190620001fe92919062000458565b5050505050506200089d565b600080546001600160a01b038381166001600160a01b0319831681178455604051919092169283917f8be0079c531659141344cd1fd0a4f28419497f9722a3daafe3b4186f6b6457e09190a35050565b62000264620003fa565b6001600160a01b038116620002cf5760405162461bcd60e51b815260206004820152602660248201527f4f776e61626c653a206e6577206f776e657220697320746865207a65726f206160448201526564647265737360d01b60648201526084015b60405180910390fd5b620002da816200020a565b50565b606081620003025750506040805180820190915260018152600360fc1b602082015290565b8160005b81156200033257806200031981620007da565b91506200032a9050600a836200080e565b915062000306565b6000816001600160401b038111156200034f576200034f62000825565b6040519080825280601f01601f1916602001820160405280156200037a576020820181803683370190505b5090505b8415620003f257620003926001836200083b565b9150620003a1600a8662000855565b620003ae9060306200086c565b60f81b818381518110620003c657620003c662000887565b60200101906001600160f81b031916908160001a905350620003ea600a866200080e565b94506200037e565b949350505050565b6000546001600160a01b03163314620004565760405162461bcd60e51b815260206004820181905260248201527f4f776e61626c653a2063616c6c6572206973206e6f7420746865206f776e65726044820152606401620002c6565b565b82805462000466906200055c565b90600052602060002090601f0160209004810192826200048a5760008555620004d5565b82601f10620004a557805160ff1916838001178555620004d5565b82800160010185558215620004d5579182015b82811115620004d5578251825591602001919060010190620004b8565b50620004e3929150620004e7565b5090565b5b80821115620004e35760008155600101620004e8565b80516001600160a01b03811681146200051657600080fd5b919050565b6000806000606084860312156200053157600080fd5b6200053c84620004fe565b92506200054c60208501620004fe565b9150604084015190509250925092565b600181811c908216806200057157607f821691505b602082108114156200059357634e487b7160e01b600052602260045260246000fd5b50919050565b60005b83811015620005b65781810151838201526020016200059c565b83811115620005c6576000848401525b50505050565b60008151620005e081856020860162000599565b9290920192915050565b600080855481600182811c9150808316806200060757607f831692505b60208084108214156200062857634e487b7160e01b86526022600452602486fd5b8180156200063f5760018114620006515762000680565b60ff1986168952848901965062000680565b60008c81526020902060005b86811015620006785781548b8201529085019083016200065d565b505084890196505b5050506200068f8489620005cc565b605f60f81b81529350620006a681850188620005cc565b9998505050505050505050565b6c021a922a0aa22902a20a126229609d1b815260008251620006dd81600d85016020870162000599565b7f2028696420696e742c2065787465726e616c5f6c696e6b20746578742c207820600d9390910192830152506b696e742c207920696e74293b60a01b602d820152603901919050565b60018060a01b038316815260406020820152600082518060408401526200075581606085016020870162000599565b601f01601f1916919091016060019392505050565b6000602082840312156200077d57600080fd5b5051919050565b600083516200079881846020880162000599565b605f60f81b9083019081528351620007b881600184016020880162000599565b01600101949350505050565b634e487b7160e01b600052601160045260246000fd5b6000600019821415620007f157620007f1620007c4565b5060010190565b634e487b7160e01b600052601260045260246000fd5b600082620008205762000820620007f8565b500490565b634e487b7160e01b600052604160045260246000fd5b600082821015620008505762000850620007c4565b500390565b600082620008675762000867620007f8565b500690565b60008219821115620008825762000882620007c4565b500190565b634e487b7160e01b600052603260045260246000fd5b6106b880620008ad6000396000f3fe608060405234801561001057600080fd5b50600436106100575760003560e01c8063179f9a811461005c578063715018a61461007a5780638da5cb5b146100845780639b58c1491461009f578063f2fde38b146100b5575b600080fd5b6100646100c8565b604051610071919061050c565b60405180910390f35b610082610156565b005b6000546040516001600160a01b039091168152602001610071565b6100a761016a565b604051610071929190610526565b6100826100c3366004610554565b610291565b600380546100d59061057d565b80601f01602080910402602001604051908101604052809291908181526020018280546101019061057d565b801561014e5780601f106101235761010080835404028352916020019161014e565b820191906000526020600020905b81548152906001019060200180831161013157829003601f168201915b505050505081565b61015e610415565b610168600061046f565b565b6060806003600681805461017d9061057d565b80601f01602080910402602001604051908101604052809291908181526020018280546101a99061057d565b80156101f65780601f106101cb576101008083540402835291602001916101f6565b820191906000526020600020905b8154815290600101906020018083116101d957829003601f168201915b505050505091508080546102099061057d565b80601f01602080910402602001604051908101604052809291908181526020018280546102359061057d565b80156102825780601f1061025757610100808354040283529160200191610282565b820191906000526020600020905b81548152906001019060200180831161026557829003601f168201915b50505050509050915091509091565b610299610415565b6001600160a01b0381166103035760405162461bcd60e51b815260206004820152602660248201527f4f776e61626c653a206e6577206f776e657220697320746865207a65726f206160448201526564647265737360d01b60648201526084015b60405180910390fd5b61030c8161046f565b50565b6060816103335750506040805180820190915260018152600360fc1b602082015290565b8160005b811561035d5780610347816105ce565b91506103569050600a836105ff565b9150610337565b60008167ffffffffffffffff81111561037857610378610613565b6040519080825280601f01601f1916602001820160405280156103a2576020820181803683370190505b5090505b841561040d576103b7600183610629565b91506103c4600a86610640565b6103cf906030610654565b60f81b8183815181106103e4576103e461066c565b60200101906001600160f81b031916908160001a905350610406600a866105ff565b94506103a6565b949350505050565b6000546001600160a01b031633146101685760405162461bcd60e51b815260206004820181905260248201527f4f776e61626c653a2063616c6c6572206973206e6f7420746865206f776e657260448201526064016102fa565b600080546001600160a01b038381166001600160a01b0319831681178455604051919092169283917f8be0079c531659141344cd1fd0a4f28419497f9722a3daafe3b4186f6b6457e09190a35050565b6000815180845260005b818110156104e5576020818501810151868301820152016104c9565b818111156104f7576000602083870101525b50601f01601f19169290920160200192915050565b60208152600061051f60208301846104bf565b9392505050565b60408152600061053960408301856104bf565b828103602084015261054b81856104bf565b95945050505050565b60006020828403121561056657600080fd5b81356001600160a01b038116811461051f57600080fd5b600181811c9082168061059157607f821691505b602082108114156105b257634e487b7160e01b600052602260045260246000fd5b50919050565b634e487b7160e01b600052601160045260246000fd5b60006000198214156105e2576105e26105b8565b5060010190565b634e487b7160e01b600052601260045260246000fd5b60008261060e5761060e6105e9565b500490565b634e487b7160e01b600052604160045260246000fd5b60008282101561063b5761063b6105b8565b500390565b60008261064f5761064f6105e9565b500690565b60008219821115610667576106676105b8565b500190565b634e487b7160e01b600052603260045260246000fdfea264697066735822122073ab17e66de374273efb314fb9a12974421f521eaec7cb459e5e1f50bb19f1b064736f6c634300080c0033360894a13ba1a3210667c828492db98dca3e2076cc3735a920a3ca505d382bbc416464726573733a206c6f772d6c6576656c2064656c65676174652063616c6c206661696c6564a2646970667358221220eaa1fa95188b529da1cb1ebef8146585a4b55a58c237773d93a436d69da7bc3864736f6c634300080c0033",
  "linkReferences": {},
  "deployedLinkReferences": {}
}