{
  "_format": "hh-sol-artifact-1",
  "contractName": "FungibleToken",
  "sourceName": "src/backend/contracts/_FungibleToken.sol",
  "abi": [
    {
      "inputs": [
        {
          "internalType": "string",
          "name": "_name",
          "type": "string"
        },
        {
          "internalType": "string",
          "name": "_symbol",
          "type": "string"
        },
        {
          "internalType": "address",
          "name": "_owner",
          "type": "address"
        },
        {
          "internalType": "uint256",
          "name": "_supply",
          "type": "uint256"
        }
      ],
      "stateMutability": "nonpayable",
      "type": "constructor"
    },
    {
      "anonymous": false,
      "inputs": [
        {
          "indexed": true,
          "internalType": "address",
          "name": "owner",
          "type": "address"
        },
        {
          "indexed": true,
          "internalType": "address",
          "name": "spender",
          "type": "address"
        },
        {
          "indexed": false,
          "internalType": "uint256",
          "name": "value",
          "type": "uint256"
        }
      ],
      "name": "Approval",
      "type": "event"
    },
    {
      "anonymous": false,
      "inputs": [
        {
          "indexed": true,
          "internalType": "address",
          "name": "previousOwner",
          "type": "address"
        },
        {
          "indexed": true,
          "internalType": "address",
          "name": "newOwner",
          "type": "address"
        }
      ],
      "name": "OwnershipTransferred",
      "type": "event"
    },
    {
      "anonymous": false,
      "inputs": [
        {
          "indexed": false,
          "internalType": "address",
          "name": "account",
          "type": "address"
        }
      ],
      "name": "Paused",
      "type": "event"
    },
    {
      "anonymous": false,
      "inputs": [
        {
          "indexed": true,
          "internalType": "address",
          "name": "from",
          "type": "address"
        },
        {
          "indexed": true,
          "internalType": "address",
          "name": "to",
          "type": "address"
        },
        {
          "indexed": false,
          "internalType": "uint256",
          "name": "value",
          "type": "uint256"
        }
      ],
      "name": "Transfer",
      "type": "event"
    },
    {
      "anonymous": false,
      "inputs": [
        {
          "indexed": false,
          "internalType": "address",
          "name": "account",
          "type": "address"
        }
      ],
      "name": "Unpaused",
      "type": "event"
    },
    {
      "inputs": [
        {
          "internalType": "address",
          "name": "owner",
          "type": "address"
        },
        {
          "internalType": "address",
          "name": "spender",
          "type": "address"
        }
      ],
      "name": "allowance",
      "outputs": [
        {
          "internalType": "uint256",
          "name": "",
          "type": "uint256"
        }
      ],
      "stateMutability": "view",
      "type": "function"
    },
    {
      "inputs": [
        {
          "internalType": "address",
          "name": "spender",
          "type": "address"
        },
        {
          "internalType": "uint256",
          "name": "amount",
          "type": "uint256"
        }
      ],
      "name": "approve",
      "outputs": [
        {
          "internalType": "bool",
          "name": "",
          "type": "bool"
        }
      ],
      "stateMutability": "nonpayable",
      "type": "function"
    },
    {
      "inputs": [
        {
          "internalType": "address",
          "name": "account",
          "type": "address"
        }
      ],
      "name": "balanceOf",
      "outputs": [
        {
          "internalType": "uint256",
          "name": "",
          "type": "uint256"
        }
      ],
      "stateMutability": "view",
      "type": "function"
    },
    {
      "inputs": [],
      "name": "campaignLastId",
      "outputs": [
        {
          "internalType": "uint256",
          "name": "",
          "type": "uint256"
        }
      ],
      "stateMutability": "view",
      "type": "function"
    },
    {
      "inputs": [
        {
          "internalType": "uint256",
          "name": "_campaignId",
          "type": "uint256"
        }
      ],
      "name": "cancelDistributionCampaign",
      "outputs": [],
      "stateMutability": "nonpayable",
      "type": "function"
    },
    {
      "inputs": [
        {
          "internalType": "enum FungibleToken.DistributionType",
          "name": "_distType",
          "type": "uint8"
        },
        {
          "internalType": "uint256",
          "name": "_dateStart",
          "type": "uint256"
        },
        {
          "internalType": "uint256",
          "name": "_dateEnd",
          "type": "uint256"
        },
        {
          "internalType": "address[]",
          "name": "_whitelist",
          "type": "address[]"
        },
        {
          "internalType": "bool",
          "name": "_isProtected",
          "type": "bool"
        },
        {
          "internalType": "uint256",
          "name": "_tokensTotal",
          "type": "uint256"
        }
      ],
      "name": "createDistributionCampaign",
      "outputs": [],
      "stateMutability": "nonpayable",
      "type": "function"
    },
    {
      "inputs": [],
      "name": "decimals",
      "outputs": [
        {
          "internalType": "uint8",
          "name": "",
          "type": "uint8"
        }
      ],
      "stateMutability": "view",
      "type": "function"
    },
    {
      "inputs": [
        {
          "internalType": "address",
          "name": "spender",
          "type": "address"
        },
        {
          "internalType": "uint256",
          "name": "subtractedValue",
          "type": "uint256"
        }
      ],
      "name": "decreaseAllowance",
      "outputs": [
        {
          "internalType": "bool",
          "name": "",
          "type": "bool"
        }
      ],
      "stateMutability": "nonpayable",
      "type": "function"
    },
    {
      "inputs": [
        {
          "internalType": "address",
          "name": "spender",
          "type": "address"
        },
        {
          "internalType": "uint256",
          "name": "addedValue",
          "type": "uint256"
        }
      ],
      "name": "increaseAllowance",
      "outputs": [
        {
          "internalType": "bool",
          "name": "",
          "type": "bool"
        }
      ],
      "stateMutability": "nonpayable",
      "type": "function"
    },
    {
      "inputs": [],
      "name": "name",
      "outputs": [
        {
          "internalType": "string",
          "name": "",
          "type": "string"
        }
      ],
      "stateMutability": "view",
      "type": "function"
    },
    {
      "inputs": [],
      "name": "owner",
      "outputs": [
        {
          "internalType": "address",
          "name": "",
          "type": "address"
        }
      ],
      "stateMutability": "view",
      "type": "function"
    },
    {
      "inputs": [],
      "name": "pause",
      "outputs": [],
      "stateMutability": "nonpayable",
      "type": "function"
    },
    {
      "inputs": [],
      "name": "paused",
      "outputs": [
        {
          "internalType": "bool",
          "name": "",
          "type": "bool"
        }
      ],
      "stateMutability": "view",
      "type": "function"
    },
    {
      "inputs": [],
      "name": "renounceOwnership",
      "outputs": [],
      "stateMutability": "nonpayable",
      "type": "function"
    },
    {
      "inputs": [],
      "name": "symbol",
      "outputs": [
        {
          "internalType": "string",
          "name": "",
          "type": "string"
        }
      ],
      "stateMutability": "view",
      "type": "function"
    },
    {
      "inputs": [],
      "name": "totalSupply",
      "outputs": [
        {
          "internalType": "uint256",
          "name": "",
          "type": "uint256"
        }
      ],
      "stateMutability": "view",
      "type": "function"
    },
    {
      "inputs": [
        {
          "internalType": "address",
          "name": "to",
          "type": "address"
        },
        {
          "internalType": "uint256",
          "name": "amount",
          "type": "uint256"
        }
      ],
      "name": "transfer",
      "outputs": [
        {
          "internalType": "bool",
          "name": "",
          "type": "bool"
        }
      ],
      "stateMutability": "nonpayable",
      "type": "function"
    },
    {
      "inputs": [
        {
          "internalType": "address",
          "name": "from",
          "type": "address"
        },
        {
          "internalType": "address",
          "name": "to",
          "type": "address"
        },
        {
          "internalType": "uint256",
          "name": "amount",
          "type": "uint256"
        }
      ],
      "name": "transferFrom",
      "outputs": [
        {
          "internalType": "bool",
          "name": "",
          "type": "bool"
        }
      ],
      "stateMutability": "nonpayable",
      "type": "function"
    },
    {
      "inputs": [
        {
          "internalType": "address",
          "name": "newOwner",
          "type": "address"
        }
      ],
      "name": "transferOwnership",
      "outputs": [],
      "stateMutability": "nonpayable",
      "type": "function"
    },
    {
      "inputs": [],
      "name": "unpause",
      "outputs": [],
      "stateMutability": "nonpayable",
      "type": "function"
    }
  ],
  "bytecode": "0x60806040523480156200001157600080fd5b5060405162001902380380620019028339810160408190526200003491620004c5565b8351849084906200004d90600390602085019062000352565b5080516200006390600490602084019062000352565b50506005805460ff19169055506200007b33620000af565b6200009a826200009483670de0b6b3a76400006200056e565b62000109565b620000a58262000200565b50505050620005e8565b600580546001600160a01b03838116610100818102610100600160a81b031985161790945560405193909204169182907f8be0079c531659141344cd1fd0a4f28419497f9722a3daafe3b4186f6b6457e090600090a35050565b6001600160a01b038216620001655760405162461bcd60e51b815260206004820152601f60248201527f45524332303a206d696e7420746f20746865207a65726f20616464726573730060448201526064015b60405180910390fd5b62000173600083836200027f565b806002600082825462000187919062000590565b90915550506001600160a01b03821660009081526020819052604081208054839290620001b690849062000590565b90915550506040518181526001600160a01b038316906000907fddf252ad1be2c89b69c2b068fc378daa952ba7f163c4a11628f55a4df523b3ef9060200160405180910390a35050565b6200020a620002a6565b6001600160a01b038116620002715760405162461bcd60e51b815260206004820152602660248201527f4f776e61626c653a206e6577206f776e657220697320746865207a65726f206160448201526564647265737360d01b60648201526084016200015c565b6200027c81620000af565b50565b620002896200030a565b620002a1838383620002a160201b620008bf1760201c565b505050565b6005546001600160a01b03610100909104163314620003085760405162461bcd60e51b815260206004820181905260248201527f4f776e61626c653a2063616c6c6572206973206e6f7420746865206f776e657260448201526064016200015c565b565b60055460ff1615620003085760405162461bcd60e51b815260206004820152601060248201526f14185d5cd8589b194e881c185d5cd95960821b60448201526064016200015c565b8280546200036090620005ab565b90600052602060002090601f016020900481019282620003845760008555620003cf565b82601f106200039f57805160ff1916838001178555620003cf565b82800160010185558215620003cf579182015b82811115620003cf578251825591602001919060010190620003b2565b50620003dd929150620003e1565b5090565b5b80821115620003dd5760008155600101620003e2565b634e487b7160e01b600052604160045260246000fd5b600082601f8301126200042057600080fd5b81516001600160401b03808211156200043d576200043d620003f8565b604051601f8301601f19908116603f01168101908282118183101715620004685762000468620003f8565b816040528381526020925086838588010111156200048557600080fd5b600091505b83821015620004a957858201830151818301840152908201906200048a565b83821115620004bb5760008385830101525b9695505050505050565b60008060008060808587031215620004dc57600080fd5b84516001600160401b0380821115620004f457600080fd5b62000502888389016200040e565b955060208701519150808211156200051957600080fd5b5062000528878288016200040e565b604087015190945090506001600160a01b03811681146200054857600080fd5b6060959095015193969295505050565b634e487b7160e01b600052601160045260246000fd5b60008160001904831182151516156200058b576200058b62000558565b500290565b60008219821115620005a657620005a662000558565b500190565b600181811c90821680620005c057607f821691505b60208210811415620005e257634e487b7160e01b600052602260045260246000fd5b50919050565b61130a80620005f86000396000f3fe608060405234801561001057600080fd5b506004361061012c5760003560e01c806370a08231116100ad57806395d89b411161007157806395d89b411461025f578063a457c2d714610267578063a9059cbb1461027a578063dd62ed3e1461028d578063f2fde38b146102a057600080fd5b806370a08231146101ea578063715018a6146102135780638456cb591461021b5780638ca926c7146102235780638da5cb5b1461023657600080fd5b8063381da488116100f4578063381da488146101a657806339509351146101bb5780633f4ba83a146101ce5780635c975abb146101d657806369b0aafa146101e157600080fd5b806306fdde0314610131578063095ea7b31461014f57806318160ddd1461017257806323b872dd14610184578063313ce56714610197575b600080fd5b6101396102b3565b6040516101469190610f67565b60405180910390f35b61016261015d366004610fd8565b610345565b6040519015158152602001610146565b6002545b604051908152602001610146565b610162610192366004611002565b61035d565b60405160128152602001610146565b6101b96101b436600461103e565b610381565b005b6101626101c9366004610fd8565b6105c1565b6101b96105e3565b60055460ff16610162565b61017660065481565b6101766101f8366004611057565b6001600160a01b031660009081526020819052604090205490565b6101b96105f5565b6101b9610607565b6101b9610231366004611098565b610617565b60055461010090046001600160a01b03166040516001600160a01b039091168152602001610146565b610139610781565b610162610275366004610fd8565b610790565b610162610288366004610fd8565b610810565b61017661029b3660046111a2565b61081e565b6101b96102ae366004611057565b610849565b6060600380546102c2906111d5565b80601f01602080910402602001604051908101604052809291908181526020018280546102ee906111d5565b801561033b5780601f106103105761010080835404028352916020019161033b565b820191906000526020600020905b81548152906001019060200180831161031e57829003601f168201915b5050505050905090565b6000336103538185856108c4565b5060019392505050565b60003361036b8582856109e8565b610376858585610a62565b506001949350505050565b610389610c3b565b600754600114156104065760076000815481106103a8576103a8611210565b600091825260208220600990910201818155600181018290556002810182905560038101829055600481018290556005810182905560068101805460ff19169055906103f76007830182610e8f565b50600801805460ff1916905550565b60005b6006548110156105bc57816007828154811061042757610427611210565b90600052602060002090600902016000015414156105ac5760076001600654610450919061123c565b8154811061046057610460611210565b90600052602060002090600902016007828154811061048157610481611210565b90600052602060002090600902016000820154816000015560018201548160010155600282015481600201556003820154816003015560048201548160040155600582015481600501556006820160009054906101000a900460ff168160060160006101000a81548160ff0219169083600581111561050257610502611253565b02179055506007828101805461051b9284019190610ead565b506008918201549101805460ff191660ff9092161515919091179055600780548061054857610548611269565b600082815260208120600960001990930192830201818155600181018290556002810182905560038101829055600481018290556005810182905560068101805460ff191690559061059d6007830182610e8f565b50600801805460ff1916905590555b6105b58161127f565b9050610409565b505b50565b6000336103538185856105d4838361081e565b6105de919061129a565b6108c4565b6105eb610c3b565b6105f3610c9b565b565b6105fd610c3b565b6105f36000610ced565b61060f610c3b565b6105f3610d47565b61061f610c3b565b6000600487600581111561063557610635611253565b141561064c57610649620f423f6001610d84565b90505b60016006600082825461065f919061129a565b9250508190555060076040518061012001604052806006548152602001848152602001600081526020018881526020018781526020018381526020018960058111156106ad576106ad611253565b8152602080820188905286151560409283015283546001818101865560009586529482902084516009909202019081559083015181850155908201516002820155606082015160038201556080820151600482015560a082015160058083019190915560c0830151600683018054949593949193909260ff1990921691849081111561073b5761073b611253565b021790555060e0820151805161075b916007840191602090910190610efd565b5061010091909101516008909101805460ff191691151591909117905550505050505050565b6060600480546102c2906111d5565b6000338161079e828661081e565b9050838110156108035760405162461bcd60e51b815260206004820152602560248201527f45524332303a2064656372656173656420616c6c6f77616e63652062656c6f77604482015264207a65726f60d81b60648201526084015b60405180910390fd5b61037682868684036108c4565b600033610353818585610a62565b6001600160a01b03918216600090815260016020908152604080832093909416825291909152205490565b610851610c3b565b6001600160a01b0381166108b65760405162461bcd60e51b815260206004820152602660248201527f4f776e61626c653a206e6577206f776e657220697320746865207a65726f206160448201526564647265737360d01b60648201526084016107fa565b6105be81610ced565b505050565b6001600160a01b0383166109265760405162461bcd60e51b8152602060048201526024808201527f45524332303a20617070726f76652066726f6d20746865207a65726f206164646044820152637265737360e01b60648201526084016107fa565b6001600160a01b0382166109875760405162461bcd60e51b815260206004820152602260248201527f45524332303a20617070726f766520746f20746865207a65726f206164647265604482015261737360f01b60648201526084016107fa565b6001600160a01b0383811660008181526001602090815260408083209487168084529482529182902085905590518481527f8c5be1e5ebec7d5bd14f71427d1e84f3dd0314c0f7b2291e5b200ac8c7c3b925910160405180910390a3505050565b60006109f4848461081e565b90506000198114610a5c5781811015610a4f5760405162461bcd60e51b815260206004820152601d60248201527f45524332303a20696e73756666696369656e7420616c6c6f77616e636500000060448201526064016107fa565b610a5c84848484036108c4565b50505050565b6001600160a01b038316610ac65760405162461bcd60e51b815260206004820152602560248201527f45524332303a207472616e736665722066726f6d20746865207a65726f206164604482015264647265737360d81b60648201526084016107fa565b6001600160a01b038216610b285760405162461bcd60e51b815260206004820152602360248201527f45524332303a207472616e7366657220746f20746865207a65726f206164647260448201526265737360e81b60648201526084016107fa565b610b33838383610df8565b6001600160a01b03831660009081526020819052604090205481811015610bab5760405162461bcd60e51b815260206004820152602660248201527f45524332303a207472616e7366657220616d6f756e7420657863656564732062604482015265616c616e636560d01b60648201526084016107fa565b6001600160a01b03808516600090815260208190526040808220858503905591851681529081208054849290610be290849061129a565b92505081905550826001600160a01b0316846001600160a01b03167fddf252ad1be2c89b69c2b068fc378daa952ba7f163c4a11628f55a4df523b3ef84604051610c2e91815260200190565b60405180910390a3610a5c565b6005546001600160a01b036101009091041633146105f35760405162461bcd60e51b815260206004820181905260248201527f4f776e61626c653a2063616c6c6572206973206e6f7420746865206f776e657260448201526064016107fa565b610ca3610e00565b6005805460ff191690557f5db9ee0a495bf2e6ff9c91a7834c1ba4fdd244a5e8aa4e537bd38aeae4b073aa335b6040516001600160a01b03909116815260200160405180910390a1565b600580546001600160a01b03838116610100818102610100600160a81b031985161790945560405193909204169182907f8be0079c531659141344cd1fd0a4f28419497f9722a3daafe3b4186f6b6457e090600090a35050565b610d4f610e49565b6005805460ff191660011790557f62e78cea01bee320cd4e420270b5ea74000d11b0c9f74754ebdbfc544b05a258610cd03390565b6040516001600160f81b031960f883901b1660208201526bffffffffffffffffffffffff193360601b1660218201524460358201524260558201526001607582015260009083906095016040516020818303038152906040528051906020012060001c610df191906112b2565b9392505050565b6108bf610e49565b60055460ff166105f35760405162461bcd60e51b815260206004820152601460248201527314185d5cd8589b194e881b9bdd081c185d5cd95960621b60448201526064016107fa565b60055460ff16156105f35760405162461bcd60e51b815260206004820152601060248201526f14185d5cd8589b194e881c185d5cd95960821b60448201526064016107fa565b50805460008255906000526020600020908101906105be9190610f52565b828054828255906000526020600020908101928215610eed5760005260206000209182015b82811115610eed578254825591600101919060010190610ed2565b50610ef9929150610f52565b5090565b828054828255906000526020600020908101928215610eed579160200282015b82811115610eed57825182546001600160a01b0319166001600160a01b03909116178255602090920191600190910190610f1d565b5b80821115610ef95760008155600101610f53565b600060208083528351808285015260005b81811015610f9457858101830151858201604001528201610f78565b81811115610fa6576000604083870101525b50601f01601f1916929092016040019392505050565b80356001600160a01b0381168114610fd357600080fd5b919050565b60008060408385031215610feb57600080fd5b610ff483610fbc565b946020939093013593505050565b60008060006060848603121561101757600080fd5b61102084610fbc565b925061102e60208501610fbc565b9150604084013590509250925092565b60006020828403121561105057600080fd5b5035919050565b60006020828403121561106957600080fd5b610df182610fbc565b634e487b7160e01b600052604160045260246000fd5b80358015158114610fd357600080fd5b60008060008060008060c087890312156110b157600080fd5b8635600681106110c057600080fd5b9550602087810135955060408801359450606088013567ffffffffffffffff808211156110ec57600080fd5b818a0191508a601f83011261110057600080fd5b81358181111561111257611112611072565b8060051b604051601f19603f8301168101818110858211171561113757611137611072565b60405291825284820192508381018501918d83111561115557600080fd5b938501935b8285101561117a5761116b85610fbc565b8452938501939285019261115a565b80985050505050505061118f60808801611088565b915060a087013590509295509295509295565b600080604083850312156111b557600080fd5b6111be83610fbc565b91506111cc60208401610fbc565b90509250929050565b600181811c908216806111e957607f821691505b6020821081141561120a57634e487b7160e01b600052602260045260246000fd5b50919050565b634e487b7160e01b600052603260045260246000fd5b634e487b7160e01b600052601160045260246000fd5b60008282101561124e5761124e611226565b500390565b634e487b7160e01b600052602160045260246000fd5b634e487b7160e01b600052603160045260246000fd5b600060001982141561129357611293611226565b5060010190565b600082198211156112ad576112ad611226565b500190565b6000826112cf57634e487b7160e01b600052601260045260246000fd5b50069056fea2646970667358221220fbb106bbdbfaa776997b79104e156b7bae936bdbf7c511099547df230f31a49764736f6c634300080c0033",
  "linkReferences": {},
  "deployedLinkReferences": {}
}