{
  "_format": "hh-sol-artifact-1",
  "contractName": "FungibleToken",
  "sourceName": "src/backend/contracts/_FungibleToken.sol",
  "abi": [
    {
      "inputs": [],
      "name": "Initialized",
      "type": "error"
    },
    {
      "inputs": [],
      "name": "InvalidNullifier",
      "type": "error"
    },
    {
      "inputs": [],
      "name": "ZeroAddress",
      "type": "error"
    },
    {
      "anonymous": false,
      "inputs": [
        {
          "indexed": true,
          "internalType": "address",
          "name": "previousOwner",
          "type": "address"
        },
        {
          "indexed": true,
          "internalType": "address",
          "name": "newOwner",
          "type": "address"
        }
      ],
      "name": "OwnershipTransferred",
      "type": "event"
    },
    {
      "anonymous": false,
      "inputs": [
        {
          "indexed": false,
          "internalType": "address",
          "name": "account",
          "type": "address"
        }
      ],
      "name": "Paused",
      "type": "event"
    },
    {
      "anonymous": false,
      "inputs": [
        {
          "indexed": false,
          "internalType": "address",
          "name": "account",
          "type": "address"
        }
      ],
      "name": "Unpaused",
      "type": "event"
    },
    {
      "stateMutability": "payable",
      "type": "fallback"
    },
    {
      "inputs": [
        {
          "internalType": "address",
          "name": "spender",
          "type": "address"
        },
        {
          "internalType": "uint256",
          "name": "amount",
          "type": "uint256"
        }
      ],
      "name": "approve",
      "outputs": [
        {
          "internalType": "bool",
          "name": "",
          "type": "bool"
        }
      ],
      "stateMutability": "nonpayable",
      "type": "function"
    },
    {
      "inputs": [],
      "name": "campaignLastId",
      "outputs": [
        {
          "internalType": "uint256",
          "name": "",
          "type": "uint256"
        }
      ],
      "stateMutability": "view",
      "type": "function"
    },
    {
      "inputs": [
        {
          "internalType": "uint256",
          "name": "",
          "type": "uint256"
        }
      ],
      "name": "campaignsList",
      "outputs": [
        {
          "internalType": "uint256",
          "name": "",
          "type": "uint256"
        }
      ],
      "stateMutability": "view",
      "type": "function"
    },
    {
      "inputs": [
        {
          "internalType": "uint256",
          "name": "_campaignId",
          "type": "uint256"
        }
      ],
      "name": "cancelDistributionCampaign",
      "outputs": [],
      "stateMutability": "nonpayable",
      "type": "function"
    },
    {
      "inputs": [
        {
          "internalType": "uint256",
          "name": "_communityId",
          "type": "uint256"
        },
        {
          "internalType": "uint256",
          "name": "_campaignId",
          "type": "uint256"
        },
        {
          "internalType": "uint256",
          "name": "_eventCode",
          "type": "uint256"
        },
        {
          "internalType": "string",
          "name": "_email",
          "type": "string"
        },
        {
          "internalType": "uint256",
          "name": "root",
          "type": "uint256"
        },
        {
          "internalType": "uint256",
          "name": "nullifierHash",
          "type": "uint256"
        },
        {
          "internalType": "uint256[8]",
          "name": "proof",
          "type": "uint256[8]"
        }
      ],
      "name": "claimFromCampaign",
      "outputs": [],
      "stateMutability": "payable",
      "type": "function"
    },
    {
      "inputs": [
        {
          "internalType": "enum FungibleToken.DistributionType",
          "name": "_distType",
          "type": "uint8"
        },
        {
          "internalType": "uint256",
          "name": "_dateStart",
          "type": "uint256"
        },
        {
          "internalType": "uint256",
          "name": "_dateEnd",
          "type": "uint256"
        },
        {
          "internalType": "address[]",
          "name": "_whitelist",
          "type": "address[]"
        },
        {
          "internalType": "string",
          "name": "_worldcoinAction",
          "type": "string"
        },
        {
          "internalType": "uint256",
          "name": "_tokensTotal",
          "type": "uint256"
        },
        {
          "internalType": "uint256",
          "name": "_tokensPerUser",
          "type": "uint256"
        }
      ],
      "name": "createDistributionCampaign",
      "outputs": [],
      "stateMutability": "payable",
      "type": "function"
    },
    {
      "inputs": [],
      "name": "getCampaigns",
      "outputs": [
        {
          "components": [
            {
              "internalType": "uint256",
              "name": "id",
              "type": "uint256"
            },
            {
              "internalType": "uint256",
              "name": "tokensTotal",
              "type": "uint256"
            },
            {
              "internalType": "uint256",
              "name": "tokensMinted",
              "type": "uint256"
            },
            {
              "internalType": "uint256",
              "name": "tokensPerUser",
              "type": "uint256"
            },
            {
              "internalType": "uint256",
              "name": "dateStart",
              "type": "uint256"
            },
            {
              "internalType": "uint256",
              "name": "dateEnd",
              "type": "uint256"
            },
            {
              "internalType": "uint256",
              "name": "eventCode",
              "type": "uint256"
            },
            {
              "internalType": "enum FungibleToken.DistributionType",
              "name": "distType",
              "type": "uint8"
            },
            {
              "internalType": "address[]",
              "name": "whitelist",
              "type": "address[]"
            },
            {
              "internalType": "string",
              "name": "worldcoinAction",
              "type": "string"
            }
          ],
          "internalType": "struct FungibleToken.DistributionCampaign[]",
          "name": "",
          "type": "tuple[]"
        }
      ],
      "stateMutability": "view",
      "type": "function"
    },
    {
      "inputs": [
        {
          "internalType": "address",
          "name": "_mainContract",
          "type": "address"
        },
        {
          "internalType": "string",
          "name": "_name",
          "type": "string"
        },
        {
          "internalType": "string",
          "name": "_symbol",
          "type": "string"
        },
        {
          "internalType": "address",
          "name": "_owner",
          "type": "address"
        },
        {
          "internalType": "uint256",
          "name": "_supply",
          "type": "uint256"
        },
        {
          "internalType": "contract IWorldID",
          "name": "_worldId",
          "type": "address"
        },
        {
          "internalType": "address",
          "name": "_superTokenFactory",
          "type": "address"
        },
        {
          "internalType": "bytes",
          "name": "userData",
          "type": "bytes"
        }
      ],
      "name": "initialize",
      "outputs": [],
      "stateMutability": "nonpayable",
      "type": "function"
    },
    {
      "inputs": [
        {
          "internalType": "address",
          "name": "initialAddress",
          "type": "address"
        }
      ],
      "name": "initializeProxy",
      "outputs": [],
      "stateMutability": "nonpayable",
      "type": "function"
    },
    {
      "inputs": [],
      "name": "owner",
      "outputs": [
        {
          "internalType": "address",
          "name": "",
          "type": "address"
        }
      ],
      "stateMutability": "view",
      "type": "function"
    },
    {
      "inputs": [],
      "name": "pause",
      "outputs": [],
      "stateMutability": "nonpayable",
      "type": "function"
    },
    {
      "inputs": [],
      "name": "paused",
      "outputs": [
        {
          "internalType": "bool",
          "name": "",
          "type": "bool"
        }
      ],
      "stateMutability": "view",
      "type": "function"
    },
    {
      "inputs": [],
      "name": "renounceOwnership",
      "outputs": [],
      "stateMutability": "nonpayable",
      "type": "function"
    },
    {
      "inputs": [
        {
          "internalType": "address",
          "name": "newOwner",
          "type": "address"
        }
      ],
      "name": "transferOwnership",
      "outputs": [],
      "stateMutability": "nonpayable",
      "type": "function"
    },
    {
      "inputs": [],
      "name": "unpause",
      "outputs": [],
      "stateMutability": "nonpayable",
      "type": "function"
    },
    {
      "stateMutability": "payable",
      "type": "receive"
    }
  ],
  "bytecode": "0x60a0604052600160805234801561001557600080fd5b506020805460ff191690556100293361002e565b610088565b602080546001600160a01b03838116610100818102610100600160a81b031985161790945560405193909204169182907f8be0079c531659141344cd1fd0a4f28419497f9722a3daafe3b4186f6b6457e090600090a35050565b608051611d756100a36000396000610d020152611d756000f3fe6080604052600436106100ec5760003560e01c8063715018a61161008a578063c3d4450611610059578063c3d445061461025e578063edfd1a7b1461027e578063f1fb53e114610291578063f2fde38b146102b1576100fb565b8063715018a6146101dc5780638456cb59146101f15780638da5cb5b14610206578063a6b036331461023c576100fb565b80633f4ba83a116100c65780633f4ba83a1461016b5780634a0687ef146101805780635c975abb146101a057806369b0aafa146101b8576100fb565b8063095ea7b3146101035780631400505014610138578063381da4881461014b576100fb565b366100fb576100f96102d1565b005b6100f96102d1565b34801561010f57600080fd5b5061012361011e3660046115ac565b610303565b60405190151581526020015b60405180910390f35b6100f961014636600461168f565b61031b565b34801561015757600080fd5b506100f96101663660046117a2565b61058d565b34801561017757600080fd5b506100f96108d1565b34801561018c57600080fd5b506100f961019b3660046117bb565b6108e1565b3480156101ac57600080fd5b5060205460ff16610123565b3480156101c457600080fd5b506101ce60225481565b60405190815260200161012f565b3480156101e857600080fd5b506100f961097d565b3480156101fd57600080fd5b506100f961098f565b34801561021257600080fd5b5060205461010090046001600160a01b03166040516001600160a01b03909116815260200161012f565b34801561024857600080fd5b5061025161099f565b60405161012f91906118ac565b34801561026a57600080fd5b506101ce6102793660046117a2565b610bec565b6100f961028c366004611994565b610c0d565b34801561029d57600080fd5b506100f96102ac366004611a1c565b610f38565b3480156102bd57600080fd5b506100f96102cc3660046117bb565b610fac565b6103016102fc7f360894a13ba1a3210667c828492db98dca3e2076cc3735a920a3ca505d382bbc5490565b611025565b565b600033610311818585611049565b5060019392505050565b6103236110b7565b848611156103785760405162461bcd60e51b815260206004820152601960248201527f57726f6e672063616d706169676e20646174652072616e67650000000000000060448201526064015b60405180910390fd5b6000600488600581111561038e5761038e6117d8565b14156103a5576103a2620f423f6001611117565b90505b6040516323b872dd60e01b8152336004820152306024820181905260448201859052906323b872dd906064016020604051808303816000875af11580156103f0573d6000803e3d6000fd5b505050506040513d601f19601f820116820180604052508101906104149190611af1565b506001602260008282546104289190611b29565b90915550506022546023805460018101825560009182527fd57b2b5166478fd4318d2acc6cc2c704584312bdd8781b32d5d06abda57f423001829055604080516101408101825292835260208301869052820152606081018390526080810188905260a0810187905260c0810182905260e081018960058111156104ae576104ae6117d8565b815260200186815260200185815250602460006022548152602001908152602001600020600082015181600001556020820151816001015560408201518160020155606082015181600301556080820151816004015560a0820151816005015560c0820151816006015560e08201518160070160006101000a81548160ff02191690836005811115610542576105426117d8565b021790555061010082015180516105639160088401916020909101906113dd565b506101208201518051610580916009840191602090910190611442565b5050505050505050505050565b6105956110b7565b600081815260246020908152604080832081516101408101835281548152600182015493810193909352600281015491830191909152600381015460608301526004810154608083015260058082015460a0840152600682015460c0840152600782015460e084019160ff90911690811115610613576106136117d8565b6005811115610624576106246117d8565b81526020016008820180548060200260200160405190810160405280929190818152602001828054801561068157602002820191906000526020600020905b81546001600160a01b03168152600190910190602001808311610663575b5050505050815260200160098201805461069a90611b41565b80601f01602080910402602001604051908101604052809291908181526020018280546106c690611b41565b80156107135780601f106106e857610100808354040283529160200191610713565b820191906000526020600020905b8154815290600101906020018083116106f657829003601f168201915b50505050508152505090506000816040015182602001516107349190611b76565b905060005b6023548110156107f657836023828154811061075757610757611b8d565b906000526020600020015414156107e657602354600110156107be576023805461078390600190611b76565b8154811061079357610793611b8d565b9060005260206000200154602382815481106107b1576107b1611b8d565b6000918252602090912001555b60238054806107cf576107cf611ba3565b600190038181906000526020600020016000905590555b6107ef81611bb9565b9050610739565b50600083815260246020526040812081815560018101829055600281018290556003810182905560048101829055600581018290556006810182905560078101805460ff191690559061084c60088301826114b6565b61085a6009830160006114d4565b505080156108cc5760405163a9059cbb60e01b815233600482015260248101829052309063a9059cbb906044016020604051808303816000875af11580156108a6573d6000803e3d6000fd5b505050506040513d601f19601f820116820180604052508101906108ca9190611af1565b505b505050565b6108d96110b7565b610301611186565b6001600160a01b0381166109085760405163d92e233d60e01b815260040160405180910390fd5b60006109327f360894a13ba1a3210667c828492db98dca3e2076cc3735a920a3ca505d382bbc5490565b6001600160a01b031614610959576040516302ed543d60e51b815260040160405180910390fd5b7f360894a13ba1a3210667c828492db98dca3e2076cc3735a920a3ca505d382bbc55565b6109856110b7565b61030160006111d8565b6109976110b7565b610301611232565b60235460609060009067ffffffffffffffff8111156109c0576109c06115d8565b6040519080825280602002602001820160405280156109f957816020015b6109e661150e565b8152602001906001900390816109de5790505b50905060005b602354811015610be6576024600060238381548110610a2057610a20611b8d565b9060005260206000200154815260200190815260200160002060405180610140016040529081600082015481526020016001820154815260200160028201548152602001600382015481526020016004820154815260200160058201548152602001600682015481526020016007820160009054906101000a900460ff166005811115610aaf57610aaf6117d8565b6005811115610ac057610ac06117d8565b815260200160088201805480602002602001604051908101604052809291908181526020018280548015610b1d57602002820191906000526020600020905b81546001600160a01b03168152600190910190602001808311610aff575b50505050508152602001600982018054610b3690611b41565b80601f0160208091040260200160405190810160405280929190818152602001828054610b6290611b41565b8015610baf5780601f10610b8457610100808354040283529160200191610baf565b820191906000526020600020905b815481529060010190602001808311610b9257829003601f168201915b505050505081525050828281518110610bca57610bca611b8d565b602002602001018190525080610bdf90611bb9565b90506109ff565b50919050565b60238181548110610bfc57600080fd5b600091825260209091200154905081565b610c1561126f565b6000868152602460205260409020600181015460038201546002830154610c3c9190611b29565b1115610c8a5760405162461bcd60e51b815260206004820152601960248201527f4e6f7420656e6f75676820746f6b656e7320746f206d696e7400000000000000604482015260640161036f565b6000816009018054610c9b90611b41565b90501115610dce5760008381526026602052604090205460ff1615610cd357604051632ec8265960e11b815260040160405180910390fd5b6025546040516001600160601b03193360601b1660208201526001600160a01b0390911690633bc778e39086907f000000000000000000000000000000000000000000000000000000000000000090610d3e906034015b6040516020818303038152906040526112b5565b6040516001600160601b03193060601b1660208201528890610d6290603401610d2a565b886040518763ffffffff1660e01b8152600401610d8496959493929190611bd4565b60006040518083038186803b158015610d9c57600080fd5b505afa158015610db0573d6000803e3d6000fd5b5050506000848152602660205260409020805460ff19166001179055505b6004600782015460ff166005811115610de957610de96117d8565b1415610e355785816006015414610e355760405162461bcd60e51b815260206004820152601060248201526f57726f6e67204576656e7420436f646560801b604482015260640161036f565b8060030154816002016000828254610e4d9190611b29565b9091555050600381015460405163a9059cbb60e01b81523360048201526024810191909152309063a9059cbb906044016020604051808303816000875af1158015610e9c573d6000803e3d6000fd5b505050506040513d601f19601f82011682018060405250810190610ec09190611af1565b5060215460038201546040516313c977bb60e21b81526001600160a01b0390921691634f25deec91610efc9133918a918e918e91600401611c10565b600060405180830381600087803b158015610f1657600080fd5b505af1158015610f2a573d6000803e3d6000fd5b505050505050505050505050565b602180546001600160a01b0319166001600160a01b038a16179055610f5e8787846112ea565b610f7a85610f7486670de0b6b3a7640000611c68565b8361136d565b610f8385610fac565b5050602580546001600160a01b0319166001600160a01b03929092169190911790555050505050565b610fb46110b7565b6001600160a01b0381166110195760405162461bcd60e51b815260206004820152602660248201527f4f776e61626c653a206e6577206f776e657220697320746865207a65726f206160448201526564647265737360d01b606482015260840161036f565b611022816111d8565b50565b3660008037600080366000845af43d6000803e808015611044573d6000f35b3d6000fd5b60405163335097db60e11b81526001600160a01b038085166004830152831660248201526044810182905230906366a12fb6906064015b600060405180830381600087803b15801561109a57600080fd5b505af11580156110ae573d6000803e3d6000fd5b50505050505050565b6020546001600160a01b036101009091041633146103015760405162461bcd60e51b815260206004820181905260248201527f4f776e61626c653a2063616c6c6572206973206e6f7420746865206f776e6572604482015260640161036f565b6040516001600160f81b031960f883901b1660208201526001600160601b03193360601b1660218201524460358201524260558201526001607582015260009083906095016040516020818303038152906040528051906020012060001c61117f9190611c87565b9392505050565b61118e611394565b6020805460ff191690557f5db9ee0a495bf2e6ff9c91a7834c1ba4fdd244a5e8aa4e537bd38aeae4b073aa335b6040516001600160a01b03909116815260200160405180910390a1565b602080546001600160a01b03838116610100818102610100600160a81b031985161790945560405193909204169182907f8be0079c531659141344cd1fd0a4f28419497f9722a3daafe3b4186f6b6457e090600090a35050565b61123a61126f565b6020805460ff191660011790557f62e78cea01bee320cd4e420270b5ea74000d11b0c9f74754ebdbfc544b05a2586111bb3390565b60205460ff16156103015760405162461bcd60e51b815260206004820152601060248201526f14185d5cd8589b194e881c185d5cd95960821b604482015260640161036f565b60006008826040516020016112ca9190611ca9565b60408051601f198184030181529190528051602090910120901c92915050565b604051633504b4d160e21b81523060048201526001600160a01b0382169063d412d34490602401600060405180830381600087803b15801561132b57600080fd5b505af115801561133f573d6000803e3d6000fd5b50506040516285fc1360e71b81523092506342fe098091506110809060009060129088908890600401611cc5565b60405163c68d428360e01b8152309063c68d42839061108090869086908690600401611d0f565b60205460ff166103015760405162461bcd60e51b815260206004820152601460248201527314185d5cd8589b194e881b9bdd081c185d5cd95960621b604482015260640161036f565b828054828255906000526020600020908101928215611432579160200282015b8281111561143257825182546001600160a01b0319166001600160a01b039091161782556020909201916001909101906113fd565b5061143e929150611572565b5090565b82805461144e90611b41565b90600052602060002090601f0160209004810192826114705760008555611432565b82601f1061148957805160ff1916838001178555611432565b82800160010185558215611432579182015b8281111561143257825182559160200191906001019061149b565b50805460008255906000526020600020908101906110229190611572565b5080546114e090611b41565b6000825580601f106114f0575050565b601f0160209004906000526020600020908101906110229190611572565b604051806101400160405280600081526020016000815260200160008152602001600081526020016000815260200160008152602001600081526020016000600581111561155e5761155e6117d8565b815260200160608152602001606081525090565b5b8082111561143e5760008155600101611573565b6001600160a01b038116811461102257600080fd5b80356115a781611587565b919050565b600080604083850312156115bf57600080fd5b82356115ca81611587565b946020939093013593505050565b634e487b7160e01b600052604160045260246000fd5b604051601f8201601f1916810167ffffffffffffffff81118282101715611617576116176115d8565b604052919050565b600082601f83011261163057600080fd5b813567ffffffffffffffff81111561164a5761164a6115d8565b61165d601f8201601f19166020016115ee565b81815284602083860101111561167257600080fd5b816020850160208301376000918101602001919091529392505050565b600080600080600080600060e0888a0312156116aa57600080fd5b8735600681106116b957600080fd5b9650602088810135965060408901359550606089013567ffffffffffffffff808211156116e557600080fd5b818b0191508b601f8301126116f957600080fd5b81358181111561170b5761170b6115d8565b8060051b61171a8582016115ee565b918252838101850191858101908f84111561173457600080fd5b948601945b8386101561175e578535925061174e83611587565b8282529486019490860190611739565b995050505060808b013592508083111561177757600080fd5b50506117858a828b0161161f565b93505060a0880135915060c0880135905092959891949750929550565b6000602082840312156117b457600080fd5b5035919050565b6000602082840312156117cd57600080fd5b813561117f81611587565b634e487b7160e01b600052602160045260246000fd5b6006811061180c57634e487b7160e01b600052602160045260246000fd5b9052565b600081518084526020808501945080840160005b838110156118495781516001600160a01b031687529582019590820190600101611824565b509495945050505050565b60005b8381101561186f578181015183820152602001611857565b838111156108ca5750506000910152565b60008151808452611898816020860160208601611854565b601f01601f19169290920160200192915050565b60006020808301818452808551808352604092508286019150828160051b87010184880160005b8381101561198657888303603f1901855281518051845287810151888501528681015187850152606080820151908501526080808201519085015260a0808201519085015260c0808201519085015260e0808201516101409190611939828801826117ee565b505061010080830151828288015261195383880182611810565b9250505061012080830151925085820381870152506119728183611880565b9689019694505050908601906001016118d3565b509098975050505050505050565b60008060008060008060006101c080898b0312156119b157600080fd5b883597506020890135965060408901359550606089013567ffffffffffffffff8111156119dd57600080fd5b6119e98b828c0161161f565b9550506080890135935060a0890135925089818a011115611a0957600080fd5b5060c08801905092959891949750929550565b600080600080600080600080610100898b031215611a3957600080fd5b611a428961159c565b9750602089013567ffffffffffffffff80821115611a5f57600080fd5b611a6b8c838d0161161f565b985060408b0135915080821115611a8157600080fd5b611a8d8c838d0161161f565b9750611a9b60608c0161159c565b965060808b01359550611ab060a08c0161159c565b9450611abe60c08c0161159c565b935060e08b0135915080821115611ad457600080fd5b50611ae18b828c0161161f565b9150509295985092959890939650565b600060208284031215611b0357600080fd5b8151801515811461117f57600080fd5b634e487b7160e01b600052601160045260246000fd5b60008219821115611b3c57611b3c611b13565b500190565b600181811c90821680611b5557607f821691505b60208210811415610be657634e487b7160e01b600052602260045260246000fd5b600082821015611b8857611b88611b13565b500390565b634e487b7160e01b600052603260045260246000fd5b634e487b7160e01b600052603160045260246000fd5b6000600019821415611bcd57611bcd611b13565b5060010190565b60006101a0820190508782528660208301528560408301528460608301528360808301526101008360a084013760008152979650505050505050565b6001600160a01b038616815260c060208201819052600090611c3490830187611880565b60408381019690965282810360608401526002815261119560f21b602082015260808301949094525060a001520192915050565b6000816000190483118215151615611c8257611c82611b13565b500290565b600082611ca457634e487b7160e01b600052601260045260246000fd5b500690565b60008251611cbb818460208701611854565b9190910192915050565b6001600160a01b038516815260ff84166020820152608060408201819052600090611cf290830185611880565b8281036060840152611d048185611880565b979650505050505050565b60018060a01b0384168152826020820152606060408201526000611d366060830184611880565b9594505050505056fea264697066735822122091a3148160870a4ac4f88c29035efd8ad8464d427be992cd9419141701421c3d64736f6c634300080c0033",
  "linkReferences": {},
  "deployedLinkReferences": {}
}