{
  "_format": "hh-sol-artifact-1",
  "contractName": "MainContract",
  "sourceName": "src/backend/contracts/MainContract.sol",
  "abi": [
    {
      "inputs": [],
      "stateMutability": "nonpayable",
      "type": "constructor"
    },
    {
      "anonymous": false,
      "inputs": [
        {
          "indexed": false,
          "internalType": "address",
          "name": "previousAdmin",
          "type": "address"
        },
        {
          "indexed": false,
          "internalType": "address",
          "name": "newAdmin",
          "type": "address"
        }
      ],
      "name": "AdminChanged",
      "type": "event"
    },
    {
      "anonymous": false,
      "inputs": [
        {
          "indexed": true,
          "internalType": "address",
          "name": "beacon",
          "type": "address"
        }
      ],
      "name": "BeaconUpgraded",
      "type": "event"
    },
    {
      "anonymous": false,
      "inputs": [
        {
          "indexed": false,
          "internalType": "uint8",
          "name": "version",
          "type": "uint8"
        }
      ],
      "name": "Initialized",
      "type": "event"
    },
    {
      "anonymous": false,
      "inputs": [
        {
          "indexed": true,
          "internalType": "address",
          "name": "previousOwner",
          "type": "address"
        },
        {
          "indexed": true,
          "internalType": "address",
          "name": "newOwner",
          "type": "address"
        }
      ],
      "name": "OwnershipTransferred",
      "type": "event"
    },
    {
      "anonymous": false,
      "inputs": [
        {
          "indexed": true,
          "internalType": "address",
          "name": "implementation",
          "type": "address"
        }
      ],
      "name": "Upgraded",
      "type": "event"
    },
    {
      "inputs": [
        {
          "internalType": "enum MainContract.CommunityCategory",
          "name": "",
          "type": "uint8"
        },
        {
          "internalType": "uint256",
          "name": "",
          "type": "uint256"
        }
      ],
      "name": "categoryCommunities",
      "outputs": [
        {
          "internalType": "uint256",
          "name": "",
          "type": "uint256"
        }
      ],
      "stateMutability": "view",
      "type": "function"
    },
    {
      "inputs": [
        {
          "internalType": "uint256",
          "name": "",
          "type": "uint256"
        }
      ],
      "name": "communities",
      "outputs": [
        {
          "internalType": "uint256",
          "name": "id",
          "type": "uint256"
        },
        {
          "internalType": "enum MainContract.CommunityCategory",
          "name": "category",
          "type": "uint8"
        },
        {
          "internalType": "enum MainContract.CommunityPrivacy",
          "name": "privacy",
          "type": "uint8"
        },
        {
          "internalType": "address",
          "name": "owner",
          "type": "address"
        },
        {
          "internalType": "address",
          "name": "nftContract",
          "type": "address"
        },
        {
          "internalType": "address",
          "name": "ftContract",
          "type": "address"
        },
        {
          "internalType": "address",
          "name": "membersContract",
          "type": "address"
        },
        {
          "internalType": "string",
          "name": "name",
          "type": "string"
        },
        {
          "internalType": "string",
          "name": "description",
          "type": "string"
        },
        {
          "internalType": "string",
          "name": "logo",
          "type": "string"
        }
      ],
      "stateMutability": "view",
      "type": "function"
    },
    {
      "inputs": [],
      "name": "communityCount",
      "outputs": [
        {
          "internalType": "uint256",
          "name": "",
          "type": "uint256"
        }
      ],
      "stateMutability": "view",
      "type": "function"
    },
    {
      "inputs": [],
      "name": "communityMembersTable",
      "outputs": [
        {
          "internalType": "string",
          "name": "",
          "type": "string"
        }
      ],
      "stateMutability": "view",
      "type": "function"
    },
    {
      "inputs": [
        {
          "internalType": "string",
          "name": "_name",
          "type": "string"
        },
        {
          "internalType": "string",
          "name": "_logo",
          "type": "string"
        },
        {
          "internalType": "enum MainContract.CommunityCategory",
          "name": "_category",
          "type": "uint8"
        },
        {
          "internalType": "enum MainContract.CommunityPrivacy",
          "name": "_privacy",
          "type": "uint8"
        },
        {
          "internalType": "string",
          "name": "_description",
          "type": "string"
        }
      ],
      "name": "createCommunity",
      "outputs": [],
      "stateMutability": "nonpayable",
      "type": "function"
    },
    {
      "inputs": [
        {
          "internalType": "enum MainContract.CommunityCategory",
          "name": "_categoryId",
          "type": "uint8"
        }
      ],
      "name": "getCategoryCommunities",
      "outputs": [
        {
          "components": [
            {
              "internalType": "uint256",
              "name": "id",
              "type": "uint256"
            },
            {
              "internalType": "enum MainContract.CommunityCategory",
              "name": "category",
              "type": "uint8"
            },
            {
              "internalType": "enum MainContract.CommunityPrivacy",
              "name": "privacy",
              "type": "uint8"
            },
            {
              "internalType": "address",
              "name": "owner",
              "type": "address"
            },
            {
              "internalType": "address",
              "name": "nftContract",
              "type": "address"
            },
            {
              "internalType": "address",
              "name": "ftContract",
              "type": "address"
            },
            {
              "internalType": "address",
              "name": "membersContract",
              "type": "address"
            },
            {
              "internalType": "string",
              "name": "name",
              "type": "string"
            },
            {
              "internalType": "string",
              "name": "description",
              "type": "string"
            },
            {
              "internalType": "string",
              "name": "logo",
              "type": "string"
            }
          ],
          "internalType": "struct MainContract.Community[]",
          "name": "",
          "type": "tuple[]"
        }
      ],
      "stateMutability": "view",
      "type": "function"
    },
    {
      "inputs": [
        {
          "internalType": "address",
          "name": "_owner",
          "type": "address"
        }
      ],
      "name": "getUserCommunities",
      "outputs": [
        {
          "components": [
            {
              "internalType": "uint256",
              "name": "id",
              "type": "uint256"
            },
            {
              "internalType": "enum MainContract.CommunityCategory",
              "name": "category",
              "type": "uint8"
            },
            {
              "internalType": "enum MainContract.CommunityPrivacy",
              "name": "privacy",
              "type": "uint8"
            },
            {
              "internalType": "address",
              "name": "owner",
              "type": "address"
            },
            {
              "internalType": "address",
              "name": "nftContract",
              "type": "address"
            },
            {
              "internalType": "address",
              "name": "ftContract",
              "type": "address"
            },
            {
              "internalType": "address",
              "name": "membersContract",
              "type": "address"
            },
            {
              "internalType": "string",
              "name": "name",
              "type": "string"
            },
            {
              "internalType": "string",
              "name": "description",
              "type": "string"
            },
            {
              "internalType": "string",
              "name": "logo",
              "type": "string"
            }
          ],
          "internalType": "struct MainContract.Community[]",
          "name": "",
          "type": "tuple[]"
        }
      ],
      "stateMutability": "view",
      "type": "function"
    },
    {
      "inputs": [
        {
          "internalType": "address",
          "name": "_registry",
          "type": "address"
        }
      ],
      "name": "initialize",
      "outputs": [],
      "stateMutability": "nonpayable",
      "type": "function"
    },
    {
      "inputs": [
        {
          "internalType": "uint256",
          "name": "_id",
          "type": "uint256"
        }
      ],
      "name": "isContractExists",
      "outputs": [
        {
          "internalType": "bool",
          "name": "",
          "type": "bool"
        },
        {
          "internalType": "bool",
          "name": "",
          "type": "bool"
        }
      ],
      "stateMutability": "view",
      "type": "function"
    },
    {
      "inputs": [],
      "name": "memberStatsTable",
      "outputs": [
        {
          "internalType": "string",
          "name": "",
          "type": "string"
        }
      ],
      "stateMutability": "view",
      "type": "function"
    },
    {
      "inputs": [],
      "name": "membersTable",
      "outputs": [
        {
          "internalType": "string",
          "name": "",
          "type": "string"
        }
      ],
      "stateMutability": "view",
      "type": "function"
    },
    {
      "inputs": [],
      "name": "owner",
      "outputs": [
        {
          "internalType": "address",
          "name": "",
          "type": "address"
        }
      ],
      "stateMutability": "view",
      "type": "function"
    },
    {
      "inputs": [],
      "name": "proxiableUUID",
      "outputs": [
        {
          "internalType": "bytes32",
          "name": "",
          "type": "bytes32"
        }
      ],
      "stateMutability": "view",
      "type": "function"
    },
    {
      "inputs": [],
      "name": "renounceOwnership",
      "outputs": [],
      "stateMutability": "nonpayable",
      "type": "function"
    },
    {
      "inputs": [
        {
          "internalType": "address",
          "name": "newOwner",
          "type": "address"
        }
      ],
      "name": "transferOwnership",
      "outputs": [],
      "stateMutability": "nonpayable",
      "type": "function"
    },
    {
      "inputs": [
        {
          "internalType": "uint256",
          "name": "_id",
          "type": "uint256"
        },
        {
          "internalType": "string",
          "name": "_name",
          "type": "string"
        },
        {
          "internalType": "string",
          "name": "_logo",
          "type": "string"
        },
        {
          "internalType": "enum MainContract.CommunityPrivacy",
          "name": "_privacy",
          "type": "uint8"
        },
        {
          "internalType": "string",
          "name": "_description",
          "type": "string"
        }
      ],
      "name": "updateCommunity",
      "outputs": [],
      "stateMutability": "nonpayable",
      "type": "function"
    },
    {
      "inputs": [
        {
          "internalType": "uint256",
          "name": "_id",
          "type": "uint256"
        },
        {
          "internalType": "address",
          "name": "_ftContract",
          "type": "address"
        }
      ],
      "name": "updateCommunityFT",
      "outputs": [],
      "stateMutability": "nonpayable",
      "type": "function"
    },
    {
      "inputs": [
        {
          "internalType": "uint256",
          "name": "_id",
          "type": "uint256"
        },
        {
          "internalType": "address",
          "name": "_nftContract",
          "type": "address"
        }
      ],
      "name": "updateCommunityNFT",
      "outputs": [],
      "stateMutability": "nonpayable",
      "type": "function"
    },
    {
      "inputs": [
        {
          "internalType": "address",
          "name": "_factoryNFTContract",
          "type": "address"
        },
        {
          "internalType": "address",
          "name": "_factoryFTContract",
          "type": "address"
        }
      ],
      "name": "updateFactoryContractsAddress",
      "outputs": [],
      "stateMutability": "nonpayable",
      "type": "function"
    },
    {
      "inputs": [
        {
          "internalType": "address",
          "name": "newImplementation",
          "type": "address"
        }
      ],
      "name": "upgradeTo",
      "outputs": [],
      "stateMutability": "nonpayable",
      "type": "function"
    },
    {
      "inputs": [
        {
          "internalType": "address",
          "name": "newImplementation",
          "type": "address"
        },
        {
          "internalType": "bytes",
          "name": "data",
          "type": "bytes"
        }
      ],
      "name": "upgradeToAndCall",
      "outputs": [],
      "stateMutability": "payable",
      "type": "function"
    },
    {
      "inputs": [
        {
          "internalType": "address",
          "name": "",
          "type": "address"
        },
        {
          "internalType": "uint256",
          "name": "",
          "type": "uint256"
        }
      ],
      "name": "userCommunities",
      "outputs": [
        {
          "internalType": "uint256",
          "name": "",
          "type": "uint256"
        }
      ],
      "stateMutability": "view",
      "type": "function"
    }
  ],
  "bytecode": "0x60a0604052306080523480156200001557600080fd5b506200002062000026565b620000e8565b600054610100900460ff1615620000935760405162461bcd60e51b815260206004820152602760248201527f496e697469616c697a61626c653a20636f6e747261637420697320696e697469604482015266616c697a696e6760c81b606482015260840160405180910390fd5b60005460ff9081161015620000e6576000805460ff191660ff9081179091556040519081527f7f26b83ff96e1f2b6a682f133852f6798a09c465da95921460cefb38474024989060200160405180910390a15b565b608051612a70620001206000396000818161088f015281816108d8015281816109b6015281816109f60152610a890152612a706000f3fe6080604052600436106101355760003560e01c8063aee84613116100ab578063e00f78651161006f578063e00f786514610372578063e590b56a14610392578063e87d940b146103c8578063e8cc13c0146103e8578063f2fde38b14610408578063f8feb29a1461042857600080fd5b8063aee846131461029c578063af1af3dc146102b2578063b64b7f76146102d2578063c4d66de814610332578063dd4460011461035257600080fd5b80634f1ef286116100fd5780634f1ef286146101f757806352d1902d1461020a5780636543286f1461021f578063715018a61461023f57806380c75be3146102545780638da5cb5b1461027457600080fd5b806302156c041461013a578063266682cb146101655780633659cfe6146101925780633ae6dda9146101b45780633c44f002146101c9575b600080fd5b34801561014657600080fd5b5061014f61043d565b60405161015c91906120e7565b60405180910390f35b34801561017157600080fd5b5061018561018036600461210e565b6104cb565b60405161015c9190612163565b34801561019e57600080fd5b506101b26101ad36600461228f565b610884565b005b3480156101c057600080fd5b5061014f61096d565b3480156101d557600080fd5b506101e96101e43660046122aa565b61097a565b60405190815260200161015c565b6101b2610205366004612360565b6109ab565b34801561021657600080fd5b506101e9610a7c565b34801561022b57600080fd5b5061018561023a36600461228f565b610b2f565b34801561024b57600080fd5b506101b2610ea0565b34801561026057600080fd5b506101b261026f3660046123c2565b610eb4565b34801561028057600080fd5b506033546040516001600160a01b03909116815260200161015c565b3480156102a857600080fd5b506101e960cc5481565b3480156102be57600080fd5b506101b26102cd366004612424565b610eea565b3480156102de57600080fd5b5061031b6102ed3660046124c7565b600090815260d06020526040902060028101546003909101546001600160a01b039182161515929116151590565b60408051921515835290151560208301520161015c565b34801561033e57600080fd5b506101b261034d36600461228f565b611015565b34801561035e57600080fd5b506101e961036d3660046124e0565b611259565b34801561037e57600080fd5b506101b261038d3660046124fc565b611275565b34801561039e57600080fd5b506103b26103ad3660046124c7565b6112fc565b60405161015c9a9998979695949392919061251f565b3480156103d457600080fd5b506101b26103e33660046124fc565b6114fa565b3480156103f457600080fd5b506101b26104033660046125b6565b611581565b34801561041457600080fd5b506101b261042336600461228f565b611806565b34801561043457600080fd5b5061014f61187c565b60cd805461044a90612622565b80601f016020809104026020016040519081016040528092919081815260200182805461047690612622565b80156104c35780601f10610498576101008083540402835291602001916104c3565b820191906000526020600020905b8154815290600101906020018083116104a657829003601f168201915b505050505081565b6060600060d260008460148111156104e5576104e5612129565b60148111156104f6576104f6612129565b815260200190815260200160002080549050905060008167ffffffffffffffff811115610525576105256122d4565b60405190808252806020026020018201604052801561055e57816020015b61054b611f7e565b8152602001906001900390816105435790505b50905060005b8281101561087c5760d0600060d2600088601481111561058657610586612129565b601481111561059757610597612129565b815260200190815260200160002083815481106105b6576105b661265d565b9060005260206000200154815260200190815260200160002060405180610140016040529081600082015481526020016001820160009054906101000a900460ff16601481111561060957610609612129565b601481111561061a5761061a612129565b81526020016001820160019054906101000a900460ff16600181111561064257610642612129565b600181111561065357610653612129565b815260018201546001600160a01b036201000090910481166020830152600283015481166040830152600383015481166060830152600483015416608082015260058201805460a0909201916106a890612622565b80601f01602080910402602001604051908101604052809291908181526020018280546106d490612622565b80156107215780601f106106f657610100808354040283529160200191610721565b820191906000526020600020905b81548152906001019060200180831161070457829003601f168201915b5050505050815260200160068201805461073a90612622565b80601f016020809104026020016040519081016040528092919081815260200182805461076690612622565b80156107b35780601f10610788576101008083540402835291602001916107b3565b820191906000526020600020905b81548152906001019060200180831161079657829003601f168201915b505050505081526020016007820180546107cc90612622565b80601f01602080910402602001604051908101604052809291908181526020018280546107f890612622565b80156108455780601f1061081a57610100808354040283529160200191610845565b820191906000526020600020905b81548152906001019060200180831161082857829003601f168201915b5050505050815250508282815181106108605761086061265d565b60200260200101819052508061087590612689565b9050610564565b509392505050565b306001600160a01b037f00000000000000000000000000000000000000000000000000000000000000001614156108d65760405162461bcd60e51b81526004016108cd906126a4565b60405180910390fd5b7f00000000000000000000000000000000000000000000000000000000000000006001600160a01b031661091f60008051602061291c833981519152546001600160a01b031690565b6001600160a01b0316146109455760405162461bcd60e51b81526004016108cd906126f0565b61094e81611889565b6040805160008082526020820190925261096a91839190611891565b50565b60cf805461044a90612622565b60d2602052816000526040600020818154811061099657600080fd5b90600052602060002001600091509150505481565b306001600160a01b037f00000000000000000000000000000000000000000000000000000000000000001614156109f45760405162461bcd60e51b81526004016108cd906126a4565b7f00000000000000000000000000000000000000000000000000000000000000006001600160a01b0316610a3d60008051602061291c833981519152546001600160a01b031690565b6001600160a01b031614610a635760405162461bcd60e51b81526004016108cd906126f0565b610a6c82611889565b610a7882826001611891565b5050565b6000306001600160a01b037f00000000000000000000000000000000000000000000000000000000000000001614610b1c5760405162461bcd60e51b815260206004820152603860248201527f555550535570677261646561626c653a206d757374206e6f742062652063616c60448201527f6c6564207468726f7567682064656c656761746563616c6c000000000000000060648201526084016108cd565b5060008051602061291c83398151915290565b6001600160a01b038116600090815260d160205260408120546060918167ffffffffffffffff811115610b6457610b646122d4565b604051908082528060200260200182016040528015610b9d57816020015b610b8a611f7e565b815260200190600190039081610b825790505b50905060005b8281101561087c576001600160a01b038516600090815260d160205260408120805460d092919084908110610bda57610bda61265d565b9060005260206000200154815260200190815260200160002060405180610140016040529081600082015481526020016001820160009054906101000a900460ff166014811115610c2d57610c2d612129565b6014811115610c3e57610c3e612129565b81526020016001820160019054906101000a900460ff166001811115610c6657610c66612129565b6001811115610c7757610c77612129565b815260018201546001600160a01b036201000090910481166020830152600283015481166040830152600383015481166060830152600483015416608082015260058201805460a090920191610ccc90612622565b80601f0160208091040260200160405190810160405280929190818152602001828054610cf890612622565b8015610d455780601f10610d1a57610100808354040283529160200191610d45565b820191906000526020600020905b815481529060010190602001808311610d2857829003601f168201915b50505050508152602001600682018054610d5e90612622565b80601f0160208091040260200160405190810160405280929190818152602001828054610d8a90612622565b8015610dd75780601f10610dac57610100808354040283529160200191610dd7565b820191906000526020600020905b815481529060010190602001808311610dba57829003601f168201915b50505050508152602001600782018054610df090612622565b80601f0160208091040260200160405190810160405280929190818152602001828054610e1c90612622565b8015610e695780601f10610e3e57610100808354040283529160200191610e69565b820191906000526020600020905b815481529060010190602001808311610e4c57829003601f168201915b505050505081525050828281518110610e8457610e8461265d565b602002602001018190525080610e9990612689565b9050610ba3565b610ea8611a01565b610eb26000611a5b565b565b610ebc611a01565b60c980546001600160a01b039384166001600160a01b03199182161790915560ca8054929093169116179055565b600384511015610f375760405162461bcd60e51b815260206004820152601860248201527710dbdb5b5d5b9a5d1e481b985b59481d1bdbc81cda1bdc9d60421b60448201526064016108cd565b600085815260d06020526040902060018101546201000090046001600160a01b03163314610fa05760405162461bcd60e51b81526020600482015260166024820152754e6f2061636365737320746f20636f6d6d756e69747960501b60448201526064016108cd565b8451610fb59060058301906020880190611ff6565b508351610fcb9060078301906020870190611ff6565b50828160010160016101000a81548160ff02191690836001811115610ff257610ff2612129565b0217905550815161100c9060068301906020850190611ff6565b50505050505050565b600054610100900460ff16158080156110355750600054600160ff909116105b8061104f5750303b15801561104f575060005460ff166001145b6110b25760405162461bcd60e51b815260206004820152602e60248201527f496e697469616c697a61626c653a20636f6e747261637420697320616c72656160448201526d191e481a5b9a5d1a585b1a5e995960921b60648201526084016108cd565b6000805460ff1916600117905580156110d5576000805461ff0019166101001790555b6110dd611aad565b6110e5611adc565b60cb80546001600160a01b0319166001600160a01b03841617905560408051808201825260078152666d656d6265727360c81b602080830191909152825160808101909352605480845261114093916129e790830139611b03565b80516111549160cd91602090910190611ff6565b506111a060405180604001604052806011815260200170636f6d6d756e6974795f6d656d6265727360781b8152506040518060800160405280604781526020016128d560479139611b03565b80516111b49160ce91602090910190611ff6565b506111fb6040518060400160405280600c81526020016b6d656d6265725f737461747360a01b8152506040518060c001604052806084815260200161296360849139611b03565b805161120f9160cf91602090910190611ff6565b508015610a78576000805461ff0019169055604051600181527f7f26b83ff96e1f2b6a682f133852f6798a09c465da95921460cefb38474024989060200160405180910390a15050565b60d1602052816000526040600020818154811061099657600080fd5b60c9546001600160a01b031633146112cb5760405162461bcd60e51b815260206004820152601960248201527827379020b1b1b2b9b9903337b9103a3434b99030b1ba34b7b760391b60448201526064016108cd565b600091825260d0602052604090912060020180546001600160a01b0319166001600160a01b03909216919091179055565b60d060205260009081526040902080546001820154600283015460038401546004850154600586018054959660ff808716976101008804909116966001600160a01b036201000090910481169681169581169416929061135b90612622565b80601f016020809104026020016040519081016040528092919081815260200182805461138790612622565b80156113d45780601f106113a9576101008083540402835291602001916113d4565b820191906000526020600020905b8154815290600101906020018083116113b757829003601f168201915b5050505050908060060180546113e990612622565b80601f016020809104026020016040519081016040528092919081815260200182805461141590612622565b80156114625780601f1061143757610100808354040283529160200191611462565b820191906000526020600020905b81548152906001019060200180831161144557829003601f168201915b50505050509080600701805461147790612622565b80601f01602080910402602001604051908101604052809291908181526020018280546114a390612622565b80156114f05780601f106114c5576101008083540402835291602001916114f0565b820191906000526020600020905b8154815290600101906020018083116114d357829003601f168201915b505050505090508a565b60ca546001600160a01b031633146115505760405162461bcd60e51b815260206004820152601960248201527827379020b1b1b2b9b9903337b9103a3434b99030b1ba34b7b760391b60448201526064016108cd565b600091825260d0602052604090912060030180546001600160a01b0319166001600160a01b03909216919091179055565b60038551116115cd5760405162461bcd60e51b815260206004820152601860248201527710dbdb5b5d5b9a5d1e481b985b59481d1bdbc81cda1bdc9d60421b60448201526064016108cd565b600160cc60008282546115e0919061273c565b909155505060cc546040805161014081019091528181526020810185601481111561160d5761160d612129565b815260200184600181111561162457611624612129565b81523360208083019190915260006040808401829052606084018290526080840182905260a084018b905260c0840187905260e090930189905284815260d0825291909120825181559082015160018083018054909160ff199091169083601481111561169357611693612129565b021790555060408201518160010160016101000a81548160ff021916908360018111156116c2576116c2612129565b021790555060608201516001820180546001600160a01b03928316620100000262010000600160b01b031990911617905560808301516002830180549183166001600160a01b031992831617905560a084015160038401805491841691831691909117905560c084015160048401805491909316911617905560e08201518051611756916005840191602090910190611ff6565b506101008201518051611773916006840191602090910190611ff6565b506101208201518051611790916007840191602090910190611ff6565b505033600090815260d160209081526040822080546001810182559083529082200183905560d291508560148111156117cb576117cb612129565b60148111156117dc576117dc612129565b81526020808201929092526040016000908120805460018101825590825291902001555050505050565b61180e611a01565b6001600160a01b0381166118735760405162461bcd60e51b815260206004820152602660248201527f4f776e61626c653a206e6577206f776e657220697320746865207a65726f206160448201526564647265737360d01b60648201526084016108cd565b61096a81611a5b565b60ce805461044a90612622565b61096a611a01565b7f4910fdfa16fed3260ed0e7147f7cc6da11a60208b5b9406d12a635614ffd91435460ff16156118c9576118c483611c0d565b505050565b826001600160a01b03166352d1902d6040518163ffffffff1660e01b8152600401602060405180830381865afa925050508015611923575060408051601f3d908101601f1916820190925261192091810190612754565b60015b6119865760405162461bcd60e51b815260206004820152602e60248201527f45524331393637557067726164653a206e657720696d706c656d656e7461746960448201526d6f6e206973206e6f74205555505360901b60648201526084016108cd565b60008051602061291c83398151915281146119f55760405162461bcd60e51b815260206004820152602960248201527f45524331393637557067726164653a20756e737570706f727465642070726f786044820152681a58589b195555525160ba1b60648201526084016108cd565b506118c4838383611ca9565b6033546001600160a01b03163314610eb25760405162461bcd60e51b815260206004820181905260248201527f4f776e61626c653a2063616c6c6572206973206e6f7420746865206f776e657260448201526064016108cd565b603380546001600160a01b038381166001600160a01b0319831681179093556040519116919082907f8be0079c531659141344cd1fd0a4f28419497f9722a3daafe3b4186f6b6457e090600090a35050565b600054610100900460ff16611ad45760405162461bcd60e51b81526004016108cd9061276d565b610eb2611cd4565b600054610100900460ff16610eb25760405162461bcd60e51b81526004016108cd9061276d565b6060611b0d611a01565b600083611b1946611d04565b604051602001611b2a9291906127b8565b60408051601f198184030181529082905260cb549092506000916001600160a01b0390911690633a9151b0903090611b6890869089906020016127f4565b6040516020818303038152906040526040518363ffffffff1660e01b8152600401611b9492919061283f565b6020604051808303816000875af1158015611bb3573d6000803e3d6000fd5b505050506040513d601f19601f82011682018060405250810190611bd79190612754565b905081611be382611d04565b604051602001611bf49291906127b8565b6040516020818303038152906040529250505092915050565b6001600160a01b0381163b611c7a5760405162461bcd60e51b815260206004820152602d60248201527f455243313936373a206e657720696d706c656d656e746174696f6e206973206e60448201526c1bdd08184818dbdb9d1c9858dd609a1b60648201526084016108cd565b60008051602061291c83398151915280546001600160a01b0319166001600160a01b0392909216919091179055565b611cb283611e0a565b600082511180611cbf5750805b156118c457611cce8383611e4a565b50505050565b600054610100900460ff16611cfb5760405162461bcd60e51b81526004016108cd9061276d565b610eb233611a5b565b606081611d285750506040805180820190915260018152600360fc1b602082015290565b8160005b8115611d525780611d3c81612689565b9150611d4b9050600a83612879565b9150611d2c565b60008167ffffffffffffffff811115611d6d57611d6d6122d4565b6040519080825280601f01601f191660200182016040528015611d97576020820181803683370190505b5090505b8415611e0257611dac60018361288d565b9150611db9600a866128a4565b611dc490603061273c565b60f81b818381518110611dd957611dd961265d565b60200101906001600160f81b031916908160001a905350611dfb600a86612879565b9450611d9b565b949350505050565b611e1381611c0d565b6040516001600160a01b038216907fbc7cd75a20ee27fd9adebab32041f755214dbc6bffa90cc0225b39da2e5c2d3b90600090a250565b60606001600160a01b0383163b611eb25760405162461bcd60e51b815260206004820152602660248201527f416464726573733a2064656c65676174652063616c6c20746f206e6f6e2d636f6044820152651b9d1c9858dd60d21b60648201526084016108cd565b600080846001600160a01b031684604051611ecd91906128b8565b600060405180830381855af49150503d8060008114611f08576040519150601f19603f3d011682016040523d82523d6000602084013e611f0d565b606091505b5091509150611f35828260405180606001604052806027815260200161293c60279139611f3e565b95945050505050565b60608315611f4d575081611f77565b825115611f5d5782518084602001fd5b8160405162461bcd60e51b81526004016108cd91906120e7565b9392505050565b6040805161014081019091526000808252602082019081526020016000815260200160006001600160a01b0316815260200160006001600160a01b0316815260200160006001600160a01b0316815260200160006001600160a01b031681526020016060815260200160608152602001606081525090565b82805461200290612622565b90600052602060002090601f016020900481019282612024576000855561206a565b82601f1061203d57805160ff191683800117855561206a565b8280016001018555821561206a579182015b8281111561206a57825182559160200191906001019061204f565b5061207692915061207a565b5090565b5b80821115612076576000815560010161207b565b60005b838110156120aa578181015183820152602001612092565b83811115611cce5750506000910152565b600081518084526120d381602086016020860161208f565b601f01601f19169290920160200192915050565b602081526000611f7760208301846120bb565b80356015811061210957600080fd5b919050565b60006020828403121561212057600080fd5b611f77826120fa565b634e487b7160e01b600052602160045260246000fd5b6015811061214f5761214f612129565b9052565b6002811061214f5761214f612129565b60006020808301818452808551808352604092508286019150828160051b87010184880160005b8381101561226a57603f19898403018552815161014081518552888201516121b48a87018261213f565b50878201516121c589870182612153565b506060828101516001600160a01b039081169187019190915260808084015182169087015260a08084015182169087015260c0808401519091169086015260e08083015181870183905261221b838801826120bb565b92505050610100808301518683038288015261223783826120bb565b92505050610120808301519250858203818701525061225681836120bb565b96890196945050509086019060010161218a565b509098975050505050505050565b80356001600160a01b038116811461210957600080fd5b6000602082840312156122a157600080fd5b611f7782612278565b600080604083850312156122bd57600080fd5b6122c6836120fa565b946020939093013593505050565b634e487b7160e01b600052604160045260246000fd5b600067ffffffffffffffff80841115612305576123056122d4565b604051601f8501601f19908116603f0116810190828211818310171561232d5761232d6122d4565b8160405280935085815286868601111561234657600080fd5b858560208301376000602087830101525050509392505050565b6000806040838503121561237357600080fd5b61237c83612278565b9150602083013567ffffffffffffffff81111561239857600080fd5b8301601f810185136123a957600080fd5b6123b8858235602084016122ea565b9150509250929050565b600080604083850312156123d557600080fd5b6123de83612278565b91506123ec60208401612278565b90509250929050565b600082601f83011261240657600080fd5b611f77838335602085016122ea565b80356002811061210957600080fd5b600080600080600060a0868803121561243c57600080fd5b85359450602086013567ffffffffffffffff8082111561245b57600080fd5b61246789838a016123f5565b9550604088013591508082111561247d57600080fd5b61248989838a016123f5565b945061249760608901612415565b935060808801359150808211156124ad57600080fd5b506124ba888289016123f5565b9150509295509295909350565b6000602082840312156124d957600080fd5b5035919050565b600080604083850312156124f357600080fd5b6122c683612278565b6000806040838503121561250f57600080fd5b823591506123ec60208401612278565b60006101408c8352612534602084018d61213f565b612541604084018c612153565b6001600160a01b038a81166060850152898116608085015288811660a0850152871660c084015260e0830181905261257b818401876120bb565b905082810361010084015261259081866120bb565b90508281036101208401526125a581856120bb565b9d9c50505050505050505050505050565b600080600080600060a086880312156125ce57600080fd5b853567ffffffffffffffff808211156125e657600080fd5b6125f289838a016123f5565b9650602088013591508082111561260857600080fd5b61261489838a016123f5565b9550612489604089016120fa565b600181811c9082168061263657607f821691505b6020821081141561265757634e487b7160e01b600052602260045260246000fd5b50919050565b634e487b7160e01b600052603260045260246000fd5b634e487b7160e01b600052601160045260246000fd5b600060001982141561269d5761269d612673565b5060010190565b6020808252602c908201527f46756e6374696f6e206d7573742062652063616c6c6564207468726f7567682060408201526b19195b1959d85d1958d85b1b60a21b606082015260800190565b6020808252602c908201527f46756e6374696f6e206d7573742062652063616c6c6564207468726f7567682060408201526b6163746976652070726f787960a01b606082015260800190565b6000821982111561274f5761274f612673565b500190565b60006020828403121561276657600080fd5b5051919050565b6020808252602b908201527f496e697469616c697a61626c653a20636f6e7472616374206973206e6f74206960408201526a6e697469616c697a696e6760a81b606082015260800190565b600083516127ca81846020880161208f565b605f60f81b90830190815283516127e881600184016020880161208f565b01600101949350505050565b6c021a922a0aa22902a20a126229609d1b81526000835161281c81600d85016020880161208f565b83519083019061283381600d84016020880161208f565b01600d01949350505050565b6001600160a01b0383168152604060208201819052600090611e02908301846120bb565b634e487b7160e01b600052601260045260246000fd5b60008261288857612888612863565b500490565b60008282101561289f5761289f612673565b500390565b6000826128b3576128b3612863565b500690565b600082516128ca81846020870161208f565b919091019291505056fe2028696420696e74207072696d617279206b65792c206d656d6265725f696420696e742c20636f6d6d756e6974795f696420696e742c20637265617465645f617420696e74293b360894a13ba1a3210667c828492db98dca3e2076cc3735a920a3ca505d382bbc416464726573733a206c6f772d6c6576656c2064656c65676174652063616c6c206661696c65642028696420696e74207072696d617279206b65792c206d656d6265725f696420696e742c20636f6d6d756e6974795f696420696e742c2063616d705f7479706520746578742c2063616d705f696420696e742c207061696420737472696e672c2069735f6e65775f6d656d62657220696e742c20637265617465645f617420696e74293b2028696420696e74207072696d617279206b65792c2077616c6c657420746578742c20656d61696c20746578742c2070686f6e6520746578742c20636f756e74727920746578742c20636974792074657874293ba26469706673582212208aaf3b1939a1a05bc7b7614dc218a52263e3fb7ac3bffced23acedfbba40804b64736f6c634300080c0033",
  "linkReferences": {},
  "deployedLinkReferences": {}
}