{
  "_format": "hh-sol-artifact-1",
  "contractName": "MainContract",
  "sourceName": "src/backend/contracts/MainContract.sol",
  "abi": [
    {
      "inputs": [],
      "stateMutability": "nonpayable",
      "type": "constructor"
    },
    {
      "anonymous": false,
      "inputs": [
        {
          "indexed": false,
          "internalType": "address",
          "name": "previousAdmin",
          "type": "address"
        },
        {
          "indexed": false,
          "internalType": "address",
          "name": "newAdmin",
          "type": "address"
        }
      ],
      "name": "AdminChanged",
      "type": "event"
    },
    {
      "anonymous": false,
      "inputs": [
        {
          "indexed": true,
          "internalType": "address",
          "name": "beacon",
          "type": "address"
        }
      ],
      "name": "BeaconUpgraded",
      "type": "event"
    },
    {
      "anonymous": false,
      "inputs": [
        {
          "indexed": false,
          "internalType": "uint8",
          "name": "version",
          "type": "uint8"
        }
      ],
      "name": "Initialized",
      "type": "event"
    },
    {
      "anonymous": false,
      "inputs": [
        {
          "indexed": true,
          "internalType": "address",
          "name": "previousOwner",
          "type": "address"
        },
        {
          "indexed": true,
          "internalType": "address",
          "name": "newOwner",
          "type": "address"
        }
      ],
      "name": "OwnershipTransferred",
      "type": "event"
    },
    {
      "anonymous": false,
      "inputs": [
        {
          "indexed": true,
          "internalType": "address",
          "name": "implementation",
          "type": "address"
        }
      ],
      "name": "Upgraded",
      "type": "event"
    },
    {
      "inputs": [
        {
          "internalType": "address",
          "name": "_member",
          "type": "address"
        },
        {
          "internalType": "string",
          "name": "_email",
          "type": "string"
        },
        {
          "internalType": "uint256",
          "name": "_communityId",
          "type": "uint256"
        },
        {
          "internalType": "string",
          "name": "_campType",
          "type": "string"
        },
        {
          "internalType": "uint256",
          "name": "_campId",
          "type": "uint256"
        },
        {
          "internalType": "uint256",
          "name": "_paid",
          "type": "uint256"
        }
      ],
      "name": "addMemberStats",
      "outputs": [],
      "stateMutability": "nonpayable",
      "type": "function"
    },
    {
      "inputs": [
        {
          "internalType": "enum MainContract.CommunityCategory",
          "name": "",
          "type": "uint8"
        },
        {
          "internalType": "uint256",
          "name": "",
          "type": "uint256"
        }
      ],
      "name": "categoryCommunities",
      "outputs": [
        {
          "internalType": "uint256",
          "name": "",
          "type": "uint256"
        }
      ],
      "stateMutability": "view",
      "type": "function"
    },
    {
      "inputs": [
        {
          "internalType": "uint256",
          "name": "",
          "type": "uint256"
        }
      ],
      "name": "communities",
      "outputs": [
        {
          "internalType": "uint256",
          "name": "id",
          "type": "uint256"
        },
        {
          "internalType": "enum MainContract.CommunityCategory",
          "name": "category",
          "type": "uint8"
        },
        {
          "internalType": "enum MainContract.CommunityPrivacy",
          "name": "privacy",
          "type": "uint8"
        },
        {
          "internalType": "address",
          "name": "owner",
          "type": "address"
        },
        {
          "internalType": "address",
          "name": "nftContract",
          "type": "address"
        },
        {
          "internalType": "address",
          "name": "ftContract",
          "type": "address"
        },
        {
          "internalType": "address",
          "name": "membersContract",
          "type": "address"
        },
        {
          "internalType": "string",
          "name": "name",
          "type": "string"
        },
        {
          "internalType": "string",
          "name": "description",
          "type": "string"
        },
        {
          "internalType": "string",
          "name": "logo",
          "type": "string"
        }
      ],
      "stateMutability": "view",
      "type": "function"
    },
    {
      "inputs": [],
      "name": "communityCount",
      "outputs": [
        {
          "internalType": "uint256",
          "name": "",
          "type": "uint256"
        }
      ],
      "stateMutability": "view",
      "type": "function"
    },
    {
      "inputs": [
        {
          "internalType": "string",
          "name": "_name",
          "type": "string"
        },
        {
          "internalType": "string",
          "name": "_logo",
          "type": "string"
        },
        {
          "internalType": "enum MainContract.CommunityCategory",
          "name": "_category",
          "type": "uint8"
        },
        {
          "internalType": "enum MainContract.CommunityPrivacy",
          "name": "_privacy",
          "type": "uint8"
        },
        {
          "internalType": "string",
          "name": "_description",
          "type": "string"
        }
      ],
      "name": "createCommunity",
      "outputs": [],
      "stateMutability": "nonpayable",
      "type": "function"
    },
    {
      "inputs": [
        {
          "internalType": "enum MainContract.CommunityCategory",
          "name": "_categoryId",
          "type": "uint8"
        }
      ],
      "name": "getCategoryCommunities",
      "outputs": [
        {
          "components": [
            {
              "internalType": "uint256",
              "name": "id",
              "type": "uint256"
            },
            {
              "internalType": "enum MainContract.CommunityCategory",
              "name": "category",
              "type": "uint8"
            },
            {
              "internalType": "enum MainContract.CommunityPrivacy",
              "name": "privacy",
              "type": "uint8"
            },
            {
              "internalType": "address",
              "name": "owner",
              "type": "address"
            },
            {
              "internalType": "address",
              "name": "nftContract",
              "type": "address"
            },
            {
              "internalType": "address",
              "name": "ftContract",
              "type": "address"
            },
            {
              "internalType": "address",
              "name": "membersContract",
              "type": "address"
            },
            {
              "internalType": "string",
              "name": "name",
              "type": "string"
            },
            {
              "internalType": "string",
              "name": "description",
              "type": "string"
            },
            {
              "internalType": "string",
              "name": "logo",
              "type": "string"
            }
          ],
          "internalType": "struct MainContract.Community[]",
          "name": "",
          "type": "tuple[]"
        }
      ],
      "stateMutability": "view",
      "type": "function"
    },
    {
      "inputs": [
        {
          "internalType": "address",
          "name": "_owner",
          "type": "address"
        }
      ],
      "name": "getUserCommunities",
      "outputs": [
        {
          "components": [
            {
              "internalType": "uint256",
              "name": "id",
              "type": "uint256"
            },
            {
              "internalType": "enum MainContract.CommunityCategory",
              "name": "category",
              "type": "uint8"
            },
            {
              "internalType": "enum MainContract.CommunityPrivacy",
              "name": "privacy",
              "type": "uint8"
            },
            {
              "internalType": "address",
              "name": "owner",
              "type": "address"
            },
            {
              "internalType": "address",
              "name": "nftContract",
              "type": "address"
            },
            {
              "internalType": "address",
              "name": "ftContract",
              "type": "address"
            },
            {
              "internalType": "address",
              "name": "membersContract",
              "type": "address"
            },
            {
              "internalType": "string",
              "name": "name",
              "type": "string"
            },
            {
              "internalType": "string",
              "name": "description",
              "type": "string"
            },
            {
              "internalType": "string",
              "name": "logo",
              "type": "string"
            }
          ],
          "internalType": "struct MainContract.Community[]",
          "name": "",
          "type": "tuple[]"
        }
      ],
      "stateMutability": "view",
      "type": "function"
    },
    {
      "inputs": [
        {
          "internalType": "address",
          "name": "_registry",
          "type": "address"
        }
      ],
      "name": "initialize",
      "outputs": [],
      "stateMutability": "nonpayable",
      "type": "function"
    },
    {
      "inputs": [
        {
          "internalType": "uint256",
          "name": "_id",
          "type": "uint256"
        }
      ],
      "name": "isContractExists",
      "outputs": [
        {
          "internalType": "bool",
          "name": "",
          "type": "bool"
        },
        {
          "internalType": "bool",
          "name": "",
          "type": "bool"
        }
      ],
      "stateMutability": "view",
      "type": "function"
    },
    {
      "inputs": [],
      "name": "lastMemberStatsId",
      "outputs": [
        {
          "internalType": "uint256",
          "name": "",
          "type": "uint256"
        }
      ],
      "stateMutability": "view",
      "type": "function"
    },
    {
      "inputs": [],
      "name": "memberStatsTable",
      "outputs": [
        {
          "internalType": "string",
          "name": "",
          "type": "string"
        }
      ],
      "stateMutability": "view",
      "type": "function"
    },
    {
      "inputs": [],
      "name": "memberStatsTableId",
      "outputs": [
        {
          "internalType": "uint256",
          "name": "",
          "type": "uint256"
        }
      ],
      "stateMutability": "view",
      "type": "function"
    },
    {
      "inputs": [],
      "name": "owner",
      "outputs": [
        {
          "internalType": "address",
          "name": "",
          "type": "address"
        }
      ],
      "stateMutability": "view",
      "type": "function"
    },
    {
      "inputs": [],
      "name": "proxiableUUID",
      "outputs": [
        {
          "internalType": "bytes32",
          "name": "",
          "type": "bytes32"
        }
      ],
      "stateMutability": "view",
      "type": "function"
    },
    {
      "inputs": [],
      "name": "renounceOwnership",
      "outputs": [],
      "stateMutability": "nonpayable",
      "type": "function"
    },
    {
      "inputs": [
        {
          "internalType": "address",
          "name": "newOwner",
          "type": "address"
        }
      ],
      "name": "transferOwnership",
      "outputs": [],
      "stateMutability": "nonpayable",
      "type": "function"
    },
    {
      "inputs": [
        {
          "internalType": "uint256",
          "name": "_id",
          "type": "uint256"
        },
        {
          "internalType": "string",
          "name": "_name",
          "type": "string"
        },
        {
          "internalType": "string",
          "name": "_logo",
          "type": "string"
        },
        {
          "internalType": "enum MainContract.CommunityPrivacy",
          "name": "_privacy",
          "type": "uint8"
        },
        {
          "internalType": "string",
          "name": "_description",
          "type": "string"
        }
      ],
      "name": "updateCommunity",
      "outputs": [],
      "stateMutability": "nonpayable",
      "type": "function"
    },
    {
      "inputs": [
        {
          "internalType": "uint256",
          "name": "_id",
          "type": "uint256"
        },
        {
          "internalType": "address",
          "name": "_ftContract",
          "type": "address"
        }
      ],
      "name": "updateCommunityFT",
      "outputs": [],
      "stateMutability": "nonpayable",
      "type": "function"
    },
    {
      "inputs": [
        {
          "internalType": "uint256",
          "name": "_id",
          "type": "uint256"
        },
        {
          "internalType": "address",
          "name": "_nftContract",
          "type": "address"
        }
      ],
      "name": "updateCommunityNFT",
      "outputs": [],
      "stateMutability": "nonpayable",
      "type": "function"
    },
    {
      "inputs": [
        {
          "internalType": "address",
          "name": "_factoryNFTContract",
          "type": "address"
        },
        {
          "internalType": "address",
          "name": "_factoryFTContract",
          "type": "address"
        }
      ],
      "name": "updateFactoryContractsAddress",
      "outputs": [],
      "stateMutability": "nonpayable",
      "type": "function"
    },
    {
      "inputs": [
        {
          "internalType": "address",
          "name": "newImplementation",
          "type": "address"
        }
      ],
      "name": "upgradeTo",
      "outputs": [],
      "stateMutability": "nonpayable",
      "type": "function"
    },
    {
      "inputs": [
        {
          "internalType": "address",
          "name": "newImplementation",
          "type": "address"
        },
        {
          "internalType": "bytes",
          "name": "data",
          "type": "bytes"
        }
      ],
      "name": "upgradeToAndCall",
      "outputs": [],
      "stateMutability": "payable",
      "type": "function"
    },
    {
      "inputs": [
        {
          "internalType": "address",
          "name": "",
          "type": "address"
        },
        {
          "internalType": "uint256",
          "name": "",
          "type": "uint256"
        }
      ],
      "name": "userCommunities",
      "outputs": [
        {
          "internalType": "uint256",
          "name": "",
          "type": "uint256"
        }
      ],
      "stateMutability": "view",
      "type": "function"
    }
  ],
  "bytecode": "0x60a0604052306080523480156200001557600080fd5b506200002062000026565b620000e8565b600054610100900460ff1615620000935760405162461bcd60e51b815260206004820152602760248201527f496e697469616c697a61626c653a20636f6e747261637420697320696e697469604482015266616c697a696e6760c81b606482015260840160405180910390fd5b60005460ff9081161015620000e6576000805460ff191660ff9081179091556040519081527f7f26b83ff96e1f2b6a682f133852f6798a09c465da95921460cefb38474024989060200160405180910390a15b565b608051612eea620001206000396000818161082e01528181610877015281816109d601528181610a160152610bf50152612eea6000f3fe6080604052600436106101405760003560e01c80638da5cb5b116100b6578063dd4460011161006f578063dd44600114610394578063e00f7865146103b4578063e590b56a146103d4578063e87d940b1461040a578063e8cc13c01461042a578063f2fde38b1461044a57600080fd5b80638da5cb5b146102a0578063aee84613146102c8578063af1af3dc146102de578063b18d33c2146102fe578063b64b7f7614610314578063c4d66de81461037457600080fd5b80634f25deec116101085780634f25deec1461020057806352d1902d146102205780636543286f14610235578063715018a6146102555780637576735d1461026a57806380c75be31461028057600080fd5b8063266682cb146101455780633659cfe61461017b5780633ae6dda91461019d5780633c44f002146101bf5780634f1ef286146101ed575b600080fd5b34801561015157600080fd5b5061016561016036600461229a565b61046a565b6040516101729190612347565b60405180910390f35b34801561018757600080fd5b5061019b610196366004612473565b610823565b005b3480156101a957600080fd5b506101b261090c565b604051610172919061248e565b3480156101cb57600080fd5b506101df6101da3660046124a1565b61099a565b604051908152602001610172565b61019b6101fb366004612557565b6109cb565b34801561020c57600080fd5b5061019b61021b3660046125d9565b610a9c565b34801561022c57600080fd5b506101df610be8565b34801561024157600080fd5b50610165610250366004612473565b610c9b565b34801561026157600080fd5b5061019b61100c565b34801561027657600080fd5b506101df60cd5481565b34801561028c57600080fd5b5061019b61029b366004612669565b611020565b3480156102ac57600080fd5b506033546040516001600160a01b039091168152602001610172565b3480156102d457600080fd5b506101df60cf5481565b3480156102ea57600080fd5b5061019b6102f93660046126ab565b611056565b34801561030a57600080fd5b506101df60cc5481565b34801561032057600080fd5b5061035d61032f36600461274e565b600090815260d06020526040902060028101546003909101546001600160a01b039182161515929116151590565b604080519215158352901515602083015201610172565b34801561038057600080fd5b5061019b61038f366004612473565b611181565b3480156103a057600080fd5b506101df6103af366004612767565b611315565b3480156103c057600080fd5b5061019b6103cf366004612783565b611331565b3480156103e057600080fd5b506103f46103ef36600461274e565b61138c565b6040516101729a999897969594939291906127a6565b34801561041657600080fd5b5061019b610425366004612783565b61158a565b34801561043657600080fd5b5061019b61044536600461283d565b6115e5565b34801561045657600080fd5b5061019b610465366004612473565b61186a565b6060600060d26000846014811115610484576104846122b5565b6014811115610495576104956122b5565b815260200190815260200160002080549050905060008167ffffffffffffffff8111156104c4576104c46124cb565b6040519080825280602002602001820160405280156104fd57816020015b6104ea612175565b8152602001906001900390816104e25790505b50905060005b8281101561081b5760d0600060d26000886014811115610525576105256122b5565b6014811115610536576105366122b5565b81526020019081526020016000208381548110610555576105556128a9565b9060005260206000200154815260200190815260200160002060405180610140016040529081600082015481526020016001820160009054906101000a900460ff1660148111156105a8576105a86122b5565b60148111156105b9576105b96122b5565b81526020016001820160019054906101000a900460ff1660018111156105e1576105e16122b5565b60018111156105f2576105f26122b5565b815260018201546001600160a01b036201000090910481166020830152600283015481166040830152600383015481166060830152600483015416608082015260058201805460a090920191610647906128bf565b80601f0160208091040260200160405190810160405280929190818152602001828054610673906128bf565b80156106c05780601f10610695576101008083540402835291602001916106c0565b820191906000526020600020905b8154815290600101906020018083116106a357829003601f168201915b505050505081526020016006820180546106d9906128bf565b80601f0160208091040260200160405190810160405280929190818152602001828054610705906128bf565b80156107525780601f1061072757610100808354040283529160200191610752565b820191906000526020600020905b81548152906001019060200180831161073557829003601f168201915b5050505050815260200160078201805461076b906128bf565b80601f0160208091040260200160405190810160405280929190818152602001828054610797906128bf565b80156107e45780601f106107b9576101008083540402835291602001916107e4565b820191906000526020600020905b8154815290600101906020018083116107c757829003601f168201915b5050505050815250508282815181106107ff576107ff6128a9565b60200260200101819052508061081490612910565b9050610503565b509392505050565b306001600160a01b037f00000000000000000000000000000000000000000000000000000000000000001614156108755760405162461bcd60e51b815260040161086c9061292b565b60405180910390fd5b7f00000000000000000000000000000000000000000000000000000000000000006001600160a01b03166108be600080516020612e6e833981519152546001600160a01b031690565b6001600160a01b0316146108e45760405162461bcd60e51b815260040161086c90612977565b6108ed816118e0565b60408051600080825260208201909252610909918391906118e8565b50565b60ce8054610919906128bf565b80601f0160208091040260200160405190810160405280929190818152602001828054610945906128bf565b80156109925780601f1061096757610100808354040283529160200191610992565b820191906000526020600020905b81548152906001019060200180831161097557829003601f168201915b505050505081565b60d260205281600052604060002081815481106109b657600080fd5b90600052602060002001600091509150505481565b306001600160a01b037f0000000000000000000000000000000000000000000000000000000000000000161415610a145760405162461bcd60e51b815260040161086c9061292b565b7f00000000000000000000000000000000000000000000000000000000000000006001600160a01b0316610a5d600080516020612e6e833981519152546001600160a01b031690565b6001600160a01b031614610a835760405162461bcd60e51b815260040161086c90612977565b610a8c826118e0565b610a98828260016118e8565b5050565b600084815260d06020526040902060028101546001600160a01b0316331480610ad1575060038101546001600160a01b031633145b610aed5760405162461bcd60e51b815260040161086c906129c3565b600160cc6000828254610b0091906129fa565b909155505060cb5460cd5460cc546001600160a01b039092169163eaf5d04e91309160ce90610b2e90611a58565b610b428d6001600160a01b03166014611b5e565b8c610b4c8d611a58565b8c610b568d611a58565b610b5f8d611a58565b610b6842611a58565b604051602001610b8099989796959493929190612a2e565b6040516020818303038152906040526040518463ffffffff1660e01b8152600401610bad93929190612c15565b600060405180830381600087803b158015610bc757600080fd5b505af1158015610bdb573d6000803e3d6000fd5b5050505050505050505050565b6000306001600160a01b037f00000000000000000000000000000000000000000000000000000000000000001614610c885760405162461bcd60e51b815260206004820152603860248201527f555550535570677261646561626c653a206d757374206e6f742062652063616c60448201527f6c6564207468726f7567682064656c656761746563616c6c0000000000000000606482015260840161086c565b50600080516020612e6e83398151915290565b6001600160a01b038116600090815260d160205260408120546060918167ffffffffffffffff811115610cd057610cd06124cb565b604051908082528060200260200182016040528015610d0957816020015b610cf6612175565b815260200190600190039081610cee5790505b50905060005b8281101561081b576001600160a01b038516600090815260d160205260408120805460d092919084908110610d4657610d466128a9565b9060005260206000200154815260200190815260200160002060405180610140016040529081600082015481526020016001820160009054906101000a900460ff166014811115610d9957610d996122b5565b6014811115610daa57610daa6122b5565b81526020016001820160019054906101000a900460ff166001811115610dd257610dd26122b5565b6001811115610de357610de36122b5565b815260018201546001600160a01b036201000090910481166020830152600283015481166040830152600383015481166060830152600483015416608082015260058201805460a090920191610e38906128bf565b80601f0160208091040260200160405190810160405280929190818152602001828054610e64906128bf565b8015610eb15780601f10610e8657610100808354040283529160200191610eb1565b820191906000526020600020905b815481529060010190602001808311610e9457829003601f168201915b50505050508152602001600682018054610eca906128bf565b80601f0160208091040260200160405190810160405280929190818152602001828054610ef6906128bf565b8015610f435780601f10610f1857610100808354040283529160200191610f43565b820191906000526020600020905b815481529060010190602001808311610f2657829003601f168201915b50505050508152602001600782018054610f5c906128bf565b80601f0160208091040260200160405190810160405280929190818152602001828054610f88906128bf565b8015610fd55780601f10610faa57610100808354040283529160200191610fd5565b820191906000526020600020905b815481529060010190602001808311610fb857829003601f168201915b505050505081525050828281518110610ff057610ff06128a9565b60200260200101819052508061100590612910565b9050610d0f565b611014611d01565b61101e6000611d5b565b565b611028611d01565b60c980546001600160a01b039384166001600160a01b03199182161790915560ca8054929093169116179055565b6003845110156110a35760405162461bcd60e51b815260206004820152601860248201527710dbdb5b5d5b9a5d1e481b985b59481d1bdbc81cda1bdc9d60421b604482015260640161086c565b600085815260d06020526040902060018101546201000090046001600160a01b0316331461110c5760405162461bcd60e51b81526020600482015260166024820152754e6f2061636365737320746f20636f6d6d756e69747960501b604482015260640161086c565b845161112190600583019060208801906121ed565b50835161113790600783019060208701906121ed565b50828160010160016101000a81548160ff0219169083600181111561115e5761115e6122b5565b0217905550815161117890600683019060208501906121ed565b50505050505050565b600054610100900460ff16158080156111a15750600054600160ff909116105b806111bb5750303b1580156111bb575060005460ff166001145b61121e5760405162461bcd60e51b815260206004820152602e60248201527f496e697469616c697a61626c653a20636f6e747261637420697320616c72656160448201526d191e481a5b9a5d1a585b1a5e995960921b606482015260840161086c565b6000805460ff191660011790558015611241576000805461ff0019166101001790555b611249611dad565b611251611ddc565b60cb80546001600160a01b0319166001600160a01b038416179055604080518082018252600c81526b6d656d6265725f737461747360a01b602080830191909152825160a08101909352607b8084526112b19391612df390830139611e03565b60cd81905581516112c99060ce9060208501906121ed565b5050508015610a98576000805461ff0019169055604051600181527f7f26b83ff96e1f2b6a682f133852f6798a09c465da95921460cefb38474024989060200160405180910390a15050565b60d160205281600052604060002081815481106109b657600080fd5b60c9546001600160a01b0316331461135b5760405162461bcd60e51b815260040161086c906129c3565b600091825260d0602052604090912060020180546001600160a01b0319166001600160a01b03909216919091179055565b60d060205260009081526040902080546001820154600283015460038401546004850154600586018054959660ff808716976101008804909116966001600160a01b03620100009091048116968116958116941692906113eb906128bf565b80601f0160208091040260200160405190810160405280929190818152602001828054611417906128bf565b80156114645780601f1061143957610100808354040283529160200191611464565b820191906000526020600020905b81548152906001019060200180831161144757829003601f168201915b505050505090806006018054611479906128bf565b80601f01602080910402602001604051908101604052809291908181526020018280546114a5906128bf565b80156114f25780601f106114c7576101008083540402835291602001916114f2565b820191906000526020600020905b8154815290600101906020018083116114d557829003601f168201915b505050505090806007018054611507906128bf565b80601f0160208091040260200160405190810160405280929190818152602001828054611533906128bf565b80156115805780601f1061155557610100808354040283529160200191611580565b820191906000526020600020905b81548152906001019060200180831161156357829003601f168201915b505050505090508a565b60ca546001600160a01b031633146115b45760405162461bcd60e51b815260040161086c906129c3565b600091825260d0602052604090912060030180546001600160a01b0319166001600160a01b03909216919091179055565b60038551116116315760405162461bcd60e51b815260206004820152601860248201527710dbdb5b5d5b9a5d1e481b985b59481d1bdbc81cda1bdc9d60421b604482015260640161086c565b600160cf600082825461164491906129fa565b909155505060cf5460408051610140810190915281815260208101856014811115611671576116716122b5565b8152602001846001811115611688576116886122b5565b81523360208083019190915260006040808401829052606084018290526080840182905260a084018b905260c0840187905260e090930189905284815260d0825291909120825181559082015160018083018054909160ff19909116908360148111156116f7576116f76122b5565b021790555060408201518160010160016101000a81548160ff02191690836001811115611726576117266122b5565b021790555060608201516001820180546001600160a01b03928316620100000262010000600160b01b031990911617905560808301516002830180549183166001600160a01b031992831617905560a084015160038401805491841691831691909117905560c084015160048401805491909316911617905560e082015180516117ba9160058401916020909101906121ed565b5061010082015180516117d79160068401916020909101906121ed565b5061012082015180516117f49160078401916020909101906121ed565b505033600090815260d160209081526040822080546001810182559083529082200183905560d2915085601481111561182f5761182f6122b5565b6014811115611840576118406122b5565b81526020808201929092526040016000908120805460018101825590825291902001555050505050565b611872611d01565b6001600160a01b0381166118d75760405162461bcd60e51b815260206004820152602660248201527f4f776e61626c653a206e6577206f776e657220697320746865207a65726f206160448201526564647265737360d01b606482015260840161086c565b61090981611d5b565b610909611d01565b7f4910fdfa16fed3260ed0e7147f7cc6da11a60208b5b9406d12a635614ffd91435460ff16156119205761191b83611f11565b505050565b826001600160a01b03166352d1902d6040518163ffffffff1660e01b8152600401602060405180830381865afa92505050801561197a575060408051601f3d908101601f1916820190925261197791810190612c3c565b60015b6119dd5760405162461bcd60e51b815260206004820152602e60248201527f45524331393637557067726164653a206e657720696d706c656d656e7461746960448201526d6f6e206973206e6f74205555505360901b606482015260840161086c565b600080516020612e6e8339815191528114611a4c5760405162461bcd60e51b815260206004820152602960248201527f45524331393637557067726164653a20756e737570706f727465642070726f786044820152681a58589b195555525160ba1b606482015260840161086c565b5061191b838383611fad565b606081611a7c5750506040805180820190915260018152600360fc1b602082015290565b8160005b8115611aa65780611a9081612910565b9150611a9f9050600a83612c6b565b9150611a80565b60008167ffffffffffffffff811115611ac157611ac16124cb565b6040519080825280601f01601f191660200182016040528015611aeb576020820181803683370190505b5090505b8415611b5657611b00600183612c7f565b9150611b0d600a86612c96565b611b189060306129fa565b60f81b818381518110611b2d57611b2d6128a9565b60200101906001600160f81b031916908160001a905350611b4f600a86612c6b565b9450611aef565b949350505050565b60606000611b6d836002612caa565b611b789060026129fa565b67ffffffffffffffff811115611b9057611b906124cb565b6040519080825280601f01601f191660200182016040528015611bba576020820181803683370190505b509050600360fc1b81600081518110611bd557611bd56128a9565b60200101906001600160f81b031916908160001a905350600f60fb1b81600181518110611c0457611c046128a9565b60200101906001600160f81b031916908160001a9053506000611c28846002612caa565b611c339060016129fa565b90505b6001811115611cab576f181899199a1a9b1b9c1cb0b131b232b360811b85600f1660108110611c6757611c676128a9565b1a60f81b828281518110611c7d57611c7d6128a9565b60200101906001600160f81b031916908160001a90535060049490941c93611ca481612cc9565b9050611c36565b508315611cfa5760405162461bcd60e51b815260206004820181905260248201527f537472696e67733a20686578206c656e67746820696e73756666696369656e74604482015260640161086c565b9392505050565b6033546001600160a01b0316331461101e5760405162461bcd60e51b815260206004820181905260248201527f4f776e61626c653a2063616c6c6572206973206e6f7420746865206f776e6572604482015260640161086c565b603380546001600160a01b038381166001600160a01b0319831681179093556040519116919082907f8be0079c531659141344cd1fd0a4f28419497f9722a3daafe3b4186f6b6457e090600090a35050565b600054610100900460ff16611dd45760405162461bcd60e51b815260040161086c90612ce0565b61101e611fd8565b600054610100900460ff1661101e5760405162461bcd60e51b815260040161086c90612ce0565b60606000611e0f611d01565b600084611e1b46611a58565b604051602001611e2c929190612d2b565b60408051601f198184030181529082905260cb549092506000916001600160a01b0390911690633a9151b0903090611e6a9086908a90602001612d67565b6040516020818303038152906040526040518363ffffffff1660e01b8152600401611e96929190612db2565b6020604051808303816000875af1158015611eb5573d6000803e3d6000fd5b505050506040513d601f19601f82011682018060405250810190611ed99190612c3c565b905081611ee582611a58565b604051602001611ef6929190612d2b565b60408051808303601f19018152919052969095509350505050565b6001600160a01b0381163b611f7e5760405162461bcd60e51b815260206004820152602d60248201527f455243313936373a206e657720696d706c656d656e746174696f6e206973206e60448201526c1bdd08184818dbdb9d1c9858dd609a1b606482015260840161086c565b600080516020612e6e83398151915280546001600160a01b0319166001600160a01b0392909216919091179055565b611fb683612008565b600082511180611fc35750805b1561191b57611fd28383612048565b50505050565b600054610100900460ff16611fff5760405162461bcd60e51b815260040161086c90612ce0565b61101e33611d5b565b61201181611f11565b6040516001600160a01b038216907fbc7cd75a20ee27fd9adebab32041f755214dbc6bffa90cc0225b39da2e5c2d3b90600090a250565b60606001600160a01b0383163b6120b05760405162461bcd60e51b815260206004820152602660248201527f416464726573733a2064656c65676174652063616c6c20746f206e6f6e2d636f6044820152651b9d1c9858dd60d21b606482015260840161086c565b600080846001600160a01b0316846040516120cb9190612dd6565b600060405180830381855af49150503d8060008114612106576040519150601f19603f3d011682016040523d82523d6000602084013e61210b565b606091505b50915091506121338282604051806060016040528060278152602001612e8e6027913961213c565b95945050505050565b6060831561214b575081611cfa565b82511561215b5782518084602001fd5b8160405162461bcd60e51b815260040161086c919061248e565b6040805161014081019091526000808252602082019081526020016000815260200160006001600160a01b0316815260200160006001600160a01b0316815260200160006001600160a01b0316815260200160006001600160a01b031681526020016060815260200160608152602001606081525090565b8280546121f9906128bf565b90600052602060002090601f01602090048101928261221b5760008555612261565b82601f1061223457805160ff1916838001178555612261565b82800160010185558215612261579182015b82811115612261578251825591602001919060010190612246565b5061226d929150612271565b5090565b5b8082111561226d5760008155600101612272565b80356015811061229557600080fd5b919050565b6000602082840312156122ac57600080fd5b611cfa82612286565b634e487b7160e01b600052602160045260246000fd5b601581106122db576122db6122b5565b9052565b600281106122db576122db6122b5565b60005b8381101561230a5781810151838201526020016122f2565b83811115611fd25750506000910152565b600081518084526123338160208601602086016122ef565b601f01601f19169290920160200192915050565b60006020808301818452808551808352604092508286019150828160051b87010184880160005b8381101561244e57603f19898403018552815161014081518552888201516123988a8701826122cb565b50878201516123a9898701826122df565b506060828101516001600160a01b039081169187019190915260808084015182169087015260a08084015182169087015260c0808401519091169086015260e0808301518187018390526123ff8388018261231b565b92505050610100808301518683038288015261241b838261231b565b92505050610120808301519250858203818701525061243a818361231b565b96890196945050509086019060010161236e565b509098975050505050505050565b80356001600160a01b038116811461229557600080fd5b60006020828403121561248557600080fd5b611cfa8261245c565b602081526000611cfa602083018461231b565b600080604083850312156124b457600080fd5b6124bd83612286565b946020939093013593505050565b634e487b7160e01b600052604160045260246000fd5b600067ffffffffffffffff808411156124fc576124fc6124cb565b604051601f8501601f19908116603f01168101908282118183101715612524576125246124cb565b8160405280935085815286868601111561253d57600080fd5b858560208301376000602087830101525050509392505050565b6000806040838503121561256a57600080fd5b6125738361245c565b9150602083013567ffffffffffffffff81111561258f57600080fd5b8301601f810185136125a057600080fd5b6125af858235602084016124e1565b9150509250929050565b600082601f8301126125ca57600080fd5b611cfa838335602085016124e1565b60008060008060008060c087890312156125f257600080fd5b6125fb8761245c565b9550602087013567ffffffffffffffff8082111561261857600080fd5b6126248a838b016125b9565b965060408901359550606089013591508082111561264157600080fd5b5061264e89828a016125b9565b9350506080870135915060a087013590509295509295509295565b6000806040838503121561267c57600080fd5b6126858361245c565b91506126936020840161245c565b90509250929050565b80356002811061229557600080fd5b600080600080600060a086880312156126c357600080fd5b85359450602086013567ffffffffffffffff808211156126e257600080fd5b6126ee89838a016125b9565b9550604088013591508082111561270457600080fd5b61271089838a016125b9565b945061271e6060890161269c565b9350608088013591508082111561273457600080fd5b50612741888289016125b9565b9150509295509295909350565b60006020828403121561276057600080fd5b5035919050565b6000806040838503121561277a57600080fd5b6124bd8361245c565b6000806040838503121561279657600080fd5b823591506126936020840161245c565b60006101408c83526127bb602084018d6122cb565b6127c8604084018c6122df565b6001600160a01b038a81166060850152898116608085015288811660a0850152871660c084015260e083018190526128028184018761231b565b9050828103610100840152612817818661231b565b905082810361012084015261282c818561231b565b9d9c50505050505050505050505050565b600080600080600060a0868803121561285557600080fd5b853567ffffffffffffffff8082111561286d57600080fd5b61287989838a016125b9565b9650602088013591508082111561288f57600080fd5b61289b89838a016125b9565b955061271060408901612286565b634e487b7160e01b600052603260045260246000fd5b600181811c908216806128d357607f821691505b602082108114156128f457634e487b7160e01b600052602260045260246000fd5b50919050565b634e487b7160e01b600052601160045260246000fd5b6000600019821415612924576129246128fa565b5060010190565b6020808252602c908201527f46756e6374696f6e206d7573742062652063616c6c6564207468726f7567682060408201526b19195b1959d85d1958d85b1b60a21b606082015260800190565b6020808252602c908201527f46756e6374696f6e206d7573742062652063616c6c6564207468726f7567682060408201526b6163746976652070726f787960a01b606082015260800190565b60208082526019908201527f4e6f2041636365737320666f72207468697320616374696f6e00000000000000604082015260600190565b60008219821115612a0d57612a0d6128fa565b500190565b60008151612a248185602086016122ef565b9290920192915050565b6b024a729a2a92a1024a72a27960a51b81526000808b54818160011c905060018216612a5857607f165b60208110600183161415612a7a57634e487b7160e01b83526022600452602483fd5b600182168015612a915760018114612aa857612ade565b60ff198316600c870152600c828701019350612ade565b60008f81526020902060005b83811015612ad3578154888201600c0152600190910190602001612ab4565b5050600c8287010193505b50507f202869642c2077616c6c65742c20656d61696c2c20636f6d6d756e6974795f698252507f642c2063616d705f747970652c2063616d705f69642c20706169642c206372656020820152700c2e8cac8bec2e85240ac8298aa8aa6405607b1b6040820152612b51605182018c612a12565b622c202760e81b81529050612b69600382018b612a12565b63272c202760e01b81529050612b82600482018a612a12565b6201396160ed1b81529050612b9a6003820189612a12565b622c202760e81b81529050612bb26003820188612a12565b6201396160ed1b81529050612bca6003820187612a12565b622c202760e81b81529050612be26003820186612a12565b6201396160ed1b81529050612bfa6003820185612a12565b61293b60f01b81526002019c9b505050505050505050505050565b60018060a01b0384168152826020820152606060408201526000612133606083018461231b565b600060208284031215612c4e57600080fd5b5051919050565b634e487b7160e01b600052601260045260246000fd5b600082612c7a57612c7a612c55565b500490565b600082821015612c9157612c916128fa565b500390565b600082612ca557612ca5612c55565b500690565b6000816000190483118215151615612cc457612cc46128fa565b500290565b600081612cd857612cd86128fa565b506000190190565b6020808252602b908201527f496e697469616c697a61626c653a20636f6e7472616374206973206e6f74206960408201526a6e697469616c697a696e6760a81b606082015260800190565b60008351612d3d8184602088016122ef565b605f60f81b9083019081528351612d5b8160018401602088016122ef565b01600101949350505050565b6c021a922a0aa22902a20a126229609d1b815260008351612d8f81600d8501602088016122ef565b835190830190612da681600d8401602088016122ef565b01600d01949350505050565b6001600160a01b0383168152604060208201819052600090611b569083018461231b565b60008251612de88184602087016122ef565b919091019291505056fe2028696420696e74207072696d617279206b65792c2077616c6c657420746578742c20656d61696c20746578742c20636f6d6d756e6974795f696420696e742c2063616d705f7479706520746578742c2063616d705f696420696e742c207061696420737472696e672c20637265617465645f617420696e74293b360894a13ba1a3210667c828492db98dca3e2076cc3735a920a3ca505d382bbc416464726573733a206c6f772d6c6576656c2064656c65676174652063616c6c206661696c6564a2646970667358221220e10aa6f9af6a8f9739671c75ca97662cd6821ea51032c45041143d1a3782d7ff64736f6c634300080c0033",
  "linkReferences": {},
  "deployedLinkReferences": {}
}