{
  "_format": "hh-sol-artifact-1",
  "contractName": "MainContract",
  "sourceName": "src/backend/contracts/MainContract.sol",
  "abi": [
    {
      "inputs": [],
      "stateMutability": "nonpayable",
      "type": "constructor"
    },
    {
      "anonymous": false,
      "inputs": [
        {
          "indexed": false,
          "internalType": "address",
          "name": "previousAdmin",
          "type": "address"
        },
        {
          "indexed": false,
          "internalType": "address",
          "name": "newAdmin",
          "type": "address"
        }
      ],
      "name": "AdminChanged",
      "type": "event"
    },
    {
      "anonymous": false,
      "inputs": [
        {
          "indexed": true,
          "internalType": "address",
          "name": "beacon",
          "type": "address"
        }
      ],
      "name": "BeaconUpgraded",
      "type": "event"
    },
    {
      "anonymous": false,
      "inputs": [
        {
          "indexed": false,
          "internalType": "uint8",
          "name": "version",
          "type": "uint8"
        }
      ],
      "name": "Initialized",
      "type": "event"
    },
    {
      "anonymous": false,
      "inputs": [
        {
          "indexed": true,
          "internalType": "address",
          "name": "previousOwner",
          "type": "address"
        },
        {
          "indexed": true,
          "internalType": "address",
          "name": "newOwner",
          "type": "address"
        }
      ],
      "name": "OwnershipTransferred",
      "type": "event"
    },
    {
      "anonymous": false,
      "inputs": [
        {
          "indexed": true,
          "internalType": "address",
          "name": "implementation",
          "type": "address"
        }
      ],
      "name": "Upgraded",
      "type": "event"
    },
    {
      "inputs": [
        {
          "internalType": "address",
          "name": "_member",
          "type": "address"
        },
        {
          "internalType": "string",
          "name": "_email",
          "type": "string"
        },
        {
          "internalType": "uint256",
          "name": "_communityId",
          "type": "uint256"
        },
        {
          "internalType": "string",
          "name": "_campType",
          "type": "string"
        },
        {
          "internalType": "uint256",
          "name": "_campId",
          "type": "uint256"
        },
        {
          "internalType": "uint256",
          "name": "_paid",
          "type": "uint256"
        }
      ],
      "name": "addMemberStats",
      "outputs": [],
      "stateMutability": "nonpayable",
      "type": "function"
    },
    {
      "inputs": [
        {
          "internalType": "enum MainContract.CommunityCategory",
          "name": "",
          "type": "uint8"
        },
        {
          "internalType": "uint256",
          "name": "",
          "type": "uint256"
        }
      ],
      "name": "categoryCommunities",
      "outputs": [
        {
          "internalType": "uint256",
          "name": "",
          "type": "uint256"
        }
      ],
      "stateMutability": "view",
      "type": "function"
    },
    {
      "inputs": [
        {
          "internalType": "uint256",
          "name": "",
          "type": "uint256"
        }
      ],
      "name": "communities",
      "outputs": [
        {
          "internalType": "uint256",
          "name": "id",
          "type": "uint256"
        },
        {
          "internalType": "enum MainContract.CommunityCategory",
          "name": "category",
          "type": "uint8"
        },
        {
          "internalType": "enum MainContract.CommunityPrivacy",
          "name": "privacy",
          "type": "uint8"
        },
        {
          "internalType": "address",
          "name": "owner",
          "type": "address"
        },
        {
          "internalType": "address",
          "name": "nftContract",
          "type": "address"
        },
        {
          "internalType": "address",
          "name": "ftContract",
          "type": "address"
        },
        {
          "internalType": "address",
          "name": "membersContract",
          "type": "address"
        },
        {
          "internalType": "string",
          "name": "name",
          "type": "string"
        },
        {
          "internalType": "string",
          "name": "description",
          "type": "string"
        },
        {
          "internalType": "string",
          "name": "logo",
          "type": "string"
        }
      ],
      "stateMutability": "view",
      "type": "function"
    },
    {
      "inputs": [],
      "name": "communityCount",
      "outputs": [
        {
          "internalType": "uint256",
          "name": "",
          "type": "uint256"
        }
      ],
      "stateMutability": "view",
      "type": "function"
    },
    {
      "inputs": [
        {
          "internalType": "string",
          "name": "_name",
          "type": "string"
        },
        {
          "internalType": "string",
          "name": "_logo",
          "type": "string"
        },
        {
          "internalType": "enum MainContract.CommunityCategory",
          "name": "_category",
          "type": "uint8"
        },
        {
          "internalType": "enum MainContract.CommunityPrivacy",
          "name": "_privacy",
          "type": "uint8"
        },
        {
          "internalType": "string",
          "name": "_description",
          "type": "string"
        }
      ],
      "name": "createCommunity",
      "outputs": [],
      "stateMutability": "nonpayable",
      "type": "function"
    },
    {
      "inputs": [
        {
          "internalType": "enum MainContract.CommunityCategory",
          "name": "_categoryId",
          "type": "uint8"
        }
      ],
      "name": "getCategoryCommunities",
      "outputs": [
        {
          "components": [
            {
              "internalType": "uint256",
              "name": "id",
              "type": "uint256"
            },
            {
              "internalType": "enum MainContract.CommunityCategory",
              "name": "category",
              "type": "uint8"
            },
            {
              "internalType": "enum MainContract.CommunityPrivacy",
              "name": "privacy",
              "type": "uint8"
            },
            {
              "internalType": "address",
              "name": "owner",
              "type": "address"
            },
            {
              "internalType": "address",
              "name": "nftContract",
              "type": "address"
            },
            {
              "internalType": "address",
              "name": "ftContract",
              "type": "address"
            },
            {
              "internalType": "address",
              "name": "membersContract",
              "type": "address"
            },
            {
              "internalType": "string",
              "name": "name",
              "type": "string"
            },
            {
              "internalType": "string",
              "name": "description",
              "type": "string"
            },
            {
              "internalType": "string",
              "name": "logo",
              "type": "string"
            }
          ],
          "internalType": "struct MainContract.Community[]",
          "name": "",
          "type": "tuple[]"
        }
      ],
      "stateMutability": "view",
      "type": "function"
    },
    {
      "inputs": [
        {
          "internalType": "address",
          "name": "_owner",
          "type": "address"
        }
      ],
      "name": "getUserCommunities",
      "outputs": [
        {
          "components": [
            {
              "internalType": "uint256",
              "name": "id",
              "type": "uint256"
            },
            {
              "internalType": "enum MainContract.CommunityCategory",
              "name": "category",
              "type": "uint8"
            },
            {
              "internalType": "enum MainContract.CommunityPrivacy",
              "name": "privacy",
              "type": "uint8"
            },
            {
              "internalType": "address",
              "name": "owner",
              "type": "address"
            },
            {
              "internalType": "address",
              "name": "nftContract",
              "type": "address"
            },
            {
              "internalType": "address",
              "name": "ftContract",
              "type": "address"
            },
            {
              "internalType": "address",
              "name": "membersContract",
              "type": "address"
            },
            {
              "internalType": "string",
              "name": "name",
              "type": "string"
            },
            {
              "internalType": "string",
              "name": "description",
              "type": "string"
            },
            {
              "internalType": "string",
              "name": "logo",
              "type": "string"
            }
          ],
          "internalType": "struct MainContract.Community[]",
          "name": "",
          "type": "tuple[]"
        }
      ],
      "stateMutability": "view",
      "type": "function"
    },
    {
      "inputs": [
        {
          "internalType": "address",
          "name": "_registry",
          "type": "address"
        }
      ],
      "name": "initialize",
      "outputs": [],
      "stateMutability": "nonpayable",
      "type": "function"
    },
    {
      "inputs": [
        {
          "internalType": "uint256",
          "name": "_id",
          "type": "uint256"
        }
      ],
      "name": "isContractExists",
      "outputs": [
        {
          "internalType": "bool",
          "name": "",
          "type": "bool"
        },
        {
          "internalType": "bool",
          "name": "",
          "type": "bool"
        }
      ],
      "stateMutability": "view",
      "type": "function"
    },
    {
      "inputs": [],
      "name": "lastMemberStatsId",
      "outputs": [
        {
          "internalType": "uint256",
          "name": "",
          "type": "uint256"
        }
      ],
      "stateMutability": "view",
      "type": "function"
    },
    {
      "inputs": [],
      "name": "memberStatsTable",
      "outputs": [
        {
          "internalType": "string",
          "name": "",
          "type": "string"
        }
      ],
      "stateMutability": "view",
      "type": "function"
    },
    {
      "inputs": [],
      "name": "memberStatsTableId",
      "outputs": [
        {
          "internalType": "uint256",
          "name": "",
          "type": "uint256"
        }
      ],
      "stateMutability": "view",
      "type": "function"
    },
    {
      "inputs": [],
      "name": "owner",
      "outputs": [
        {
          "internalType": "address",
          "name": "",
          "type": "address"
        }
      ],
      "stateMutability": "view",
      "type": "function"
    },
    {
      "inputs": [],
      "name": "proxiableUUID",
      "outputs": [
        {
          "internalType": "bytes32",
          "name": "",
          "type": "bytes32"
        }
      ],
      "stateMutability": "view",
      "type": "function"
    },
    {
      "inputs": [],
      "name": "renounceOwnership",
      "outputs": [],
      "stateMutability": "nonpayable",
      "type": "function"
    },
    {
      "inputs": [
        {
          "internalType": "address",
          "name": "newOwner",
          "type": "address"
        }
      ],
      "name": "transferOwnership",
      "outputs": [],
      "stateMutability": "nonpayable",
      "type": "function"
    },
    {
      "inputs": [
        {
          "internalType": "uint256",
          "name": "_id",
          "type": "uint256"
        },
        {
          "internalType": "string",
          "name": "_name",
          "type": "string"
        },
        {
          "internalType": "string",
          "name": "_logo",
          "type": "string"
        },
        {
          "internalType": "enum MainContract.CommunityPrivacy",
          "name": "_privacy",
          "type": "uint8"
        },
        {
          "internalType": "string",
          "name": "_description",
          "type": "string"
        }
      ],
      "name": "updateCommunity",
      "outputs": [],
      "stateMutability": "nonpayable",
      "type": "function"
    },
    {
      "inputs": [
        {
          "internalType": "uint256",
          "name": "_id",
          "type": "uint256"
        },
        {
          "internalType": "address",
          "name": "_ftContract",
          "type": "address"
        }
      ],
      "name": "updateCommunityFT",
      "outputs": [],
      "stateMutability": "nonpayable",
      "type": "function"
    },
    {
      "inputs": [
        {
          "internalType": "uint256",
          "name": "_id",
          "type": "uint256"
        },
        {
          "internalType": "address",
          "name": "_nftContract",
          "type": "address"
        }
      ],
      "name": "updateCommunityNFT",
      "outputs": [],
      "stateMutability": "nonpayable",
      "type": "function"
    },
    {
      "inputs": [
        {
          "internalType": "address",
          "name": "_factoryNFTContract",
          "type": "address"
        },
        {
          "internalType": "address",
          "name": "_factoryFTContract",
          "type": "address"
        }
      ],
      "name": "updateFactoryContractsAddress",
      "outputs": [],
      "stateMutability": "nonpayable",
      "type": "function"
    },
    {
      "inputs": [
        {
          "internalType": "address",
          "name": "newImplementation",
          "type": "address"
        }
      ],
      "name": "upgradeTo",
      "outputs": [],
      "stateMutability": "nonpayable",
      "type": "function"
    },
    {
      "inputs": [
        {
          "internalType": "address",
          "name": "newImplementation",
          "type": "address"
        },
        {
          "internalType": "bytes",
          "name": "data",
          "type": "bytes"
        }
      ],
      "name": "upgradeToAndCall",
      "outputs": [],
      "stateMutability": "payable",
      "type": "function"
    },
    {
      "inputs": [
        {
          "internalType": "address",
          "name": "",
          "type": "address"
        },
        {
          "internalType": "uint256",
          "name": "",
          "type": "uint256"
        }
      ],
      "name": "userCommunities",
      "outputs": [
        {
          "internalType": "uint256",
          "name": "",
          "type": "uint256"
        }
      ],
      "stateMutability": "view",
      "type": "function"
    }
  ],
  "bytecode": "0x60a0604052306080523480156200001557600080fd5b506200002062000026565b620000e8565b600054610100900460ff1615620000935760405162461bcd60e51b815260206004820152602760248201527f496e697469616c697a61626c653a20636f6e747261637420697320696e697469604482015266616c697a696e6760c81b606482015260840160405180910390fd5b60005460ff9081161015620000e6576000805460ff191660ff9081179091556040519081527f7f26b83ff96e1f2b6a682f133852f6798a09c465da95921460cefb38474024989060200160405180910390a15b565b608051612eca620001206000396000818161082e01528181610877015281816109d601528181610a160152610bf50152612eca6000f3fe6080604052600436106101405760003560e01c80638da5cb5b116100b6578063dd4460011161006f578063dd44600114610394578063e00f7865146103b4578063e590b56a146103d4578063e87d940b1461040a578063e8cc13c01461042a578063f2fde38b1461044a57600080fd5b80638da5cb5b146102a0578063aee84613146102c8578063af1af3dc146102de578063b18d33c2146102fe578063b64b7f7614610314578063c4d66de81461037457600080fd5b80634f25deec116101085780634f25deec1461020057806352d1902d146102205780636543286f14610235578063715018a6146102555780637576735d1461026a57806380c75be31461028057600080fd5b8063266682cb146101455780633659cfe61461017b5780633ae6dda91461019d5780633c44f002146101bf5780634f1ef286146101ed575b600080fd5b34801561015157600080fd5b50610165610160366004612234565b61046a565b60405161017291906122e1565b60405180910390f35b34801561018757600080fd5b5061019b61019636600461240d565b610823565b005b3480156101a957600080fd5b506101b261090c565b6040516101729190612428565b3480156101cb57600080fd5b506101df6101da36600461243b565b61099a565b604051908152602001610172565b61019b6101fb3660046124f1565b6109cb565b34801561020c57600080fd5b5061019b61021b366004612573565b610a9c565b34801561022c57600080fd5b506101df610be8565b34801561024157600080fd5b5061016561025036600461240d565b610c9b565b34801561026157600080fd5b5061019b61100c565b34801561027657600080fd5b506101df60cd5481565b34801561028c57600080fd5b5061019b61029b366004612603565b611020565b3480156102ac57600080fd5b506033546040516001600160a01b039091168152602001610172565b3480156102d457600080fd5b506101df60cf5481565b3480156102ea57600080fd5b5061019b6102f9366004612645565b611056565b34801561030a57600080fd5b506101df60cc5481565b34801561032057600080fd5b5061035d61032f3660046126e8565b600090815260d06020526040902060028101546003909101546001600160a01b039182161515929116151590565b604080519215158352901515602083015201610172565b34801561038057600080fd5b5061019b61038f36600461240d565b611181565b3480156103a057600080fd5b506101df6103af366004612701565b6113bd565b3480156103c057600080fd5b5061019b6103cf36600461271d565b6113d9565b3480156103e057600080fd5b506103f46103ef3660046126e8565b611434565b6040516101729a99989796959493929190612740565b34801561041657600080fd5b5061019b61042536600461271d565b611632565b34801561043657600080fd5b5061019b6104453660046127d7565b61168d565b34801561045657600080fd5b5061019b61046536600461240d565b611912565b6060600060d260008460148111156104845761048461224f565b60148111156104955761049561224f565b815260200190815260200160002080549050905060008167ffffffffffffffff8111156104c4576104c4612465565b6040519080825280602002602001820160405280156104fd57816020015b6104ea61210f565b8152602001906001900390816104e25790505b50905060005b8281101561081b5760d0600060d260008860148111156105255761052561224f565b60148111156105365761053661224f565b8152602001908152602001600020838154811061055557610555612843565b9060005260206000200154815260200190815260200160002060405180610140016040529081600082015481526020016001820160009054906101000a900460ff1660148111156105a8576105a861224f565b60148111156105b9576105b961224f565b81526020016001820160019054906101000a900460ff1660018111156105e1576105e161224f565b60018111156105f2576105f261224f565b815260018201546001600160a01b036201000090910481166020830152600283015481166040830152600383015481166060830152600483015416608082015260058201805460a09092019161064790612859565b80601f016020809104026020016040519081016040528092919081815260200182805461067390612859565b80156106c05780601f10610695576101008083540402835291602001916106c0565b820191906000526020600020905b8154815290600101906020018083116106a357829003601f168201915b505050505081526020016006820180546106d990612859565b80601f016020809104026020016040519081016040528092919081815260200182805461070590612859565b80156107525780601f1061072757610100808354040283529160200191610752565b820191906000526020600020905b81548152906001019060200180831161073557829003601f168201915b5050505050815260200160078201805461076b90612859565b80601f016020809104026020016040519081016040528092919081815260200182805461079790612859565b80156107e45780601f106107b9576101008083540402835291602001916107e4565b820191906000526020600020905b8154815290600101906020018083116107c757829003601f168201915b5050505050815250508282815181106107ff576107ff612843565b602002602001018190525080610814906128aa565b9050610503565b509392505050565b306001600160a01b037f00000000000000000000000000000000000000000000000000000000000000001614156108755760405162461bcd60e51b815260040161086c906128c5565b60405180910390fd5b7f00000000000000000000000000000000000000000000000000000000000000006001600160a01b03166108be600080516020612e4e833981519152546001600160a01b031690565b6001600160a01b0316146108e45760405162461bcd60e51b815260040161086c90612911565b6108ed81611988565b6040805160008082526020820190925261090991839190611990565b50565b60ce805461091990612859565b80601f016020809104026020016040519081016040528092919081815260200182805461094590612859565b80156109925780601f1061096757610100808354040283529160200191610992565b820191906000526020600020905b81548152906001019060200180831161097557829003601f168201915b505050505081565b60d260205281600052604060002081815481106109b657600080fd5b90600052602060002001600091509150505481565b306001600160a01b037f0000000000000000000000000000000000000000000000000000000000000000161415610a145760405162461bcd60e51b815260040161086c906128c5565b7f00000000000000000000000000000000000000000000000000000000000000006001600160a01b0316610a5d600080516020612e4e833981519152546001600160a01b031690565b6001600160a01b031614610a835760405162461bcd60e51b815260040161086c90612911565b610a8c82611988565b610a9882826001611990565b5050565b600084815260d06020526040902060028101546001600160a01b0316331480610ad1575060038101546001600160a01b031633145b610aed5760405162461bcd60e51b815260040161086c9061295d565b600160cc6000828254610b009190612994565b909155505060cb5460cd5460cc546001600160a01b039092169163eaf5d04e91309160ce90610b2e90611b00565b610b428d6001600160a01b03166014611c06565b8c610b4c8d611b00565b8c610b568d611b00565b610b5f8d611b00565b610b6842611b00565b604051602001610b80999897969594939291906129c8565b6040516020818303038152906040526040518463ffffffff1660e01b8152600401610bad93929190612baf565b600060405180830381600087803b158015610bc757600080fd5b505af1158015610bdb573d6000803e3d6000fd5b5050505050505050505050565b6000306001600160a01b037f00000000000000000000000000000000000000000000000000000000000000001614610c885760405162461bcd60e51b815260206004820152603860248201527f555550535570677261646561626c653a206d757374206e6f742062652063616c60448201527f6c6564207468726f7567682064656c656761746563616c6c0000000000000000606482015260840161086c565b50600080516020612e4e83398151915290565b6001600160a01b038116600090815260d160205260408120546060918167ffffffffffffffff811115610cd057610cd0612465565b604051908082528060200260200182016040528015610d0957816020015b610cf661210f565b815260200190600190039081610cee5790505b50905060005b8281101561081b576001600160a01b038516600090815260d160205260408120805460d092919084908110610d4657610d46612843565b9060005260206000200154815260200190815260200160002060405180610140016040529081600082015481526020016001820160009054906101000a900460ff166014811115610d9957610d9961224f565b6014811115610daa57610daa61224f565b81526020016001820160019054906101000a900460ff166001811115610dd257610dd261224f565b6001811115610de357610de361224f565b815260018201546001600160a01b036201000090910481166020830152600283015481166040830152600383015481166060830152600483015416608082015260058201805460a090920191610e3890612859565b80601f0160208091040260200160405190810160405280929190818152602001828054610e6490612859565b8015610eb15780601f10610e8657610100808354040283529160200191610eb1565b820191906000526020600020905b815481529060010190602001808311610e9457829003601f168201915b50505050508152602001600682018054610eca90612859565b80601f0160208091040260200160405190810160405280929190818152602001828054610ef690612859565b8015610f435780601f10610f1857610100808354040283529160200191610f43565b820191906000526020600020905b815481529060010190602001808311610f2657829003601f168201915b50505050508152602001600782018054610f5c90612859565b80601f0160208091040260200160405190810160405280929190818152602001828054610f8890612859565b8015610fd55780601f10610faa57610100808354040283529160200191610fd5565b820191906000526020600020905b815481529060010190602001808311610fb857829003601f168201915b505050505081525050828281518110610ff057610ff0612843565b602002602001018190525080611005906128aa565b9050610d0f565b611014611da9565b61101e6000611e03565b565b611028611da9565b60c980546001600160a01b039384166001600160a01b03199182161790915560ca8054929093169116179055565b6003845110156110a35760405162461bcd60e51b815260206004820152601860248201527710dbdb5b5d5b9a5d1e481b985b59481d1bdbc81cda1bdc9d60421b604482015260640161086c565b600085815260d06020526040902060018101546201000090046001600160a01b0316331461110c5760405162461bcd60e51b81526020600482015260166024820152754e6f2061636365737320746f20636f6d6d756e69747960501b604482015260640161086c565b84516111219060058301906020880190612187565b5083516111379060078301906020870190612187565b50828160010160016101000a81548160ff0219169083600181111561115e5761115e61224f565b021790555081516111789060068301906020850190612187565b50505050505050565b600054610100900460ff16158080156111a15750600054600160ff909116105b806111bb5750303b1580156111bb575060005460ff166001145b61121e5760405162461bcd60e51b815260206004820152602e60248201527f496e697469616c697a61626c653a20636f6e747261637420697320616c72656160448201526d191e481a5b9a5d1a585b1a5e995960921b606482015260840161086c565b6000805460ff191660011790558015611241576000805461ff0019166101001790555b611249611e55565b611251611e84565b60cb80546001600160a01b0319166001600160a01b038416179055600061127746611b00565b6040516020016112879190612bd6565b60408051601f198184030181529082905260cb549092506001600160a01b031690633a9151b09030906112be908590602001612c14565b6040516020818303038152906040526040518363ffffffff1660e01b81526004016112ea929190612ce2565b6020604051808303816000875af1158015611309573d6000803e3d6000fd5b505050506040513d601f19601f8201168201806040525081019061132d9190612d06565b60cd819055819061133d90611b00565b60405160200161134e929190612d1f565b60405160208183030381529060405260ce9080519060200190611372929190612187565b50508015610a98576000805461ff0019169055604051600181527f7f26b83ff96e1f2b6a682f133852f6798a09c465da95921460cefb38474024989060200160405180910390a15050565b60d160205281600052604060002081815481106109b657600080fd5b60c9546001600160a01b031633146114035760405162461bcd60e51b815260040161086c9061295d565b600091825260d0602052604090912060020180546001600160a01b0319166001600160a01b03909216919091179055565b60d060205260009081526040902080546001820154600283015460038401546004850154600586018054959660ff808716976101008804909116966001600160a01b036201000090910481169681169581169416929061149390612859565b80601f01602080910402602001604051908101604052809291908181526020018280546114bf90612859565b801561150c5780601f106114e15761010080835404028352916020019161150c565b820191906000526020600020905b8154815290600101906020018083116114ef57829003601f168201915b50505050509080600601805461152190612859565b80601f016020809104026020016040519081016040528092919081815260200182805461154d90612859565b801561159a5780601f1061156f5761010080835404028352916020019161159a565b820191906000526020600020905b81548152906001019060200180831161157d57829003601f168201915b5050505050908060070180546115af90612859565b80601f01602080910402602001604051908101604052809291908181526020018280546115db90612859565b80156116285780601f106115fd57610100808354040283529160200191611628565b820191906000526020600020905b81548152906001019060200180831161160b57829003601f168201915b505050505090508a565b60ca546001600160a01b0316331461165c5760405162461bcd60e51b815260040161086c9061295d565b600091825260d0602052604090912060030180546001600160a01b0319166001600160a01b03909216919091179055565b60038551116116d95760405162461bcd60e51b815260206004820152601860248201527710dbdb5b5d5b9a5d1e481b985b59481d1bdbc81cda1bdc9d60421b604482015260640161086c565b600160cf60008282546116ec9190612994565b909155505060cf54604080516101408101909152818152602081018560148111156117195761171961224f565b81526020018460018111156117305761173061224f565b81523360208083019190915260006040808401829052606084018290526080840182905260a084018b905260c0840187905260e090930189905284815260d0825291909120825181559082015160018083018054909160ff199091169083601481111561179f5761179f61224f565b021790555060408201518160010160016101000a81548160ff021916908360018111156117ce576117ce61224f565b021790555060608201516001820180546001600160a01b03928316620100000262010000600160b01b031990911617905560808301516002830180549183166001600160a01b031992831617905560a084015160038401805491841691831691909117905560c084015160048401805491909316911617905560e08201518051611862916005840191602090910190612187565b50610100820151805161187f916006840191602090910190612187565b50610120820151805161189c916007840191602090910190612187565b505033600090815260d160209081526040822080546001810182559083529082200183905560d291508560148111156118d7576118d761224f565b60148111156118e8576118e861224f565b81526020808201929092526040016000908120805460018101825590825291902001555050505050565b61191a611da9565b6001600160a01b03811661197f5760405162461bcd60e51b815260206004820152602660248201527f4f776e61626c653a206e6577206f776e657220697320746865207a65726f206160448201526564647265737360d01b606482015260840161086c565b61090981611e03565b610909611da9565b7f4910fdfa16fed3260ed0e7147f7cc6da11a60208b5b9406d12a635614ffd91435460ff16156119c8576119c383611eab565b505050565b826001600160a01b03166352d1902d6040518163ffffffff1660e01b8152600401602060405180830381865afa925050508015611a22575060408051601f3d908101601f19168201909252611a1f91810190612d06565b60015b611a855760405162461bcd60e51b815260206004820152602e60248201527f45524331393637557067726164653a206e657720696d706c656d656e7461746960448201526d6f6e206973206e6f74205555505360901b606482015260840161086c565b600080516020612e4e8339815191528114611af45760405162461bcd60e51b815260206004820152602960248201527f45524331393637557067726164653a20756e737570706f727465642070726f786044820152681a58589b195555525160ba1b606482015260840161086c565b506119c3838383611f47565b606081611b245750506040805180820190915260018152600360fc1b602082015290565b8160005b8115611b4e5780611b38816128aa565b9150611b479050600a83612d71565b9150611b28565b60008167ffffffffffffffff811115611b6957611b69612465565b6040519080825280601f01601f191660200182016040528015611b93576020820181803683370190505b5090505b8415611bfe57611ba8600183612d85565b9150611bb5600a86612d9c565b611bc0906030612994565b60f81b818381518110611bd557611bd5612843565b60200101906001600160f81b031916908160001a905350611bf7600a86612d71565b9450611b97565b949350505050565b60606000611c15836002612db0565b611c20906002612994565b67ffffffffffffffff811115611c3857611c38612465565b6040519080825280601f01601f191660200182016040528015611c62576020820181803683370190505b509050600360fc1b81600081518110611c7d57611c7d612843565b60200101906001600160f81b031916908160001a905350600f60fb1b81600181518110611cac57611cac612843565b60200101906001600160f81b031916908160001a9053506000611cd0846002612db0565b611cdb906001612994565b90505b6001811115611d53576f181899199a1a9b1b9c1cb0b131b232b360811b85600f1660108110611d0f57611d0f612843565b1a60f81b828281518110611d2557611d25612843565b60200101906001600160f81b031916908160001a90535060049490941c93611d4c81612dcf565b9050611cde565b508315611da25760405162461bcd60e51b815260206004820181905260248201527f537472696e67733a20686578206c656e67746820696e73756666696369656e74604482015260640161086c565b9392505050565b6033546001600160a01b0316331461101e5760405162461bcd60e51b815260206004820181905260248201527f4f776e61626c653a2063616c6c6572206973206e6f7420746865206f776e6572604482015260640161086c565b603380546001600160a01b038381166001600160a01b0319831681179093556040519116919082907f8be0079c531659141344cd1fd0a4f28419497f9722a3daafe3b4186f6b6457e090600090a35050565b600054610100900460ff16611e7c5760405162461bcd60e51b815260040161086c90612de6565b61101e611f72565b600054610100900460ff1661101e5760405162461bcd60e51b815260040161086c90612de6565b6001600160a01b0381163b611f185760405162461bcd60e51b815260206004820152602d60248201527f455243313936373a206e657720696d706c656d656e746174696f6e206973206e60448201526c1bdd08184818dbdb9d1c9858dd609a1b606482015260840161086c565b600080516020612e4e83398151915280546001600160a01b0319166001600160a01b0392909216919091179055565b611f5083611fa2565b600082511180611f5d5750805b156119c357611f6c8383611fe2565b50505050565b600054610100900460ff16611f995760405162461bcd60e51b815260040161086c90612de6565b61101e33611e03565b611fab81611eab565b6040516001600160a01b038216907fbc7cd75a20ee27fd9adebab32041f755214dbc6bffa90cc0225b39da2e5c2d3b90600090a250565b60606001600160a01b0383163b61204a5760405162461bcd60e51b815260206004820152602660248201527f416464726573733a2064656c65676174652063616c6c20746f206e6f6e2d636f6044820152651b9d1c9858dd60d21b606482015260840161086c565b600080846001600160a01b0316846040516120659190612e31565b600060405180830381855af49150503d80600081146120a0576040519150601f19603f3d011682016040523d82523d6000602084013e6120a5565b606091505b50915091506120cd8282604051806060016040528060278152602001612e6e602791396120d6565b95945050505050565b606083156120e5575081611da2565b8251156120f55782518084602001fd5b8160405162461bcd60e51b815260040161086c9190612428565b6040805161014081019091526000808252602082019081526020016000815260200160006001600160a01b0316815260200160006001600160a01b0316815260200160006001600160a01b0316815260200160006001600160a01b031681526020016060815260200160608152602001606081525090565b82805461219390612859565b90600052602060002090601f0160209004810192826121b557600085556121fb565b82601f106121ce57805160ff19168380011785556121fb565b828001600101855582156121fb579182015b828111156121fb5782518255916020019190600101906121e0565b5061220792915061220b565b5090565b5b80821115612207576000815560010161220c565b80356015811061222f57600080fd5b919050565b60006020828403121561224657600080fd5b611da282612220565b634e487b7160e01b600052602160045260246000fd5b601581106122755761227561224f565b9052565b600281106122755761227561224f565b60005b838110156122a457818101518382015260200161228c565b83811115611f6c5750506000910152565b600081518084526122cd816020860160208601612289565b601f01601f19169290920160200192915050565b60006020808301818452808551808352604092508286019150828160051b87010184880160005b838110156123e857603f19898403018552815161014081518552888201516123328a870182612265565b508782015161234389870182612279565b506060828101516001600160a01b039081169187019190915260808084015182169087015260a08084015182169087015260c0808401519091169086015260e080830151818701839052612399838801826122b5565b9250505061010080830151868303828801526123b583826122b5565b9250505061012080830151925085820381870152506123d481836122b5565b968901969450505090860190600101612308565b509098975050505050505050565b80356001600160a01b038116811461222f57600080fd5b60006020828403121561241f57600080fd5b611da2826123f6565b602081526000611da260208301846122b5565b6000806040838503121561244e57600080fd5b61245783612220565b946020939093013593505050565b634e487b7160e01b600052604160045260246000fd5b600067ffffffffffffffff8084111561249657612496612465565b604051601f8501601f19908116603f011681019082821181831017156124be576124be612465565b816040528093508581528686860111156124d757600080fd5b858560208301376000602087830101525050509392505050565b6000806040838503121561250457600080fd5b61250d836123f6565b9150602083013567ffffffffffffffff81111561252957600080fd5b8301601f8101851361253a57600080fd5b6125498582356020840161247b565b9150509250929050565b600082601f83011261256457600080fd5b611da28383356020850161247b565b60008060008060008060c0878903121561258c57600080fd5b612595876123f6565b9550602087013567ffffffffffffffff808211156125b257600080fd5b6125be8a838b01612553565b96506040890135955060608901359150808211156125db57600080fd5b506125e889828a01612553565b9350506080870135915060a087013590509295509295509295565b6000806040838503121561261657600080fd5b61261f836123f6565b915061262d602084016123f6565b90509250929050565b80356002811061222f57600080fd5b600080600080600060a0868803121561265d57600080fd5b85359450602086013567ffffffffffffffff8082111561267c57600080fd5b61268889838a01612553565b9550604088013591508082111561269e57600080fd5b6126aa89838a01612553565b94506126b860608901612636565b935060808801359150808211156126ce57600080fd5b506126db88828901612553565b9150509295509295909350565b6000602082840312156126fa57600080fd5b5035919050565b6000806040838503121561271457600080fd5b612457836123f6565b6000806040838503121561273057600080fd5b8235915061262d602084016123f6565b60006101408c8352612755602084018d612265565b612762604084018c612279565b6001600160a01b038a81166060850152898116608085015288811660a0850152871660c084015260e0830181905261279c818401876122b5565b90508281036101008401526127b181866122b5565b90508281036101208401526127c681856122b5565b9d9c50505050505050505050505050565b600080600080600060a086880312156127ef57600080fd5b853567ffffffffffffffff8082111561280757600080fd5b61281389838a01612553565b9650602088013591508082111561282957600080fd5b61283589838a01612553565b95506126aa60408901612220565b634e487b7160e01b600052603260045260246000fd5b600181811c9082168061286d57607f821691505b6020821081141561288e57634e487b7160e01b600052602260045260246000fd5b50919050565b634e487b7160e01b600052601160045260246000fd5b60006000198214156128be576128be612894565b5060010190565b6020808252602c908201527f46756e6374696f6e206d7573742062652063616c6c6564207468726f7567682060408201526b19195b1959d85d1958d85b1b60a21b606082015260800190565b6020808252602c908201527f46756e6374696f6e206d7573742062652063616c6c6564207468726f7567682060408201526b6163746976652070726f787960a01b606082015260800190565b60208082526019908201527f4e6f2041636365737320666f72207468697320616374696f6e00000000000000604082015260600190565b600082198211156129a7576129a7612894565b500190565b600081516129be818560208601612289565b9290920192915050565b6b024a729a2a92a1024a72a27960a51b81526000808b54818160011c9050600182166129f257607f165b60208110600183161415612a1457634e487b7160e01b83526022600452602483fd5b600182168015612a2b5760018114612a4257612a78565b60ff198316600c870152600c828701019350612a78565b60008f81526020902060005b83811015612a6d578154888201600c0152600190910190602001612a4e565b5050600c8287010193505b50507f202869642c2077616c6c65742c20656d61696c2c20636f6d6d756e6974795f698252507f642c2063616d705f747970652c2063616d705f69642c20706169642c206372656020820152700c2e8cac8bec2e85240ac8298aa8aa6405607b1b6040820152612aeb605182018c6129ac565b622c202760e81b81529050612b03600382018b6129ac565b63272c202760e01b81529050612b1c600482018a6129ac565b6201396160ed1b81529050612b3460038201896129ac565b622c202760e81b81529050612b4c60038201886129ac565b6201396160ed1b81529050612b6460038201876129ac565b622c202760e81b81529050612b7c60038201866129ac565b6201396160ed1b81529050612b9460038201856129ac565b61293b60f01b81526002019c9b505050505050505050505050565b60018060a01b03841681528260208201526060604082015260006120cd60608301846122b5565b6b6d656d6265725f737461747360a01b8152605f60f81b600c82015260008251612c0781600d850160208701612289565b91909101600d0192915050565b6c021a922a0aa22902a20a126229609d1b815260008251612c3c81600d850160208701612289565b7f2028696420696e74207072696d617279206b65792c2077616c6c657420746578600d9390910192830152507f742c20656d61696c20746578742c20636f6d6d756e6974795f696420696e742c602d8201527f2063616d705f7479706520746578742c2063616d705f696420696e742c207061604d8201527f696420737472696e672c20637265617465645f617420696e74293b0000000000606d820152608801919050565b6001600160a01b0383168152604060208201819052600090611bfe908301846122b5565b600060208284031215612d1857600080fd5b5051919050565b60008351612d31818460208801612289565b605f60f81b9083019081528351612d4f816001840160208801612289565b01600101949350505050565b634e487b7160e01b600052601260045260246000fd5b600082612d8057612d80612d5b565b500490565b600082821015612d9757612d97612894565b500390565b600082612dab57612dab612d5b565b500690565b6000816000190483118215151615612dca57612dca612894565b500290565b600081612dde57612dde612894565b506000190190565b6020808252602b908201527f496e697469616c697a61626c653a20636f6e7472616374206973206e6f74206960408201526a6e697469616c697a696e6760a81b606082015260800190565b60008251612e43818460208701612289565b919091019291505056fe360894a13ba1a3210667c828492db98dca3e2076cc3735a920a3ca505d382bbc416464726573733a206c6f772d6c6576656c2064656c65676174652063616c6c206661696c6564a2646970667358221220b0eb5609abb8824300cf6e5d85d438e78c3e655a34febbf6ada3a009c730aae864736f6c634300080c0033",
  "linkReferences": {},
  "deployedLinkReferences": {}
}