{
  "_format": "hh-sol-artifact-1",
  "contractName": "MainContract",
  "sourceName": "src/backend/contracts/MainContract.sol",
  "abi": [
    {
      "inputs": [],
      "stateMutability": "nonpayable",
      "type": "constructor"
    },
    {
      "anonymous": false,
      "inputs": [
        {
          "indexed": false,
          "internalType": "address",
          "name": "previousAdmin",
          "type": "address"
        },
        {
          "indexed": false,
          "internalType": "address",
          "name": "newAdmin",
          "type": "address"
        }
      ],
      "name": "AdminChanged",
      "type": "event"
    },
    {
      "anonymous": false,
      "inputs": [
        {
          "indexed": true,
          "internalType": "address",
          "name": "beacon",
          "type": "address"
        }
      ],
      "name": "BeaconUpgraded",
      "type": "event"
    },
    {
      "anonymous": false,
      "inputs": [
        {
          "indexed": false,
          "internalType": "uint8",
          "name": "version",
          "type": "uint8"
        }
      ],
      "name": "Initialized",
      "type": "event"
    },
    {
      "anonymous": false,
      "inputs": [
        {
          "indexed": true,
          "internalType": "address",
          "name": "previousOwner",
          "type": "address"
        },
        {
          "indexed": true,
          "internalType": "address",
          "name": "newOwner",
          "type": "address"
        }
      ],
      "name": "OwnershipTransferred",
      "type": "event"
    },
    {
      "anonymous": false,
      "inputs": [
        {
          "indexed": true,
          "internalType": "address",
          "name": "implementation",
          "type": "address"
        }
      ],
      "name": "Upgraded",
      "type": "event"
    },
    {
      "inputs": [
        {
          "internalType": "enum MainContract.CommunityCategory",
          "name": "",
          "type": "uint8"
        },
        {
          "internalType": "uint256",
          "name": "",
          "type": "uint256"
        }
      ],
      "name": "categoryCommunities",
      "outputs": [
        {
          "internalType": "uint256",
          "name": "",
          "type": "uint256"
        }
      ],
      "stateMutability": "view",
      "type": "function"
    },
    {
      "inputs": [
        {
          "internalType": "uint256",
          "name": "",
          "type": "uint256"
        }
      ],
      "name": "communities",
      "outputs": [
        {
          "internalType": "uint256",
          "name": "id",
          "type": "uint256"
        },
        {
          "internalType": "enum MainContract.CommunityCategory",
          "name": "category",
          "type": "uint8"
        },
        {
          "internalType": "enum MainContract.CommunityPrivacy",
          "name": "privacy",
          "type": "uint8"
        },
        {
          "internalType": "string",
          "name": "name",
          "type": "string"
        },
        {
          "internalType": "string",
          "name": "description",
          "type": "string"
        },
        {
          "internalType": "string",
          "name": "logo",
          "type": "string"
        },
        {
          "internalType": "address",
          "name": "owner",
          "type": "address"
        },
        {
          "internalType": "address",
          "name": "nftContract",
          "type": "address"
        },
        {
          "internalType": "address",
          "name": "ftContract",
          "type": "address"
        }
      ],
      "stateMutability": "view",
      "type": "function"
    },
    {
      "inputs": [],
      "name": "communityCount",
      "outputs": [
        {
          "internalType": "uint256",
          "name": "",
          "type": "uint256"
        }
      ],
      "stateMutability": "view",
      "type": "function"
    },
    {
      "inputs": [
        {
          "internalType": "string",
          "name": "_name",
          "type": "string"
        },
        {
          "internalType": "string",
          "name": "_logo",
          "type": "string"
        },
        {
          "internalType": "enum MainContract.CommunityCategory",
          "name": "_category",
          "type": "uint8"
        },
        {
          "internalType": "enum MainContract.CommunityPrivacy",
          "name": "_privacy",
          "type": "uint8"
        },
        {
          "internalType": "string",
          "name": "_description",
          "type": "string"
        }
      ],
      "name": "createCommunity",
      "outputs": [],
      "stateMutability": "nonpayable",
      "type": "function"
    },
    {
      "inputs": [
        {
          "internalType": "enum MainContract.CommunityCategory",
          "name": "_categoryId",
          "type": "uint8"
        }
      ],
      "name": "getCategoryCommunities",
      "outputs": [
        {
          "components": [
            {
              "internalType": "uint256",
              "name": "id",
              "type": "uint256"
            },
            {
              "internalType": "enum MainContract.CommunityCategory",
              "name": "category",
              "type": "uint8"
            },
            {
              "internalType": "enum MainContract.CommunityPrivacy",
              "name": "privacy",
              "type": "uint8"
            },
            {
              "internalType": "string",
              "name": "name",
              "type": "string"
            },
            {
              "internalType": "string",
              "name": "description",
              "type": "string"
            },
            {
              "internalType": "string",
              "name": "logo",
              "type": "string"
            },
            {
              "internalType": "address",
              "name": "owner",
              "type": "address"
            },
            {
              "internalType": "address",
              "name": "nftContract",
              "type": "address"
            },
            {
              "internalType": "address",
              "name": "ftContract",
              "type": "address"
            }
          ],
          "internalType": "struct MainContract.Community[]",
          "name": "",
          "type": "tuple[]"
        }
      ],
      "stateMutability": "view",
      "type": "function"
    },
    {
      "inputs": [
        {
          "internalType": "address",
          "name": "_owner",
          "type": "address"
        }
      ],
      "name": "getUserCommunities",
      "outputs": [
        {
          "components": [
            {
              "internalType": "uint256",
              "name": "id",
              "type": "uint256"
            },
            {
              "internalType": "enum MainContract.CommunityCategory",
              "name": "category",
              "type": "uint8"
            },
            {
              "internalType": "enum MainContract.CommunityPrivacy",
              "name": "privacy",
              "type": "uint8"
            },
            {
              "internalType": "string",
              "name": "name",
              "type": "string"
            },
            {
              "internalType": "string",
              "name": "description",
              "type": "string"
            },
            {
              "internalType": "string",
              "name": "logo",
              "type": "string"
            },
            {
              "internalType": "address",
              "name": "owner",
              "type": "address"
            },
            {
              "internalType": "address",
              "name": "nftContract",
              "type": "address"
            },
            {
              "internalType": "address",
              "name": "ftContract",
              "type": "address"
            }
          ],
          "internalType": "struct MainContract.Community[]",
          "name": "",
          "type": "tuple[]"
        }
      ],
      "stateMutability": "view",
      "type": "function"
    },
    {
      "inputs": [],
      "name": "initialize",
      "outputs": [],
      "stateMutability": "nonpayable",
      "type": "function"
    },
    {
      "inputs": [
        {
          "internalType": "uint256",
          "name": "_id",
          "type": "uint256"
        }
      ],
      "name": "isContractExists",
      "outputs": [
        {
          "internalType": "bool",
          "name": "",
          "type": "bool"
        },
        {
          "internalType": "bool",
          "name": "",
          "type": "bool"
        }
      ],
      "stateMutability": "view",
      "type": "function"
    },
    {
      "inputs": [],
      "name": "owner",
      "outputs": [
        {
          "internalType": "address",
          "name": "",
          "type": "address"
        }
      ],
      "stateMutability": "view",
      "type": "function"
    },
    {
      "inputs": [],
      "name": "proxiableUUID",
      "outputs": [
        {
          "internalType": "bytes32",
          "name": "",
          "type": "bytes32"
        }
      ],
      "stateMutability": "view",
      "type": "function"
    },
    {
      "inputs": [],
      "name": "renounceOwnership",
      "outputs": [],
      "stateMutability": "nonpayable",
      "type": "function"
    },
    {
      "inputs": [
        {
          "internalType": "address",
          "name": "newOwner",
          "type": "address"
        }
      ],
      "name": "transferOwnership",
      "outputs": [],
      "stateMutability": "nonpayable",
      "type": "function"
    },
    {
      "inputs": [
        {
          "internalType": "uint256",
          "name": "_id",
          "type": "uint256"
        },
        {
          "internalType": "string",
          "name": "_name",
          "type": "string"
        },
        {
          "internalType": "string",
          "name": "_logo",
          "type": "string"
        },
        {
          "internalType": "enum MainContract.CommunityPrivacy",
          "name": "_privacy",
          "type": "uint8"
        },
        {
          "internalType": "string",
          "name": "_description",
          "type": "string"
        }
      ],
      "name": "updateCommunity",
      "outputs": [],
      "stateMutability": "nonpayable",
      "type": "function"
    },
    {
      "inputs": [
        {
          "internalType": "uint256",
          "name": "_id",
          "type": "uint256"
        },
        {
          "internalType": "address",
          "name": "_ftContract",
          "type": "address"
        }
      ],
      "name": "updateCommunityFT",
      "outputs": [],
      "stateMutability": "nonpayable",
      "type": "function"
    },
    {
      "inputs": [
        {
          "internalType": "uint256",
          "name": "_id",
          "type": "uint256"
        },
        {
          "internalType": "address",
          "name": "_nftContract",
          "type": "address"
        }
      ],
      "name": "updateCommunityNFT",
      "outputs": [],
      "stateMutability": "nonpayable",
      "type": "function"
    },
    {
      "inputs": [
        {
          "internalType": "address",
          "name": "_factoryNFTContract",
          "type": "address"
        },
        {
          "internalType": "address",
          "name": "_factoryFTContract",
          "type": "address"
        }
      ],
      "name": "updateFactoryContractsAddress",
      "outputs": [],
      "stateMutability": "nonpayable",
      "type": "function"
    },
    {
      "inputs": [
        {
          "internalType": "address",
          "name": "newImplementation",
          "type": "address"
        }
      ],
      "name": "upgradeTo",
      "outputs": [],
      "stateMutability": "nonpayable",
      "type": "function"
    },
    {
      "inputs": [
        {
          "internalType": "address",
          "name": "newImplementation",
          "type": "address"
        },
        {
          "internalType": "bytes",
          "name": "data",
          "type": "bytes"
        }
      ],
      "name": "upgradeToAndCall",
      "outputs": [],
      "stateMutability": "payable",
      "type": "function"
    },
    {
      "inputs": [
        {
          "internalType": "address",
          "name": "",
          "type": "address"
        },
        {
          "internalType": "uint256",
          "name": "",
          "type": "uint256"
        }
      ],
      "name": "userCommunities",
      "outputs": [
        {
          "internalType": "uint256",
          "name": "",
          "type": "uint256"
        }
      ],
      "stateMutability": "view",
      "type": "function"
    }
  ],
  "bytecode": "0x60a06040523060805234801561001457600080fd5b5061001d610022565b6100e2565b600054610100900460ff161561008e5760405162461bcd60e51b815260206004820152602760248201527f496e697469616c697a61626c653a20636f6e747261637420697320696e697469604482015266616c697a696e6760c81b606482015260840160405180910390fd5b60005460ff90811610156100e0576000805460ff191660ff9081179091556040519081527f7f26b83ff96e1f2b6a682f133852f6798a09c465da95921460cefb38474024989060200160405180910390a15b565b6080516123646200011a60003960008181610778015281816107c101528181610892015281816108d2015261096501526123646000f3fe6080604052600436106101145760003560e01c80638da5cb5b116100a0578063e00f786511610064578063e00f78651461030f578063e590b56a1461032f578063e87d940b14610364578063e8cc13c014610384578063f2fde38b146103a457600080fd5b80638da5cb5b14610231578063aee8461314610259578063af1af3dc1461026f578063b64b7f761461028f578063dd446001146102ef57600080fd5b806352d1902d116100e757806352d1902d146101b25780636543286f146101c7578063715018a6146101e757806380c75be3146101fc5780638129fc1c1461021c57600080fd5b8063266682cb146101195780633659cfe61461014f5780633c44f002146101715780634f1ef2861461019f575b600080fd5b34801561012557600080fd5b50610139610134366004611bc3565b6103c4565b6040516101469190611c70565b60405180910390f35b34801561015b57600080fd5b5061016f61016a366004611d9a565b61076d565b005b34801561017d57600080fd5b5061019161018c366004611db5565b610856565b604051908152602001610146565b61016f6101ad366004611e6b565b610887565b3480156101be57600080fd5b50610191610958565b3480156101d357600080fd5b506101396101e2366004611d9a565b610a0b565b3480156101f357600080fd5b5061016f610d6c565b34801561020857600080fd5b5061016f610217366004611ecd565b610d80565b34801561022857600080fd5b5061016f610db6565b34801561023d57600080fd5b506033546040516001600160a01b039091168152602001610146565b34801561026557600080fd5b5061019160cb5481565b34801561027b57600080fd5b5061016f61028a366004611f2f565b610ece565b34801561029b57600080fd5b506102d86102aa366004611fd2565b600090815260cc6020526040902060068101546007909101546001600160a01b039182161515929116151590565b604080519215158352901515602083015201610146565b3480156102fb57600080fd5b5061019161030a366004611feb565b610ff3565b34801561031b57600080fd5b5061016f61032a366004612007565b61100f565b34801561033b57600080fd5b5061034f61034a366004611fd2565b611096565b6040516101469998979695949392919061202a565b34801561037057600080fd5b5061016f61037f366004612007565b61128d565b34801561039057600080fd5b5061016f61039f3660046120b6565b611314565b3480156103b057600080fd5b5061016f6103bf366004611d9a565b61156f565b6060600060ce60008460148111156103de576103de611bde565b60148111156103ef576103ef611bde565b815260200190815260200160002080549050905060008167ffffffffffffffff81111561041e5761041e611ddf565b60405190808252806020026020018201604052801561045757816020015b610444611aca565b81526020019060019003908161043c5790505b50905060005b828110156107655760cc600060ce600088601481111561047f5761047f611bde565b601481111561049057610490611bde565b815260200190815260200160002083815481106104af576104af612122565b9060005260206000200154815260200190815260200160002060405180610120016040529081600082015481526020016001820160009054906101000a900460ff16601481111561050257610502611bde565b601481111561051357610513611bde565b81526020016001820160019054906101000a900460ff16600181111561053b5761053b611bde565b600181111561054c5761054c611bde565b815260200160028201805461056090612138565b80601f016020809104026020016040519081016040528092919081815260200182805461058c90612138565b80156105d95780601f106105ae576101008083540402835291602001916105d9565b820191906000526020600020905b8154815290600101906020018083116105bc57829003601f168201915b505050505081526020016003820180546105f290612138565b80601f016020809104026020016040519081016040528092919081815260200182805461061e90612138565b801561066b5780601f106106405761010080835404028352916020019161066b565b820191906000526020600020905b81548152906001019060200180831161064e57829003601f168201915b5050505050815260200160048201805461068490612138565b80601f01602080910402602001604051908101604052809291908181526020018280546106b090612138565b80156106fd5780601f106106d2576101008083540402835291602001916106fd565b820191906000526020600020905b8154815290600101906020018083116106e057829003601f168201915b505050918352505060058201546001600160a01b039081166020830152600683015481166040830152600790920154909116606090910152825183908390811061074957610749612122565b60200260200101819052508061075e90612189565b905061045d565b509392505050565b306001600160a01b037f00000000000000000000000000000000000000000000000000000000000000001614156107bf5760405162461bcd60e51b81526004016107b6906121a4565b60405180910390fd5b7f00000000000000000000000000000000000000000000000000000000000000006001600160a01b03166108086000805160206122e8833981519152546001600160a01b031690565b6001600160a01b03161461082e5760405162461bcd60e51b81526004016107b6906121f0565b610837816115e5565b60408051600080825260208201909252610853918391906115ed565b50565b60ce602052816000526040600020818154811061087257600080fd5b90600052602060002001600091509150505481565b306001600160a01b037f00000000000000000000000000000000000000000000000000000000000000001614156108d05760405162461bcd60e51b81526004016107b6906121a4565b7f00000000000000000000000000000000000000000000000000000000000000006001600160a01b03166109196000805160206122e8833981519152546001600160a01b031690565b6001600160a01b03161461093f5760405162461bcd60e51b81526004016107b6906121f0565b610948826115e5565b610954828260016115ed565b5050565b6000306001600160a01b037f000000000000000000000000000000000000000000000000000000000000000016146109f85760405162461bcd60e51b815260206004820152603860248201527f555550535570677261646561626c653a206d757374206e6f742062652063616c60448201527f6c6564207468726f7567682064656c656761746563616c6c000000000000000060648201526084016107b6565b506000805160206122e883398151915290565b6001600160a01b038116600090815260cd60205260408120546060918167ffffffffffffffff811115610a4057610a40611ddf565b604051908082528060200260200182016040528015610a7957816020015b610a66611aca565b815260200190600190039081610a5e5790505b50905060005b82811015610765576001600160a01b038516600090815260cd60205260408120805460cc92919084908110610ab657610ab6612122565b9060005260206000200154815260200190815260200160002060405180610120016040529081600082015481526020016001820160009054906101000a900460ff166014811115610b0957610b09611bde565b6014811115610b1a57610b1a611bde565b81526020016001820160019054906101000a900460ff166001811115610b4257610b42611bde565b6001811115610b5357610b53611bde565b8152602001600282018054610b6790612138565b80601f0160208091040260200160405190810160405280929190818152602001828054610b9390612138565b8015610be05780601f10610bb557610100808354040283529160200191610be0565b820191906000526020600020905b815481529060010190602001808311610bc357829003601f168201915b50505050508152602001600382018054610bf990612138565b80601f0160208091040260200160405190810160405280929190818152602001828054610c2590612138565b8015610c725780601f10610c4757610100808354040283529160200191610c72565b820191906000526020600020905b815481529060010190602001808311610c5557829003601f168201915b50505050508152602001600482018054610c8b90612138565b80601f0160208091040260200160405190810160405280929190818152602001828054610cb790612138565b8015610d045780601f10610cd957610100808354040283529160200191610d04565b820191906000526020600020905b815481529060010190602001808311610ce757829003601f168201915b505050918352505060058201546001600160a01b0390811660208301526006830154811660408301526007909201549091166060909101528251839083908110610d5057610d50612122565b602002602001018190525080610d6590612189565b9050610a7f565b610d7461175d565b610d7e60006117b7565b565b610d8861175d565b60c980546001600160a01b039384166001600160a01b03199182161790915560ca8054929093169116179055565b600054610100900460ff1615808015610dd65750600054600160ff909116105b80610df05750303b158015610df0575060005460ff166001145b610e535760405162461bcd60e51b815260206004820152602e60248201527f496e697469616c697a61626c653a20636f6e747261637420697320616c72656160448201526d191e481a5b9a5d1a585b1a5e995960921b60648201526084016107b6565b6000805460ff191660011790558015610e76576000805461ff0019166101001790555b610e7e611809565b610e86611838565b8015610853576000805461ff0019169055604051600181527f7f26b83ff96e1f2b6a682f133852f6798a09c465da95921460cefb38474024989060200160405180910390a150565b600384511015610f1b5760405162461bcd60e51b815260206004820152601860248201527710dbdb5b5d5b9a5d1e481b985b59481d1bdbc81cda1bdc9d60421b60448201526064016107b6565b600085815260cc6020526040902060058101546001600160a01b03163314610f7e5760405162461bcd60e51b81526020600482015260166024820152754e6f2061636365737320746f20636f6d6d756e69747960501b60448201526064016107b6565b8451610f939060028301906020880190611b16565b508351610fa99060048301906020870190611b16565b50828160010160016101000a81548160ff02191690836001811115610fd057610fd0611bde565b02179055508151610fea9060038301906020850190611b16565b50505050505050565b60cd602052816000526040600020818154811061087257600080fd5b60c9546001600160a01b031633146110655760405162461bcd60e51b815260206004820152601960248201527827379020b1b1b2b9b9903337b9103a3434b99030b1ba34b7b760391b60448201526064016107b6565b600091825260cc602052604090912060060180546001600160a01b0319166001600160a01b03909216919091179055565b60cc60205260009081526040902080546001820154600283018054929360ff8084169461010090940416929091906110cd90612138565b80601f01602080910402602001604051908101604052809291908181526020018280546110f990612138565b80156111465780601f1061111b57610100808354040283529160200191611146565b820191906000526020600020905b81548152906001019060200180831161112957829003601f168201915b50505050509080600301805461115b90612138565b80601f016020809104026020016040519081016040528092919081815260200182805461118790612138565b80156111d45780601f106111a9576101008083540402835291602001916111d4565b820191906000526020600020905b8154815290600101906020018083116111b757829003601f168201915b5050505050908060040180546111e990612138565b80601f016020809104026020016040519081016040528092919081815260200182805461121590612138565b80156112625780601f1061123757610100808354040283529160200191611262565b820191906000526020600020905b81548152906001019060200180831161124557829003601f168201915b505050506005830154600684015460079094015492936001600160a01b039182169390821692501689565b60ca546001600160a01b031633146112e35760405162461bcd60e51b815260206004820152601960248201527827379020b1b1b2b9b9903337b9103a3434b99030b1ba34b7b760391b60448201526064016107b6565b600091825260cc602052604090912060070180546001600160a01b0319166001600160a01b03909216919091179055565b60038551116113605760405162461bcd60e51b815260206004820152601860248201527710dbdb5b5d5b9a5d1e481b985b59481d1bdbc81cda1bdc9d60421b60448201526064016107b6565b600160cb6000828254611373919061223c565b9250508190555060405180610120016040528060cb5481526020018460148111156113a0576113a0611bde565b81526020018360018111156113b7576113b7611bde565b81526020808201889052604080830185905260608301889052336080840152600060a0840181905260c090930183905260cb54835260cc8252909120825181559082015160018083018054909160ff199091169083601481111561141d5761141d611bde565b021790555060408201518160010160016101000a81548160ff0219169083600181111561144c5761144c611bde565b02179055506060820151805161146c916002840191602090910190611b16565b5060808201518051611488916003840191602090910190611b16565b5060a082015180516114a4916004840191602090910190611b16565b5060c08201516005820180546001600160a01b03199081166001600160a01b039384161790915560e084015160068401805483169184169190911790556101009093015160079092018054909316911617905533600090815260cd60209081526040822060cb548154600181018355918452918320015560ce9084601481111561153057611530611bde565b601481111561154157611541611bde565b8152602080820192909252604001600090812060cb5481546001810183559183529290912001555050505050565b61157761175d565b6001600160a01b0381166115dc5760405162461bcd60e51b815260206004820152602660248201527f4f776e61626c653a206e6577206f776e657220697320746865207a65726f206160448201526564647265737360d01b60648201526084016107b6565b610853816117b7565b61085361175d565b7f4910fdfa16fed3260ed0e7147f7cc6da11a60208b5b9406d12a635614ffd91435460ff1615611625576116208361185f565b505050565b826001600160a01b03166352d1902d6040518163ffffffff1660e01b8152600401602060405180830381865afa92505050801561167f575060408051601f3d908101601f1916820190925261167c91810190612254565b60015b6116e25760405162461bcd60e51b815260206004820152602e60248201527f45524331393637557067726164653a206e657720696d706c656d656e7461746960448201526d6f6e206973206e6f74205555505360901b60648201526084016107b6565b6000805160206122e883398151915281146117515760405162461bcd60e51b815260206004820152602960248201527f45524331393637557067726164653a20756e737570706f727465642070726f786044820152681a58589b195555525160ba1b60648201526084016107b6565b506116208383836118fb565b6033546001600160a01b03163314610d7e5760405162461bcd60e51b815260206004820181905260248201527f4f776e61626c653a2063616c6c6572206973206e6f7420746865206f776e657260448201526064016107b6565b603380546001600160a01b038381166001600160a01b0319831681179093556040519116919082907f8be0079c531659141344cd1fd0a4f28419497f9722a3daafe3b4186f6b6457e090600090a35050565b600054610100900460ff166118305760405162461bcd60e51b81526004016107b69061226d565b610d7e611926565b600054610100900460ff16610d7e5760405162461bcd60e51b81526004016107b69061226d565b6001600160a01b0381163b6118cc5760405162461bcd60e51b815260206004820152602d60248201527f455243313936373a206e657720696d706c656d656e746174696f6e206973206e60448201526c1bdd08184818dbdb9d1c9858dd609a1b60648201526084016107b6565b6000805160206122e883398151915280546001600160a01b0319166001600160a01b0392909216919091179055565b61190483611956565b6000825111806119115750805b15611620576119208383611996565b50505050565b600054610100900460ff1661194d5760405162461bcd60e51b81526004016107b69061226d565b610d7e336117b7565b61195f8161185f565b6040516001600160a01b038216907fbc7cd75a20ee27fd9adebab32041f755214dbc6bffa90cc0225b39da2e5c2d3b90600090a250565b60606001600160a01b0383163b6119fe5760405162461bcd60e51b815260206004820152602660248201527f416464726573733a2064656c65676174652063616c6c20746f206e6f6e2d636f6044820152651b9d1c9858dd60d21b60648201526084016107b6565b600080846001600160a01b031684604051611a1991906122b8565b600060405180830381855af49150503d8060008114611a54576040519150601f19603f3d011682016040523d82523d6000602084013e611a59565b606091505b5091509150611a81828260405180606001604052806027815260200161230860279139611a8a565b95945050505050565b60608315611a99575081611ac3565b825115611aa95782518084602001fd5b8160405162461bcd60e51b81526004016107b691906122d4565b9392505050565b60408051610120810190915260008082526020820190815260200160008152606060208201819052604082018190528082015260006080820181905260a0820181905260c09091015290565b828054611b2290612138565b90600052602060002090601f016020900481019282611b445760008555611b8a565b82601f10611b5d57805160ff1916838001178555611b8a565b82800160010185558215611b8a579182015b82811115611b8a578251825591602001919060010190611b6f565b50611b96929150611b9a565b5090565b5b80821115611b965760008155600101611b9b565b803560158110611bbe57600080fd5b919050565b600060208284031215611bd557600080fd5b611ac382611baf565b634e487b7160e01b600052602160045260246000fd5b60158110611c0457611c04611bde565b9052565b60028110611c0457611c04611bde565b60005b83811015611c33578181015183820152602001611c1b565b838111156119205750506000910152565b60008151808452611c5c816020860160208601611c18565b601f01601f19169290920160200192915050565b60006020808301818452808551808352604092508286019150828160051b87010184880160005b83811015611d7557603f1989840301855281516101208151855288820151611cc18a870182611bf4565b5087820151611cd289870182611c08565b506060808301518282880152611cea83880182611c44565b9250505060808083015186830382880152611d058382611c44565b9250505060a08083015186830382880152611d208382611c44565b9250505060c080830151611d3e828801826001600160a01b03169052565b505060e0828101516001600160a01b0390811691870191909152610100928301511691909401529386019390860190600101611c97565b509098975050505050505050565b80356001600160a01b0381168114611bbe57600080fd5b600060208284031215611dac57600080fd5b611ac382611d83565b60008060408385031215611dc857600080fd5b611dd183611baf565b946020939093013593505050565b634e487b7160e01b600052604160045260246000fd5b600067ffffffffffffffff80841115611e1057611e10611ddf565b604051601f8501601f19908116603f01168101908282118183101715611e3857611e38611ddf565b81604052809350858152868686011115611e5157600080fd5b858560208301376000602087830101525050509392505050565b60008060408385031215611e7e57600080fd5b611e8783611d83565b9150602083013567ffffffffffffffff811115611ea357600080fd5b8301601f81018513611eb457600080fd5b611ec385823560208401611df5565b9150509250929050565b60008060408385031215611ee057600080fd5b611ee983611d83565b9150611ef760208401611d83565b90509250929050565b600082601f830112611f1157600080fd5b611ac383833560208501611df5565b803560028110611bbe57600080fd5b600080600080600060a08688031215611f4757600080fd5b85359450602086013567ffffffffffffffff80821115611f6657600080fd5b611f7289838a01611f00565b95506040880135915080821115611f8857600080fd5b611f9489838a01611f00565b9450611fa260608901611f20565b93506080880135915080821115611fb857600080fd5b50611fc588828901611f00565b9150509295509295909350565b600060208284031215611fe457600080fd5b5035919050565b60008060408385031215611ffe57600080fd5b611dd183611d83565b6000806040838503121561201a57600080fd5b82359150611ef760208401611d83565b60006101208b835261203f602084018c611bf4565b61204c604084018b611c08565b80606084015261205e8184018a611c44565b905082810360808401526120728189611c44565b905082810360a08401526120868188611c44565b6001600160a01b0396871660c085015294861660e084015250509216610100909201919091529695505050505050565b600080600080600060a086880312156120ce57600080fd5b853567ffffffffffffffff808211156120e657600080fd5b6120f289838a01611f00565b9650602088013591508082111561210857600080fd5b61211489838a01611f00565b9550611f9460408901611baf565b634e487b7160e01b600052603260045260246000fd5b600181811c9082168061214c57607f821691505b6020821081141561216d57634e487b7160e01b600052602260045260246000fd5b50919050565b634e487b7160e01b600052601160045260246000fd5b600060001982141561219d5761219d612173565b5060010190565b6020808252602c908201527f46756e6374696f6e206d7573742062652063616c6c6564207468726f7567682060408201526b19195b1959d85d1958d85b1b60a21b606082015260800190565b6020808252602c908201527f46756e6374696f6e206d7573742062652063616c6c6564207468726f7567682060408201526b6163746976652070726f787960a01b606082015260800190565b6000821982111561224f5761224f612173565b500190565b60006020828403121561226657600080fd5b5051919050565b6020808252602b908201527f496e697469616c697a61626c653a20636f6e7472616374206973206e6f74206960408201526a6e697469616c697a696e6760a81b606082015260800190565b600082516122ca818460208701611c18565b9190910192915050565b602081526000611ac36020830184611c4456fe360894a13ba1a3210667c828492db98dca3e2076cc3735a920a3ca505d382bbc416464726573733a206c6f772d6c6576656c2064656c65676174652063616c6c206661696c6564a2646970667358221220433ca3fc8e3c03ed317288238312b284dcf15d60cf872aee711fb5f1f2f77f1064736f6c634300080c0033",
  "linkReferences": {},
  "deployedLinkReferences": {}
}