{
  "_format": "hh-sol-artifact-1",
  "contractName": "MembersContract",
  "sourceName": "src/backend/contracts/MembersContract.sol",
  "abi": [
    {
      "inputs": [],
      "stateMutability": "nonpayable",
      "type": "constructor"
    },
    {
      "anonymous": false,
      "inputs": [
        {
          "indexed": false,
          "internalType": "address",
          "name": "previousAdmin",
          "type": "address"
        },
        {
          "indexed": false,
          "internalType": "address",
          "name": "newAdmin",
          "type": "address"
        }
      ],
      "name": "AdminChanged",
      "type": "event"
    },
    {
      "anonymous": false,
      "inputs": [
        {
          "indexed": true,
          "internalType": "address",
          "name": "beacon",
          "type": "address"
        }
      ],
      "name": "BeaconUpgraded",
      "type": "event"
    },
    {
      "anonymous": false,
      "inputs": [
        {
          "indexed": false,
          "internalType": "uint8",
          "name": "version",
          "type": "uint8"
        }
      ],
      "name": "Initialized",
      "type": "event"
    },
    {
      "anonymous": false,
      "inputs": [
        {
          "indexed": true,
          "internalType": "address",
          "name": "previousOwner",
          "type": "address"
        },
        {
          "indexed": true,
          "internalType": "address",
          "name": "newOwner",
          "type": "address"
        }
      ],
      "name": "OwnershipTransferred",
      "type": "event"
    },
    {
      "anonymous": false,
      "inputs": [
        {
          "indexed": true,
          "internalType": "address",
          "name": "implementation",
          "type": "address"
        }
      ],
      "name": "Upgraded",
      "type": "event"
    },
    {
      "inputs": [
        {
          "internalType": "uint256",
          "name": "_communityId",
          "type": "uint256"
        }
      ],
      "name": "createMemberTable",
      "outputs": [
        {
          "internalType": "string",
          "name": "",
          "type": "string"
        }
      ],
      "stateMutability": "payable",
      "type": "function"
    },
    {
      "inputs": [
        {
          "internalType": "address",
          "name": "_mainContractAddress",
          "type": "address"
        },
        {
          "internalType": "address",
          "name": "_registry",
          "type": "address"
        }
      ],
      "name": "initialize",
      "outputs": [],
      "stateMutability": "nonpayable",
      "type": "function"
    },
    {
      "inputs": [],
      "name": "owner",
      "outputs": [
        {
          "internalType": "address",
          "name": "",
          "type": "address"
        }
      ],
      "stateMutability": "view",
      "type": "function"
    },
    {
      "inputs": [],
      "name": "proxiableUUID",
      "outputs": [
        {
          "internalType": "bytes32",
          "name": "",
          "type": "bytes32"
        }
      ],
      "stateMutability": "view",
      "type": "function"
    },
    {
      "inputs": [],
      "name": "renounceOwnership",
      "outputs": [],
      "stateMutability": "nonpayable",
      "type": "function"
    },
    {
      "inputs": [
        {
          "internalType": "address",
          "name": "newOwner",
          "type": "address"
        }
      ],
      "name": "transferOwnership",
      "outputs": [],
      "stateMutability": "nonpayable",
      "type": "function"
    },
    {
      "inputs": [
        {
          "internalType": "address",
          "name": "newImplementation",
          "type": "address"
        }
      ],
      "name": "upgradeTo",
      "outputs": [],
      "stateMutability": "nonpayable",
      "type": "function"
    },
    {
      "inputs": [
        {
          "internalType": "address",
          "name": "newImplementation",
          "type": "address"
        },
        {
          "internalType": "bytes",
          "name": "data",
          "type": "bytes"
        }
      ],
      "name": "upgradeToAndCall",
      "outputs": [],
      "stateMutability": "payable",
      "type": "function"
    }
  ],
  "bytecode": "0x60a06040523060805234801561001457600080fd5b5061001d610022565b6100e2565b600054610100900460ff161561008e5760405162461bcd60e51b815260206004820152602760248201527f496e697469616c697a61626c653a20636f6e747261637420697320696e697469604482015266616c697a696e6760c81b606482015260840160405180910390fd5b60005460ff90811610156100e0576000805460ff191660ff9081179091556040519081527f7f26b83ff96e1f2b6a682f133852f6798a09c465da95921460cefb38474024989060200160405180910390a15b565b6080516114c461011960003960008181610185015281816101ce015281816104ea0152818161052a01526105bd01526114c46000f3fe60806040526004361061007b5760003560e01c8063715018a61161004e578063715018a6146100fd5780638da5cb5b14610112578063a5f651541461013a578063f2fde38b1461015a57600080fd5b80633659cfe614610080578063485cc955146100a25780634f1ef286146100c257806352d1902d146100d5575b600080fd5b34801561008c57600080fd5b506100a061009b366004610e42565b61017a565b005b3480156100ae57600080fd5b506100a06100bd366004610e5d565b610263565b6100a06100d0366004610ea6565b6104df565b3480156100e157600080fd5b506100ea6105b0565b6040519081526020015b60405180910390f35b34801561010957600080fd5b506100a0610663565b34801561011e57600080fd5b506033546040516001600160a01b0390911681526020016100f4565b61014d610148366004610f68565b610677565b6040516100f49190610fd9565b34801561016657600080fd5b506100a0610175366004610e42565b610731565b306001600160a01b037f00000000000000000000000000000000000000000000000000000000000000001614156101cc5760405162461bcd60e51b81526004016101c390610fec565b60405180910390fd5b7f00000000000000000000000000000000000000000000000000000000000000006001600160a01b0316610215600080516020611448833981519152546001600160a01b031690565b6001600160a01b03161461023b5760405162461bcd60e51b81526004016101c390611038565b610244816107a7565b60408051600080825260208201909252610260918391906107af565b50565b600054610100900460ff16158080156102835750600054600160ff909116105b8061029d5750303b15801561029d575060005460ff166001145b6103005760405162461bcd60e51b815260206004820152602e60248201527f496e697469616c697a61626c653a20636f6e747261637420697320616c72656160448201526d191e481a5b9a5d1a585b1a5e995960921b60648201526084016101c3565b6000805460ff191660011790558015610323576000805461ff0019166101001790555b61032b61091a565b610333610949565b60cd80546001600160a01b038086166001600160a01b03199283161790925560ce8054928516929091169190911790556040805180820190915260078082526663616e7661737360c81b60209092019182526103919160cc91610d8d565b5060ce5460c980546001600160a01b0319166001600160a01b039092169182179055633a9151b03060cc6103c446610970565b6040516020016103d5929190611159565b6040516020818303038152906040526040518363ffffffff1660e01b81526004016104019291906111e0565b6020604051808303816000875af1158015610420573d6000803e3d6000fd5b505050506040513d601f19601f820116820180604052508101906104449190611204565b60cb5560cc61045246610970565b61045d60cb54610970565b60405160200161046f9392919061121d565b60405160208183030381529060405260ca9080519060200190610493929190610d8d565b5080156104da576000805461ff0019169055604051600181527f7f26b83ff96e1f2b6a682f133852f6798a09c465da95921460cefb38474024989060200160405180910390a15b505050565b306001600160a01b037f00000000000000000000000000000000000000000000000000000000000000001614156105285760405162461bcd60e51b81526004016101c390610fec565b7f00000000000000000000000000000000000000000000000000000000000000006001600160a01b0316610571600080516020611448833981519152546001600160a01b031690565b6001600160a01b0316146105975760405162461bcd60e51b81526004016101c390611038565b6105a0826107a7565b6105ac828260016107af565b5050565b6000306001600160a01b037f000000000000000000000000000000000000000000000000000000000000000016146106505760405162461bcd60e51b815260206004820152603860248201527f555550535570677261646561626c653a206d757374206e6f742062652063616c60448201527f6c6564207468726f7567682064656c656761746563616c6c000000000000000060648201526084016101c3565b5060008051602061144883398151915290565b61066b610a76565b6106756000610ad0565b565b60ce5460c980546001600160a01b0319166001600160a01b03909216918217905560cb546060919063eaf5d04e90309060ca6106b287610970565b6040516020016106c392919061126c565b6040516020818303038152906040526040518463ffffffff1660e01b81526004016106f093929190611305565b600060405180830381600087803b15801561070a57600080fd5b505af115801561071e573d6000803e3d6000fd5b5050505061072b82610970565b92915050565b610739610a76565b6001600160a01b03811661079e5760405162461bcd60e51b815260206004820152602660248201527f4f776e61626c653a206e6577206f776e657220697320746865207a65726f206160448201526564647265737360d01b60648201526084016101c3565b61026081610ad0565b610260610a76565b7f4910fdfa16fed3260ed0e7147f7cc6da11a60208b5b9406d12a635614ffd91435460ff16156107e2576104da83610b22565b826001600160a01b03166352d1902d6040518163ffffffff1660e01b8152600401602060405180830381865afa92505050801561083c575060408051601f3d908101601f1916820190925261083991810190611204565b60015b61089f5760405162461bcd60e51b815260206004820152602e60248201527f45524331393637557067726164653a206e657720696d706c656d656e7461746960448201526d6f6e206973206e6f74205555505360901b60648201526084016101c3565b600080516020611448833981519152811461090e5760405162461bcd60e51b815260206004820152602960248201527f45524331393637557067726164653a20756e737570706f727465642070726f786044820152681a58589b195555525160ba1b60648201526084016101c3565b506104da838383610bbe565b600054610100900460ff166109415760405162461bcd60e51b81526004016101c39061132c565b610675610be9565b600054610100900460ff166106755760405162461bcd60e51b81526004016101c39061132c565b6060816109945750506040805180820190915260018152600360fc1b602082015290565b8160005b81156109be57806109a88161138d565b91506109b79050600a836113be565b9150610998565b60008167ffffffffffffffff8111156109d9576109d9610e90565b6040519080825280601f01601f191660200182016040528015610a03576020820181803683370190505b5090505b8415610a6e57610a186001836113d2565b9150610a25600a866113e9565b610a309060306113fd565b60f81b818381518110610a4557610a45611415565b60200101906001600160f81b031916908160001a905350610a67600a866113be565b9450610a07565b949350505050565b6033546001600160a01b031633146106755760405162461bcd60e51b815260206004820181905260248201527f4f776e61626c653a2063616c6c6572206973206e6f7420746865206f776e657260448201526064016101c3565b603380546001600160a01b038381166001600160a01b0319831681179093556040519116919082907f8be0079c531659141344cd1fd0a4f28419497f9722a3daafe3b4186f6b6457e090600090a35050565b6001600160a01b0381163b610b8f5760405162461bcd60e51b815260206004820152602d60248201527f455243313936373a206e657720696d706c656d656e746174696f6e206973206e60448201526c1bdd08184818dbdb9d1c9858dd609a1b60648201526084016101c3565b60008051602061144883398151915280546001600160a01b0319166001600160a01b0392909216919091179055565b610bc783610c19565b600082511180610bd45750805b156104da57610be38383610c59565b50505050565b600054610100900460ff16610c105760405162461bcd60e51b81526004016101c39061132c565b61067533610ad0565b610c2281610b22565b6040516001600160a01b038216907fbc7cd75a20ee27fd9adebab32041f755214dbc6bffa90cc0225b39da2e5c2d3b90600090a250565b60606001600160a01b0383163b610cc15760405162461bcd60e51b815260206004820152602660248201527f416464726573733a2064656c65676174652063616c6c20746f206e6f6e2d636f6044820152651b9d1c9858dd60d21b60648201526084016101c3565b600080846001600160a01b031684604051610cdc919061142b565b600060405180830381855af49150503d8060008114610d17576040519150601f19603f3d011682016040523d82523d6000602084013e610d1c565b606091505b5091509150610d44828260405180606001604052806027815260200161146860279139610d4d565b95945050505050565b60608315610d5c575081610d86565b825115610d6c5782518084602001fd5b8160405162461bcd60e51b81526004016101c39190610fd9565b9392505050565b828054610d9990611084565b90600052602060002090601f016020900481019282610dbb5760008555610e01565b82601f10610dd457805160ff1916838001178555610e01565b82800160010185558215610e01579182015b82811115610e01578251825591602001919060010190610de6565b50610e0d929150610e11565b5090565b5b80821115610e0d5760008155600101610e12565b80356001600160a01b0381168114610e3d57600080fd5b919050565b600060208284031215610e5457600080fd5b610d8682610e26565b60008060408385031215610e7057600080fd5b610e7983610e26565b9150610e8760208401610e26565b90509250929050565b634e487b7160e01b600052604160045260246000fd5b60008060408385031215610eb957600080fd5b610ec283610e26565b9150602083013567ffffffffffffffff80821115610edf57600080fd5b818501915085601f830112610ef357600080fd5b813581811115610f0557610f05610e90565b604051601f8201601f19908116603f01168101908382118183101715610f2d57610f2d610e90565b81604052828152886020848701011115610f4657600080fd5b8260208601602083013760006020848301015280955050505050509250929050565b600060208284031215610f7a57600080fd5b5035919050565b60005b83811015610f9c578181015183820152602001610f84565b83811115610be35750506000910152565b60008151808452610fc5816020860160208601610f81565b601f01601f19169290920160200192915050565b602081526000610d866020830184610fad565b6020808252602c908201527f46756e6374696f6e206d7573742062652063616c6c6564207468726f7567682060408201526b19195b1959d85d1958d85b1b60a21b606082015260800190565b6020808252602c908201527f46756e6374696f6e206d7573742062652063616c6c6564207468726f7567682060408201526b6163746976652070726f787960a01b606082015260800190565b600181811c9082168061109857607f821691505b602082108114156110b957634e487b7160e01b600052602260045260246000fd5b50919050565b8054600090600181811c90808316806110d957607f831692505b60208084108214156110fb57634e487b7160e01b600052602260045260246000fd5b81801561110f57600181146111205761114d565b60ff1986168952848901965061114d565b60008881526020902060005b868110156111455781548b82015290850190830161112c565b505084890196505b50505050505092915050565b6c021a922a0aa22902a20a126229609d1b8152600061117b600d8301856110bf565b605f60f81b81528351611195816001840160208801610f81565b7f2028696420696e742c2065787465726e616c5f6c696e6b20746578742c207820600192909101918201526b696e742c207920696e74293b60a01b6021820152602d01949350505050565b6001600160a01b0383168152604060208201819052600090610a6e90830184610fad565b60006020828403121561121657600080fd5b5051919050565b600061122982866110bf565b605f60f81b8082528551611244816001850160208a01610f81565b6001920191820152835161125f816002840160208801610f81565b0160020195945050505050565b6b024a729a2a92a1024a72a27960a51b8152600061128d600c8301856110bf565b7f202869642c2065787465726e616c5f6c696e6b2c20782c2079292056414c55458152620a640560eb1b602082015283516112cf816023840160208801610f81565b7f2c20276e6f742e696d706c656d656e7465642e78797a272c20302c203029000060239290910191820152604101949350505050565b60018060a01b0384168152826020820152606060408201526000610d446060830184610fad565b6020808252602b908201527f496e697469616c697a61626c653a20636f6e7472616374206973206e6f74206960408201526a6e697469616c697a696e6760a81b606082015260800190565b634e487b7160e01b600052601160045260246000fd5b60006000198214156113a1576113a1611377565b5060010190565b634e487b7160e01b600052601260045260246000fd5b6000826113cd576113cd6113a8565b500490565b6000828210156113e4576113e4611377565b500390565b6000826113f8576113f86113a8565b500690565b6000821982111561141057611410611377565b500190565b634e487b7160e01b600052603260045260246000fd5b6000825161143d818460208701610f81565b919091019291505056fe360894a13ba1a3210667c828492db98dca3e2076cc3735a920a3ca505d382bbc416464726573733a206c6f772d6c6576656c2064656c65676174652063616c6c206661696c6564a2646970667358221220e744fea5165e25f981aaf197b913df165df9d0e030cd753baaae29266c3dc48964736f6c634300080c0033",
  "linkReferences": {},
  "deployedLinkReferences": {}
}