{
  "_format": "hh-sol-artifact-1",
  "contractName": "NFTCollection",
  "sourceName": "src/backend/contracts/NFTCollection.sol",
  "abi": [
    {
      "inputs": [
        {
          "internalType": "string",
          "name": "_name",
          "type": "string"
        },
        {
          "internalType": "string",
          "name": "_symbol",
          "type": "string"
        },
        {
          "internalType": "address",
          "name": "_owner",
          "type": "address"
        }
      ],
      "stateMutability": "nonpayable",
      "type": "constructor"
    },
    {
      "anonymous": false,
      "inputs": [
        {
          "indexed": true,
          "internalType": "address",
          "name": "owner",
          "type": "address"
        },
        {
          "indexed": true,
          "internalType": "address",
          "name": "approved",
          "type": "address"
        },
        {
          "indexed": true,
          "internalType": "uint256",
          "name": "tokenId",
          "type": "uint256"
        }
      ],
      "name": "Approval",
      "type": "event"
    },
    {
      "anonymous": false,
      "inputs": [
        {
          "indexed": true,
          "internalType": "address",
          "name": "owner",
          "type": "address"
        },
        {
          "indexed": true,
          "internalType": "address",
          "name": "operator",
          "type": "address"
        },
        {
          "indexed": false,
          "internalType": "bool",
          "name": "approved",
          "type": "bool"
        }
      ],
      "name": "ApprovalForAll",
      "type": "event"
    },
    {
      "anonymous": false,
      "inputs": [
        {
          "indexed": true,
          "internalType": "address",
          "name": "previousOwner",
          "type": "address"
        },
        {
          "indexed": true,
          "internalType": "address",
          "name": "newOwner",
          "type": "address"
        }
      ],
      "name": "OwnershipTransferred",
      "type": "event"
    },
    {
      "anonymous": false,
      "inputs": [
        {
          "indexed": false,
          "internalType": "address",
          "name": "account",
          "type": "address"
        }
      ],
      "name": "Paused",
      "type": "event"
    },
    {
      "anonymous": false,
      "inputs": [
        {
          "indexed": true,
          "internalType": "address",
          "name": "from",
          "type": "address"
        },
        {
          "indexed": true,
          "internalType": "address",
          "name": "to",
          "type": "address"
        },
        {
          "indexed": true,
          "internalType": "uint256",
          "name": "tokenId",
          "type": "uint256"
        }
      ],
      "name": "Transfer",
      "type": "event"
    },
    {
      "anonymous": false,
      "inputs": [
        {
          "indexed": false,
          "internalType": "address",
          "name": "account",
          "type": "address"
        }
      ],
      "name": "Unpaused",
      "type": "event"
    },
    {
      "inputs": [
        {
          "internalType": "address",
          "name": "to",
          "type": "address"
        },
        {
          "internalType": "uint256",
          "name": "tokenId",
          "type": "uint256"
        }
      ],
      "name": "approve",
      "outputs": [],
      "stateMutability": "nonpayable",
      "type": "function"
    },
    {
      "inputs": [
        {
          "internalType": "address",
          "name": "owner",
          "type": "address"
        }
      ],
      "name": "balanceOf",
      "outputs": [
        {
          "internalType": "uint256",
          "name": "",
          "type": "uint256"
        }
      ],
      "stateMutability": "view",
      "type": "function"
    },
    {
      "inputs": [
        {
          "internalType": "uint256",
          "name": "tokenId",
          "type": "uint256"
        }
      ],
      "name": "getApproved",
      "outputs": [
        {
          "internalType": "address",
          "name": "",
          "type": "address"
        }
      ],
      "stateMutability": "view",
      "type": "function"
    },
    {
      "inputs": [
        {
          "internalType": "address",
          "name": "owner",
          "type": "address"
        },
        {
          "internalType": "address",
          "name": "operator",
          "type": "address"
        }
      ],
      "name": "isApprovedForAll",
      "outputs": [
        {
          "internalType": "bool",
          "name": "",
          "type": "bool"
        }
      ],
      "stateMutability": "view",
      "type": "function"
    },
    {
      "inputs": [],
      "name": "name",
      "outputs": [
        {
          "internalType": "string",
          "name": "",
          "type": "string"
        }
      ],
      "stateMutability": "view",
      "type": "function"
    },
    {
      "inputs": [
        {
          "internalType": "string",
          "name": "_uri",
          "type": "string"
        },
        {
          "internalType": "uint256",
          "name": "_price",
          "type": "uint256"
        },
        {
          "internalType": "uint256",
          "name": "_supply",
          "type": "uint256"
        }
      ],
      "name": "newCollectionItem",
      "outputs": [],
      "stateMutability": "nonpayable",
      "type": "function"
    },
    {
      "inputs": [],
      "name": "owner",
      "outputs": [
        {
          "internalType": "address",
          "name": "",
          "type": "address"
        }
      ],
      "stateMutability": "view",
      "type": "function"
    },
    {
      "inputs": [
        {
          "internalType": "uint256",
          "name": "tokenId",
          "type": "uint256"
        }
      ],
      "name": "ownerOf",
      "outputs": [
        {
          "internalType": "address",
          "name": "",
          "type": "address"
        }
      ],
      "stateMutability": "view",
      "type": "function"
    },
    {
      "inputs": [],
      "name": "pause",
      "outputs": [],
      "stateMutability": "nonpayable",
      "type": "function"
    },
    {
      "inputs": [],
      "name": "paused",
      "outputs": [
        {
          "internalType": "bool",
          "name": "",
          "type": "bool"
        }
      ],
      "stateMutability": "view",
      "type": "function"
    },
    {
      "inputs": [
        {
          "internalType": "uint256",
          "name": "_collectionId",
          "type": "uint256"
        }
      ],
      "name": "payToMint",
      "outputs": [],
      "stateMutability": "payable",
      "type": "function"
    },
    {
      "inputs": [],
      "name": "renounceOwnership",
      "outputs": [],
      "stateMutability": "nonpayable",
      "type": "function"
    },
    {
      "inputs": [
        {
          "internalType": "address",
          "name": "_to",
          "type": "address"
        },
        {
          "internalType": "uint256",
          "name": "_collectionId",
          "type": "uint256"
        }
      ],
      "name": "safeMint",
      "outputs": [],
      "stateMutability": "nonpayable",
      "type": "function"
    },
    {
      "inputs": [
        {
          "internalType": "address",
          "name": "from",
          "type": "address"
        },
        {
          "internalType": "address",
          "name": "to",
          "type": "address"
        },
        {
          "internalType": "uint256",
          "name": "tokenId",
          "type": "uint256"
        }
      ],
      "name": "safeTransferFrom",
      "outputs": [],
      "stateMutability": "nonpayable",
      "type": "function"
    },
    {
      "inputs": [
        {
          "internalType": "address",
          "name": "from",
          "type": "address"
        },
        {
          "internalType": "address",
          "name": "to",
          "type": "address"
        },
        {
          "internalType": "uint256",
          "name": "tokenId",
          "type": "uint256"
        },
        {
          "internalType": "bytes",
          "name": "data",
          "type": "bytes"
        }
      ],
      "name": "safeTransferFrom",
      "outputs": [],
      "stateMutability": "nonpayable",
      "type": "function"
    },
    {
      "inputs": [
        {
          "internalType": "address",
          "name": "operator",
          "type": "address"
        },
        {
          "internalType": "bool",
          "name": "approved",
          "type": "bool"
        }
      ],
      "name": "setApprovalForAll",
      "outputs": [],
      "stateMutability": "nonpayable",
      "type": "function"
    },
    {
      "inputs": [
        {
          "internalType": "bytes4",
          "name": "interfaceId",
          "type": "bytes4"
        }
      ],
      "name": "supportsInterface",
      "outputs": [
        {
          "internalType": "bool",
          "name": "",
          "type": "bool"
        }
      ],
      "stateMutability": "view",
      "type": "function"
    },
    {
      "inputs": [],
      "name": "symbol",
      "outputs": [
        {
          "internalType": "string",
          "name": "",
          "type": "string"
        }
      ],
      "stateMutability": "view",
      "type": "function"
    },
    {
      "inputs": [
        {
          "internalType": "uint256",
          "name": "index",
          "type": "uint256"
        }
      ],
      "name": "tokenByIndex",
      "outputs": [
        {
          "internalType": "uint256",
          "name": "",
          "type": "uint256"
        }
      ],
      "stateMutability": "view",
      "type": "function"
    },
    {
      "inputs": [
        {
          "internalType": "address",
          "name": "owner",
          "type": "address"
        },
        {
          "internalType": "uint256",
          "name": "index",
          "type": "uint256"
        }
      ],
      "name": "tokenOfOwnerByIndex",
      "outputs": [
        {
          "internalType": "uint256",
          "name": "",
          "type": "uint256"
        }
      ],
      "stateMutability": "view",
      "type": "function"
    },
    {
      "inputs": [
        {
          "internalType": "uint256",
          "name": "tokenId",
          "type": "uint256"
        }
      ],
      "name": "tokenURI",
      "outputs": [
        {
          "internalType": "string",
          "name": "",
          "type": "string"
        }
      ],
      "stateMutability": "view",
      "type": "function"
    },
    {
      "inputs": [],
      "name": "totalSupply",
      "outputs": [
        {
          "internalType": "uint256",
          "name": "",
          "type": "uint256"
        }
      ],
      "stateMutability": "view",
      "type": "function"
    },
    {
      "inputs": [
        {
          "internalType": "address",
          "name": "from",
          "type": "address"
        },
        {
          "internalType": "address",
          "name": "to",
          "type": "address"
        },
        {
          "internalType": "uint256",
          "name": "tokenId",
          "type": "uint256"
        }
      ],
      "name": "transferFrom",
      "outputs": [],
      "stateMutability": "nonpayable",
      "type": "function"
    },
    {
      "inputs": [
        {
          "internalType": "address",
          "name": "newOwner",
          "type": "address"
        }
      ],
      "name": "transferOwnership",
      "outputs": [],
      "stateMutability": "nonpayable",
      "type": "function"
    },
    {
      "inputs": [],
      "name": "unpause",
      "outputs": [],
      "stateMutability": "nonpayable",
      "type": "function"
    },
    {
      "inputs": [
        {
          "internalType": "uint256",
          "name": "_collectionId",
          "type": "uint256"
        },
        {
          "internalType": "uint256",
          "name": "_price",
          "type": "uint256"
        },
        {
          "internalType": "uint256",
          "name": "_supply",
          "type": "uint256"
        }
      ],
      "name": "updateCollectionItem",
      "outputs": [],
      "stateMutability": "nonpayable",
      "type": "function"
    }
  ],
  "bytecode": "0x60806040523480156200001157600080fd5b50604051620027a0380380620027a0833981016040819052620000349162000343565b8251839083906200004d906000906020850190620001d0565b50805162000063906001906020840190620001d0565b5050600b805460ff19169055506200007b336200008f565b6200008681620000e9565b5050506200040d565b600b80546001600160a01b03838116610100818102610100600160a81b031985161790945560405193909204169182907f8be0079c531659141344cd1fd0a4f28419497f9722a3daafe3b4186f6b6457e090600090a35050565b620000f36200016c565b6001600160a01b0381166200015e5760405162461bcd60e51b815260206004820152602660248201527f4f776e61626c653a206e6577206f776e657220697320746865207a65726f206160448201526564647265737360d01b60648201526084015b60405180910390fd5b62000169816200008f565b50565b600b546001600160a01b03610100909104163314620001ce5760405162461bcd60e51b815260206004820181905260248201527f4f776e61626c653a2063616c6c6572206973206e6f7420746865206f776e6572604482015260640162000155565b565b828054620001de90620003d0565b90600052602060002090601f0160209004810192826200020257600085556200024d565b82601f106200021d57805160ff19168380011785556200024d565b828001600101855582156200024d579182015b828111156200024d57825182559160200191906001019062000230565b506200025b9291506200025f565b5090565b5b808211156200025b576000815560010162000260565b634e487b7160e01b600052604160045260246000fd5b600082601f8301126200029e57600080fd5b81516001600160401b0380821115620002bb57620002bb62000276565b604051601f8301601f19908116603f01168101908282118183101715620002e657620002e662000276565b816040528381526020925086838588010111156200030357600080fd5b600091505b8382101562000327578582018301518183018401529082019062000308565b83821115620003395760008385830101525b9695505050505050565b6000806000606084860312156200035957600080fd5b83516001600160401b03808211156200037157600080fd5b6200037f878388016200028c565b945060208601519150808211156200039657600080fd5b50620003a5868287016200028c565b604086015190935090506001600160a01b0381168114620003c557600080fd5b809150509250925092565b600181811c90821680620003e557607f821691505b602082108114156200040757634e487b7160e01b600052602260045260246000fd5b50919050565b612383806200041d6000396000f3fe6080604052600436106101815760003560e01c80635c975abb116100d157806395d89b411161008a578063b88d4fde11610064578063b88d4fde14610438578063c87b56dd14610458578063e985e9c514610478578063f2fde38b146104c157600080fd5b806395d89b41146103e3578063a1448194146103f8578063a22cb4651461041857600080fd5b80635c975abb1461033e5780636352211e1461035657806370a0823114610376578063715018a6146103965780638456cb59146103ab5780638da5cb5b146103c057600080fd5b806323b872dd1161013e5780633f4ba83a116101185780633f4ba83a146102d657806342842e0e146102eb5780634f6ccce71461030b5780635c4c94ae1461032b57600080fd5b806323b872dd1461027657806325336668146102965780632f745c59146102b657600080fd5b806301ffc9a71461018657806306fdde03146101bb578063081812fc146101dd578063095ea7b31461021557806318160ddd14610237578063217603ab14610256575b600080fd5b34801561019257600080fd5b506101a66101a1366004611db2565b6104e1565b60405190151581526020015b60405180910390f35b3480156101c757600080fd5b506101d06104f2565b6040516101b29190611e27565b3480156101e957600080fd5b506101fd6101f8366004611e3a565b610584565b6040516001600160a01b0390911681526020016101b2565b34801561022157600080fd5b50610235610230366004611e6f565b6105ab565b005b34801561024357600080fd5b506008545b6040519081526020016101b2565b34801561026257600080fd5b50610235610271366004611e99565b6106c6565b34801561028257600080fd5b50610235610291366004611ec5565b610798565b3480156102a257600080fd5b506102356102b1366004611f8d565b6107c9565b3480156102c257600080fd5b506102486102d1366004611e6f565b6108ab565b3480156102e257600080fd5b50610235610941565b3480156102f757600080fd5b50610235610306366004611ec5565b610953565b34801561031757600080fd5b50610248610326366004611e3a565b61096e565b610235610339366004611e3a565b610a01565b34801561034a57600080fd5b50600b5460ff166101a6565b34801561036257600080fd5b506101fd610371366004611e3a565b610bdb565b34801561038257600080fd5b50610248610391366004611fef565b610c3b565b3480156103a257600080fd5b50610235610cc1565b3480156103b757600080fd5b50610235610cd3565b3480156103cc57600080fd5b50600b5461010090046001600160a01b03166101fd565b3480156103ef57600080fd5b506101d0610ce3565b34801561040457600080fd5b50610235610413366004611e6f565b610cf2565b34801561042457600080fd5b5061023561043336600461200a565b610df3565b34801561044457600080fd5b50610235610453366004612046565b610e02565b34801561046457600080fd5b506101d0610473366004611e3a565b610e34565b34801561048457600080fd5b506101a66104933660046120c2565b6001600160a01b03918216600090815260056020908152604080832093909416825291909152205460ff1690565b3480156104cd57600080fd5b506102356104dc366004611fef565b610e3f565b60006104ec82610eb8565b92915050565b606060008054610501906120f5565b80601f016020809104026020016040519081016040528092919081815260200182805461052d906120f5565b801561057a5780601f1061054f5761010080835404028352916020019161057a565b820191906000526020600020905b81548152906001019060200180831161055d57829003601f168201915b5050505050905090565b600061058f82610edd565b506000908152600460205260409020546001600160a01b031690565b60006105b682610bdb565b9050806001600160a01b0316836001600160a01b031614156106295760405162461bcd60e51b815260206004820152602160248201527f4552433732313a20617070726f76616c20746f2063757272656e74206f776e656044820152603960f91b60648201526084015b60405180910390fd5b336001600160a01b038216148061064557506106458133610493565b6106b75760405162461bcd60e51b815260206004820152603e60248201527f4552433732313a20617070726f76652063616c6c6572206973206e6f7420746f60448201527f6b656e206f776e6572206e6f7220617070726f76656420666f7220616c6c00006064820152608401610620565b6106c18383610f3c565b505050565b6106ce610faa565b600c548311156106f05760405162461bcd60e51b815260040161062090612130565b6000600c6106ff600186612170565b8154811061070f5761070f612187565b9060005260206000209060050201905060008211156107875780600401548210156107875760405162461bcd60e51b815260206004820152602260248201527f537570706c79206973206c657373207468617420616c7265616479206d696e74604482015261195960f21b6064820152608401610620565b600281019290925560039091015550565b6107a2338261100a565b6107be5760405162461bcd60e51b81526004016106209061219d565b6106c1838383611089565b6107d1610faa565b600083511161080e5760405162461bcd60e51b815260206004820152600960248201526857726f6e672055524960b81b6044820152606401610620565b600c6040518060a00160405280600c80549050600161082d91906121eb565b8152602080820187905260408201869052606082018590526000608090920182905283546001818101865594835291819020835160059093020191825582810151805193949293610885938501929190910190611d03565b506040820151816002015560608201518160030155608082015181600401555050505050565b60006108b683610c3b565b82106109185760405162461bcd60e51b815260206004820152602b60248201527f455243373231456e756d657261626c653a206f776e657220696e646578206f7560448201526a74206f6620626f756e647360a81b6064820152608401610620565b506001600160a01b03919091166000908152600660209081526040808320938352929052205490565b610949610faa565b610951611230565b565b6106c183838360405180602001604052806000815250610e02565b600061097960085490565b82106109dc5760405162461bcd60e51b815260206004820152602c60248201527f455243373231456e756d657261626c653a20676c6f62616c20696e646578206f60448201526b7574206f6620626f756e647360a01b6064820152608401610620565b600882815481106109ef576109ef612187565b90600052602060002001549050919050565b610a09611282565b600c54811115610a2b5760405162461bcd60e51b815260040161062090612130565b6000600c610a3a600184612170565b81548110610a4a57610a4a612187565b90600052602060002090600502019050600081600201541115610aba5734816002015414610aba5760405162461bcd60e51b815260206004820152601c60248201527f57726f6e67207061796d656e7420616d6f756e7420746f206d696e74000000006044820152606401610620565b600381015415610b10578060040154816003015411610b105760405162461bcd60e51b8152602060048201526012602482015271105b1b08139195081dd85cc81b5a5b9d195960721b6044820152606401610620565b6001816004016000828254610b2591906121eb565b9091555050600d54610b3b600d80546001019055565b610b4533826112c8565b6106c181836001018054610b58906120f5565b80601f0160208091040260200160405190810160405280929190818152602001828054610b84906120f5565b8015610bd15780601f10610ba657610100808354040283529160200191610bd1565b820191906000526020600020905b815481529060010190602001808311610bb457829003601f168201915b50505050506112e2565b6000818152600260205260408120546001600160a01b0316806104ec5760405162461bcd60e51b8152602060048201526018602482015277115490cdcc8c4e881a5b9d985b1a59081d1bdad95b88125160421b6044820152606401610620565b60006001600160a01b038216610ca55760405162461bcd60e51b815260206004820152602960248201527f4552433732313a2061646472657373207a65726f206973206e6f7420612076616044820152683634b21037bbb732b960b91b6064820152608401610620565b506001600160a01b031660009081526003602052604090205490565b610cc9610faa565b610951600061137c565b610cdb610faa565b6109516113d6565b606060018054610501906120f5565b610cfa610faa565b610d02611282565b600c54811115610d245760405162461bcd60e51b815260040161062090612130565b6001600160a01b038216610d715760405162461bcd60e51b815260206004820152601460248201527357726f6e672077616c6c6574204164647265737360601b6044820152606401610620565b6000610d7c600d5490565b90506000600c610d8d600185612170565b81548110610d9d57610d9d612187565b906000526020600020906005020190506001816004016000828254610dc291906121eb565b9091555050600d80546001019055610dda84836112c8565b610ded82826001018054610b58906120f5565b50505050565b610dfe338383611413565b5050565b610e0c338361100a565b610e285760405162461bcd60e51b81526004016106209061219d565b610ded848484846114e2565b60606104ec82611515565b610e47610faa565b6001600160a01b038116610eac5760405162461bcd60e51b815260206004820152602660248201527f4f776e61626c653a206e6577206f776e657220697320746865207a65726f206160448201526564647265737360d01b6064820152608401610620565b610eb58161137c565b50565b60006001600160e01b0319821663780e9d6360e01b14806104ec57506104ec8261161e565b6000818152600260205260409020546001600160a01b0316610eb55760405162461bcd60e51b8152602060048201526018602482015277115490cdcc8c4e881a5b9d985b1a59081d1bdad95b88125160421b6044820152606401610620565b600081815260046020526040902080546001600160a01b0319166001600160a01b0384169081179091558190610f7182610bdb565b6001600160a01b03167f8c5be1e5ebec7d5bd14f71427d1e84f3dd0314c0f7b2291e5b200ac8c7c3b92560405160405180910390a45050565b600b546001600160a01b036101009091041633146109515760405162461bcd60e51b815260206004820181905260248201527f4f776e61626c653a2063616c6c6572206973206e6f7420746865206f776e65726044820152606401610620565b60008061101683610bdb565b9050806001600160a01b0316846001600160a01b0316148061105d57506001600160a01b0380821660009081526005602090815260408083209388168352929052205460ff165b806110815750836001600160a01b031661107684610584565b6001600160a01b0316145b949350505050565b826001600160a01b031661109c82610bdb565b6001600160a01b0316146111005760405162461bcd60e51b815260206004820152602560248201527f4552433732313a207472616e736665722066726f6d20696e636f72726563742060448201526437bbb732b960d91b6064820152608401610620565b6001600160a01b0382166111625760405162461bcd60e51b8152602060048201526024808201527f4552433732313a207472616e7366657220746f20746865207a65726f206164646044820152637265737360e01b6064820152608401610620565b61116d83838361166e565b611178600082610f3c565b6001600160a01b03831660009081526003602052604081208054600192906111a1908490612170565b90915550506001600160a01b03821660009081526003602052604081208054600192906111cf9084906121eb565b909155505060008181526002602052604080822080546001600160a01b0319166001600160a01b0386811691821790925591518493918716917fddf252ad1be2c89b69c2b068fc378daa952ba7f163c4a11628f55a4df523b3ef91a4505050565b611238611681565b600b805460ff191690557f5db9ee0a495bf2e6ff9c91a7834c1ba4fdd244a5e8aa4e537bd38aeae4b073aa335b6040516001600160a01b03909116815260200160405180910390a1565b600b5460ff16156109515760405162461bcd60e51b815260206004820152601060248201526f14185d5cd8589b194e881c185d5cd95960821b6044820152606401610620565b610dfe8282604051806020016040528060008152506116ca565b6000828152600260205260409020546001600160a01b031661135d5760405162461bcd60e51b815260206004820152602e60248201527f45524337323155524953746f726167653a2055524920736574206f66206e6f6e60448201526d32bc34b9ba32b73a103a37b5b2b760911b6064820152608401610620565b6000828152600a6020908152604090912082516106c192840190611d03565b600b80546001600160a01b03838116610100818102610100600160a81b031985161790945560405193909204169182907f8be0079c531659141344cd1fd0a4f28419497f9722a3daafe3b4186f6b6457e090600090a35050565b6113de611282565b600b805460ff191660011790557f62e78cea01bee320cd4e420270b5ea74000d11b0c9f74754ebdbfc544b05a2586112653390565b816001600160a01b0316836001600160a01b031614156114755760405162461bcd60e51b815260206004820152601960248201527f4552433732313a20617070726f766520746f2063616c6c6572000000000000006044820152606401610620565b6001600160a01b03838116600081815260056020908152604080832094871680845294825291829020805460ff191686151590811790915591519182527f17307eab39ab6107e8899845ad3d59bd9653f200f220920489ca2b5937696c31910160405180910390a3505050565b6114ed848484611089565b6114f9848484846116fd565b610ded5760405162461bcd60e51b815260040161062090612203565b606061152082610edd565b6000828152600a602052604081208054611539906120f5565b80601f0160208091040260200160405190810160405280929190818152602001828054611565906120f5565b80156115b25780601f10611587576101008083540402835291602001916115b2565b820191906000526020600020905b81548152906001019060200180831161159557829003601f168201915b5050505050905060006115d060408051602081019091526000815290565b90508051600014156115e3575092915050565b8151156116155780826040516020016115fd929190612255565b60405160208183030381529060405292505050919050565b611081846117fb565b60006001600160e01b031982166380ac58cd60e01b148061164f57506001600160e01b03198216635b5e139f60e01b145b806104ec57506301ffc9a760e01b6001600160e01b03198316146104ec565b611676611282565b6106c183838361186f565b600b5460ff166109515760405162461bcd60e51b815260206004820152601460248201527314185d5cd8589b194e881b9bdd081c185d5cd95960621b6044820152606401610620565b6116d48383611927565b6116e160008484846116fd565b6106c15760405162461bcd60e51b815260040161062090612203565b60006001600160a01b0384163b156117f057604051630a85bd0160e11b81526001600160a01b0385169063150b7a0290611741903390899088908890600401612284565b6020604051808303816000875af192505050801561177c575060408051601f3d908101601f19168201909252611779918101906122c1565b60015b6117d6573d8080156117aa576040519150601f19603f3d011682016040523d82523d6000602084013e6117af565b606091505b5080516117ce5760405162461bcd60e51b815260040161062090612203565b805181602001fd5b6001600160e01b031916630a85bd0160e11b149050611081565b506001949350505050565b606061180682610edd565b600061181d60408051602081019091526000815290565b9050600081511161183d5760405180602001604052806000815250611868565b8061184784611a75565b604051602001611858929190612255565b6040516020818303038152906040525b9392505050565b6001600160a01b0383166118ca576118c581600880546000838152600960205260408120829055600182018355919091527ff3f7a9fe364faab93b216da50a3214154f22a0a2b415b23a84c8169e8b636ee30155565b6118ed565b816001600160a01b0316836001600160a01b0316146118ed576118ed8382611b73565b6001600160a01b038216611904576106c181611c10565b826001600160a01b0316826001600160a01b0316146106c1576106c18282611cbf565b6001600160a01b03821661197d5760405162461bcd60e51b815260206004820181905260248201527f4552433732313a206d696e7420746f20746865207a65726f20616464726573736044820152606401610620565b6000818152600260205260409020546001600160a01b0316156119e25760405162461bcd60e51b815260206004820152601c60248201527f4552433732313a20746f6b656e20616c7265616479206d696e746564000000006044820152606401610620565b6119ee6000838361166e565b6001600160a01b0382166000908152600360205260408120805460019290611a179084906121eb565b909155505060008181526002602052604080822080546001600160a01b0319166001600160a01b03861690811790915590518392907fddf252ad1be2c89b69c2b068fc378daa952ba7f163c4a11628f55a4df523b3ef908290a45050565b606081611a995750506040805180820190915260018152600360fc1b602082015290565b8160005b8115611ac35780611aad816122de565b9150611abc9050600a8361230f565b9150611a9d565b60008167ffffffffffffffff811115611ade57611ade611f01565b6040519080825280601f01601f191660200182016040528015611b08576020820181803683370190505b5090505b841561108157611b1d600183612170565b9150611b2a600a86612323565b611b359060306121eb565b60f81b818381518110611b4a57611b4a612187565b60200101906001600160f81b031916908160001a905350611b6c600a8661230f565b9450611b0c565b60006001611b8084610c3b565b611b8a9190612170565b600083815260076020526040902054909150808214611bdd576001600160a01b03841660009081526006602090815260408083208584528252808320548484528184208190558352600790915290208190555b5060009182526007602090815260408084208490556001600160a01b039094168352600681528383209183525290812055565b600854600090611c2290600190612170565b60008381526009602052604081205460088054939450909284908110611c4a57611c4a612187565b906000526020600020015490508060088381548110611c6b57611c6b612187565b6000918252602080832090910192909255828152600990915260408082208490558582528120556008805480611ca357611ca3612337565b6001900381819060005260206000200160009055905550505050565b6000611cca83610c3b565b6001600160a01b039093166000908152600660209081526040808320868452825280832085905593825260079052919091209190915550565b828054611d0f906120f5565b90600052602060002090601f016020900481019282611d315760008555611d77565b82601f10611d4a57805160ff1916838001178555611d77565b82800160010185558215611d77579182015b82811115611d77578251825591602001919060010190611d5c565b50611d83929150611d87565b5090565b5b80821115611d835760008155600101611d88565b6001600160e01b031981168114610eb557600080fd5b600060208284031215611dc457600080fd5b813561186881611d9c565b60005b83811015611dea578181015183820152602001611dd2565b83811115610ded5750506000910152565b60008151808452611e13816020860160208601611dcf565b601f01601f19169290920160200192915050565b6020815260006118686020830184611dfb565b600060208284031215611e4c57600080fd5b5035919050565b80356001600160a01b0381168114611e6a57600080fd5b919050565b60008060408385031215611e8257600080fd5b611e8b83611e53565b946020939093013593505050565b600080600060608486031215611eae57600080fd5b505081359360208301359350604090920135919050565b600080600060608486031215611eda57600080fd5b611ee384611e53565b9250611ef160208501611e53565b9150604084013590509250925092565b634e487b7160e01b600052604160045260246000fd5b600067ffffffffffffffff80841115611f3257611f32611f01565b604051601f8501601f19908116603f01168101908282118183101715611f5a57611f5a611f01565b81604052809350858152868686011115611f7357600080fd5b858560208301376000602087830101525050509392505050565b600080600060608486031215611fa257600080fd5b833567ffffffffffffffff811115611fb957600080fd5b8401601f81018613611fca57600080fd5b611fd986823560208401611f17565b9660208601359650604090950135949350505050565b60006020828403121561200157600080fd5b61186882611e53565b6000806040838503121561201d57600080fd5b61202683611e53565b91506020830135801515811461203b57600080fd5b809150509250929050565b6000806000806080858703121561205c57600080fd5b61206585611e53565b935061207360208601611e53565b925060408501359150606085013567ffffffffffffffff81111561209657600080fd5b8501601f810187136120a757600080fd5b6120b687823560208401611f17565b91505092959194509250565b600080604083850312156120d557600080fd5b6120de83611e53565b91506120ec60208401611e53565b90509250929050565b600181811c9082168061210957607f821691505b6020821081141561212a57634e487b7160e01b600052602260045260246000fd5b50919050565b60208082526010908201526f2bb937b7339021b7b63632b1ba34b7b760811b604082015260600190565b634e487b7160e01b600052601160045260246000fd5b6000828210156121825761218261215a565b500390565b634e487b7160e01b600052603260045260246000fd5b6020808252602e908201527f4552433732313a2063616c6c6572206973206e6f7420746f6b656e206f776e6560408201526d1c881b9bdc88185c1c1c9bdd995960921b606082015260800190565b600082198211156121fe576121fe61215a565b500190565b60208082526032908201527f4552433732313a207472616e7366657220746f206e6f6e20455243373231526560408201527131b2b4bb32b91034b6b83632b6b2b73a32b960711b606082015260800190565b60008351612267818460208801611dcf565b83519083019061227b818360208801611dcf565b01949350505050565b6001600160a01b03858116825284166020820152604081018390526080606082018190526000906122b790830184611dfb565b9695505050505050565b6000602082840312156122d357600080fd5b815161186881611d9c565b60006000198214156122f2576122f261215a565b5060010190565b634e487b7160e01b600052601260045260246000fd5b60008261231e5761231e6122f9565b500490565b600082612332576123326122f9565b500690565b634e487b7160e01b600052603160045260246000fdfea2646970667358221220d186cf0d7485916b5159c0208842c96b2456737688f949346f30271b7d4ca3a364736f6c634300080c0033",
  "linkReferences": {},
  "deployedLinkReferences": {}
}