{
  "_format": "hh-sol-artifact-1",
  "contractName": "NFTCollection",
  "sourceName": "src/backend/contracts/_NFTCollection.sol",
  "abi": [
    {
      "inputs": [
        {
          "internalType": "string",
          "name": "_name",
          "type": "string"
        },
        {
          "internalType": "string",
          "name": "_symbol",
          "type": "string"
        },
        {
          "internalType": "address",
          "name": "_owner",
          "type": "address"
        },
        {
          "internalType": "contract IWorldID",
          "name": "_worldId",
          "type": "address"
        }
      ],
      "stateMutability": "nonpayable",
      "type": "constructor"
    },
    {
      "inputs": [],
      "name": "InvalidNullifier",
      "type": "error"
    },
    {
      "anonymous": false,
      "inputs": [
        {
          "indexed": true,
          "internalType": "address",
          "name": "account",
          "type": "address"
        },
        {
          "indexed": true,
          "internalType": "address",
          "name": "operator",
          "type": "address"
        },
        {
          "indexed": false,
          "internalType": "bool",
          "name": "approved",
          "type": "bool"
        }
      ],
      "name": "ApprovalForAll",
      "type": "event"
    },
    {
      "anonymous": false,
      "inputs": [
        {
          "indexed": true,
          "internalType": "address",
          "name": "previousOwner",
          "type": "address"
        },
        {
          "indexed": true,
          "internalType": "address",
          "name": "newOwner",
          "type": "address"
        }
      ],
      "name": "OwnershipTransferred",
      "type": "event"
    },
    {
      "anonymous": false,
      "inputs": [
        {
          "indexed": false,
          "internalType": "address",
          "name": "account",
          "type": "address"
        }
      ],
      "name": "Paused",
      "type": "event"
    },
    {
      "anonymous": false,
      "inputs": [
        {
          "indexed": true,
          "internalType": "address",
          "name": "operator",
          "type": "address"
        },
        {
          "indexed": true,
          "internalType": "address",
          "name": "from",
          "type": "address"
        },
        {
          "indexed": true,
          "internalType": "address",
          "name": "to",
          "type": "address"
        },
        {
          "indexed": false,
          "internalType": "uint256[]",
          "name": "ids",
          "type": "uint256[]"
        },
        {
          "indexed": false,
          "internalType": "uint256[]",
          "name": "values",
          "type": "uint256[]"
        }
      ],
      "name": "TransferBatch",
      "type": "event"
    },
    {
      "anonymous": false,
      "inputs": [
        {
          "indexed": true,
          "internalType": "address",
          "name": "operator",
          "type": "address"
        },
        {
          "indexed": true,
          "internalType": "address",
          "name": "from",
          "type": "address"
        },
        {
          "indexed": true,
          "internalType": "address",
          "name": "to",
          "type": "address"
        },
        {
          "indexed": false,
          "internalType": "uint256",
          "name": "id",
          "type": "uint256"
        },
        {
          "indexed": false,
          "internalType": "uint256",
          "name": "value",
          "type": "uint256"
        }
      ],
      "name": "TransferSingle",
      "type": "event"
    },
    {
      "anonymous": false,
      "inputs": [
        {
          "indexed": false,
          "internalType": "string",
          "name": "value",
          "type": "string"
        },
        {
          "indexed": true,
          "internalType": "uint256",
          "name": "id",
          "type": "uint256"
        }
      ],
      "name": "URI",
      "type": "event"
    },
    {
      "anonymous": false,
      "inputs": [
        {
          "indexed": false,
          "internalType": "address",
          "name": "account",
          "type": "address"
        }
      ],
      "name": "Unpaused",
      "type": "event"
    },
    {
      "inputs": [
        {
          "internalType": "address",
          "name": "account",
          "type": "address"
        },
        {
          "internalType": "uint256",
          "name": "id",
          "type": "uint256"
        }
      ],
      "name": "balanceOf",
      "outputs": [
        {
          "internalType": "uint256",
          "name": "",
          "type": "uint256"
        }
      ],
      "stateMutability": "view",
      "type": "function"
    },
    {
      "inputs": [
        {
          "internalType": "address[]",
          "name": "accounts",
          "type": "address[]"
        },
        {
          "internalType": "uint256[]",
          "name": "ids",
          "type": "uint256[]"
        }
      ],
      "name": "balanceOfBatch",
      "outputs": [
        {
          "internalType": "uint256[]",
          "name": "",
          "type": "uint256[]"
        }
      ],
      "stateMutability": "view",
      "type": "function"
    },
    {
      "inputs": [
        {
          "internalType": "uint256",
          "name": "_collectionId",
          "type": "uint256"
        }
      ],
      "name": "cancelDistributionCampaign",
      "outputs": [],
      "stateMutability": "nonpayable",
      "type": "function"
    },
    {
      "inputs": [
        {
          "internalType": "uint256",
          "name": "",
          "type": "uint256"
        }
      ],
      "name": "collections",
      "outputs": [
        {
          "internalType": "string",
          "name": "title",
          "type": "string"
        },
        {
          "internalType": "string",
          "name": "jsonUri",
          "type": "string"
        },
        {
          "internalType": "string",
          "name": "mediaUri",
          "type": "string"
        },
        {
          "internalType": "uint256",
          "name": "id",
          "type": "uint256"
        },
        {
          "internalType": "uint256",
          "name": "price",
          "type": "uint256"
        },
        {
          "internalType": "uint256",
          "name": "supply",
          "type": "uint256"
        },
        {
          "internalType": "uint256",
          "name": "mintedTotal",
          "type": "uint256"
        },
        {
          "components": [
            {
              "internalType": "address",
              "name": "account",
              "type": "address"
            },
            {
              "internalType": "uint256",
              "name": "percent",
              "type": "uint256"
            }
          ],
          "internalType": "struct NFTCollection.CollectionRoyalty",
          "name": "royalty",
          "type": "tuple"
        },
        {
          "components": [
            {
              "internalType": "uint256",
              "name": "dateStart",
              "type": "uint256"
            },
            {
              "internalType": "uint256",
              "name": "dateEnd",
              "type": "uint256"
            },
            {
              "internalType": "uint256",
              "name": "eventCode",
              "type": "uint256"
            },
            {
              "internalType": "enum NFTCollection.DistributionType",
              "name": "distType",
              "type": "uint8"
            },
            {
              "internalType": "address[]",
              "name": "whitelist",
              "type": "address[]"
            },
            {
              "internalType": "string",
              "name": "worldcoinAction",
              "type": "string"
            }
          ],
          "internalType": "struct NFTCollection.DistributionCampaign",
          "name": "distribution",
          "type": "tuple"
        }
      ],
      "stateMutability": "view",
      "type": "function"
    },
    {
      "inputs": [],
      "name": "collectionsTotal",
      "outputs": [
        {
          "internalType": "uint256",
          "name": "",
          "type": "uint256"
        }
      ],
      "stateMutability": "view",
      "type": "function"
    },
    {
      "inputs": [
        {
          "internalType": "uint256",
          "name": "_collectionId",
          "type": "uint256"
        },
        {
          "internalType": "enum NFTCollection.DistributionType",
          "name": "_distType",
          "type": "uint8"
        },
        {
          "internalType": "uint256",
          "name": "_dateStart",
          "type": "uint256"
        },
        {
          "internalType": "uint256",
          "name": "_dateEnd",
          "type": "uint256"
        },
        {
          "internalType": "address[]",
          "name": "_whitelist",
          "type": "address[]"
        },
        {
          "internalType": "string",
          "name": "_worldcoinAction",
          "type": "string"
        }
      ],
      "name": "createDistributionCampaign",
      "outputs": [],
      "stateMutability": "nonpayable",
      "type": "function"
    },
    {
      "inputs": [
        {
          "internalType": "uint256",
          "name": "id",
          "type": "uint256"
        }
      ],
      "name": "exists",
      "outputs": [
        {
          "internalType": "bool",
          "name": "",
          "type": "bool"
        }
      ],
      "stateMutability": "view",
      "type": "function"
    },
    {
      "inputs": [],
      "name": "getCollections",
      "outputs": [
        {
          "components": [
            {
              "internalType": "string",
              "name": "title",
              "type": "string"
            },
            {
              "internalType": "string",
              "name": "jsonUri",
              "type": "string"
            },
            {
              "internalType": "string",
              "name": "mediaUri",
              "type": "string"
            },
            {
              "internalType": "uint256",
              "name": "id",
              "type": "uint256"
            },
            {
              "internalType": "uint256",
              "name": "price",
              "type": "uint256"
            },
            {
              "internalType": "uint256",
              "name": "supply",
              "type": "uint256"
            },
            {
              "internalType": "uint256",
              "name": "mintedTotal",
              "type": "uint256"
            },
            {
              "components": [
                {
                  "internalType": "address",
                  "name": "account",
                  "type": "address"
                },
                {
                  "internalType": "uint256",
                  "name": "percent",
                  "type": "uint256"
                }
              ],
              "internalType": "struct NFTCollection.CollectionRoyalty",
              "name": "royalty",
              "type": "tuple"
            },
            {
              "components": [
                {
                  "internalType": "uint256",
                  "name": "dateStart",
                  "type": "uint256"
                },
                {
                  "internalType": "uint256",
                  "name": "dateEnd",
                  "type": "uint256"
                },
                {
                  "internalType": "uint256",
                  "name": "eventCode",
                  "type": "uint256"
                },
                {
                  "internalType": "enum NFTCollection.DistributionType",
                  "name": "distType",
                  "type": "uint8"
                },
                {
                  "internalType": "address[]",
                  "name": "whitelist",
                  "type": "address[]"
                },
                {
                  "internalType": "string",
                  "name": "worldcoinAction",
                  "type": "string"
                }
              ],
              "internalType": "struct NFTCollection.DistributionCampaign",
              "name": "distribution",
              "type": "tuple"
            }
          ],
          "internalType": "struct NFTCollection.Collection[]",
          "name": "",
          "type": "tuple[]"
        }
      ],
      "stateMutability": "view",
      "type": "function"
    },
    {
      "inputs": [
        {
          "internalType": "address",
          "name": "account",
          "type": "address"
        },
        {
          "internalType": "address",
          "name": "operator",
          "type": "address"
        }
      ],
      "name": "isApprovedForAll",
      "outputs": [
        {
          "internalType": "bool",
          "name": "",
          "type": "bool"
        }
      ],
      "stateMutability": "view",
      "type": "function"
    },
    {
      "inputs": [
        {
          "internalType": "address",
          "name": "_account",
          "type": "address"
        },
        {
          "internalType": "uint256",
          "name": "_collectionId",
          "type": "uint256"
        },
        {
          "internalType": "uint256",
          "name": "_amount",
          "type": "uint256"
        }
      ],
      "name": "mint",
      "outputs": [],
      "stateMutability": "nonpayable",
      "type": "function"
    },
    {
      "inputs": [],
      "name": "name",
      "outputs": [
        {
          "internalType": "string",
          "name": "",
          "type": "string"
        }
      ],
      "stateMutability": "view",
      "type": "function"
    },
    {
      "inputs": [
        {
          "internalType": "string",
          "name": "_jsonUri",
          "type": "string"
        },
        {
          "internalType": "string",
          "name": "_mediaUri",
          "type": "string"
        },
        {
          "internalType": "string",
          "name": "_title",
          "type": "string"
        },
        {
          "internalType": "uint256",
          "name": "_price",
          "type": "uint256"
        },
        {
          "internalType": "uint256",
          "name": "_supply",
          "type": "uint256"
        },
        {
          "components": [
            {
              "internalType": "address",
              "name": "account",
              "type": "address"
            },
            {
              "internalType": "uint256",
              "name": "percent",
              "type": "uint256"
            }
          ],
          "internalType": "struct NFTCollection.CollectionRoyalty",
          "name": "_royalty",
          "type": "tuple"
        }
      ],
      "name": "newCollectionItem",
      "outputs": [],
      "stateMutability": "nonpayable",
      "type": "function"
    },
    {
      "inputs": [],
      "name": "owner",
      "outputs": [
        {
          "internalType": "address",
          "name": "",
          "type": "address"
        }
      ],
      "stateMutability": "view",
      "type": "function"
    },
    {
      "inputs": [],
      "name": "pause",
      "outputs": [],
      "stateMutability": "nonpayable",
      "type": "function"
    },
    {
      "inputs": [],
      "name": "paused",
      "outputs": [
        {
          "internalType": "bool",
          "name": "",
          "type": "bool"
        }
      ],
      "stateMutability": "view",
      "type": "function"
    },
    {
      "inputs": [
        {
          "internalType": "uint256",
          "name": "_collectionId",
          "type": "uint256"
        },
        {
          "internalType": "uint256",
          "name": "_amount",
          "type": "uint256"
        },
        {
          "internalType": "uint256",
          "name": "_eventCode",
          "type": "uint256"
        },
        {
          "internalType": "string",
          "name": "email",
          "type": "string"
        },
        {
          "internalType": "uint256",
          "name": "root",
          "type": "uint256"
        },
        {
          "internalType": "uint256",
          "name": "nullifierHash",
          "type": "uint256"
        },
        {
          "internalType": "uint256[8]",
          "name": "proof",
          "type": "uint256[8]"
        }
      ],
      "name": "payToMint",
      "outputs": [],
      "stateMutability": "payable",
      "type": "function"
    },
    {
      "inputs": [],
      "name": "renounceOwnership",
      "outputs": [],
      "stateMutability": "nonpayable",
      "type": "function"
    },
    {
      "inputs": [
        {
          "internalType": "address",
          "name": "from",
          "type": "address"
        },
        {
          "internalType": "address",
          "name": "to",
          "type": "address"
        },
        {
          "internalType": "uint256[]",
          "name": "ids",
          "type": "uint256[]"
        },
        {
          "internalType": "uint256[]",
          "name": "amounts",
          "type": "uint256[]"
        },
        {
          "internalType": "bytes",
          "name": "data",
          "type": "bytes"
        }
      ],
      "name": "safeBatchTransferFrom",
      "outputs": [],
      "stateMutability": "nonpayable",
      "type": "function"
    },
    {
      "inputs": [
        {
          "internalType": "address",
          "name": "from",
          "type": "address"
        },
        {
          "internalType": "address",
          "name": "to",
          "type": "address"
        },
        {
          "internalType": "uint256",
          "name": "id",
          "type": "uint256"
        },
        {
          "internalType": "uint256",
          "name": "amount",
          "type": "uint256"
        },
        {
          "internalType": "bytes",
          "name": "data",
          "type": "bytes"
        }
      ],
      "name": "safeTransferFrom",
      "outputs": [],
      "stateMutability": "nonpayable",
      "type": "function"
    },
    {
      "inputs": [
        {
          "internalType": "address",
          "name": "operator",
          "type": "address"
        },
        {
          "internalType": "bool",
          "name": "approved",
          "type": "bool"
        }
      ],
      "name": "setApprovalForAll",
      "outputs": [],
      "stateMutability": "nonpayable",
      "type": "function"
    },
    {
      "inputs": [
        {
          "internalType": "bytes4",
          "name": "interfaceId",
          "type": "bytes4"
        }
      ],
      "name": "supportsInterface",
      "outputs": [
        {
          "internalType": "bool",
          "name": "",
          "type": "bool"
        }
      ],
      "stateMutability": "view",
      "type": "function"
    },
    {
      "inputs": [],
      "name": "symbol",
      "outputs": [
        {
          "internalType": "string",
          "name": "",
          "type": "string"
        }
      ],
      "stateMutability": "view",
      "type": "function"
    },
    {
      "inputs": [
        {
          "internalType": "uint256",
          "name": "id",
          "type": "uint256"
        }
      ],
      "name": "totalSupply",
      "outputs": [
        {
          "internalType": "uint256",
          "name": "",
          "type": "uint256"
        }
      ],
      "stateMutability": "view",
      "type": "function"
    },
    {
      "inputs": [
        {
          "internalType": "address",
          "name": "newOwner",
          "type": "address"
        }
      ],
      "name": "transferOwnership",
      "outputs": [],
      "stateMutability": "nonpayable",
      "type": "function"
    },
    {
      "inputs": [],
      "name": "unpause",
      "outputs": [],
      "stateMutability": "nonpayable",
      "type": "function"
    },
    {
      "inputs": [
        {
          "internalType": "uint256",
          "name": "_collectionId",
          "type": "uint256"
        },
        {
          "internalType": "uint256",
          "name": "_price",
          "type": "uint256"
        },
        {
          "internalType": "uint256",
          "name": "_supply",
          "type": "uint256"
        },
        {
          "components": [
            {
              "internalType": "address",
              "name": "account",
              "type": "address"
            },
            {
              "internalType": "uint256",
              "name": "percent",
              "type": "uint256"
            }
          ],
          "internalType": "struct NFTCollection.CollectionRoyalty",
          "name": "_royalty",
          "type": "tuple"
        }
      ],
      "name": "updateCollectionItem",
      "outputs": [],
      "stateMutability": "nonpayable",
      "type": "function"
    },
    {
      "inputs": [
        {
          "internalType": "uint256",
          "name": "_tokenId",
          "type": "uint256"
        }
      ],
      "name": "uri",
      "outputs": [
        {
          "internalType": "string",
          "name": "",
          "type": "string"
        }
      ],
      "stateMutability": "view",
      "type": "function"
    }
  ],
  "bytecode": "0x60a060405260016080523480156200001657600080fd5b5060405162003c8238038062003c828339810160408190526200003991620003a2565b6040805160208101909152600081526200005381620000cd565b506200005f33620000e6565b6003805460ff60a01b19169055620000778262000138565b83516200008c90600590602087019062000219565b508251620000a290600690602086019062000219565b50600980546001600160a01b0319166001600160a01b03929092169190911790555062000473915050565b8051620000e290600290602084019062000219565b5050565b600380546001600160a01b038381166001600160a01b0319831681179093556040519116919082907f8be0079c531659141344cd1fd0a4f28419497f9722a3daafe3b4186f6b6457e090600090a35050565b62000142620001bb565b6001600160a01b038116620001ad5760405162461bcd60e51b815260206004820152602660248201527f4f776e61626c653a206e6577206f776e657220697320746865207a65726f206160448201526564647265737360d01b60648201526084015b60405180910390fd5b620001b881620000e6565b50565b6003546001600160a01b03163314620002175760405162461bcd60e51b815260206004820181905260248201527f4f776e61626c653a2063616c6c6572206973206e6f7420746865206f776e65726044820152606401620001a4565b565b828054620002279062000436565b90600052602060002090601f0160209004810192826200024b576000855562000296565b82601f106200026657805160ff191683800117855562000296565b8280016001018555821562000296579182015b828111156200029657825182559160200191906001019062000279565b50620002a4929150620002a8565b5090565b5b80821115620002a45760008155600101620002a9565b634e487b7160e01b600052604160045260246000fd5b600082601f830112620002e757600080fd5b81516001600160401b0380821115620003045762000304620002bf565b604051601f8301601f19908116603f011681019082821181831017156200032f576200032f620002bf565b816040528381526020925086838588010111156200034c57600080fd5b600091505b8382101562000370578582018301518183018401529082019062000351565b83821115620003825760008385830101525b9695505050505050565b6001600160a01b0381168114620001b857600080fd5b60008060008060808587031215620003b957600080fd5b84516001600160401b0380821115620003d157600080fd5b620003df88838901620002d5565b95506020870151915080821115620003f657600080fd5b506200040587828801620002d5565b935050604085015162000418816200038c565b60608601519092506200042b816200038c565b939692955090935050565b600181811c908216806200044b57607f821691505b602082108114156200046d57634e487b7160e01b600052602260045260246000fd5b50919050565b6080516137f36200048f600039600061126d01526137f36000f3fe60806040526004361061019b5760003560e01c8063535efe11116100ec578063a22cb4651161008a578063e985e9c511610064578063e985e9c514610496578063f242432a146104df578063f2fde38b146104ff578063fdbda0ec1461051f57600080fd5b8063a22cb46514610429578063bd85b03914610449578063cb27d43f1461047657600080fd5b8063715018a6116100c6578063715018a6146103c25780638456cb59146103d75780638da5cb5b146103ec57806395d89b411461041457600080fd5b8063535efe11146103705780635c975abb146103835780635e7ea74c146103a257600080fd5b80632eb2c2d6116101595780633f4ba83a116101335780633f4ba83a146102dd57806346e63586146102f25780634e1273f4146103145780634f558e791461034157600080fd5b80632eb2c2d61461027d578063360ca3b91461029d578063381da488146102bd57600080fd5b8062fdd58e146101a057806301ffc9a7146101d357806306fdde03146102035780630e89341c14610225578063156e29f6146102455780632e17af0714610267575b600080fd5b3480156101ac57600080fd5b506101c06101bb3660046129dd565b610554565b6040519081526020015b60405180910390f35b3480156101df57600080fd5b506101f36101ee366004612a1d565b6105ea565b60405190151581526020016101ca565b34801561020f57600080fd5b5061021861063c565b6040516101ca9190612a92565b34801561023157600080fd5b50610218610240366004612aa5565b6106ca565b34801561025157600080fd5b50610265610260366004612abe565b610790565b005b34801561027357600080fd5b506101c060075481565b34801561028957600080fd5b50610265610298366004612c3d565b610904565b3480156102a957600080fd5b506102656102b8366004612d54565b610950565b3480156102c957600080fd5b506102656102d8366004612aa5565b610a79565b3480156102e957600080fd5b50610265610b32565b3480156102fe57600080fd5b50610307610b44565b6040516101ca9190612eb5565b34801561032057600080fd5b5061033461032f366004612fbf565b610f2e565b6040516101ca919061305e565b34801561034d57600080fd5b506101f361035c366004612aa5565b600090815260046020526040902054151590565b61026561037e366004613071565b611058565b34801561038f57600080fd5b50600354600160a01b900460ff166101f3565b3480156103ae57600080fd5b506102656103bd366004613150565b611379565b3480156103ce57600080fd5b5061026561151c565b3480156103e357600080fd5b5061026561152e565b3480156103f857600080fd5b506003546040516001600160a01b0390911681526020016101ca565b34801561042057600080fd5b5061021861153e565b34801561043557600080fd5b50610265610444366004613190565b61154b565b34801561045557600080fd5b506101c0610464366004612aa5565b60009081526004602052604090205490565b34801561048257600080fd5b506102656104913660046131cc565b61155a565b3480156104a257600080fd5b506101f36104b1366004613278565b6001600160a01b03918216600090815260016020908152604080832093909416825291909152205460ff1690565b3480156104eb57600080fd5b506102656104fa3660046132ab565b6117e2565b34801561050b57600080fd5b5061026561051a366004613310565b611827565b34801561052b57600080fd5b5061053f61053a366004612aa5565b6118a0565b6040516101ca9998979695949392919061332b565b60006001600160a01b0383166105c45760405162461bcd60e51b815260206004820152602a60248201527f455243313135353a2061646472657373207a65726f206973206e6f742061207660448201526930b634b21037bbb732b960b11b60648201526084015b60405180910390fd5b506000908152602081815260408083206001600160a01b03949094168352929052205490565b60006001600160e01b03198216636cdb3d1360e11b148061061b57506001600160e01b031982166303a24d0760e21b145b8061063657506301ffc9a760e01b6001600160e01b03198316145b92915050565b60058054610649906133c4565b80601f0160208091040260200160405190810160405280929190818152602001828054610675906133c4565b80156106c25780601f10610697576101008083540402835291602001916106c2565b820191906000526020600020905b8154815290600101906020018083116106a557829003601f168201915b505050505081565b6060600060086106db600185613415565b815481106106eb576106eb61342c565b90600052602060002090600f0201905080600101805461070a906133c4565b80601f0160208091040260200160405190810160405280929190818152602001828054610736906133c4565b80156107835780601f1061075857610100808354040283529160200191610783565b820191906000526020600020905b81548152906001019060200180831161076657829003601f168201915b5050505050915050919050565b610798611c0c565b600081116107dc5760405162461bcd60e51b815260206004820152601160248201527015dc9bdb99c81b5a5b9d08185b5bdd5b9d607a1b60448201526064016105bb565b6001600160a01b0383166108325760405162461bcd60e51b815260206004820181905260248201527f57726f6e672064657374696e6174696f6e2077616c6c6574204164647265737360448201526064016105bb565b6000600861083f84611c66565b8154811061084f5761084f61342c565b90600052602060002090600f020190506000816005015411156108c85781816006015461087c9190613442565b816005015410156108c85760405162461bcd60e51b8152602060048201526016602482015275139bdd08195b9bdd59da081cdd5c1c1b1e481b19599d60521b60448201526064016105bb565b818160060160008282546108dc9190613442565b925050819055506108fe84848460405180602001604052806000815250611cc3565b50505050565b6001600160a01b038516331480610920575061092085336104b1565b61093c5760405162461bcd60e51b81526004016105bb9061345a565b6109498585858585611de6565b5050505050565b610958611c0c565b6000600861096588611c66565b815481106109755761097561342c565b600091825260208220600f909102019150600487600581111561099a5761099a612dea565b14156109b1576109ae620f423f6001611fd1565b90505b6040518060c001604052808781526020018681526020018281526020018860058111156109e0576109e0612dea565b81526020808201879052604091820186905282516009860190815590830151600a86015590820151600b8501556060820151600c8501805460ff19166001836005811115610a3057610a30612dea565b021790555060808201518051610a5091600484019160209091019061288c565b5060a08201518051610a6c9160058401916020909101906128f1565b5050505050505050505050565b610a81611c0c565b60006008610a8e83611c66565b81548110610a9e57610a9e61342c565b90600052602060002090600f02019050610ab6612040565b8051600983019081556020820151600a8401556040820151600b8401556060820151600c8401805460ff19166001836005811115610af657610af6612dea565b021790555060808201518051610b1691600484019160209091019061288c565b5060a082015180516109499160058401916020909101906128f1565b610b3a611c0c565b610b426120c6565b565b60606008805480602002602001604051908101604052809291908181526020016000905b82821015610f2557838290600052602060002090600f020160405180610120016040529081600082018054610b9c906133c4565b80601f0160208091040260200160405190810160405280929190818152602001828054610bc8906133c4565b8015610c155780601f10610bea57610100808354040283529160200191610c15565b820191906000526020600020905b815481529060010190602001808311610bf857829003601f168201915b50505050508152602001600182018054610c2e906133c4565b80601f0160208091040260200160405190810160405280929190818152602001828054610c5a906133c4565b8015610ca75780601f10610c7c57610100808354040283529160200191610ca7565b820191906000526020600020905b815481529060010190602001808311610c8a57829003601f168201915b50505050508152602001600282018054610cc0906133c4565b80601f0160208091040260200160405190810160405280929190818152602001828054610cec906133c4565b8015610d395780601f10610d0e57610100808354040283529160200191610d39565b820191906000526020600020905b815481529060010190602001808311610d1c57829003601f168201915b5050505050815260200160038201548152602001600482015481526020016005820154815260200160068201548152602001600782016040518060400160405290816000820160009054906101000a90046001600160a01b03166001600160a01b03166001600160a01b031681526020016001820154815250508152602001600982016040518060c00160405290816000820154815260200160018201548152602001600282015481526020016003820160009054906101000a900460ff166005811115610e0957610e09612dea565b6005811115610e1a57610e1a612dea565b815260200160048201805480602002602001604051908101604052809291908181526020018280548015610e7757602002820191906000526020600020905b81546001600160a01b03168152600190910190602001808311610e59575b50505050508152602001600582018054610e90906133c4565b80601f0160208091040260200160405190810160405280929190818152602001828054610ebc906133c4565b8015610f095780601f10610ede57610100808354040283529160200191610f09565b820191906000526020600020905b815481529060010190602001808311610eec57829003601f168201915b5050505050815250508152505081526020019060010190610b68565b50505050905090565b60608151835114610f935760405162461bcd60e51b815260206004820152602960248201527f455243313135353a206163636f756e747320616e6420696473206c656e677468604482015268040dad2e6dac2e8c6d60bb1b60648201526084016105bb565b6000835167ffffffffffffffff811115610faf57610faf612af1565b604051908082528060200260200182016040528015610fd8578160200160208202803683370190505b50905060005b845181101561105057611023858281518110610ffc57610ffc61342c565b60200260200101518583815181106110165761101661342c565b6020026020010151610554565b8282815181106110355761103561342c565b6020908102919091010152611049816134a9565b9050610fde565b509392505050565b61106061211b565b6000600861106d89611c66565b8154811061107d5761107d61342c565b90600052602060002090600f02019050600087116110d15760405162461bcd60e51b815260206004820152601160248201527015dc9bdb99c81b5a5b9d08185b5bdd5b9d607a1b60448201526064016105bb565b600581015415611137578681600601546110eb9190613442565b816005015410156111375760405162461bcd60e51b8152602060048201526016602482015275139bdd08195b9bdd59da081cdd5c1c1b1e481b19599d60521b60448201526064016105bb565b6004810154156111a257600081600401548861115391906134c4565b90508034101561119c5760405162461bcd60e51b815260206004820152601460248201527315dc9bdb99c81c185e5b595b9d08185b5bdd5b9d60621b60448201526064016105bb565b506111f2565b866001146111f25760405162461bcd60e51b815260206004820152601e60248201527f596f752063616e2774206d696e74206d6f7265207468616e2031204e4654000060448201526064016105bb565b6000816009016005018054611206906133c4565b90501115611339576000838152600a602052604090205460ff161561123e57604051632ec8265960e11b815260040160405180910390fd5b6009546040516001600160601b03193360601b1660208201526001600160a01b0390911690633bc778e39086907f0000000000000000000000000000000000000000000000000000000000000000906112a9906034015b604051602081830303815290604052612168565b6040516001600160601b03193060601b16602082015288906112cd90603401611295565b886040518763ffffffff1660e01b81526004016112ef969594939291906134e3565b60006040518083038186803b15801561130757600080fd5b505afa15801561131b573d6000803e3d6000fd5b5050506000848152600a60205260409020805460ff19166001179055505b8681600601600082825461134d9190613442565b9250508190555061136f33898960405180602001604052806000815250611cc3565b5050505050505050565b611381611c0c565b6000600861138e86611c66565b8154811061139e5761139e61342c565b60009182526020909120600f90910201905082156114145780600601548310156114145760405162461bcd60e51b815260206004820152602160248201527f537570706c79206973206c6573732074686174206d696e74656420616d6f756e6044820152601d60fa1b60648201526084016105bb565b81516001600160a01b0316156114dc5760008260200151116114785760405162461bcd60e51b815260206004820152601e60248201527f506c656173652070726f7669646520726f79616c74792070657263656e74000060448201526064016105bb565b605a826020015111156114dc5760405162461bcd60e51b815260206004820152602660248201527f526f79616c74792070657263656e742063616e2774206265206d6f7265207468604482015265616e2039302560d01b60648201526084016105bb565b6004810193909355600583019190915580516007830180546001600160a01b0319166001600160a01b039092169190911790556020015160089091015550565b611524611c0c565b610b42600061219d565b611536611c0c565b610b426121ef565b60068054610649906133c4565b611556338383612232565b5050565b611562611c0c565b60008651116115a45760405162461bcd60e51b815260206004820152600e60248201526d57726f6e67206a736f6e2055524960901b60448201526064016105bb565b60008551116115e75760405162461bcd60e51b815260206004820152600f60248201526e57726f6e67206d656469612055524960881b60448201526064016105bb565b80516001600160a01b03161561166b57600081602001511180156116105750605a816020015111155b61166b5760405162461bcd60e51b815260206004820152602660248201527f506c656173652070726f7669646520636f727265637420726f79616c74792070604482015265195c98d95b9d60d21b60648201526084016105bb565b60016007600082825461167e9190613442565b9250508190555060086040518061012001604052808681526020018881526020018781526020016007548152602001858152602001848152602001600081526020018381526020016116ce612040565b905281546001810183556000928352602092839020825180519394600f909302909101926116ff92849201906128f1565b50602082810151805161171892600185019201906128f1565b50604082015180516117349160028401916020909101906128f1565b5060608281015160038301556080830151600483015560a083015160058084019190915560c0840151600684015560e084015180516007850180546001600160a01b0319166001600160a01b03909216919091179055602090810151600885015561010085015180516009860190815591810151600a8601556040810151600b86015592830151600c8501805492939192909160ff19909116906001908490811115610a3057610a30612dea565b6001600160a01b0385163314806117fe57506117fe85336104b1565b61181a5760405162461bcd60e51b81526004016105bb9061345a565b6109498585858585612313565b61182f611c0c565b6001600160a01b0381166118945760405162461bcd60e51b815260206004820152602660248201527f4f776e61626c653a206e6577206f776e657220697320746865207a65726f206160448201526564647265737360d01b60648201526084016105bb565b61189d8161219d565b50565b600881815481106118b057600080fd5b90600052602060002090600f02016000915090508060000180546118d3906133c4565b80601f01602080910402602001604051908101604052809291908181526020018280546118ff906133c4565b801561194c5780601f106119215761010080835404028352916020019161194c565b820191906000526020600020905b81548152906001019060200180831161192f57829003601f168201915b505050505090806001018054611961906133c4565b80601f016020809104026020016040519081016040528092919081815260200182805461198d906133c4565b80156119da5780601f106119af576101008083540402835291602001916119da565b820191906000526020600020905b8154815290600101906020018083116119bd57829003601f168201915b5050505050908060020180546119ef906133c4565b80601f0160208091040260200160405190810160405280929190818152602001828054611a1b906133c4565b8015611a685780601f10611a3d57610100808354040283529160200191611a68565b820191906000526020600020905b815481529060010190602001808311611a4b57829003601f168201915b5050505060038301546004840154600580860154600687015460408051808201825260078a01546001600160a01b0316815260088a0154602080830191909152825160c08101845260098c0180548252600a8d015492820192909252600b8c015493810193909352600c8b0154999a979996985093969295909492939192606084019160ff1690811115611afe57611afe612dea565b6005811115611b0f57611b0f612dea565b815260200160048201805480602002602001604051908101604052809291908181526020018280548015611b6c57602002820191906000526020600020905b81546001600160a01b03168152600190910190602001808311611b4e575b50505050508152602001600582018054611b85906133c4565b80601f0160208091040260200160405190810160405280929190818152602001828054611bb1906133c4565b8015611bfe5780601f10611bd357610100808354040283529160200191611bfe565b820191906000526020600020905b815481529060010190602001808311611be157829003601f168201915b505050505081525050905089565b6003546001600160a01b03163314610b425760405162461bcd60e51b815260206004820181905260248201527f4f776e61626c653a2063616c6c6572206973206e6f7420746865206f776e657260448201526064016105bb565b60008082118015611c7957506007548211155b611cb85760405162461bcd60e51b815260206004820152601060248201526f2bb937b7339021b7b63632b1ba34b7b760811b60448201526064016105bb565b610636600183613415565b6001600160a01b038416611d235760405162461bcd60e51b815260206004820152602160248201527f455243313135353a206d696e7420746f20746865207a65726f206164647265736044820152607360f81b60648201526084016105bb565b336000611d2f8561244b565b90506000611d3c8561244b565b9050611d4d83600089858589612496565b6000868152602081815260408083206001600160a01b038b16845290915281208054879290611d7d908490613442565b909155505060408051878152602081018790526001600160a01b03808a1692600092918716917fc3d58168c5ae7397731d063d5bbf3d657854427343f4c083240f7aacaa2d0f62910160405180910390a4611ddd836000898989896124ac565b50505050505050565b8151835114611e485760405162461bcd60e51b815260206004820152602860248201527f455243313135353a2069647320616e6420616d6f756e7473206c656e677468206044820152670dad2e6dac2e8c6d60c31b60648201526084016105bb565b6001600160a01b038416611e6e5760405162461bcd60e51b81526004016105bb9061351f565b33611e7d818787878787612496565b60005b8451811015611f63576000858281518110611e9d57611e9d61342c565b602002602001015190506000858381518110611ebb57611ebb61342c565b602090810291909101810151600084815280835260408082206001600160a01b038e168352909352919091205490915081811015611f0b5760405162461bcd60e51b81526004016105bb90613564565b6000838152602081815260408083206001600160a01b038e8116855292528083208585039055908b16825281208054849290611f48908490613442565b9250508190555050505080611f5c906134a9565b9050611e80565b50846001600160a01b0316866001600160a01b0316826001600160a01b03167f4a39dc06d4c0dbc64b70af90fd698a233a518aa5d07e595d983b8c0526c8f7fb8787604051611fb39291906135ae565b60405180910390a4611fc9818787878787612608565b505050505050565b6040516001600160f81b031960f883901b1660208201526001600160601b03193360601b1660218201524460358201524260558201526001607582015260009083906095016040516020818303038152906040528051906020012060001c61203991906135dc565b9392505050565b612048612965565b6040518060c001604052806000815260200160008152602001600081526020016000600581111561207b5761207b612dea565b815260200160006040519080825280602002602001820160405280156120ab578160200160208202803683370190505b50815260408051602081810190925260008152910152919050565b6120ce6126c3565b6003805460ff60a01b191690557f5db9ee0a495bf2e6ff9c91a7834c1ba4fdd244a5e8aa4e537bd38aeae4b073aa335b6040516001600160a01b03909116815260200160405180910390a1565b600354600160a01b900460ff1615610b425760405162461bcd60e51b815260206004820152601060248201526f14185d5cd8589b194e881c185d5cd95960821b60448201526064016105bb565b600060088260405160200161217d91906135fe565b60408051601f198184030181529190528051602090910120901c92915050565b600380546001600160a01b038381166001600160a01b0319831681179093556040519116919082907f8be0079c531659141344cd1fd0a4f28419497f9722a3daafe3b4186f6b6457e090600090a35050565b6121f761211b565b6003805460ff60a01b1916600160a01b1790557f62e78cea01bee320cd4e420270b5ea74000d11b0c9f74754ebdbfc544b05a2586120fe3390565b816001600160a01b0316836001600160a01b031614156122a65760405162461bcd60e51b815260206004820152602960248201527f455243313135353a2073657474696e6720617070726f76616c20737461747573604482015268103337b91039b2b63360b91b60648201526084016105bb565b6001600160a01b03838116600081815260016020908152604080832094871680845294825291829020805460ff191686151590811790915591519182527f17307eab39ab6107e8899845ad3d59bd9653f200f220920489ca2b5937696c31910160405180910390a3505050565b6001600160a01b0384166123395760405162461bcd60e51b81526004016105bb9061351f565b3360006123458561244b565b905060006123528561244b565b9050612362838989858589612496565b6000868152602081815260408083206001600160a01b038c168452909152902054858110156123a35760405162461bcd60e51b81526004016105bb90613564565b6000878152602081815260408083206001600160a01b038d8116855292528083208985039055908a168252812080548892906123e0908490613442565b909155505060408051888152602081018890526001600160a01b03808b16928c821692918816917fc3d58168c5ae7397731d063d5bbf3d657854427343f4c083240f7aacaa2d0f62910160405180910390a4612440848a8a8a8a8a6124ac565b505050505050505050565b604080516001808252818301909252606091600091906020808301908036833701905050905082816000815181106124855761248561342c565b602090810291909101015292915050565b61249e61211b565b611fc9868686868686612713565b6001600160a01b0384163b15611fc95760405163f23a6e6160e01b81526001600160a01b0385169063f23a6e61906124f0908990899088908890889060040161361a565b6020604051808303816000875af192505050801561252b575060408051601f3d908101601f1916820190925261252891810190613654565b60015b6125d857612537613671565b806308c379a01415612571575061254c61368d565b806125575750612573565b8060405162461bcd60e51b81526004016105bb9190612a92565b505b60405162461bcd60e51b815260206004820152603460248201527f455243313135353a207472616e7366657220746f206e6f6e20455243313135356044820152732932b1b2b4bb32b91034b6b83632b6b2b73a32b960611b60648201526084016105bb565b6001600160e01b0319811663f23a6e6160e01b14611ddd5760405162461bcd60e51b81526004016105bb90613717565b6001600160a01b0384163b15611fc95760405163bc197c8160e01b81526001600160a01b0385169063bc197c819061264c908990899088908890889060040161375f565b6020604051808303816000875af1925050508015612687575060408051601f3d908101601f1916820190925261268491810190613654565b60015b61269357612537613671565b6001600160e01b0319811663bc197c8160e01b14611ddd5760405162461bcd60e51b81526004016105bb90613717565b600354600160a01b900460ff16610b425760405162461bcd60e51b815260206004820152601460248201527314185d5cd8589b194e881b9bdd081c185d5cd95960621b60448201526064016105bb565b6001600160a01b03851661279a5760005b83518110156127985782818151811061273f5761273f61342c565b60200260200101516004600086848151811061275d5761275d61342c565b6020026020010151815260200190815260200160002060008282546127829190613442565b909155506127919050816134a9565b9050612724565b505b6001600160a01b038416611fc95760005b8351811015611ddd5760008482815181106127c8576127c861342c565b6020026020010151905060008483815181106127e6576127e661342c565b60200260200101519050600060046000848152602001908152602001600020549050818110156128695760405162461bcd60e51b815260206004820152602860248201527f455243313135353a206275726e20616d6f756e74206578636565647320746f74604482015267616c537570706c7960c01b60648201526084016105bb565b60009283526004602052604090922091039055612885816134a9565b90506127ab565b8280548282559060005260206000209081019282156128e1579160200282015b828111156128e157825182546001600160a01b0319166001600160a01b039091161782556020909201916001909101906128ac565b506128ed9291506129ac565b5090565b8280546128fd906133c4565b90600052602060002090601f01602090048101928261291f57600085556128e1565b82601f1061293857805160ff19168380011785556128e1565b828001600101855582156128e1579182015b828111156128e157825182559160200191906001019061294a565b6040518060c001604052806000815260200160008152602001600081526020016000600581111561299857612998612dea565b815260200160608152602001606081525090565b5b808211156128ed57600081556001016129ad565b80356001600160a01b03811681146129d857600080fd5b919050565b600080604083850312156129f057600080fd5b6129f9836129c1565b946020939093013593505050565b6001600160e01b03198116811461189d57600080fd5b600060208284031215612a2f57600080fd5b813561203981612a07565b60005b83811015612a55578181015183820152602001612a3d565b838111156108fe5750506000910152565b60008151808452612a7e816020860160208601612a3a565b601f01601f19169290920160200192915050565b6020815260006120396020830184612a66565b600060208284031215612ab757600080fd5b5035919050565b600080600060608486031215612ad357600080fd5b612adc846129c1565b95602085013595506040909401359392505050565b634e487b7160e01b600052604160045260246000fd5b601f8201601f1916810167ffffffffffffffff81118282101715612b2d57612b2d612af1565b6040525050565b600067ffffffffffffffff821115612b4e57612b4e612af1565b5060051b60200190565b600082601f830112612b6957600080fd5b81356020612b7682612b34565b604051612b838282612b07565b83815260059390931b8501820192828101915086841115612ba357600080fd5b8286015b84811015612bbe5780358352918301918301612ba7565b509695505050505050565b600082601f830112612bda57600080fd5b813567ffffffffffffffff811115612bf457612bf4612af1565b604051612c0b601f8301601f191660200182612b07565b818152846020838601011115612c2057600080fd5b816020850160208301376000918101602001919091529392505050565b600080600080600060a08688031215612c5557600080fd5b612c5e866129c1565b9450612c6c602087016129c1565b9350604086013567ffffffffffffffff80821115612c8957600080fd5b612c9589838a01612b58565b94506060880135915080821115612cab57600080fd5b612cb789838a01612b58565b93506080880135915080821115612ccd57600080fd5b50612cda88828901612bc9565b9150509295509295909350565b600082601f830112612cf857600080fd5b81356020612d0582612b34565b604051612d128282612b07565b83815260059390931b8501820192828101915086841115612d3257600080fd5b8286015b84811015612bbe57612d47816129c1565b8352918301918301612d36565b60008060008060008060c08789031215612d6d57600080fd5b86359550602087013560068110612d8357600080fd5b94506040870135935060608701359250608087013567ffffffffffffffff80821115612dae57600080fd5b612dba8a838b01612ce7565b935060a0890135915080821115612dd057600080fd5b50612ddd89828a01612bc9565b9150509295509295509295565b634e487b7160e01b600052602160045260246000fd5b600060c08301825184526020808401518186015260408401516040860152606084015160068110612e4157634e487b7160e01b600052602160045260246000fd5b606086015260808481015160c09187019190915280519283905281019160009060e08701905b80831015612e905784516001600160a01b03168252938301936001929092019190830190612e67565b5060a0860151935086810360a0880152612eaa8185612a66565b979650505050505050565b60006020808301818452808551808352604092508286019150828160051b87010184880160005b83811015612fb157603f1989840301855281516101408151818652612f0382870182612a66565b915050888201518582038a870152612f1b8282612a66565b9150508782015185820389870152612f338282612a66565b606084810151908801526080808501519088015260a0808501519088015260c0808501519088015260e08085015180516001600160a01b0316828a015260208101516101008a0152919350915050506101008201519150848103610120860152612f9d8183612e00565b968901969450505090860190600101612edc565b509098975050505050505050565b60008060408385031215612fd257600080fd5b823567ffffffffffffffff80821115612fea57600080fd5b612ff686838701612ce7565b9350602085013591508082111561300c57600080fd5b5061301985828601612b58565b9150509250929050565b600081518084526020808501945080840160005b8381101561305357815187529582019590820190600101613037565b509495945050505050565b6020815260006120396020830184613023565b60008060008060008060006101c080898b03121561308e57600080fd5b883597506020890135965060408901359550606089013567ffffffffffffffff8111156130ba57600080fd5b6130c68b828c01612bc9565b9550506080890135935060a0890135925089818a0111156130e657600080fd5b5060c08801905092959891949750929550565b60006040828403121561310b57600080fd5b6040516040810181811067ffffffffffffffff8211171561312e5761312e612af1565b60405290508061313d836129c1565b8152602083013560208201525092915050565b60008060008060a0858703121561316657600080fd5b84359350602085013592506040850135915061318586606087016130f9565b905092959194509250565b600080604083850312156131a357600080fd5b6131ac836129c1565b9150602083013580151581146131c157600080fd5b809150509250929050565b60008060008060008060e087890312156131e557600080fd5b863567ffffffffffffffff808211156131fd57600080fd5b6132098a838b01612bc9565b9750602089013591508082111561321f57600080fd5b61322b8a838b01612bc9565b9650604089013591508082111561324157600080fd5b5061324e89828a01612bc9565b945050606087013592506080870135915061326c8860a089016130f9565b90509295509295509295565b6000806040838503121561328b57600080fd5b613294836129c1565b91506132a2602084016129c1565b90509250929050565b600080600080600060a086880312156132c357600080fd5b6132cc866129c1565b94506132da602087016129c1565b93506040860135925060608601359150608086013567ffffffffffffffff81111561330457600080fd5b612cda88828901612bc9565b60006020828403121561332257600080fd5b612039826129c1565b600061014080835261333f8184018d612a66565b90508281036020840152613353818c612a66565b90508281036040840152613367818b612a66565b90508860608401528760808401528660a08401528560c08401526133a160e084018680516001600160a01b03168252602090810151910152565b8281036101208401526133b48185612e00565b9c9b505050505050505050505050565b600181811c908216806133d857607f821691505b602082108114156133f957634e487b7160e01b600052602260045260246000fd5b50919050565b634e487b7160e01b600052601160045260246000fd5b600082821015613427576134276133ff565b500390565b634e487b7160e01b600052603260045260246000fd5b60008219821115613455576134556133ff565b500190565b6020808252602f908201527f455243313135353a2063616c6c6572206973206e6f7420746f6b656e206f776e60408201526e195c881b9bdc88185c1c1c9bdd9959608a1b606082015260800190565b60006000198214156134bd576134bd6133ff565b5060010190565b60008160001904831182151516156134de576134de6133ff565b500290565b60006101a0820190508782528660208301528560408301528460608301528360808301526101008360a084013760008152979650505050505050565b60208082526025908201527f455243313135353a207472616e7366657220746f20746865207a65726f206164604082015264647265737360d81b606082015260800190565b6020808252602a908201527f455243313135353a20696e73756666696369656e742062616c616e636520666f60408201526939103a3930b739b332b960b11b606082015260800190565b6040815260006135c16040830185613023565b82810360208401526135d38185613023565b95945050505050565b6000826135f957634e487b7160e01b600052601260045260246000fd5b500690565b60008251613610818460208701612a3a565b9190910192915050565b6001600160a01b03868116825285166020820152604081018490526060810183905260a060808201819052600090612eaa90830184612a66565b60006020828403121561366657600080fd5b815161203981612a07565b600060033d111561368a5760046000803e5060005160e01c5b90565b600060443d101561369b5790565b6040516003193d81016004833e81513d67ffffffffffffffff81602484011181841117156136cb57505050505090565b82850191508151818111156136e35750505050505090565b843d87010160208285010111156136fd5750505050505090565b61370c60208286010187612b07565b509095945050505050565b60208082526028908201527f455243313135353a204552433131353552656365697665722072656a656374656040820152676420746f6b656e7360c01b606082015260800190565b6001600160a01b0386811682528516602082015260a06040820181905260009061378b90830186613023565b828103606084015261379d8186613023565b905082810360808401526137b18185612a66565b9897505050505050505056fea2646970667358221220b104528b53261415ad7e149d001f349e21b914839a628906f0018dcde92c4c0564736f6c634300080c0033",
  "linkReferences": {},
  "deployedLinkReferences": {}
}