{
  "_format": "hh-sol-artifact-1",
  "contractName": "NFTCollection",
  "sourceName": "src/backend/contracts/_NFTCollection.sol",
  "abi": [
    {
      "inputs": [
        {
          "internalType": "string",
          "name": "_name",
          "type": "string"
        },
        {
          "internalType": "string",
          "name": "_symbol",
          "type": "string"
        },
        {
          "internalType": "address",
          "name": "_owner",
          "type": "address"
        }
      ],
      "stateMutability": "nonpayable",
      "type": "constructor"
    },
    {
      "anonymous": false,
      "inputs": [
        {
          "indexed": true,
          "internalType": "address",
          "name": "account",
          "type": "address"
        },
        {
          "indexed": true,
          "internalType": "address",
          "name": "operator",
          "type": "address"
        },
        {
          "indexed": false,
          "internalType": "bool",
          "name": "approved",
          "type": "bool"
        }
      ],
      "name": "ApprovalForAll",
      "type": "event"
    },
    {
      "anonymous": false,
      "inputs": [
        {
          "indexed": true,
          "internalType": "address",
          "name": "previousOwner",
          "type": "address"
        },
        {
          "indexed": true,
          "internalType": "address",
          "name": "newOwner",
          "type": "address"
        }
      ],
      "name": "OwnershipTransferred",
      "type": "event"
    },
    {
      "anonymous": false,
      "inputs": [
        {
          "indexed": false,
          "internalType": "address",
          "name": "account",
          "type": "address"
        }
      ],
      "name": "Paused",
      "type": "event"
    },
    {
      "anonymous": false,
      "inputs": [
        {
          "indexed": true,
          "internalType": "address",
          "name": "operator",
          "type": "address"
        },
        {
          "indexed": true,
          "internalType": "address",
          "name": "from",
          "type": "address"
        },
        {
          "indexed": true,
          "internalType": "address",
          "name": "to",
          "type": "address"
        },
        {
          "indexed": false,
          "internalType": "uint256[]",
          "name": "ids",
          "type": "uint256[]"
        },
        {
          "indexed": false,
          "internalType": "uint256[]",
          "name": "values",
          "type": "uint256[]"
        }
      ],
      "name": "TransferBatch",
      "type": "event"
    },
    {
      "anonymous": false,
      "inputs": [
        {
          "indexed": true,
          "internalType": "address",
          "name": "operator",
          "type": "address"
        },
        {
          "indexed": true,
          "internalType": "address",
          "name": "from",
          "type": "address"
        },
        {
          "indexed": true,
          "internalType": "address",
          "name": "to",
          "type": "address"
        },
        {
          "indexed": false,
          "internalType": "uint256",
          "name": "id",
          "type": "uint256"
        },
        {
          "indexed": false,
          "internalType": "uint256",
          "name": "value",
          "type": "uint256"
        }
      ],
      "name": "TransferSingle",
      "type": "event"
    },
    {
      "anonymous": false,
      "inputs": [
        {
          "indexed": false,
          "internalType": "string",
          "name": "value",
          "type": "string"
        },
        {
          "indexed": true,
          "internalType": "uint256",
          "name": "id",
          "type": "uint256"
        }
      ],
      "name": "URI",
      "type": "event"
    },
    {
      "anonymous": false,
      "inputs": [
        {
          "indexed": false,
          "internalType": "address",
          "name": "account",
          "type": "address"
        }
      ],
      "name": "Unpaused",
      "type": "event"
    },
    {
      "inputs": [
        {
          "internalType": "address",
          "name": "account",
          "type": "address"
        },
        {
          "internalType": "uint256",
          "name": "id",
          "type": "uint256"
        }
      ],
      "name": "balanceOf",
      "outputs": [
        {
          "internalType": "uint256",
          "name": "",
          "type": "uint256"
        }
      ],
      "stateMutability": "view",
      "type": "function"
    },
    {
      "inputs": [
        {
          "internalType": "address[]",
          "name": "accounts",
          "type": "address[]"
        },
        {
          "internalType": "uint256[]",
          "name": "ids",
          "type": "uint256[]"
        }
      ],
      "name": "balanceOfBatch",
      "outputs": [
        {
          "internalType": "uint256[]",
          "name": "",
          "type": "uint256[]"
        }
      ],
      "stateMutability": "view",
      "type": "function"
    },
    {
      "inputs": [
        {
          "internalType": "uint256",
          "name": "",
          "type": "uint256"
        }
      ],
      "name": "collections",
      "outputs": [
        {
          "internalType": "string",
          "name": "title",
          "type": "string"
        },
        {
          "internalType": "string",
          "name": "jsonUri",
          "type": "string"
        },
        {
          "internalType": "string",
          "name": "mediaUri",
          "type": "string"
        },
        {
          "internalType": "uint256",
          "name": "id",
          "type": "uint256"
        },
        {
          "internalType": "uint256",
          "name": "price",
          "type": "uint256"
        },
        {
          "internalType": "uint256",
          "name": "supply",
          "type": "uint256"
        },
        {
          "internalType": "uint256",
          "name": "mintedTotal",
          "type": "uint256"
        },
        {
          "components": [
            {
              "internalType": "address",
              "name": "account",
              "type": "address"
            },
            {
              "internalType": "uint256",
              "name": "percent",
              "type": "uint256"
            }
          ],
          "internalType": "struct NFTCollection.CollectionRoyalty",
          "name": "royalty",
          "type": "tuple"
        }
      ],
      "stateMutability": "view",
      "type": "function"
    },
    {
      "inputs": [],
      "name": "collectionsTotal",
      "outputs": [
        {
          "internalType": "uint256",
          "name": "",
          "type": "uint256"
        }
      ],
      "stateMutability": "view",
      "type": "function"
    },
    {
      "inputs": [
        {
          "internalType": "uint256",
          "name": "id",
          "type": "uint256"
        }
      ],
      "name": "exists",
      "outputs": [
        {
          "internalType": "bool",
          "name": "",
          "type": "bool"
        }
      ],
      "stateMutability": "view",
      "type": "function"
    },
    {
      "inputs": [],
      "name": "getCollections",
      "outputs": [
        {
          "components": [
            {
              "internalType": "string",
              "name": "title",
              "type": "string"
            },
            {
              "internalType": "string",
              "name": "jsonUri",
              "type": "string"
            },
            {
              "internalType": "string",
              "name": "mediaUri",
              "type": "string"
            },
            {
              "internalType": "uint256",
              "name": "id",
              "type": "uint256"
            },
            {
              "internalType": "uint256",
              "name": "price",
              "type": "uint256"
            },
            {
              "internalType": "uint256",
              "name": "supply",
              "type": "uint256"
            },
            {
              "internalType": "uint256",
              "name": "mintedTotal",
              "type": "uint256"
            },
            {
              "components": [
                {
                  "internalType": "address",
                  "name": "account",
                  "type": "address"
                },
                {
                  "internalType": "uint256",
                  "name": "percent",
                  "type": "uint256"
                }
              ],
              "internalType": "struct NFTCollection.CollectionRoyalty",
              "name": "royalty",
              "type": "tuple"
            }
          ],
          "internalType": "struct NFTCollection.Collection[]",
          "name": "",
          "type": "tuple[]"
        }
      ],
      "stateMutability": "view",
      "type": "function"
    },
    {
      "inputs": [
        {
          "internalType": "address",
          "name": "account",
          "type": "address"
        },
        {
          "internalType": "address",
          "name": "operator",
          "type": "address"
        }
      ],
      "name": "isApprovedForAll",
      "outputs": [
        {
          "internalType": "bool",
          "name": "",
          "type": "bool"
        }
      ],
      "stateMutability": "view",
      "type": "function"
    },
    {
      "inputs": [
        {
          "internalType": "address",
          "name": "_account",
          "type": "address"
        },
        {
          "internalType": "uint256",
          "name": "_collectionId",
          "type": "uint256"
        },
        {
          "internalType": "uint256",
          "name": "_amount",
          "type": "uint256"
        }
      ],
      "name": "mint",
      "outputs": [],
      "stateMutability": "nonpayable",
      "type": "function"
    },
    {
      "inputs": [],
      "name": "name",
      "outputs": [
        {
          "internalType": "string",
          "name": "",
          "type": "string"
        }
      ],
      "stateMutability": "view",
      "type": "function"
    },
    {
      "inputs": [
        {
          "internalType": "string",
          "name": "_jsonUri",
          "type": "string"
        },
        {
          "internalType": "string",
          "name": "_mediaUri",
          "type": "string"
        },
        {
          "internalType": "string",
          "name": "_title",
          "type": "string"
        },
        {
          "internalType": "uint256",
          "name": "_price",
          "type": "uint256"
        },
        {
          "internalType": "uint256",
          "name": "_supply",
          "type": "uint256"
        },
        {
          "components": [
            {
              "internalType": "address",
              "name": "account",
              "type": "address"
            },
            {
              "internalType": "uint256",
              "name": "percent",
              "type": "uint256"
            }
          ],
          "internalType": "struct NFTCollection.CollectionRoyalty",
          "name": "_royalty",
          "type": "tuple"
        }
      ],
      "name": "newCollectionItem",
      "outputs": [],
      "stateMutability": "nonpayable",
      "type": "function"
    },
    {
      "inputs": [],
      "name": "owner",
      "outputs": [
        {
          "internalType": "address",
          "name": "",
          "type": "address"
        }
      ],
      "stateMutability": "view",
      "type": "function"
    },
    {
      "inputs": [],
      "name": "pause",
      "outputs": [],
      "stateMutability": "nonpayable",
      "type": "function"
    },
    {
      "inputs": [],
      "name": "paused",
      "outputs": [
        {
          "internalType": "bool",
          "name": "",
          "type": "bool"
        }
      ],
      "stateMutability": "view",
      "type": "function"
    },
    {
      "inputs": [
        {
          "internalType": "uint256",
          "name": "_collectionId",
          "type": "uint256"
        },
        {
          "internalType": "uint256",
          "name": "_amount",
          "type": "uint256"
        }
      ],
      "name": "payToMint",
      "outputs": [],
      "stateMutability": "payable",
      "type": "function"
    },
    {
      "inputs": [],
      "name": "renounceOwnership",
      "outputs": [],
      "stateMutability": "nonpayable",
      "type": "function"
    },
    {
      "inputs": [
        {
          "internalType": "address",
          "name": "from",
          "type": "address"
        },
        {
          "internalType": "address",
          "name": "to",
          "type": "address"
        },
        {
          "internalType": "uint256[]",
          "name": "ids",
          "type": "uint256[]"
        },
        {
          "internalType": "uint256[]",
          "name": "amounts",
          "type": "uint256[]"
        },
        {
          "internalType": "bytes",
          "name": "data",
          "type": "bytes"
        }
      ],
      "name": "safeBatchTransferFrom",
      "outputs": [],
      "stateMutability": "nonpayable",
      "type": "function"
    },
    {
      "inputs": [
        {
          "internalType": "address",
          "name": "from",
          "type": "address"
        },
        {
          "internalType": "address",
          "name": "to",
          "type": "address"
        },
        {
          "internalType": "uint256",
          "name": "id",
          "type": "uint256"
        },
        {
          "internalType": "uint256",
          "name": "amount",
          "type": "uint256"
        },
        {
          "internalType": "bytes",
          "name": "data",
          "type": "bytes"
        }
      ],
      "name": "safeTransferFrom",
      "outputs": [],
      "stateMutability": "nonpayable",
      "type": "function"
    },
    {
      "inputs": [
        {
          "internalType": "address",
          "name": "operator",
          "type": "address"
        },
        {
          "internalType": "bool",
          "name": "approved",
          "type": "bool"
        }
      ],
      "name": "setApprovalForAll",
      "outputs": [],
      "stateMutability": "nonpayable",
      "type": "function"
    },
    {
      "inputs": [
        {
          "internalType": "string",
          "name": "_newUri",
          "type": "string"
        }
      ],
      "name": "setURI",
      "outputs": [],
      "stateMutability": "nonpayable",
      "type": "function"
    },
    {
      "inputs": [
        {
          "internalType": "bytes4",
          "name": "interfaceId",
          "type": "bytes4"
        }
      ],
      "name": "supportsInterface",
      "outputs": [
        {
          "internalType": "bool",
          "name": "",
          "type": "bool"
        }
      ],
      "stateMutability": "view",
      "type": "function"
    },
    {
      "inputs": [],
      "name": "symbol",
      "outputs": [
        {
          "internalType": "string",
          "name": "",
          "type": "string"
        }
      ],
      "stateMutability": "view",
      "type": "function"
    },
    {
      "inputs": [
        {
          "internalType": "uint256",
          "name": "id",
          "type": "uint256"
        }
      ],
      "name": "totalSupply",
      "outputs": [
        {
          "internalType": "uint256",
          "name": "",
          "type": "uint256"
        }
      ],
      "stateMutability": "view",
      "type": "function"
    },
    {
      "inputs": [
        {
          "internalType": "address",
          "name": "newOwner",
          "type": "address"
        }
      ],
      "name": "transferOwnership",
      "outputs": [],
      "stateMutability": "nonpayable",
      "type": "function"
    },
    {
      "inputs": [],
      "name": "unpause",
      "outputs": [],
      "stateMutability": "nonpayable",
      "type": "function"
    },
    {
      "inputs": [
        {
          "internalType": "uint256",
          "name": "_collectionId",
          "type": "uint256"
        },
        {
          "internalType": "uint256",
          "name": "_price",
          "type": "uint256"
        },
        {
          "internalType": "uint256",
          "name": "_supply",
          "type": "uint256"
        },
        {
          "components": [
            {
              "internalType": "address",
              "name": "account",
              "type": "address"
            },
            {
              "internalType": "uint256",
              "name": "percent",
              "type": "uint256"
            }
          ],
          "internalType": "struct NFTCollection.CollectionRoyalty",
          "name": "_royalty",
          "type": "tuple"
        }
      ],
      "name": "updateCollectionItem",
      "outputs": [],
      "stateMutability": "nonpayable",
      "type": "function"
    },
    {
      "inputs": [
        {
          "internalType": "uint256",
          "name": "_tokenId",
          "type": "uint256"
        }
      ],
      "name": "uri",
      "outputs": [
        {
          "internalType": "string",
          "name": "",
          "type": "string"
        }
      ],
      "stateMutability": "view",
      "type": "function"
    }
  ],
  "bytecode": "0x60806040523480156200001157600080fd5b50604051620031db380380620031db833981016040819052620000349162000366565b6040805160208101909152600081526200004e81620000a7565b506200005a33620000c0565b6003805460ff60a01b19169055620000728162000112565b825162000087906005906020860190620001f3565b5081516200009d906006906020850190620001f3565b5050505062000430565b8051620000bc906002906020840190620001f3565b5050565b600380546001600160a01b038381166001600160a01b0319831681179093556040519116919082907f8be0079c531659141344cd1fd0a4f28419497f9722a3daafe3b4186f6b6457e090600090a35050565b6200011c62000195565b6001600160a01b038116620001875760405162461bcd60e51b815260206004820152602660248201527f4f776e61626c653a206e6577206f776e657220697320746865207a65726f206160448201526564647265737360d01b60648201526084015b60405180910390fd5b6200019281620000c0565b50565b6003546001600160a01b03163314620001f15760405162461bcd60e51b815260206004820181905260248201527f4f776e61626c653a2063616c6c6572206973206e6f7420746865206f776e657260448201526064016200017e565b565b8280546200020190620003f3565b90600052602060002090601f01602090048101928262000225576000855562000270565b82601f106200024057805160ff191683800117855562000270565b8280016001018555821562000270579182015b828111156200027057825182559160200191906001019062000253565b506200027e92915062000282565b5090565b5b808211156200027e576000815560010162000283565b634e487b7160e01b600052604160045260246000fd5b600082601f830112620002c157600080fd5b81516001600160401b0380821115620002de57620002de62000299565b604051601f8301601f19908116603f0116810190828211818310171562000309576200030962000299565b816040528381526020925086838588010111156200032657600080fd5b600091505b838210156200034a57858201830151818301840152908201906200032b565b838211156200035c5760008385830101525b9695505050505050565b6000806000606084860312156200037c57600080fd5b83516001600160401b03808211156200039457600080fd5b620003a287838801620002af565b94506020860151915080821115620003b957600080fd5b50620003c886828701620002af565b604086015190935090506001600160a01b0381168114620003e857600080fd5b809150509250925092565b600181811c908216806200040857607f821691505b602082108114156200042a57634e487b7160e01b600052602260045260246000fd5b50919050565b612d9b80620004406000396000f3fe6080604052600436106101805760003560e01c80635e7ea74c116100d1578063a22cb4651161008a578063e985e9c511610064578063e985e9c51461045b578063f242432a146104a4578063f2fde38b146104c4578063fdbda0ec146104e457600080fd5b8063a22cb465146103ee578063bd85b0391461040e578063cb27d43f1461043b57600080fd5b80635e7ea74c14610354578063715018a6146103745780638456cb59146103895780638da5cb5b1461039e57806392676fda146103c657806395d89b41146103d957600080fd5b80632e17af071161013e57806346e635861161011857806346e63586146102b75780634e1273f4146102d95780634f558e79146103065780635c975abb1461033557600080fd5b80632e17af071461026c5780632eb2c2d6146102825780633f4ba83a146102a257600080fd5b8062fdd58e1461018557806301ffc9a7146101b857806302fe5305146101e857806306fdde031461020a5780630e89341c1461022c578063156e29f61461024c575b600080fd5b34801561019157600080fd5b506101a56101a036600461218f565b610518565b6040519081526020015b60405180910390f35b3480156101c457600080fd5b506101d86101d33660046121cf565b6105ae565b60405190151581526020016101af565b3480156101f457600080fd5b506102086102033660046122aa565b610600565b005b34801561021657600080fd5b5061021f610614565b6040516101af9190612334565b34801561023857600080fd5b5061021f610247366004612347565b6106a2565b34801561025857600080fd5b50610208610267366004612360565b610768565b34801561027857600080fd5b506101a560075481565b34801561028e57600080fd5b5061020861029d366004612428565b610920565b3480156102ae57600080fd5b5061020861096c565b3480156102c357600080fd5b506102cc61097e565b6040516101af91906124d2565b3480156102e557600080fd5b506102f96102f43660046125c0565b610bef565b6040516101af91906126c6565b34801561031257600080fd5b506101d8610321366004612347565b600090815260046020526040902054151590565b34801561034157600080fd5b50600354600160a01b900460ff166101d8565b34801561036057600080fd5b5061020861036f366004612730565b610d19565b34801561038057600080fd5b50610208610e7e565b34801561039557600080fd5b50610208610e90565b3480156103aa57600080fd5b506003546040516001600160a01b0390911681526020016101af565b6102086103d4366004612770565b610ea0565b3480156103e557600080fd5b5061021f6110bc565b3480156103fa57600080fd5b50610208610409366004612792565b6110c9565b34801561041a57600080fd5b506101a5610429366004612347565b60009081526004602052604090205490565b34801561044757600080fd5b506102086104563660046127ce565b6110d8565b34801561046757600080fd5b506101d861047636600461287a565b6001600160a01b03918216600090815260016020908152604080832093909416825291909152205460ff1690565b3480156104b057600080fd5b506102086104bf3660046128ad565b611303565b3480156104d057600080fd5b506102086104df366004612912565b611348565b3480156104f057600080fd5b506105046104ff366004612347565b6113be565b6040516101af98979695949392919061292d565b60006001600160a01b0383166105885760405162461bcd60e51b815260206004820152602a60248201527f455243313135353a2061646472657373207a65726f206973206e6f742061207660448201526930b634b21037bbb732b960b11b60648201526084015b60405180910390fd5b506000908152602081815260408083206001600160a01b03949094168352929052205490565b60006001600160e01b03198216636cdb3d1360e11b14806105df57506001600160e01b031982166303a24d0760e21b145b806105fa57506301ffc9a760e01b6001600160e01b03198316145b92915050565b6106086115ce565b61061181611628565b50565b60058054610621906129b1565b80601f016020809104026020016040519081016040528092919081815260200182805461064d906129b1565b801561069a5780601f1061066f5761010080835404028352916020019161069a565b820191906000526020600020905b81548152906001019060200180831161067d57829003601f168201915b505050505081565b6060600060086106b3600185612a02565b815481106106c3576106c3612a19565b906000526020600020906009020190508060010180546106e2906129b1565b80601f016020809104026020016040519081016040528092919081815260200182805461070e906129b1565b801561075b5780601f106107305761010080835404028352916020019161075b565b820191906000526020600020905b81548152906001019060200180831161073e57829003601f168201915b5050505050915050919050565b6107706115ce565b600081116107b45760405162461bcd60e51b815260206004820152601160248201527015dc9bdb99c81b5a5b9d08185b5bdd5b9d607a1b604482015260640161057f565b600082116107d45760405162461bcd60e51b815260040161057f90612a2f565b6007548211156107f65760405162461bcd60e51b815260040161057f90612a2f565b6001600160a01b03831661084c5760405162461bcd60e51b815260206004820181905260248201527f57726f6e672064657374696e6174696f6e2077616c6c65742041646472657373604482015260640161057f565b6000600861085b600185612a02565b8154811061086b5761086b612a19565b906000526020600020906009020190506000816005015411156108e4578181600601546108989190612a59565b816005015410156108e45760405162461bcd60e51b8152602060048201526016602482015275139bdd08195b9bdd59da081cdd5c1c1b1e481b19599d60521b604482015260640161057f565b818160060160008282546108f89190612a59565b9250508190555061091a8484846040518060200160405280600081525061163b565b50505050565b6001600160a01b03851633148061093c575061093c8533610476565b6109585760405162461bcd60e51b815260040161057f90612a71565b610965858585858561175e565b5050505050565b6109746115ce565b61097c611949565b565b60606008805480602002602001604051908101604052809291908181526020016000905b82821015610be65783829060005260206000209060090201604051806101000160405290816000820180546109d6906129b1565b80601f0160208091040260200160405190810160405280929190818152602001828054610a02906129b1565b8015610a4f5780601f10610a2457610100808354040283529160200191610a4f565b820191906000526020600020905b815481529060010190602001808311610a3257829003601f168201915b50505050508152602001600182018054610a68906129b1565b80601f0160208091040260200160405190810160405280929190818152602001828054610a94906129b1565b8015610ae15780601f10610ab657610100808354040283529160200191610ae1565b820191906000526020600020905b815481529060010190602001808311610ac457829003601f168201915b50505050508152602001600282018054610afa906129b1565b80601f0160208091040260200160405190810160405280929190818152602001828054610b26906129b1565b8015610b735780601f10610b4857610100808354040283529160200191610b73565b820191906000526020600020905b815481529060010190602001808311610b5657829003601f168201915b5050509183525050600382015460208083019190915260048301546040808401919091526005840154606084015260068401546080840152805180820190915260078401546001600160a01b031681526008909301548382015260a09091019190915290825260019290920191016109a2565b50505050905090565b60608151835114610c545760405162461bcd60e51b815260206004820152602960248201527f455243313135353a206163636f756e747320616e6420696473206c656e677468604482015268040dad2e6dac2e8c6d60bb1b606482015260840161057f565b6000835167ffffffffffffffff811115610c7057610c706121f3565b604051908082528060200260200182016040528015610c99578160200160208202803683370190505b50905060005b8451811015610d1157610ce4858281518110610cbd57610cbd612a19565b6020026020010151858381518110610cd757610cd7612a19565b6020026020010151610518565b828281518110610cf657610cf6612a19565b6020908102919091010152610d0a81612ac0565b9050610c9f565b509392505050565b610d216115ce565b600754841115610d435760405162461bcd60e51b815260040161057f90612a2f565b60006008610d52600187612a02565b81548110610d6257610d62612a19565b906000526020600020906009020190506000831115610dda578060060154831015610dda5760405162461bcd60e51b815260206004820152602260248201527f537570706c79206973206c657373207468617420616c7265616479206d696e74604482015261195960f21b606482015260840161057f565b81516001600160a01b031615610e3e576000826020015111610e3e5760405162461bcd60e51b815260206004820152601e60248201527f506c656173652070726f7669646520726f79616c74792070657263656e740000604482015260640161057f565b6004810193909355600583019190915580516007830180546001600160a01b0319166001600160a01b039092169190911790556020015160089091015550565b610e866115ce565b61097c600061199e565b610e986115ce565b61097c6119f0565b610ea8611a33565b60008111610eec5760405162461bcd60e51b815260206004820152601160248201527015dc9bdb99c81b5a5b9d08185b5bdd5b9d607a1b604482015260640161057f565b60008211610f0c5760405162461bcd60e51b815260040161057f90612a2f565b600754821115610f2e5760405162461bcd60e51b815260040161057f90612a2f565b60006008610f3d600185612a02565b81548110610f4d57610f4d612a19565b90600052602060002090600902019050600081600501541115610fc657818160060154610f7a9190612a59565b81600501541015610fc65760405162461bcd60e51b8152602060048201526016602482015275139bdd08195b9bdd59da081cdd5c1c1b1e481b19599d60521b604482015260640161057f565b600481015415611031576000816004015483610fe29190612adb565b90508034101561102b5760405162461bcd60e51b815260206004820152601460248201527315dc9bdb99c81c185e5b595b9d08185b5bdd5b9d60621b604482015260640161057f565b50611081565b816001146110815760405162461bcd60e51b815260206004820152601e60248201527f596f752063616e2774206d696e74206d6f7265207468616e2031204e46540000604482015260640161057f565b818160060160008282546110959190612a59565b925050819055506110b73384846040518060200160405280600081525061163b565b505050565b60068054610621906129b1565b6110d4338383611a80565b5050565b6110e06115ce565b60008651116111225760405162461bcd60e51b815260206004820152600e60248201526d57726f6e67206a736f6e2055524960901b604482015260640161057f565b60008551116111655760405162461bcd60e51b815260206004820152600f60248201526e57726f6e67206d656469612055524960881b604482015260640161057f565b80516001600160a01b0316156111c95760008160200151116111c95760405162461bcd60e51b815260206004820152601e60248201527f506c656173652070726f7669646520726f79616c74792070657263656e740000604482015260640161057f565b6001600760008282546111dc9190612a59565b90915550506040805161010081018252858152602080820189905291810187905260075460608201526080810185905260a08101849052600060c0820181905260e0820184905260088054600181018255915281518051929360099092027ff3f7a9fe364faab93b216da50a3214154f22a0a2b415b23a84c8169e8b636ee3019261126a92849201906120da565b50602082810151805161128392600185019201906120da565b506040820151805161129f9160028401916020909101906120da565b50606082015160038201556080820151600482015560a0820151600582015560c0820151600682015560e09091015180516007830180546001600160a01b0319166001600160a01b0390921691909117905560200151600890910155505050505050565b6001600160a01b03851633148061131f575061131f8533610476565b61133b5760405162461bcd60e51b815260040161057f90612a71565b6109658585858585611b61565b6113506115ce565b6001600160a01b0381166113b55760405162461bcd60e51b815260206004820152602660248201527f4f776e61626c653a206e6577206f776e657220697320746865207a65726f206160448201526564647265737360d01b606482015260840161057f565b6106118161199e565b600881815481106113ce57600080fd5b90600052602060002090600902016000915090508060000180546113f1906129b1565b80601f016020809104026020016040519081016040528092919081815260200182805461141d906129b1565b801561146a5780601f1061143f5761010080835404028352916020019161146a565b820191906000526020600020905b81548152906001019060200180831161144d57829003601f168201915b50505050509080600101805461147f906129b1565b80601f01602080910402602001604051908101604052809291908181526020018280546114ab906129b1565b80156114f85780601f106114cd576101008083540402835291602001916114f8565b820191906000526020600020905b8154815290600101906020018083116114db57829003601f168201915b50505050509080600201805461150d906129b1565b80601f0160208091040260200160405190810160405280929190818152602001828054611539906129b1565b80156115865780601f1061155b57610100808354040283529160200191611586565b820191906000526020600020905b81548152906001019060200180831161156957829003601f168201915b5050505060038301546004840154600585015460068601546040805180820190915260078801546001600160a01b031681526008909701546020880152949592949193509188565b6003546001600160a01b0316331461097c5760405162461bcd60e51b815260206004820181905260248201527f4f776e61626c653a2063616c6c6572206973206e6f7420746865206f776e6572604482015260640161057f565b80516110d49060029060208401906120da565b6001600160a01b03841661169b5760405162461bcd60e51b815260206004820152602160248201527f455243313135353a206d696e7420746f20746865207a65726f206164647265736044820152607360f81b606482015260840161057f565b3360006116a785611c99565b905060006116b485611c99565b90506116c583600089858589611ce4565b6000868152602081815260408083206001600160a01b038b168452909152812080548792906116f5908490612a59565b909155505060408051878152602081018790526001600160a01b03808a1692600092918716917fc3d58168c5ae7397731d063d5bbf3d657854427343f4c083240f7aacaa2d0f62910160405180910390a461175583600089898989611cfa565b50505050505050565b81518351146117c05760405162461bcd60e51b815260206004820152602860248201527f455243313135353a2069647320616e6420616d6f756e7473206c656e677468206044820152670dad2e6dac2e8c6d60c31b606482015260840161057f565b6001600160a01b0384166117e65760405162461bcd60e51b815260040161057f90612afa565b336117f5818787878787611ce4565b60005b84518110156118db57600085828151811061181557611815612a19565b60200260200101519050600085838151811061183357611833612a19565b602090810291909101810151600084815280835260408082206001600160a01b038e1683529093529190912054909150818110156118835760405162461bcd60e51b815260040161057f90612b3f565b6000838152602081815260408083206001600160a01b038e8116855292528083208585039055908b168252812080548492906118c0908490612a59565b92505081905550505050806118d490612ac0565b90506117f8565b50846001600160a01b0316866001600160a01b0316826001600160a01b03167f4a39dc06d4c0dbc64b70af90fd698a233a518aa5d07e595d983b8c0526c8f7fb878760405161192b929190612b89565b60405180910390a4611941818787878787611e56565b505050505050565b611951611f11565b6003805460ff60a01b191690557f5db9ee0a495bf2e6ff9c91a7834c1ba4fdd244a5e8aa4e537bd38aeae4b073aa335b6040516001600160a01b03909116815260200160405180910390a1565b600380546001600160a01b038381166001600160a01b0319831681179093556040519116919082907f8be0079c531659141344cd1fd0a4f28419497f9722a3daafe3b4186f6b6457e090600090a35050565b6119f8611a33565b6003805460ff60a01b1916600160a01b1790557f62e78cea01bee320cd4e420270b5ea74000d11b0c9f74754ebdbfc544b05a2586119813390565b600354600160a01b900460ff161561097c5760405162461bcd60e51b815260206004820152601060248201526f14185d5cd8589b194e881c185d5cd95960821b604482015260640161057f565b816001600160a01b0316836001600160a01b03161415611af45760405162461bcd60e51b815260206004820152602960248201527f455243313135353a2073657474696e6720617070726f76616c20737461747573604482015268103337b91039b2b63360b91b606482015260840161057f565b6001600160a01b03838116600081815260016020908152604080832094871680845294825291829020805460ff191686151590811790915591519182527f17307eab39ab6107e8899845ad3d59bd9653f200f220920489ca2b5937696c31910160405180910390a3505050565b6001600160a01b038416611b875760405162461bcd60e51b815260040161057f90612afa565b336000611b9385611c99565b90506000611ba085611c99565b9050611bb0838989858589611ce4565b6000868152602081815260408083206001600160a01b038c16845290915290205485811015611bf15760405162461bcd60e51b815260040161057f90612b3f565b6000878152602081815260408083206001600160a01b038d8116855292528083208985039055908a16825281208054889290611c2e908490612a59565b909155505060408051888152602081018890526001600160a01b03808b16928c821692918816917fc3d58168c5ae7397731d063d5bbf3d657854427343f4c083240f7aacaa2d0f62910160405180910390a4611c8e848a8a8a8a8a611cfa565b505050505050505050565b60408051600180825281830190925260609160009190602080830190803683370190505090508281600081518110611cd357611cd3612a19565b602090810291909101015292915050565b611cec611a33565b611941868686868686611f61565b6001600160a01b0384163b156119415760405163f23a6e6160e01b81526001600160a01b0385169063f23a6e6190611d3e9089908990889088908890600401612bb7565b6020604051808303816000875af1925050508015611d79575060408051601f3d908101601f19168201909252611d7691810190612bfc565b60015b611e2657611d85612c19565b806308c379a01415611dbf5750611d9a612c35565b80611da55750611dc1565b8060405162461bcd60e51b815260040161057f9190612334565b505b60405162461bcd60e51b815260206004820152603460248201527f455243313135353a207472616e7366657220746f206e6f6e20455243313135356044820152732932b1b2b4bb32b91034b6b83632b6b2b73a32b960611b606482015260840161057f565b6001600160e01b0319811663f23a6e6160e01b146117555760405162461bcd60e51b815260040161057f90612cbf565b6001600160a01b0384163b156119415760405163bc197c8160e01b81526001600160a01b0385169063bc197c8190611e9a9089908990889088908890600401612d07565b6020604051808303816000875af1925050508015611ed5575060408051601f3d908101601f19168201909252611ed291810190612bfc565b60015b611ee157611d85612c19565b6001600160e01b0319811663bc197c8160e01b146117555760405162461bcd60e51b815260040161057f90612cbf565b600354600160a01b900460ff1661097c5760405162461bcd60e51b815260206004820152601460248201527314185d5cd8589b194e881b9bdd081c185d5cd95960621b604482015260640161057f565b6001600160a01b038516611fe85760005b8351811015611fe657828181518110611f8d57611f8d612a19565b602002602001015160046000868481518110611fab57611fab612a19565b602002602001015181526020019081526020016000206000828254611fd09190612a59565b90915550611fdf905081612ac0565b9050611f72565b505b6001600160a01b0384166119415760005b835181101561175557600084828151811061201657612016612a19565b60200260200101519050600084838151811061203457612034612a19565b60200260200101519050600060046000848152602001908152602001600020549050818110156120b75760405162461bcd60e51b815260206004820152602860248201527f455243313135353a206275726e20616d6f756e74206578636565647320746f74604482015267616c537570706c7960c01b606482015260840161057f565b600092835260046020526040909220910390556120d381612ac0565b9050611ff9565b8280546120e6906129b1565b90600052602060002090601f016020900481019282612108576000855561214e565b82601f1061212157805160ff191683800117855561214e565b8280016001018555821561214e579182015b8281111561214e578251825591602001919060010190612133565b5061215a92915061215e565b5090565b5b8082111561215a576000815560010161215f565b80356001600160a01b038116811461218a57600080fd5b919050565b600080604083850312156121a257600080fd5b6121ab83612173565b946020939093013593505050565b6001600160e01b03198116811461061157600080fd5b6000602082840312156121e157600080fd5b81356121ec816121b9565b9392505050565b634e487b7160e01b600052604160045260246000fd5b601f8201601f1916810167ffffffffffffffff8111828210171561222f5761222f6121f3565b6040525050565b600082601f83011261224757600080fd5b813567ffffffffffffffff811115612261576122616121f3565b604051612278601f8301601f191660200182612209565b81815284602083860101111561228d57600080fd5b816020850160208301376000918101602001919091529392505050565b6000602082840312156122bc57600080fd5b813567ffffffffffffffff8111156122d357600080fd5b6122df84828501612236565b949350505050565b6000815180845260005b8181101561230d576020818501810151868301820152016122f1565b8181111561231f576000602083870101525b50601f01601f19169290920160200192915050565b6020815260006121ec60208301846122e7565b60006020828403121561235957600080fd5b5035919050565b60008060006060848603121561237557600080fd5b61237e84612173565b95602085013595506040909401359392505050565b600067ffffffffffffffff8211156123ad576123ad6121f3565b5060051b60200190565b600082601f8301126123c857600080fd5b813560206123d582612393565b6040516123e28282612209565b83815260059390931b850182019282810191508684111561240257600080fd5b8286015b8481101561241d5780358352918301918301612406565b509695505050505050565b600080600080600060a0868803121561244057600080fd5b61244986612173565b945061245760208701612173565b9350604086013567ffffffffffffffff8082111561247457600080fd5b61248089838a016123b7565b9450606088013591508082111561249657600080fd5b6124a289838a016123b7565b935060808801359150808211156124b857600080fd5b506124c588828901612236565b9150509295509295909350565b60006020808301818452808551808352604092508286019150828160051b87010184880160005b838110156125b257603f1989840301855281516101208151818652612520828701826122e7565b915050888201518582038a87015261253882826122e7565b915050878201518582038987015261255082826122e7565b606084810151908801526080808501519088015260a0808501519088015260c0808501519088015260e09384015180516001600160a01b03168589015260208101516101008901529390925090505095880195935050908601906001016124f9565b509098975050505050505050565b600080604083850312156125d357600080fd5b823567ffffffffffffffff808211156125eb57600080fd5b818501915085601f8301126125ff57600080fd5b8135602061260c82612393565b6040516126198282612209565b83815260059390931b850182019282810191508984111561263957600080fd5b948201945b8386101561265e5761264f86612173565b8252948201949082019061263e565b9650508601359250508082111561267457600080fd5b50612681858286016123b7565b9150509250929050565b600081518084526020808501945080840160005b838110156126bb5781518752958201959082019060010161269f565b509495945050505050565b6020815260006121ec602083018461268b565b6000604082840312156126eb57600080fd5b6040516040810181811067ffffffffffffffff8211171561270e5761270e6121f3565b60405290508061271d83612173565b8152602083013560208201525092915050565b60008060008060a0858703121561274657600080fd5b84359350602085013592506040850135915061276586606087016126d9565b905092959194509250565b6000806040838503121561278357600080fd5b50508035926020909101359150565b600080604083850312156127a557600080fd5b6127ae83612173565b9150602083013580151581146127c357600080fd5b809150509250929050565b60008060008060008060e087890312156127e757600080fd5b863567ffffffffffffffff808211156127ff57600080fd5b61280b8a838b01612236565b9750602089013591508082111561282157600080fd5b61282d8a838b01612236565b9650604089013591508082111561284357600080fd5b5061285089828a01612236565b945050606087013592506080870135915061286e8860a089016126d9565b90509295509295509295565b6000806040838503121561288d57600080fd5b61289683612173565b91506128a460208401612173565b90509250929050565b600080600080600060a086880312156128c557600080fd5b6128ce86612173565b94506128dc60208701612173565b93506040860135925060608601359150608086013567ffffffffffffffff81111561290657600080fd5b6124c588828901612236565b60006020828403121561292457600080fd5b6121ec82612173565b60006101208083526129418184018c6122e7565b90508281036020840152612955818b6122e7565b90508281036040840152612969818a6122e7565b9150508660608301528560808301528460a08301528360c08301526129a460e083018480516001600160a01b03168252602090810151910152565b9998505050505050505050565b600181811c908216806129c557607f821691505b602082108114156129e657634e487b7160e01b600052602260045260246000fd5b50919050565b634e487b7160e01b600052601160045260246000fd5b600082821015612a1457612a146129ec565b500390565b634e487b7160e01b600052603260045260246000fd5b60208082526010908201526f2bb937b7339021b7b63632b1ba34b7b760811b604082015260600190565b60008219821115612a6c57612a6c6129ec565b500190565b6020808252602f908201527f455243313135353a2063616c6c6572206973206e6f7420746f6b656e206f776e60408201526e195c881b9bdc88185c1c1c9bdd9959608a1b606082015260800190565b6000600019821415612ad457612ad46129ec565b5060010190565b6000816000190483118215151615612af557612af56129ec565b500290565b60208082526025908201527f455243313135353a207472616e7366657220746f20746865207a65726f206164604082015264647265737360d81b606082015260800190565b6020808252602a908201527f455243313135353a20696e73756666696369656e742062616c616e636520666f60408201526939103a3930b739b332b960b11b606082015260800190565b604081526000612b9c604083018561268b565b8281036020840152612bae818561268b565b95945050505050565b6001600160a01b03868116825285166020820152604081018490526060810183905260a060808201819052600090612bf1908301846122e7565b979650505050505050565b600060208284031215612c0e57600080fd5b81516121ec816121b9565b600060033d1115612c325760046000803e5060005160e01c5b90565b600060443d1015612c435790565b6040516003193d81016004833e81513d67ffffffffffffffff8160248401118184111715612c7357505050505090565b8285019150815181811115612c8b5750505050505090565b843d8701016020828501011115612ca55750505050505090565b612cb460208286010187612209565b509095945050505050565b60208082526028908201527f455243313135353a204552433131353552656365697665722072656a656374656040820152676420746f6b656e7360c01b606082015260800190565b6001600160a01b0386811682528516602082015260a060408201819052600090612d339083018661268b565b8281036060840152612d45818661268b565b90508281036080840152612d5981856122e7565b9897505050505050505056fea2646970667358221220c19bfb6ec9d78994aa04c9f7ca4433abbc0bb036d227caab3a4b38d49c04a9af64736f6c634300080c0033",
  "linkReferences": {},
  "deployedLinkReferences": {}
}