{
  "_format": "hh-sol-artifact-1",
  "contractName": "Web3Community",
  "sourceName": "src/backend/contracts/Web3Community.sol",
  "abi": [
    {
      "inputs": [],
      "stateMutability": "nonpayable",
      "type": "constructor"
    },
    {
      "anonymous": false,
      "inputs": [
        {
          "indexed": false,
          "internalType": "address",
          "name": "previousAdmin",
          "type": "address"
        },
        {
          "indexed": false,
          "internalType": "address",
          "name": "newAdmin",
          "type": "address"
        }
      ],
      "name": "AdminChanged",
      "type": "event"
    },
    {
      "anonymous": false,
      "inputs": [
        {
          "indexed": true,
          "internalType": "address",
          "name": "beacon",
          "type": "address"
        }
      ],
      "name": "BeaconUpgraded",
      "type": "event"
    },
    {
      "anonymous": false,
      "inputs": [
        {
          "indexed": false,
          "internalType": "uint8",
          "name": "version",
          "type": "uint8"
        }
      ],
      "name": "Initialized",
      "type": "event"
    },
    {
      "anonymous": false,
      "inputs": [
        {
          "indexed": true,
          "internalType": "address",
          "name": "previousOwner",
          "type": "address"
        },
        {
          "indexed": true,
          "internalType": "address",
          "name": "newOwner",
          "type": "address"
        }
      ],
      "name": "OwnershipTransferred",
      "type": "event"
    },
    {
      "anonymous": false,
      "inputs": [
        {
          "indexed": true,
          "internalType": "address",
          "name": "implementation",
          "type": "address"
        }
      ],
      "name": "Upgraded",
      "type": "event"
    },
    {
      "inputs": [],
      "name": "communityCount",
      "outputs": [
        {
          "internalType": "uint256",
          "name": "",
          "type": "uint256"
        }
      ],
      "stateMutability": "view",
      "type": "function"
    },
    {
      "inputs": [
        {
          "internalType": "address",
          "name": "",
          "type": "address"
        },
        {
          "internalType": "uint256",
          "name": "",
          "type": "uint256"
        }
      ],
      "name": "communityList",
      "outputs": [
        {
          "internalType": "uint256",
          "name": "id",
          "type": "uint256"
        },
        {
          "internalType": "string",
          "name": "name",
          "type": "string"
        },
        {
          "internalType": "string",
          "name": "description",
          "type": "string"
        },
        {
          "internalType": "string",
          "name": "logo",
          "type": "string"
        },
        {
          "internalType": "address",
          "name": "nftContract",
          "type": "address"
        },
        {
          "internalType": "address",
          "name": "ftContract",
          "type": "address"
        }
      ],
      "stateMutability": "view",
      "type": "function"
    },
    {
      "inputs": [
        {
          "internalType": "string",
          "name": "_name",
          "type": "string"
        },
        {
          "internalType": "string",
          "name": "_description",
          "type": "string"
        },
        {
          "internalType": "string",
          "name": "_logo",
          "type": "string"
        }
      ],
      "name": "createCommunity",
      "outputs": [],
      "stateMutability": "nonpayable",
      "type": "function"
    },
    {
      "inputs": [
        {
          "internalType": "address",
          "name": "_owner",
          "type": "address"
        }
      ],
      "name": "getUserCommunities",
      "outputs": [
        {
          "components": [
            {
              "internalType": "uint256",
              "name": "id",
              "type": "uint256"
            },
            {
              "internalType": "string",
              "name": "name",
              "type": "string"
            },
            {
              "internalType": "string",
              "name": "description",
              "type": "string"
            },
            {
              "internalType": "string",
              "name": "logo",
              "type": "string"
            },
            {
              "internalType": "address",
              "name": "nftContract",
              "type": "address"
            },
            {
              "internalType": "address",
              "name": "ftContract",
              "type": "address"
            }
          ],
          "internalType": "struct Web3Community.Community[]",
          "name": "",
          "type": "tuple[]"
        }
      ],
      "stateMutability": "view",
      "type": "function"
    },
    {
      "inputs": [],
      "name": "initialize",
      "outputs": [],
      "stateMutability": "nonpayable",
      "type": "function"
    },
    {
      "inputs": [],
      "name": "owner",
      "outputs": [
        {
          "internalType": "address",
          "name": "",
          "type": "address"
        }
      ],
      "stateMutability": "view",
      "type": "function"
    },
    {
      "inputs": [],
      "name": "proxiableUUID",
      "outputs": [
        {
          "internalType": "bytes32",
          "name": "",
          "type": "bytes32"
        }
      ],
      "stateMutability": "view",
      "type": "function"
    },
    {
      "inputs": [],
      "name": "renounceOwnership",
      "outputs": [],
      "stateMutability": "nonpayable",
      "type": "function"
    },
    {
      "inputs": [
        {
          "internalType": "address",
          "name": "newOwner",
          "type": "address"
        }
      ],
      "name": "transferOwnership",
      "outputs": [],
      "stateMutability": "nonpayable",
      "type": "function"
    },
    {
      "inputs": [
        {
          "internalType": "address",
          "name": "newImplementation",
          "type": "address"
        }
      ],
      "name": "upgradeTo",
      "outputs": [],
      "stateMutability": "nonpayable",
      "type": "function"
    },
    {
      "inputs": [
        {
          "internalType": "address",
          "name": "newImplementation",
          "type": "address"
        },
        {
          "internalType": "bytes",
          "name": "data",
          "type": "bytes"
        }
      ],
      "name": "upgradeToAndCall",
      "outputs": [],
      "stateMutability": "payable",
      "type": "function"
    }
  ],
  "bytecode": "0x60a06040523060805234801561001457600080fd5b5061001d610022565b6100e2565b600054610100900460ff161561008e5760405162461bcd60e51b815260206004820152602760248201527f496e697469616c697a61626c653a20636f6e747261637420697320696e697469604482015266616c697a696e6760c81b606482015260840160405180910390fd5b60005460ff90811610156100e0576000805460ff191660ff9081179091556040519081527f7f26b83ff96e1f2b6a682f133852f6798a09c465da95921460cefb38474024989060200160405180910390a15b565b60805161167f610119600039600081816104120152818161045b015281816104fb0152818161053b01526105ce015261167f6000f3fe60806040526004361061009c5760003560e01c8063715018a611610064578063715018a61461016157806375586d4a146101765780638129fc1c146101965780638da5cb5b146101ab578063aee84613146101d3578063f2fde38b146101e957600080fd5b806331738c11146100a15780633659cfe6146100dc5780634f1ef286146100fe57806352d1902d146101115780636543286f14610134575b600080fd5b3480156100ad57600080fd5b506100c16100bc36600461110e565b610209565b6040516100d396959493929190611190565b60405180910390f35b3480156100e857600080fd5b506100fc6100f73660046111f6565b610407565b005b6100fc61010c36600461129d565b6104f0565b34801561011d57600080fd5b506101266105c1565b6040519081526020016100d3565b34801561014057600080fd5b5061015461014f3660046111f6565b610674565b6040516100d391906112ff565b34801561016d57600080fd5b506100fc6108cf565b34801561018257600080fd5b506100fc6101913660046113ee565b6108e3565b3480156101a257600080fd5b506100fc6109e6565b3480156101b757600080fd5b506033546040516001600160a01b0390911681526020016100d3565b3480156101df57600080fd5b5061012660c95481565b3480156101f557600080fd5b506100fc6102043660046111f6565b610afe565b60ca602052816000526040600020818154811061022557600080fd5b90600052602060002090600602016000915091505080600001549080600101805461024f90611476565b80601f016020809104026020016040519081016040528092919081815260200182805461027b90611476565b80156102c85780601f1061029d576101008083540402835291602001916102c8565b820191906000526020600020905b8154815290600101906020018083116102ab57829003601f168201915b5050505050908060020180546102dd90611476565b80601f016020809104026020016040519081016040528092919081815260200182805461030990611476565b80156103565780601f1061032b57610100808354040283529160200191610356565b820191906000526020600020905b81548152906001019060200180831161033957829003601f168201915b50505050509080600301805461036b90611476565b80601f016020809104026020016040519081016040528092919081815260200182805461039790611476565b80156103e45780601f106103b9576101008083540402835291602001916103e4565b820191906000526020600020905b8154815290600101906020018083116103c757829003601f168201915b50505050600483015460059093015491926001600160a01b039081169216905086565b306001600160a01b037f00000000000000000000000000000000000000000000000000000000000000001614156104595760405162461bcd60e51b8152600401610450906114b1565b60405180910390fd5b7f00000000000000000000000000000000000000000000000000000000000000006001600160a01b03166104a2600080516020611603833981519152546001600160a01b031690565b6001600160a01b0316146104c85760405162461bcd60e51b8152600401610450906114fd565b6104d181610b74565b604080516000808252602082019092526104ed91839190610b7c565b50565b306001600160a01b037f00000000000000000000000000000000000000000000000000000000000000001614156105395760405162461bcd60e51b8152600401610450906114b1565b7f00000000000000000000000000000000000000000000000000000000000000006001600160a01b0316610582600080516020611603833981519152546001600160a01b031690565b6001600160a01b0316146105a85760405162461bcd60e51b8152600401610450906114fd565b6105b182610b74565b6105bd82826001610b7c565b5050565b6000306001600160a01b037f000000000000000000000000000000000000000000000000000000000000000016146106615760405162461bcd60e51b815260206004820152603860248201527f555550535570677261646561626c653a206d757374206e6f742062652063616c60448201527f6c6564207468726f7567682064656c656761746563616c6c00000000000000006064820152608401610450565b5060008051602061160383398151915290565b6001600160a01b038116600090815260ca60209081526040808320805482518185028101850190935280835260609492939192909184015b828210156108c457838290600052602060002090600602016040518060c0016040529081600082015481526020016001820180546106e990611476565b80601f016020809104026020016040519081016040528092919081815260200182805461071590611476565b80156107625780601f1061073757610100808354040283529160200191610762565b820191906000526020600020905b81548152906001019060200180831161074557829003601f168201915b5050505050815260200160028201805461077b90611476565b80601f01602080910402602001604051908101604052809291908181526020018280546107a790611476565b80156107f45780601f106107c9576101008083540402835291602001916107f4565b820191906000526020600020905b8154815290600101906020018083116107d757829003601f168201915b5050505050815260200160038201805461080d90611476565b80601f016020809104026020016040519081016040528092919081815260200182805461083990611476565b80156108865780601f1061085b57610100808354040283529160200191610886565b820191906000526020600020905b81548152906001019060200180831161086957829003601f168201915b505050918352505060048201546001600160a01b039081166020808401919091526005909301541660409091015290825260019290920191016106ac565b505050509050919050565b6108d7610cec565b6108e16000610d46565b565b600160c960008282546108f69190611549565b909155505033600090815260ca60209081526040808320815160c08101835260c9548152808401888152928101879052606081018690526080810185905260a081018590528154600181810184559286529484902081516006909602019485559151805192949361096d9392850192910190611059565b5060408201518051610989916002840191602090910190611059565b50606082015180516109a5916003840191602090910190611059565b5060808201516004820180546001600160a01b03199081166001600160a01b039384161790915560a090930151600590920180549093169116179055505050565b600054610100900460ff1615808015610a065750600054600160ff909116105b80610a205750303b158015610a20575060005460ff166001145b610a835760405162461bcd60e51b815260206004820152602e60248201527f496e697469616c697a61626c653a20636f6e747261637420697320616c72656160448201526d191e481a5b9a5d1a585b1a5e995960921b6064820152608401610450565b6000805460ff191660011790558015610aa6576000805461ff0019166101001790555b610aae610d98565b610ab6610dc7565b80156104ed576000805461ff0019169055604051600181527f7f26b83ff96e1f2b6a682f133852f6798a09c465da95921460cefb38474024989060200160405180910390a150565b610b06610cec565b6001600160a01b038116610b6b5760405162461bcd60e51b815260206004820152602660248201527f4f776e61626c653a206e6577206f776e657220697320746865207a65726f206160448201526564647265737360d01b6064820152608401610450565b6104ed81610d46565b6104ed610cec565b7f4910fdfa16fed3260ed0e7147f7cc6da11a60208b5b9406d12a635614ffd91435460ff1615610bb457610baf83610dee565b505050565b826001600160a01b03166352d1902d6040518163ffffffff1660e01b8152600401602060405180830381865afa925050508015610c0e575060408051601f3d908101601f19168201909252610c0b9181019061156f565b60015b610c715760405162461bcd60e51b815260206004820152602e60248201527f45524331393637557067726164653a206e657720696d706c656d656e7461746960448201526d6f6e206973206e6f74205555505360901b6064820152608401610450565b6000805160206116038339815191528114610ce05760405162461bcd60e51b815260206004820152602960248201527f45524331393637557067726164653a20756e737570706f727465642070726f786044820152681a58589b195555525160ba1b6064820152608401610450565b50610baf838383610e8a565b6033546001600160a01b031633146108e15760405162461bcd60e51b815260206004820181905260248201527f4f776e61626c653a2063616c6c6572206973206e6f7420746865206f776e65726044820152606401610450565b603380546001600160a01b038381166001600160a01b0319831681179093556040519116919082907f8be0079c531659141344cd1fd0a4f28419497f9722a3daafe3b4186f6b6457e090600090a35050565b600054610100900460ff16610dbf5760405162461bcd60e51b815260040161045090611588565b6108e1610eb5565b600054610100900460ff166108e15760405162461bcd60e51b815260040161045090611588565b6001600160a01b0381163b610e5b5760405162461bcd60e51b815260206004820152602d60248201527f455243313936373a206e657720696d706c656d656e746174696f6e206973206e60448201526c1bdd08184818dbdb9d1c9858dd609a1b6064820152608401610450565b60008051602061160383398151915280546001600160a01b0319166001600160a01b0392909216919091179055565b610e9383610ee5565b600082511180610ea05750805b15610baf57610eaf8383610f25565b50505050565b600054610100900460ff16610edc5760405162461bcd60e51b815260040161045090611588565b6108e133610d46565b610eee81610dee565b6040516001600160a01b038216907fbc7cd75a20ee27fd9adebab32041f755214dbc6bffa90cc0225b39da2e5c2d3b90600090a250565b60606001600160a01b0383163b610f8d5760405162461bcd60e51b815260206004820152602660248201527f416464726573733a2064656c65676174652063616c6c20746f206e6f6e2d636f6044820152651b9d1c9858dd60d21b6064820152608401610450565b600080846001600160a01b031684604051610fa891906115d3565b600060405180830381855af49150503d8060008114610fe3576040519150601f19603f3d011682016040523d82523d6000602084013e610fe8565b606091505b5091509150611010828260405180606001604052806027815260200161162360279139611019565b95945050505050565b60608315611028575081611052565b8251156110385782518084602001fd5b8160405162461bcd60e51b815260040161045091906115ef565b9392505050565b82805461106590611476565b90600052602060002090601f01602090048101928261108757600085556110cd565b82601f106110a057805160ff19168380011785556110cd565b828001600101855582156110cd579182015b828111156110cd5782518255916020019190600101906110b2565b506110d99291506110dd565b5090565b5b808211156110d957600081556001016110de565b80356001600160a01b038116811461110957600080fd5b919050565b6000806040838503121561112157600080fd5b61112a836110f2565b946020939093013593505050565b60005b8381101561115357818101518382015260200161113b565b83811115610eaf5750506000910152565b6000815180845261117c816020860160208601611138565b601f01601f19169290920160200192915050565b86815260c0602082015260006111a960c0830188611164565b82810360408401526111bb8188611164565b905082810360608401526111cf8187611164565b6001600160a01b0395861660808501529390941660a0909201919091525095945050505050565b60006020828403121561120857600080fd5b611052826110f2565b634e487b7160e01b600052604160045260246000fd5b600067ffffffffffffffff8084111561124257611242611211565b604051601f8501601f19908116603f0116810190828211818310171561126a5761126a611211565b8160405280935085815286868601111561128357600080fd5b858560208301376000602087830101525050509392505050565b600080604083850312156112b057600080fd5b6112b9836110f2565b9150602083013567ffffffffffffffff8111156112d557600080fd5b8301601f810185136112e657600080fd5b6112f585823560208401611227565b9150509250929050565b60006020808301818452808551808352604092508286019150828160051b87010184880160005b838110156113c057603f19898403018552815160c08151855288820151818a87015261135482870182611164565b915050878201518582038987015261136c8282611164565b915050606080830151868303828801526113868382611164565b6080858101516001600160a01b03908116918a019190915260a0958601511694909701939093525050509386019390860190600101611326565b509098975050505050505050565b600082601f8301126113df57600080fd5b61105283833560208501611227565b60008060006060848603121561140357600080fd5b833567ffffffffffffffff8082111561141b57600080fd5b611427878388016113ce565b9450602086013591508082111561143d57600080fd5b611449878388016113ce565b9350604086013591508082111561145f57600080fd5b5061146c868287016113ce565b9150509250925092565b600181811c9082168061148a57607f821691505b602082108114156114ab57634e487b7160e01b600052602260045260246000fd5b50919050565b6020808252602c908201527f46756e6374696f6e206d7573742062652063616c6c6564207468726f7567682060408201526b19195b1959d85d1958d85b1b60a21b606082015260800190565b6020808252602c908201527f46756e6374696f6e206d7573742062652063616c6c6564207468726f7567682060408201526b6163746976652070726f787960a01b606082015260800190565b6000821982111561156a57634e487b7160e01b600052601160045260246000fd5b500190565b60006020828403121561158157600080fd5b5051919050565b6020808252602b908201527f496e697469616c697a61626c653a20636f6e7472616374206973206e6f74206960408201526a6e697469616c697a696e6760a81b606082015260800190565b600082516115e5818460208701611138565b9190910192915050565b602081526000611052602083018461116456fe360894a13ba1a3210667c828492db98dca3e2076cc3735a920a3ca505d382bbc416464726573733a206c6f772d6c6576656c2064656c65676174652063616c6c206661696c6564a264697066735822122000b0ac731833f1e7a2251162b1f4e0c37725ff448437f2feb025327e35f4b62964736f6c634300080c0033",
  "linkReferences": {},
  "deployedLinkReferences": {}
}