{
  "_format": "hh-sol-artifact-1",
  "contractName": "Web3Community",
  "sourceName": "src/backend/contracts/Web3Community.sol",
  "abi": [
    {
      "inputs": [],
      "stateMutability": "nonpayable",
      "type": "constructor"
    },
    {
      "anonymous": false,
      "inputs": [
        {
          "indexed": false,
          "internalType": "address",
          "name": "previousAdmin",
          "type": "address"
        },
        {
          "indexed": false,
          "internalType": "address",
          "name": "newAdmin",
          "type": "address"
        }
      ],
      "name": "AdminChanged",
      "type": "event"
    },
    {
      "anonymous": false,
      "inputs": [
        {
          "indexed": true,
          "internalType": "address",
          "name": "beacon",
          "type": "address"
        }
      ],
      "name": "BeaconUpgraded",
      "type": "event"
    },
    {
      "anonymous": false,
      "inputs": [
        {
          "indexed": false,
          "internalType": "uint8",
          "name": "version",
          "type": "uint8"
        }
      ],
      "name": "Initialized",
      "type": "event"
    },
    {
      "anonymous": false,
      "inputs": [
        {
          "indexed": true,
          "internalType": "address",
          "name": "previousOwner",
          "type": "address"
        },
        {
          "indexed": true,
          "internalType": "address",
          "name": "newOwner",
          "type": "address"
        }
      ],
      "name": "OwnershipTransferred",
      "type": "event"
    },
    {
      "anonymous": false,
      "inputs": [
        {
          "indexed": true,
          "internalType": "address",
          "name": "implementation",
          "type": "address"
        }
      ],
      "name": "Upgraded",
      "type": "event"
    },
    {
      "inputs": [],
      "name": "communityCount",
      "outputs": [
        {
          "internalType": "uint256",
          "name": "",
          "type": "uint256"
        }
      ],
      "stateMutability": "view",
      "type": "function"
    },
    {
      "inputs": [
        {
          "internalType": "address",
          "name": "",
          "type": "address"
        },
        {
          "internalType": "uint256",
          "name": "",
          "type": "uint256"
        }
      ],
      "name": "communityList",
      "outputs": [
        {
          "internalType": "uint256",
          "name": "id",
          "type": "uint256"
        },
        {
          "internalType": "string",
          "name": "name",
          "type": "string"
        },
        {
          "internalType": "string",
          "name": "description",
          "type": "string"
        },
        {
          "internalType": "string",
          "name": "logo",
          "type": "string"
        },
        {
          "internalType": "address",
          "name": "nftContract",
          "type": "address"
        },
        {
          "internalType": "address",
          "name": "ftContract",
          "type": "address"
        },
        {
          "internalType": "bool",
          "name": "isEnabled",
          "type": "bool"
        }
      ],
      "stateMutability": "view",
      "type": "function"
    },
    {
      "inputs": [
        {
          "internalType": "string",
          "name": "_name",
          "type": "string"
        },
        {
          "internalType": "string",
          "name": "_description",
          "type": "string"
        },
        {
          "internalType": "string",
          "name": "_logo",
          "type": "string"
        }
      ],
      "name": "createCommunity",
      "outputs": [],
      "stateMutability": "nonpayable",
      "type": "function"
    },
    {
      "inputs": [
        {
          "internalType": "uint256",
          "name": "_communityId",
          "type": "uint256"
        },
        {
          "internalType": "string",
          "name": "_name",
          "type": "string"
        },
        {
          "internalType": "string",
          "name": "_symbol",
          "type": "string"
        },
        {
          "internalType": "uint256",
          "name": "_supply",
          "type": "uint256"
        }
      ],
      "name": "deployFTContract",
      "outputs": [],
      "stateMutability": "nonpayable",
      "type": "function"
    },
    {
      "inputs": [
        {
          "internalType": "uint256",
          "name": "_communityId",
          "type": "uint256"
        },
        {
          "internalType": "string",
          "name": "_name",
          "type": "string"
        },
        {
          "internalType": "string",
          "name": "_symbol",
          "type": "string"
        }
      ],
      "name": "deployNFTCollectionContract",
      "outputs": [],
      "stateMutability": "nonpayable",
      "type": "function"
    },
    {
      "inputs": [
        {
          "internalType": "address",
          "name": "_owner",
          "type": "address"
        },
        {
          "internalType": "uint256",
          "name": "_id",
          "type": "uint256"
        }
      ],
      "name": "getCommunityById",
      "outputs": [
        {
          "components": [
            {
              "internalType": "uint256",
              "name": "id",
              "type": "uint256"
            },
            {
              "internalType": "string",
              "name": "name",
              "type": "string"
            },
            {
              "internalType": "string",
              "name": "description",
              "type": "string"
            },
            {
              "internalType": "string",
              "name": "logo",
              "type": "string"
            },
            {
              "internalType": "address",
              "name": "nftContract",
              "type": "address"
            },
            {
              "internalType": "address",
              "name": "ftContract",
              "type": "address"
            },
            {
              "internalType": "bool",
              "name": "isEnabled",
              "type": "bool"
            }
          ],
          "internalType": "struct Web3Community.Community",
          "name": "",
          "type": "tuple"
        },
        {
          "internalType": "uint256",
          "name": "",
          "type": "uint256"
        }
      ],
      "stateMutability": "view",
      "type": "function"
    },
    {
      "inputs": [
        {
          "internalType": "address",
          "name": "_owner",
          "type": "address"
        }
      ],
      "name": "getUserCommunities",
      "outputs": [
        {
          "components": [
            {
              "internalType": "uint256",
              "name": "id",
              "type": "uint256"
            },
            {
              "internalType": "string",
              "name": "name",
              "type": "string"
            },
            {
              "internalType": "string",
              "name": "description",
              "type": "string"
            },
            {
              "internalType": "string",
              "name": "logo",
              "type": "string"
            },
            {
              "internalType": "address",
              "name": "nftContract",
              "type": "address"
            },
            {
              "internalType": "address",
              "name": "ftContract",
              "type": "address"
            },
            {
              "internalType": "bool",
              "name": "isEnabled",
              "type": "bool"
            }
          ],
          "internalType": "struct Web3Community.Community[]",
          "name": "",
          "type": "tuple[]"
        }
      ],
      "stateMutability": "view",
      "type": "function"
    },
    {
      "inputs": [],
      "name": "initialize",
      "outputs": [],
      "stateMutability": "nonpayable",
      "type": "function"
    },
    {
      "inputs": [],
      "name": "owner",
      "outputs": [
        {
          "internalType": "address",
          "name": "",
          "type": "address"
        }
      ],
      "stateMutability": "view",
      "type": "function"
    },
    {
      "inputs": [],
      "name": "proxiableUUID",
      "outputs": [
        {
          "internalType": "bytes32",
          "name": "",
          "type": "bytes32"
        }
      ],
      "stateMutability": "view",
      "type": "function"
    },
    {
      "inputs": [],
      "name": "renounceOwnership",
      "outputs": [],
      "stateMutability": "nonpayable",
      "type": "function"
    },
    {
      "inputs": [
        {
          "internalType": "address",
          "name": "newOwner",
          "type": "address"
        }
      ],
      "name": "transferOwnership",
      "outputs": [],
      "stateMutability": "nonpayable",
      "type": "function"
    },
    {
      "inputs": [
        {
          "internalType": "address",
          "name": "newImplementation",
          "type": "address"
        }
      ],
      "name": "upgradeTo",
      "outputs": [],
      "stateMutability": "nonpayable",
      "type": "function"
    },
    {
      "inputs": [
        {
          "internalType": "address",
          "name": "newImplementation",
          "type": "address"
        },
        {
          "internalType": "bytes",
          "name": "data",
          "type": "bytes"
        }
      ],
      "name": "upgradeToAndCall",
      "outputs": [],
      "stateMutability": "payable",
      "type": "function"
    }
  ],
  "bytecode": "0x60a06040523060805234801561001457600080fd5b5061001d610022565b6100e2565b600054610100900460ff161561008e5760405162461bcd60e51b815260206004820152602760248201527f496e697469616c697a61626c653a20636f6e747261637420697320696e697469604482015266616c697a696e6760c81b606482015260840160405180910390fd5b60005460ff90811610156100e0576000805460ff191660ff9081179091556040519081527f7f26b83ff96e1f2b6a682f133852f6798a09c465da95921460cefb38474024989060200160405180910390a15b565b608051615c3f6200011a600039600081816105390152818161058501528181610970015281816109b30152610a4f0152615c3f6000f3fe608060405260043610620000ef5760003560e01c806375586d4a1162000089578063aee846131162000060578063aee846131462000284578063d6bbb102146200029c578063ee01380d14620002c1578063f2fde38b14620002e657600080fd5b806375586d4a146200021d5780638129fc1c14620002425780638da5cb5b146200025a57600080fd5b80634f1ef28611620000ca5780634f1ef286146200019357806352d1902d14620001aa5780636543286f14620001d1578063715018a6146200020557600080fd5b806331738c1114620000f45780633659cfe614620001375780633761d78c146200015e575b600080fd5b3480156200010157600080fd5b50620001196200011336600462001b01565b6200030b565b6040516200012e979695949392919062001b8b565b60405180910390f35b3480156200014457600080fd5b506200015c6200015636600462001bfc565b6200052e565b005b3480156200016b57600080fd5b50620001836200017d36600462001b01565b62000623565b6040516200012e92919062001cad565b6200015c620001a436600462001d64565b62000965565b348015620001b757600080fd5b50620001c262000a42565b6040519081526020016200012e565b348015620001de57600080fd5b50620001f6620001f036600462001bfc565b62000af8565b6040516200012e919062001dcd565b3480156200021257600080fd5b506200015c62000d80565b3480156200022a57600080fd5b506200015c6200023c36600462001e56565b62000d98565b3480156200024f57600080fd5b506200015c62000ec8565b3480156200026757600080fd5b506033546040516001600160a01b0390911681526020016200012e565b3480156200029157600080fd5b50620001c260c95481565b348015620002a957600080fd5b506200015c620002bb36600462001ee8565b62000feb565b348015620002ce57600080fd5b506200015c620002e036600462001f1e565b620011e0565b348015620002f357600080fd5b506200015c6200030536600462001bfc565b62001439565b60cc60205281600052604060002081815481106200032857600080fd5b906000526020600020906006020160009150915050806000015490806001018054620003549062001f9a565b80601f0160208091040260200160405190810160405280929190818152602001828054620003829062001f9a565b8015620003d35780601f10620003a757610100808354040283529160200191620003d3565b820191906000526020600020905b815481529060010190602001808311620003b557829003601f168201915b505050505090806002018054620003ea9062001f9a565b80601f0160208091040260200160405190810160405280929190818152602001828054620004189062001f9a565b8015620004695780601f106200043d5761010080835404028352916020019162000469565b820191906000526020600020905b8154815290600101906020018083116200044b57829003601f168201915b505050505090806003018054620004809062001f9a565b80601f0160208091040260200160405190810160405280929190818152602001828054620004ae9062001f9a565b8015620004ff5780601f10620004d357610100808354040283529160200191620004ff565b820191906000526020600020905b815481529060010190602001808311620004e157829003601f168201915b50505050600483015460059093015491926001600160a01b03908116929081169150600160a01b900460ff1687565b306001600160a01b037f0000000000000000000000000000000000000000000000000000000000000000161415620005835760405162461bcd60e51b81526004016200057a9062001fd7565b60405180910390fd5b7f00000000000000000000000000000000000000000000000000000000000000006001600160a01b0316620005ce60008051602062005bc3833981519152546001600160a01b031690565b6001600160a01b031614620005f75760405162461bcd60e51b81526004016200057a9062002023565b6200060281620014b5565b604080516000808252602082019092526200062091839190620014bf565b50565b6200062d620019d1565b600062000639620019d1565b6000805b6001600160a01b038716600090815260cc602052604090205481101562000913576001600160a01b038716600090815260cc602052604090208054879190839081106200068e576200068e6200206f565b906000526020600020906006020160000154141562000900576001600160a01b038716600090815260cc60205260409020805482908110620006d457620006d46200206f565b90600052602060002090600602016040518060e001604052908160008201548152602001600182018054620007099062001f9a565b80601f0160208091040260200160405190810160405280929190818152602001828054620007379062001f9a565b8015620007885780601f106200075c5761010080835404028352916020019162000788565b820191906000526020600020905b8154815290600101906020018083116200076a57829003601f168201915b50505050508152602001600282018054620007a39062001f9a565b80601f0160208091040260200160405190810160405280929190818152602001828054620007d19062001f9a565b8015620008225780601f10620007f65761010080835404028352916020019162000822565b820191906000526020600020905b8154815290600101906020018083116200080457829003601f168201915b505050505081526020016003820180546200083d9062001f9a565b80601f01602080910402602001604051908101604052809291908181526020018280546200086b9062001f9a565b8015620008bc5780601f106200089057610100808354040283529160200191620008bc565b820191906000526020600020905b8154815290600101906020018083116200089e57829003601f168201915b505050918352505060048201546001600160a01b0390811660208301526005909201549182166040820152600160a01b90910460ff16151560609091015292509050805b6200090b816200209b565b90506200063d565b5081516200095a5760405162461bcd60e51b815260206004820152601360248201527210dbdb5b5d5b9a5d1e481b9bdd08199bdd5b99606a1b60448201526064016200057a565b909590945092505050565b306001600160a01b037f0000000000000000000000000000000000000000000000000000000000000000161415620009b15760405162461bcd60e51b81526004016200057a9062001fd7565b7f00000000000000000000000000000000000000000000000000000000000000006001600160a01b0316620009fc60008051602062005bc3833981519152546001600160a01b031690565b6001600160a01b03161462000a255760405162461bcd60e51b81526004016200057a9062002023565b62000a3082620014b5565b62000a3e82826001620014bf565b5050565b6000306001600160a01b037f0000000000000000000000000000000000000000000000000000000000000000161462000ae45760405162461bcd60e51b815260206004820152603860248201527f555550535570677261646561626c653a206d757374206e6f742062652063616c60448201527f6c6564207468726f7567682064656c656761746563616c6c000000000000000060648201526084016200057a565b5060008051602062005bc383398151915290565b6001600160a01b038116600090815260cc60209081526040808320805482518185028101850190935280835260609492939192909184015b8282101562000d7557838290600052602060002090600602016040518060e00160405290816000820154815260200160018201805462000b709062001f9a565b80601f016020809104026020016040519081016040528092919081815260200182805462000b9e9062001f9a565b801562000bef5780601f1062000bc35761010080835404028352916020019162000bef565b820191906000526020600020905b81548152906001019060200180831162000bd157829003601f168201915b5050505050815260200160028201805462000c0a9062001f9a565b80601f016020809104026020016040519081016040528092919081815260200182805462000c389062001f9a565b801562000c895780601f1062000c5d5761010080835404028352916020019162000c89565b820191906000526020600020905b81548152906001019060200180831162000c6b57829003601f168201915b5050505050815260200160038201805462000ca49062001f9a565b80601f016020809104026020016040519081016040528092919081815260200182805462000cd29062001f9a565b801562000d235780601f1062000cf75761010080835404028352916020019162000d23565b820191906000526020600020905b81548152906001019060200180831162000d0557829003601f168201915b505050918352505060048201546001600160a01b039081166020808401919091526005909301549081166040830152600160a01b900460ff161515606090910152908252600192909201910162000b30565b505050509050919050565b62000d8a6200163c565b62000d96600062001698565b565b600160c9600082825462000dad9190620020b9565b909155505033600090815260cc60209081526040808320815160e08101835260c9548152808401888152928101879052606081018690526080810185905260a08101859052600160c0820181905282548082018455928652948490208151600690930201918255915180519294919362000e2e939285019291019062001a22565b506040820151805162000e4c91600284019160209091019062001a22565b506060820151805162000e6a91600384019160209091019062001a22565b5060808201516004820180546001600160a01b0319166001600160a01b0392831617905560a08301516005909201805460c090940151929091166001600160a81b031990931692909217600160a01b91151591909102179055505050565b600054610100900460ff161580801562000ee95750600054600160ff909116105b8062000f055750303b15801562000f05575060005460ff166001145b62000f6a5760405162461bcd60e51b815260206004820152602e60248201527f496e697469616c697a61626c653a20636f6e747261637420697320616c72656160448201526d191e481a5b9a5d1a585b1a5e995960921b60648201526084016200057a565b6000805460ff19166001179055801562000f8e576000805461ff0019166101001790555b62000f98620016ea565b62000fa26200171e565b801562000620576000805461ff0019169055604051600181527f7f26b83ff96e1f2b6a682f133852f6798a09c465da95921460cefb38474024989060200160405180910390a150565b600382511015620010105760405162461bcd60e51b81526004016200057a90620020d4565b8051600314620010635760405162461bcd60e51b815260206004820152601f60248201527f53796d626f6c206c656e6774682073686f756c6420626520332063686172730060448201526064016200057a565b600062001071338562000623565b33600090815260cc6020526040812080549294509250908290849081106200109d576200109d6200206f565b60009182526020909120600460069092020101546001600160a01b031614620011155760405162461bcd60e51b815260206004820152602360248201527f436f6d6d756e69747920616c72656164792068617665204e465420436f6e74726044820152621858dd60ea1b60648201526084016200057a565b6000848433604051620011289062001ab1565b620011369392919062002123565b604051809103906000f08015801562001153573d6000803e3d6000fd5b509050808284815481106200116c576200116c6200206f565b60009182526020822060046006909202010180546001600160a01b039384166001600160a01b03199182161790915560ca805460018101825592527f42d72674974f694b5f5159593243114d38a5c39c89d6b62fee061ff523240ee190910180549390921692169190911790555050505050565b600383511015620012055760405162461bcd60e51b81526004016200057a90620020d4565b60038251101580156200121a57506005825111155b620012725760405162461bcd60e51b815260206004820152602160248201527f53796d626f6c206c656e6774682073686f756c6420626520332d3520636861726044820152607360f81b60648201526084016200057a565b60008111620012ba5760405162461bcd60e51b815260206004820152601360248201527215dc9bdb99c81cdd5c1c1b1e48185b5bdd5b9d606a1b60448201526064016200057a565b6000620012c8338662000623565b33600090815260cc602052604081208054929450925090829084908110620012f457620012f46200206f565b60009182526020909120600560069092020101546001600160a01b0316146200136b5760405162461bcd60e51b815260206004820152602260248201527f436f6d6d756e69747920616c7265616479206861766520465420436f6e74726160448201526118dd60f21b60648201526084016200057a565b6000858533866040516200137f9062001abf565b6200138e949392919062002165565b604051809103906000f080158015620013ab573d6000803e3d6000fd5b50905080828481548110620013c457620013c46200206f565b60009182526020822060056006909202010180546001600160a01b039384166001600160a01b03199182161790915560cb805460018101825592527fa7ce836d032b2bf62b7e2097a8e0a6d8aeb35405ad15271e96d3b0188a1d06fb9091018054939092169216919091179055505050505050565b620014436200163c565b6001600160a01b038116620014aa5760405162461bcd60e51b815260206004820152602660248201527f4f776e61626c653a206e6577206f776e657220697320746865207a65726f206160448201526564647265737360d01b60648201526084016200057a565b620006208162001698565b620006206200163c565b7f4910fdfa16fed3260ed0e7147f7cc6da11a60208b5b9406d12a635614ffd91435460ff1615620014fa57620014f58362001748565b505050565b826001600160a01b03166352d1902d6040518163ffffffff1660e01b8152600401602060405180830381865afa92505050801562001557575060408051601f3d908101601f191682019092526200155491810190620021ab565b60015b620015bc5760405162461bcd60e51b815260206004820152602e60248201527f45524331393637557067726164653a206e657720696d706c656d656e7461746960448201526d6f6e206973206e6f74205555505360901b60648201526084016200057a565b60008051602062005bc383398151915281146200162e5760405162461bcd60e51b815260206004820152602960248201527f45524331393637557067726164653a20756e737570706f727465642070726f786044820152681a58589b195555525160ba1b60648201526084016200057a565b50620014f5838383620017e7565b6033546001600160a01b0316331462000d965760405162461bcd60e51b815260206004820181905260248201527f4f776e61626c653a2063616c6c6572206973206e6f7420746865206f776e657260448201526064016200057a565b603380546001600160a01b038381166001600160a01b0319831681179093556040519116919082907f8be0079c531659141344cd1fd0a4f28419497f9722a3daafe3b4186f6b6457e090600090a35050565b600054610100900460ff16620017145760405162461bcd60e51b81526004016200057a90620021c5565b62000d9662001818565b600054610100900460ff1662000d965760405162461bcd60e51b81526004016200057a90620021c5565b6001600160a01b0381163b620017b75760405162461bcd60e51b815260206004820152602d60248201527f455243313936373a206e657720696d706c656d656e746174696f6e206973206e60448201526c1bdd08184818dbdb9d1c9858dd609a1b60648201526084016200057a565b60008051602062005bc383398151915280546001600160a01b0319166001600160a01b0392909216919091179055565b620017f2836200184d565b600082511180620018005750805b15620014f5576200181283836200188f565b50505050565b600054610100900460ff16620018425760405162461bcd60e51b81526004016200057a90620021c5565b62000d963362001698565b620018588162001748565b6040516001600160a01b038216907fbc7cd75a20ee27fd9adebab32041f755214dbc6bffa90cc0225b39da2e5c2d3b90600090a250565b60606001600160a01b0383163b620018f95760405162461bcd60e51b815260206004820152602660248201527f416464726573733a2064656c65676174652063616c6c20746f206e6f6e2d636f6044820152651b9d1c9858dd60d21b60648201526084016200057a565b600080846001600160a01b03168460405162001916919062002210565b600060405180830381855af49150503d806000811462001953576040519150601f19603f3d011682016040523d82523d6000602084013e62001958565b606091505b509150915062001983828260405180606001604052806027815260200162005be3602791396200198c565b95945050505050565b606083156200199d575081620019ca565b825115620019ae5782518084602001fd5b8160405162461bcd60e51b81526004016200057a91906200222e565b9392505050565b6040518060e001604052806000815260200160608152602001606081526020016060815260200160006001600160a01b0316815260200160006001600160a01b031681526020016000151581525090565b82805462001a309062001f9a565b90600052602060002090601f01602090048101928262001a54576000855562001a9f565b82601f1062001a6f57805160ff191683800117855562001a9f565b8280016001018555821562001a9f579182015b8281111562001a9f57825182559160200191906001019062001a82565b5062001aad92915062001acd565b5090565b6127a0806200224483390190565b6111df80620049e483390190565b5b8082111562001aad576000815560010162001ace565b80356001600160a01b038116811462001afc57600080fd5b919050565b6000806040838503121562001b1557600080fd5b62001b208362001ae4565b946020939093013593505050565b60005b8381101562001b4b57818101518382015260200162001b31565b83811115620018125750506000910152565b6000815180845262001b7781602086016020860162001b2e565b601f01601f19169290920160200192915050565b87815260e06020820152600062001ba660e083018962001b5d565b828103604084015262001bba818962001b5d565b9050828103606084015262001bd0818862001b5d565b6001600160a01b0396871660808501529490951660a08301525090151560c09091015295945050505050565b60006020828403121562001c0f57600080fd5b620019ca8262001ae4565b805182526000602082015160e0602085015262001c3b60e085018262001b5d565b90506040830151848203604086015262001c56828262001b5d565b9150506060830151848203606086015262001c72828262001b5d565b915050608083015160018060a01b0380821660808701528060a08601511660a0870152505060c0830151151560c08501528091505092915050565b60408152600062001cc2604083018562001c1a565b90508260208301529392505050565b634e487b7160e01b600052604160045260246000fd5b600067ffffffffffffffff8084111562001d055762001d0562001cd1565b604051601f8501601f19908116603f0116810190828211818310171562001d305762001d3062001cd1565b8160405280935085815286868601111562001d4a57600080fd5b858560208301376000602087830101525050509392505050565b6000806040838503121562001d7857600080fd5b62001d838362001ae4565b9150602083013567ffffffffffffffff81111562001da057600080fd5b8301601f8101851362001db257600080fd5b62001dc38582356020840162001ce7565b9150509250929050565b6000602080830181845280855180835260408601915060408160051b870101925083870160005b8281101562001e2657603f1988860301845262001e1385835162001c1a565b9450928501929085019060010162001df4565b5092979650505050505050565b600082601f83011262001e4557600080fd5b620019ca8383356020850162001ce7565b60008060006060848603121562001e6c57600080fd5b833567ffffffffffffffff8082111562001e8557600080fd5b62001e938783880162001e33565b9450602086013591508082111562001eaa57600080fd5b62001eb88783880162001e33565b9350604086013591508082111562001ecf57600080fd5b5062001ede8682870162001e33565b9150509250925092565b60008060006060848603121562001efe57600080fd5b83359250602084013567ffffffffffffffff8082111562001eaa57600080fd5b6000806000806080858703121562001f3557600080fd5b84359350602085013567ffffffffffffffff8082111562001f5557600080fd5b62001f638883890162001e33565b9450604087013591508082111562001f7a57600080fd5b5062001f898782880162001e33565b949793965093946060013593505050565b600181811c9082168062001faf57607f821691505b6020821081141562001fd157634e487b7160e01b600052602260045260246000fd5b50919050565b6020808252602c908201527f46756e6374696f6e206d7573742062652063616c6c6564207468726f7567682060408201526b19195b1959d85d1958d85b1b60a21b606082015260800190565b6020808252602c908201527f46756e6374696f6e206d7573742062652063616c6c6564207468726f7567682060408201526b6163746976652070726f787960a01b606082015260800190565b634e487b7160e01b600052603260045260246000fd5b634e487b7160e01b600052601160045260246000fd5b6000600019821415620020b257620020b262002085565b5060010190565b60008219821115620020cf57620020cf62002085565b500190565b6020808252602f908201527f436f6c6c656374696f6e206e616d652073686f756c64206265206c6f6e67657260408201526e207468616e20322073796d626f6c7360881b606082015260800190565b60608152600062002138606083018662001b5d565b82810360208401526200214c818662001b5d565b91505060018060a01b0383166040830152949350505050565b6080815260006200217a608083018762001b5d565b82810360208401526200218e818762001b5d565b6001600160a01b0395909516604084015250506060015292915050565b600060208284031215620021be57600080fd5b5051919050565b6020808252602b908201527f496e697469616c697a61626c653a20636f6e7472616374206973206e6f74206960408201526a6e697469616c697a696e6760a81b606082015260800190565b600082516200222481846020870162001b2e565b9190910192915050565b602081526000620019ca602083018462001b5d56fe60806040523480156200001157600080fd5b50604051620027a0380380620027a0833981016040819052620000349162000343565b8251839083906200004d906000906020850190620001d0565b50805162000063906001906020840190620001d0565b5050600b805460ff19169055506200007b336200008f565b6200008681620000e9565b5050506200040d565b600b80546001600160a01b03838116610100818102610100600160a81b031985161790945560405193909204169182907f8be0079c531659141344cd1fd0a4f28419497f9722a3daafe3b4186f6b6457e090600090a35050565b620000f36200016c565b6001600160a01b0381166200015e5760405162461bcd60e51b815260206004820152602660248201527f4f776e61626c653a206e6577206f776e657220697320746865207a65726f206160448201526564647265737360d01b60648201526084015b60405180910390fd5b62000169816200008f565b50565b600b546001600160a01b03610100909104163314620001ce5760405162461bcd60e51b815260206004820181905260248201527f4f776e61626c653a2063616c6c6572206973206e6f7420746865206f776e6572604482015260640162000155565b565b828054620001de90620003d0565b90600052602060002090601f0160209004810192826200020257600085556200024d565b82601f106200021d57805160ff19168380011785556200024d565b828001600101855582156200024d579182015b828111156200024d57825182559160200191906001019062000230565b506200025b9291506200025f565b5090565b5b808211156200025b576000815560010162000260565b634e487b7160e01b600052604160045260246000fd5b600082601f8301126200029e57600080fd5b81516001600160401b0380821115620002bb57620002bb62000276565b604051601f8301601f19908116603f01168101908282118183101715620002e657620002e662000276565b816040528381526020925086838588010111156200030357600080fd5b600091505b8382101562000327578582018301518183018401529082019062000308565b83821115620003395760008385830101525b9695505050505050565b6000806000606084860312156200035957600080fd5b83516001600160401b03808211156200037157600080fd5b6200037f878388016200028c565b945060208601519150808211156200039657600080fd5b50620003a5868287016200028c565b604086015190935090506001600160a01b0381168114620003c557600080fd5b809150509250925092565b600181811c90821680620003e557607f821691505b602082108114156200040757634e487b7160e01b600052602260045260246000fd5b50919050565b612383806200041d6000396000f3fe6080604052600436106101815760003560e01c80635c975abb116100d157806395d89b411161008a578063b88d4fde11610064578063b88d4fde14610438578063c87b56dd14610458578063e985e9c514610478578063f2fde38b146104c157600080fd5b806395d89b41146103e3578063a1448194146103f8578063a22cb4651461041857600080fd5b80635c975abb1461033e5780636352211e1461035657806370a0823114610376578063715018a6146103965780638456cb59146103ab5780638da5cb5b146103c057600080fd5b806323b872dd1161013e5780633f4ba83a116101185780633f4ba83a146102d657806342842e0e146102eb5780634f6ccce71461030b5780635c4c94ae1461032b57600080fd5b806323b872dd1461027657806325336668146102965780632f745c59146102b657600080fd5b806301ffc9a71461018657806306fdde03146101bb578063081812fc146101dd578063095ea7b31461021557806318160ddd14610237578063217603ab14610256575b600080fd5b34801561019257600080fd5b506101a66101a1366004611db2565b6104e1565b60405190151581526020015b60405180910390f35b3480156101c757600080fd5b506101d06104f2565b6040516101b29190611e27565b3480156101e957600080fd5b506101fd6101f8366004611e3a565b610584565b6040516001600160a01b0390911681526020016101b2565b34801561022157600080fd5b50610235610230366004611e6f565b6105ab565b005b34801561024357600080fd5b506008545b6040519081526020016101b2565b34801561026257600080fd5b50610235610271366004611e99565b6106c6565b34801561028257600080fd5b50610235610291366004611ec5565b610798565b3480156102a257600080fd5b506102356102b1366004611f8d565b6107c9565b3480156102c257600080fd5b506102486102d1366004611e6f565b6108ab565b3480156102e257600080fd5b50610235610941565b3480156102f757600080fd5b50610235610306366004611ec5565b610953565b34801561031757600080fd5b50610248610326366004611e3a565b61096e565b610235610339366004611e3a565b610a01565b34801561034a57600080fd5b50600b5460ff166101a6565b34801561036257600080fd5b506101fd610371366004611e3a565b610bdb565b34801561038257600080fd5b50610248610391366004611fef565b610c3b565b3480156103a257600080fd5b50610235610cc1565b3480156103b757600080fd5b50610235610cd3565b3480156103cc57600080fd5b50600b5461010090046001600160a01b03166101fd565b3480156103ef57600080fd5b506101d0610ce3565b34801561040457600080fd5b50610235610413366004611e6f565b610cf2565b34801561042457600080fd5b5061023561043336600461200a565b610df3565b34801561044457600080fd5b50610235610453366004612046565b610e02565b34801561046457600080fd5b506101d0610473366004611e3a565b610e34565b34801561048457600080fd5b506101a66104933660046120c2565b6001600160a01b03918216600090815260056020908152604080832093909416825291909152205460ff1690565b3480156104cd57600080fd5b506102356104dc366004611fef565b610e3f565b60006104ec82610eb8565b92915050565b606060008054610501906120f5565b80601f016020809104026020016040519081016040528092919081815260200182805461052d906120f5565b801561057a5780601f1061054f5761010080835404028352916020019161057a565b820191906000526020600020905b81548152906001019060200180831161055d57829003601f168201915b5050505050905090565b600061058f82610edd565b506000908152600460205260409020546001600160a01b031690565b60006105b682610bdb565b9050806001600160a01b0316836001600160a01b031614156106295760405162461bcd60e51b815260206004820152602160248201527f4552433732313a20617070726f76616c20746f2063757272656e74206f776e656044820152603960f91b60648201526084015b60405180910390fd5b336001600160a01b038216148061064557506106458133610493565b6106b75760405162461bcd60e51b815260206004820152603e60248201527f4552433732313a20617070726f76652063616c6c6572206973206e6f7420746f60448201527f6b656e206f776e6572206e6f7220617070726f76656420666f7220616c6c00006064820152608401610620565b6106c18383610f3c565b505050565b6106ce610faa565b600c548311156106f05760405162461bcd60e51b815260040161062090612130565b6000600c6106ff600186612170565b8154811061070f5761070f612187565b9060005260206000209060050201905060008211156107875780600401548210156107875760405162461bcd60e51b815260206004820152602260248201527f537570706c79206973206c657373207468617420616c7265616479206d696e74604482015261195960f21b6064820152608401610620565b600281019290925560039091015550565b6107a2338261100a565b6107be5760405162461bcd60e51b81526004016106209061219d565b6106c1838383611089565b6107d1610faa565b600083511161080e5760405162461bcd60e51b815260206004820152600960248201526857726f6e672055524960b81b6044820152606401610620565b600c6040518060a00160405280600c80549050600161082d91906121eb565b8152602080820187905260408201869052606082018590526000608090920182905283546001818101865594835291819020835160059093020191825582810151805193949293610885938501929190910190611d03565b506040820151816002015560608201518160030155608082015181600401555050505050565b60006108b683610c3b565b82106109185760405162461bcd60e51b815260206004820152602b60248201527f455243373231456e756d657261626c653a206f776e657220696e646578206f7560448201526a74206f6620626f756e647360a81b6064820152608401610620565b506001600160a01b03919091166000908152600660209081526040808320938352929052205490565b610949610faa565b610951611230565b565b6106c183838360405180602001604052806000815250610e02565b600061097960085490565b82106109dc5760405162461bcd60e51b815260206004820152602c60248201527f455243373231456e756d657261626c653a20676c6f62616c20696e646578206f60448201526b7574206f6620626f756e647360a01b6064820152608401610620565b600882815481106109ef576109ef612187565b90600052602060002001549050919050565b610a09611282565b600c54811115610a2b5760405162461bcd60e51b815260040161062090612130565b6000600c610a3a600184612170565b81548110610a4a57610a4a612187565b90600052602060002090600502019050600081600201541115610aba5734816002015414610aba5760405162461bcd60e51b815260206004820152601c60248201527f57726f6e67207061796d656e7420616d6f756e7420746f206d696e74000000006044820152606401610620565b600381015415610b10578060040154816003015411610b105760405162461bcd60e51b8152602060048201526012602482015271105b1b08139195081dd85cc81b5a5b9d195960721b6044820152606401610620565b6001816004016000828254610b2591906121eb565b9091555050600d54610b3b600d80546001019055565b610b4533826112c8565b6106c181836001018054610b58906120f5565b80601f0160208091040260200160405190810160405280929190818152602001828054610b84906120f5565b8015610bd15780601f10610ba657610100808354040283529160200191610bd1565b820191906000526020600020905b815481529060010190602001808311610bb457829003601f168201915b50505050506112e2565b6000818152600260205260408120546001600160a01b0316806104ec5760405162461bcd60e51b8152602060048201526018602482015277115490cdcc8c4e881a5b9d985b1a59081d1bdad95b88125160421b6044820152606401610620565b60006001600160a01b038216610ca55760405162461bcd60e51b815260206004820152602960248201527f4552433732313a2061646472657373207a65726f206973206e6f7420612076616044820152683634b21037bbb732b960b91b6064820152608401610620565b506001600160a01b031660009081526003602052604090205490565b610cc9610faa565b610951600061137c565b610cdb610faa565b6109516113d6565b606060018054610501906120f5565b610cfa610faa565b610d02611282565b600c54811115610d245760405162461bcd60e51b815260040161062090612130565b6001600160a01b038216610d715760405162461bcd60e51b815260206004820152601460248201527357726f6e672077616c6c6574204164647265737360601b6044820152606401610620565b6000610d7c600d5490565b90506000600c610d8d600185612170565b81548110610d9d57610d9d612187565b906000526020600020906005020190506001816004016000828254610dc291906121eb565b9091555050600d80546001019055610dda84836112c8565b610ded82826001018054610b58906120f5565b50505050565b610dfe338383611413565b5050565b610e0c338361100a565b610e285760405162461bcd60e51b81526004016106209061219d565b610ded848484846114e2565b60606104ec82611515565b610e47610faa565b6001600160a01b038116610eac5760405162461bcd60e51b815260206004820152602660248201527f4f776e61626c653a206e6577206f776e657220697320746865207a65726f206160448201526564647265737360d01b6064820152608401610620565b610eb58161137c565b50565b60006001600160e01b0319821663780e9d6360e01b14806104ec57506104ec8261161e565b6000818152600260205260409020546001600160a01b0316610eb55760405162461bcd60e51b8152602060048201526018602482015277115490cdcc8c4e881a5b9d985b1a59081d1bdad95b88125160421b6044820152606401610620565b600081815260046020526040902080546001600160a01b0319166001600160a01b0384169081179091558190610f7182610bdb565b6001600160a01b03167f8c5be1e5ebec7d5bd14f71427d1e84f3dd0314c0f7b2291e5b200ac8c7c3b92560405160405180910390a45050565b600b546001600160a01b036101009091041633146109515760405162461bcd60e51b815260206004820181905260248201527f4f776e61626c653a2063616c6c6572206973206e6f7420746865206f776e65726044820152606401610620565b60008061101683610bdb565b9050806001600160a01b0316846001600160a01b0316148061105d57506001600160a01b0380821660009081526005602090815260408083209388168352929052205460ff165b806110815750836001600160a01b031661107684610584565b6001600160a01b0316145b949350505050565b826001600160a01b031661109c82610bdb565b6001600160a01b0316146111005760405162461bcd60e51b815260206004820152602560248201527f4552433732313a207472616e736665722066726f6d20696e636f72726563742060448201526437bbb732b960d91b6064820152608401610620565b6001600160a01b0382166111625760405162461bcd60e51b8152602060048201526024808201527f4552433732313a207472616e7366657220746f20746865207a65726f206164646044820152637265737360e01b6064820152608401610620565b61116d83838361166e565b611178600082610f3c565b6001600160a01b03831660009081526003602052604081208054600192906111a1908490612170565b90915550506001600160a01b03821660009081526003602052604081208054600192906111cf9084906121eb565b909155505060008181526002602052604080822080546001600160a01b0319166001600160a01b0386811691821790925591518493918716917fddf252ad1be2c89b69c2b068fc378daa952ba7f163c4a11628f55a4df523b3ef91a4505050565b611238611681565b600b805460ff191690557f5db9ee0a495bf2e6ff9c91a7834c1ba4fdd244a5e8aa4e537bd38aeae4b073aa335b6040516001600160a01b03909116815260200160405180910390a1565b600b5460ff16156109515760405162461bcd60e51b815260206004820152601060248201526f14185d5cd8589b194e881c185d5cd95960821b6044820152606401610620565b610dfe8282604051806020016040528060008152506116ca565b6000828152600260205260409020546001600160a01b031661135d5760405162461bcd60e51b815260206004820152602e60248201527f45524337323155524953746f726167653a2055524920736574206f66206e6f6e60448201526d32bc34b9ba32b73a103a37b5b2b760911b6064820152608401610620565b6000828152600a6020908152604090912082516106c192840190611d03565b600b80546001600160a01b03838116610100818102610100600160a81b031985161790945560405193909204169182907f8be0079c531659141344cd1fd0a4f28419497f9722a3daafe3b4186f6b6457e090600090a35050565b6113de611282565b600b805460ff191660011790557f62e78cea01bee320cd4e420270b5ea74000d11b0c9f74754ebdbfc544b05a2586112653390565b816001600160a01b0316836001600160a01b031614156114755760405162461bcd60e51b815260206004820152601960248201527f4552433732313a20617070726f766520746f2063616c6c6572000000000000006044820152606401610620565b6001600160a01b03838116600081815260056020908152604080832094871680845294825291829020805460ff191686151590811790915591519182527f17307eab39ab6107e8899845ad3d59bd9653f200f220920489ca2b5937696c31910160405180910390a3505050565b6114ed848484611089565b6114f9848484846116fd565b610ded5760405162461bcd60e51b815260040161062090612203565b606061152082610edd565b6000828152600a602052604081208054611539906120f5565b80601f0160208091040260200160405190810160405280929190818152602001828054611565906120f5565b80156115b25780601f10611587576101008083540402835291602001916115b2565b820191906000526020600020905b81548152906001019060200180831161159557829003601f168201915b5050505050905060006115d060408051602081019091526000815290565b90508051600014156115e3575092915050565b8151156116155780826040516020016115fd929190612255565b60405160208183030381529060405292505050919050565b611081846117fb565b60006001600160e01b031982166380ac58cd60e01b148061164f57506001600160e01b03198216635b5e139f60e01b145b806104ec57506301ffc9a760e01b6001600160e01b03198316146104ec565b611676611282565b6106c183838361186f565b600b5460ff166109515760405162461bcd60e51b815260206004820152601460248201527314185d5cd8589b194e881b9bdd081c185d5cd95960621b6044820152606401610620565b6116d48383611927565b6116e160008484846116fd565b6106c15760405162461bcd60e51b815260040161062090612203565b60006001600160a01b0384163b156117f057604051630a85bd0160e11b81526001600160a01b0385169063150b7a0290611741903390899088908890600401612284565b6020604051808303816000875af192505050801561177c575060408051601f3d908101601f19168201909252611779918101906122c1565b60015b6117d6573d8080156117aa576040519150601f19603f3d011682016040523d82523d6000602084013e6117af565b606091505b5080516117ce5760405162461bcd60e51b815260040161062090612203565b805181602001fd5b6001600160e01b031916630a85bd0160e11b149050611081565b506001949350505050565b606061180682610edd565b600061181d60408051602081019091526000815290565b9050600081511161183d5760405180602001604052806000815250611868565b8061184784611a75565b604051602001611858929190612255565b6040516020818303038152906040525b9392505050565b6001600160a01b0383166118ca576118c581600880546000838152600960205260408120829055600182018355919091527ff3f7a9fe364faab93b216da50a3214154f22a0a2b415b23a84c8169e8b636ee30155565b6118ed565b816001600160a01b0316836001600160a01b0316146118ed576118ed8382611b73565b6001600160a01b038216611904576106c181611c10565b826001600160a01b0316826001600160a01b0316146106c1576106c18282611cbf565b6001600160a01b03821661197d5760405162461bcd60e51b815260206004820181905260248201527f4552433732313a206d696e7420746f20746865207a65726f20616464726573736044820152606401610620565b6000818152600260205260409020546001600160a01b0316156119e25760405162461bcd60e51b815260206004820152601c60248201527f4552433732313a20746f6b656e20616c7265616479206d696e746564000000006044820152606401610620565b6119ee6000838361166e565b6001600160a01b0382166000908152600360205260408120805460019290611a179084906121eb565b909155505060008181526002602052604080822080546001600160a01b0319166001600160a01b03861690811790915590518392907fddf252ad1be2c89b69c2b068fc378daa952ba7f163c4a11628f55a4df523b3ef908290a45050565b606081611a995750506040805180820190915260018152600360fc1b602082015290565b8160005b8115611ac35780611aad816122de565b9150611abc9050600a8361230f565b9150611a9d565b60008167ffffffffffffffff811115611ade57611ade611f01565b6040519080825280601f01601f191660200182016040528015611b08576020820181803683370190505b5090505b841561108157611b1d600183612170565b9150611b2a600a86612323565b611b359060306121eb565b60f81b818381518110611b4a57611b4a612187565b60200101906001600160f81b031916908160001a905350611b6c600a8661230f565b9450611b0c565b60006001611b8084610c3b565b611b8a9190612170565b600083815260076020526040902054909150808214611bdd576001600160a01b03841660009081526006602090815260408083208584528252808320548484528184208190558352600790915290208190555b5060009182526007602090815260408084208490556001600160a01b039094168352600681528383209183525290812055565b600854600090611c2290600190612170565b60008381526009602052604081205460088054939450909284908110611c4a57611c4a612187565b906000526020600020015490508060088381548110611c6b57611c6b612187565b6000918252602080832090910192909255828152600990915260408082208490558582528120556008805480611ca357611ca3612337565b6001900381819060005260206000200160009055905550505050565b6000611cca83610c3b565b6001600160a01b039093166000908152600660209081526040808320868452825280832085905593825260079052919091209190915550565b828054611d0f906120f5565b90600052602060002090601f016020900481019282611d315760008555611d77565b82601f10611d4a57805160ff1916838001178555611d77565b82800160010185558215611d77579182015b82811115611d77578251825591602001919060010190611d5c565b50611d83929150611d87565b5090565b5b80821115611d835760008155600101611d88565b6001600160e01b031981168114610eb557600080fd5b600060208284031215611dc457600080fd5b813561186881611d9c565b60005b83811015611dea578181015183820152602001611dd2565b83811115610ded5750506000910152565b60008151808452611e13816020860160208601611dcf565b601f01601f19169290920160200192915050565b6020815260006118686020830184611dfb565b600060208284031215611e4c57600080fd5b5035919050565b80356001600160a01b0381168114611e6a57600080fd5b919050565b60008060408385031215611e8257600080fd5b611e8b83611e53565b946020939093013593505050565b600080600060608486031215611eae57600080fd5b505081359360208301359350604090920135919050565b600080600060608486031215611eda57600080fd5b611ee384611e53565b9250611ef160208501611e53565b9150604084013590509250925092565b634e487b7160e01b600052604160045260246000fd5b600067ffffffffffffffff80841115611f3257611f32611f01565b604051601f8501601f19908116603f01168101908282118183101715611f5a57611f5a611f01565b81604052809350858152868686011115611f7357600080fd5b858560208301376000602087830101525050509392505050565b600080600060608486031215611fa257600080fd5b833567ffffffffffffffff811115611fb957600080fd5b8401601f81018613611fca57600080fd5b611fd986823560208401611f17565b9660208601359650604090950135949350505050565b60006020828403121561200157600080fd5b61186882611e53565b6000806040838503121561201d57600080fd5b61202683611e53565b91506020830135801515811461203b57600080fd5b809150509250929050565b6000806000806080858703121561205c57600080fd5b61206585611e53565b935061207360208601611e53565b925060408501359150606085013567ffffffffffffffff81111561209657600080fd5b8501601f810187136120a757600080fd5b6120b687823560208401611f17565b91505092959194509250565b600080604083850312156120d557600080fd5b6120de83611e53565b91506120ec60208401611e53565b90509250929050565b600181811c9082168061210957607f821691505b6020821081141561212a57634e487b7160e01b600052602260045260246000fd5b50919050565b60208082526010908201526f2bb937b7339021b7b63632b1ba34b7b760811b604082015260600190565b634e487b7160e01b600052601160045260246000fd5b6000828210156121825761218261215a565b500390565b634e487b7160e01b600052603260045260246000fd5b6020808252602e908201527f4552433732313a2063616c6c6572206973206e6f7420746f6b656e206f776e6560408201526d1c881b9bdc88185c1c1c9bdd995960921b606082015260800190565b600082198211156121fe576121fe61215a565b500190565b60208082526032908201527f4552433732313a207472616e7366657220746f206e6f6e20455243373231526560408201527131b2b4bb32b91034b6b83632b6b2b73a32b960711b606082015260800190565b60008351612267818460208801611dcf565b83519083019061227b818360208801611dcf565b01949350505050565b6001600160a01b03858116825284166020820152604081018390526080606082018190526000906122b790830184611dfb565b9695505050505050565b6000602082840312156122d357600080fd5b815161186881611d9c565b60006000198214156122f2576122f261215a565b5060010190565b634e487b7160e01b600052601260045260246000fd5b60008261231e5761231e6122f9565b500490565b600082612332576123326122f9565b500690565b634e487b7160e01b600052603160045260246000fdfea2646970667358221220d186cf0d7485916b5159c0208842c96b2456737688f949346f30271b7d4ca3a364736f6c634300080c003360806040523480156200001157600080fd5b50604051620011df380380620011df8339810160408190526200003491620004c5565b8351849084906200004d90600390602085019062000352565b5080516200006390600490602084019062000352565b50506005805460ff19169055506200007b33620000af565b6200009a826200009483670de0b6b3a76400006200056e565b62000109565b620000a58262000200565b50505050620005e8565b600580546001600160a01b03838116610100818102610100600160a81b031985161790945560405193909204169182907f8be0079c531659141344cd1fd0a4f28419497f9722a3daafe3b4186f6b6457e090600090a35050565b6001600160a01b038216620001655760405162461bcd60e51b815260206004820152601f60248201527f45524332303a206d696e7420746f20746865207a65726f20616464726573730060448201526064015b60405180910390fd5b62000173600083836200027f565b806002600082825462000187919062000590565b90915550506001600160a01b03821660009081526020819052604081208054839290620001b690849062000590565b90915550506040518181526001600160a01b038316906000907fddf252ad1be2c89b69c2b068fc378daa952ba7f163c4a11628f55a4df523b3ef9060200160405180910390a35050565b6200020a620002a6565b6001600160a01b038116620002715760405162461bcd60e51b815260206004820152602660248201527f4f776e61626c653a206e6577206f776e657220697320746865207a65726f206160448201526564647265737360d01b60648201526084016200015c565b6200027c81620000af565b50565b620002896200030a565b620002a1838383620002a160201b620004c81760201c565b505050565b6005546001600160a01b03610100909104163314620003085760405162461bcd60e51b815260206004820181905260248201527f4f776e61626c653a2063616c6c6572206973206e6f7420746865206f776e657260448201526064016200015c565b565b60055460ff1615620003085760405162461bcd60e51b815260206004820152601060248201526f14185d5cd8589b194e881c185d5cd95960821b60448201526064016200015c565b8280546200036090620005ab565b90600052602060002090601f016020900481019282620003845760008555620003cf565b82601f106200039f57805160ff1916838001178555620003cf565b82800160010185558215620003cf579182015b82811115620003cf578251825591602001919060010190620003b2565b50620003dd929150620003e1565b5090565b5b80821115620003dd5760008155600101620003e2565b634e487b7160e01b600052604160045260246000fd5b600082601f8301126200042057600080fd5b81516001600160401b03808211156200043d576200043d620003f8565b604051601f8301601f19908116603f01168101908282118183101715620004685762000468620003f8565b816040528381526020925086838588010111156200048557600080fd5b600091505b83821015620004a957858201830151818301840152908201906200048a565b83821115620004bb5760008385830101525b9695505050505050565b60008060008060808587031215620004dc57600080fd5b84516001600160401b0380821115620004f457600080fd5b62000502888389016200040e565b955060208701519150808211156200051957600080fd5b5062000528878288016200040e565b604087015190945090506001600160a01b03811681146200054857600080fd5b6060959095015193969295505050565b634e487b7160e01b600052601160045260246000fd5b60008160001904831182151516156200058b576200058b62000558565b500290565b60008219821115620005a657620005a662000558565b500190565b600181811c90821680620005c057607f821691505b60208210811415620005e257634e487b7160e01b600052602260045260246000fd5b50919050565b610be780620005f86000396000f3fe608060405234801561001057600080fd5b506004361061010b5760003560e01c806370a08231116100a257806395d89b411161007157806395d89b411461020f578063a457c2d714610217578063a9059cbb1461022a578063dd62ed3e1461023d578063f2fde38b1461025057600080fd5b806370a08231146101ad578063715018a6146101d65780638456cb59146101de5780638da5cb5b146101e657600080fd5b8063313ce567116100de578063313ce5671461017657806339509351146101855780633f4ba83a146101985780635c975abb146101a257600080fd5b806306fdde0314610110578063095ea7b31461012e57806318160ddd1461015157806323b872dd14610163575b600080fd5b610118610263565b6040516101259190610a24565b60405180910390f35b61014161013c366004610a95565b6102f5565b6040519015158152602001610125565b6002545b604051908152602001610125565b610141610171366004610abf565b61030d565b60405160128152602001610125565b610141610193366004610a95565b610331565b6101a0610353565b005b60055460ff16610141565b6101556101bb366004610afb565b6001600160a01b031660009081526020819052604090205490565b6101a0610365565b6101a0610377565b60055461010090046001600160a01b03166040516001600160a01b039091168152602001610125565b610118610387565b610141610225366004610a95565b610396565b610141610238366004610a95565b610416565b61015561024b366004610b1d565b610424565b6101a061025e366004610afb565b61044f565b60606003805461027290610b50565b80601f016020809104026020016040519081016040528092919081815260200182805461029e90610b50565b80156102eb5780601f106102c0576101008083540402835291602001916102eb565b820191906000526020600020905b8154815290600101906020018083116102ce57829003601f168201915b5050505050905090565b6000336103038185856104cd565b5060019392505050565b60003361031b8582856105f1565b61032685858561066b565b506001949350505050565b6000336103038185856103448383610424565b61034e9190610b8b565b6104cd565b61035b610844565b6103636108a4565b565b61036d610844565b61036360006108f6565b61037f610844565b610363610950565b60606004805461027290610b50565b600033816103a48286610424565b9050838110156104095760405162461bcd60e51b815260206004820152602560248201527f45524332303a2064656372656173656420616c6c6f77616e63652062656c6f77604482015264207a65726f60d81b60648201526084015b60405180910390fd5b61032682868684036104cd565b60003361030381858561066b565b6001600160a01b03918216600090815260016020908152604080832093909416825291909152205490565b610457610844565b6001600160a01b0381166104bc5760405162461bcd60e51b815260206004820152602660248201527f4f776e61626c653a206e6577206f776e657220697320746865207a65726f206160448201526564647265737360d01b6064820152608401610400565b6104c5816108f6565b50565b505050565b6001600160a01b03831661052f5760405162461bcd60e51b8152602060048201526024808201527f45524332303a20617070726f76652066726f6d20746865207a65726f206164646044820152637265737360e01b6064820152608401610400565b6001600160a01b0382166105905760405162461bcd60e51b815260206004820152602260248201527f45524332303a20617070726f766520746f20746865207a65726f206164647265604482015261737360f01b6064820152608401610400565b6001600160a01b0383811660008181526001602090815260408083209487168084529482529182902085905590518481527f8c5be1e5ebec7d5bd14f71427d1e84f3dd0314c0f7b2291e5b200ac8c7c3b925910160405180910390a3505050565b60006105fd8484610424565b9050600019811461066557818110156106585760405162461bcd60e51b815260206004820152601d60248201527f45524332303a20696e73756666696369656e7420616c6c6f77616e63650000006044820152606401610400565b61066584848484036104cd565b50505050565b6001600160a01b0383166106cf5760405162461bcd60e51b815260206004820152602560248201527f45524332303a207472616e736665722066726f6d20746865207a65726f206164604482015264647265737360d81b6064820152608401610400565b6001600160a01b0382166107315760405162461bcd60e51b815260206004820152602360248201527f45524332303a207472616e7366657220746f20746865207a65726f206164647260448201526265737360e81b6064820152608401610400565b61073c83838361098d565b6001600160a01b038316600090815260208190526040902054818110156107b45760405162461bcd60e51b815260206004820152602660248201527f45524332303a207472616e7366657220616d6f756e7420657863656564732062604482015265616c616e636560d01b6064820152608401610400565b6001600160a01b038085166000908152602081905260408082208585039055918516815290812080548492906107eb908490610b8b565b92505081905550826001600160a01b0316846001600160a01b03167fddf252ad1be2c89b69c2b068fc378daa952ba7f163c4a11628f55a4df523b3ef8460405161083791815260200190565b60405180910390a3610665565b6005546001600160a01b036101009091041633146103635760405162461bcd60e51b815260206004820181905260248201527f4f776e61626c653a2063616c6c6572206973206e6f7420746865206f776e65726044820152606401610400565b6108ac610995565b6005805460ff191690557f5db9ee0a495bf2e6ff9c91a7834c1ba4fdd244a5e8aa4e537bd38aeae4b073aa335b6040516001600160a01b03909116815260200160405180910390a1565b600580546001600160a01b03838116610100818102610100600160a81b031985161790945560405193909204169182907f8be0079c531659141344cd1fd0a4f28419497f9722a3daafe3b4186f6b6457e090600090a35050565b6109586109de565b6005805460ff191660011790557f62e78cea01bee320cd4e420270b5ea74000d11b0c9f74754ebdbfc544b05a2586108d93390565b6104c86109de565b60055460ff166103635760405162461bcd60e51b815260206004820152601460248201527314185d5cd8589b194e881b9bdd081c185d5cd95960621b6044820152606401610400565b60055460ff16156103635760405162461bcd60e51b815260206004820152601060248201526f14185d5cd8589b194e881c185d5cd95960821b6044820152606401610400565b600060208083528351808285015260005b81811015610a5157858101830151858201604001528201610a35565b81811115610a63576000604083870101525b50601f01601f1916929092016040019392505050565b80356001600160a01b0381168114610a9057600080fd5b919050565b60008060408385031215610aa857600080fd5b610ab183610a79565b946020939093013593505050565b600080600060608486031215610ad457600080fd5b610add84610a79565b9250610aeb60208501610a79565b9150604084013590509250925092565b600060208284031215610b0d57600080fd5b610b1682610a79565b9392505050565b60008060408385031215610b3057600080fd5b610b3983610a79565b9150610b4760208401610a79565b90509250929050565b600181811c90821680610b6457607f821691505b60208210811415610b8557634e487b7160e01b600052602260045260246000fd5b50919050565b60008219821115610bac57634e487b7160e01b600052601160045260246000fd5b50019056fea2646970667358221220ba382bade5515ad914dd59629d7f4d85837fc5fb1ac88758496331571c47657264736f6c634300080c0033360894a13ba1a3210667c828492db98dca3e2076cc3735a920a3ca505d382bbc416464726573733a206c6f772d6c6576656c2064656c65676174652063616c6c206661696c6564a26469706673582212207c096c8d39f7e40bfce6916d820406e22db15ed071855c46c1bfe408553c4cea64736f6c634300080c0033",
  "linkReferences": {},
  "deployedLinkReferences": {}
}