{
  "_format": "hh-sol-artifact-1",
  "contractName": "Web3Community",
  "sourceName": "src/backend/contracts/Web3Community.sol",
  "abi": [
    {
      "inputs": [],
      "stateMutability": "nonpayable",
      "type": "constructor"
    },
    {
      "anonymous": false,
      "inputs": [
        {
          "indexed": false,
          "internalType": "address",
          "name": "previousAdmin",
          "type": "address"
        },
        {
          "indexed": false,
          "internalType": "address",
          "name": "newAdmin",
          "type": "address"
        }
      ],
      "name": "AdminChanged",
      "type": "event"
    },
    {
      "anonymous": false,
      "inputs": [
        {
          "indexed": true,
          "internalType": "address",
          "name": "beacon",
          "type": "address"
        }
      ],
      "name": "BeaconUpgraded",
      "type": "event"
    },
    {
      "anonymous": false,
      "inputs": [
        {
          "indexed": false,
          "internalType": "uint8",
          "name": "version",
          "type": "uint8"
        }
      ],
      "name": "Initialized",
      "type": "event"
    },
    {
      "anonymous": false,
      "inputs": [
        {
          "indexed": true,
          "internalType": "address",
          "name": "previousOwner",
          "type": "address"
        },
        {
          "indexed": true,
          "internalType": "address",
          "name": "newOwner",
          "type": "address"
        }
      ],
      "name": "OwnershipTransferred",
      "type": "event"
    },
    {
      "anonymous": false,
      "inputs": [
        {
          "indexed": true,
          "internalType": "address",
          "name": "implementation",
          "type": "address"
        }
      ],
      "name": "Upgraded",
      "type": "event"
    },
    {
      "inputs": [],
      "name": "communityCount",
      "outputs": [
        {
          "internalType": "uint256",
          "name": "",
          "type": "uint256"
        }
      ],
      "stateMutability": "view",
      "type": "function"
    },
    {
      "inputs": [
        {
          "internalType": "address",
          "name": "",
          "type": "address"
        },
        {
          "internalType": "uint256",
          "name": "",
          "type": "uint256"
        }
      ],
      "name": "communityList",
      "outputs": [
        {
          "internalType": "uint256",
          "name": "id",
          "type": "uint256"
        },
        {
          "internalType": "string",
          "name": "name",
          "type": "string"
        },
        {
          "internalType": "string",
          "name": "description",
          "type": "string"
        },
        {
          "internalType": "string",
          "name": "logo",
          "type": "string"
        },
        {
          "internalType": "address",
          "name": "nftContract",
          "type": "address"
        },
        {
          "internalType": "address",
          "name": "ftContract",
          "type": "address"
        },
        {
          "internalType": "bool",
          "name": "isEnabled",
          "type": "bool"
        }
      ],
      "stateMutability": "view",
      "type": "function"
    },
    {
      "inputs": [
        {
          "internalType": "string",
          "name": "_name",
          "type": "string"
        },
        {
          "internalType": "string",
          "name": "_description",
          "type": "string"
        },
        {
          "internalType": "string",
          "name": "_logo",
          "type": "string"
        }
      ],
      "name": "createCommunity",
      "outputs": [],
      "stateMutability": "nonpayable",
      "type": "function"
    },
    {
      "inputs": [
        {
          "internalType": "uint256",
          "name": "_communityId",
          "type": "uint256"
        },
        {
          "internalType": "string",
          "name": "_name",
          "type": "string"
        },
        {
          "internalType": "string",
          "name": "_symbol",
          "type": "string"
        },
        {
          "internalType": "uint256",
          "name": "_supply",
          "type": "uint256"
        }
      ],
      "name": "deployFTContract",
      "outputs": [],
      "stateMutability": "nonpayable",
      "type": "function"
    },
    {
      "inputs": [
        {
          "internalType": "uint256",
          "name": "_communityId",
          "type": "uint256"
        },
        {
          "internalType": "string",
          "name": "_name",
          "type": "string"
        },
        {
          "internalType": "string",
          "name": "_symbol",
          "type": "string"
        }
      ],
      "name": "deployNFTCollectionContract",
      "outputs": [],
      "stateMutability": "nonpayable",
      "type": "function"
    },
    {
      "inputs": [
        {
          "internalType": "address",
          "name": "_owner",
          "type": "address"
        },
        {
          "internalType": "uint256",
          "name": "_id",
          "type": "uint256"
        }
      ],
      "name": "getCommunityById",
      "outputs": [
        {
          "components": [
            {
              "internalType": "uint256",
              "name": "id",
              "type": "uint256"
            },
            {
              "internalType": "string",
              "name": "name",
              "type": "string"
            },
            {
              "internalType": "string",
              "name": "description",
              "type": "string"
            },
            {
              "internalType": "string",
              "name": "logo",
              "type": "string"
            },
            {
              "internalType": "address",
              "name": "nftContract",
              "type": "address"
            },
            {
              "internalType": "address",
              "name": "ftContract",
              "type": "address"
            },
            {
              "internalType": "bool",
              "name": "isEnabled",
              "type": "bool"
            }
          ],
          "internalType": "struct Web3Community.Community",
          "name": "",
          "type": "tuple"
        },
        {
          "internalType": "uint256",
          "name": "",
          "type": "uint256"
        }
      ],
      "stateMutability": "view",
      "type": "function"
    },
    {
      "inputs": [
        {
          "internalType": "address",
          "name": "_owner",
          "type": "address"
        }
      ],
      "name": "getUserCommunities",
      "outputs": [
        {
          "components": [
            {
              "internalType": "uint256",
              "name": "id",
              "type": "uint256"
            },
            {
              "internalType": "string",
              "name": "name",
              "type": "string"
            },
            {
              "internalType": "string",
              "name": "description",
              "type": "string"
            },
            {
              "internalType": "string",
              "name": "logo",
              "type": "string"
            },
            {
              "internalType": "address",
              "name": "nftContract",
              "type": "address"
            },
            {
              "internalType": "address",
              "name": "ftContract",
              "type": "address"
            },
            {
              "internalType": "bool",
              "name": "isEnabled",
              "type": "bool"
            }
          ],
          "internalType": "struct Web3Community.Community[]",
          "name": "",
          "type": "tuple[]"
        }
      ],
      "stateMutability": "view",
      "type": "function"
    },
    {
      "inputs": [],
      "name": "initialize",
      "outputs": [],
      "stateMutability": "nonpayable",
      "type": "function"
    },
    {
      "inputs": [],
      "name": "owner",
      "outputs": [
        {
          "internalType": "address",
          "name": "",
          "type": "address"
        }
      ],
      "stateMutability": "view",
      "type": "function"
    },
    {
      "inputs": [],
      "name": "proxiableUUID",
      "outputs": [
        {
          "internalType": "bytes32",
          "name": "",
          "type": "bytes32"
        }
      ],
      "stateMutability": "view",
      "type": "function"
    },
    {
      "inputs": [],
      "name": "renounceOwnership",
      "outputs": [],
      "stateMutability": "nonpayable",
      "type": "function"
    },
    {
      "inputs": [
        {
          "internalType": "address",
          "name": "newOwner",
          "type": "address"
        }
      ],
      "name": "transferOwnership",
      "outputs": [],
      "stateMutability": "nonpayable",
      "type": "function"
    },
    {
      "inputs": [
        {
          "internalType": "address",
          "name": "newImplementation",
          "type": "address"
        }
      ],
      "name": "upgradeTo",
      "outputs": [],
      "stateMutability": "nonpayable",
      "type": "function"
    },
    {
      "inputs": [
        {
          "internalType": "address",
          "name": "newImplementation",
          "type": "address"
        },
        {
          "internalType": "bytes",
          "name": "data",
          "type": "bytes"
        }
      ],
      "name": "upgradeToAndCall",
      "outputs": [],
      "stateMutability": "payable",
      "type": "function"
    }
  ],
  "bytecode": "0x60a06040523060805234801561001457600080fd5b5061001d610022565b6100e2565b600054610100900460ff161561008e5760405162461bcd60e51b815260206004820152602760248201527f496e697469616c697a61626c653a20636f6e747261637420697320696e697469604482015266616c697a696e6760c81b606482015260840160405180910390fd5b60005460ff90811610156100e0576000805460ff191660ff9081179091556040519081527f7f26b83ff96e1f2b6a682f133852f6798a09c465da95921460cefb38474024989060200160405180910390a15b565b608051615dcb6200011a600039600081816105390152818161058501528181610970015281816109b30152610a4f0152615dcb6000f3fe608060405260043610620000ef5760003560e01c806375586d4a1162000089578063aee846131162000060578063aee846131462000284578063d6bbb102146200029c578063ee01380d14620002c1578063f2fde38b14620002e657600080fd5b806375586d4a146200021d5780638129fc1c14620002425780638da5cb5b146200025a57600080fd5b80634f1ef28611620000ca5780634f1ef286146200019357806352d1902d14620001aa5780636543286f14620001d1578063715018a6146200020557600080fd5b806331738c1114620000f45780633659cfe614620001375780633761d78c146200015e575b600080fd5b3480156200010157600080fd5b50620001196200011336600462001aa9565b6200030b565b6040516200012e979695949392919062001b33565b60405180910390f35b3480156200014457600080fd5b506200015c6200015636600462001ba4565b6200052e565b005b3480156200016b57600080fd5b50620001836200017d36600462001aa9565b62000623565b6040516200012e92919062001c55565b6200015c620001a436600462001d0c565b62000965565b348015620001b757600080fd5b50620001c262000a42565b6040519081526020016200012e565b348015620001de57600080fd5b50620001f6620001f036600462001ba4565b62000af8565b6040516200012e919062001d75565b3480156200021257600080fd5b506200015c62000d80565b3480156200022a57600080fd5b506200015c6200023c36600462001dfe565b62000d98565b3480156200024f57600080fd5b506200015c62000ec8565b3480156200026757600080fd5b506033546040516001600160a01b0390911681526020016200012e565b3480156200029157600080fd5b50620001c260c95481565b348015620002a957600080fd5b506200015c620002bb36600462001e90565b62000feb565b348015620002ce57600080fd5b506200015c620002e036600462001ec6565b620011c1565b348015620002f357600080fd5b506200015c6200030536600462001ba4565b620013e1565b60cc60205281600052604060002081815481106200032857600080fd5b906000526020600020906006020160009150915050806000015490806001018054620003549062001f42565b80601f0160208091040260200160405190810160405280929190818152602001828054620003829062001f42565b8015620003d35780601f10620003a757610100808354040283529160200191620003d3565b820191906000526020600020905b815481529060010190602001808311620003b557829003601f168201915b505050505090806002018054620003ea9062001f42565b80601f0160208091040260200160405190810160405280929190818152602001828054620004189062001f42565b8015620004695780601f106200043d5761010080835404028352916020019162000469565b820191906000526020600020905b8154815290600101906020018083116200044b57829003601f168201915b505050505090806003018054620004809062001f42565b80601f0160208091040260200160405190810160405280929190818152602001828054620004ae9062001f42565b8015620004ff5780601f10620004d357610100808354040283529160200191620004ff565b820191906000526020600020905b815481529060010190602001808311620004e157829003601f168201915b50505050600483015460059093015491926001600160a01b03908116929081169150600160a01b900460ff1687565b306001600160a01b037f0000000000000000000000000000000000000000000000000000000000000000161415620005835760405162461bcd60e51b81526004016200057a9062001f7f565b60405180910390fd5b7f00000000000000000000000000000000000000000000000000000000000000006001600160a01b0316620005ce60008051602062005d4f833981519152546001600160a01b031690565b6001600160a01b031614620005f75760405162461bcd60e51b81526004016200057a9062001fcb565b62000602816200145d565b60408051600080825260208201909252620006209183919062001467565b50565b6200062d62001979565b60006200063962001979565b6000805b6001600160a01b038716600090815260cc602052604090205481101562000913576001600160a01b038716600090815260cc602052604090208054879190839081106200068e576200068e62002017565b906000526020600020906006020160000154141562000900576001600160a01b038716600090815260cc60205260409020805482908110620006d457620006d462002017565b90600052602060002090600602016040518060e001604052908160008201548152602001600182018054620007099062001f42565b80601f0160208091040260200160405190810160405280929190818152602001828054620007379062001f42565b8015620007885780601f106200075c5761010080835404028352916020019162000788565b820191906000526020600020905b8154815290600101906020018083116200076a57829003601f168201915b50505050508152602001600282018054620007a39062001f42565b80601f0160208091040260200160405190810160405280929190818152602001828054620007d19062001f42565b8015620008225780601f10620007f65761010080835404028352916020019162000822565b820191906000526020600020905b8154815290600101906020018083116200080457829003601f168201915b505050505081526020016003820180546200083d9062001f42565b80601f01602080910402602001604051908101604052809291908181526020018280546200086b9062001f42565b8015620008bc5780601f106200089057610100808354040283529160200191620008bc565b820191906000526020600020905b8154815290600101906020018083116200089e57829003601f168201915b505050918352505060048201546001600160a01b0390811660208301526005909201549182166040820152600160a01b90910460ff16151560609091015292509050805b6200090b8162002043565b90506200063d565b5081516200095a5760405162461bcd60e51b815260206004820152601360248201527210dbdb5b5d5b9a5d1e481b9bdd08199bdd5b99606a1b60448201526064016200057a565b909590945092505050565b306001600160a01b037f0000000000000000000000000000000000000000000000000000000000000000161415620009b15760405162461bcd60e51b81526004016200057a9062001f7f565b7f00000000000000000000000000000000000000000000000000000000000000006001600160a01b0316620009fc60008051602062005d4f833981519152546001600160a01b031690565b6001600160a01b03161462000a255760405162461bcd60e51b81526004016200057a9062001fcb565b62000a30826200145d565b62000a3e8282600162001467565b5050565b6000306001600160a01b037f0000000000000000000000000000000000000000000000000000000000000000161462000ae45760405162461bcd60e51b815260206004820152603860248201527f555550535570677261646561626c653a206d757374206e6f742062652063616c60448201527f6c6564207468726f7567682064656c656761746563616c6c000000000000000060648201526084016200057a565b5060008051602062005d4f83398151915290565b6001600160a01b038116600090815260cc60209081526040808320805482518185028101850190935280835260609492939192909184015b8282101562000d7557838290600052602060002090600602016040518060e00160405290816000820154815260200160018201805462000b709062001f42565b80601f016020809104026020016040519081016040528092919081815260200182805462000b9e9062001f42565b801562000bef5780601f1062000bc35761010080835404028352916020019162000bef565b820191906000526020600020905b81548152906001019060200180831162000bd157829003601f168201915b5050505050815260200160028201805462000c0a9062001f42565b80601f016020809104026020016040519081016040528092919081815260200182805462000c389062001f42565b801562000c895780601f1062000c5d5761010080835404028352916020019162000c89565b820191906000526020600020905b81548152906001019060200180831162000c6b57829003601f168201915b5050505050815260200160038201805462000ca49062001f42565b80601f016020809104026020016040519081016040528092919081815260200182805462000cd29062001f42565b801562000d235780601f1062000cf75761010080835404028352916020019162000d23565b820191906000526020600020905b81548152906001019060200180831162000d0557829003601f168201915b505050918352505060048201546001600160a01b039081166020808401919091526005909301549081166040830152600160a01b900460ff161515606090910152908252600192909201910162000b30565b505050509050919050565b62000d8a620015e4565b62000d96600062001640565b565b600160c9600082825462000dad919062002061565b909155505033600090815260cc60209081526040808320815160e08101835260c9548152808401888152928101879052606081018690526080810185905260a08101859052600160c0820181905282548082018455928652948490208151600690930201918255915180519294919362000e2e9392850192910190620019ca565b506040820151805162000e4c916002840191602090910190620019ca565b506060820151805162000e6a916003840191602090910190620019ca565b5060808201516004820180546001600160a01b0319166001600160a01b0392831617905560a08301516005909201805460c090940151929091166001600160a81b031990931692909217600160a01b91151591909102179055505050565b600054610100900460ff161580801562000ee95750600054600160ff909116105b8062000f055750303b15801562000f05575060005460ff166001145b62000f6a5760405162461bcd60e51b815260206004820152602e60248201527f496e697469616c697a61626c653a20636f6e747261637420697320616c72656160448201526d191e481a5b9a5d1a585b1a5e995960921b60648201526084016200057a565b6000805460ff19166001179055801562000f8e576000805461ff0019166101001790555b62000f9862001692565b62000fa2620016c6565b801562000620576000805461ff0019169055604051600181527f7f26b83ff96e1f2b6a682f133852f6798a09c465da95921460cefb38474024989060200160405180910390a150565b600382511015620010105760405162461bcd60e51b81526004016200057a906200207c565b60038151101580156200102557506005815111155b620010445760405162461bcd60e51b81526004016200057a90620020cb565b600062001052338562000623565b33600090815260cc6020526040812080549294509250908290849081106200107e576200107e62002017565b60009182526020909120600460069092020101546001600160a01b031614620010f65760405162461bcd60e51b815260206004820152602360248201527f436f6d6d756e69747920616c72656164792068617665204e465420436f6e74726044820152621858dd60ea1b60648201526084016200057a565b6000848433604051620011099062001a59565b62001117939291906200210c565b604051809103906000f08015801562001134573d6000803e3d6000fd5b509050808284815481106200114d576200114d62002017565b60009182526020822060046006909202010180546001600160a01b039384166001600160a01b03199182161790915560ca805460018101825592527f42d72674974f694b5f5159593243114d38a5c39c89d6b62fee061ff523240ee190910180549390921692169190911790555050505050565b600383511015620011e65760405162461bcd60e51b81526004016200057a906200207c565b6003825110158015620011fb57506005825111155b6200121a5760405162461bcd60e51b81526004016200057a90620020cb565b60008111620012625760405162461bcd60e51b815260206004820152601360248201527215dc9bdb99c81cdd5c1c1b1e48185b5bdd5b9d606a1b60448201526064016200057a565b600062001270338662000623565b33600090815260cc6020526040812080549294509250908290849081106200129c576200129c62002017565b60009182526020909120600560069092020101546001600160a01b031614620013135760405162461bcd60e51b815260206004820152602260248201527f436f6d6d756e69747920616c7265616479206861766520465420436f6e74726160448201526118dd60f21b60648201526084016200057a565b600085853386604051620013279062001a67565b6200133694939291906200214e565b604051809103906000f08015801562001353573d6000803e3d6000fd5b509050808284815481106200136c576200136c62002017565b60009182526020822060056006909202010180546001600160a01b039384166001600160a01b03199182161790915560cb805460018101825592527fa7ce836d032b2bf62b7e2097a8e0a6d8aeb35405ad15271e96d3b0188a1d06fb9091018054939092169216919091179055505050505050565b620013eb620015e4565b6001600160a01b038116620014525760405162461bcd60e51b815260206004820152602660248201527f4f776e61626c653a206e6577206f776e657220697320746865207a65726f206160448201526564647265737360d01b60648201526084016200057a565b620006208162001640565b62000620620015e4565b7f4910fdfa16fed3260ed0e7147f7cc6da11a60208b5b9406d12a635614ffd91435460ff1615620014a2576200149d83620016f0565b505050565b826001600160a01b03166352d1902d6040518163ffffffff1660e01b8152600401602060405180830381865afa925050508015620014ff575060408051601f3d908101601f19168201909252620014fc9181019062002194565b60015b620015645760405162461bcd60e51b815260206004820152602e60248201527f45524331393637557067726164653a206e657720696d706c656d656e7461746960448201526d6f6e206973206e6f74205555505360901b60648201526084016200057a565b60008051602062005d4f8339815191528114620015d65760405162461bcd60e51b815260206004820152602960248201527f45524331393637557067726164653a20756e737570706f727465642070726f786044820152681a58589b195555525160ba1b60648201526084016200057a565b506200149d8383836200178f565b6033546001600160a01b0316331462000d965760405162461bcd60e51b815260206004820181905260248201527f4f776e61626c653a2063616c6c6572206973206e6f7420746865206f776e657260448201526064016200057a565b603380546001600160a01b038381166001600160a01b0319831681179093556040519116919082907f8be0079c531659141344cd1fd0a4f28419497f9722a3daafe3b4186f6b6457e090600090a35050565b600054610100900460ff16620016bc5760405162461bcd60e51b81526004016200057a90620021ae565b62000d96620017c0565b600054610100900460ff1662000d965760405162461bcd60e51b81526004016200057a90620021ae565b6001600160a01b0381163b6200175f5760405162461bcd60e51b815260206004820152602d60248201527f455243313936373a206e657720696d706c656d656e746174696f6e206973206e60448201526c1bdd08184818dbdb9d1c9858dd609a1b60648201526084016200057a565b60008051602062005d4f83398151915280546001600160a01b0319166001600160a01b0392909216919091179055565b6200179a83620017f5565b600082511180620017a85750805b156200149d57620017ba838362001837565b50505050565b600054610100900460ff16620017ea5760405162461bcd60e51b81526004016200057a90620021ae565b62000d963362001640565b6200180081620016f0565b6040516001600160a01b038216907fbc7cd75a20ee27fd9adebab32041f755214dbc6bffa90cc0225b39da2e5c2d3b90600090a250565b60606001600160a01b0383163b620018a15760405162461bcd60e51b815260206004820152602660248201527f416464726573733a2064656c65676174652063616c6c20746f206e6f6e2d636f6044820152651b9d1c9858dd60d21b60648201526084016200057a565b600080846001600160a01b031684604051620018be9190620021f9565b600060405180830381855af49150503d8060008114620018fb576040519150601f19603f3d011682016040523d82523d6000602084013e62001900565b606091505b50915091506200192b828260405180606001604052806027815260200162005d6f6027913962001934565b95945050505050565b606083156200194557508162001972565b825115620019565782518084602001fd5b8160405162461bcd60e51b81526004016200057a919062002217565b9392505050565b6040518060e001604052806000815260200160608152602001606081526020016060815260200160006001600160a01b0316815260200160006001600160a01b031681526020016000151581525090565b828054620019d89062001f42565b90600052602060002090601f016020900481019282620019fc576000855562001a47565b82601f1062001a1757805160ff191683800117855562001a47565b8280016001018555821562001a47579182015b8281111562001a4757825182559160200191906001019062001a2a565b5062001a5592915062001a75565b5090565b612943806200222d83390190565b6111df8062004b7083390190565b5b8082111562001a55576000815560010162001a76565b80356001600160a01b038116811462001aa457600080fd5b919050565b6000806040838503121562001abd57600080fd5b62001ac88362001a8c565b946020939093013593505050565b60005b8381101562001af357818101518382015260200162001ad9565b83811115620017ba5750506000910152565b6000815180845262001b1f81602086016020860162001ad6565b601f01601f19169290920160200192915050565b87815260e06020820152600062001b4e60e083018962001b05565b828103604084015262001b62818962001b05565b9050828103606084015262001b78818862001b05565b6001600160a01b0396871660808501529490951660a08301525090151560c09091015295945050505050565b60006020828403121562001bb757600080fd5b620019728262001a8c565b805182526000602082015160e0602085015262001be360e085018262001b05565b90506040830151848203604086015262001bfe828262001b05565b9150506060830151848203606086015262001c1a828262001b05565b915050608083015160018060a01b0380821660808701528060a08601511660a0870152505060c0830151151560c08501528091505092915050565b60408152600062001c6a604083018562001bc2565b90508260208301529392505050565b634e487b7160e01b600052604160045260246000fd5b600067ffffffffffffffff8084111562001cad5762001cad62001c79565b604051601f8501601f19908116603f0116810190828211818310171562001cd85762001cd862001c79565b8160405280935085815286868601111562001cf257600080fd5b858560208301376000602087830101525050509392505050565b6000806040838503121562001d2057600080fd5b62001d2b8362001a8c565b9150602083013567ffffffffffffffff81111562001d4857600080fd5b8301601f8101851362001d5a57600080fd5b62001d6b8582356020840162001c8f565b9150509250929050565b6000602080830181845280855180835260408601915060408160051b870101925083870160005b8281101562001dce57603f1988860301845262001dbb85835162001bc2565b9450928501929085019060010162001d9c565b5092979650505050505050565b600082601f83011262001ded57600080fd5b620019728383356020850162001c8f565b60008060006060848603121562001e1457600080fd5b833567ffffffffffffffff8082111562001e2d57600080fd5b62001e3b8783880162001ddb565b9450602086013591508082111562001e5257600080fd5b62001e608783880162001ddb565b9350604086013591508082111562001e7757600080fd5b5062001e868682870162001ddb565b9150509250925092565b60008060006060848603121562001ea657600080fd5b83359250602084013567ffffffffffffffff8082111562001e5257600080fd5b6000806000806080858703121562001edd57600080fd5b84359350602085013567ffffffffffffffff8082111562001efd57600080fd5b62001f0b8883890162001ddb565b9450604087013591508082111562001f2257600080fd5b5062001f318782880162001ddb565b949793965093946060013593505050565b600181811c9082168062001f5757607f821691505b6020821081141562001f7957634e487b7160e01b600052602260045260246000fd5b50919050565b6020808252602c908201527f46756e6374696f6e206d7573742062652063616c6c6564207468726f7567682060408201526b19195b1959d85d1958d85b1b60a21b606082015260800190565b6020808252602c908201527f46756e6374696f6e206d7573742062652063616c6c6564207468726f7567682060408201526b6163746976652070726f787960a01b606082015260800190565b634e487b7160e01b600052603260045260246000fd5b634e487b7160e01b600052601160045260246000fd5b60006000198214156200205a576200205a6200202d565b5060010190565b600082198211156200207757620020776200202d565b500190565b6020808252602f908201527f436f6c6c656374696f6e206e616d652073686f756c64206265206c6f6e67657260408201526e207468616e20322073796d626f6c7360881b606082015260800190565b60208082526021908201527f53796d626f6c206c656e6774682073686f756c6420626520332d3520636861726040820152607360f81b606082015260800190565b60608152600062002121606083018662001b05565b828103602084015262002135818662001b05565b91505060018060a01b0383166040830152949350505050565b60808152600062002163608083018762001b05565b828103602084015262002177818762001b05565b6001600160a01b0395909516604084015250506060015292915050565b600060208284031215620021a757600080fd5b5051919050565b6020808252602b908201527f496e697469616c697a61626c653a20636f6e7472616374206973206e6f74206960408201526a6e697469616c697a696e6760a81b606082015260800190565b600082516200220d81846020870162001ad6565b9190910192915050565b60208152600062001972602083018462001b0556fe60806040523480156200001157600080fd5b506040516200294338038062002943833981016040819052620000349162000343565b8251839083906200004d906000906020850190620001d0565b50805162000063906001906020840190620001d0565b5050600b805460ff19169055506200007b336200008f565b6200008681620000e9565b5050506200040d565b600b80546001600160a01b03838116610100818102610100600160a81b031985161790945560405193909204169182907f8be0079c531659141344cd1fd0a4f28419497f9722a3daafe3b4186f6b6457e090600090a35050565b620000f36200016c565b6001600160a01b0381166200015e5760405162461bcd60e51b815260206004820152602660248201527f4f776e61626c653a206e6577206f776e657220697320746865207a65726f206160448201526564647265737360d01b60648201526084015b60405180910390fd5b62000169816200008f565b50565b600b546001600160a01b03610100909104163314620001ce5760405162461bcd60e51b815260206004820181905260248201527f4f776e61626c653a2063616c6c6572206973206e6f7420746865206f776e6572604482015260640162000155565b565b828054620001de90620003d0565b90600052602060002090601f0160209004810192826200020257600085556200024d565b82601f106200021d57805160ff19168380011785556200024d565b828001600101855582156200024d579182015b828111156200024d57825182559160200191906001019062000230565b506200025b9291506200025f565b5090565b5b808211156200025b576000815560010162000260565b634e487b7160e01b600052604160045260246000fd5b600082601f8301126200029e57600080fd5b81516001600160401b0380821115620002bb57620002bb62000276565b604051601f8301601f19908116603f01168101908282118183101715620002e657620002e662000276565b816040528381526020925086838588010111156200030357600080fd5b600091505b8382101562000327578582018301518183018401529082019062000308565b83821115620003395760008385830101525b9695505050505050565b6000806000606084860312156200035957600080fd5b83516001600160401b03808211156200037157600080fd5b6200037f878388016200028c565b945060208601519150808211156200039657600080fd5b50620003a5868287016200028c565b604086015190935090506001600160a01b0381168114620003c557600080fd5b809150509250925092565b600181811c90821680620003e557607f821691505b602082108114156200040757634e487b7160e01b600052602260045260246000fd5b50919050565b612526806200041d6000396000f3fe6080604052600436106101b75760003560e01c80636352211e116100ec578063a22cb4651161008a578063b88d4fde11610064578063b88d4fde146104b5578063c87b56dd146104d5578063e985e9c5146104f5578063f2fde38b1461053e57600080fd5b8063a22cb4651461044e578063abcacc5d1461046e578063adcb4b7c1461048457600080fd5b80638456cb59116100c65780638456cb59146103e15780638da5cb5b146103f657806395d89b4114610419578063a14481941461042e57600080fd5b80636352211e1461038c57806370a08231146103ac578063715018a6146103cc57600080fd5b8063253366681161015957806342842e0e1161013357806342842e0e146103215780634f6ccce7146103415780635c4c94ae146103615780635c975abb1461037457600080fd5b806325336668146102cc5780632f745c59146102ec5780633f4ba83a1461030c57600080fd5b8063095ea7b311610195578063095ea7b31461024b57806318160ddd1461026d578063217603ab1461028c57806323b872dd146102ac57600080fd5b806301ffc9a7146101bc57806306fdde03146101f1578063081812fc14610213575b600080fd5b3480156101c857600080fd5b506101dc6101d7366004611f1e565b61055e565b60405190151581526020015b60405180910390f35b3480156101fd57600080fd5b5061020661056f565b6040516101e89190611f93565b34801561021f57600080fd5b5061023361022e366004611fa6565b610601565b6040516001600160a01b0390911681526020016101e8565b34801561025757600080fd5b5061026b610266366004611fdb565b610628565b005b34801561027957600080fd5b506008545b6040519081526020016101e8565b34801561029857600080fd5b5061026b6102a7366004612005565b610743565b3480156102b857600080fd5b5061026b6102c7366004612031565b610815565b3480156102d857600080fd5b5061026b6102e73660046120f9565b610846565b3480156102f857600080fd5b5061027e610307366004611fdb565b610949565b34801561031857600080fd5b5061026b6109df565b34801561032d57600080fd5b5061026b61033c366004612031565b6109f1565b34801561034d57600080fd5b5061027e61035c366004611fa6565b610a0c565b61026b61036f366004611fa6565b610a9f565b34801561038057600080fd5b50600b5460ff166101dc565b34801561039857600080fd5b506102336103a7366004611fa6565b610c79565b3480156103b857600080fd5b5061027e6103c736600461215b565b610cd9565b3480156103d857600080fd5b5061026b610d5f565b3480156103ed57600080fd5b5061026b610d71565b34801561040257600080fd5b50600b5461010090046001600160a01b0316610233565b34801561042557600080fd5b50610206610d81565b34801561043a57600080fd5b5061026b610449366004611fdb565b610d90565b34801561045a57600080fd5b5061026b610469366004612176565b610e91565b34801561047a57600080fd5b5061027e600d5481565b34801561049057600080fd5b506104a461049f366004611fa6565b610ea0565b6040516101e89594939291906121b2565b3480156104c157600080fd5b5061026b6104d03660046121e9565b610f6e565b3480156104e157600080fd5b506102066104f0366004611fa6565b610fa0565b34801561050157600080fd5b506101dc610510366004612265565b6001600160a01b03918216600090815260056020908152604080832093909416825291909152205460ff1690565b34801561054a57600080fd5b5061026b61055936600461215b565b610fab565b600061056982611024565b92915050565b60606000805461057e90612298565b80601f01602080910402602001604051908101604052809291908181526020018280546105aa90612298565b80156105f75780601f106105cc576101008083540402835291602001916105f7565b820191906000526020600020905b8154815290600101906020018083116105da57829003601f168201915b5050505050905090565b600061060c82611049565b506000908152600460205260409020546001600160a01b031690565b600061063382610c79565b9050806001600160a01b0316836001600160a01b031614156106a65760405162461bcd60e51b815260206004820152602160248201527f4552433732313a20617070726f76616c20746f2063757272656e74206f776e656044820152603960f91b60648201526084015b60405180910390fd5b336001600160a01b03821614806106c257506106c28133610510565b6107345760405162461bcd60e51b815260206004820152603e60248201527f4552433732313a20617070726f76652063616c6c6572206973206e6f7420746f60448201527f6b656e206f776e6572206e6f7220617070726f76656420666f7220616c6c0000606482015260840161069d565b61073e83836110a8565b505050565b61074b611116565b600d5483111561076d5760405162461bcd60e51b815260040161069d906122d3565b6000600c61077c600186612313565b8154811061078c5761078c61232a565b9060005260206000209060050201905060008211156108045780600401548210156108045760405162461bcd60e51b815260206004820152602260248201527f537570706c79206973206c657373207468617420616c7265616479206d696e74604482015261195960f21b606482015260840161069d565b600281019290925560039091015550565b61081f3382611176565b61083b5760405162461bcd60e51b815260040161069d90612340565b61073e8383836111f5565b61084e611116565b600083511161088b5760405162461bcd60e51b815260206004820152600960248201526857726f6e672055524960b81b604482015260640161069d565b6001600d600082825461089e919061238e565b90915550506040805160a081018252848152600d5460208083019190915291810184905260608101839052600060808201819052600c8054600181018255915281518051929360059092027fdf6966c971051c3d54ec59162606531493a51404a002842f56009d7e5cf4a8c701926109199284920190611e6f565b50602082015181600101556040820151816002015560608201518160030155608082015181600401555050505050565b600061095483610cd9565b82106109b65760405162461bcd60e51b815260206004820152602b60248201527f455243373231456e756d657261626c653a206f776e657220696e646578206f7560448201526a74206f6620626f756e647360a81b606482015260840161069d565b506001600160a01b03919091166000908152600660209081526040808320938352929052205490565b6109e7611116565b6109ef61139c565b565b61073e83838360405180602001604052806000815250610f6e565b6000610a1760085490565b8210610a7a5760405162461bcd60e51b815260206004820152602c60248201527f455243373231456e756d657261626c653a20676c6f62616c20696e646578206f60448201526b7574206f6620626f756e647360a01b606482015260840161069d565b60088281548110610a8d57610a8d61232a565b90600052602060002001549050919050565b610aa76113ee565b600d54811115610ac95760405162461bcd60e51b815260040161069d906122d3565b6000600c610ad8600184612313565b81548110610ae857610ae861232a565b90600052602060002090600502019050600081600201541115610b585734816002015414610b585760405162461bcd60e51b815260206004820152601c60248201527f57726f6e67207061796d656e7420616d6f756e7420746f206d696e7400000000604482015260640161069d565b600381015415610bae578060040154816003015411610bae5760405162461bcd60e51b8152602060048201526012602482015271105b1b08139195081dd85cc81b5a5b9d195960721b604482015260640161069d565b6001816004016000828254610bc3919061238e565b9091555050600e54610bd9600e80546001019055565b610be33382611434565b61073e81836000018054610bf690612298565b80601f0160208091040260200160405190810160405280929190818152602001828054610c2290612298565b8015610c6f5780601f10610c4457610100808354040283529160200191610c6f565b820191906000526020600020905b815481529060010190602001808311610c5257829003601f168201915b505050505061144e565b6000818152600260205260408120546001600160a01b0316806105695760405162461bcd60e51b8152602060048201526018602482015277115490cdcc8c4e881a5b9d985b1a59081d1bdad95b88125160421b604482015260640161069d565b60006001600160a01b038216610d435760405162461bcd60e51b815260206004820152602960248201527f4552433732313a2061646472657373207a65726f206973206e6f7420612076616044820152683634b21037bbb732b960b91b606482015260840161069d565b506001600160a01b031660009081526003602052604090205490565b610d67611116565b6109ef60006114e8565b610d79611116565b6109ef611542565b60606001805461057e90612298565b610d98611116565b610da06113ee565b600d54811115610dc25760405162461bcd60e51b815260040161069d906122d3565b6001600160a01b038216610e0f5760405162461bcd60e51b815260206004820152601460248201527357726f6e672077616c6c6574204164647265737360601b604482015260640161069d565b6000610e1a600e5490565b90506000600c610e2b600185612313565b81548110610e3b57610e3b61232a565b906000526020600020906005020190506001816004016000828254610e60919061238e565b9091555050600e80546001019055610e788483611434565b610e8b82826000018054610bf690612298565b50505050565b610e9c33838361157f565b5050565b600c8181548110610eb057600080fd5b9060005260206000209060050201600091509050806000018054610ed390612298565b80601f0160208091040260200160405190810160405280929190818152602001828054610eff90612298565b8015610f4c5780601f10610f2157610100808354040283529160200191610f4c565b820191906000526020600020905b815481529060010190602001808311610f2f57829003601f168201915b5050505050908060010154908060020154908060030154908060040154905085565b610f783383611176565b610f945760405162461bcd60e51b815260040161069d90612340565b610e8b8484848461164e565b606061056982611681565b610fb3611116565b6001600160a01b0381166110185760405162461bcd60e51b815260206004820152602660248201527f4f776e61626c653a206e6577206f776e657220697320746865207a65726f206160448201526564647265737360d01b606482015260840161069d565b611021816114e8565b50565b60006001600160e01b0319821663780e9d6360e01b148061056957506105698261178a565b6000818152600260205260409020546001600160a01b03166110215760405162461bcd60e51b8152602060048201526018602482015277115490cdcc8c4e881a5b9d985b1a59081d1bdad95b88125160421b604482015260640161069d565b600081815260046020526040902080546001600160a01b0319166001600160a01b03841690811790915581906110dd82610c79565b6001600160a01b03167f8c5be1e5ebec7d5bd14f71427d1e84f3dd0314c0f7b2291e5b200ac8c7c3b92560405160405180910390a45050565b600b546001600160a01b036101009091041633146109ef5760405162461bcd60e51b815260206004820181905260248201527f4f776e61626c653a2063616c6c6572206973206e6f7420746865206f776e6572604482015260640161069d565b60008061118283610c79565b9050806001600160a01b0316846001600160a01b031614806111c957506001600160a01b0380821660009081526005602090815260408083209388168352929052205460ff165b806111ed5750836001600160a01b03166111e284610601565b6001600160a01b0316145b949350505050565b826001600160a01b031661120882610c79565b6001600160a01b03161461126c5760405162461bcd60e51b815260206004820152602560248201527f4552433732313a207472616e736665722066726f6d20696e636f72726563742060448201526437bbb732b960d91b606482015260840161069d565b6001600160a01b0382166112ce5760405162461bcd60e51b8152602060048201526024808201527f4552433732313a207472616e7366657220746f20746865207a65726f206164646044820152637265737360e01b606482015260840161069d565b6112d98383836117da565b6112e46000826110a8565b6001600160a01b038316600090815260036020526040812080546001929061130d908490612313565b90915550506001600160a01b038216600090815260036020526040812080546001929061133b90849061238e565b909155505060008181526002602052604080822080546001600160a01b0319166001600160a01b0386811691821790925591518493918716917fddf252ad1be2c89b69c2b068fc378daa952ba7f163c4a11628f55a4df523b3ef91a4505050565b6113a46117ed565b600b805460ff191690557f5db9ee0a495bf2e6ff9c91a7834c1ba4fdd244a5e8aa4e537bd38aeae4b073aa335b6040516001600160a01b03909116815260200160405180910390a1565b600b5460ff16156109ef5760405162461bcd60e51b815260206004820152601060248201526f14185d5cd8589b194e881c185d5cd95960821b604482015260640161069d565b610e9c828260405180602001604052806000815250611836565b6000828152600260205260409020546001600160a01b03166114c95760405162461bcd60e51b815260206004820152602e60248201527f45524337323155524953746f726167653a2055524920736574206f66206e6f6e60448201526d32bc34b9ba32b73a103a37b5b2b760911b606482015260840161069d565b6000828152600a60209081526040909120825161073e92840190611e6f565b600b80546001600160a01b03838116610100818102610100600160a81b031985161790945560405193909204169182907f8be0079c531659141344cd1fd0a4f28419497f9722a3daafe3b4186f6b6457e090600090a35050565b61154a6113ee565b600b805460ff191660011790557f62e78cea01bee320cd4e420270b5ea74000d11b0c9f74754ebdbfc544b05a2586113d13390565b816001600160a01b0316836001600160a01b031614156115e15760405162461bcd60e51b815260206004820152601960248201527f4552433732313a20617070726f766520746f2063616c6c657200000000000000604482015260640161069d565b6001600160a01b03838116600081815260056020908152604080832094871680845294825291829020805460ff191686151590811790915591519182527f17307eab39ab6107e8899845ad3d59bd9653f200f220920489ca2b5937696c31910160405180910390a3505050565b6116598484846111f5565b61166584848484611869565b610e8b5760405162461bcd60e51b815260040161069d906123a6565b606061168c82611049565b6000828152600a6020526040812080546116a590612298565b80601f01602080910402602001604051908101604052809291908181526020018280546116d190612298565b801561171e5780601f106116f35761010080835404028352916020019161171e565b820191906000526020600020905b81548152906001019060200180831161170157829003601f168201915b50505050509050600061173c60408051602081019091526000815290565b905080516000141561174f575092915050565b8151156117815780826040516020016117699291906123f8565b60405160208183030381529060405292505050919050565b6111ed84611967565b60006001600160e01b031982166380ac58cd60e01b14806117bb57506001600160e01b03198216635b5e139f60e01b145b8061056957506301ffc9a760e01b6001600160e01b0319831614610569565b6117e26113ee565b61073e8383836119db565b600b5460ff166109ef5760405162461bcd60e51b815260206004820152601460248201527314185d5cd8589b194e881b9bdd081c185d5cd95960621b604482015260640161069d565b6118408383611a93565b61184d6000848484611869565b61073e5760405162461bcd60e51b815260040161069d906123a6565b60006001600160a01b0384163b1561195c57604051630a85bd0160e11b81526001600160a01b0385169063150b7a02906118ad903390899088908890600401612427565b6020604051808303816000875af19250505080156118e8575060408051601f3d908101601f191682019092526118e591810190612464565b60015b611942573d808015611916576040519150601f19603f3d011682016040523d82523d6000602084013e61191b565b606091505b50805161193a5760405162461bcd60e51b815260040161069d906123a6565b805181602001fd5b6001600160e01b031916630a85bd0160e11b1490506111ed565b506001949350505050565b606061197282611049565b600061198960408051602081019091526000815290565b905060008151116119a957604051806020016040528060008152506119d4565b806119b384611be1565b6040516020016119c49291906123f8565b6040516020818303038152906040525b9392505050565b6001600160a01b038316611a3657611a3181600880546000838152600960205260408120829055600182018355919091527ff3f7a9fe364faab93b216da50a3214154f22a0a2b415b23a84c8169e8b636ee30155565b611a59565b816001600160a01b0316836001600160a01b031614611a5957611a598382611cdf565b6001600160a01b038216611a705761073e81611d7c565b826001600160a01b0316826001600160a01b03161461073e5761073e8282611e2b565b6001600160a01b038216611ae95760405162461bcd60e51b815260206004820181905260248201527f4552433732313a206d696e7420746f20746865207a65726f2061646472657373604482015260640161069d565b6000818152600260205260409020546001600160a01b031615611b4e5760405162461bcd60e51b815260206004820152601c60248201527f4552433732313a20746f6b656e20616c7265616479206d696e74656400000000604482015260640161069d565b611b5a600083836117da565b6001600160a01b0382166000908152600360205260408120805460019290611b8390849061238e565b909155505060008181526002602052604080822080546001600160a01b0319166001600160a01b03861690811790915590518392907fddf252ad1be2c89b69c2b068fc378daa952ba7f163c4a11628f55a4df523b3ef908290a45050565b606081611c055750506040805180820190915260018152600360fc1b602082015290565b8160005b8115611c2f5780611c1981612481565b9150611c289050600a836124b2565b9150611c09565b60008167ffffffffffffffff811115611c4a57611c4a61206d565b6040519080825280601f01601f191660200182016040528015611c74576020820181803683370190505b5090505b84156111ed57611c89600183612313565b9150611c96600a866124c6565b611ca190603061238e565b60f81b818381518110611cb657611cb661232a565b60200101906001600160f81b031916908160001a905350611cd8600a866124b2565b9450611c78565b60006001611cec84610cd9565b611cf69190612313565b600083815260076020526040902054909150808214611d49576001600160a01b03841660009081526006602090815260408083208584528252808320548484528184208190558352600790915290208190555b5060009182526007602090815260408084208490556001600160a01b039094168352600681528383209183525290812055565b600854600090611d8e90600190612313565b60008381526009602052604081205460088054939450909284908110611db657611db661232a565b906000526020600020015490508060088381548110611dd757611dd761232a565b6000918252602080832090910192909255828152600990915260408082208490558582528120556008805480611e0f57611e0f6124da565b6001900381819060005260206000200160009055905550505050565b6000611e3683610cd9565b6001600160a01b039093166000908152600660209081526040808320868452825280832085905593825260079052919091209190915550565b828054611e7b90612298565b90600052602060002090601f016020900481019282611e9d5760008555611ee3565b82601f10611eb657805160ff1916838001178555611ee3565b82800160010185558215611ee3579182015b82811115611ee3578251825591602001919060010190611ec8565b50611eef929150611ef3565b5090565b5b80821115611eef5760008155600101611ef4565b6001600160e01b03198116811461102157600080fd5b600060208284031215611f3057600080fd5b81356119d481611f08565b60005b83811015611f56578181015183820152602001611f3e565b83811115610e8b5750506000910152565b60008151808452611f7f816020860160208601611f3b565b601f01601f19169290920160200192915050565b6020815260006119d46020830184611f67565b600060208284031215611fb857600080fd5b5035919050565b80356001600160a01b0381168114611fd657600080fd5b919050565b60008060408385031215611fee57600080fd5b611ff783611fbf565b946020939093013593505050565b60008060006060848603121561201a57600080fd5b505081359360208301359350604090920135919050565b60008060006060848603121561204657600080fd5b61204f84611fbf565b925061205d60208501611fbf565b9150604084013590509250925092565b634e487b7160e01b600052604160045260246000fd5b600067ffffffffffffffff8084111561209e5761209e61206d565b604051601f8501601f19908116603f011681019082821181831017156120c6576120c661206d565b816040528093508581528686860111156120df57600080fd5b858560208301376000602087830101525050509392505050565b60008060006060848603121561210e57600080fd5b833567ffffffffffffffff81111561212557600080fd5b8401601f8101861361213657600080fd5b61214586823560208401612083565b9660208601359650604090950135949350505050565b60006020828403121561216d57600080fd5b6119d482611fbf565b6000806040838503121561218957600080fd5b61219283611fbf565b9150602083013580151581146121a757600080fd5b809150509250929050565b60a0815260006121c560a0830188611f67565b90508560208301528460408301528360608301528260808301529695505050505050565b600080600080608085870312156121ff57600080fd5b61220885611fbf565b935061221660208601611fbf565b925060408501359150606085013567ffffffffffffffff81111561223957600080fd5b8501601f8101871361224a57600080fd5b61225987823560208401612083565b91505092959194509250565b6000806040838503121561227857600080fd5b61228183611fbf565b915061228f60208401611fbf565b90509250929050565b600181811c908216806122ac57607f821691505b602082108114156122cd57634e487b7160e01b600052602260045260246000fd5b50919050565b60208082526010908201526f2bb937b7339021b7b63632b1ba34b7b760811b604082015260600190565b634e487b7160e01b600052601160045260246000fd5b600082821015612325576123256122fd565b500390565b634e487b7160e01b600052603260045260246000fd5b6020808252602e908201527f4552433732313a2063616c6c6572206973206e6f7420746f6b656e206f776e6560408201526d1c881b9bdc88185c1c1c9bdd995960921b606082015260800190565b600082198211156123a1576123a16122fd565b500190565b60208082526032908201527f4552433732313a207472616e7366657220746f206e6f6e20455243373231526560408201527131b2b4bb32b91034b6b83632b6b2b73a32b960711b606082015260800190565b6000835161240a818460208801611f3b565b83519083019061241e818360208801611f3b565b01949350505050565b6001600160a01b038581168252841660208201526040810183905260806060820181905260009061245a90830184611f67565b9695505050505050565b60006020828403121561247657600080fd5b81516119d481611f08565b6000600019821415612495576124956122fd565b5060010190565b634e487b7160e01b600052601260045260246000fd5b6000826124c1576124c161249c565b500490565b6000826124d5576124d561249c565b500690565b634e487b7160e01b600052603160045260246000fdfea264697066735822122043cceac8aacbd8ee6d2fcb7f7470856042a18680617f35e8f6c6bdc612681ecb64736f6c634300080c003360806040523480156200001157600080fd5b50604051620011df380380620011df8339810160408190526200003491620004c5565b8351849084906200004d90600390602085019062000352565b5080516200006390600490602084019062000352565b50506005805460ff19169055506200007b33620000af565b6200009a826200009483670de0b6b3a76400006200056e565b62000109565b620000a58262000200565b50505050620005e8565b600580546001600160a01b03838116610100818102610100600160a81b031985161790945560405193909204169182907f8be0079c531659141344cd1fd0a4f28419497f9722a3daafe3b4186f6b6457e090600090a35050565b6001600160a01b038216620001655760405162461bcd60e51b815260206004820152601f60248201527f45524332303a206d696e7420746f20746865207a65726f20616464726573730060448201526064015b60405180910390fd5b62000173600083836200027f565b806002600082825462000187919062000590565b90915550506001600160a01b03821660009081526020819052604081208054839290620001b690849062000590565b90915550506040518181526001600160a01b038316906000907fddf252ad1be2c89b69c2b068fc378daa952ba7f163c4a11628f55a4df523b3ef9060200160405180910390a35050565b6200020a620002a6565b6001600160a01b038116620002715760405162461bcd60e51b815260206004820152602660248201527f4f776e61626c653a206e6577206f776e657220697320746865207a65726f206160448201526564647265737360d01b60648201526084016200015c565b6200027c81620000af565b50565b620002896200030a565b620002a1838383620002a160201b620004c81760201c565b505050565b6005546001600160a01b03610100909104163314620003085760405162461bcd60e51b815260206004820181905260248201527f4f776e61626c653a2063616c6c6572206973206e6f7420746865206f776e657260448201526064016200015c565b565b60055460ff1615620003085760405162461bcd60e51b815260206004820152601060248201526f14185d5cd8589b194e881c185d5cd95960821b60448201526064016200015c565b8280546200036090620005ab565b90600052602060002090601f016020900481019282620003845760008555620003cf565b82601f106200039f57805160ff1916838001178555620003cf565b82800160010185558215620003cf579182015b82811115620003cf578251825591602001919060010190620003b2565b50620003dd929150620003e1565b5090565b5b80821115620003dd5760008155600101620003e2565b634e487b7160e01b600052604160045260246000fd5b600082601f8301126200042057600080fd5b81516001600160401b03808211156200043d576200043d620003f8565b604051601f8301601f19908116603f01168101908282118183101715620004685762000468620003f8565b816040528381526020925086838588010111156200048557600080fd5b600091505b83821015620004a957858201830151818301840152908201906200048a565b83821115620004bb5760008385830101525b9695505050505050565b60008060008060808587031215620004dc57600080fd5b84516001600160401b0380821115620004f457600080fd5b62000502888389016200040e565b955060208701519150808211156200051957600080fd5b5062000528878288016200040e565b604087015190945090506001600160a01b03811681146200054857600080fd5b6060959095015193969295505050565b634e487b7160e01b600052601160045260246000fd5b60008160001904831182151516156200058b576200058b62000558565b500290565b60008219821115620005a657620005a662000558565b500190565b600181811c90821680620005c057607f821691505b60208210811415620005e257634e487b7160e01b600052602260045260246000fd5b50919050565b610be780620005f86000396000f3fe608060405234801561001057600080fd5b506004361061010b5760003560e01c806370a08231116100a257806395d89b411161007157806395d89b411461020f578063a457c2d714610217578063a9059cbb1461022a578063dd62ed3e1461023d578063f2fde38b1461025057600080fd5b806370a08231146101ad578063715018a6146101d65780638456cb59146101de5780638da5cb5b146101e657600080fd5b8063313ce567116100de578063313ce5671461017657806339509351146101855780633f4ba83a146101985780635c975abb146101a257600080fd5b806306fdde0314610110578063095ea7b31461012e57806318160ddd1461015157806323b872dd14610163575b600080fd5b610118610263565b6040516101259190610a24565b60405180910390f35b61014161013c366004610a95565b6102f5565b6040519015158152602001610125565b6002545b604051908152602001610125565b610141610171366004610abf565b61030d565b60405160128152602001610125565b610141610193366004610a95565b610331565b6101a0610353565b005b60055460ff16610141565b6101556101bb366004610afb565b6001600160a01b031660009081526020819052604090205490565b6101a0610365565b6101a0610377565b60055461010090046001600160a01b03166040516001600160a01b039091168152602001610125565b610118610387565b610141610225366004610a95565b610396565b610141610238366004610a95565b610416565b61015561024b366004610b1d565b610424565b6101a061025e366004610afb565b61044f565b60606003805461027290610b50565b80601f016020809104026020016040519081016040528092919081815260200182805461029e90610b50565b80156102eb5780601f106102c0576101008083540402835291602001916102eb565b820191906000526020600020905b8154815290600101906020018083116102ce57829003601f168201915b5050505050905090565b6000336103038185856104cd565b5060019392505050565b60003361031b8582856105f1565b61032685858561066b565b506001949350505050565b6000336103038185856103448383610424565b61034e9190610b8b565b6104cd565b61035b610844565b6103636108a4565b565b61036d610844565b61036360006108f6565b61037f610844565b610363610950565b60606004805461027290610b50565b600033816103a48286610424565b9050838110156104095760405162461bcd60e51b815260206004820152602560248201527f45524332303a2064656372656173656420616c6c6f77616e63652062656c6f77604482015264207a65726f60d81b60648201526084015b60405180910390fd5b61032682868684036104cd565b60003361030381858561066b565b6001600160a01b03918216600090815260016020908152604080832093909416825291909152205490565b610457610844565b6001600160a01b0381166104bc5760405162461bcd60e51b815260206004820152602660248201527f4f776e61626c653a206e6577206f776e657220697320746865207a65726f206160448201526564647265737360d01b6064820152608401610400565b6104c5816108f6565b50565b505050565b6001600160a01b03831661052f5760405162461bcd60e51b8152602060048201526024808201527f45524332303a20617070726f76652066726f6d20746865207a65726f206164646044820152637265737360e01b6064820152608401610400565b6001600160a01b0382166105905760405162461bcd60e51b815260206004820152602260248201527f45524332303a20617070726f766520746f20746865207a65726f206164647265604482015261737360f01b6064820152608401610400565b6001600160a01b0383811660008181526001602090815260408083209487168084529482529182902085905590518481527f8c5be1e5ebec7d5bd14f71427d1e84f3dd0314c0f7b2291e5b200ac8c7c3b925910160405180910390a3505050565b60006105fd8484610424565b9050600019811461066557818110156106585760405162461bcd60e51b815260206004820152601d60248201527f45524332303a20696e73756666696369656e7420616c6c6f77616e63650000006044820152606401610400565b61066584848484036104cd565b50505050565b6001600160a01b0383166106cf5760405162461bcd60e51b815260206004820152602560248201527f45524332303a207472616e736665722066726f6d20746865207a65726f206164604482015264647265737360d81b6064820152608401610400565b6001600160a01b0382166107315760405162461bcd60e51b815260206004820152602360248201527f45524332303a207472616e7366657220746f20746865207a65726f206164647260448201526265737360e81b6064820152608401610400565b61073c83838361098d565b6001600160a01b038316600090815260208190526040902054818110156107b45760405162461bcd60e51b815260206004820152602660248201527f45524332303a207472616e7366657220616d6f756e7420657863656564732062604482015265616c616e636560d01b6064820152608401610400565b6001600160a01b038085166000908152602081905260408082208585039055918516815290812080548492906107eb908490610b8b565b92505081905550826001600160a01b0316846001600160a01b03167fddf252ad1be2c89b69c2b068fc378daa952ba7f163c4a11628f55a4df523b3ef8460405161083791815260200190565b60405180910390a3610665565b6005546001600160a01b036101009091041633146103635760405162461bcd60e51b815260206004820181905260248201527f4f776e61626c653a2063616c6c6572206973206e6f7420746865206f776e65726044820152606401610400565b6108ac610995565b6005805460ff191690557f5db9ee0a495bf2e6ff9c91a7834c1ba4fdd244a5e8aa4e537bd38aeae4b073aa335b6040516001600160a01b03909116815260200160405180910390a1565b600580546001600160a01b03838116610100818102610100600160a81b031985161790945560405193909204169182907f8be0079c531659141344cd1fd0a4f28419497f9722a3daafe3b4186f6b6457e090600090a35050565b6109586109de565b6005805460ff191660011790557f62e78cea01bee320cd4e420270b5ea74000d11b0c9f74754ebdbfc544b05a2586108d93390565b6104c86109de565b60055460ff166103635760405162461bcd60e51b815260206004820152601460248201527314185d5cd8589b194e881b9bdd081c185d5cd95960621b6044820152606401610400565b60055460ff16156103635760405162461bcd60e51b815260206004820152601060248201526f14185d5cd8589b194e881c185d5cd95960821b6044820152606401610400565b600060208083528351808285015260005b81811015610a5157858101830151858201604001528201610a35565b81811115610a63576000604083870101525b50601f01601f1916929092016040019392505050565b80356001600160a01b0381168114610a9057600080fd5b919050565b60008060408385031215610aa857600080fd5b610ab183610a79565b946020939093013593505050565b600080600060608486031215610ad457600080fd5b610add84610a79565b9250610aeb60208501610a79565b9150604084013590509250925092565b600060208284031215610b0d57600080fd5b610b1682610a79565b9392505050565b60008060408385031215610b3057600080fd5b610b3983610a79565b9150610b4760208401610a79565b90509250929050565b600181811c90821680610b6457607f821691505b60208210811415610b8557634e487b7160e01b600052602260045260246000fd5b50919050565b60008219821115610bac57634e487b7160e01b600052601160045260246000fd5b50019056fea2646970667358221220ba382bade5515ad914dd59629d7f4d85837fc5fb1ac88758496331571c47657264736f6c634300080c0033360894a13ba1a3210667c828492db98dca3e2076cc3735a920a3ca505d382bbc416464726573733a206c6f772d6c6576656c2064656c65676174652063616c6c206661696c6564a2646970667358221220e8f1e0c5a0ed71f7fe131ee6a4a5b14255a7f4767a5eb145792e8a111d808f0064736f6c634300080c0033",
  "linkReferences": {},
  "deployedLinkReferences": {}
}