{
  "_format": "hh-sol-artifact-1",
  "contractName": "FactoryFTContract",
  "sourceName": "src/backend/contracts/FactoryFTContract.sol",
  "abi": [
    {
      "inputs": [],
      "stateMutability": "nonpayable",
      "type": "constructor"
    },
    {
      "anonymous": false,
      "inputs": [
        {
          "indexed": false,
          "internalType": "address",
          "name": "previousAdmin",
          "type": "address"
        },
        {
          "indexed": false,
          "internalType": "address",
          "name": "newAdmin",
          "type": "address"
        }
      ],
      "name": "AdminChanged",
      "type": "event"
    },
    {
      "anonymous": false,
      "inputs": [
        {
          "indexed": true,
          "internalType": "address",
          "name": "beacon",
          "type": "address"
        }
      ],
      "name": "BeaconUpgraded",
      "type": "event"
    },
    {
      "anonymous": false,
      "inputs": [
        {
          "indexed": false,
          "internalType": "uint8",
          "name": "version",
          "type": "uint8"
        }
      ],
      "name": "Initialized",
      "type": "event"
    },
    {
      "anonymous": false,
      "inputs": [
        {
          "indexed": true,
          "internalType": "address",
          "name": "previousOwner",
          "type": "address"
        },
        {
          "indexed": true,
          "internalType": "address",
          "name": "newOwner",
          "type": "address"
        }
      ],
      "name": "OwnershipTransferred",
      "type": "event"
    },
    {
      "anonymous": false,
      "inputs": [
        {
          "indexed": true,
          "internalType": "address",
          "name": "implementation",
          "type": "address"
        }
      ],
      "name": "Upgraded",
      "type": "event"
    },
    {
      "inputs": [
        {
          "internalType": "uint256",
          "name": "_communityId",
          "type": "uint256"
        },
        {
          "internalType": "string",
          "name": "_name",
          "type": "string"
        },
        {
          "internalType": "string",
          "name": "_symbol",
          "type": "string"
        },
        {
          "internalType": "uint256",
          "name": "_supply",
          "type": "uint256"
        }
      ],
      "name": "deployFTContract",
      "outputs": [],
      "stateMutability": "nonpayable",
      "type": "function"
    },
    {
      "inputs": [
        {
          "internalType": "address",
          "name": "_mainContractAddress",
          "type": "address"
        },
        {
          "internalType": "contract IWorldID",
          "name": "_worldId",
          "type": "address"
        },
        {
          "internalType": "address",
          "name": "_superTokenFactory",
          "type": "address"
        }
      ],
      "name": "initialize",
      "outputs": [],
      "stateMutability": "nonpayable",
      "type": "function"
    },
    {
      "inputs": [],
      "name": "owner",
      "outputs": [
        {
          "internalType": "address",
          "name": "",
          "type": "address"
        }
      ],
      "stateMutability": "view",
      "type": "function"
    },
    {
      "inputs": [],
      "name": "proxiableUUID",
      "outputs": [
        {
          "internalType": "bytes32",
          "name": "",
          "type": "bytes32"
        }
      ],
      "stateMutability": "view",
      "type": "function"
    },
    {
      "inputs": [],
      "name": "renounceOwnership",
      "outputs": [],
      "stateMutability": "nonpayable",
      "type": "function"
    },
    {
      "inputs": [
        {
          "internalType": "address",
          "name": "newOwner",
          "type": "address"
        }
      ],
      "name": "transferOwnership",
      "outputs": [],
      "stateMutability": "nonpayable",
      "type": "function"
    },
    {
      "inputs": [
        {
          "internalType": "address",
          "name": "newImplementation",
          "type": "address"
        }
      ],
      "name": "upgradeTo",
      "outputs": [],
      "stateMutability": "nonpayable",
      "type": "function"
    },
    {
      "inputs": [
        {
          "internalType": "address",
          "name": "newImplementation",
          "type": "address"
        },
        {
          "internalType": "bytes",
          "name": "data",
          "type": "bytes"
        }
      ],
      "name": "upgradeToAndCall",
      "outputs": [],
      "stateMutability": "payable",
      "type": "function"
    }
  ],
  "bytecode": "0x60a06040523060805234801561001457600080fd5b5061001d610022565b6100e2565b600054610100900460ff161561008e5760405162461bcd60e51b815260206004820152602760248201527f496e697469616c697a61626c653a20636f6e747261637420697320696e697469604482015266616c697a696e6760c81b606482015260840160405180910390fd5b60005460ff90811610156100e0576000805460ff191660ff9081179091556040519081527f7f26b83ff96e1f2b6a682f133852f6798a09c465da95921460cefb38474024989060200160405180910390a15b565b6080516130c961011960003960008181610185015281816101ce0152818161026e015281816102ae015261034101526130c96000f3fe60806040526004361061007b5760003560e01c80638da5cb5b1161004e5780638da5cb5b146100f2578063c0c53b8b1461011a578063ee01380d1461013a578063f2fde38b1461015a57600080fd5b80633659cfe6146100805780634f1ef286146100a257806352d1902d146100b5578063715018a6146100dd575b600080fd5b34801561008c57600080fd5b506100a061009b366004610e09565b61017a565b005b6100a06100b0366004610eb2565b610263565b3480156100c157600080fd5b506100ca610334565b6040519081526020015b60405180910390f35b3480156100e957600080fd5b506100a06103e7565b3480156100fe57600080fd5b506033546040516001600160a01b0390911681526020016100d4565b34801561012657600080fd5b506100a0610135366004610f16565b6103fb565b34801561014657600080fd5b506100a0610155366004610f81565b610554565b34801561016657600080fd5b506100a0610175366004610e09565b610892565b306001600160a01b037f00000000000000000000000000000000000000000000000000000000000000001614156101cc5760405162461bcd60e51b81526004016101c390610ff6565b60405180910390fd5b7f00000000000000000000000000000000000000000000000000000000000000006001600160a01b031661021560008051602061304d833981519152546001600160a01b031690565b6001600160a01b03161461023b5760405162461bcd60e51b81526004016101c390611042565b61024481610908565b6040805160008082526020820190925261026091839190610910565b50565b306001600160a01b037f00000000000000000000000000000000000000000000000000000000000000001614156102ac5760405162461bcd60e51b81526004016101c390610ff6565b7f00000000000000000000000000000000000000000000000000000000000000006001600160a01b03166102f560008051602061304d833981519152546001600160a01b031690565b6001600160a01b03161461031b5760405162461bcd60e51b81526004016101c390611042565b61032482610908565b61033082826001610910565b5050565b6000306001600160a01b037f000000000000000000000000000000000000000000000000000000000000000016146103d45760405162461bcd60e51b815260206004820152603860248201527f555550535570677261646561626c653a206d757374206e6f742062652063616c60448201527f6c6564207468726f7567682064656c656761746563616c6c000000000000000060648201526084016101c3565b5060008051602061304d83398151915290565b6103ef610a80565b6103f96000610ada565b565b600054610100900460ff161580801561041b5750600054600160ff909116105b806104355750303b158015610435575060005460ff166001145b6104985760405162461bcd60e51b815260206004820152602e60248201527f496e697469616c697a61626c653a20636f6e747261637420697320616c72656160448201526d191e481a5b9a5d1a585b1a5e995960921b60648201526084016101c3565b6000805460ff1916600117905580156104bb576000805461ff0019166101001790555b6104c3610b2c565b6104cb610b5b565b60c980546001600160a01b038087166001600160a01b03199283161790925560cb805486841690831617905560cc805492851692909116919091179055801561054e576000805461ff0019169055604051600181527f7f26b83ff96e1f2b6a682f133852f6798a09c465da95921460cefb38474024989060200160405180910390a15b50505050565b6003835110156105be5760405162461bcd60e51b815260206004820152602f60248201527f436f6c6c656374696f6e206e616d652073686f756c64206265206c6f6e67657260448201526e207468616e20322073796d626f6c7360881b60648201526084016101c3565b60038251101580156105d257506005825111155b6106285760405162461bcd60e51b815260206004820152602160248201527f53796d626f6c206c656e6774682073686f756c6420626520332d3520636861726044820152607360f81b60648201526084016101c3565b6000811161066e5760405162461bcd60e51b815260206004820152601360248201527215dc9bdb99c81cdd5c1c1b1e48185b5bdd5b9d606a1b60448201526064016101c3565b60c954604051635b25bfbb60e11b8152600481018690526000916001600160a01b03169063b64b7f76906024016040805180830381865afa1580156106b7573d6000803e3d6000fd5b505050506040513d601f19601f820116820180604052508101906106db91906110a3565b91505080156107375760405162461bcd60e51b815260206004820152602260248201527f436f6d6d756e69747920616c7265616479206861766520465420436f6e74726160448201526118dd60f21b60648201526084016101c3565b600060405161074590610de7565b604051809103906000f080158015610761573d6000803e3d6000fd5b5060c95460cb5460cc5460405163f1fb53e160e01b81529394506001600160a01b038086169463f1fb53e1946107ab94908316938c938c9333938d9390831692169060040161112e565b600060405180830381600087803b1580156107c557600080fd5b505af11580156107d9573d6000803e3d6000fd5b505060ca80546001810182556000919091527f42d72674974f694b5f5159593243114d38a5c39c89d6b62fee061ff523240ee10180546001600160a01b0319166001600160a01b0385811691821790925560c95460405163e87d940b60e01b8152600481018c90526024810192909252909116925063e87d940b9150604401600060405180830381600087803b15801561087257600080fd5b505af1158015610886573d6000803e3d6000fd5b50505050505050505050565b61089a610a80565b6001600160a01b0381166108ff5760405162461bcd60e51b815260206004820152602660248201527f4f776e61626c653a206e6577206f776e657220697320746865207a65726f206160448201526564647265737360d01b60648201526084016101c3565b61026081610ada565b610260610a80565b7f4910fdfa16fed3260ed0e7147f7cc6da11a60208b5b9406d12a635614ffd91435460ff16156109485761094383610b82565b505050565b826001600160a01b03166352d1902d6040518163ffffffff1660e01b8152600401602060405180830381865afa9250505080156109a2575060408051601f3d908101601f1916820190925261099f918101906111a1565b60015b610a055760405162461bcd60e51b815260206004820152602e60248201527f45524331393637557067726164653a206e657720696d706c656d656e7461746960448201526d6f6e206973206e6f74205555505360901b60648201526084016101c3565b60008051602061304d8339815191528114610a745760405162461bcd60e51b815260206004820152602960248201527f45524331393637557067726164653a20756e737570706f727465642070726f786044820152681a58589b195555525160ba1b60648201526084016101c3565b50610943838383610c1e565b6033546001600160a01b031633146103f95760405162461bcd60e51b815260206004820181905260248201527f4f776e61626c653a2063616c6c6572206973206e6f7420746865206f776e657260448201526064016101c3565b603380546001600160a01b038381166001600160a01b0319831681179093556040519116919082907f8be0079c531659141344cd1fd0a4f28419497f9722a3daafe3b4186f6b6457e090600090a35050565b600054610100900460ff16610b535760405162461bcd60e51b81526004016101c3906111ba565b6103f9610c43565b600054610100900460ff166103f95760405162461bcd60e51b81526004016101c3906111ba565b6001600160a01b0381163b610bef5760405162461bcd60e51b815260206004820152602d60248201527f455243313936373a206e657720696d706c656d656e746174696f6e206973206e60448201526c1bdd08184818dbdb9d1c9858dd609a1b60648201526084016101c3565b60008051602061304d83398151915280546001600160a01b0319166001600160a01b0392909216919091179055565b610c2783610c73565b600082511180610c345750805b156109435761054e8383610cb3565b600054610100900460ff16610c6a5760405162461bcd60e51b81526004016101c3906111ba565b6103f933610ada565b610c7c81610b82565b6040516001600160a01b038216907fbc7cd75a20ee27fd9adebab32041f755214dbc6bffa90cc0225b39da2e5c2d3b90600090a250565b60606001600160a01b0383163b610d1b5760405162461bcd60e51b815260206004820152602660248201527f416464726573733a2064656c65676174652063616c6c20746f206e6f6e2d636f6044820152651b9d1c9858dd60d21b60648201526084016101c3565b600080846001600160a01b031684604051610d369190611205565b600060405180830381855af49150503d8060008114610d71576040519150601f19603f3d011682016040523d82523d6000602084013e610d76565b606091505b5091509150610d9e828260405180606001604052806027815260200161306d60279139610da7565b95945050505050565b60608315610db6575081610de0565b825115610dc65782518084602001fd5b8160405162461bcd60e51b81526004016101c39190611221565b9392505050565b611e188061123583390190565b6001600160a01b038116811461026057600080fd5b600060208284031215610e1b57600080fd5b8135610de081610df4565b634e487b7160e01b600052604160045260246000fd5b600067ffffffffffffffff80841115610e5757610e57610e26565b604051601f8501601f19908116603f01168101908282118183101715610e7f57610e7f610e26565b81604052809350858152868686011115610e9857600080fd5b858560208301376000602087830101525050509392505050565b60008060408385031215610ec557600080fd5b8235610ed081610df4565b9150602083013567ffffffffffffffff811115610eec57600080fd5b8301601f81018513610efd57600080fd5b610f0c85823560208401610e3c565b9150509250929050565b600080600060608486031215610f2b57600080fd5b8335610f3681610df4565b92506020840135610f4681610df4565b91506040840135610f5681610df4565b809150509250925092565b600082601f830112610f7257600080fd5b610de083833560208501610e3c565b60008060008060808587031215610f9757600080fd5b84359350602085013567ffffffffffffffff80821115610fb657600080fd5b610fc288838901610f61565b94506040870135915080821115610fd857600080fd5b50610fe587828801610f61565b949793965093946060013593505050565b6020808252602c908201527f46756e6374696f6e206d7573742062652063616c6c6564207468726f7567682060408201526b19195b1959d85d1958d85b1b60a21b606082015260800190565b6020808252602c908201527f46756e6374696f6e206d7573742062652063616c6c6564207468726f7567682060408201526b6163746976652070726f787960a01b606082015260800190565b8051801515811461109e57600080fd5b919050565b600080604083850312156110b657600080fd5b6110bf8361108e565b91506110cd6020840161108e565b90509250929050565b60005b838110156110f15781810151838201526020016110d9565b8381111561054e5750506000910152565b6000815180845261111a8160208601602086016110d6565b601f01601f19169290920160200192915050565b6001600160a01b038881168252610100602083018190526000916111548483018b611102565b91508382036040850152611168828a611102565b97811660608501526080840196909652505091831660a083015290911660c082015280820360e090910152600081526020019392505050565b6000602082840312156111b357600080fd5b5051919050565b6020808252602b908201527f496e697469616c697a61626c653a20636f6e7472616374206973206e6f74206960408201526a6e697469616c697a696e6760a81b606082015260800190565b600082516112178184602087016110d6565b9190910192915050565b602081526000610de0602083018461110256fe60a0604052600160805234801561001557600080fd5b506020805460ff191690556100293361002e565b610088565b602080546001600160a01b03838116610100818102610100600160a81b031985161790945560405193909204169182907f8be0079c531659141344cd1fd0a4f28419497f9722a3daafe3b4186f6b6457e090600090a35050565b608051611d756100a36000396000610d020152611d756000f3fe6080604052600436106100ec5760003560e01c8063715018a61161008a578063c3d4450611610059578063c3d445061461025e578063edfd1a7b1461027e578063f1fb53e114610291578063f2fde38b146102b1576100fb565b8063715018a6146101dc5780638456cb59146101f15780638da5cb5b14610206578063a6b036331461023c576100fb565b80633f4ba83a116100c65780633f4ba83a1461016b5780634a0687ef146101805780635c975abb146101a057806369b0aafa146101b8576100fb565b8063095ea7b3146101035780631400505014610138578063381da4881461014b576100fb565b366100fb576100f96102d1565b005b6100f96102d1565b34801561010f57600080fd5b5061012361011e3660046115ac565b610303565b60405190151581526020015b60405180910390f35b6100f961014636600461168f565b61031b565b34801561015757600080fd5b506100f96101663660046117a2565b61058d565b34801561017757600080fd5b506100f96108d1565b34801561018c57600080fd5b506100f961019b3660046117bb565b6108e1565b3480156101ac57600080fd5b5060205460ff16610123565b3480156101c457600080fd5b506101ce60225481565b60405190815260200161012f565b3480156101e857600080fd5b506100f961097d565b3480156101fd57600080fd5b506100f961098f565b34801561021257600080fd5b5060205461010090046001600160a01b03166040516001600160a01b03909116815260200161012f565b34801561024857600080fd5b5061025161099f565b60405161012f91906118ac565b34801561026a57600080fd5b506101ce6102793660046117a2565b610bec565b6100f961028c366004611994565b610c0d565b34801561029d57600080fd5b506100f96102ac366004611a1c565b610f38565b3480156102bd57600080fd5b506100f96102cc3660046117bb565b610fac565b6103016102fc7f360894a13ba1a3210667c828492db98dca3e2076cc3735a920a3ca505d382bbc5490565b611025565b565b600033610311818585611049565b5060019392505050565b6103236110b7565b848611156103785760405162461bcd60e51b815260206004820152601960248201527f57726f6e672063616d706169676e20646174652072616e67650000000000000060448201526064015b60405180910390fd5b6000600488600581111561038e5761038e6117d8565b14156103a5576103a2620f423f6001611117565b90505b6040516323b872dd60e01b8152336004820152306024820181905260448201859052906323b872dd906064016020604051808303816000875af11580156103f0573d6000803e3d6000fd5b505050506040513d601f19601f820116820180604052508101906104149190611af1565b506001602260008282546104289190611b29565b90915550506022546023805460018101825560009182527fd57b2b5166478fd4318d2acc6cc2c704584312bdd8781b32d5d06abda57f423001829055604080516101408101825292835260208301869052820152606081018390526080810188905260a0810187905260c0810182905260e081018960058111156104ae576104ae6117d8565b815260200186815260200185815250602460006022548152602001908152602001600020600082015181600001556020820151816001015560408201518160020155606082015181600301556080820151816004015560a0820151816005015560c0820151816006015560e08201518160070160006101000a81548160ff02191690836005811115610542576105426117d8565b021790555061010082015180516105639160088401916020909101906113dd565b506101208201518051610580916009840191602090910190611442565b5050505050505050505050565b6105956110b7565b600081815260246020908152604080832081516101408101835281548152600182015493810193909352600281015491830191909152600381015460608301526004810154608083015260058082015460a0840152600682015460c0840152600782015460e084019160ff90911690811115610613576106136117d8565b6005811115610624576106246117d8565b81526020016008820180548060200260200160405190810160405280929190818152602001828054801561068157602002820191906000526020600020905b81546001600160a01b03168152600190910190602001808311610663575b5050505050815260200160098201805461069a90611b41565b80601f01602080910402602001604051908101604052809291908181526020018280546106c690611b41565b80156107135780601f106106e857610100808354040283529160200191610713565b820191906000526020600020905b8154815290600101906020018083116106f657829003601f168201915b50505050508152505090506000816040015182602001516107349190611b76565b905060005b6023548110156107f657836023828154811061075757610757611b8d565b906000526020600020015414156107e657602354600110156107be576023805461078390600190611b76565b8154811061079357610793611b8d565b9060005260206000200154602382815481106107b1576107b1611b8d565b6000918252602090912001555b60238054806107cf576107cf611ba3565b600190038181906000526020600020016000905590555b6107ef81611bb9565b9050610739565b50600083815260246020526040812081815560018101829055600281018290556003810182905560048101829055600581018290556006810182905560078101805460ff191690559061084c60088301826114b6565b61085a6009830160006114d4565b505080156108cc5760405163a9059cbb60e01b815233600482015260248101829052309063a9059cbb906044016020604051808303816000875af11580156108a6573d6000803e3d6000fd5b505050506040513d601f19601f820116820180604052508101906108ca9190611af1565b505b505050565b6108d96110b7565b610301611186565b6001600160a01b0381166109085760405163d92e233d60e01b815260040160405180910390fd5b60006109327f360894a13ba1a3210667c828492db98dca3e2076cc3735a920a3ca505d382bbc5490565b6001600160a01b031614610959576040516302ed543d60e51b815260040160405180910390fd5b7f360894a13ba1a3210667c828492db98dca3e2076cc3735a920a3ca505d382bbc55565b6109856110b7565b61030160006111d8565b6109976110b7565b610301611232565b60235460609060009067ffffffffffffffff8111156109c0576109c06115d8565b6040519080825280602002602001820160405280156109f957816020015b6109e661150e565b8152602001906001900390816109de5790505b50905060005b602354811015610be6576024600060238381548110610a2057610a20611b8d565b9060005260206000200154815260200190815260200160002060405180610140016040529081600082015481526020016001820154815260200160028201548152602001600382015481526020016004820154815260200160058201548152602001600682015481526020016007820160009054906101000a900460ff166005811115610aaf57610aaf6117d8565b6005811115610ac057610ac06117d8565b815260200160088201805480602002602001604051908101604052809291908181526020018280548015610b1d57602002820191906000526020600020905b81546001600160a01b03168152600190910190602001808311610aff575b50505050508152602001600982018054610b3690611b41565b80601f0160208091040260200160405190810160405280929190818152602001828054610b6290611b41565b8015610baf5780601f10610b8457610100808354040283529160200191610baf565b820191906000526020600020905b815481529060010190602001808311610b9257829003601f168201915b505050505081525050828281518110610bca57610bca611b8d565b602002602001018190525080610bdf90611bb9565b90506109ff565b50919050565b60238181548110610bfc57600080fd5b600091825260209091200154905081565b610c1561126f565b6000868152602460205260409020600181015460038201546002830154610c3c9190611b29565b1115610c8a5760405162461bcd60e51b815260206004820152601960248201527f4e6f7420656e6f75676820746f6b656e7320746f206d696e7400000000000000604482015260640161036f565b6000816009018054610c9b90611b41565b90501115610dce5760008381526026602052604090205460ff1615610cd357604051632ec8265960e11b815260040160405180910390fd5b6025546040516001600160601b03193360601b1660208201526001600160a01b0390911690633bc778e39086907f000000000000000000000000000000000000000000000000000000000000000090610d3e906034015b6040516020818303038152906040526112b5565b6040516001600160601b03193060601b1660208201528890610d6290603401610d2a565b886040518763ffffffff1660e01b8152600401610d8496959493929190611bd4565b60006040518083038186803b158015610d9c57600080fd5b505afa158015610db0573d6000803e3d6000fd5b5050506000848152602660205260409020805460ff19166001179055505b6004600782015460ff166005811115610de957610de96117d8565b1415610e355785816006015414610e355760405162461bcd60e51b815260206004820152601060248201526f57726f6e67204576656e7420436f646560801b604482015260640161036f565b8060030154816002016000828254610e4d9190611b29565b9091555050600381015460405163a9059cbb60e01b81523360048201526024810191909152309063a9059cbb906044016020604051808303816000875af1158015610e9c573d6000803e3d6000fd5b505050506040513d601f19601f82011682018060405250810190610ec09190611af1565b5060215460038201546040516313c977bb60e21b81526001600160a01b0390921691634f25deec91610efc9133918a918e918e91600401611c10565b600060405180830381600087803b158015610f1657600080fd5b505af1158015610f2a573d6000803e3d6000fd5b505050505050505050505050565b602180546001600160a01b0319166001600160a01b038a16179055610f5e8787846112ea565b610f7a85610f7486670de0b6b3a7640000611c68565b8361136d565b610f8385610fac565b5050602580546001600160a01b0319166001600160a01b03929092169190911790555050505050565b610fb46110b7565b6001600160a01b0381166110195760405162461bcd60e51b815260206004820152602660248201527f4f776e61626c653a206e6577206f776e657220697320746865207a65726f206160448201526564647265737360d01b606482015260840161036f565b611022816111d8565b50565b3660008037600080366000845af43d6000803e808015611044573d6000f35b3d6000fd5b60405163335097db60e11b81526001600160a01b038085166004830152831660248201526044810182905230906366a12fb6906064015b600060405180830381600087803b15801561109a57600080fd5b505af11580156110ae573d6000803e3d6000fd5b50505050505050565b6020546001600160a01b036101009091041633146103015760405162461bcd60e51b815260206004820181905260248201527f4f776e61626c653a2063616c6c6572206973206e6f7420746865206f776e6572604482015260640161036f565b6040516001600160f81b031960f883901b1660208201526001600160601b03193360601b1660218201524460358201524260558201526001607582015260009083906095016040516020818303038152906040528051906020012060001c61117f9190611c87565b9392505050565b61118e611394565b6020805460ff191690557f5db9ee0a495bf2e6ff9c91a7834c1ba4fdd244a5e8aa4e537bd38aeae4b073aa335b6040516001600160a01b03909116815260200160405180910390a1565b602080546001600160a01b03838116610100818102610100600160a81b031985161790945560405193909204169182907f8be0079c531659141344cd1fd0a4f28419497f9722a3daafe3b4186f6b6457e090600090a35050565b61123a61126f565b6020805460ff191660011790557f62e78cea01bee320cd4e420270b5ea74000d11b0c9f74754ebdbfc544b05a2586111bb3390565b60205460ff16156103015760405162461bcd60e51b815260206004820152601060248201526f14185d5cd8589b194e881c185d5cd95960821b604482015260640161036f565b60006008826040516020016112ca9190611ca9565b60408051601f198184030181529190528051602090910120901c92915050565b604051633504b4d160e21b81523060048201526001600160a01b0382169063d412d34490602401600060405180830381600087803b15801561132b57600080fd5b505af115801561133f573d6000803e3d6000fd5b50506040516285fc1360e71b81523092506342fe098091506110809060009060129088908890600401611cc5565b60405163c68d428360e01b8152309063c68d42839061108090869086908690600401611d0f565b60205460ff166103015760405162461bcd60e51b815260206004820152601460248201527314185d5cd8589b194e881b9bdd081c185d5cd95960621b604482015260640161036f565b828054828255906000526020600020908101928215611432579160200282015b8281111561143257825182546001600160a01b0319166001600160a01b039091161782556020909201916001909101906113fd565b5061143e929150611572565b5090565b82805461144e90611b41565b90600052602060002090601f0160209004810192826114705760008555611432565b82601f1061148957805160ff1916838001178555611432565b82800160010185558215611432579182015b8281111561143257825182559160200191906001019061149b565b50805460008255906000526020600020908101906110229190611572565b5080546114e090611b41565b6000825580601f106114f0575050565b601f0160209004906000526020600020908101906110229190611572565b604051806101400160405280600081526020016000815260200160008152602001600081526020016000815260200160008152602001600081526020016000600581111561155e5761155e6117d8565b815260200160608152602001606081525090565b5b8082111561143e5760008155600101611573565b6001600160a01b038116811461102257600080fd5b80356115a781611587565b919050565b600080604083850312156115bf57600080fd5b82356115ca81611587565b946020939093013593505050565b634e487b7160e01b600052604160045260246000fd5b604051601f8201601f1916810167ffffffffffffffff81118282101715611617576116176115d8565b604052919050565b600082601f83011261163057600080fd5b813567ffffffffffffffff81111561164a5761164a6115d8565b61165d601f8201601f19166020016115ee565b81815284602083860101111561167257600080fd5b816020850160208301376000918101602001919091529392505050565b600080600080600080600060e0888a0312156116aa57600080fd5b8735600681106116b957600080fd5b9650602088810135965060408901359550606089013567ffffffffffffffff808211156116e557600080fd5b818b0191508b601f8301126116f957600080fd5b81358181111561170b5761170b6115d8565b8060051b61171a8582016115ee565b918252838101850191858101908f84111561173457600080fd5b948601945b8386101561175e578535925061174e83611587565b8282529486019490860190611739565b995050505060808b013592508083111561177757600080fd5b50506117858a828b0161161f565b93505060a0880135915060c0880135905092959891949750929550565b6000602082840312156117b457600080fd5b5035919050565b6000602082840312156117cd57600080fd5b813561117f81611587565b634e487b7160e01b600052602160045260246000fd5b6006811061180c57634e487b7160e01b600052602160045260246000fd5b9052565b600081518084526020808501945080840160005b838110156118495781516001600160a01b031687529582019590820190600101611824565b509495945050505050565b60005b8381101561186f578181015183820152602001611857565b838111156108ca5750506000910152565b60008151808452611898816020860160208601611854565b601f01601f19169290920160200192915050565b60006020808301818452808551808352604092508286019150828160051b87010184880160005b8381101561198657888303603f1901855281518051845287810151888501528681015187850152606080820151908501526080808201519085015260a0808201519085015260c0808201519085015260e0808201516101409190611939828801826117ee565b505061010080830151828288015261195383880182611810565b9250505061012080830151925085820381870152506119728183611880565b9689019694505050908601906001016118d3565b509098975050505050505050565b60008060008060008060006101c080898b0312156119b157600080fd5b883597506020890135965060408901359550606089013567ffffffffffffffff8111156119dd57600080fd5b6119e98b828c0161161f565b9550506080890135935060a0890135925089818a011115611a0957600080fd5b5060c08801905092959891949750929550565b600080600080600080600080610100898b031215611a3957600080fd5b611a428961159c565b9750602089013567ffffffffffffffff80821115611a5f57600080fd5b611a6b8c838d0161161f565b985060408b0135915080821115611a8157600080fd5b611a8d8c838d0161161f565b9750611a9b60608c0161159c565b965060808b01359550611ab060a08c0161159c565b9450611abe60c08c0161159c565b935060e08b0135915080821115611ad457600080fd5b50611ae18b828c0161161f565b9150509295985092959890939650565b600060208284031215611b0357600080fd5b8151801515811461117f57600080fd5b634e487b7160e01b600052601160045260246000fd5b60008219821115611b3c57611b3c611b13565b500190565b600181811c90821680611b5557607f821691505b60208210811415610be657634e487b7160e01b600052602260045260246000fd5b600082821015611b8857611b88611b13565b500390565b634e487b7160e01b600052603260045260246000fd5b634e487b7160e01b600052603160045260246000fd5b6000600019821415611bcd57611bcd611b13565b5060010190565b60006101a0820190508782528660208301528560408301528460608301528360808301526101008360a084013760008152979650505050505050565b6001600160a01b038616815260c060208201819052600090611c3490830187611880565b60408381019690965282810360608401526002815261119560f21b602082015260808301949094525060a001520192915050565b6000816000190483118215151615611c8257611c82611b13565b500290565b600082611ca457634e487b7160e01b600052601260045260246000fd5b500690565b60008251611cbb818460208701611854565b9190910192915050565b6001600160a01b038516815260ff84166020820152608060408201819052600090611cf290830185611880565b8281036060840152611d048185611880565b979650505050505050565b60018060a01b0384168152826020820152606060408201526000611d366060830184611880565b9594505050505056fea264697066735822122091a3148160870a4ac4f88c29035efd8ad8464d427be992cd9419141701421c3d64736f6c634300080c0033360894a13ba1a3210667c828492db98dca3e2076cc3735a920a3ca505d382bbc416464726573733a206c6f772d6c6576656c2064656c65676174652063616c6c206661696c6564a26469706673582212207b0e56bad69fcee84ef35024c02defd57d212edadb9fed6bc518433a2577aaa864736f6c634300080c0033",
  "linkReferences": {},
  "deployedLinkReferences": {}
}