{
  "_format": "hh-sol-artifact-1",
  "contractName": "FactoryNFTContract",
  "sourceName": "src/backend/contracts/FactoryNFTContract.sol",
  "abi": [
    {
      "inputs": [],
      "stateMutability": "nonpayable",
      "type": "constructor"
    },
    {
      "anonymous": false,
      "inputs": [
        {
          "indexed": false,
          "internalType": "address",
          "name": "previousAdmin",
          "type": "address"
        },
        {
          "indexed": false,
          "internalType": "address",
          "name": "newAdmin",
          "type": "address"
        }
      ],
      "name": "AdminChanged",
      "type": "event"
    },
    {
      "anonymous": false,
      "inputs": [
        {
          "indexed": true,
          "internalType": "address",
          "name": "beacon",
          "type": "address"
        }
      ],
      "name": "BeaconUpgraded",
      "type": "event"
    },
    {
      "anonymous": false,
      "inputs": [
        {
          "indexed": false,
          "internalType": "uint8",
          "name": "version",
          "type": "uint8"
        }
      ],
      "name": "Initialized",
      "type": "event"
    },
    {
      "anonymous": false,
      "inputs": [
        {
          "indexed": true,
          "internalType": "address",
          "name": "previousOwner",
          "type": "address"
        },
        {
          "indexed": true,
          "internalType": "address",
          "name": "newOwner",
          "type": "address"
        }
      ],
      "name": "OwnershipTransferred",
      "type": "event"
    },
    {
      "anonymous": false,
      "inputs": [
        {
          "indexed": true,
          "internalType": "address",
          "name": "implementation",
          "type": "address"
        }
      ],
      "name": "Upgraded",
      "type": "event"
    },
    {
      "inputs": [
        {
          "internalType": "uint256",
          "name": "_communityId",
          "type": "uint256"
        },
        {
          "internalType": "string",
          "name": "_name",
          "type": "string"
        },
        {
          "internalType": "string",
          "name": "_symbol",
          "type": "string"
        }
      ],
      "name": "deployNFTCollectionContract",
      "outputs": [],
      "stateMutability": "nonpayable",
      "type": "function"
    },
    {
      "inputs": [
        {
          "internalType": "address",
          "name": "_mainContractAddress",
          "type": "address"
        },
        {
          "internalType": "contract IWorldID",
          "name": "_worldId",
          "type": "address"
        }
      ],
      "name": "initialize",
      "outputs": [],
      "stateMutability": "nonpayable",
      "type": "function"
    },
    {
      "inputs": [],
      "name": "owner",
      "outputs": [
        {
          "internalType": "address",
          "name": "",
          "type": "address"
        }
      ],
      "stateMutability": "view",
      "type": "function"
    },
    {
      "inputs": [],
      "name": "proxiableUUID",
      "outputs": [
        {
          "internalType": "bytes32",
          "name": "",
          "type": "bytes32"
        }
      ],
      "stateMutability": "view",
      "type": "function"
    },
    {
      "inputs": [],
      "name": "renounceOwnership",
      "outputs": [],
      "stateMutability": "nonpayable",
      "type": "function"
    },
    {
      "inputs": [
        {
          "internalType": "address",
          "name": "newOwner",
          "type": "address"
        }
      ],
      "name": "transferOwnership",
      "outputs": [],
      "stateMutability": "nonpayable",
      "type": "function"
    },
    {
      "inputs": [
        {
          "internalType": "address",
          "name": "newImplementation",
          "type": "address"
        }
      ],
      "name": "upgradeTo",
      "outputs": [],
      "stateMutability": "nonpayable",
      "type": "function"
    },
    {
      "inputs": [
        {
          "internalType": "address",
          "name": "newImplementation",
          "type": "address"
        },
        {
          "internalType": "bytes",
          "name": "data",
          "type": "bytes"
        }
      ],
      "name": "upgradeToAndCall",
      "outputs": [],
      "stateMutability": "payable",
      "type": "function"
    }
  ],
  "bytecode": "0x60a06040523060805234801561001457600080fd5b5061001d610022565b6100e2565b600054610100900460ff161561008e5760405162461bcd60e51b815260206004820152602760248201527f496e697469616c697a61626c653a20636f6e747261637420697320696e697469604482015266616c697a696e6760c81b606482015260840160405180910390fd5b60005460ff90811610156100e0576000805460ff191660ff9081179091556040519081527f7f26b83ff96e1f2b6a682f133852f6798a09c465da95921460cefb38474024989060200160405180910390a15b565b6080516152b3610119600039600081816101af015281816101fb015281816103fa0152818161043d01526104d901526152b36000f3fe608060405260043610620000855760003560e01c8063715018a61162000054578063715018a614620001185780638da5cb5b1462000130578063d6bbb102146200015a578063f2fde38b146200017f57600080fd5b80633659cfe6146200008a578063485cc95514620000b15780634f1ef28614620000d657806352d1902d14620000ed575b600080fd5b3480156200009757600080fd5b50620000af620000a936600462000e0a565b620001a4565b005b348015620000be57600080fd5b50620000af620000d036600462000e2a565b62000299565b620000af620000e736600462000efb565b620003ef565b348015620000fa57600080fd5b5062000105620004cc565b6040519081526020015b60405180910390f35b3480156200012557600080fd5b50620000af62000582565b3480156200013d57600080fd5b506033546040516001600160a01b0390911681526020016200010f565b3480156200016757600080fd5b50620000af6200017936600462000f89565b6200059a565b3480156200018c57600080fd5b50620000af6200019e36600462000e0a565b62000853565b306001600160a01b037f0000000000000000000000000000000000000000000000000000000000000000161415620001f95760405162461bcd60e51b8152600401620001f09062000ffd565b60405180910390fd5b7f00000000000000000000000000000000000000000000000000000000000000006001600160a01b03166200024460008051602062005237833981519152546001600160a01b031690565b6001600160a01b0316146200026d5760405162461bcd60e51b8152600401620001f09062001049565b6200027881620008cf565b604080516000808252602082019092526200029691839190620008d9565b50565b600054610100900460ff1615808015620002ba5750600054600160ff909116105b80620002d65750303b158015620002d6575060005460ff166001145b6200033b5760405162461bcd60e51b815260206004820152602e60248201527f496e697469616c697a61626c653a20636f6e747261637420697320616c72656160448201526d191e481a5b9a5d1a585b1a5e995960921b6064820152608401620001f0565b6000805460ff1916600117905580156200035f576000805461ff0019166101001790555b6200036962000a51565b6200037362000a85565b60c980546001600160a01b038086166001600160a01b03199283161790925560cb8054928516929091169190911790558015620003ea576000805461ff0019169055604051600181527f7f26b83ff96e1f2b6a682f133852f6798a09c465da95921460cefb38474024989060200160405180910390a15b505050565b306001600160a01b037f00000000000000000000000000000000000000000000000000000000000000001614156200043b5760405162461bcd60e51b8152600401620001f09062000ffd565b7f00000000000000000000000000000000000000000000000000000000000000006001600160a01b03166200048660008051602062005237833981519152546001600160a01b031690565b6001600160a01b031614620004af5760405162461bcd60e51b8152600401620001f09062001049565b620004ba82620008cf565b620004c882826001620008d9565b5050565b6000306001600160a01b037f000000000000000000000000000000000000000000000000000000000000000016146200056e5760405162461bcd60e51b815260206004820152603860248201527f555550535570677261646561626c653a206d757374206e6f742062652063616c60448201527f6c6564207468726f7567682064656c656761746563616c6c00000000000000006064820152608401620001f0565b506000805160206200523783398151915290565b6200058c62000aaf565b62000598600062000b0b565b565b600382511015620006065760405162461bcd60e51b815260206004820152602f60248201527f436f6c6c656374696f6e206e616d652073686f756c64206265206c6f6e67657260448201526e207468616e20322073796d626f6c7360881b6064820152608401620001f0565b60038151101580156200061b57506005815111155b620006735760405162461bcd60e51b815260206004820152602160248201527f53796d626f6c206c656e6774682073686f756c6420626520332d3520636861726044820152607360f81b6064820152608401620001f0565b60c954604051635b25bfbb60e11b8152600481018590526000916001600160a01b03169063b64b7f76906024016040805180830381865afa158015620006bd573d6000803e3d6000fd5b505050506040513d601f19601f82011682018060405250810190620006e39190620010ab565b5090508015620007425760405162461bcd60e51b815260206004820152602360248201527f436f6d6d756e69747920616c72656164792068617665204e465420436f6e74726044820152621858dd60ea1b6064820152608401620001f0565b60c95460cb546040516000926001600160a01b039081169287928792339216906200076d9062000de6565b6200077d95949392919062001140565b604051809103906000f0801580156200079a573d6000803e3d6000fd5b5060ca80546001810182556000919091527f42d72674974f694b5f5159593243114d38a5c39c89d6b62fee061ff523240ee10180546001600160a01b0319166001600160a01b0383811691821790925560c95460405163e00f786560e01b8152600481018a9052602481019290925292935091169063e00f786590604401600060405180830381600087803b1580156200083357600080fd5b505af115801562000848573d6000803e3d6000fd5b505050505050505050565b6200085d62000aaf565b6001600160a01b038116620008c45760405162461bcd60e51b815260206004820152602660248201527f4f776e61626c653a206e6577206f776e657220697320746865207a65726f206160448201526564647265737360d01b6064820152608401620001f0565b620002968162000b0b565b6200029662000aaf565b7f4910fdfa16fed3260ed0e7147f7cc6da11a60208b5b9406d12a635614ffd91435460ff16156200090f57620003ea8362000b5d565b826001600160a01b03166352d1902d6040518163ffffffff1660e01b8152600401602060405180830381865afa9250505080156200096c575060408051601f3d908101601f19168201909252620009699181019062001193565b60015b620009d15760405162461bcd60e51b815260206004820152602e60248201527f45524331393637557067726164653a206e657720696d706c656d656e7461746960448201526d6f6e206973206e6f74205555505360901b6064820152608401620001f0565b60008051602062005237833981519152811462000a435760405162461bcd60e51b815260206004820152602960248201527f45524331393637557067726164653a20756e737570706f727465642070726f786044820152681a58589b195555525160ba1b6064820152608401620001f0565b50620003ea83838362000bfc565b600054610100900460ff1662000a7b5760405162461bcd60e51b8152600401620001f090620011ad565b6200059862000c2d565b600054610100900460ff16620005985760405162461bcd60e51b8152600401620001f090620011ad565b6033546001600160a01b03163314620005985760405162461bcd60e51b815260206004820181905260248201527f4f776e61626c653a2063616c6c6572206973206e6f7420746865206f776e65726044820152606401620001f0565b603380546001600160a01b038381166001600160a01b0319831681179093556040519116919082907f8be0079c531659141344cd1fd0a4f28419497f9722a3daafe3b4186f6b6457e090600090a35050565b6001600160a01b0381163b62000bcc5760405162461bcd60e51b815260206004820152602d60248201527f455243313936373a206e657720696d706c656d656e746174696f6e206973206e60448201526c1bdd08184818dbdb9d1c9858dd609a1b6064820152608401620001f0565b6000805160206200523783398151915280546001600160a01b0319166001600160a01b0392909216919091179055565b62000c078362000c62565b60008251118062000c155750805b15620003ea5762000c27838362000ca4565b50505050565b600054610100900460ff1662000c575760405162461bcd60e51b8152600401620001f090620011ad565b620005983362000b0b565b62000c6d8162000b5d565b6040516001600160a01b038216907fbc7cd75a20ee27fd9adebab32041f755214dbc6bffa90cc0225b39da2e5c2d3b90600090a250565b60606001600160a01b0383163b62000d0e5760405162461bcd60e51b815260206004820152602660248201527f416464726573733a2064656c65676174652063616c6c20746f206e6f6e2d636f6044820152651b9d1c9858dd60d21b6064820152608401620001f0565b600080846001600160a01b03168460405162000d2b9190620011f8565b600060405180830381855af49150503d806000811462000d68576040519150601f19603f3d011682016040523d82523d6000602084013e62000d6d565b606091505b509150915062000d988282604051806060016040528060278152602001620052576027913962000da1565b95945050505050565b6060831562000db257508162000ddf565b82511562000dc35782518084602001fd5b8160405162461bcd60e51b8152600401620001f0919062001216565b9392505050565b61400b806200122c83390190565b6001600160a01b03811681146200029657600080fd5b60006020828403121562000e1d57600080fd5b813562000ddf8162000df4565b6000806040838503121562000e3e57600080fd5b823562000e4b8162000df4565b9150602083013562000e5d8162000df4565b809150509250929050565b634e487b7160e01b600052604160045260246000fd5b600067ffffffffffffffff8084111562000e9c5762000e9c62000e68565b604051601f8501601f19908116603f0116810190828211818310171562000ec75762000ec762000e68565b8160405280935085815286868601111562000ee157600080fd5b858560208301376000602087830101525050509392505050565b6000806040838503121562000f0f57600080fd5b823562000f1c8162000df4565b9150602083013567ffffffffffffffff81111562000f3957600080fd5b8301601f8101851362000f4b57600080fd5b62000f5c8582356020840162000e7e565b9150509250929050565b600082601f83011262000f7857600080fd5b62000ddf8383356020850162000e7e565b60008060006060848603121562000f9f57600080fd5b83359250602084013567ffffffffffffffff8082111562000fbf57600080fd5b62000fcd8783880162000f66565b9350604086013591508082111562000fe457600080fd5b5062000ff38682870162000f66565b9150509250925092565b6020808252602c908201527f46756e6374696f6e206d7573742062652063616c6c6564207468726f7567682060408201526b19195b1959d85d1958d85b1b60a21b606082015260800190565b6020808252602c908201527f46756e6374696f6e206d7573742062652063616c6c6564207468726f7567682060408201526b6163746976652070726f787960a01b606082015260800190565b80518015158114620010a657600080fd5b919050565b60008060408385031215620010bf57600080fd5b620010ca8362001095565b9150620010da6020840162001095565b90509250929050565b60005b8381101562001100578181015183820152602001620010e6565b8381111562000c275750506000910152565b600081518084526200112c816020860160208601620010e3565b601f01601f19169290920160200192915050565b600060018060a01b03808816835260a060208401526200116460a084018862001112565b838103604085015262001178818862001112565b95821660608501525092909216608090910152509392505050565b600060208284031215620011a657600080fd5b5051919050565b6020808252602b908201527f496e697469616c697a61626c653a20636f6e7472616374206973206e6f74206960408201526a6e697469616c697a696e6760a81b606082015260800190565b600082516200120c818460208701620010e3565b9190910192915050565b60208152600062000ddf60208301846200111256fe60a060405260016080523480156200001657600080fd5b506040516200400b3803806200400b8339810160408190526200003991620003b2565b6040805160208101909152600081526200005381620000dd565b506200005f33620000f6565b6003805460ff60a01b19169055620000778262000148565b83516200008c90600690602087019062000229565b508251620000a290600790602086019062000229565b50600b80546001600160a01b039283166001600160a01b0319918216179091556005805496909216951694909417909355506200049b915050565b8051620000f290600290602084019062000229565b5050565b600380546001600160a01b038381166001600160a01b0319831681179093556040519116919082907f8be0079c531659141344cd1fd0a4f28419497f9722a3daafe3b4186f6b6457e090600090a35050565b62000152620001cb565b6001600160a01b038116620001bd5760405162461bcd60e51b815260206004820152602660248201527f4f776e61626c653a206e6577206f776e657220697320746865207a65726f206160448201526564647265737360d01b60648201526084015b60405180910390fd5b620001c881620000f6565b50565b6003546001600160a01b03163314620002275760405162461bcd60e51b815260206004820181905260248201527f4f776e61626c653a2063616c6c6572206973206e6f7420746865206f776e65726044820152606401620001b4565b565b82805462000237906200045e565b90600052602060002090601f0160209004810192826200025b5760008555620002a6565b82601f106200027657805160ff1916838001178555620002a6565b82800160010185558215620002a6579182015b82811115620002a657825182559160200191906001019062000289565b50620002b4929150620002b8565b5090565b5b80821115620002b45760008155600101620002b9565b6001600160a01b0381168114620001c857600080fd5b634e487b7160e01b600052604160045260246000fd5b600082601f8301126200030d57600080fd5b81516001600160401b03808211156200032a576200032a620002e5565b604051601f8301601f19908116603f01168101908282118183101715620003555762000355620002e5565b816040528381526020925086838588010111156200037257600080fd5b600091505b8382101562000396578582018301518183018401529082019062000377565b83821115620003a85760008385830101525b9695505050505050565b600080600080600060a08688031215620003cb57600080fd5b8551620003d881620002cf565b60208701519095506001600160401b0380821115620003f657600080fd5b6200040489838a01620002fb565b955060408801519150808211156200041b57600080fd5b506200042a88828901620002fb565b93505060608601516200043d81620002cf565b60808701519092506200045081620002cf565b809150509295509295909350565b600181811c908216806200047357607f821691505b602082108114156200049557634e487b7160e01b600052602260045260246000fd5b50919050565b608051613b54620004b7600039600061186d0152613b546000f3fe6080604052600436106101c15760003560e01c80635e7ea74c116100f7578063a22cb46511610095578063f242432a11610064578063f242432a14610543578063f2fde38b14610563578063f944a55f14610583578063fdbda0ec1461059657600080fd5b8063a22cb4651461048d578063bd85b039146104ad578063cb27d43f146104da578063e985e9c5146104fa57600080fd5b806385c9d321116100d157806385c9d321146103ff578063891aaf681461043a5780638da5cb5b1461045057806395d89b411461047857600080fd5b80635e7ea74c146103b5578063715018a6146103d55780638456cb59146103ea57600080fd5b8063360ca3b91161016457806346e635861161013e57806346e63586146103185780634e1273f41461033a5780634f558e79146103675780635c975abb1461039657600080fd5b8063360ca3b9146102c3578063381da488146102e35780633f4ba83a1461030357600080fd5b80630e89341c116101a05780630e89341c1461024b578063156e29f61461026b5780632e17af071461028d5780632eb2c2d6146102a357600080fd5b8062fdd58e146101c657806301ffc9a7146101f957806306fdde0314610229575b600080fd5b3480156101d257600080fd5b506101e66101e1366004612c9d565b6105cb565b6040519081526020015b60405180910390f35b34801561020557600080fd5b50610219610214366004612cdd565b610661565b60405190151581526020016101f0565b34801561023557600080fd5b5061023e6106b3565b6040516101f09190612d52565b34801561025757600080fd5b5061023e610266366004612d65565b610741565b34801561027757600080fd5b5061028b610286366004612d7e565b610807565b005b34801561029957600080fd5b506101e660085481565b3480156102af57600080fd5b5061028b6102be366004612efd565b61097b565b3480156102cf57600080fd5b5061028b6102de366004613014565b6109c7565b3480156102ef57600080fd5b5061028b6102fe366004612d65565b610af0565b34801561030f57600080fd5b5061028b610ba9565b34801561032457600080fd5b5061032d610bbb565b6040516101f09190613175565b34801561034657600080fd5b5061035a61035536600461327f565b610fa5565b6040516101f0919061331e565b34801561037357600080fd5b50610219610382366004612d65565b600090815260046020526040902054151590565b3480156103a257600080fd5b50600354600160a01b900460ff16610219565b3480156103c157600080fd5b5061028b6103d0366004613388565b6110cf565b3480156103e157600080fd5b5061028b611272565b3480156103f657600080fd5b5061028b611284565b34801561040b57600080fd5b5061021961041a3660046133c8565b600d60209081526000928352604080842090915290825290205460ff1681565b34801561044657600080fd5b506101e660095481565b34801561045c57600080fd5b506003546040516001600160a01b0390911681526020016101f0565b34801561048457600080fd5b5061023e611294565b34801561049957600080fd5b5061028b6104a83660046133f4565b6112a1565b3480156104b957600080fd5b506101e66104c8366004612d65565b60009081526004602052604090205490565b3480156104e657600080fd5b5061028b6104f5366004613430565b6112b0565b34801561050657600080fd5b506102196105153660046134dc565b6001600160a01b03918216600090815260016020908152604080832093909416825291909152205460ff1690565b34801561054f57600080fd5b5061028b61055e366004613506565b611538565b34801561056f57600080fd5b5061028b61057e36600461356b565b61157d565b61028b610591366004613586565b6115f6565b3480156105a257600080fd5b506105b66105b1366004612d65565b611b60565b6040516101f099989796959493929190613617565b60006001600160a01b03831661063b5760405162461bcd60e51b815260206004820152602a60248201527f455243313135353a2061646472657373207a65726f206973206e6f742061207660448201526930b634b21037bbb732b960b11b60648201526084015b60405180910390fd5b506000908152602081815260408083206001600160a01b03949094168352929052205490565b60006001600160e01b03198216636cdb3d1360e11b148061069257506001600160e01b031982166303a24d0760e21b145b806106ad57506301ffc9a760e01b6001600160e01b03198316145b92915050565b600680546106c0906136b0565b80601f01602080910402602001604051908101604052809291908181526020018280546106ec906136b0565b80156107395780601f1061070e57610100808354040283529160200191610739565b820191906000526020600020905b81548152906001019060200180831161071c57829003601f168201915b505050505081565b60606000600a610752600185613701565b8154811061076257610762613718565b90600052602060002090600f02019050806001018054610781906136b0565b80601f01602080910402602001604051908101604052809291908181526020018280546107ad906136b0565b80156107fa5780601f106107cf576101008083540402835291602001916107fa565b820191906000526020600020905b8154815290600101906020018083116107dd57829003601f168201915b5050505050915050919050565b61080f611ecc565b600081116108535760405162461bcd60e51b815260206004820152601160248201527015dc9bdb99c81b5a5b9d08185b5bdd5b9d607a1b6044820152606401610632565b6001600160a01b0383166108a95760405162461bcd60e51b815260206004820181905260248201527f57726f6e672064657374696e6174696f6e2077616c6c657420416464726573736044820152606401610632565b6000600a6108b684611f26565b815481106108c6576108c6613718565b90600052602060002090600f0201905060008160050154111561093f578181600601546108f3919061372e565b8160050154101561093f5760405162461bcd60e51b8152602060048201526016602482015275139bdd08195b9bdd59da081cdd5c1c1b1e481b19599d60521b6044820152606401610632565b81816006016000828254610953919061372e565b9250508190555061097584848460405180602001604052806000815250611f83565b50505050565b6001600160a01b03851633148061099757506109978533610515565b6109b35760405162461bcd60e51b815260040161063290613746565b6109c085858585856120a6565b5050505050565b6109cf611ecc565b6000600a6109dc88611f26565b815481106109ec576109ec613718565b600091825260208220600f9091020191506004876005811115610a1157610a116130aa565b1415610a2857610a25620f423f6001612291565b90505b6040518060c00160405280878152602001868152602001828152602001886005811115610a5757610a576130aa565b81526020808201879052604091820186905282516009860190815590830151600a86015590820151600b8501556060820151600c8501805460ff19166001836005811115610aa757610aa76130aa565b021790555060808201518051610ac7916004840191602090910190612b4c565b5060a08201518051610ae3916005840191602090910190612bb1565b5050505050505050505050565b610af8611ecc565b6000600a610b0583611f26565b81548110610b1557610b15613718565b90600052602060002090600f02019050610b2d612300565b8051600983019081556020820151600a8401556040820151600b8401556060820151600c8401805460ff19166001836005811115610b6d57610b6d6130aa565b021790555060808201518051610b8d916004840191602090910190612b4c565b5060a082015180516109c0916005840191602090910190612bb1565b610bb1611ecc565b610bb9612386565b565b6060600a805480602002602001604051908101604052809291908181526020016000905b82821015610f9c57838290600052602060002090600f020160405180610120016040529081600082018054610c13906136b0565b80601f0160208091040260200160405190810160405280929190818152602001828054610c3f906136b0565b8015610c8c5780601f10610c6157610100808354040283529160200191610c8c565b820191906000526020600020905b815481529060010190602001808311610c6f57829003601f168201915b50505050508152602001600182018054610ca5906136b0565b80601f0160208091040260200160405190810160405280929190818152602001828054610cd1906136b0565b8015610d1e5780601f10610cf357610100808354040283529160200191610d1e565b820191906000526020600020905b815481529060010190602001808311610d0157829003601f168201915b50505050508152602001600282018054610d37906136b0565b80601f0160208091040260200160405190810160405280929190818152602001828054610d63906136b0565b8015610db05780601f10610d8557610100808354040283529160200191610db0565b820191906000526020600020905b815481529060010190602001808311610d9357829003601f168201915b5050505050815260200160038201548152602001600482015481526020016005820154815260200160068201548152602001600782016040518060400160405290816000820160009054906101000a90046001600160a01b03166001600160a01b03166001600160a01b031681526020016001820154815250508152602001600982016040518060c00160405290816000820154815260200160018201548152602001600282015481526020016003820160009054906101000a900460ff166005811115610e8057610e806130aa565b6005811115610e9157610e916130aa565b815260200160048201805480602002602001604051908101604052809291908181526020018280548015610eee57602002820191906000526020600020905b81546001600160a01b03168152600190910190602001808311610ed0575b50505050508152602001600582018054610f07906136b0565b80601f0160208091040260200160405190810160405280929190818152602001828054610f33906136b0565b8015610f805780601f10610f5557610100808354040283529160200191610f80565b820191906000526020600020905b815481529060010190602001808311610f6357829003601f168201915b5050505050815250508152505081526020019060010190610bdf565b50505050905090565b6060815183511461100a5760405162461bcd60e51b815260206004820152602960248201527f455243313135353a206163636f756e747320616e6420696473206c656e677468604482015268040dad2e6dac2e8c6d60bb1b6064820152608401610632565b6000835167ffffffffffffffff81111561102657611026612db1565b60405190808252806020026020018201604052801561104f578160200160208202803683370190505b50905060005b84518110156110c75761109a85828151811061107357611073613718565b602002602001015185838151811061108d5761108d613718565b60200260200101516105cb565b8282815181106110ac576110ac613718565b60209081029190910101526110c081613795565b9050611055565b509392505050565b6110d7611ecc565b6000600a6110e486611f26565b815481106110f4576110f4613718565b60009182526020909120600f909102019050821561116a57806006015483101561116a5760405162461bcd60e51b815260206004820152602160248201527f537570706c79206973206c6573732074686174206d696e74656420616d6f756e6044820152601d60fa1b6064820152608401610632565b81516001600160a01b0316156112325760008260200151116111ce5760405162461bcd60e51b815260206004820152601e60248201527f506c656173652070726f7669646520726f79616c74792070657263656e7400006044820152606401610632565b605a826020015111156112325760405162461bcd60e51b815260206004820152602660248201527f526f79616c74792070657263656e742063616e2774206265206d6f7265207468604482015265616e2039302560d01b6064820152608401610632565b6004810193909355600583019190915580516007830180546001600160a01b0319166001600160a01b039092169190911790556020015160089091015550565b61127a611ecc565b610bb960006123db565b61128c611ecc565b610bb961242d565b600780546106c0906136b0565b6112ac338383612470565b5050565b6112b8611ecc565b60008651116112fa5760405162461bcd60e51b815260206004820152600e60248201526d57726f6e67206a736f6e2055524960901b6044820152606401610632565b600085511161133d5760405162461bcd60e51b815260206004820152600f60248201526e57726f6e67206d656469612055524960881b6044820152606401610632565b80516001600160a01b0316156113c157600081602001511180156113665750605a816020015111155b6113c15760405162461bcd60e51b815260206004820152602660248201527f506c656173652070726f7669646520636f727265637420726f79616c74792070604482015265195c98d95b9d60d21b6064820152608401610632565b6001600860008282546113d4919061372e565b92505081905550600a604051806101200160405280868152602001888152602001878152602001600854815260200185815260200184815260200160008152602001838152602001611424612300565b905281546001810183556000928352602092839020825180519394600f909302909101926114559284920190612bb1565b50602082810151805161146e9260018501920190612bb1565b506040820151805161148a916002840191602090910190612bb1565b5060608281015160038301556080830151600483015560a083015160058084019190915560c0840151600684015560e084015180516007850180546001600160a01b0319166001600160a01b03909216919091179055602090810151600885015561010085015180516009860190815591810151600a8601556040810151600b86015592830151600c8501805492939192909160ff19909116906001908490811115610aa757610aa76130aa565b6001600160a01b03851633148061155457506115548533610515565b6115705760405162461bcd60e51b815260040161063290613746565b6109c08585858585612551565b611585611ecc565b6001600160a01b0381166115ea5760405162461bcd60e51b815260206004820152602660248201527f4f776e61626c653a206e6577206f776e657220697320746865207a65726f206160448201526564647265737360d01b6064820152608401610632565b6115f3816123db565b50565b6115fe612689565b6000600a61160b89611f26565b8154811061161b5761161b613718565b600091825260208083208b8452600d82526040808520338652909252922054600f909102909101915060ff161561168d5760405162461bcd60e51b8152602060048201526016602482015275165bdd48185b1c9958591e481b5a5b9d19590813919560521b6044820152606401610632565b600087116116d15760405162461bcd60e51b815260206004820152601160248201527015dc9bdb99c81b5a5b9d08185b5bdd5b9d607a1b6044820152606401610632565b600581015415611737578681600601546116eb919061372e565b816005015410156117375760405162461bcd60e51b8152602060048201526016602482015275139bdd08195b9bdd59da081cdd5c1c1b1e481b19599d60521b6044820152606401610632565b6004810154156117a257600081600401548861175391906137b0565b90508034101561179c5760405162461bcd60e51b815260206004820152601460248201527315dc9bdb99c81c185e5b595b9d08185b5bdd5b9d60621b6044820152606401610632565b506117f2565b866001146117f25760405162461bcd60e51b815260206004820152601e60248201527f596f752063616e2774206d696e74206d6f7265207468616e2031204e465400006044820152606401610632565b6000816009016005018054611806906136b0565b90501115611939576000838152600c602052604090205460ff161561183e57604051632ec8265960e11b815260040160405180910390fd5b600b546040516001600160601b03193360601b1660208201526001600160a01b0390911690633bc778e39086907f0000000000000000000000000000000000000000000000000000000000000000906118a9906034015b6040516020818303038152906040526126d6565b6040516001600160601b03193060601b16602082015288906118cd90603401611895565b886040518763ffffffff1660e01b81526004016118ef969594939291906137cf565b60006040518083038186803b15801561190757600080fd5b505afa15801561191b573d6000803e3d6000fd5b5050506000848152600c60205260409020805460ff19166001179055505b6004600c82015460ff166005811115611954576119546130aa565b14156119a057600b81015486146119a05760405162461bcd60e51b815260206004820152601060248201526f57726f6e67204576656e7420436f646560801b6044820152606401610632565b60078101546001600160a01b031615611a785760088101546000906064906119c890346137b0565b6119d29190613821565b60078301546040519192506000916001600160a01b039091169083908381818185875af1925050503d8060008114611a26576040519150601f19603f3d011682016040523d82523d6000602084013e611a2b565b606091505b5050905080611a755760405162461bcd60e51b81526020600482015260166024820152754661696c656420746f2073656e6420726f79616c747960501b6044820152606401610632565b50505b6000888152600d602090815260408083203384529091528120805460ff19166001179055600682018054899290611ab090849061372e565b925050819055508660096000828254611ac9919061372e565b92505081905550611aeb33898960405180602001604052806000815250611f83565b6005546040516313c977bb60e21b81526001600160a01b0390911690634f25deec90611b2390339089908e908e903490600401613835565b600060405180830381600087803b158015611b3d57600080fd5b505af1158015611b51573d6000803e3d6000fd5b50505050505050505050505050565b600a8181548110611b7057600080fd5b90600052602060002090600f0201600091509050806000018054611b93906136b0565b80601f0160208091040260200160405190810160405280929190818152602001828054611bbf906136b0565b8015611c0c5780601f10611be157610100808354040283529160200191611c0c565b820191906000526020600020905b815481529060010190602001808311611bef57829003601f168201915b505050505090806001018054611c21906136b0565b80601f0160208091040260200160405190810160405280929190818152602001828054611c4d906136b0565b8015611c9a5780601f10611c6f57610100808354040283529160200191611c9a565b820191906000526020600020905b815481529060010190602001808311611c7d57829003601f168201915b505050505090806002018054611caf906136b0565b80601f0160208091040260200160405190810160405280929190818152602001828054611cdb906136b0565b8015611d285780601f10611cfd57610100808354040283529160200191611d28565b820191906000526020600020905b815481529060010190602001808311611d0b57829003601f168201915b5050505060038301546004840154600580860154600687015460408051808201825260078a01546001600160a01b0316815260088a0154602080830191909152825160c08101845260098c0180548252600a8d015492820192909252600b8c015493810193909352600c8b0154999a979996985093969295909492939192606084019160ff1690811115611dbe57611dbe6130aa565b6005811115611dcf57611dcf6130aa565b815260200160048201805480602002602001604051908101604052809291908181526020018280548015611e2c57602002820191906000526020600020905b81546001600160a01b03168152600190910190602001808311611e0e575b50505050508152602001600582018054611e45906136b0565b80601f0160208091040260200160405190810160405280929190818152602001828054611e71906136b0565b8015611ebe5780601f10611e9357610100808354040283529160200191611ebe565b820191906000526020600020905b815481529060010190602001808311611ea157829003601f168201915b505050505081525050905089565b6003546001600160a01b03163314610bb95760405162461bcd60e51b815260206004820181905260248201527f4f776e61626c653a2063616c6c6572206973206e6f7420746865206f776e65726044820152606401610632565b60008082118015611f3957506008548211155b611f785760405162461bcd60e51b815260206004820152601060248201526f2bb937b7339021b7b63632b1ba34b7b760811b6044820152606401610632565b6106ad600183613701565b6001600160a01b038416611fe35760405162461bcd60e51b815260206004820152602160248201527f455243313135353a206d696e7420746f20746865207a65726f206164647265736044820152607360f81b6064820152608401610632565b336000611fef8561270b565b90506000611ffc8561270b565b905061200d83600089858589612756565b6000868152602081815260408083206001600160a01b038b1684529091528120805487929061203d90849061372e565b909155505060408051878152602081018790526001600160a01b03808a1692600092918716917fc3d58168c5ae7397731d063d5bbf3d657854427343f4c083240f7aacaa2d0f62910160405180910390a461209d8360008989898961276c565b50505050505050565b81518351146121085760405162461bcd60e51b815260206004820152602860248201527f455243313135353a2069647320616e6420616d6f756e7473206c656e677468206044820152670dad2e6dac2e8c6d60c31b6064820152608401610632565b6001600160a01b03841661212e5760405162461bcd60e51b81526004016106329061388e565b3361213d818787878787612756565b60005b845181101561222357600085828151811061215d5761215d613718565b60200260200101519050600085838151811061217b5761217b613718565b602090810291909101810151600084815280835260408082206001600160a01b038e1683529093529190912054909150818110156121cb5760405162461bcd60e51b8152600401610632906138d3565b6000838152602081815260408083206001600160a01b038e8116855292528083208585039055908b1682528120805484929061220890849061372e565b925050819055505050508061221c90613795565b9050612140565b50846001600160a01b0316866001600160a01b0316826001600160a01b03167f4a39dc06d4c0dbc64b70af90fd698a233a518aa5d07e595d983b8c0526c8f7fb878760405161227392919061391d565b60405180910390a46122898187878787876128c8565b505050505050565b6040516001600160f81b031960f883901b1660208201526001600160601b03193360601b1660218201524460358201524260558201526001607582015260009083906095016040516020818303038152906040528051906020012060001c6122f9919061394b565b9392505050565b612308612c25565b6040518060c001604052806000815260200160008152602001600081526020016000600581111561233b5761233b6130aa565b8152602001600060405190808252806020026020018201604052801561236b578160200160208202803683370190505b50815260408051602081810190925260008152910152919050565b61238e612983565b6003805460ff60a01b191690557f5db9ee0a495bf2e6ff9c91a7834c1ba4fdd244a5e8aa4e537bd38aeae4b073aa335b6040516001600160a01b03909116815260200160405180910390a1565b600380546001600160a01b038381166001600160a01b0319831681179093556040519116919082907f8be0079c531659141344cd1fd0a4f28419497f9722a3daafe3b4186f6b6457e090600090a35050565b612435612689565b6003805460ff60a01b1916600160a01b1790557f62e78cea01bee320cd4e420270b5ea74000d11b0c9f74754ebdbfc544b05a2586123be3390565b816001600160a01b0316836001600160a01b031614156124e45760405162461bcd60e51b815260206004820152602960248201527f455243313135353a2073657474696e6720617070726f76616c20737461747573604482015268103337b91039b2b63360b91b6064820152608401610632565b6001600160a01b03838116600081815260016020908152604080832094871680845294825291829020805460ff191686151590811790915591519182527f17307eab39ab6107e8899845ad3d59bd9653f200f220920489ca2b5937696c31910160405180910390a3505050565b6001600160a01b0384166125775760405162461bcd60e51b81526004016106329061388e565b3360006125838561270b565b905060006125908561270b565b90506125a0838989858589612756565b6000868152602081815260408083206001600160a01b038c168452909152902054858110156125e15760405162461bcd60e51b8152600401610632906138d3565b6000878152602081815260408083206001600160a01b038d8116855292528083208985039055908a1682528120805488929061261e90849061372e565b909155505060408051888152602081018890526001600160a01b03808b16928c821692918816917fc3d58168c5ae7397731d063d5bbf3d657854427343f4c083240f7aacaa2d0f62910160405180910390a461267e848a8a8a8a8a61276c565b505050505050505050565b600354600160a01b900460ff1615610bb95760405162461bcd60e51b815260206004820152601060248201526f14185d5cd8589b194e881c185d5cd95960821b6044820152606401610632565b60006008826040516020016126eb919061395f565b60408051601f198184030181529190528051602090910120901c92915050565b6040805160018082528183019092526060916000919060208083019080368337019050509050828160008151811061274557612745613718565b602090810291909101015292915050565b61275e612689565b6122898686868686866129d3565b6001600160a01b0384163b156122895760405163f23a6e6160e01b81526001600160a01b0385169063f23a6e61906127b0908990899088908890889060040161397b565b6020604051808303816000875af19250505080156127eb575060408051601f3d908101601f191682019092526127e8918101906139b5565b60015b612898576127f76139d2565b806308c379a01415612831575061280c6139ee565b806128175750612833565b8060405162461bcd60e51b81526004016106329190612d52565b505b60405162461bcd60e51b815260206004820152603460248201527f455243313135353a207472616e7366657220746f206e6f6e20455243313135356044820152732932b1b2b4bb32b91034b6b83632b6b2b73a32b960611b6064820152608401610632565b6001600160e01b0319811663f23a6e6160e01b1461209d5760405162461bcd60e51b815260040161063290613a78565b6001600160a01b0384163b156122895760405163bc197c8160e01b81526001600160a01b0385169063bc197c819061290c9089908990889088908890600401613ac0565b6020604051808303816000875af1925050508015612947575060408051601f3d908101601f19168201909252612944918101906139b5565b60015b612953576127f76139d2565b6001600160e01b0319811663bc197c8160e01b1461209d5760405162461bcd60e51b815260040161063290613a78565b600354600160a01b900460ff16610bb95760405162461bcd60e51b815260206004820152601460248201527314185d5cd8589b194e881b9bdd081c185d5cd95960621b6044820152606401610632565b6001600160a01b038516612a5a5760005b8351811015612a58578281815181106129ff576129ff613718565b602002602001015160046000868481518110612a1d57612a1d613718565b602002602001015181526020019081526020016000206000828254612a42919061372e565b90915550612a51905081613795565b90506129e4565b505b6001600160a01b0384166122895760005b835181101561209d576000848281518110612a8857612a88613718565b602002602001015190506000848381518110612aa657612aa6613718565b6020026020010151905060006004600084815260200190815260200160002054905081811015612b295760405162461bcd60e51b815260206004820152602860248201527f455243313135353a206275726e20616d6f756e74206578636565647320746f74604482015267616c537570706c7960c01b6064820152608401610632565b60009283526004602052604090922091039055612b4581613795565b9050612a6b565b828054828255906000526020600020908101928215612ba1579160200282015b82811115612ba157825182546001600160a01b0319166001600160a01b03909116178255602090920191600190910190612b6c565b50612bad929150612c6c565b5090565b828054612bbd906136b0565b90600052602060002090601f016020900481019282612bdf5760008555612ba1565b82601f10612bf857805160ff1916838001178555612ba1565b82800160010185558215612ba1579182015b82811115612ba1578251825591602001919060010190612c0a565b6040518060c0016040528060008152602001600081526020016000815260200160006005811115612c5857612c586130aa565b815260200160608152602001606081525090565b5b80821115612bad5760008155600101612c6d565b80356001600160a01b0381168114612c9857600080fd5b919050565b60008060408385031215612cb057600080fd5b612cb983612c81565b946020939093013593505050565b6001600160e01b0319811681146115f357600080fd5b600060208284031215612cef57600080fd5b81356122f981612cc7565b60005b83811015612d15578181015183820152602001612cfd565b838111156109755750506000910152565b60008151808452612d3e816020860160208601612cfa565b601f01601f19169290920160200192915050565b6020815260006122f96020830184612d26565b600060208284031215612d7757600080fd5b5035919050565b600080600060608486031215612d9357600080fd5b612d9c84612c81565b95602085013595506040909401359392505050565b634e487b7160e01b600052604160045260246000fd5b601f8201601f1916810167ffffffffffffffff81118282101715612ded57612ded612db1565b6040525050565b600067ffffffffffffffff821115612e0e57612e0e612db1565b5060051b60200190565b600082601f830112612e2957600080fd5b81356020612e3682612df4565b604051612e438282612dc7565b83815260059390931b8501820192828101915086841115612e6357600080fd5b8286015b84811015612e7e5780358352918301918301612e67565b509695505050505050565b600082601f830112612e9a57600080fd5b813567ffffffffffffffff811115612eb457612eb4612db1565b604051612ecb601f8301601f191660200182612dc7565b818152846020838601011115612ee057600080fd5b816020850160208301376000918101602001919091529392505050565b600080600080600060a08688031215612f1557600080fd5b612f1e86612c81565b9450612f2c60208701612c81565b9350604086013567ffffffffffffffff80821115612f4957600080fd5b612f5589838a01612e18565b94506060880135915080821115612f6b57600080fd5b612f7789838a01612e18565b93506080880135915080821115612f8d57600080fd5b50612f9a88828901612e89565b9150509295509295909350565b600082601f830112612fb857600080fd5b81356020612fc582612df4565b604051612fd28282612dc7565b83815260059390931b8501820192828101915086841115612ff257600080fd5b8286015b84811015612e7e5761300781612c81565b8352918301918301612ff6565b60008060008060008060c0878903121561302d57600080fd5b8635955060208701356006811061304357600080fd5b94506040870135935060608701359250608087013567ffffffffffffffff8082111561306e57600080fd5b61307a8a838b01612fa7565b935060a089013591508082111561309057600080fd5b5061309d89828a01612e89565b9150509295509295509295565b634e487b7160e01b600052602160045260246000fd5b600060c0830182518452602080840151818601526040840151604086015260608401516006811061310157634e487b7160e01b600052602160045260246000fd5b606086015260808481015160c09187019190915280519283905281019160009060e08701905b808310156131505784516001600160a01b03168252938301936001929092019190830190613127565b5060a0860151935086810360a088015261316a8185612d26565b979650505050505050565b60006020808301818452808551808352604092508286019150828160051b87010184880160005b8381101561327157603f19898403018552815161014081518186526131c382870182612d26565b915050888201518582038a8701526131db8282612d26565b91505087820151858203898701526131f38282612d26565b606084810151908801526080808501519088015260a0808501519088015260c0808501519088015260e08085015180516001600160a01b0316828a015260208101516101008a015291935091505050610100820151915084810361012086015261325d81836130c0565b96890196945050509086019060010161319c565b509098975050505050505050565b6000806040838503121561329257600080fd5b823567ffffffffffffffff808211156132aa57600080fd5b6132b686838701612fa7565b935060208501359150808211156132cc57600080fd5b506132d985828601612e18565b9150509250929050565b600081518084526020808501945080840160005b83811015613313578151875295820195908201906001016132f7565b509495945050505050565b6020815260006122f960208301846132e3565b60006040828403121561334357600080fd5b6040516040810181811067ffffffffffffffff8211171561336657613366612db1565b60405290508061337583612c81565b8152602083013560208201525092915050565b60008060008060a0858703121561339e57600080fd5b8435935060208501359250604085013591506133bd8660608701613331565b905092959194509250565b600080604083850312156133db57600080fd5b823591506133eb60208401612c81565b90509250929050565b6000806040838503121561340757600080fd5b61341083612c81565b91506020830135801515811461342557600080fd5b809150509250929050565b60008060008060008060e0878903121561344957600080fd5b863567ffffffffffffffff8082111561346157600080fd5b61346d8a838b01612e89565b9750602089013591508082111561348357600080fd5b61348f8a838b01612e89565b965060408901359150808211156134a557600080fd5b506134b289828a01612e89565b94505060608701359250608087013591506134d08860a08901613331565b90509295509295509295565b600080604083850312156134ef57600080fd5b6134f883612c81565b91506133eb60208401612c81565b600080600080600060a0868803121561351e57600080fd5b61352786612c81565b945061353560208701612c81565b93506040860135925060608601359150608086013567ffffffffffffffff81111561355f57600080fd5b612f9a88828901612e89565b60006020828403121561357d57600080fd5b6122f982612c81565b6000806000806000806000806101e0808a8c0312156135a457600080fd5b8935985060208a0135975060408a0135965060608a0135955060808a013567ffffffffffffffff8111156135d757600080fd5b6135e38c828d01612e89565b95505060a08a0135935060c08a013592508a818b01111561360357600080fd5b5060e0890190509295985092959890939650565b600061014080835261362b8184018d612d26565b9050828103602084015261363f818c612d26565b90508281036040840152613653818b612d26565b90508860608401528760808401528660a08401528560c084015261368d60e084018680516001600160a01b03168252602090810151910152565b8281036101208401526136a081856130c0565b9c9b505050505050505050505050565b600181811c908216806136c457607f821691505b602082108114156136e557634e487b7160e01b600052602260045260246000fd5b50919050565b634e487b7160e01b600052601160045260246000fd5b600082821015613713576137136136eb565b500390565b634e487b7160e01b600052603260045260246000fd5b60008219821115613741576137416136eb565b500190565b6020808252602f908201527f455243313135353a2063616c6c6572206973206e6f7420746f6b656e206f776e60408201526e195c881b9bdc88185c1c1c9bdd9959608a1b606082015260800190565b60006000198214156137a9576137a96136eb565b5060010190565b60008160001904831182151516156137ca576137ca6136eb565b500290565b60006101a0820190508782528660208301528560408301528460608301528360808301526101008360a084013760008152979650505050505050565b634e487b7160e01b600052601260045260246000fd5b6000826138305761383061380b565b500490565b6001600160a01b038616815260c06020820181905260009061385990830187612d26565b6040838101969096528281036060840152600381526213919560ea1b602082015260808301949094525060a001520192915050565b60208082526025908201527f455243313135353a207472616e7366657220746f20746865207a65726f206164604082015264647265737360d81b606082015260800190565b6020808252602a908201527f455243313135353a20696e73756666696369656e742062616c616e636520666f60408201526939103a3930b739b332b960b11b606082015260800190565b60408152600061393060408301856132e3565b828103602084015261394281856132e3565b95945050505050565b60008261395a5761395a61380b565b500690565b60008251613971818460208701612cfa565b9190910192915050565b6001600160a01b03868116825285166020820152604081018490526060810183905260a06080820181905260009061316a90830184612d26565b6000602082840312156139c757600080fd5b81516122f981612cc7565b600060033d11156139eb5760046000803e5060005160e01c5b90565b600060443d10156139fc5790565b6040516003193d81016004833e81513d67ffffffffffffffff8160248401118184111715613a2c57505050505090565b8285019150815181811115613a445750505050505090565b843d8701016020828501011115613a5e5750505050505090565b613a6d60208286010187612dc7565b509095945050505050565b60208082526028908201527f455243313135353a204552433131353552656365697665722072656a656374656040820152676420746f6b656e7360c01b606082015260800190565b6001600160a01b0386811682528516602082015260a060408201819052600090613aec908301866132e3565b8281036060840152613afe81866132e3565b90508281036080840152613b128185612d26565b9897505050505050505056fea2646970667358221220556abc812783d9300ae35ec900c18eb39c7ed934afae7089a417d60272731efd64736f6c634300080c0033360894a13ba1a3210667c828492db98dca3e2076cc3735a920a3ca505d382bbc416464726573733a206c6f772d6c6576656c2064656c65676174652063616c6c206661696c6564a2646970667358221220fb6b469978838860698fb8ed3b3b44523e27ff161ec1ea1a4f7199a5fd7a0d4264736f6c634300080c0033",
  "linkReferences": {},
  "deployedLinkReferences": {}
}