{
  "_format": "hh-sol-artifact-1",
  "contractName": "FungibleToken",
  "sourceName": "src/backend/contracts/_FungibleToken.sol",
  "abi": [
    {
      "inputs": [
        {
          "internalType": "string",
          "name": "_name",
          "type": "string"
        },
        {
          "internalType": "string",
          "name": "_symbol",
          "type": "string"
        },
        {
          "internalType": "address",
          "name": "_owner",
          "type": "address"
        },
        {
          "internalType": "uint256",
          "name": "_supply",
          "type": "uint256"
        }
      ],
      "stateMutability": "nonpayable",
      "type": "constructor"
    },
    {
      "anonymous": false,
      "inputs": [
        {
          "indexed": true,
          "internalType": "address",
          "name": "owner",
          "type": "address"
        },
        {
          "indexed": true,
          "internalType": "address",
          "name": "spender",
          "type": "address"
        },
        {
          "indexed": false,
          "internalType": "uint256",
          "name": "value",
          "type": "uint256"
        }
      ],
      "name": "Approval",
      "type": "event"
    },
    {
      "anonymous": false,
      "inputs": [
        {
          "indexed": true,
          "internalType": "address",
          "name": "previousOwner",
          "type": "address"
        },
        {
          "indexed": true,
          "internalType": "address",
          "name": "newOwner",
          "type": "address"
        }
      ],
      "name": "OwnershipTransferred",
      "type": "event"
    },
    {
      "anonymous": false,
      "inputs": [
        {
          "indexed": false,
          "internalType": "address",
          "name": "account",
          "type": "address"
        }
      ],
      "name": "Paused",
      "type": "event"
    },
    {
      "anonymous": false,
      "inputs": [
        {
          "indexed": true,
          "internalType": "address",
          "name": "from",
          "type": "address"
        },
        {
          "indexed": true,
          "internalType": "address",
          "name": "to",
          "type": "address"
        },
        {
          "indexed": false,
          "internalType": "uint256",
          "name": "value",
          "type": "uint256"
        }
      ],
      "name": "Transfer",
      "type": "event"
    },
    {
      "anonymous": false,
      "inputs": [
        {
          "indexed": false,
          "internalType": "address",
          "name": "account",
          "type": "address"
        }
      ],
      "name": "Unpaused",
      "type": "event"
    },
    {
      "inputs": [
        {
          "internalType": "address",
          "name": "owner",
          "type": "address"
        },
        {
          "internalType": "address",
          "name": "spender",
          "type": "address"
        }
      ],
      "name": "allowance",
      "outputs": [
        {
          "internalType": "uint256",
          "name": "",
          "type": "uint256"
        }
      ],
      "stateMutability": "view",
      "type": "function"
    },
    {
      "inputs": [
        {
          "internalType": "address",
          "name": "spender",
          "type": "address"
        },
        {
          "internalType": "uint256",
          "name": "amount",
          "type": "uint256"
        }
      ],
      "name": "approve",
      "outputs": [
        {
          "internalType": "bool",
          "name": "",
          "type": "bool"
        }
      ],
      "stateMutability": "nonpayable",
      "type": "function"
    },
    {
      "inputs": [
        {
          "internalType": "address",
          "name": "account",
          "type": "address"
        }
      ],
      "name": "balanceOf",
      "outputs": [
        {
          "internalType": "uint256",
          "name": "",
          "type": "uint256"
        }
      ],
      "stateMutability": "view",
      "type": "function"
    },
    {
      "inputs": [],
      "name": "campaignLastId",
      "outputs": [
        {
          "internalType": "uint256",
          "name": "",
          "type": "uint256"
        }
      ],
      "stateMutability": "view",
      "type": "function"
    },
    {
      "inputs": [
        {
          "internalType": "uint256",
          "name": "_campaignId",
          "type": "uint256"
        }
      ],
      "name": "cancelDistributionCampaign",
      "outputs": [],
      "stateMutability": "nonpayable",
      "type": "function"
    },
    {
      "inputs": [
        {
          "internalType": "enum FungibleToken.DistributionType",
          "name": "_distType",
          "type": "uint8"
        },
        {
          "internalType": "uint256",
          "name": "_dateStart",
          "type": "uint256"
        },
        {
          "internalType": "uint256",
          "name": "_dateEnd",
          "type": "uint256"
        },
        {
          "internalType": "address[]",
          "name": "_whitelist",
          "type": "address[]"
        },
        {
          "internalType": "bool",
          "name": "_isProtected",
          "type": "bool"
        },
        {
          "internalType": "uint256",
          "name": "_tokensTotal",
          "type": "uint256"
        },
        {
          "internalType": "uint256",
          "name": "_tokensPerUser",
          "type": "uint256"
        }
      ],
      "name": "createDistributionCampaign",
      "outputs": [],
      "stateMutability": "payable",
      "type": "function"
    },
    {
      "inputs": [],
      "name": "decimals",
      "outputs": [
        {
          "internalType": "uint8",
          "name": "",
          "type": "uint8"
        }
      ],
      "stateMutability": "view",
      "type": "function"
    },
    {
      "inputs": [
        {
          "internalType": "address",
          "name": "spender",
          "type": "address"
        },
        {
          "internalType": "uint256",
          "name": "subtractedValue",
          "type": "uint256"
        }
      ],
      "name": "decreaseAllowance",
      "outputs": [
        {
          "internalType": "bool",
          "name": "",
          "type": "bool"
        }
      ],
      "stateMutability": "nonpayable",
      "type": "function"
    },
    {
      "inputs": [],
      "name": "getCampaigns",
      "outputs": [
        {
          "components": [
            {
              "internalType": "uint256",
              "name": "id",
              "type": "uint256"
            },
            {
              "internalType": "uint256",
              "name": "tokensTotal",
              "type": "uint256"
            },
            {
              "internalType": "uint256",
              "name": "tokensMinted",
              "type": "uint256"
            },
            {
              "internalType": "uint256",
              "name": "tokensPerUser",
              "type": "uint256"
            },
            {
              "internalType": "uint256",
              "name": "dateStart",
              "type": "uint256"
            },
            {
              "internalType": "uint256",
              "name": "dateEnd",
              "type": "uint256"
            },
            {
              "internalType": "uint256",
              "name": "eventCode",
              "type": "uint256"
            },
            {
              "internalType": "enum FungibleToken.DistributionType",
              "name": "distType",
              "type": "uint8"
            },
            {
              "internalType": "address[]",
              "name": "whitelist",
              "type": "address[]"
            },
            {
              "internalType": "bool",
              "name": "isProtected",
              "type": "bool"
            }
          ],
          "internalType": "struct FungibleToken.DistributionCampaign[]",
          "name": "",
          "type": "tuple[]"
        }
      ],
      "stateMutability": "view",
      "type": "function"
    },
    {
      "inputs": [
        {
          "internalType": "address",
          "name": "spender",
          "type": "address"
        },
        {
          "internalType": "uint256",
          "name": "addedValue",
          "type": "uint256"
        }
      ],
      "name": "increaseAllowance",
      "outputs": [
        {
          "internalType": "bool",
          "name": "",
          "type": "bool"
        }
      ],
      "stateMutability": "nonpayable",
      "type": "function"
    },
    {
      "inputs": [],
      "name": "name",
      "outputs": [
        {
          "internalType": "string",
          "name": "",
          "type": "string"
        }
      ],
      "stateMutability": "view",
      "type": "function"
    },
    {
      "inputs": [],
      "name": "owner",
      "outputs": [
        {
          "internalType": "address",
          "name": "",
          "type": "address"
        }
      ],
      "stateMutability": "view",
      "type": "function"
    },
    {
      "inputs": [],
      "name": "pause",
      "outputs": [],
      "stateMutability": "nonpayable",
      "type": "function"
    },
    {
      "inputs": [],
      "name": "paused",
      "outputs": [
        {
          "internalType": "bool",
          "name": "",
          "type": "bool"
        }
      ],
      "stateMutability": "view",
      "type": "function"
    },
    {
      "inputs": [],
      "name": "renounceOwnership",
      "outputs": [],
      "stateMutability": "nonpayable",
      "type": "function"
    },
    {
      "inputs": [],
      "name": "symbol",
      "outputs": [
        {
          "internalType": "string",
          "name": "",
          "type": "string"
        }
      ],
      "stateMutability": "view",
      "type": "function"
    },
    {
      "inputs": [],
      "name": "totalSupply",
      "outputs": [
        {
          "internalType": "uint256",
          "name": "",
          "type": "uint256"
        }
      ],
      "stateMutability": "view",
      "type": "function"
    },
    {
      "inputs": [
        {
          "internalType": "address",
          "name": "to",
          "type": "address"
        },
        {
          "internalType": "uint256",
          "name": "amount",
          "type": "uint256"
        }
      ],
      "name": "transfer",
      "outputs": [
        {
          "internalType": "bool",
          "name": "",
          "type": "bool"
        }
      ],
      "stateMutability": "nonpayable",
      "type": "function"
    },
    {
      "inputs": [
        {
          "internalType": "address",
          "name": "from",
          "type": "address"
        },
        {
          "internalType": "address",
          "name": "to",
          "type": "address"
        },
        {
          "internalType": "uint256",
          "name": "amount",
          "type": "uint256"
        }
      ],
      "name": "transferFrom",
      "outputs": [
        {
          "internalType": "bool",
          "name": "",
          "type": "bool"
        }
      ],
      "stateMutability": "nonpayable",
      "type": "function"
    },
    {
      "inputs": [
        {
          "internalType": "address",
          "name": "newOwner",
          "type": "address"
        }
      ],
      "name": "transferOwnership",
      "outputs": [],
      "stateMutability": "nonpayable",
      "type": "function"
    },
    {
      "inputs": [],
      "name": "unpause",
      "outputs": [],
      "stateMutability": "nonpayable",
      "type": "function"
    }
  ],
  "bytecode": "0x60806040523480156200001157600080fd5b5060405162001f6738038062001f678339810160408190526200003491620004c5565b8351849084906200004d90600390602085019062000352565b5080516200006390600490602084019062000352565b50506005805460ff19169055506200007b33620000af565b6200009a826200009483670de0b6b3a76400006200056e565b62000109565b620000a58262000200565b50505050620005e8565b600580546001600160a01b03838116610100818102610100600160a81b031985161790945560405193909204169182907f8be0079c531659141344cd1fd0a4f28419497f9722a3daafe3b4186f6b6457e090600090a35050565b6001600160a01b038216620001655760405162461bcd60e51b815260206004820152601f60248201527f45524332303a206d696e7420746f20746865207a65726f20616464726573730060448201526064015b60405180910390fd5b62000173600083836200027f565b806002600082825462000187919062000590565b90915550506001600160a01b03821660009081526020819052604081208054839290620001b690849062000590565b90915550506040518181526001600160a01b038316906000907fddf252ad1be2c89b69c2b068fc378daa952ba7f163c4a11628f55a4df523b3ef9060200160405180910390a35050565b6200020a620002a6565b6001600160a01b038116620002715760405162461bcd60e51b815260206004820152602660248201527f4f776e61626c653a206e6577206f776e657220697320746865207a65726f206160448201526564647265737360d01b60648201526084016200015c565b6200027c81620000af565b50565b620002896200030a565b620002a1838383620002a160201b620008261760201c565b505050565b6005546001600160a01b03610100909104163314620003085760405162461bcd60e51b815260206004820181905260248201527f4f776e61626c653a2063616c6c6572206973206e6f7420746865206f776e657260448201526064016200015c565b565b60055460ff1615620003085760405162461bcd60e51b815260206004820152601060248201526f14185d5cd8589b194e881c185d5cd95960821b60448201526064016200015c565b8280546200036090620005ab565b90600052602060002090601f016020900481019282620003845760008555620003cf565b82601f106200039f57805160ff1916838001178555620003cf565b82800160010185558215620003cf579182015b82811115620003cf578251825591602001919060010190620003b2565b50620003dd929150620003e1565b5090565b5b80821115620003dd5760008155600101620003e2565b634e487b7160e01b600052604160045260246000fd5b600082601f8301126200042057600080fd5b81516001600160401b03808211156200043d576200043d620003f8565b604051601f8301601f19908116603f01168101908282118183101715620004685762000468620003f8565b816040528381526020925086838588010111156200048557600080fd5b600091505b83821015620004a957858201830151818301840152908201906200048a565b83821115620004bb5760008385830101525b9695505050505050565b60008060008060808587031215620004dc57600080fd5b84516001600160401b0380821115620004f457600080fd5b62000502888389016200040e565b955060208701519150808211156200051957600080fd5b5062000528878288016200040e565b604087015190945090506001600160a01b03811681146200054857600080fd5b6060959095015193969295505050565b634e487b7160e01b600052601160045260246000fd5b60008160001904831182151516156200058b576200058b62000558565b500290565b60008219821115620005a657620005a662000558565b500190565b600181811c90821680620005c057607f821691505b60208210811415620005e257634e487b7160e01b600052602260045260246000fd5b50919050565b61196f80620005f86000396000f3fe60806040526004361061012a5760003560e01c806370a08231116100ab578063a457c2d71161006f578063a457c2d714610315578063a6b0363314610335578063a9059cbb14610357578063b46d9d6714610377578063dd62ed3e1461038a578063f2fde38b146103aa57600080fd5b806370a082311461026a578063715018a6146102a05780638456cb59146102b55780638da5cb5b146102ca57806395d89b411461030057600080fd5b8063381da488116100f2578063381da488146101e557806339509351146102075780633f4ba83a146102275780635c975abb1461023c57806369b0aafa1461025457600080fd5b806306fdde031461012f578063095ea7b31461015a57806318160ddd1461018a57806323b872dd146101a9578063313ce567146101c9575b600080fd5b34801561013b57600080fd5b506101446103ca565b6040516101519190611452565b60405180910390f35b34801561016657600080fd5b5061017a6101753660046114c3565b61045c565b6040519015158152602001610151565b34801561019657600080fd5b506002545b604051908152602001610151565b3480156101b557600080fd5b5061017a6101c43660046114ed565b610474565b3480156101d557600080fd5b5060405160128152602001610151565b3480156101f157600080fd5b50610205610200366004611529565b610498565b005b34801561021357600080fd5b5061017a6102223660046114c3565b61082b565b34801561023357600080fd5b5061020561084d565b34801561024857600080fd5b5060055460ff1661017a565b34801561026057600080fd5b5061019b60065481565b34801561027657600080fd5b5061019b610285366004611542565b6001600160a01b031660009081526020819052604090205490565b3480156102ac57600080fd5b5061020561085f565b3480156102c157600080fd5b50610205610871565b3480156102d657600080fd5b5060055461010090046001600160a01b03166040516001600160a01b039091168152602001610151565b34801561030c57600080fd5b50610144610881565b34801561032157600080fd5b5061017a6103303660046114c3565b610890565b34801561034157600080fd5b5061034a610910565b60405161015191906115d9565b34801561036357600080fd5b5061017a6103723660046114c3565b610a63565b6102056103853660046116eb565b610a71565b34801561039657600080fd5b5061019b6103a5366004611800565b610cad565b3480156103b657600080fd5b506102056103c5366004611542565b610cd8565b6060600380546103d990611833565b80601f016020809104026020016040519081016040528092919081815260200182805461040590611833565b80156104525780601f1061042757610100808354040283529160200191610452565b820191906000526020600020905b81548152906001019060200180831161043557829003601f168201915b5050505050905090565b60003361046a818585610d51565b5060019392505050565b600033610482858285610e75565b61048d858585610ee9565b506001949350505050565b6104a06110c2565b6104a8611316565b60005b60065481101561079d5782600782815481106104c9576104c961186e565b90600052602060002090600a020160000154141561078d57600781815481106104f4576104f461186e565b90600052602060002090600a020160405180610140016040529081600082015481526020016001820154815260200160028201548152602001600382015481526020016004820154815260200160058201548152602001600682015481526020016007820160009054906101000a900460ff1660058111156105785761057861155d565b60058111156105895761058961155d565b8152602001600882018054806020026020016040519081016040528092919081815260200182805480156105e657602002820191906000526020600020905b81546001600160a01b031681526001909101906020018083116105c8575b50505091835250506009919091015460ff16151560209091015260075490925060011015610711576007600160065461061f919061189a565b8154811061062f5761062f61186e565b90600052602060002090600a0201600782815481106106505761065061186e565b90600052602060002090600a0201600082015481600001556001820154816001015560028201548160020155600382015481600301556004820154816004015560058201548160050155600682015481600601556007820160009054906101000a900460ff168160070160006101000a81548160ff021916908360058111156106db576106db61155d565b0217905550600882810180546106f4928401919061137a565b506009918201549101805460ff191660ff90921615159190911790555b6007805480610722576107226118b1565b600082815260208120600a6000199093019283020181815560018101829055600281018290556003810182905560048101829055600581018290556006810182905560078101805460ff191690559061077e60088301826113ca565b50600901805460ff1916905590555b610796816118c7565b90506104ab565b506000816040015182602001516107b4919061189a565b905080156108265760405163a9059cbb60e01b815233600482015260248101829052309063a9059cbb906044016020604051808303816000875af1158015610800573d6000803e3d6000fd5b505050506040513d601f19601f8201168201806040525081019061082491906118e2565b505b505050565b60003361046a81858561083e8383610cad565b61084891906118ff565b610d51565b6108556110c2565b61085d611122565b565b6108676110c2565b61085d6000611174565b6108796110c2565b61085d6111ce565b6060600480546103d990611833565b6000338161089e8286610cad565b9050838110156109035760405162461bcd60e51b815260206004820152602560248201527f45524332303a2064656372656173656420616c6c6f77616e63652062656c6f77604482015264207a65726f60d81b60648201526084015b60405180910390fd5b61048d8286868403610d51565b60606007805480602002602001604051908101604052809291908181526020016000905b82821015610a5a57838290600052602060002090600a020160405180610140016040529081600082015481526020016001820154815260200160028201548152602001600382015481526020016004820154815260200160058201548152602001600682015481526020016007820160009054906101000a900460ff1660058111156109c2576109c261155d565b60058111156109d3576109d361155d565b815260200160088201805480602002602001604051908101604052809291908181526020018280548015610a3057602002820191906000526020600020905b81546001600160a01b03168152600190910190602001808311610a12575b50505091835250506009919091015460ff1615156020918201529082526001929092019101610934565b50505050905090565b60003361046a818585610ee9565b610a796110c2565b84861115610ac95760405162461bcd60e51b815260206004820152601960248201527f57726f6e672063616d706169676e20646174652072616e67650000000000000060448201526064016108fa565b60006004886005811115610adf57610adf61155d565b1415610af657610af3620f423f600161120b565b90505b6040516323b872dd60e01b8152336004820152306024820181905260448201859052906323b872dd906064016020604051808303816000875af1158015610b41573d6000803e3d6000fd5b505050506040513d601f19601f82011682018060405250810190610b6591906118e2565b50600160066000828254610b7991906118ff565b9250508190555060076040518061014001604052806006548152602001858152602001600081526020018481526020018981526020018881526020018381526020018a6005811115610bcd57610bcd61155d565b815260208082018990528715156040928301528354600181810186556000958652948290208451600a909202019081559083015181850155908201516002820155606082015160038201556080820151600482015560a082015160058083019190915560c0830151600683015560e0830151600783018054949593949193909260ff19909216918490811115610c6557610c6561155d565b02179055506101008201518051610c869160088401916020909101906113e8565b5061012091909101516009909101805460ff19169115159190911790555050505050505050565b6001600160a01b03918216600090815260016020908152604080832093909416825291909152205490565b610ce06110c2565b6001600160a01b038116610d455760405162461bcd60e51b815260206004820152602660248201527f4f776e61626c653a206e6577206f776e657220697320746865207a65726f206160448201526564647265737360d01b60648201526084016108fa565b610d4e81611174565b50565b6001600160a01b038316610db35760405162461bcd60e51b8152602060048201526024808201527f45524332303a20617070726f76652066726f6d20746865207a65726f206164646044820152637265737360e01b60648201526084016108fa565b6001600160a01b038216610e145760405162461bcd60e51b815260206004820152602260248201527f45524332303a20617070726f766520746f20746865207a65726f206164647265604482015261737360f01b60648201526084016108fa565b6001600160a01b0383811660008181526001602090815260408083209487168084529482529182902085905590518481527f8c5be1e5ebec7d5bd14f71427d1e84f3dd0314c0f7b2291e5b200ac8c7c3b925910160405180910390a3505050565b6000610e818484610cad565b905060001981146108245781811015610edc5760405162461bcd60e51b815260206004820152601d60248201527f45524332303a20696e73756666696369656e7420616c6c6f77616e636500000060448201526064016108fa565b6108248484848403610d51565b6001600160a01b038316610f4d5760405162461bcd60e51b815260206004820152602560248201527f45524332303a207472616e736665722066726f6d20746865207a65726f206164604482015264647265737360d81b60648201526084016108fa565b6001600160a01b038216610faf5760405162461bcd60e51b815260206004820152602360248201527f45524332303a207472616e7366657220746f20746865207a65726f206164647260448201526265737360e81b60648201526084016108fa565b610fba83838361127f565b6001600160a01b038316600090815260208190526040902054818110156110325760405162461bcd60e51b815260206004820152602660248201527f45524332303a207472616e7366657220616d6f756e7420657863656564732062604482015265616c616e636560d01b60648201526084016108fa565b6001600160a01b038085166000908152602081905260408082208585039055918516815290812080548492906110699084906118ff565b92505081905550826001600160a01b0316846001600160a01b03167fddf252ad1be2c89b69c2b068fc378daa952ba7f163c4a11628f55a4df523b3ef846040516110b591815260200190565b60405180910390a3610824565b6005546001600160a01b0361010090910416331461085d5760405162461bcd60e51b815260206004820181905260248201527f4f776e61626c653a2063616c6c6572206973206e6f7420746865206f776e657260448201526064016108fa565b61112a611287565b6005805460ff191690557f5db9ee0a495bf2e6ff9c91a7834c1ba4fdd244a5e8aa4e537bd38aeae4b073aa335b6040516001600160a01b03909116815260200160405180910390a1565b600580546001600160a01b03838116610100818102610100600160a81b031985161790945560405193909204169182907f8be0079c531659141344cd1fd0a4f28419497f9722a3daafe3b4186f6b6457e090600090a35050565b6111d66112d0565b6005805460ff191660011790557f62e78cea01bee320cd4e420270b5ea74000d11b0c9f74754ebdbfc544b05a2586111573390565b6040516001600160f81b031960f883901b1660208201526bffffffffffffffffffffffff193360601b1660218201524460358201524260558201526001607582015260009083906095016040516020818303038152906040528051906020012060001c6112789190611917565b9392505050565b6108266112d0565b60055460ff1661085d5760405162461bcd60e51b815260206004820152601460248201527314185d5cd8589b194e881b9bdd081c185d5cd95960621b60448201526064016108fa565b60055460ff161561085d5760405162461bcd60e51b815260206004820152601060248201526f14185d5cd8589b194e881c185d5cd95960821b60448201526064016108fa565b60405180610140016040528060008152602001600081526020016000815260200160008152602001600081526020016000815260200160008152602001600060058111156113665761136661155d565b815260606020820152600060409091015290565b8280548282559060005260206000209081019282156113ba5760005260206000209182015b828111156113ba57825482559160010191906001019061139f565b506113c692915061143d565b5090565b5080546000825590600052602060002090810190610d4e919061143d565b8280548282559060005260206000209081019282156113ba579160200282015b828111156113ba57825182546001600160a01b0319166001600160a01b03909116178255602090920191600190910190611408565b5b808211156113c6576000815560010161143e565b600060208083528351808285015260005b8181101561147f57858101830151858201604001528201611463565b81811115611491576000604083870101525b50601f01601f1916929092016040019392505050565b80356001600160a01b03811681146114be57600080fd5b919050565b600080604083850312156114d657600080fd5b6114df836114a7565b946020939093013593505050565b60008060006060848603121561150257600080fd5b61150b846114a7565b9250611519602085016114a7565b9150604084013590509250925092565b60006020828403121561153b57600080fd5b5035919050565b60006020828403121561155457600080fd5b611278826114a7565b634e487b7160e01b600052602160045260246000fd5b6006811061159157634e487b7160e01b600052602160045260246000fd5b9052565b600081518084526020808501945080840160005b838110156115ce5781516001600160a01b0316875295820195908201906001016115a9565b509495945050505050565b60006020808301818452808551808352604092508286019150828160051b87010184880160005b838110156116ae57888303603f1901855281518051845287810151888501528681015187850152606080820151908501526080808201519085015260a0808201519085015260c0808201519085015260e080820151610140919061166682880182611573565b505061010080830151828288015261168083880182611595565b9250505061012080830151925061169a8187018415159052565b509588019593505090860190600101611600565b509098975050505050505050565b634e487b7160e01b600052604160045260246000fd5b8015158114610d4e57600080fd5b80356114be816116d2565b600080600080600080600060e0888a03121561170657600080fd5b87356006811061171557600080fd5b9650602088810135965060408901359550606089013567ffffffffffffffff8082111561174157600080fd5b818b0191508b601f83011261175557600080fd5b813581811115611767576117676116bc565b8060051b604051601f19603f8301168101818110858211171561178c5761178c6116bc565b60405291825284820192508381018501918e8311156117aa57600080fd5b938501935b828510156117cf576117c0856114a7565b845293850193928501926117af565b8099505050505050506117e4608089016116e0565b925060a0880135915060c0880135905092959891949750929550565b6000806040838503121561181357600080fd5b61181c836114a7565b915061182a602084016114a7565b90509250929050565b600181811c9082168061184757607f821691505b6020821081141561186857634e487b7160e01b600052602260045260246000fd5b50919050565b634e487b7160e01b600052603260045260246000fd5b634e487b7160e01b600052601160045260246000fd5b6000828210156118ac576118ac611884565b500390565b634e487b7160e01b600052603160045260246000fd5b60006000198214156118db576118db611884565b5060010190565b6000602082840312156118f457600080fd5b8151611278816116d2565b6000821982111561191257611912611884565b500190565b60008261193457634e487b7160e01b600052601260045260246000fd5b50069056fea264697066735822122014ffd868a3d155d34db29fa804cf7fd7ea6dfc089332618352552f147b62865264736f6c634300080c0033",
  "linkReferences": {},
  "deployedLinkReferences": {}
}