{
  "_format": "hh-sol-artifact-1",
  "contractName": "MainContract",
  "sourceName": "src/backend/contracts/MainContract.sol",
  "abi": [
    {
      "inputs": [],
      "stateMutability": "nonpayable",
      "type": "constructor"
    },
    {
      "anonymous": false,
      "inputs": [
        {
          "indexed": false,
          "internalType": "address",
          "name": "previousAdmin",
          "type": "address"
        },
        {
          "indexed": false,
          "internalType": "address",
          "name": "newAdmin",
          "type": "address"
        }
      ],
      "name": "AdminChanged",
      "type": "event"
    },
    {
      "anonymous": false,
      "inputs": [
        {
          "indexed": true,
          "internalType": "address",
          "name": "beacon",
          "type": "address"
        }
      ],
      "name": "BeaconUpgraded",
      "type": "event"
    },
    {
      "anonymous": false,
      "inputs": [
        {
          "indexed": false,
          "internalType": "uint8",
          "name": "version",
          "type": "uint8"
        }
      ],
      "name": "Initialized",
      "type": "event"
    },
    {
      "anonymous": false,
      "inputs": [
        {
          "indexed": true,
          "internalType": "address",
          "name": "previousOwner",
          "type": "address"
        },
        {
          "indexed": true,
          "internalType": "address",
          "name": "newOwner",
          "type": "address"
        }
      ],
      "name": "OwnershipTransferred",
      "type": "event"
    },
    {
      "anonymous": false,
      "inputs": [
        {
          "indexed": true,
          "internalType": "address",
          "name": "implementation",
          "type": "address"
        }
      ],
      "name": "Upgraded",
      "type": "event"
    },
    {
      "inputs": [
        {
          "internalType": "enum MainContract.CommunityCategory",
          "name": "",
          "type": "uint8"
        },
        {
          "internalType": "uint256",
          "name": "",
          "type": "uint256"
        }
      ],
      "name": "categoryCommunities",
      "outputs": [
        {
          "internalType": "uint256",
          "name": "",
          "type": "uint256"
        }
      ],
      "stateMutability": "view",
      "type": "function"
    },
    {
      "inputs": [
        {
          "internalType": "uint256",
          "name": "",
          "type": "uint256"
        }
      ],
      "name": "communities",
      "outputs": [
        {
          "internalType": "uint256",
          "name": "id",
          "type": "uint256"
        },
        {
          "internalType": "enum MainContract.CommunityCategory",
          "name": "category",
          "type": "uint8"
        },
        {
          "internalType": "enum MainContract.CommunityPrivacy",
          "name": "privacy",
          "type": "uint8"
        },
        {
          "internalType": "address",
          "name": "owner",
          "type": "address"
        },
        {
          "internalType": "address",
          "name": "nftContract",
          "type": "address"
        },
        {
          "internalType": "address",
          "name": "ftContract",
          "type": "address"
        },
        {
          "internalType": "string",
          "name": "name",
          "type": "string"
        },
        {
          "internalType": "string",
          "name": "description",
          "type": "string"
        },
        {
          "internalType": "string",
          "name": "logo",
          "type": "string"
        },
        {
          "internalType": "string",
          "name": "membersTable",
          "type": "string"
        },
        {
          "internalType": "string",
          "name": "memberStatsTable",
          "type": "string"
        }
      ],
      "stateMutability": "view",
      "type": "function"
    },
    {
      "inputs": [],
      "name": "communityCount",
      "outputs": [
        {
          "internalType": "uint256",
          "name": "",
          "type": "uint256"
        }
      ],
      "stateMutability": "view",
      "type": "function"
    },
    {
      "inputs": [
        {
          "internalType": "string",
          "name": "_name",
          "type": "string"
        },
        {
          "internalType": "string",
          "name": "_logo",
          "type": "string"
        },
        {
          "internalType": "enum MainContract.CommunityCategory",
          "name": "_category",
          "type": "uint8"
        },
        {
          "internalType": "enum MainContract.CommunityPrivacy",
          "name": "_privacy",
          "type": "uint8"
        },
        {
          "internalType": "string",
          "name": "_description",
          "type": "string"
        }
      ],
      "name": "createCommunity",
      "outputs": [],
      "stateMutability": "nonpayable",
      "type": "function"
    },
    {
      "inputs": [
        {
          "internalType": "enum MainContract.CommunityCategory",
          "name": "_categoryId",
          "type": "uint8"
        }
      ],
      "name": "getCategoryCommunities",
      "outputs": [
        {
          "components": [
            {
              "internalType": "uint256",
              "name": "id",
              "type": "uint256"
            },
            {
              "internalType": "enum MainContract.CommunityCategory",
              "name": "category",
              "type": "uint8"
            },
            {
              "internalType": "enum MainContract.CommunityPrivacy",
              "name": "privacy",
              "type": "uint8"
            },
            {
              "internalType": "address",
              "name": "owner",
              "type": "address"
            },
            {
              "internalType": "address",
              "name": "nftContract",
              "type": "address"
            },
            {
              "internalType": "address",
              "name": "ftContract",
              "type": "address"
            },
            {
              "internalType": "string",
              "name": "name",
              "type": "string"
            },
            {
              "internalType": "string",
              "name": "description",
              "type": "string"
            },
            {
              "internalType": "string",
              "name": "logo",
              "type": "string"
            },
            {
              "internalType": "string",
              "name": "membersTable",
              "type": "string"
            },
            {
              "internalType": "string",
              "name": "memberStatsTable",
              "type": "string"
            }
          ],
          "internalType": "struct MainContract.Community[]",
          "name": "",
          "type": "tuple[]"
        }
      ],
      "stateMutability": "view",
      "type": "function"
    },
    {
      "inputs": [
        {
          "internalType": "address",
          "name": "_owner",
          "type": "address"
        }
      ],
      "name": "getUserCommunities",
      "outputs": [
        {
          "components": [
            {
              "internalType": "uint256",
              "name": "id",
              "type": "uint256"
            },
            {
              "internalType": "enum MainContract.CommunityCategory",
              "name": "category",
              "type": "uint8"
            },
            {
              "internalType": "enum MainContract.CommunityPrivacy",
              "name": "privacy",
              "type": "uint8"
            },
            {
              "internalType": "address",
              "name": "owner",
              "type": "address"
            },
            {
              "internalType": "address",
              "name": "nftContract",
              "type": "address"
            },
            {
              "internalType": "address",
              "name": "ftContract",
              "type": "address"
            },
            {
              "internalType": "string",
              "name": "name",
              "type": "string"
            },
            {
              "internalType": "string",
              "name": "description",
              "type": "string"
            },
            {
              "internalType": "string",
              "name": "logo",
              "type": "string"
            },
            {
              "internalType": "string",
              "name": "membersTable",
              "type": "string"
            },
            {
              "internalType": "string",
              "name": "memberStatsTable",
              "type": "string"
            }
          ],
          "internalType": "struct MainContract.Community[]",
          "name": "",
          "type": "tuple[]"
        }
      ],
      "stateMutability": "view",
      "type": "function"
    },
    {
      "inputs": [],
      "name": "initialize",
      "outputs": [],
      "stateMutability": "nonpayable",
      "type": "function"
    },
    {
      "inputs": [
        {
          "internalType": "uint256",
          "name": "_id",
          "type": "uint256"
        }
      ],
      "name": "isContractExists",
      "outputs": [
        {
          "internalType": "bool",
          "name": "",
          "type": "bool"
        },
        {
          "internalType": "bool",
          "name": "",
          "type": "bool"
        }
      ],
      "stateMutability": "view",
      "type": "function"
    },
    {
      "inputs": [],
      "name": "owner",
      "outputs": [
        {
          "internalType": "address",
          "name": "",
          "type": "address"
        }
      ],
      "stateMutability": "view",
      "type": "function"
    },
    {
      "inputs": [],
      "name": "proxiableUUID",
      "outputs": [
        {
          "internalType": "bytes32",
          "name": "",
          "type": "bytes32"
        }
      ],
      "stateMutability": "view",
      "type": "function"
    },
    {
      "inputs": [],
      "name": "renounceOwnership",
      "outputs": [],
      "stateMutability": "nonpayable",
      "type": "function"
    },
    {
      "inputs": [
        {
          "internalType": "address",
          "name": "newOwner",
          "type": "address"
        }
      ],
      "name": "transferOwnership",
      "outputs": [],
      "stateMutability": "nonpayable",
      "type": "function"
    },
    {
      "inputs": [
        {
          "internalType": "uint256",
          "name": "_id",
          "type": "uint256"
        },
        {
          "internalType": "string",
          "name": "_name",
          "type": "string"
        },
        {
          "internalType": "string",
          "name": "_logo",
          "type": "string"
        },
        {
          "internalType": "enum MainContract.CommunityPrivacy",
          "name": "_privacy",
          "type": "uint8"
        },
        {
          "internalType": "string",
          "name": "_description",
          "type": "string"
        }
      ],
      "name": "updateCommunity",
      "outputs": [],
      "stateMutability": "nonpayable",
      "type": "function"
    },
    {
      "inputs": [
        {
          "internalType": "uint256",
          "name": "_id",
          "type": "uint256"
        },
        {
          "internalType": "address",
          "name": "_ftContract",
          "type": "address"
        }
      ],
      "name": "updateCommunityFT",
      "outputs": [],
      "stateMutability": "nonpayable",
      "type": "function"
    },
    {
      "inputs": [
        {
          "internalType": "uint256",
          "name": "_id",
          "type": "uint256"
        },
        {
          "internalType": "address",
          "name": "_nftContract",
          "type": "address"
        }
      ],
      "name": "updateCommunityNFT",
      "outputs": [],
      "stateMutability": "nonpayable",
      "type": "function"
    },
    {
      "inputs": [
        {
          "internalType": "address",
          "name": "_factoryNFTContract",
          "type": "address"
        },
        {
          "internalType": "address",
          "name": "_factoryFTContract",
          "type": "address"
        },
        {
          "internalType": "address",
          "name": "_membersContract",
          "type": "address"
        }
      ],
      "name": "updateFactoryContractsAddress",
      "outputs": [],
      "stateMutability": "nonpayable",
      "type": "function"
    },
    {
      "inputs": [
        {
          "internalType": "address",
          "name": "newImplementation",
          "type": "address"
        }
      ],
      "name": "upgradeTo",
      "outputs": [],
      "stateMutability": "nonpayable",
      "type": "function"
    },
    {
      "inputs": [
        {
          "internalType": "address",
          "name": "newImplementation",
          "type": "address"
        },
        {
          "internalType": "bytes",
          "name": "data",
          "type": "bytes"
        }
      ],
      "name": "upgradeToAndCall",
      "outputs": [],
      "stateMutability": "payable",
      "type": "function"
    },
    {
      "inputs": [
        {
          "internalType": "address",
          "name": "",
          "type": "address"
        },
        {
          "internalType": "uint256",
          "name": "",
          "type": "uint256"
        }
      ],
      "name": "userCommunities",
      "outputs": [
        {
          "internalType": "uint256",
          "name": "",
          "type": "uint256"
        }
      ],
      "stateMutability": "view",
      "type": "function"
    }
  ],
  "bytecode": "0x60a0604052306080523480156200001557600080fd5b506200002062000026565b620000e8565b600054610100900460ff1615620000935760405162461bcd60e51b815260206004820152602760248201527f496e697469616c697a61626c653a20636f6e747261637420697320696e697469604482015266616c697a696e6760c81b606482015260840160405180910390fd5b60005460ff9081161015620000e6576000805460ff191660ff9081179091556040519081527f7f26b83ff96e1f2b6a682f133852f6798a09c465da95921460cefb38474024989060200160405180910390a15b565b60805161291662000120600039600081816108a2015281816108eb015281816109bc015281816109fc0152610a8f01526129166000f3fe6080604052600436106101145760003560e01c8063aee84613116100a0578063e590b56a11610064578063e590b56a1461030f578063e721360214610346578063e87d940b14610366578063e8cc13c014610386578063f2fde38b146103a657600080fd5b8063aee8461314610239578063af1af3dc1461024f578063b64b7f761461026f578063dd446001146102cf578063e00f7865146102ef57600080fd5b806352d1902d116100e757806352d1902d146101b25780636543286f146101c7578063715018a6146101e75780638129fc1c146101fc5780638da5cb5b1461021157600080fd5b8063266682cb146101195780633659cfe61461014f5780633c44f002146101715780634f1ef2861461019f575b600080fd5b34801561012557600080fd5b50610139610134366004612073565b6103c6565b6040516101469190612120565b60405180910390f35b34801561015b57600080fd5b5061016f61016a366004612277565b610897565b005b34801561017d57600080fd5b5061019161018c366004612292565b610980565b604051908152602001610146565b61016f6101ad366004612369565b6109b1565b3480156101be57600080fd5b50610191610a82565b3480156101d357600080fd5b506101396101e2366004612277565b610b35565b3480156101f357600080fd5b5061016f610fbe565b34801561020857600080fd5b5061016f610fd2565b34801561021d57600080fd5b506033546040516001600160a01b039091168152602001610146565b34801561024557600080fd5b5061019160cc5481565b34801561025b57600080fd5b5061016f61026a3660046123fa565b6110ea565b34801561027b57600080fd5b506102b861028a36600461249d565b600090815260cd6020526040902060028101546003909101546001600160a01b039182161515929116151590565b604080519215158352901515602083015201610146565b3480156102db57600080fd5b506101916102ea3660046124b6565b611215565b3480156102fb57600080fd5b5061016f61030a3660046124d2565b611231565b34801561031b57600080fd5b5061032f61032a36600461249d565b6112b8565b6040516101469b9a999897969594939291906124fe565b34801561035257600080fd5b5061016f6103613660046125b7565b6115ca565b34801561037257600080fd5b5061016f6103813660046124d2565b611611565b34801561039257600080fd5b5061016f6103a13660046125fa565b611698565b3480156103b257600080fd5b5061016f6103c1366004612277565b6119f5565b6060600060cf60008460148111156103e0576103e061208e565b60148111156103f1576103f161208e565b815260200190815260200160002080549050905060008167ffffffffffffffff811115610420576104206122bc565b60405190808252806020026020018201604052801561045957816020015b610446611f50565b81526020019060019003908161043e5790505b50905060005b8281101561088f5760cd600060cf60008860148111156104815761048161208e565b60148111156104925761049261208e565b815260200190815260200160002083815481106104b1576104b1612666565b9060005260206000200154815260200190815260200160002060405180610160016040529081600082015481526020016001820160009054906101000a900460ff1660148111156105045761050461208e565b60148111156105155761051561208e565b81526020016001820160019054906101000a900460ff16600181111561053d5761053d61208e565b600181111561054e5761054e61208e565b815260018201546001600160a01b03620100009091048116602083015260028301548116604083015260038301541660608201526004820180546080909201916105979061267c565b80601f01602080910402602001604051908101604052809291908181526020018280546105c39061267c565b80156106105780601f106105e557610100808354040283529160200191610610565b820191906000526020600020905b8154815290600101906020018083116105f357829003601f168201915b505050505081526020016005820180546106299061267c565b80601f01602080910402602001604051908101604052809291908181526020018280546106559061267c565b80156106a25780601f10610677576101008083540402835291602001916106a2565b820191906000526020600020905b81548152906001019060200180831161068557829003601f168201915b505050505081526020016006820180546106bb9061267c565b80601f01602080910402602001604051908101604052809291908181526020018280546106e79061267c565b80156107345780601f1061070957610100808354040283529160200191610734565b820191906000526020600020905b81548152906001019060200180831161071757829003601f168201915b5050505050815260200160078201805461074d9061267c565b80601f01602080910402602001604051908101604052809291908181526020018280546107799061267c565b80156107c65780601f1061079b576101008083540402835291602001916107c6565b820191906000526020600020905b8154815290600101906020018083116107a957829003601f168201915b505050505081526020016008820180546107df9061267c565b80601f016020809104026020016040519081016040528092919081815260200182805461080b9061267c565b80156108585780601f1061082d57610100808354040283529160200191610858565b820191906000526020600020905b81548152906001019060200180831161083b57829003601f168201915b50505050508152505082828151811061087357610873612666565b602002602001018190525080610888906126cd565b905061045f565b509392505050565b306001600160a01b037f00000000000000000000000000000000000000000000000000000000000000001614156108e95760405162461bcd60e51b81526004016108e0906126e8565b60405180910390fd5b7f00000000000000000000000000000000000000000000000000000000000000006001600160a01b031661093260008051602061289a833981519152546001600160a01b031690565b6001600160a01b0316146109585760405162461bcd60e51b81526004016108e090612734565b61096181611a6b565b6040805160008082526020820190925261097d91839190611a73565b50565b60cf602052816000526040600020818154811061099c57600080fd5b90600052602060002001600091509150505481565b306001600160a01b037f00000000000000000000000000000000000000000000000000000000000000001614156109fa5760405162461bcd60e51b81526004016108e0906126e8565b7f00000000000000000000000000000000000000000000000000000000000000006001600160a01b0316610a4360008051602061289a833981519152546001600160a01b031690565b6001600160a01b031614610a695760405162461bcd60e51b81526004016108e090612734565b610a7282611a6b565b610a7e82826001611a73565b5050565b6000306001600160a01b037f00000000000000000000000000000000000000000000000000000000000000001614610b225760405162461bcd60e51b815260206004820152603860248201527f555550535570677261646561626c653a206d757374206e6f742062652063616c60448201527f6c6564207468726f7567682064656c656761746563616c6c000000000000000060648201526084016108e0565b5060008051602061289a83398151915290565b6001600160a01b038116600090815260ce60205260408120546060918167ffffffffffffffff811115610b6a57610b6a6122bc565b604051908082528060200260200182016040528015610ba357816020015b610b90611f50565b815260200190600190039081610b885790505b50905060005b8281101561088f576001600160a01b038516600090815260ce60205260408120805460cd92919084908110610be057610be0612666565b9060005260206000200154815260200190815260200160002060405180610160016040529081600082015481526020016001820160009054906101000a900460ff166014811115610c3357610c3361208e565b6014811115610c4457610c4461208e565b81526020016001820160019054906101000a900460ff166001811115610c6c57610c6c61208e565b6001811115610c7d57610c7d61208e565b815260018201546001600160a01b0362010000909104811660208301526002830154811660408301526003830154166060820152600482018054608090920191610cc69061267c565b80601f0160208091040260200160405190810160405280929190818152602001828054610cf29061267c565b8015610d3f5780601f10610d1457610100808354040283529160200191610d3f565b820191906000526020600020905b815481529060010190602001808311610d2257829003601f168201915b50505050508152602001600582018054610d589061267c565b80601f0160208091040260200160405190810160405280929190818152602001828054610d849061267c565b8015610dd15780601f10610da657610100808354040283529160200191610dd1565b820191906000526020600020905b815481529060010190602001808311610db457829003601f168201915b50505050508152602001600682018054610dea9061267c565b80601f0160208091040260200160405190810160405280929190818152602001828054610e169061267c565b8015610e635780601f10610e3857610100808354040283529160200191610e63565b820191906000526020600020905b815481529060010190602001808311610e4657829003601f168201915b50505050508152602001600782018054610e7c9061267c565b80601f0160208091040260200160405190810160405280929190818152602001828054610ea89061267c565b8015610ef55780601f10610eca57610100808354040283529160200191610ef5565b820191906000526020600020905b815481529060010190602001808311610ed857829003601f168201915b50505050508152602001600882018054610f0e9061267c565b80601f0160208091040260200160405190810160405280929190818152602001828054610f3a9061267c565b8015610f875780601f10610f5c57610100808354040283529160200191610f87565b820191906000526020600020905b815481529060010190602001808311610f6a57829003601f168201915b505050505081525050828281518110610fa257610fa2612666565b602002602001018190525080610fb7906126cd565b9050610ba9565b610fc6611be3565b610fd06000611c3d565b565b600054610100900460ff1615808015610ff25750600054600160ff909116105b8061100c5750303b15801561100c575060005460ff166001145b61106f5760405162461bcd60e51b815260206004820152602e60248201527f496e697469616c697a61626c653a20636f6e747261637420697320616c72656160448201526d191e481a5b9a5d1a585b1a5e995960921b60648201526084016108e0565b6000805460ff191660011790558015611092576000805461ff0019166101001790555b61109a611c8f565b6110a2611cbe565b801561097d576000805461ff0019169055604051600181527f7f26b83ff96e1f2b6a682f133852f6798a09c465da95921460cefb38474024989060200160405180910390a150565b6003845110156111375760405162461bcd60e51b815260206004820152601860248201527710dbdb5b5d5b9a5d1e481b985b59481d1bdbc81cda1bdc9d60421b60448201526064016108e0565b600085815260cd6020526040902060018101546201000090046001600160a01b031633146111a05760405162461bcd60e51b81526020600482015260166024820152754e6f2061636365737320746f20636f6d6d756e69747960501b60448201526064016108e0565b84516111b59060048301906020880190611fc6565b5083516111cb9060068301906020870190611fc6565b50828160010160016101000a81548160ff021916908360018111156111f2576111f261208e565b0217905550815161120c9060058301906020850190611fc6565b50505050505050565b60ce602052816000526040600020818154811061099c57600080fd5b60c9546001600160a01b031633146112875760405162461bcd60e51b815260206004820152601960248201527827379020b1b1b2b9b9903337b9103a3434b99030b1ba34b7b760391b60448201526064016108e0565b600091825260cd602052604090912060020180546001600160a01b0319166001600160a01b03909216919091179055565b60cd6020526000908152604090208054600182015460028301546003840154600485018054949560ff808616966101008704909116956001600160a01b036201000090910481169581169416929061130f9061267c565b80601f016020809104026020016040519081016040528092919081815260200182805461133b9061267c565b80156113885780601f1061135d57610100808354040283529160200191611388565b820191906000526020600020905b81548152906001019060200180831161136b57829003601f168201915b50505050509080600501805461139d9061267c565b80601f01602080910402602001604051908101604052809291908181526020018280546113c99061267c565b80156114165780601f106113eb57610100808354040283529160200191611416565b820191906000526020600020905b8154815290600101906020018083116113f957829003601f168201915b50505050509080600601805461142b9061267c565b80601f01602080910402602001604051908101604052809291908181526020018280546114579061267c565b80156114a45780601f10611479576101008083540402835291602001916114a4565b820191906000526020600020905b81548152906001019060200180831161148757829003601f168201915b5050505050908060070180546114b99061267c565b80601f01602080910402602001604051908101604052809291908181526020018280546114e59061267c565b80156115325780601f1061150757610100808354040283529160200191611532565b820191906000526020600020905b81548152906001019060200180831161151557829003601f168201915b5050505050908060080180546115479061267c565b80601f01602080910402602001604051908101604052809291908181526020018280546115739061267c565b80156115c05780601f10611595576101008083540402835291602001916115c0565b820191906000526020600020905b8154815290600101906020018083116115a357829003601f168201915b505050505090508b565b6115d2611be3565b60c980546001600160a01b039485166001600160a01b03199182161790915560ca80549385169382169390931790925560cb8054919093169116179055565b60ca546001600160a01b031633146116675760405162461bcd60e51b815260206004820152601960248201527827379020b1b1b2b9b9903337b9103a3434b99030b1ba34b7b760391b60448201526064016108e0565b600091825260cd602052604090912060030180546001600160a01b0319166001600160a01b03909216919091179055565b60038551116116e45760405162461bcd60e51b815260206004820152601860248201527710dbdb5b5d5b9a5d1e481b985b59481d1bdbc81cda1bdc9d60421b60448201526064016108e0565b600160cc60008282546116f79190612780565b909155505060cc54604080516101608101909152818152602081018560148111156117245761172461208e565b815260200184600181111561173b5761173b61208e565b8152336020808301919091526000604080840182905260608401829052608084018b905260a0840187905260c084018a90528051808401825282815260e0850152805180840182528281526101009094019390935284815260cd825291909120825181559082015160018083018054909160ff1991909116908360148111156117c6576117c661208e565b021790555060408201518160010160016101000a81548160ff021916908360018111156117f5576117f561208e565b021790555060608201516001820180546001600160a01b03928316620100000262010000600160b01b031990911617905560808301516002830180549183166001600160a01b031992831617905560a084015160038401805491909316911617905560c08201518051611872916004840191602090910190611fc6565b5060e0820151805161188e916005840191602090910190611fc6565b5061010082015180516118ab916006840191602090910190611fc6565b5061012082015180516118c8916007840191602090910190611fc6565b5061014082015180516118e5916008840191602090910190611fc6565b505033600090815260ce60209081526040822080546001810182559083529082200183905560cf91508560148111156119205761192061208e565b60148111156119315761193161208e565b815260208082019290925260409081016000908120805460018101825590825292902090910182905560cb54905163297d945560e21b8152600481018390526001600160a01b039091169063a5f65154906024016000604051808303816000875af11580156119a4573d6000803e3d6000fd5b505050506040513d6000823e601f3d908101601f191682016040526119cc9190810190612798565b60cd6000838152602001908152602001600020600701908051906020019061120c929190611fc6565b6119fd611be3565b6001600160a01b038116611a625760405162461bcd60e51b815260206004820152602660248201527f4f776e61626c653a206e6577206f776e657220697320746865207a65726f206160448201526564647265737360d01b60648201526084016108e0565b61097d81611c3d565b61097d611be3565b7f4910fdfa16fed3260ed0e7147f7cc6da11a60208b5b9406d12a635614ffd91435460ff1615611aab57611aa683611ce5565b505050565b826001600160a01b03166352d1902d6040518163ffffffff1660e01b8152600401602060405180830381865afa925050508015611b05575060408051601f3d908101601f19168201909252611b0291810190612806565b60015b611b685760405162461bcd60e51b815260206004820152602e60248201527f45524331393637557067726164653a206e657720696d706c656d656e7461746960448201526d6f6e206973206e6f74205555505360901b60648201526084016108e0565b60008051602061289a8339815191528114611bd75760405162461bcd60e51b815260206004820152602960248201527f45524331393637557067726164653a20756e737570706f727465642070726f786044820152681a58589b195555525160ba1b60648201526084016108e0565b50611aa6838383611d81565b6033546001600160a01b03163314610fd05760405162461bcd60e51b815260206004820181905260248201527f4f776e61626c653a2063616c6c6572206973206e6f7420746865206f776e657260448201526064016108e0565b603380546001600160a01b038381166001600160a01b0319831681179093556040519116919082907f8be0079c531659141344cd1fd0a4f28419497f9722a3daafe3b4186f6b6457e090600090a35050565b600054610100900460ff16611cb65760405162461bcd60e51b81526004016108e09061281f565b610fd0611dac565b600054610100900460ff16610fd05760405162461bcd60e51b81526004016108e09061281f565b6001600160a01b0381163b611d525760405162461bcd60e51b815260206004820152602d60248201527f455243313936373a206e657720696d706c656d656e746174696f6e206973206e60448201526c1bdd08184818dbdb9d1c9858dd609a1b60648201526084016108e0565b60008051602061289a83398151915280546001600160a01b0319166001600160a01b0392909216919091179055565b611d8a83611ddc565b600082511180611d975750805b15611aa657611da68383611e1c565b50505050565b600054610100900460ff16611dd35760405162461bcd60e51b81526004016108e09061281f565b610fd033611c3d565b611de581611ce5565b6040516001600160a01b038216907fbc7cd75a20ee27fd9adebab32041f755214dbc6bffa90cc0225b39da2e5c2d3b90600090a250565b60606001600160a01b0383163b611e845760405162461bcd60e51b815260206004820152602660248201527f416464726573733a2064656c65676174652063616c6c20746f206e6f6e2d636f6044820152651b9d1c9858dd60d21b60648201526084016108e0565b600080846001600160a01b031684604051611e9f919061286a565b600060405180830381855af49150503d8060008114611eda576040519150601f19603f3d011682016040523d82523d6000602084013e611edf565b606091505b5091509150611f0782826040518060600160405280602781526020016128ba60279139611f10565b95945050505050565b60608315611f1f575081611f49565b825115611f2f5782518084602001fd5b8160405162461bcd60e51b81526004016108e09190612886565b9392505050565b6040805161016081019091526000808252602082019081526020016000815260200160006001600160a01b0316815260200160006001600160a01b0316815260200160006001600160a01b0316815260200160608152602001606081526020016060815260200160608152602001606081525090565b828054611fd29061267c565b90600052602060002090601f016020900481019282611ff4576000855561203a565b82601f1061200d57805160ff191683800117855561203a565b8280016001018555821561203a579182015b8281111561203a57825182559160200191906001019061201f565b5061204692915061204a565b5090565b5b80821115612046576000815560010161204b565b80356015811061206e57600080fd5b919050565b60006020828403121561208557600080fd5b611f498261205f565b634e487b7160e01b600052602160045260246000fd5b601581106120b4576120b461208e565b9052565b600281106120b4576120b461208e565b60005b838110156120e35781810151838201526020016120cb565b83811115611da65750506000910152565b6000815180845261210c8160208601602086016120c8565b601f01601f19169290920160200192915050565b60006020808301818452808551808352604092508286019150828160051b87010184880160005b8381101561225257603f19898403018552815161016081518552888201516121718a8701826120a4565b5087820151612182898701826120b8565b506060828101516001600160a01b039081169187019190915260808084015182169087015260a0808401519091169086015260c0808301518187018390526121cc838801826120f4565b9250505060e080830151868303828801526121e783826120f4565b92505050610100808301518683038288015261220383826120f4565b92505050610120808301518683038288015261221f83826120f4565b92505050610140808301519250858203818701525061223e81836120f4565b968901969450505090860190600101612147565b509098975050505050505050565b80356001600160a01b038116811461206e57600080fd5b60006020828403121561228957600080fd5b611f4982612260565b600080604083850312156122a557600080fd5b6122ae8361205f565b946020939093013593505050565b634e487b7160e01b600052604160045260246000fd5b604051601f8201601f1916810167ffffffffffffffff811182821017156122fb576122fb6122bc565b604052919050565b600067ffffffffffffffff82111561231d5761231d6122bc565b50601f01601f191660200190565b600061233e61233984612303565b6122d2565b905082815283838301111561235257600080fd5b828260208301376000602084830101529392505050565b6000806040838503121561237c57600080fd5b61238583612260565b9150602083013567ffffffffffffffff8111156123a157600080fd5b8301601f810185136123b257600080fd5b6123c18582356020840161232b565b9150509250929050565b600082601f8301126123dc57600080fd5b611f498383356020850161232b565b80356002811061206e57600080fd5b600080600080600060a0868803121561241257600080fd5b85359450602086013567ffffffffffffffff8082111561243157600080fd5b61243d89838a016123cb565b9550604088013591508082111561245357600080fd5b61245f89838a016123cb565b945061246d606089016123eb565b9350608088013591508082111561248357600080fd5b50612490888289016123cb565b9150509295509295909350565b6000602082840312156124af57600080fd5b5035919050565b600080604083850312156124c957600080fd5b6122ae83612260565b600080604083850312156124e557600080fd5b823591506124f560208401612260565b90509250929050565b60006101608d8352612513602084018e6120a4565b612520604084018d6120b8565b6001600160a01b038b811660608501528a81166080850152891660a084015260c08301819052612552818401896120f4565b905082810360e084015261256681886120f4565b905082810361010084015261257b81876120f4565b905082810361012084015261259081866120f4565b90508281036101408401526125a581856120f4565b9e9d5050505050505050505050505050565b6000806000606084860312156125cc57600080fd5b6125d584612260565b92506125e360208501612260565b91506125f160408501612260565b90509250925092565b600080600080600060a0868803121561261257600080fd5b853567ffffffffffffffff8082111561262a57600080fd5b61263689838a016123cb565b9650602088013591508082111561264c57600080fd5b61265889838a016123cb565b955061245f6040890161205f565b634e487b7160e01b600052603260045260246000fd5b600181811c9082168061269057607f821691505b602082108114156126b157634e487b7160e01b600052602260045260246000fd5b50919050565b634e487b7160e01b600052601160045260246000fd5b60006000198214156126e1576126e16126b7565b5060010190565b6020808252602c908201527f46756e6374696f6e206d7573742062652063616c6c6564207468726f7567682060408201526b19195b1959d85d1958d85b1b60a21b606082015260800190565b6020808252602c908201527f46756e6374696f6e206d7573742062652063616c6c6564207468726f7567682060408201526b6163746976652070726f787960a01b606082015260800190565b60008219821115612793576127936126b7565b500190565b6000602082840312156127aa57600080fd5b815167ffffffffffffffff8111156127c157600080fd5b8201601f810184136127d257600080fd5b80516127e061233982612303565b8181528560208385010111156127f557600080fd5b611f078260208301602086016120c8565b60006020828403121561281857600080fd5b5051919050565b6020808252602b908201527f496e697469616c697a61626c653a20636f6e7472616374206973206e6f74206960408201526a6e697469616c697a696e6760a81b606082015260800190565b6000825161287c8184602087016120c8565b9190910192915050565b602081526000611f4960208301846120f456fe360894a13ba1a3210667c828492db98dca3e2076cc3735a920a3ca505d382bbc416464726573733a206c6f772d6c6576656c2064656c65676174652063616c6c206661696c6564a264697066735822122052cce874b7ec2566ab8ce99c3ed4f14c06c33897b1bfb98ed071717d38675f4b64736f6c634300080c0033",
  "linkReferences": {},
  "deployedLinkReferences": {}
}