{
  "_format": "hh-sol-artifact-1",
  "contractName": "MembersContract",
  "sourceName": "src/backend/contracts/MembersContract.sol",
  "abi": [
    {
      "inputs": [],
      "stateMutability": "nonpayable",
      "type": "constructor"
    },
    {
      "anonymous": false,
      "inputs": [
        {
          "indexed": false,
          "internalType": "address",
          "name": "previousAdmin",
          "type": "address"
        },
        {
          "indexed": false,
          "internalType": "address",
          "name": "newAdmin",
          "type": "address"
        }
      ],
      "name": "AdminChanged",
      "type": "event"
    },
    {
      "anonymous": false,
      "inputs": [
        {
          "indexed": true,
          "internalType": "address",
          "name": "beacon",
          "type": "address"
        }
      ],
      "name": "BeaconUpgraded",
      "type": "event"
    },
    {
      "anonymous": false,
      "inputs": [
        {
          "indexed": false,
          "internalType": "uint8",
          "name": "version",
          "type": "uint8"
        }
      ],
      "name": "Initialized",
      "type": "event"
    },
    {
      "anonymous": false,
      "inputs": [
        {
          "indexed": true,
          "internalType": "address",
          "name": "previousOwner",
          "type": "address"
        },
        {
          "indexed": true,
          "internalType": "address",
          "name": "newOwner",
          "type": "address"
        }
      ],
      "name": "OwnershipTransferred",
      "type": "event"
    },
    {
      "anonymous": false,
      "inputs": [
        {
          "indexed": true,
          "internalType": "address",
          "name": "implementation",
          "type": "address"
        }
      ],
      "name": "Upgraded",
      "type": "event"
    },
    {
      "inputs": [
        {
          "internalType": "uint256",
          "name": "_communityId",
          "type": "uint256"
        }
      ],
      "name": "createMemberTable",
      "outputs": [
        {
          "internalType": "string",
          "name": "",
          "type": "string"
        }
      ],
      "stateMutability": "payable",
      "type": "function"
    },
    {
      "inputs": [
        {
          "internalType": "address",
          "name": "_mainContractAddress",
          "type": "address"
        },
        {
          "internalType": "address",
          "name": "_registry",
          "type": "address"
        }
      ],
      "name": "initialize",
      "outputs": [],
      "stateMutability": "nonpayable",
      "type": "function"
    },
    {
      "inputs": [],
      "name": "owner",
      "outputs": [
        {
          "internalType": "address",
          "name": "",
          "type": "address"
        }
      ],
      "stateMutability": "view",
      "type": "function"
    },
    {
      "inputs": [],
      "name": "proxiableUUID",
      "outputs": [
        {
          "internalType": "bytes32",
          "name": "",
          "type": "bytes32"
        }
      ],
      "stateMutability": "view",
      "type": "function"
    },
    {
      "inputs": [],
      "name": "renounceOwnership",
      "outputs": [],
      "stateMutability": "nonpayable",
      "type": "function"
    },
    {
      "inputs": [
        {
          "internalType": "address",
          "name": "newOwner",
          "type": "address"
        }
      ],
      "name": "transferOwnership",
      "outputs": [],
      "stateMutability": "nonpayable",
      "type": "function"
    },
    {
      "inputs": [
        {
          "internalType": "address",
          "name": "newImplementation",
          "type": "address"
        }
      ],
      "name": "upgradeTo",
      "outputs": [],
      "stateMutability": "nonpayable",
      "type": "function"
    },
    {
      "inputs": [
        {
          "internalType": "address",
          "name": "newImplementation",
          "type": "address"
        },
        {
          "internalType": "bytes",
          "name": "data",
          "type": "bytes"
        }
      ],
      "name": "upgradeToAndCall",
      "outputs": [],
      "stateMutability": "payable",
      "type": "function"
    }
  ],
  "bytecode": "0x60a06040523060805234801561001457600080fd5b5061001d610022565b6100e2565b600054610100900460ff161561008e5760405162461bcd60e51b815260206004820152602760248201527f496e697469616c697a61626c653a20636f6e747261637420697320696e697469604482015266616c697a696e6760c81b606482015260840160405180910390fd5b60005460ff90811610156100e0576000805460ff191660ff9081179091556040519081527f7f26b83ff96e1f2b6a682f133852f6798a09c465da95921460cefb38474024989060200160405180910390a15b565b60805161137861011960003960008181610185015281816101ce015281816103e80152818161042801526104bb01526113786000f3fe60806040526004361061007b5760003560e01c8063715018a61161004e578063715018a6146100fd5780638da5cb5b14610112578063a5f651541461013a578063f2fde38b1461015a57600080fd5b80633659cfe614610080578063485cc955146100a25780634f1ef286146100c257806352d1902d146100d5575b600080fd5b34801561008c57600080fd5b506100a061009b366004610db6565b61017a565b005b3480156100ae57600080fd5b506100a06100bd366004610dd1565b610263565b6100a06100d0366004610e1a565b6103dd565b3480156100e157600080fd5b506100ea6104ae565b6040519081526020015b60405180910390f35b34801561010957600080fd5b506100a0610561565b34801561011e57600080fd5b506033546040516001600160a01b0390911681526020016100f4565b61014d610148366004610edc565b610575565b6040516100f49190610f4d565b34801561016657600080fd5b506100a0610175366004610db6565b6106a5565b306001600160a01b037f00000000000000000000000000000000000000000000000000000000000000001614156101cc5760405162461bcd60e51b81526004016101c390610f60565b60405180910390fd5b7f00000000000000000000000000000000000000000000000000000000000000006001600160a01b03166102156000805160206112fc833981519152546001600160a01b031690565b6001600160a01b03161461023b5760405162461bcd60e51b81526004016101c390610fac565b6102448161071b565b6040805160008082526020820190925261026091839190610723565b50565b600054610100900460ff16158080156102835750600054600160ff909116105b8061029d5750303b15801561029d575060005460ff166001145b6103005760405162461bcd60e51b815260206004820152602e60248201527f496e697469616c697a61626c653a20636f6e747261637420697320616c72656160448201526d191e481a5b9a5d1a585b1a5e995960921b60648201526084016101c3565b6000805460ff191660011790558015610323576000805461ff0019166101001790555b61032b61088e565b6103336108bd565b60c980546001600160a01b038086166001600160a01b03199283161790925560ca805492851692909116919091179055604080518082019091526007808252666d656d6265727360c81b60209092019182526103919160ce91610d01565b5080156103d8576000805461ff0019169055604051600181527f7f26b83ff96e1f2b6a682f133852f6798a09c465da95921460cefb38474024989060200160405180910390a15b505050565b306001600160a01b037f00000000000000000000000000000000000000000000000000000000000000001614156104265760405162461bcd60e51b81526004016101c390610f60565b7f00000000000000000000000000000000000000000000000000000000000000006001600160a01b031661046f6000805160206112fc833981519152546001600160a01b031690565b6001600160a01b0316146104955760405162461bcd60e51b81526004016101c390610fac565b61049e8261071b565b6104aa82826001610723565b5050565b6000306001600160a01b037f0000000000000000000000000000000000000000000000000000000000000000161461054e5760405162461bcd60e51b815260206004820152603860248201527f555550535570677261646561626c653a206d757374206e6f742062652063616c60448201527f6c6564207468726f7567682064656c656761746563616c6c000000000000000060648201526084016101c3565b506000805160206112fc83398151915290565b6105696108e4565b610573600061093e565b565b60ca5460cb80546001600160a01b0319166001600160a01b039092169182179055606090633a9151b03060ce6105aa46610990565b6040516020016105bb9291906110cd565b6040516020818303038152906040526040518363ffffffff1660e01b81526004016105e7929190611154565b6020604051808303816000875af1158015610606573d6000803e3d6000fd5b505050506040513d601f19601f8201168201806040525081019061062a9190611178565b60cc5560ce61063846610990565b61064360cc54610990565b60405160200161065593929190611191565b60405160208183030381529060405260cd9080519060200190610679929190610d01565b505060408051808201909152600e81526d5f6d657461646174615461626c6560901b6020820152919050565b6106ad6108e4565b6001600160a01b0381166107125760405162461bcd60e51b815260206004820152602660248201527f4f776e61626c653a206e6577206f776e657220697320746865207a65726f206160448201526564647265737360d01b60648201526084016101c3565b6102608161093e565b6102606108e4565b7f4910fdfa16fed3260ed0e7147f7cc6da11a60208b5b9406d12a635614ffd91435460ff1615610756576103d883610a96565b826001600160a01b03166352d1902d6040518163ffffffff1660e01b8152600401602060405180830381865afa9250505080156107b0575060408051601f3d908101601f191682019092526107ad91810190611178565b60015b6108135760405162461bcd60e51b815260206004820152602e60248201527f45524331393637557067726164653a206e657720696d706c656d656e7461746960448201526d6f6e206973206e6f74205555505360901b60648201526084016101c3565b6000805160206112fc83398151915281146108825760405162461bcd60e51b815260206004820152602960248201527f45524331393637557067726164653a20756e737570706f727465642070726f786044820152681a58589b195555525160ba1b60648201526084016101c3565b506103d8838383610b32565b600054610100900460ff166108b55760405162461bcd60e51b81526004016101c3906111e0565b610573610b5d565b600054610100900460ff166105735760405162461bcd60e51b81526004016101c3906111e0565b6033546001600160a01b031633146105735760405162461bcd60e51b815260206004820181905260248201527f4f776e61626c653a2063616c6c6572206973206e6f7420746865206f776e657260448201526064016101c3565b603380546001600160a01b038381166001600160a01b0319831681179093556040519116919082907f8be0079c531659141344cd1fd0a4f28419497f9722a3daafe3b4186f6b6457e090600090a35050565b6060816109b45750506040805180820190915260018152600360fc1b602082015290565b8160005b81156109de57806109c881611241565b91506109d79050600a83611272565b91506109b8565b60008167ffffffffffffffff8111156109f9576109f9610e04565b6040519080825280601f01601f191660200182016040528015610a23576020820181803683370190505b5090505b8415610a8e57610a38600183611286565b9150610a45600a8661129d565b610a509060306112b1565b60f81b818381518110610a6557610a656112c9565b60200101906001600160f81b031916908160001a905350610a87600a86611272565b9450610a27565b949350505050565b6001600160a01b0381163b610b035760405162461bcd60e51b815260206004820152602d60248201527f455243313936373a206e657720696d706c656d656e746174696f6e206973206e60448201526c1bdd08184818dbdb9d1c9858dd609a1b60648201526084016101c3565b6000805160206112fc83398151915280546001600160a01b0319166001600160a01b0392909216919091179055565b610b3b83610b8d565b600082511180610b485750805b156103d857610b578383610bcd565b50505050565b600054610100900460ff16610b845760405162461bcd60e51b81526004016101c3906111e0565b6105733361093e565b610b9681610a96565b6040516001600160a01b038216907fbc7cd75a20ee27fd9adebab32041f755214dbc6bffa90cc0225b39da2e5c2d3b90600090a250565b60606001600160a01b0383163b610c355760405162461bcd60e51b815260206004820152602660248201527f416464726573733a2064656c65676174652063616c6c20746f206e6f6e2d636f6044820152651b9d1c9858dd60d21b60648201526084016101c3565b600080846001600160a01b031684604051610c5091906112df565b600060405180830381855af49150503d8060008114610c8b576040519150601f19603f3d011682016040523d82523d6000602084013e610c90565b606091505b5091509150610cb8828260405180606001604052806027815260200161131c60279139610cc1565b95945050505050565b60608315610cd0575081610cfa565b825115610ce05782518084602001fd5b8160405162461bcd60e51b81526004016101c39190610f4d565b9392505050565b828054610d0d90610ff8565b90600052602060002090601f016020900481019282610d2f5760008555610d75565b82601f10610d4857805160ff1916838001178555610d75565b82800160010185558215610d75579182015b82811115610d75578251825591602001919060010190610d5a565b50610d81929150610d85565b5090565b5b80821115610d815760008155600101610d86565b80356001600160a01b0381168114610db157600080fd5b919050565b600060208284031215610dc857600080fd5b610cfa82610d9a565b60008060408385031215610de457600080fd5b610ded83610d9a565b9150610dfb60208401610d9a565b90509250929050565b634e487b7160e01b600052604160045260246000fd5b60008060408385031215610e2d57600080fd5b610e3683610d9a565b9150602083013567ffffffffffffffff80821115610e5357600080fd5b818501915085601f830112610e6757600080fd5b813581811115610e7957610e79610e04565b604051601f8201601f19908116603f01168101908382118183101715610ea157610ea1610e04565b81604052828152886020848701011115610eba57600080fd5b8260208601602083013760006020848301015280955050505050509250929050565b600060208284031215610eee57600080fd5b5035919050565b60005b83811015610f10578181015183820152602001610ef8565b83811115610b575750506000910152565b60008151808452610f39816020860160208601610ef5565b601f01601f19169290920160200192915050565b602081526000610cfa6020830184610f21565b6020808252602c908201527f46756e6374696f6e206d7573742062652063616c6c6564207468726f7567682060408201526b19195b1959d85d1958d85b1b60a21b606082015260800190565b6020808252602c908201527f46756e6374696f6e206d7573742062652063616c6c6564207468726f7567682060408201526b6163746976652070726f787960a01b606082015260800190565b600181811c9082168061100c57607f821691505b6020821081141561102d57634e487b7160e01b600052602260045260246000fd5b50919050565b8054600090600181811c908083168061104d57607f831692505b602080841082141561106f57634e487b7160e01b600052602260045260246000fd5b8180156110835760018114611094576110c1565b60ff198616895284890196506110c1565b60008881526020902060005b868110156110b95781548b8201529085019083016110a0565b505084890196505b50505050505092915050565b6c021a922a0aa22902a20a126229609d1b815260006110ef600d830185611033565b605f60f81b81528351611109816001840160208801610ef5565b7f2028696420696e742c2065787465726e616c5f6c696e6b20746578742c207820600192909101918201526b696e742c207920696e74293b60a01b6021820152602d01949350505050565b6001600160a01b0383168152604060208201819052600090610a8e90830184610f21565b60006020828403121561118a57600080fd5b5051919050565b600061119d8286611033565b605f60f81b80825285516111b8816001850160208a01610ef5565b600192019182015283516111d3816002840160208801610ef5565b0160020195945050505050565b6020808252602b908201527f496e697469616c697a61626c653a20636f6e7472616374206973206e6f74206960408201526a6e697469616c697a696e6760a81b606082015260800190565b634e487b7160e01b600052601160045260246000fd5b60006000198214156112555761125561122b565b5060010190565b634e487b7160e01b600052601260045260246000fd5b6000826112815761128161125c565b500490565b6000828210156112985761129861122b565b500390565b6000826112ac576112ac61125c565b500690565b600082198211156112c4576112c461122b565b500190565b634e487b7160e01b600052603260045260246000fd5b600082516112f1818460208701610ef5565b919091019291505056fe360894a13ba1a3210667c828492db98dca3e2076cc3735a920a3ca505d382bbc416464726573733a206c6f772d6c6576656c2064656c65676174652063616c6c206661696c6564a2646970667358221220fbabd80ede66b3f36b417ec40b9d29c7402141d9fd598f9d0a009d9e2c6a246664736f6c634300080c0033",
  "linkReferences": {},
  "deployedLinkReferences": {}
}