{
  "_format": "hh-sol-artifact-1",
  "contractName": "FactoryFTContract",
  "sourceName": "src/backend/contracts/FactoryFTContract.sol",
  "abi": [
    {
      "inputs": [],
      "stateMutability": "nonpayable",
      "type": "constructor"
    },
    {
      "anonymous": false,
      "inputs": [
        {
          "indexed": false,
          "internalType": "address",
          "name": "previousAdmin",
          "type": "address"
        },
        {
          "indexed": false,
          "internalType": "address",
          "name": "newAdmin",
          "type": "address"
        }
      ],
      "name": "AdminChanged",
      "type": "event"
    },
    {
      "anonymous": false,
      "inputs": [
        {
          "indexed": true,
          "internalType": "address",
          "name": "beacon",
          "type": "address"
        }
      ],
      "name": "BeaconUpgraded",
      "type": "event"
    },
    {
      "anonymous": false,
      "inputs": [
        {
          "indexed": false,
          "internalType": "uint8",
          "name": "version",
          "type": "uint8"
        }
      ],
      "name": "Initialized",
      "type": "event"
    },
    {
      "anonymous": false,
      "inputs": [
        {
          "indexed": true,
          "internalType": "address",
          "name": "previousOwner",
          "type": "address"
        },
        {
          "indexed": true,
          "internalType": "address",
          "name": "newOwner",
          "type": "address"
        }
      ],
      "name": "OwnershipTransferred",
      "type": "event"
    },
    {
      "anonymous": false,
      "inputs": [
        {
          "indexed": true,
          "internalType": "address",
          "name": "implementation",
          "type": "address"
        }
      ],
      "name": "Upgraded",
      "type": "event"
    },
    {
      "inputs": [
        {
          "internalType": "uint256",
          "name": "_communityId",
          "type": "uint256"
        },
        {
          "internalType": "string",
          "name": "_name",
          "type": "string"
        },
        {
          "internalType": "string",
          "name": "_symbol",
          "type": "string"
        },
        {
          "internalType": "uint256",
          "name": "_supply",
          "type": "uint256"
        }
      ],
      "name": "deployFTContract",
      "outputs": [],
      "stateMutability": "nonpayable",
      "type": "function"
    },
    {
      "inputs": [
        {
          "internalType": "address",
          "name": "_mainContractAddress",
          "type": "address"
        },
        {
          "internalType": "contract IWorldID",
          "name": "_worldId",
          "type": "address"
        }
      ],
      "name": "initialize",
      "outputs": [],
      "stateMutability": "nonpayable",
      "type": "function"
    },
    {
      "inputs": [],
      "name": "owner",
      "outputs": [
        {
          "internalType": "address",
          "name": "",
          "type": "address"
        }
      ],
      "stateMutability": "view",
      "type": "function"
    },
    {
      "inputs": [],
      "name": "proxiableUUID",
      "outputs": [
        {
          "internalType": "bytes32",
          "name": "",
          "type": "bytes32"
        }
      ],
      "stateMutability": "view",
      "type": "function"
    },
    {
      "inputs": [],
      "name": "renounceOwnership",
      "outputs": [],
      "stateMutability": "nonpayable",
      "type": "function"
    },
    {
      "inputs": [
        {
          "internalType": "address",
          "name": "newOwner",
          "type": "address"
        }
      ],
      "name": "transferOwnership",
      "outputs": [],
      "stateMutability": "nonpayable",
      "type": "function"
    },
    {
      "inputs": [
        {
          "internalType": "address",
          "name": "newImplementation",
          "type": "address"
        }
      ],
      "name": "upgradeTo",
      "outputs": [],
      "stateMutability": "nonpayable",
      "type": "function"
    },
    {
      "inputs": [
        {
          "internalType": "address",
          "name": "newImplementation",
          "type": "address"
        },
        {
          "internalType": "bytes",
          "name": "data",
          "type": "bytes"
        }
      ],
      "name": "upgradeToAndCall",
      "outputs": [],
      "stateMutability": "payable",
      "type": "function"
    }
  ],
  "bytecode": "0x60a06040523060805234801561001457600080fd5b5061001d610022565b6100e2565b600054610100900460ff161561008e5760405162461bcd60e51b815260206004820152602760248201527f496e697469616c697a61626c653a20636f6e747261637420697320696e697469604482015266616c697a696e6760c81b606482015260840160405180910390fd5b60005460ff90811610156100e0576000805460ff191660ff9081179091556040519081527f7f26b83ff96e1f2b6a682f133852f6798a09c465da95921460cefb38474024989060200160405180910390a15b565b6080516135a7610119600039600081816101af015281816101fb015281816103fa0152818161043d01526104d901526135a76000f3fe608060405260043610620000855760003560e01c8063715018a61162000054578063715018a614620001185780638da5cb5b1462000130578063ee01380d146200015a578063f2fde38b146200017f57600080fd5b80633659cfe6146200008a578063485cc95514620000b15780634f1ef28614620000d657806352d1902d14620000ed575b600080fd5b3480156200009757600080fd5b50620000af620000a936600462000e56565b620001a4565b005b348015620000be57600080fd5b50620000af620000d036600462000e76565b62000299565b620000af620000e736600462000f47565b620003ef565b348015620000fa57600080fd5b5062000105620004cc565b6040519081526020015b60405180910390f35b3480156200012557600080fd5b50620000af62000582565b3480156200013d57600080fd5b506033546040516001600160a01b0390911681526020016200010f565b3480156200016757600080fd5b50620000af6200017936600462000fd5565b6200059a565b3480156200018c57600080fd5b50620000af6200019e36600462000e56565b6200089f565b306001600160a01b037f0000000000000000000000000000000000000000000000000000000000000000161415620001f95760405162461bcd60e51b8152600401620001f09062001051565b60405180910390fd5b7f00000000000000000000000000000000000000000000000000000000000000006001600160a01b0316620002446000805160206200352b833981519152546001600160a01b031690565b6001600160a01b0316146200026d5760405162461bcd60e51b8152600401620001f0906200109d565b62000278816200091b565b60408051600080825260208201909252620002969183919062000925565b50565b600054610100900460ff1615808015620002ba5750600054600160ff909116105b80620002d65750303b158015620002d6575060005460ff166001145b6200033b5760405162461bcd60e51b815260206004820152602e60248201527f496e697469616c697a61626c653a20636f6e747261637420697320616c72656160448201526d191e481a5b9a5d1a585b1a5e995960921b6064820152608401620001f0565b6000805460ff1916600117905580156200035f576000805461ff0019166101001790555b6200036962000a9d565b6200037362000ad1565b60c980546001600160a01b038086166001600160a01b03199283161790925560cb8054928516929091169190911790558015620003ea576000805461ff0019169055604051600181527f7f26b83ff96e1f2b6a682f133852f6798a09c465da95921460cefb38474024989060200160405180910390a15b505050565b306001600160a01b037f00000000000000000000000000000000000000000000000000000000000000001614156200043b5760405162461bcd60e51b8152600401620001f09062001051565b7f00000000000000000000000000000000000000000000000000000000000000006001600160a01b0316620004866000805160206200352b833981519152546001600160a01b031690565b6001600160a01b031614620004af5760405162461bcd60e51b8152600401620001f0906200109d565b620004ba826200091b565b620004c88282600162000925565b5050565b6000306001600160a01b037f000000000000000000000000000000000000000000000000000000000000000016146200056e5760405162461bcd60e51b815260206004820152603860248201527f555550535570677261646561626c653a206d757374206e6f742062652063616c60448201527f6c6564207468726f7567682064656c656761746563616c6c00000000000000006064820152608401620001f0565b506000805160206200352b83398151915290565b6200058c62000afb565b62000598600062000b57565b565b600383511015620006065760405162461bcd60e51b815260206004820152602f60248201527f436f6c6c656374696f6e206e616d652073686f756c64206265206c6f6e67657260448201526e207468616e20322073796d626f6c7360881b6064820152608401620001f0565b60038251101580156200061b57506005825111155b620006735760405162461bcd60e51b815260206004820152602160248201527f53796d626f6c206c656e6774682073686f756c6420626520332d3520636861726044820152607360f81b6064820152608401620001f0565b60008111620006bb5760405162461bcd60e51b815260206004820152601360248201527215dc9bdb99c81cdd5c1c1b1e48185b5bdd5b9d606a1b6044820152606401620001f0565b60c954604051635b25bfbb60e11b8152600481018690526000916001600160a01b03169063b64b7f76906024016040805180830381865afa15801562000705573d6000803e3d6000fd5b505050506040513d601f19601f820116820180604052508101906200072b9190620010ff565b9150508015620007895760405162461bcd60e51b815260206004820152602260248201527f436f6d6d756e69747920616c7265616479206861766520465420436f6e74726160448201526118dd60f21b6064820152608401620001f0565b60c95460cb546040516000926001600160a01b03908116928892889233928992911690620007b79062000e32565b620007c89695949392919062001194565b604051809103906000f080158015620007e5573d6000803e3d6000fd5b5060ca80546001810182556000919091527f42d72674974f694b5f5159593243114d38a5c39c89d6b62fee061ff523240ee10180546001600160a01b0319166001600160a01b0383811691821790925560c95460405163e87d940b60e01b8152600481018b9052602481019290925292935091169063e87d940b90604401600060405180830381600087803b1580156200087e57600080fd5b505af115801562000893573d6000803e3d6000fd5b50505050505050505050565b620008a962000afb565b6001600160a01b038116620009105760405162461bcd60e51b815260206004820152602660248201527f4f776e61626c653a206e6577206f776e657220697320746865207a65726f206160448201526564647265737360d01b6064820152608401620001f0565b620002968162000b57565b6200029662000afb565b7f4910fdfa16fed3260ed0e7147f7cc6da11a60208b5b9406d12a635614ffd91435460ff16156200095b57620003ea8362000ba9565b826001600160a01b03166352d1902d6040518163ffffffff1660e01b8152600401602060405180830381865afa925050508015620009b8575060408051601f3d908101601f19168201909252620009b591810190620011ed565b60015b62000a1d5760405162461bcd60e51b815260206004820152602e60248201527f45524331393637557067726164653a206e657720696d706c656d656e7461746960448201526d6f6e206973206e6f74205555505360901b6064820152608401620001f0565b6000805160206200352b833981519152811462000a8f5760405162461bcd60e51b815260206004820152602960248201527f45524331393637557067726164653a20756e737570706f727465642070726f786044820152681a58589b195555525160ba1b6064820152608401620001f0565b50620003ea83838362000c48565b600054610100900460ff1662000ac75760405162461bcd60e51b8152600401620001f09062001207565b6200059862000c79565b600054610100900460ff16620005985760405162461bcd60e51b8152600401620001f09062001207565b6033546001600160a01b03163314620005985760405162461bcd60e51b815260206004820181905260248201527f4f776e61626c653a2063616c6c6572206973206e6f7420746865206f776e65726044820152606401620001f0565b603380546001600160a01b038381166001600160a01b0319831681179093556040519116919082907f8be0079c531659141344cd1fd0a4f28419497f9722a3daafe3b4186f6b6457e090600090a35050565b6001600160a01b0381163b62000c185760405162461bcd60e51b815260206004820152602d60248201527f455243313936373a206e657720696d706c656d656e746174696f6e206973206e60448201526c1bdd08184818dbdb9d1c9858dd609a1b6064820152608401620001f0565b6000805160206200352b83398151915280546001600160a01b0319166001600160a01b0392909216919091179055565b62000c538362000cae565b60008251118062000c615750805b15620003ea5762000c73838362000cf0565b50505050565b600054610100900460ff1662000ca35760405162461bcd60e51b8152600401620001f09062001207565b620005983362000b57565b62000cb98162000ba9565b6040516001600160a01b038216907fbc7cd75a20ee27fd9adebab32041f755214dbc6bffa90cc0225b39da2e5c2d3b90600090a250565b60606001600160a01b0383163b62000d5a5760405162461bcd60e51b815260206004820152602660248201527f416464726573733a2064656c65676174652063616c6c20746f206e6f6e2d636f6044820152651b9d1c9858dd60d21b6064820152608401620001f0565b600080846001600160a01b03168460405162000d77919062001252565b600060405180830381855af49150503d806000811462000db4576040519150601f19603f3d011682016040523d82523d6000602084013e62000db9565b606091505b509150915062000de482826040518060600160405280602781526020016200354b6027913962000ded565b95945050505050565b6060831562000dfe57508162000e2b565b82511562000e0f5782518084602001fd5b8160405162461bcd60e51b8152600401620001f0919062001270565b9392505050565b6122a5806200128683390190565b6001600160a01b03811681146200029657600080fd5b60006020828403121562000e6957600080fd5b813562000e2b8162000e40565b6000806040838503121562000e8a57600080fd5b823562000e978162000e40565b9150602083013562000ea98162000e40565b809150509250929050565b634e487b7160e01b600052604160045260246000fd5b600067ffffffffffffffff8084111562000ee85762000ee862000eb4565b604051601f8501601f19908116603f0116810190828211818310171562000f135762000f1362000eb4565b8160405280935085815286868601111562000f2d57600080fd5b858560208301376000602087830101525050509392505050565b6000806040838503121562000f5b57600080fd5b823562000f688162000e40565b9150602083013567ffffffffffffffff81111562000f8557600080fd5b8301601f8101851362000f9757600080fd5b62000fa88582356020840162000eca565b9150509250929050565b600082601f83011262000fc457600080fd5b62000e2b8383356020850162000eca565b6000806000806080858703121562000fec57600080fd5b84359350602085013567ffffffffffffffff808211156200100c57600080fd5b6200101a8883890162000fb2565b945060408701359150808211156200103157600080fd5b50620010408782880162000fb2565b949793965093946060013593505050565b6020808252602c908201527f46756e6374696f6e206d7573742062652063616c6c6564207468726f7567682060408201526b19195b1959d85d1958d85b1b60a21b606082015260800190565b6020808252602c908201527f46756e6374696f6e206d7573742062652063616c6c6564207468726f7567682060408201526b6163746976652070726f787960a01b606082015260800190565b80518015158114620010fa57600080fd5b919050565b600080604083850312156200111357600080fd5b6200111e83620010e9565b91506200112e60208401620010e9565b90509250929050565b60005b83811015620011545781810151838201526020016200113a565b8381111562000c735750506000910152565b600081518084526200118081602086016020860162001137565b601f01601f19169290920160200192915050565b600060018060a01b03808916835260c06020840152620011b860c084018962001166565b8381036040850152620011cc818962001166565b968216606085015250608083019490945250911660a0909101529392505050565b6000602082840312156200120057600080fd5b5051919050565b6020808252602b908201527f496e697469616c697a61626c653a20636f6e7472616374206973206e6f74206960408201526a6e697469616c697a696e6760a81b606082015260800190565b600082516200126681846020870162001137565b9190910192915050565b60208152600062000e2b60208301846200116656fe60c0604052600160a0523480156200001657600080fd5b50604051620022a5380380620022a5833981016040819052620000399162000508565b845185908590620000529060039060208501906200037f565b508051620000689060049060208401906200037f565b50506005805460ff19169055506200008033620000dc565b6200009f836200009984670de0b6b3a7640000620005d2565b62000136565b620000aa836200022d565b6001600160a01b03908116608052600680546001600160a01b0319169690911695909517909455506200064c92505050565b600580546001600160a01b03838116610100818102610100600160a81b031985161790945560405193909204169182907f8be0079c531659141344cd1fd0a4f28419497f9722a3daafe3b4186f6b6457e090600090a35050565b6001600160a01b038216620001925760405162461bcd60e51b815260206004820152601f60248201527f45524332303a206d696e7420746f20746865207a65726f20616464726573730060448201526064015b60405180910390fd5b620001a060008383620002ac565b8060026000828254620001b49190620005f4565b90915550506001600160a01b03821660009081526020819052604081208054839290620001e3908490620005f4565b90915550506040518181526001600160a01b038316906000907fddf252ad1be2c89b69c2b068fc378daa952ba7f163c4a11628f55a4df523b3ef9060200160405180910390a35050565b62000237620002d3565b6001600160a01b0381166200029e5760405162461bcd60e51b815260206004820152602660248201527f4f776e61626c653a206e6577206f776e657220697320746865207a65726f206160448201526564647265737360d01b606482015260840162000189565b620002a981620000dc565b50565b620002b662000337565b620002ce838383620002ce60201b62000af71760201c565b505050565b6005546001600160a01b03610100909104163314620003355760405162461bcd60e51b815260206004820181905260248201527f4f776e61626c653a2063616c6c6572206973206e6f7420746865206f776e6572604482015260640162000189565b565b60055460ff1615620003355760405162461bcd60e51b815260206004820152601060248201526f14185d5cd8589b194e881c185d5cd95960821b604482015260640162000189565b8280546200038d906200060f565b90600052602060002090601f016020900481019282620003b15760008555620003fc565b82601f10620003cc57805160ff1916838001178555620003fc565b82800160010185558215620003fc579182015b82811115620003fc578251825591602001919060010190620003df565b506200040a9291506200040e565b5090565b5b808211156200040a57600081556001016200040f565b6001600160a01b0381168114620002a957600080fd5b634e487b7160e01b600052604160045260246000fd5b600082601f8301126200046357600080fd5b81516001600160401b03808211156200048057620004806200043b565b604051601f8301601f19908116603f01168101908282118183101715620004ab57620004ab6200043b565b81604052838152602092508683858801011115620004c857600080fd5b600091505b83821015620004ec5785820183015181830184015290820190620004cd565b83821115620004fe5760008385830101525b9695505050505050565b60008060008060008060c087890312156200052257600080fd5b86516200052f8162000425565b60208801519096506001600160401b03808211156200054d57600080fd5b6200055b8a838b0162000451565b965060408901519150808211156200057257600080fd5b506200058189828a0162000451565b9450506060870151620005948162000425565b608088015160a08901519194509250620005ae8162000425565b809150509295509295509295565b634e487b7160e01b600052601160045260246000fd5b6000816000190483118215151615620005ef57620005ef620005bc565b500290565b600082198211156200060a576200060a620005bc565b500190565b600181811c908216806200062457607f821691505b602082108114156200064657634e487b7160e01b600052602260045260246000fd5b50919050565b60805160a051611c396200066c6000396000505060005050611c396000f3fe60806040526004361061012a5760003560e01c806369b0aafa116100ab57806395d89b411161006f57806395d89b4114610313578063a457c2d714610328578063a6b0363314610348578063a9059cbb1461036a578063dd62ed3e1461038a578063f2fde38b146103aa57600080fd5b806369b0aafa1461026757806370a082311461027d578063715018a6146102b35780638456cb59146102c85780638da5cb5b146102dd57600080fd5b8063313ce567116100f2578063313ce567146101de578063381da488146101fa578063395093511461021a5780633f4ba83a1461023a5780635c975abb1461024f57600080fd5b806306fdde031461012f578063095ea7b31461015a578063140050501461018a57806318160ddd1461019f57806323b872dd146101be575b600080fd5b34801561013b57600080fd5b506101446103ca565b60405161015191906116d3565b60405180910390f35b34801561016657600080fd5b5061017a610175366004611702565b61045c565b6040519015158152602001610151565b61019d6101983660046117e3565b610474565b005b3480156101ab57600080fd5b506002545b604051908152602001610151565b3480156101ca57600080fd5b5061017a6101d93660046118f1565b6106b7565b3480156101ea57600080fd5b5060405160128152602001610151565b34801561020657600080fd5b5061019d61021536600461192d565b6106db565b34801561022657600080fd5b5061017a610235366004611702565b610afc565b34801561024657600080fd5b5061019d610b1e565b34801561025b57600080fd5b5060055460ff1661017a565b34801561027357600080fd5b506101b060075481565b34801561028957600080fd5b506101b0610298366004611946565b6001600160a01b031660009081526020819052604090205490565b3480156102bf57600080fd5b5061019d610b30565b3480156102d457600080fd5b5061019d610b42565b3480156102e957600080fd5b5060055461010090046001600160a01b03166040516001600160a01b039091168152602001610151565b34801561031f57600080fd5b50610144610b52565b34801561033457600080fd5b5061017a610343366004611702565b610b61565b34801561035457600080fd5b5061035d610bdc565b60405161015191906119dd565b34801561037657600080fd5b5061017a610385366004611702565b610daf565b34801561039657600080fd5b506101b06103a5366004611ac5565b610dbd565b3480156103b657600080fd5b5061019d6103c5366004611946565b610de8565b6060600380546103d990611af8565b80601f016020809104026020016040519081016040528092919081815260200182805461040590611af8565b80156104525780601f1061042757610100808354040283529160200191610452565b820191906000526020600020905b81548152906001019060200180831161043557829003601f168201915b5050505050905090565b60003361046a818585610e61565b5060019392505050565b61047c610f85565b848611156104d15760405162461bcd60e51b815260206004820152601960248201527f57726f6e672063616d706169676e20646174652072616e67650000000000000060448201526064015b60405180910390fd5b600060048860058111156104e7576104e7611961565b14156104fe576104fb620f423f6001610fe5565b90505b6040516323b872dd60e01b8152336004820152306024820181905260448201859052906323b872dd906064016020604051808303816000875af1158015610549573d6000803e3d6000fd5b505050506040513d601f19601f8201168201806040525081019061056d9190611b33565b506001600760008282546105819190611b6b565b9250508190555060086040518061014001604052806007548152602001858152602001600081526020018481526020018981526020018881526020018381526020018a60058111156105d5576105d5611961565b8152602080820189905260409182018890528354600181810186556000958652948290208451600a909202019081559083015181850155908201516002820155606082015160038201556080820151600482015560a082015160058083019190915560c0830151600683015560e0830151600783018054949593949193909260ff1990921691849081111561066c5761066c611961565b0217905550610100820151805161068d916008840191602090910190611426565b5061012082015180516106aa91600984019160209091019061148b565b5050505050505050505050565b6000336106c5858285611059565b6106d08585856110cd565b506001949350505050565b6106e3610f85565b6106eb6114ff565b60005b600754811015610a6e57826008828154811061070c5761070c611b83565b90600052602060002090600a0201600001541415610a5e576008818154811061073757610737611b83565b90600052602060002090600a020160405180610140016040529081600082015481526020016001820154815260200160028201548152602001600382015481526020016004820154815260200160058201548152602001600682015481526020016007820160009054906101000a900460ff1660058111156107bb576107bb611961565b60058111156107cc576107cc611961565b81526020016008820180548060200260200160405190810160405280929190818152602001828054801561082957602002820191906000526020600020905b81546001600160a01b0316815260019091019060200180831161080b575b5050505050815260200160098201805461084290611af8565b80601f016020809104026020016040519081016040528092919081815260200182805461086e90611af8565b80156108bb5780601f10610890576101008083540402835291602001916108bb565b820191906000526020600020905b81548152906001019060200180831161089e57829003601f168201915b5050505050815250509150600160088054905011156109de57600860016007546108e59190611b99565b815481106108f5576108f5611b83565b90600052602060002090600a02016008828154811061091657610916611b83565b90600052602060002090600a0201600082015481600001556001820154816001015560028201548160020155600382015481600301556004820154816004015560058201548160050155600682015481600601556007820160009054906101000a900460ff168160070160006101000a81548160ff021916908360058111156109a1576109a1611961565b0217905550600882810180546109ba9284019190611563565b5060098201816009019080546109cf90611af8565b6109da9291906115a3565b5050505b60088054806109ef576109ef611bb0565b600082815260208120600a6000199093019283020181815560018101829055600281018290556003810182905560048101829055600581018290556006810182905560078101805460ff1916905590610a4b600883018261161d565b610a5960098301600061163b565b505090555b610a6781611bc6565b90506106ee565b50600081604001518260200151610a859190611b99565b90508015610af75760405163a9059cbb60e01b815233600482015260248101829052309063a9059cbb906044016020604051808303816000875af1158015610ad1573d6000803e3d6000fd5b505050506040513d601f19601f82011682018060405250810190610af59190611b33565b505b505050565b60003361046a818585610b0f8383610dbd565b610b199190611b6b565b610e61565b610b26610f85565b610b2e6112a6565b565b610b38610f85565b610b2e60006112f8565b610b4a610f85565b610b2e611352565b6060600480546103d990611af8565b60003381610b6f8286610dbd565b905083811015610bcf5760405162461bcd60e51b815260206004820152602560248201527f45524332303a2064656372656173656420616c6c6f77616e63652062656c6f77604482015264207a65726f60d81b60648201526084016104c8565b6106d08286868403610e61565b60606008805480602002602001604051908101604052809291908181526020016000905b82821015610da657838290600052602060002090600a020160405180610140016040529081600082015481526020016001820154815260200160028201548152602001600382015481526020016004820154815260200160058201548152602001600682015481526020016007820160009054906101000a900460ff166005811115610c8e57610c8e611961565b6005811115610c9f57610c9f611961565b815260200160088201805480602002602001604051908101604052809291908181526020018280548015610cfc57602002820191906000526020600020905b81546001600160a01b03168152600190910190602001808311610cde575b50505050508152602001600982018054610d1590611af8565b80601f0160208091040260200160405190810160405280929190818152602001828054610d4190611af8565b8015610d8e5780601f10610d6357610100808354040283529160200191610d8e565b820191906000526020600020905b815481529060010190602001808311610d7157829003601f168201915b50505050508152505081526020019060010190610c00565b50505050905090565b60003361046a8185856110cd565b6001600160a01b03918216600090815260016020908152604080832093909416825291909152205490565b610df0610f85565b6001600160a01b038116610e555760405162461bcd60e51b815260206004820152602660248201527f4f776e61626c653a206e6577206f776e657220697320746865207a65726f206160448201526564647265737360d01b60648201526084016104c8565b610e5e816112f8565b50565b6001600160a01b038316610ec35760405162461bcd60e51b8152602060048201526024808201527f45524332303a20617070726f76652066726f6d20746865207a65726f206164646044820152637265737360e01b60648201526084016104c8565b6001600160a01b038216610f245760405162461bcd60e51b815260206004820152602260248201527f45524332303a20617070726f766520746f20746865207a65726f206164647265604482015261737360f01b60648201526084016104c8565b6001600160a01b0383811660008181526001602090815260408083209487168084529482529182902085905590518481527f8c5be1e5ebec7d5bd14f71427d1e84f3dd0314c0f7b2291e5b200ac8c7c3b925910160405180910390a3505050565b6005546001600160a01b03610100909104163314610b2e5760405162461bcd60e51b815260206004820181905260248201527f4f776e61626c653a2063616c6c6572206973206e6f7420746865206f776e657260448201526064016104c8565b6040516001600160f81b031960f883901b1660208201526bffffffffffffffffffffffff193360601b1660218201524460358201524260558201526001607582015260009083906095016040516020818303038152906040528051906020012060001c6110529190611be1565b9392505050565b60006110658484610dbd565b90506000198114610af557818110156110c05760405162461bcd60e51b815260206004820152601d60248201527f45524332303a20696e73756666696369656e7420616c6c6f77616e636500000060448201526064016104c8565b610af58484848403610e61565b6001600160a01b0383166111315760405162461bcd60e51b815260206004820152602560248201527f45524332303a207472616e736665722066726f6d20746865207a65726f206164604482015264647265737360d81b60648201526084016104c8565b6001600160a01b0382166111935760405162461bcd60e51b815260206004820152602360248201527f45524332303a207472616e7366657220746f20746865207a65726f206164647260448201526265737360e81b60648201526084016104c8565b61119e83838361138f565b6001600160a01b038316600090815260208190526040902054818110156112165760405162461bcd60e51b815260206004820152602660248201527f45524332303a207472616e7366657220616d6f756e7420657863656564732062604482015265616c616e636560d01b60648201526084016104c8565b6001600160a01b0380851660009081526020819052604080822085850390559185168152908120805484929061124d908490611b6b565b92505081905550826001600160a01b0316846001600160a01b03167fddf252ad1be2c89b69c2b068fc378daa952ba7f163c4a11628f55a4df523b3ef8460405161129991815260200190565b60405180910390a3610af5565b6112ae611397565b6005805460ff191690557f5db9ee0a495bf2e6ff9c91a7834c1ba4fdd244a5e8aa4e537bd38aeae4b073aa335b6040516001600160a01b03909116815260200160405180910390a1565b600580546001600160a01b03838116610100818102610100600160a81b031985161790945560405193909204169182907f8be0079c531659141344cd1fd0a4f28419497f9722a3daafe3b4186f6b6457e090600090a35050565b61135a6113e0565b6005805460ff191660011790557f62e78cea01bee320cd4e420270b5ea74000d11b0c9f74754ebdbfc544b05a2586112db3390565b610af76113e0565b60055460ff16610b2e5760405162461bcd60e51b815260206004820152601460248201527314185d5cd8589b194e881b9bdd081c185d5cd95960621b60448201526064016104c8565b60055460ff1615610b2e5760405162461bcd60e51b815260206004820152601060248201526f14185d5cd8589b194e881c185d5cd95960821b60448201526064016104c8565b82805482825590600052602060002090810192821561147b579160200282015b8281111561147b57825182546001600160a01b0319166001600160a01b03909116178255602090920191600190910190611446565b50611487929150611671565b5090565b82805461149790611af8565b90600052602060002090601f0160209004810192826114b9576000855561147b565b82601f106114d257805160ff191683800117855561147b565b8280016001018555821561147b579182015b8281111561147b5782518255916020019190600101906114e4565b604051806101400160405280600081526020016000815260200160008152602001600081526020016000815260200160008152602001600081526020016000600581111561154f5761154f611961565b815260200160608152602001606081525090565b82805482825590600052602060002090810192821561147b5760005260206000209182015b8281111561147b578254825591600101919060010190611588565b8280546115af90611af8565b90600052602060002090601f0160209004810192826115d1576000855561147b565b82601f106115e2578054855561147b565b8280016001018555821561147b57600052602060002091601f016020900482018281111561147b578254825591600101919060010190611588565b5080546000825590600052602060002090810190610e5e9190611671565b50805461164790611af8565b6000825580601f10611657575050565b601f016020900490600052602060002090810190610e5e91905b5b808211156114875760008155600101611672565b6000815180845260005b818110156116ac57602081850181015186830182015201611690565b818111156116be576000602083870101525b50601f01601f19169290920160200192915050565b6020815260006110526020830184611686565b80356001600160a01b03811681146116fd57600080fd5b919050565b6000806040838503121561171557600080fd5b61171e836116e6565b946020939093013593505050565b634e487b7160e01b600052604160045260246000fd5b604051601f8201601f1916810167ffffffffffffffff8111828210171561176b5761176b61172c565b604052919050565b600082601f83011261178457600080fd5b813567ffffffffffffffff81111561179e5761179e61172c565b6117b1601f8201601f1916602001611742565b8181528460208386010111156117c657600080fd5b816020850160208301376000918101602001919091529392505050565b600080600080600080600060e0888a0312156117fe57600080fd5b87356006811061180d57600080fd5b9650602088810135965060408901359550606089013567ffffffffffffffff8082111561183957600080fd5b818b0191508b601f83011261184d57600080fd5b81358181111561185f5761185f61172c565b8060051b61186e858201611742565b918252838101850191858101908f84111561188857600080fd5b948601945b838610156118ad5761189e866116e6565b8252948601949086019061188d565b995050505060808b01359250808311156118c657600080fd5b50506118d48a828b01611773565b93505060a0880135915060c0880135905092959891949750929550565b60008060006060848603121561190657600080fd5b61190f846116e6565b925061191d602085016116e6565b9150604084013590509250925092565b60006020828403121561193f57600080fd5b5035919050565b60006020828403121561195857600080fd5b611052826116e6565b634e487b7160e01b600052602160045260246000fd5b6006811061199557634e487b7160e01b600052602160045260246000fd5b9052565b600081518084526020808501945080840160005b838110156119d25781516001600160a01b0316875295820195908201906001016119ad565b509495945050505050565b60006020808301818452808551808352604092508286019150828160051b87010184880160005b83811015611ab757888303603f1901855281518051845287810151888501528681015187850152606080820151908501526080808201519085015260a0808201519085015260c0808201519085015260e0808201516101409190611a6a82880182611977565b5050610100808301518282880152611a8483880182611999565b925050506101208083015192508582038187015250611aa38183611686565b968901969450505090860190600101611a04565b509098975050505050505050565b60008060408385031215611ad857600080fd5b611ae1836116e6565b9150611aef602084016116e6565b90509250929050565b600181811c90821680611b0c57607f821691505b60208210811415611b2d57634e487b7160e01b600052602260045260246000fd5b50919050565b600060208284031215611b4557600080fd5b8151801515811461105257600080fd5b634e487b7160e01b600052601160045260246000fd5b60008219821115611b7e57611b7e611b55565b500190565b634e487b7160e01b600052603260045260246000fd5b600082821015611bab57611bab611b55565b500390565b634e487b7160e01b600052603160045260246000fd5b6000600019821415611bda57611bda611b55565b5060010190565b600082611bfe57634e487b7160e01b600052601260045260246000fd5b50069056fea26469706673582212207427980eb9905085825ba94fb82e54316c1ea1d1d1fa3c9b650a2377cccdb15c64736f6c634300080c0033360894a13ba1a3210667c828492db98dca3e2076cc3735a920a3ca505d382bbc416464726573733a206c6f772d6c6576656c2064656c65676174652063616c6c206661696c6564a2646970667358221220b987a350fc7b576c62ac027ce39c25b6ed37274dcc01eb1ed0a3521e5b80379564736f6c634300080c0033",
  "linkReferences": {},
  "deployedLinkReferences": {}
}