{
  "_format": "hh-sol-artifact-1",
  "contractName": "FactoryContract",
  "sourceName": "src/backend/contracts/FactoryContract.sol",
  "abi": [
    {
      "inputs": [],
      "stateMutability": "nonpayable",
      "type": "constructor"
    },
    {
      "anonymous": false,
      "inputs": [
        {
          "indexed": false,
          "internalType": "address",
          "name": "previousAdmin",
          "type": "address"
        },
        {
          "indexed": false,
          "internalType": "address",
          "name": "newAdmin",
          "type": "address"
        }
      ],
      "name": "AdminChanged",
      "type": "event"
    },
    {
      "anonymous": false,
      "inputs": [
        {
          "indexed": true,
          "internalType": "address",
          "name": "beacon",
          "type": "address"
        }
      ],
      "name": "BeaconUpgraded",
      "type": "event"
    },
    {
      "anonymous": false,
      "inputs": [
        {
          "indexed": false,
          "internalType": "uint8",
          "name": "version",
          "type": "uint8"
        }
      ],
      "name": "Initialized",
      "type": "event"
    },
    {
      "anonymous": false,
      "inputs": [
        {
          "indexed": true,
          "internalType": "address",
          "name": "previousOwner",
          "type": "address"
        },
        {
          "indexed": true,
          "internalType": "address",
          "name": "newOwner",
          "type": "address"
        }
      ],
      "name": "OwnershipTransferred",
      "type": "event"
    },
    {
      "anonymous": false,
      "inputs": [
        {
          "indexed": true,
          "internalType": "address",
          "name": "implementation",
          "type": "address"
        }
      ],
      "name": "Upgraded",
      "type": "event"
    },
    {
      "inputs": [
        {
          "internalType": "uint256",
          "name": "_communityId",
          "type": "uint256"
        },
        {
          "internalType": "string",
          "name": "_name",
          "type": "string"
        },
        {
          "internalType": "string",
          "name": "_symbol",
          "type": "string"
        },
        {
          "internalType": "uint256",
          "name": "_supply",
          "type": "uint256"
        }
      ],
      "name": "deployFTContract",
      "outputs": [],
      "stateMutability": "nonpayable",
      "type": "function"
    },
    {
      "inputs": [
        {
          "internalType": "uint256",
          "name": "_communityId",
          "type": "uint256"
        },
        {
          "internalType": "string",
          "name": "_name",
          "type": "string"
        },
        {
          "internalType": "string",
          "name": "_symbol",
          "type": "string"
        }
      ],
      "name": "deployNFTCollectionContract",
      "outputs": [],
      "stateMutability": "nonpayable",
      "type": "function"
    },
    {
      "inputs": [
        {
          "internalType": "address",
          "name": "_mainContractAddress",
          "type": "address"
        }
      ],
      "name": "initialize",
      "outputs": [],
      "stateMutability": "nonpayable",
      "type": "function"
    },
    {
      "inputs": [],
      "name": "owner",
      "outputs": [
        {
          "internalType": "address",
          "name": "",
          "type": "address"
        }
      ],
      "stateMutability": "view",
      "type": "function"
    },
    {
      "inputs": [],
      "name": "proxiableUUID",
      "outputs": [
        {
          "internalType": "bytes32",
          "name": "",
          "type": "bytes32"
        }
      ],
      "stateMutability": "view",
      "type": "function"
    },
    {
      "inputs": [],
      "name": "renounceOwnership",
      "outputs": [],
      "stateMutability": "nonpayable",
      "type": "function"
    },
    {
      "inputs": [
        {
          "internalType": "address",
          "name": "newOwner",
          "type": "address"
        }
      ],
      "name": "transferOwnership",
      "outputs": [],
      "stateMutability": "nonpayable",
      "type": "function"
    },
    {
      "inputs": [
        {
          "internalType": "address",
          "name": "newImplementation",
          "type": "address"
        }
      ],
      "name": "upgradeTo",
      "outputs": [],
      "stateMutability": "nonpayable",
      "type": "function"
    },
    {
      "inputs": [
        {
          "internalType": "address",
          "name": "newImplementation",
          "type": "address"
        },
        {
          "internalType": "bytes",
          "name": "data",
          "type": "bytes"
        }
      ],
      "name": "upgradeToAndCall",
      "outputs": [],
      "stateMutability": "payable",
      "type": "function"
    }
  ],
  "bytecode": "0x60a06040523060805234801561001457600080fd5b5061001d610022565b6100e2565b600054610100900460ff161561008e5760405162461bcd60e51b815260206004820152602760248201527f496e697469616c697a61626c653a20636f6e747261637420697320696e697469604482015266616c697a696e6760c81b606482015260840160405180910390fd5b60005460ff90811610156100e0576000805460ff191660ff9081179091556040519081527f7f26b83ff96e1f2b6a682f133852f6798a09c465da95921460cefb38474024989060200160405180910390a15b565b6080516152eb610119600039600081816101e00152818161022c015281816102d50152818161031801526103b401526152eb6000f3fe608060405260043610620000915760003560e01c80638da5cb5b11620000605780638da5cb5b1462000117578063c4d66de81462000141578063d6bbb1021462000166578063ee01380d146200018b578063f2fde38b14620001b057600080fd5b80633659cfe614620000965780634f1ef28614620000bd57806352d1902d14620000d4578063715018a614620000ff575b600080fd5b348015620000a357600080fd5b50620000bb620000b536600462001053565b620001d5565b005b620000bb620000ce36600462001106565b620002ca565b348015620000e157600080fd5b50620000ec620003a7565b6040519081526020015b60405180910390f35b3480156200010c57600080fd5b50620000bb6200045d565b3480156200012457600080fd5b506033546040516001600160a01b039091168152602001620000f6565b3480156200014e57600080fd5b50620000bb6200016036600462001053565b62000475565b3480156200017357600080fd5b50620000bb6200018536600462001194565b620005c4565b3480156200019857600080fd5b50620000bb620001aa36600462001208565b62000801565b348015620001bd57600080fd5b50620000bb620001cf36600462001053565b62000a89565b306001600160a01b037f00000000000000000000000000000000000000000000000000000000000000001614156200022a5760405162461bcd60e51b8152600401620002219062001284565b60405180910390fd5b7f00000000000000000000000000000000000000000000000000000000000000006001600160a01b0316620002756000805160206200526f833981519152546001600160a01b031690565b6001600160a01b0316146200029e5760405162461bcd60e51b81526004016200022190620012d0565b620002a98162000b05565b60408051600080825260208201909252620002c79183919062000b0f565b50565b306001600160a01b037f0000000000000000000000000000000000000000000000000000000000000000161415620003165760405162461bcd60e51b8152600401620002219062001284565b7f00000000000000000000000000000000000000000000000000000000000000006001600160a01b0316620003616000805160206200526f833981519152546001600160a01b031690565b6001600160a01b0316146200038a5760405162461bcd60e51b81526004016200022190620012d0565b620003958262000b05565b620003a38282600162000b0f565b5050565b6000306001600160a01b037f00000000000000000000000000000000000000000000000000000000000000001614620004495760405162461bcd60e51b815260206004820152603860248201527f555550535570677261646561626c653a206d757374206e6f742062652063616c60448201527f6c6564207468726f7567682064656c656761746563616c6c0000000000000000606482015260840162000221565b506000805160206200526f83398151915290565b6200046762000c8c565b62000473600062000ce8565b565b600054610100900460ff1615808015620004965750600054600160ff909116105b80620004b25750303b158015620004b2575060005460ff166001145b620005175760405162461bcd60e51b815260206004820152602e60248201527f496e697469616c697a61626c653a20636f6e747261637420697320616c72656160448201526d191e481a5b9a5d1a585b1a5e995960921b606482015260840162000221565b6000805460ff1916600117905580156200053b576000805461ff0019166101001790555b6200054562000d3a565b6200054f62000d6e565b60c980546001600160a01b0384166001600160a01b0319918216811790925560ca805490911690911790558015620003a3576000805461ff0019169055604051600181527f7f26b83ff96e1f2b6a682f133852f6798a09c465da95921460cefb38474024989060200160405180910390a15050565b600382511015620005e95760405162461bcd60e51b815260040162000221906200131c565b6003815110158015620005fe57506005815111155b6200061d5760405162461bcd60e51b815260040162000221906200136b565b60ca5460405163397fd15760e11b81523360048201526024810185905260009182916001600160a01b03909116906372ffa2ae90604401606060405180830381865afa15801562000672573d6000803e3d6000fd5b505050506040513d601f19601f82011682018060405250810190620006989190620013ac565b5090925090506001600160a01b03811615620007035760405162461bcd60e51b815260206004820152602360248201527f436f6d6d756e69747920616c72656164792068617665204e465420436f6e74726044820152621858dd60ea1b606482015260840162000221565b6000848433604051620007169062001021565b620007249392919062001451565b604051809103906000f08015801562000741573d6000803e3d6000fd5b5060cb80546001810182556000919091527fa7ce836d032b2bf62b7e2097a8e0a6d8aeb35405ad15271e96d3b0188a1d06fb0180546001600160a01b0319166001600160a01b0383811691821790925560ca5460405163b1c80f7f60e01b815233600482015260248101889052604481019290925292935091169063b1c80f7f90606401600060405180830381600087803b158015620007e057600080fd5b505af1158015620007f5573d6000803e3d6000fd5b50505050505050505050565b600383511015620008265760405162461bcd60e51b815260040162000221906200131c565b60038251101580156200083b57506005825111155b6200085a5760405162461bcd60e51b815260040162000221906200136b565b60008111620008a25760405162461bcd60e51b815260206004820152601360248201527215dc9bdb99c81cdd5c1c1b1e48185b5bdd5b9d606a1b604482015260640162000221565b60ca5460405163397fd15760e11b81523360048201526024810186905260009182916001600160a01b03909116906372ffa2ae90604401606060405180830381865afa158015620008f7573d6000803e3d6000fd5b505050506040513d601f19601f820116820180604052508101906200091d9190620013ac565b919350909150506001600160a01b03811615620009885760405162461bcd60e51b815260206004820152602260248201527f436f6d6d756e69747920616c7265616479206861766520465420436f6e74726160448201526118dd60f21b606482015260840162000221565b6000858533866040516200099c906200102f565b620009ab949392919062001493565b604051809103906000f080158015620009c8573d6000803e3d6000fd5b5060cc80546001810182556000919091527f47197230e1e4b29fc0bd84d7d78966c0925452aff72a2a121538b102457e9ebe0180546001600160a01b0319166001600160a01b0383811691821790925560ca546040516380deed0760e01b81523360048201526024810188905260448101929092529293509116906380deed0790606401600060405180830381600087803b15801562000a6757600080fd5b505af115801562000a7c573d6000803e3d6000fd5b5050505050505050505050565b62000a9362000c8c565b6001600160a01b03811662000afa5760405162461bcd60e51b815260206004820152602660248201527f4f776e61626c653a206e6577206f776e657220697320746865207a65726f206160448201526564647265737360d01b606482015260840162000221565b620002c78162000ce8565b620002c762000c8c565b7f4910fdfa16fed3260ed0e7147f7cc6da11a60208b5b9406d12a635614ffd91435460ff161562000b4a5762000b458362000d98565b505050565b826001600160a01b03166352d1902d6040518163ffffffff1660e01b8152600401602060405180830381865afa92505050801562000ba7575060408051601f3d908101601f1916820190925262000ba491810190620014d9565b60015b62000c0c5760405162461bcd60e51b815260206004820152602e60248201527f45524331393637557067726164653a206e657720696d706c656d656e7461746960448201526d6f6e206973206e6f74205555505360901b606482015260840162000221565b6000805160206200526f833981519152811462000c7e5760405162461bcd60e51b815260206004820152602960248201527f45524331393637557067726164653a20756e737570706f727465642070726f786044820152681a58589b195555525160ba1b606482015260840162000221565b5062000b4583838362000e37565b6033546001600160a01b03163314620004735760405162461bcd60e51b815260206004820181905260248201527f4f776e61626c653a2063616c6c6572206973206e6f7420746865206f776e6572604482015260640162000221565b603380546001600160a01b038381166001600160a01b0319831681179093556040519116919082907f8be0079c531659141344cd1fd0a4f28419497f9722a3daafe3b4186f6b6457e090600090a35050565b600054610100900460ff1662000d645760405162461bcd60e51b81526004016200022190620014f3565b6200047362000e68565b600054610100900460ff16620004735760405162461bcd60e51b81526004016200022190620014f3565b6001600160a01b0381163b62000e075760405162461bcd60e51b815260206004820152602d60248201527f455243313936373a206e657720696d706c656d656e746174696f6e206973206e60448201526c1bdd08184818dbdb9d1c9858dd609a1b606482015260840162000221565b6000805160206200526f83398151915280546001600160a01b0319166001600160a01b0392909216919091179055565b62000e428362000e9d565b60008251118062000e505750805b1562000b455762000e62838362000edf565b50505050565b600054610100900460ff1662000e925760405162461bcd60e51b81526004016200022190620014f3565b620004733362000ce8565b62000ea88162000d98565b6040516001600160a01b038216907fbc7cd75a20ee27fd9adebab32041f755214dbc6bffa90cc0225b39da2e5c2d3b90600090a250565b60606001600160a01b0383163b62000f495760405162461bcd60e51b815260206004820152602660248201527f416464726573733a2064656c65676174652063616c6c20746f206e6f6e2d636f6044820152651b9d1c9858dd60d21b606482015260840162000221565b600080846001600160a01b03168460405162000f6691906200153e565b600060405180830381855af49150503d806000811462000fa3576040519150601f19603f3d011682016040523d82523d6000602084013e62000fa8565b606091505b509150915062000fd382826040518060600160405280602781526020016200528f6027913962000fdc565b95945050505050565b6060831562000fed5750816200101a565b82511562000ffe5782518084602001fd5b8160405162461bcd60e51b81526004016200022191906200155c565b9392505050565b612b1e806200157283390190565b6111df806200409083390190565b6001600160a01b0381168114620002c757600080fd5b6000602082840312156200106657600080fd5b81356200101a816200103d565b634e487b7160e01b600052604160045260246000fd5b600067ffffffffffffffff80841115620010a757620010a762001073565b604051601f8501601f19908116603f01168101908282118183101715620010d257620010d262001073565b81604052809350858152868686011115620010ec57600080fd5b858560208301376000602087830101525050509392505050565b600080604083850312156200111a57600080fd5b823562001127816200103d565b9150602083013567ffffffffffffffff8111156200114457600080fd5b8301601f810185136200115657600080fd5b620011678582356020840162001089565b9150509250929050565b600082601f8301126200118357600080fd5b6200101a8383356020850162001089565b600080600060608486031215620011aa57600080fd5b83359250602084013567ffffffffffffffff80821115620011ca57600080fd5b620011d88783880162001171565b93506040860135915080821115620011ef57600080fd5b50620011fe8682870162001171565b9150509250925092565b600080600080608085870312156200121f57600080fd5b84359350602085013567ffffffffffffffff808211156200123f57600080fd5b6200124d8883890162001171565b945060408701359150808211156200126457600080fd5b50620012738782880162001171565b949793965093946060013593505050565b6020808252602c908201527f46756e6374696f6e206d7573742062652063616c6c6564207468726f7567682060408201526b19195b1959d85d1958d85b1b60a21b606082015260800190565b6020808252602c908201527f46756e6374696f6e206d7573742062652063616c6c6564207468726f7567682060408201526b6163746976652070726f787960a01b606082015260800190565b6020808252602f908201527f436f6c6c656374696f6e206e616d652073686f756c64206265206c6f6e67657260408201526e207468616e20322073796d626f6c7360881b606082015260800190565b60208082526021908201527f53796d626f6c206c656e6774682073686f756c6420626520332d3520636861726040820152607360f81b606082015260800190565b600080600060608486031215620013c257600080fd5b835192506020840151620013d6816200103d565b6040850151909250620013e9816200103d565b809150509250925092565b60005b8381101562001411578181015183820152602001620013f7565b8381111562000e625750506000910152565b600081518084526200143d816020860160208601620013f4565b601f01601f19169290920160200192915050565b60608152600062001466606083018662001423565b82810360208401526200147a818662001423565b91505060018060a01b0383166040830152949350505050565b608081526000620014a8608083018762001423565b8281036020840152620014bc818762001423565b6001600160a01b0395909516604084015250506060015292915050565b600060208284031215620014ec57600080fd5b5051919050565b6020808252602b908201527f496e697469616c697a61626c653a20636f6e7472616374206973206e6f74206960408201526a6e697469616c697a696e6760a81b606082015260800190565b6000825162001552818460208701620013f4565b9190910192915050565b6020815260006200101a60208301846200142356fe60806040523480156200001157600080fd5b5060405162002b1e38038062002b1e833981016040819052620000349162000343565b8251839083906200004d906000906020850190620001d0565b50805162000063906001906020840190620001d0565b5050600b805460ff19169055506200007b336200008f565b6200008681620000e9565b5050506200040d565b600b80546001600160a01b03838116610100818102610100600160a81b031985161790945560405193909204169182907f8be0079c531659141344cd1fd0a4f28419497f9722a3daafe3b4186f6b6457e090600090a35050565b620000f36200016c565b6001600160a01b0381166200015e5760405162461bcd60e51b815260206004820152602660248201527f4f776e61626c653a206e6577206f776e657220697320746865207a65726f206160448201526564647265737360d01b60648201526084015b60405180910390fd5b62000169816200008f565b50565b600b546001600160a01b03610100909104163314620001ce5760405162461bcd60e51b815260206004820181905260248201527f4f776e61626c653a2063616c6c6572206973206e6f7420746865206f776e6572604482015260640162000155565b565b828054620001de90620003d0565b90600052602060002090601f0160209004810192826200020257600085556200024d565b82601f106200021d57805160ff19168380011785556200024d565b828001600101855582156200024d579182015b828111156200024d57825182559160200191906001019062000230565b506200025b9291506200025f565b5090565b5b808211156200025b576000815560010162000260565b634e487b7160e01b600052604160045260246000fd5b600082601f8301126200029e57600080fd5b81516001600160401b0380821115620002bb57620002bb62000276565b604051601f8301601f19908116603f01168101908282118183101715620002e657620002e662000276565b816040528381526020925086838588010111156200030357600080fd5b600091505b8382101562000327578582018301518183018401529082019062000308565b83821115620003395760008385830101525b9695505050505050565b6000806000606084860312156200035957600080fd5b83516001600160401b03808211156200037157600080fd5b6200037f878388016200028c565b945060208601519150808211156200039657600080fd5b50620003a5868287016200028c565b604086015190935090506001600160a01b0381168114620003c557600080fd5b809150509250925092565b600181811c90821680620003e557607f821691505b602082108114156200040757634e487b7160e01b600052602260045260246000fd5b50919050565b612701806200041d6000396000f3fe6080604052600436106101c25760003560e01c80635c975abb116100f7578063a144819411610095578063b88d4fde11610064578063b88d4fde146104e2578063c87b56dd14610502578063e985e9c514610522578063f2fde38b1461056b57600080fd5b8063a14481941461045b578063a22cb4651461047b578063abcacc5d1461049b578063adcb4b7c146104b157600080fd5b8063715018a6116100d1578063715018a6146103f95780638456cb591461040e5780638da5cb5b1461042357806395d89b411461044657600080fd5b80635c975abb146103a15780636352211e146103b957806370a08231146103d957600080fd5b806323b872dd116101645780633f4ba83a1161013e5780633f4ba83a1461033957806342842e0e1461034e5780634f6ccce71461036e5780635c4c94ae1461038e57600080fd5b806323b872dd146102d957806325336668146102f95780632f745c591461031957600080fd5b8063095ea7b3116101a0578063095ea7b31461025657806318160ddd146102785780631a99e72014610297578063217603ab146102b957600080fd5b806301ffc9a7146101c757806306fdde03146101fc578063081812fc1461021e575b600080fd5b3480156101d357600080fd5b506101e76101e2366004612064565b61058b565b60405190151581526020015b60405180910390f35b34801561020857600080fd5b5061021161059c565b6040516101f391906120d9565b34801561022a57600080fd5b5061023e6102393660046120ec565b61062e565b6040516001600160a01b0390911681526020016101f3565b34801561026257600080fd5b50610276610271366004612121565b610655565b005b34801561028457600080fd5b506008545b6040519081526020016101f3565b3480156102a357600080fd5b506102ac610770565b6040516101f3919061214b565b3480156102c557600080fd5b506102766102d43660046121e0565b610889565b3480156102e557600080fd5b506102766102f436600461220c565b61095b565b34801561030557600080fd5b506102766103143660046122d4565b61098c565b34801561032557600080fd5b50610289610334366004612121565b610a8f565b34801561034557600080fd5b50610276610b25565b34801561035a57600080fd5b5061027661036936600461220c565b610b37565b34801561037a57600080fd5b506102896103893660046120ec565b610b52565b61027661039c3660046120ec565b610be5565b3480156103ad57600080fd5b50600b5460ff166101e7565b3480156103c557600080fd5b5061023e6103d43660046120ec565b610dbf565b3480156103e557600080fd5b506102896103f4366004612336565b610e1f565b34801561040557600080fd5b50610276610ea5565b34801561041a57600080fd5b50610276610eb7565b34801561042f57600080fd5b50600b5461010090046001600160a01b031661023e565b34801561045257600080fd5b50610211610ec7565b34801561046757600080fd5b50610276610476366004612121565b610ed6565b34801561048757600080fd5b50610276610496366004612351565b610fd7565b3480156104a757600080fd5b50610289600d5481565b3480156104bd57600080fd5b506104d16104cc3660046120ec565b610fe6565b6040516101f395949392919061238d565b3480156104ee57600080fd5b506102766104fd3660046123c4565b6110b4565b34801561050e57600080fd5b5061021161051d3660046120ec565b6110e6565b34801561052e57600080fd5b506101e761053d366004612440565b6001600160a01b03918216600090815260056020908152604080832093909416825291909152205460ff1690565b34801561057757600080fd5b50610276610586366004612336565b6110f1565b60006105968261116a565b92915050565b6060600080546105ab90612473565b80601f01602080910402602001604051908101604052809291908181526020018280546105d790612473565b80156106245780601f106105f957610100808354040283529160200191610624565b820191906000526020600020905b81548152906001019060200180831161060757829003601f168201915b5050505050905090565b60006106398261118f565b506000908152600460205260409020546001600160a01b031690565b600061066082610dbf565b9050806001600160a01b0316836001600160a01b031614156106d35760405162461bcd60e51b815260206004820152602160248201527f4552433732313a20617070726f76616c20746f2063757272656e74206f776e656044820152603960f91b60648201526084015b60405180910390fd5b336001600160a01b03821614806106ef57506106ef813361053d565b6107615760405162461bcd60e51b815260206004820152603e60248201527f4552433732313a20617070726f76652063616c6c6572206973206e6f7420746f60448201527f6b656e206f776e6572206e6f7220617070726f76656420666f7220616c6c000060648201526084016106ca565b61076b83836111ee565b505050565b6060600c805480602002602001604051908101604052809291908181526020016000905b8282101561088057838290600052602060002090600502016040518060a00160405290816000820180546107c790612473565b80601f01602080910402602001604051908101604052809291908181526020018280546107f390612473565b80156108405780601f1061081557610100808354040283529160200191610840565b820191906000526020600020905b81548152906001019060200180831161082357829003601f168201915b5050505050815260200160018201548152602001600282015481526020016003820154815260200160048201548152505081526020019060010190610794565b50505050905090565b61089161125c565b600d548311156108b35760405162461bcd60e51b81526004016106ca906124ae565b6000600c6108c26001866124ee565b815481106108d2576108d2612505565b90600052602060002090600502019050600082111561094a57806004015482101561094a5760405162461bcd60e51b815260206004820152602260248201527f537570706c79206973206c657373207468617420616c7265616479206d696e74604482015261195960f21b60648201526084016106ca565b600281019290925560039091015550565b61096533826112bc565b6109815760405162461bcd60e51b81526004016106ca9061251b565b61076b83838361133b565b61099461125c565b60008351116109d15760405162461bcd60e51b815260206004820152600960248201526857726f6e672055524960b81b60448201526064016106ca565b6001600d60008282546109e49190612569565b90915550506040805160a081018252848152600d5460208083019190915291810184905260608101839052600060808201819052600c8054600181018255915281518051929360059092027fdf6966c971051c3d54ec59162606531493a51404a002842f56009d7e5cf4a8c70192610a5f9284920190611fb5565b50602082015181600101556040820151816002015560608201518160030155608082015181600401555050505050565b6000610a9a83610e1f565b8210610afc5760405162461bcd60e51b815260206004820152602b60248201527f455243373231456e756d657261626c653a206f776e657220696e646578206f7560448201526a74206f6620626f756e647360a81b60648201526084016106ca565b506001600160a01b03919091166000908152600660209081526040808320938352929052205490565b610b2d61125c565b610b356114e2565b565b61076b838383604051806020016040528060008152506110b4565b6000610b5d60085490565b8210610bc05760405162461bcd60e51b815260206004820152602c60248201527f455243373231456e756d657261626c653a20676c6f62616c20696e646578206f60448201526b7574206f6620626f756e647360a01b60648201526084016106ca565b60088281548110610bd357610bd3612505565b90600052602060002001549050919050565b610bed611534565b600d54811115610c0f5760405162461bcd60e51b81526004016106ca906124ae565b6000600c610c1e6001846124ee565b81548110610c2e57610c2e612505565b90600052602060002090600502019050600081600201541115610c9e5734816002015414610c9e5760405162461bcd60e51b815260206004820152601c60248201527f57726f6e67207061796d656e7420616d6f756e7420746f206d696e740000000060448201526064016106ca565b600381015415610cf4578060040154816003015411610cf45760405162461bcd60e51b8152602060048201526012602482015271105b1b08139195081dd85cc81b5a5b9d195960721b60448201526064016106ca565b6001816004016000828254610d099190612569565b9091555050600e54610d1f600e80546001019055565b610d29338261157a565b61076b81836000018054610d3c90612473565b80601f0160208091040260200160405190810160405280929190818152602001828054610d6890612473565b8015610db55780601f10610d8a57610100808354040283529160200191610db5565b820191906000526020600020905b815481529060010190602001808311610d9857829003601f168201915b5050505050611594565b6000818152600260205260408120546001600160a01b0316806105965760405162461bcd60e51b8152602060048201526018602482015277115490cdcc8c4e881a5b9d985b1a59081d1bdad95b88125160421b60448201526064016106ca565b60006001600160a01b038216610e895760405162461bcd60e51b815260206004820152602960248201527f4552433732313a2061646472657373207a65726f206973206e6f7420612076616044820152683634b21037bbb732b960b91b60648201526084016106ca565b506001600160a01b031660009081526003602052604090205490565b610ead61125c565b610b35600061162e565b610ebf61125c565b610b35611688565b6060600180546105ab90612473565b610ede61125c565b610ee6611534565b600d54811115610f085760405162461bcd60e51b81526004016106ca906124ae565b6001600160a01b038216610f555760405162461bcd60e51b815260206004820152601460248201527357726f6e672077616c6c6574204164647265737360601b60448201526064016106ca565b6000610f60600e5490565b90506000600c610f716001856124ee565b81548110610f8157610f81612505565b906000526020600020906005020190506001816004016000828254610fa69190612569565b9091555050600e80546001019055610fbe848361157a565b610fd182826000018054610d3c90612473565b50505050565b610fe23383836116c5565b5050565b600c8181548110610ff657600080fd5b906000526020600020906005020160009150905080600001805461101990612473565b80601f016020809104026020016040519081016040528092919081815260200182805461104590612473565b80156110925780601f1061106757610100808354040283529160200191611092565b820191906000526020600020905b81548152906001019060200180831161107557829003601f168201915b5050505050908060010154908060020154908060030154908060040154905085565b6110be33836112bc565b6110da5760405162461bcd60e51b81526004016106ca9061251b565b610fd184848484611794565b6060610596826117c7565b6110f961125c565b6001600160a01b03811661115e5760405162461bcd60e51b815260206004820152602660248201527f4f776e61626c653a206e6577206f776e657220697320746865207a65726f206160448201526564647265737360d01b60648201526084016106ca565b6111678161162e565b50565b60006001600160e01b0319821663780e9d6360e01b14806105965750610596826118d0565b6000818152600260205260409020546001600160a01b03166111675760405162461bcd60e51b8152602060048201526018602482015277115490cdcc8c4e881a5b9d985b1a59081d1bdad95b88125160421b60448201526064016106ca565b600081815260046020526040902080546001600160a01b0319166001600160a01b038416908117909155819061122382610dbf565b6001600160a01b03167f8c5be1e5ebec7d5bd14f71427d1e84f3dd0314c0f7b2291e5b200ac8c7c3b92560405160405180910390a45050565b600b546001600160a01b03610100909104163314610b355760405162461bcd60e51b815260206004820181905260248201527f4f776e61626c653a2063616c6c6572206973206e6f7420746865206f776e657260448201526064016106ca565b6000806112c883610dbf565b9050806001600160a01b0316846001600160a01b0316148061130f57506001600160a01b0380821660009081526005602090815260408083209388168352929052205460ff165b806113335750836001600160a01b03166113288461062e565b6001600160a01b0316145b949350505050565b826001600160a01b031661134e82610dbf565b6001600160a01b0316146113b25760405162461bcd60e51b815260206004820152602560248201527f4552433732313a207472616e736665722066726f6d20696e636f72726563742060448201526437bbb732b960d91b60648201526084016106ca565b6001600160a01b0382166114145760405162461bcd60e51b8152602060048201526024808201527f4552433732313a207472616e7366657220746f20746865207a65726f206164646044820152637265737360e01b60648201526084016106ca565b61141f838383611920565b61142a6000826111ee565b6001600160a01b03831660009081526003602052604081208054600192906114539084906124ee565b90915550506001600160a01b0382166000908152600360205260408120805460019290611481908490612569565b909155505060008181526002602052604080822080546001600160a01b0319166001600160a01b0386811691821790925591518493918716917fddf252ad1be2c89b69c2b068fc378daa952ba7f163c4a11628f55a4df523b3ef91a4505050565b6114ea611933565b600b805460ff191690557f5db9ee0a495bf2e6ff9c91a7834c1ba4fdd244a5e8aa4e537bd38aeae4b073aa335b6040516001600160a01b03909116815260200160405180910390a1565b600b5460ff1615610b355760405162461bcd60e51b815260206004820152601060248201526f14185d5cd8589b194e881c185d5cd95960821b60448201526064016106ca565b610fe282826040518060200160405280600081525061197c565b6000828152600260205260409020546001600160a01b031661160f5760405162461bcd60e51b815260206004820152602e60248201527f45524337323155524953746f726167653a2055524920736574206f66206e6f6e60448201526d32bc34b9ba32b73a103a37b5b2b760911b60648201526084016106ca565b6000828152600a60209081526040909120825161076b92840190611fb5565b600b80546001600160a01b03838116610100818102610100600160a81b031985161790945560405193909204169182907f8be0079c531659141344cd1fd0a4f28419497f9722a3daafe3b4186f6b6457e090600090a35050565b611690611534565b600b805460ff191660011790557f62e78cea01bee320cd4e420270b5ea74000d11b0c9f74754ebdbfc544b05a2586115173390565b816001600160a01b0316836001600160a01b031614156117275760405162461bcd60e51b815260206004820152601960248201527f4552433732313a20617070726f766520746f2063616c6c65720000000000000060448201526064016106ca565b6001600160a01b03838116600081815260056020908152604080832094871680845294825291829020805460ff191686151590811790915591519182527f17307eab39ab6107e8899845ad3d59bd9653f200f220920489ca2b5937696c31910160405180910390a3505050565b61179f84848461133b565b6117ab848484846119af565b610fd15760405162461bcd60e51b81526004016106ca90612581565b60606117d28261118f565b6000828152600a6020526040812080546117eb90612473565b80601f016020809104026020016040519081016040528092919081815260200182805461181790612473565b80156118645780601f1061183957610100808354040283529160200191611864565b820191906000526020600020905b81548152906001019060200180831161184757829003601f168201915b50505050509050600061188260408051602081019091526000815290565b9050805160001415611895575092915050565b8151156118c75780826040516020016118af9291906125d3565b60405160208183030381529060405292505050919050565b61133384611aad565b60006001600160e01b031982166380ac58cd60e01b148061190157506001600160e01b03198216635b5e139f60e01b145b8061059657506301ffc9a760e01b6001600160e01b0319831614610596565b611928611534565b61076b838383611b21565b600b5460ff16610b355760405162461bcd60e51b815260206004820152601460248201527314185d5cd8589b194e881b9bdd081c185d5cd95960621b60448201526064016106ca565b6119868383611bd9565b61199360008484846119af565b61076b5760405162461bcd60e51b81526004016106ca90612581565b60006001600160a01b0384163b15611aa257604051630a85bd0160e11b81526001600160a01b0385169063150b7a02906119f3903390899088908890600401612602565b6020604051808303816000875af1925050508015611a2e575060408051601f3d908101601f19168201909252611a2b9181019061263f565b60015b611a88573d808015611a5c576040519150601f19603f3d011682016040523d82523d6000602084013e611a61565b606091505b508051611a805760405162461bcd60e51b81526004016106ca90612581565b805181602001fd5b6001600160e01b031916630a85bd0160e11b149050611333565b506001949350505050565b6060611ab88261118f565b6000611acf60408051602081019091526000815290565b90506000815111611aef5760405180602001604052806000815250611b1a565b80611af984611d27565b604051602001611b0a9291906125d3565b6040516020818303038152906040525b9392505050565b6001600160a01b038316611b7c57611b7781600880546000838152600960205260408120829055600182018355919091527ff3f7a9fe364faab93b216da50a3214154f22a0a2b415b23a84c8169e8b636ee30155565b611b9f565b816001600160a01b0316836001600160a01b031614611b9f57611b9f8382611e25565b6001600160a01b038216611bb65761076b81611ec2565b826001600160a01b0316826001600160a01b03161461076b5761076b8282611f71565b6001600160a01b038216611c2f5760405162461bcd60e51b815260206004820181905260248201527f4552433732313a206d696e7420746f20746865207a65726f206164647265737360448201526064016106ca565b6000818152600260205260409020546001600160a01b031615611c945760405162461bcd60e51b815260206004820152601c60248201527f4552433732313a20746f6b656e20616c7265616479206d696e7465640000000060448201526064016106ca565b611ca060008383611920565b6001600160a01b0382166000908152600360205260408120805460019290611cc9908490612569565b909155505060008181526002602052604080822080546001600160a01b0319166001600160a01b03861690811790915590518392907fddf252ad1be2c89b69c2b068fc378daa952ba7f163c4a11628f55a4df523b3ef908290a45050565b606081611d4b5750506040805180820190915260018152600360fc1b602082015290565b8160005b8115611d755780611d5f8161265c565b9150611d6e9050600a8361268d565b9150611d4f565b60008167ffffffffffffffff811115611d9057611d90612248565b6040519080825280601f01601f191660200182016040528015611dba576020820181803683370190505b5090505b841561133357611dcf6001836124ee565b9150611ddc600a866126a1565b611de7906030612569565b60f81b818381518110611dfc57611dfc612505565b60200101906001600160f81b031916908160001a905350611e1e600a8661268d565b9450611dbe565b60006001611e3284610e1f565b611e3c91906124ee565b600083815260076020526040902054909150808214611e8f576001600160a01b03841660009081526006602090815260408083208584528252808320548484528184208190558352600790915290208190555b5060009182526007602090815260408084208490556001600160a01b039094168352600681528383209183525290812055565b600854600090611ed4906001906124ee565b60008381526009602052604081205460088054939450909284908110611efc57611efc612505565b906000526020600020015490508060088381548110611f1d57611f1d612505565b6000918252602080832090910192909255828152600990915260408082208490558582528120556008805480611f5557611f556126b5565b6001900381819060005260206000200160009055905550505050565b6000611f7c83610e1f565b6001600160a01b039093166000908152600660209081526040808320868452825280832085905593825260079052919091209190915550565b828054611fc190612473565b90600052602060002090601f016020900481019282611fe35760008555612029565b82601f10611ffc57805160ff1916838001178555612029565b82800160010185558215612029579182015b8281111561202957825182559160200191906001019061200e565b50612035929150612039565b5090565b5b80821115612035576000815560010161203a565b6001600160e01b03198116811461116757600080fd5b60006020828403121561207657600080fd5b8135611b1a8161204e565b60005b8381101561209c578181015183820152602001612084565b83811115610fd15750506000910152565b600081518084526120c5816020860160208601612081565b601f01601f19169290920160200192915050565b602081526000611b1a60208301846120ad565b6000602082840312156120fe57600080fd5b5035919050565b80356001600160a01b038116811461211c57600080fd5b919050565b6000806040838503121561213457600080fd5b61213d83612105565b946020939093013593505050565b60006020808301818452808551808352604092508286019150828160051b87010184880160005b838110156121d257603f19898403018552815160a08151818652612198828701826120ad565b838b0151878c0152898401518a88015260608085015190880152608093840151939096019290925250509386019390860190600101612172565b509098975050505050505050565b6000806000606084860312156121f557600080fd5b505081359360208301359350604090920135919050565b60008060006060848603121561222157600080fd5b61222a84612105565b925061223860208501612105565b9150604084013590509250925092565b634e487b7160e01b600052604160045260246000fd5b600067ffffffffffffffff8084111561227957612279612248565b604051601f8501601f19908116603f011681019082821181831017156122a1576122a1612248565b816040528093508581528686860111156122ba57600080fd5b858560208301376000602087830101525050509392505050565b6000806000606084860312156122e957600080fd5b833567ffffffffffffffff81111561230057600080fd5b8401601f8101861361231157600080fd5b6123208682356020840161225e565b9660208601359650604090950135949350505050565b60006020828403121561234857600080fd5b611b1a82612105565b6000806040838503121561236457600080fd5b61236d83612105565b91506020830135801515811461238257600080fd5b809150509250929050565b60a0815260006123a060a08301886120ad565b90508560208301528460408301528360608301528260808301529695505050505050565b600080600080608085870312156123da57600080fd5b6123e385612105565b93506123f160208601612105565b925060408501359150606085013567ffffffffffffffff81111561241457600080fd5b8501601f8101871361242557600080fd5b6124348782356020840161225e565b91505092959194509250565b6000806040838503121561245357600080fd5b61245c83612105565b915061246a60208401612105565b90509250929050565b600181811c9082168061248757607f821691505b602082108114156124a857634e487b7160e01b600052602260045260246000fd5b50919050565b60208082526010908201526f2bb937b7339021b7b63632b1ba34b7b760811b604082015260600190565b634e487b7160e01b600052601160045260246000fd5b600082821015612500576125006124d8565b500390565b634e487b7160e01b600052603260045260246000fd5b6020808252602e908201527f4552433732313a2063616c6c6572206973206e6f7420746f6b656e206f776e6560408201526d1c881b9bdc88185c1c1c9bdd995960921b606082015260800190565b6000821982111561257c5761257c6124d8565b500190565b60208082526032908201527f4552433732313a207472616e7366657220746f206e6f6e20455243373231526560408201527131b2b4bb32b91034b6b83632b6b2b73a32b960711b606082015260800190565b600083516125e5818460208801612081565b8351908301906125f9818360208801612081565b01949350505050565b6001600160a01b0385811682528416602082015260408101839052608060608201819052600090612635908301846120ad565b9695505050505050565b60006020828403121561265157600080fd5b8151611b1a8161204e565b6000600019821415612670576126706124d8565b5060010190565b634e487b7160e01b600052601260045260246000fd5b60008261269c5761269c612677565b500490565b6000826126b0576126b0612677565b500690565b634e487b7160e01b600052603160045260246000fdfea26469706673582212202eddc35563cb1fe60afa6b5749633f9c71ef3bcac980eda19f9d31995f98c07764736f6c634300080c003360806040523480156200001157600080fd5b50604051620011df380380620011df8339810160408190526200003491620004c5565b8351849084906200004d90600390602085019062000352565b5080516200006390600490602084019062000352565b50506005805460ff19169055506200007b33620000af565b6200009a826200009483670de0b6b3a76400006200056e565b62000109565b620000a58262000200565b50505050620005e8565b600580546001600160a01b03838116610100818102610100600160a81b031985161790945560405193909204169182907f8be0079c531659141344cd1fd0a4f28419497f9722a3daafe3b4186f6b6457e090600090a35050565b6001600160a01b038216620001655760405162461bcd60e51b815260206004820152601f60248201527f45524332303a206d696e7420746f20746865207a65726f20616464726573730060448201526064015b60405180910390fd5b62000173600083836200027f565b806002600082825462000187919062000590565b90915550506001600160a01b03821660009081526020819052604081208054839290620001b690849062000590565b90915550506040518181526001600160a01b038316906000907fddf252ad1be2c89b69c2b068fc378daa952ba7f163c4a11628f55a4df523b3ef9060200160405180910390a35050565b6200020a620002a6565b6001600160a01b038116620002715760405162461bcd60e51b815260206004820152602660248201527f4f776e61626c653a206e6577206f776e657220697320746865207a65726f206160448201526564647265737360d01b60648201526084016200015c565b6200027c81620000af565b50565b620002896200030a565b620002a1838383620002a160201b620004c81760201c565b505050565b6005546001600160a01b03610100909104163314620003085760405162461bcd60e51b815260206004820181905260248201527f4f776e61626c653a2063616c6c6572206973206e6f7420746865206f776e657260448201526064016200015c565b565b60055460ff1615620003085760405162461bcd60e51b815260206004820152601060248201526f14185d5cd8589b194e881c185d5cd95960821b60448201526064016200015c565b8280546200036090620005ab565b90600052602060002090601f016020900481019282620003845760008555620003cf565b82601f106200039f57805160ff1916838001178555620003cf565b82800160010185558215620003cf579182015b82811115620003cf578251825591602001919060010190620003b2565b50620003dd929150620003e1565b5090565b5b80821115620003dd5760008155600101620003e2565b634e487b7160e01b600052604160045260246000fd5b600082601f8301126200042057600080fd5b81516001600160401b03808211156200043d576200043d620003f8565b604051601f8301601f19908116603f01168101908282118183101715620004685762000468620003f8565b816040528381526020925086838588010111156200048557600080fd5b600091505b83821015620004a957858201830151818301840152908201906200048a565b83821115620004bb5760008385830101525b9695505050505050565b60008060008060808587031215620004dc57600080fd5b84516001600160401b0380821115620004f457600080fd5b62000502888389016200040e565b955060208701519150808211156200051957600080fd5b5062000528878288016200040e565b604087015190945090506001600160a01b03811681146200054857600080fd5b6060959095015193969295505050565b634e487b7160e01b600052601160045260246000fd5b60008160001904831182151516156200058b576200058b62000558565b500290565b60008219821115620005a657620005a662000558565b500190565b600181811c90821680620005c057607f821691505b60208210811415620005e257634e487b7160e01b600052602260045260246000fd5b50919050565b610be780620005f86000396000f3fe608060405234801561001057600080fd5b506004361061010b5760003560e01c806370a08231116100a257806395d89b411161007157806395d89b411461020f578063a457c2d714610217578063a9059cbb1461022a578063dd62ed3e1461023d578063f2fde38b1461025057600080fd5b806370a08231146101ad578063715018a6146101d65780638456cb59146101de5780638da5cb5b146101e657600080fd5b8063313ce567116100de578063313ce5671461017657806339509351146101855780633f4ba83a146101985780635c975abb146101a257600080fd5b806306fdde0314610110578063095ea7b31461012e57806318160ddd1461015157806323b872dd14610163575b600080fd5b610118610263565b6040516101259190610a24565b60405180910390f35b61014161013c366004610a95565b6102f5565b6040519015158152602001610125565b6002545b604051908152602001610125565b610141610171366004610abf565b61030d565b60405160128152602001610125565b610141610193366004610a95565b610331565b6101a0610353565b005b60055460ff16610141565b6101556101bb366004610afb565b6001600160a01b031660009081526020819052604090205490565b6101a0610365565b6101a0610377565b60055461010090046001600160a01b03166040516001600160a01b039091168152602001610125565b610118610387565b610141610225366004610a95565b610396565b610141610238366004610a95565b610416565b61015561024b366004610b1d565b610424565b6101a061025e366004610afb565b61044f565b60606003805461027290610b50565b80601f016020809104026020016040519081016040528092919081815260200182805461029e90610b50565b80156102eb5780601f106102c0576101008083540402835291602001916102eb565b820191906000526020600020905b8154815290600101906020018083116102ce57829003601f168201915b5050505050905090565b6000336103038185856104cd565b5060019392505050565b60003361031b8582856105f1565b61032685858561066b565b506001949350505050565b6000336103038185856103448383610424565b61034e9190610b8b565b6104cd565b61035b610844565b6103636108a4565b565b61036d610844565b61036360006108f6565b61037f610844565b610363610950565b60606004805461027290610b50565b600033816103a48286610424565b9050838110156104095760405162461bcd60e51b815260206004820152602560248201527f45524332303a2064656372656173656420616c6c6f77616e63652062656c6f77604482015264207a65726f60d81b60648201526084015b60405180910390fd5b61032682868684036104cd565b60003361030381858561066b565b6001600160a01b03918216600090815260016020908152604080832093909416825291909152205490565b610457610844565b6001600160a01b0381166104bc5760405162461bcd60e51b815260206004820152602660248201527f4f776e61626c653a206e6577206f776e657220697320746865207a65726f206160448201526564647265737360d01b6064820152608401610400565b6104c5816108f6565b50565b505050565b6001600160a01b03831661052f5760405162461bcd60e51b8152602060048201526024808201527f45524332303a20617070726f76652066726f6d20746865207a65726f206164646044820152637265737360e01b6064820152608401610400565b6001600160a01b0382166105905760405162461bcd60e51b815260206004820152602260248201527f45524332303a20617070726f766520746f20746865207a65726f206164647265604482015261737360f01b6064820152608401610400565b6001600160a01b0383811660008181526001602090815260408083209487168084529482529182902085905590518481527f8c5be1e5ebec7d5bd14f71427d1e84f3dd0314c0f7b2291e5b200ac8c7c3b925910160405180910390a3505050565b60006105fd8484610424565b9050600019811461066557818110156106585760405162461bcd60e51b815260206004820152601d60248201527f45524332303a20696e73756666696369656e7420616c6c6f77616e63650000006044820152606401610400565b61066584848484036104cd565b50505050565b6001600160a01b0383166106cf5760405162461bcd60e51b815260206004820152602560248201527f45524332303a207472616e736665722066726f6d20746865207a65726f206164604482015264647265737360d81b6064820152608401610400565b6001600160a01b0382166107315760405162461bcd60e51b815260206004820152602360248201527f45524332303a207472616e7366657220746f20746865207a65726f206164647260448201526265737360e81b6064820152608401610400565b61073c83838361098d565b6001600160a01b038316600090815260208190526040902054818110156107b45760405162461bcd60e51b815260206004820152602660248201527f45524332303a207472616e7366657220616d6f756e7420657863656564732062604482015265616c616e636560d01b6064820152608401610400565b6001600160a01b038085166000908152602081905260408082208585039055918516815290812080548492906107eb908490610b8b565b92505081905550826001600160a01b0316846001600160a01b03167fddf252ad1be2c89b69c2b068fc378daa952ba7f163c4a11628f55a4df523b3ef8460405161083791815260200190565b60405180910390a3610665565b6005546001600160a01b036101009091041633146103635760405162461bcd60e51b815260206004820181905260248201527f4f776e61626c653a2063616c6c6572206973206e6f7420746865206f776e65726044820152606401610400565b6108ac610995565b6005805460ff191690557f5db9ee0a495bf2e6ff9c91a7834c1ba4fdd244a5e8aa4e537bd38aeae4b073aa335b6040516001600160a01b03909116815260200160405180910390a1565b600580546001600160a01b03838116610100818102610100600160a81b031985161790945560405193909204169182907f8be0079c531659141344cd1fd0a4f28419497f9722a3daafe3b4186f6b6457e090600090a35050565b6109586109de565b6005805460ff191660011790557f62e78cea01bee320cd4e420270b5ea74000d11b0c9f74754ebdbfc544b05a2586108d93390565b6104c86109de565b60055460ff166103635760405162461bcd60e51b815260206004820152601460248201527314185d5cd8589b194e881b9bdd081c185d5cd95960621b6044820152606401610400565b60055460ff16156103635760405162461bcd60e51b815260206004820152601060248201526f14185d5cd8589b194e881c185d5cd95960821b6044820152606401610400565b600060208083528351808285015260005b81811015610a5157858101830151858201604001528201610a35565b81811115610a63576000604083870101525b50601f01601f1916929092016040019392505050565b80356001600160a01b0381168114610a9057600080fd5b919050565b60008060408385031215610aa857600080fd5b610ab183610a79565b946020939093013593505050565b600080600060608486031215610ad457600080fd5b610add84610a79565b9250610aeb60208501610a79565b9150604084013590509250925092565b600060208284031215610b0d57600080fd5b610b1682610a79565b9392505050565b60008060408385031215610b3057600080fd5b610b3983610a79565b9150610b4760208401610a79565b90509250929050565b600181811c90821680610b6457607f821691505b60208210811415610b8557634e487b7160e01b600052602260045260246000fd5b50919050565b60008219821115610bac57634e487b7160e01b600052601160045260246000fd5b50019056fea26469706673582212204745b4c8989a9c6169cb77b4a6aa007aa2c06984094bef28da7124ebf5cca7e464736f6c634300080c0033360894a13ba1a3210667c828492db98dca3e2076cc3735a920a3ca505d382bbc416464726573733a206c6f772d6c6576656c2064656c65676174652063616c6c206661696c6564a2646970667358221220837a6cd4e01263ad9d49494bc8b63d6ebe82ef243ba78ca92bce9aba9b17728d64736f6c634300080c0033",
  "linkReferences": {},
  "deployedLinkReferences": {}
}