{
  "_format": "hh-sol-artifact-1",
  "contractName": "FactoryNFTContract",
  "sourceName": "src/backend/contracts/FactoryNFTContract.sol",
  "abi": [
    {
      "inputs": [],
      "stateMutability": "nonpayable",
      "type": "constructor"
    },
    {
      "anonymous": false,
      "inputs": [
        {
          "indexed": false,
          "internalType": "address",
          "name": "previousAdmin",
          "type": "address"
        },
        {
          "indexed": false,
          "internalType": "address",
          "name": "newAdmin",
          "type": "address"
        }
      ],
      "name": "AdminChanged",
      "type": "event"
    },
    {
      "anonymous": false,
      "inputs": [
        {
          "indexed": true,
          "internalType": "address",
          "name": "beacon",
          "type": "address"
        }
      ],
      "name": "BeaconUpgraded",
      "type": "event"
    },
    {
      "anonymous": false,
      "inputs": [
        {
          "indexed": false,
          "internalType": "uint8",
          "name": "version",
          "type": "uint8"
        }
      ],
      "name": "Initialized",
      "type": "event"
    },
    {
      "anonymous": false,
      "inputs": [
        {
          "indexed": true,
          "internalType": "address",
          "name": "previousOwner",
          "type": "address"
        },
        {
          "indexed": true,
          "internalType": "address",
          "name": "newOwner",
          "type": "address"
        }
      ],
      "name": "OwnershipTransferred",
      "type": "event"
    },
    {
      "anonymous": false,
      "inputs": [
        {
          "indexed": true,
          "internalType": "address",
          "name": "implementation",
          "type": "address"
        }
      ],
      "name": "Upgraded",
      "type": "event"
    },
    {
      "inputs": [
        {
          "internalType": "uint256",
          "name": "_communityId",
          "type": "uint256"
        },
        {
          "internalType": "string",
          "name": "_name",
          "type": "string"
        },
        {
          "internalType": "string",
          "name": "_symbol",
          "type": "string"
        }
      ],
      "name": "deployNFTCollectionContract",
      "outputs": [],
      "stateMutability": "nonpayable",
      "type": "function"
    },
    {
      "inputs": [
        {
          "internalType": "address",
          "name": "_mainContractAddress",
          "type": "address"
        },
        {
          "internalType": "contract IWorldID",
          "name": "_worldId",
          "type": "address"
        }
      ],
      "name": "initialize",
      "outputs": [],
      "stateMutability": "nonpayable",
      "type": "function"
    },
    {
      "inputs": [],
      "name": "owner",
      "outputs": [
        {
          "internalType": "address",
          "name": "",
          "type": "address"
        }
      ],
      "stateMutability": "view",
      "type": "function"
    },
    {
      "inputs": [],
      "name": "proxiableUUID",
      "outputs": [
        {
          "internalType": "bytes32",
          "name": "",
          "type": "bytes32"
        }
      ],
      "stateMutability": "view",
      "type": "function"
    },
    {
      "inputs": [],
      "name": "renounceOwnership",
      "outputs": [],
      "stateMutability": "nonpayable",
      "type": "function"
    },
    {
      "inputs": [
        {
          "internalType": "address",
          "name": "newOwner",
          "type": "address"
        }
      ],
      "name": "transferOwnership",
      "outputs": [],
      "stateMutability": "nonpayable",
      "type": "function"
    },
    {
      "inputs": [
        {
          "internalType": "address",
          "name": "newImplementation",
          "type": "address"
        }
      ],
      "name": "upgradeTo",
      "outputs": [],
      "stateMutability": "nonpayable",
      "type": "function"
    },
    {
      "inputs": [
        {
          "internalType": "address",
          "name": "newImplementation",
          "type": "address"
        },
        {
          "internalType": "bytes",
          "name": "data",
          "type": "bytes"
        }
      ],
      "name": "upgradeToAndCall",
      "outputs": [],
      "stateMutability": "payable",
      "type": "function"
    }
  ],
  "bytecode": "0x60a06040523060805234801561001457600080fd5b5061001d610022565b6100e2565b600054610100900460ff161561008e5760405162461bcd60e51b815260206004820152602760248201527f496e697469616c697a61626c653a20636f6e747261637420697320696e697469604482015266616c697a696e6760c81b606482015260840160405180910390fd5b60005460ff90811610156100e0576000805460ff191660ff9081179091556040519081527f7f26b83ff96e1f2b6a682f133852f6798a09c465da95921460cefb38474024989060200160405180910390a15b565b60805161517a610119600039600081816101af015281816101fb015281816103fa0152818161043d01526104d9015261517a6000f3fe608060405260043610620000855760003560e01c8063715018a61162000054578063715018a614620001185780638da5cb5b1462000130578063d6bbb102146200015a578063f2fde38b146200017f57600080fd5b80633659cfe6146200008a578063485cc95514620000b15780634f1ef28614620000d657806352d1902d14620000ed575b600080fd5b3480156200009757600080fd5b50620000af620000a936600462000e0a565b620001a4565b005b348015620000be57600080fd5b50620000af620000d036600462000e2a565b62000299565b620000af620000e736600462000efb565b620003ef565b348015620000fa57600080fd5b5062000105620004cc565b6040519081526020015b60405180910390f35b3480156200012557600080fd5b50620000af62000582565b3480156200013d57600080fd5b506033546040516001600160a01b0390911681526020016200010f565b3480156200016757600080fd5b50620000af6200017936600462000f89565b6200059a565b3480156200018c57600080fd5b50620000af6200019e36600462000e0a565b62000853565b306001600160a01b037f0000000000000000000000000000000000000000000000000000000000000000161415620001f95760405162461bcd60e51b8152600401620001f09062000ffd565b60405180910390fd5b7f00000000000000000000000000000000000000000000000000000000000000006001600160a01b031662000244600080516020620050fe833981519152546001600160a01b031690565b6001600160a01b0316146200026d5760405162461bcd60e51b8152600401620001f09062001049565b6200027881620008cf565b604080516000808252602082019092526200029691839190620008d9565b50565b600054610100900460ff1615808015620002ba5750600054600160ff909116105b80620002d65750303b158015620002d6575060005460ff166001145b6200033b5760405162461bcd60e51b815260206004820152602e60248201527f496e697469616c697a61626c653a20636f6e747261637420697320616c72656160448201526d191e481a5b9a5d1a585b1a5e995960921b6064820152608401620001f0565b6000805460ff1916600117905580156200035f576000805461ff0019166101001790555b6200036962000a51565b6200037362000a85565b60c980546001600160a01b038086166001600160a01b03199283161790925560cb8054928516929091169190911790558015620003ea576000805461ff0019169055604051600181527f7f26b83ff96e1f2b6a682f133852f6798a09c465da95921460cefb38474024989060200160405180910390a15b505050565b306001600160a01b037f00000000000000000000000000000000000000000000000000000000000000001614156200043b5760405162461bcd60e51b8152600401620001f09062000ffd565b7f00000000000000000000000000000000000000000000000000000000000000006001600160a01b031662000486600080516020620050fe833981519152546001600160a01b031690565b6001600160a01b031614620004af5760405162461bcd60e51b8152600401620001f09062001049565b620004ba82620008cf565b620004c882826001620008d9565b5050565b6000306001600160a01b037f000000000000000000000000000000000000000000000000000000000000000016146200056e5760405162461bcd60e51b815260206004820152603860248201527f555550535570677261646561626c653a206d757374206e6f742062652063616c60448201527f6c6564207468726f7567682064656c656761746563616c6c00000000000000006064820152608401620001f0565b50600080516020620050fe83398151915290565b6200058c62000aaf565b62000598600062000b0b565b565b600382511015620006065760405162461bcd60e51b815260206004820152602f60248201527f436f6c6c656374696f6e206e616d652073686f756c64206265206c6f6e67657260448201526e207468616e20322073796d626f6c7360881b6064820152608401620001f0565b60038151101580156200061b57506005815111155b620006735760405162461bcd60e51b815260206004820152602160248201527f53796d626f6c206c656e6774682073686f756c6420626520332d3520636861726044820152607360f81b6064820152608401620001f0565b60c954604051635b25bfbb60e11b8152600481018590526000916001600160a01b03169063b64b7f76906024016040805180830381865afa158015620006bd573d6000803e3d6000fd5b505050506040513d601f19601f82011682018060405250810190620006e39190620010ab565b5090508015620007425760405162461bcd60e51b815260206004820152602360248201527f436f6d6d756e69747920616c72656164792068617665204e465420436f6e74726044820152621858dd60ea1b6064820152608401620001f0565b60c95460cb546040516000926001600160a01b039081169287928792339216906200076d9062000de6565b6200077d95949392919062001140565b604051809103906000f0801580156200079a573d6000803e3d6000fd5b5060ca80546001810182556000919091527f42d72674974f694b5f5159593243114d38a5c39c89d6b62fee061ff523240ee10180546001600160a01b0319166001600160a01b0383811691821790925560c95460405163e00f786560e01b8152600481018a9052602481019290925292935091169063e00f786590604401600060405180830381600087803b1580156200083357600080fd5b505af115801562000848573d6000803e3d6000fd5b505050505050505050565b6200085d62000aaf565b6001600160a01b038116620008c45760405162461bcd60e51b815260206004820152602660248201527f4f776e61626c653a206e6577206f776e657220697320746865207a65726f206160448201526564647265737360d01b6064820152608401620001f0565b620002968162000b0b565b6200029662000aaf565b7f4910fdfa16fed3260ed0e7147f7cc6da11a60208b5b9406d12a635614ffd91435460ff16156200090f57620003ea8362000b5d565b826001600160a01b03166352d1902d6040518163ffffffff1660e01b8152600401602060405180830381865afa9250505080156200096c575060408051601f3d908101601f19168201909252620009699181019062001193565b60015b620009d15760405162461bcd60e51b815260206004820152602e60248201527f45524331393637557067726164653a206e657720696d706c656d656e7461746960448201526d6f6e206973206e6f74205555505360901b6064820152608401620001f0565b600080516020620050fe833981519152811462000a435760405162461bcd60e51b815260206004820152602960248201527f45524331393637557067726164653a20756e737570706f727465642070726f786044820152681a58589b195555525160ba1b6064820152608401620001f0565b50620003ea83838362000bfc565b600054610100900460ff1662000a7b5760405162461bcd60e51b8152600401620001f090620011ad565b6200059862000c2d565b600054610100900460ff16620005985760405162461bcd60e51b8152600401620001f090620011ad565b6033546001600160a01b03163314620005985760405162461bcd60e51b815260206004820181905260248201527f4f776e61626c653a2063616c6c6572206973206e6f7420746865206f776e65726044820152606401620001f0565b603380546001600160a01b038381166001600160a01b0319831681179093556040519116919082907f8be0079c531659141344cd1fd0a4f28419497f9722a3daafe3b4186f6b6457e090600090a35050565b6001600160a01b0381163b62000bcc5760405162461bcd60e51b815260206004820152602d60248201527f455243313936373a206e657720696d706c656d656e746174696f6e206973206e60448201526c1bdd08184818dbdb9d1c9858dd609a1b6064820152608401620001f0565b600080516020620050fe83398151915280546001600160a01b0319166001600160a01b0392909216919091179055565b62000c078362000c62565b60008251118062000c155750805b15620003ea5762000c27838362000ca4565b50505050565b600054610100900460ff1662000c575760405162461bcd60e51b8152600401620001f090620011ad565b620005983362000b0b565b62000c6d8162000b5d565b6040516001600160a01b038216907fbc7cd75a20ee27fd9adebab32041f755214dbc6bffa90cc0225b39da2e5c2d3b90600090a250565b60606001600160a01b0383163b62000d0e5760405162461bcd60e51b815260206004820152602660248201527f416464726573733a2064656c65676174652063616c6c20746f206e6f6e2d636f6044820152651b9d1c9858dd60d21b6064820152608401620001f0565b600080846001600160a01b03168460405162000d2b9190620011f8565b600060405180830381855af49150503d806000811462000d68576040519150601f19603f3d011682016040523d82523d6000602084013e62000d6d565b606091505b509150915062000d9882826040518060600160405280602781526020016200511e6027913962000da1565b95945050505050565b6060831562000db257508162000ddf565b82511562000dc35782518084602001fd5b8160405162461bcd60e51b8152600401620001f0919062001216565b9392505050565b613ed2806200122c83390190565b6001600160a01b03811681146200029657600080fd5b60006020828403121562000e1d57600080fd5b813562000ddf8162000df4565b6000806040838503121562000e3e57600080fd5b823562000e4b8162000df4565b9150602083013562000e5d8162000df4565b809150509250929050565b634e487b7160e01b600052604160045260246000fd5b600067ffffffffffffffff8084111562000e9c5762000e9c62000e68565b604051601f8501601f19908116603f0116810190828211818310171562000ec75762000ec762000e68565b8160405280935085815286868601111562000ee157600080fd5b858560208301376000602087830101525050509392505050565b6000806040838503121562000f0f57600080fd5b823562000f1c8162000df4565b9150602083013567ffffffffffffffff81111562000f3957600080fd5b8301601f8101851362000f4b57600080fd5b62000f5c8582356020840162000e7e565b9150509250929050565b600082601f83011262000f7857600080fd5b62000ddf8383356020850162000e7e565b60008060006060848603121562000f9f57600080fd5b83359250602084013567ffffffffffffffff8082111562000fbf57600080fd5b62000fcd8783880162000f66565b9350604086013591508082111562000fe457600080fd5b5062000ff38682870162000f66565b9150509250925092565b6020808252602c908201527f46756e6374696f6e206d7573742062652063616c6c6564207468726f7567682060408201526b19195b1959d85d1958d85b1b60a21b606082015260800190565b6020808252602c908201527f46756e6374696f6e206d7573742062652063616c6c6564207468726f7567682060408201526b6163746976652070726f787960a01b606082015260800190565b80518015158114620010a657600080fd5b919050565b60008060408385031215620010bf57600080fd5b620010ca8362001095565b9150620010da6020840162001095565b90509250929050565b60005b8381101562001100578181015183820152602001620010e6565b8381111562000c275750506000910152565b600081518084526200112c816020860160208601620010e3565b601f01601f19169290920160200192915050565b600060018060a01b03808816835260a060208401526200116460a084018862001112565b838103604085015262001178818862001112565b95821660608501525092909216608090910152509392505050565b600060208284031215620011a657600080fd5b5051919050565b6020808252602b908201527f496e697469616c697a61626c653a20636f6e7472616374206973206e6f74206960408201526a6e697469616c697a696e6760a81b606082015260800190565b600082516200120c818460208701620010e3565b9190910192915050565b60208152600062000ddf60208301846200111256fe60a060405260016080523480156200001657600080fd5b5060405162003ed238038062003ed28339810160408190526200003991620003b2565b6040805160208101909152600081526200005381620000dd565b506200005f33620000f6565b6003805460ff60a01b19169055620000778262000148565b83516200008c90600690602087019062000229565b508251620000a290600790602086019062000229565b50600a80546001600160a01b039283166001600160a01b0319918216179091556005805496909216951694909417909355506200049b915050565b8051620000f290600290602084019062000229565b5050565b600380546001600160a01b038381166001600160a01b0319831681179093556040519116919082907f8be0079c531659141344cd1fd0a4f28419497f9722a3daafe3b4186f6b6457e090600090a35050565b62000152620001cb565b6001600160a01b038116620001bd5760405162461bcd60e51b815260206004820152602660248201527f4f776e61626c653a206e6577206f776e657220697320746865207a65726f206160448201526564647265737360d01b60648201526084015b60405180910390fd5b620001c881620000f6565b50565b6003546001600160a01b03163314620002275760405162461bcd60e51b815260206004820181905260248201527f4f776e61626c653a2063616c6c6572206973206e6f7420746865206f776e65726044820152606401620001b4565b565b82805462000237906200045e565b90600052602060002090601f0160209004810192826200025b5760008555620002a6565b82601f106200027657805160ff1916838001178555620002a6565b82800160010185558215620002a6579182015b82811115620002a657825182559160200191906001019062000289565b50620002b4929150620002b8565b5090565b5b80821115620002b45760008155600101620002b9565b6001600160a01b0381168114620001c857600080fd5b634e487b7160e01b600052604160045260246000fd5b600082601f8301126200030d57600080fd5b81516001600160401b03808211156200032a576200032a620002e5565b604051601f8301601f19908116603f01168101908282118183101715620003555762000355620002e5565b816040528381526020925086838588010111156200037257600080fd5b600091505b8382101562000396578582018301518183018401529082019062000377565b83821115620003a85760008385830101525b9695505050505050565b600080600080600060a08688031215620003cb57600080fd5b8551620003d881620002cf565b60208701519095506001600160401b0380821115620003f657600080fd5b6200040489838a01620002fb565b955060408801519150808211156200041b57600080fd5b506200042a88828901620002fb565b93505060608601516200043d81620002cf565b60808701519092506200045081620002cf565b809150509295509295909350565b600181811c908216806200047357607f821691505b602082108114156200049557634e487b7160e01b600052602260045260246000fd5b50919050565b608051613a1b620004b760003960006117940152613a1b6000f3fe60806040526004361061019b5760003560e01c80635c975abb116100ec578063bd85b0391161008a578063f242432a11610064578063f242432a146104cc578063f2fde38b146104ec578063f944a55f1461050c578063fdbda0ec1461051f57600080fd5b8063bd85b03914610436578063cb27d43f14610463578063e985e9c51461048357600080fd5b80638456cb59116100c65780638456cb59146103c45780638da5cb5b146103d957806395d89b4114610401578063a22cb4651461041657600080fd5b80635c975abb146103705780635e7ea74c1461038f578063715018a6146103af57600080fd5b80632eb2c2d6116101595780633f4ba83a116101335780633f4ba83a146102dd57806346e63586146102f25780634e1273f4146103145780634f558e791461034157600080fd5b80632eb2c2d61461027d578063360ca3b91461029d578063381da488146102bd57600080fd5b8062fdd58e146101a057806301ffc9a7146101d357806306fdde03146102035780630e89341c14610225578063156e29f6146102455780632e17af0714610267575b600080fd5b3480156101ac57600080fd5b506101c06101bb366004612b87565b610554565b6040519081526020015b60405180910390f35b3480156101df57600080fd5b506101f36101ee366004612bc7565b6105ea565b60405190151581526020016101ca565b34801561020f57600080fd5b5061021861063c565b6040516101ca9190612c3c565b34801561023157600080fd5b50610218610240366004612c4f565b6106ca565b34801561025157600080fd5b50610265610260366004612c68565b610790565b005b34801561027357600080fd5b506101c060085481565b34801561028957600080fd5b50610265610298366004612de7565b610904565b3480156102a957600080fd5b506102656102b8366004612efe565b610950565b3480156102c957600080fd5b506102656102d8366004612c4f565b610a79565b3480156102e957600080fd5b50610265610b32565b3480156102fe57600080fd5b50610307610b44565b6040516101ca919061305f565b34801561032057600080fd5b5061033461032f366004613169565b610f2e565b6040516101ca9190613208565b34801561034d57600080fd5b506101f361035c366004612c4f565b600090815260046020526040902054151590565b34801561037c57600080fd5b50600354600160a01b900460ff166101f3565b34801561039b57600080fd5b506102656103aa366004613272565b611058565b3480156103bb57600080fd5b506102656111fb565b3480156103d057600080fd5b5061026561120d565b3480156103e557600080fd5b506003546040516001600160a01b0390911681526020016101ca565b34801561040d57600080fd5b5061021861121d565b34801561042257600080fd5b506102656104313660046132b2565b61122a565b34801561044257600080fd5b506101c0610451366004612c4f565b60009081526004602052604090205490565b34801561046f57600080fd5b5061026561047e3660046132ee565b611239565b34801561048f57600080fd5b506101f361049e36600461339a565b6001600160a01b03918216600090815260016020908152604080832093909416825291909152205460ff1690565b3480156104d857600080fd5b506102656104e73660046133cd565b6114c1565b3480156104f857600080fd5b50610265610507366004613432565b611506565b61026561051a36600461344d565b61157f565b34801561052b57600080fd5b5061053f61053a366004612c4f565b611a4a565b6040516101ca999897969594939291906134de565b60006001600160a01b0383166105c45760405162461bcd60e51b815260206004820152602a60248201527f455243313135353a2061646472657373207a65726f206973206e6f742061207660448201526930b634b21037bbb732b960b11b60648201526084015b60405180910390fd5b506000908152602081815260408083206001600160a01b03949094168352929052205490565b60006001600160e01b03198216636cdb3d1360e11b148061061b57506001600160e01b031982166303a24d0760e21b145b8061063657506301ffc9a760e01b6001600160e01b03198316145b92915050565b6006805461064990613577565b80601f016020809104026020016040519081016040528092919081815260200182805461067590613577565b80156106c25780601f10610697576101008083540402835291602001916106c2565b820191906000526020600020905b8154815290600101906020018083116106a557829003601f168201915b505050505081565b6060600060096106db6001856135c8565b815481106106eb576106eb6135df565b90600052602060002090600f0201905080600101805461070a90613577565b80601f016020809104026020016040519081016040528092919081815260200182805461073690613577565b80156107835780601f1061075857610100808354040283529160200191610783565b820191906000526020600020905b81548152906001019060200180831161076657829003601f168201915b5050505050915050919050565b610798611db6565b600081116107dc5760405162461bcd60e51b815260206004820152601160248201527015dc9bdb99c81b5a5b9d08185b5bdd5b9d607a1b60448201526064016105bb565b6001600160a01b0383166108325760405162461bcd60e51b815260206004820181905260248201527f57726f6e672064657374696e6174696f6e2077616c6c6574204164647265737360448201526064016105bb565b6000600961083f84611e10565b8154811061084f5761084f6135df565b90600052602060002090600f020190506000816005015411156108c85781816006015461087c91906135f5565b816005015410156108c85760405162461bcd60e51b8152602060048201526016602482015275139bdd08195b9bdd59da081cdd5c1c1b1e481b19599d60521b60448201526064016105bb565b818160060160008282546108dc91906135f5565b925050819055506108fe84848460405180602001604052806000815250611e6d565b50505050565b6001600160a01b0385163314806109205750610920853361049e565b61093c5760405162461bcd60e51b81526004016105bb9061360d565b6109498585858585611f90565b5050505050565b610958611db6565b6000600961096588611e10565b81548110610975576109756135df565b600091825260208220600f909102019150600487600581111561099a5761099a612f94565b14156109b1576109ae620f423f600161217b565b90505b6040518060c001604052808781526020018681526020018281526020018860058111156109e0576109e0612f94565b81526020808201879052604091820186905282516009860190815590830151600a86015590820151600b8501556060820151600c8501805460ff19166001836005811115610a3057610a30612f94565b021790555060808201518051610a50916004840191602090910190612a36565b5060a08201518051610a6c916005840191602090910190612a9b565b5050505050505050505050565b610a81611db6565b60006009610a8e83611e10565b81548110610a9e57610a9e6135df565b90600052602060002090600f02019050610ab66121ea565b8051600983019081556020820151600a8401556040820151600b8401556060820151600c8401805460ff19166001836005811115610af657610af6612f94565b021790555060808201518051610b16916004840191602090910190612a36565b5060a08201518051610949916005840191602090910190612a9b565b610b3a611db6565b610b42612270565b565b60606009805480602002602001604051908101604052809291908181526020016000905b82821015610f2557838290600052602060002090600f020160405180610120016040529081600082018054610b9c90613577565b80601f0160208091040260200160405190810160405280929190818152602001828054610bc890613577565b8015610c155780601f10610bea57610100808354040283529160200191610c15565b820191906000526020600020905b815481529060010190602001808311610bf857829003601f168201915b50505050508152602001600182018054610c2e90613577565b80601f0160208091040260200160405190810160405280929190818152602001828054610c5a90613577565b8015610ca75780601f10610c7c57610100808354040283529160200191610ca7565b820191906000526020600020905b815481529060010190602001808311610c8a57829003601f168201915b50505050508152602001600282018054610cc090613577565b80601f0160208091040260200160405190810160405280929190818152602001828054610cec90613577565b8015610d395780601f10610d0e57610100808354040283529160200191610d39565b820191906000526020600020905b815481529060010190602001808311610d1c57829003601f168201915b5050505050815260200160038201548152602001600482015481526020016005820154815260200160068201548152602001600782016040518060400160405290816000820160009054906101000a90046001600160a01b03166001600160a01b03166001600160a01b031681526020016001820154815250508152602001600982016040518060c00160405290816000820154815260200160018201548152602001600282015481526020016003820160009054906101000a900460ff166005811115610e0957610e09612f94565b6005811115610e1a57610e1a612f94565b815260200160048201805480602002602001604051908101604052809291908181526020018280548015610e7757602002820191906000526020600020905b81546001600160a01b03168152600190910190602001808311610e59575b50505050508152602001600582018054610e9090613577565b80601f0160208091040260200160405190810160405280929190818152602001828054610ebc90613577565b8015610f095780601f10610ede57610100808354040283529160200191610f09565b820191906000526020600020905b815481529060010190602001808311610eec57829003601f168201915b5050505050815250508152505081526020019060010190610b68565b50505050905090565b60608151835114610f935760405162461bcd60e51b815260206004820152602960248201527f455243313135353a206163636f756e747320616e6420696473206c656e677468604482015268040dad2e6dac2e8c6d60bb1b60648201526084016105bb565b6000835167ffffffffffffffff811115610faf57610faf612c9b565b604051908082528060200260200182016040528015610fd8578160200160208202803683370190505b50905060005b845181101561105057611023858281518110610ffc57610ffc6135df565b6020026020010151858381518110611016576110166135df565b6020026020010151610554565b828281518110611035576110356135df565b60209081029190910101526110498161365c565b9050610fde565b509392505050565b611060611db6565b6000600961106d86611e10565b8154811061107d5761107d6135df565b60009182526020909120600f90910201905082156110f35780600601548310156110f35760405162461bcd60e51b815260206004820152602160248201527f537570706c79206973206c6573732074686174206d696e74656420616d6f756e6044820152601d60fa1b60648201526084016105bb565b81516001600160a01b0316156111bb5760008260200151116111575760405162461bcd60e51b815260206004820152601e60248201527f506c656173652070726f7669646520726f79616c74792070657263656e74000060448201526064016105bb565b605a826020015111156111bb5760405162461bcd60e51b815260206004820152602660248201527f526f79616c74792070657263656e742063616e2774206265206d6f7265207468604482015265616e2039302560d01b60648201526084016105bb565b6004810193909355600583019190915580516007830180546001600160a01b0319166001600160a01b039092169190911790556020015160089091015550565b611203611db6565b610b4260006122c5565b611215611db6565b610b42612317565b6007805461064990613577565b61123533838361235a565b5050565b611241611db6565b60008651116112835760405162461bcd60e51b815260206004820152600e60248201526d57726f6e67206a736f6e2055524960901b60448201526064016105bb565b60008551116112c65760405162461bcd60e51b815260206004820152600f60248201526e57726f6e67206d656469612055524960881b60448201526064016105bb565b80516001600160a01b03161561134a57600081602001511180156112ef5750605a816020015111155b61134a5760405162461bcd60e51b815260206004820152602660248201527f506c656173652070726f7669646520636f727265637420726f79616c74792070604482015265195c98d95b9d60d21b60648201526084016105bb565b60016008600082825461135d91906135f5565b9250508190555060096040518061012001604052808681526020018881526020018781526020016008548152602001858152602001848152602001600081526020018381526020016113ad6121ea565b905281546001810183556000928352602092839020825180519394600f909302909101926113de9284920190612a9b565b5060208281015180516113f79260018501920190612a9b565b5060408201518051611413916002840191602090910190612a9b565b5060608281015160038301556080830151600483015560a083015160058084019190915560c0840151600684015560e084015180516007850180546001600160a01b0319166001600160a01b03909216919091179055602090810151600885015561010085015180516009860190815591810151600a8601556040810151600b86015592830151600c8501805492939192909160ff19909116906001908490811115610a3057610a30612f94565b6001600160a01b0385163314806114dd57506114dd853361049e565b6114f95760405162461bcd60e51b81526004016105bb9061360d565b610949858585858561243b565b61150e611db6565b6001600160a01b0381166115735760405162461bcd60e51b815260206004820152602660248201527f4f776e61626c653a206e6577206f776e657220697320746865207a65726f206160448201526564647265737360d01b60648201526084016105bb565b61157c816122c5565b50565b611587612573565b6000600961159489611e10565b815481106115a4576115a46135df565b90600052602060002090600f02019050600087116115f85760405162461bcd60e51b815260206004820152601160248201527015dc9bdb99c81b5a5b9d08185b5bdd5b9d607a1b60448201526064016105bb565b60058101541561165e5786816006015461161291906135f5565b8160050154101561165e5760405162461bcd60e51b8152602060048201526016602482015275139bdd08195b9bdd59da081cdd5c1c1b1e481b19599d60521b60448201526064016105bb565b6004810154156116c957600081600401548861167a9190613677565b9050803410156116c35760405162461bcd60e51b815260206004820152601460248201527315dc9bdb99c81c185e5b595b9d08185b5bdd5b9d60621b60448201526064016105bb565b50611719565b866001146117195760405162461bcd60e51b815260206004820152601e60248201527f596f752063616e2774206d696e74206d6f7265207468616e2031204e4654000060448201526064016105bb565b600081600901600501805461172d90613577565b90501115611860576000838152600b602052604090205460ff161561176557604051632ec8265960e11b815260040160405180910390fd5b600a546040516001600160601b03193360601b1660208201526001600160a01b0390911690633bc778e39086907f0000000000000000000000000000000000000000000000000000000000000000906117d0906034015b6040516020818303038152906040526125c0565b6040516001600160601b03193060601b16602082015288906117f4906034016117bc565b886040518763ffffffff1660e01b815260040161181696959493929190613696565b60006040518083038186803b15801561182e57600080fd5b505afa158015611842573d6000803e3d6000fd5b5050506000848152600b60205260409020805460ff19166001179055505b6004600c82015460ff16600581111561187b5761187b612f94565b14156118c757600b81015486146118c75760405162461bcd60e51b815260206004820152601060248201526f57726f6e67204576656e7420436f646560801b60448201526064016105bb565b60078101546001600160a01b03161561199f5760088101546000906064906118ef9034613677565b6118f991906136e8565b60078301546040519192506000916001600160a01b039091169083908381818185875af1925050503d806000811461194d576040519150601f19603f3d011682016040523d82523d6000602084013e611952565b606091505b505090508061199c5760405162461bcd60e51b81526020600482015260166024820152754661696c656420746f2073656e6420726f79616c747960501b60448201526064016105bb565b50505b868160060160008282546119b391906135f5565b925050819055506119d533898960405180602001604052806000815250611e6d565b6005546040516313c977bb60e21b81526001600160a01b0390911690634f25deec90611a0d90339089908e908e9034906004016136fc565b600060405180830381600087803b158015611a2757600080fd5b505af1158015611a3b573d6000803e3d6000fd5b50505050505050505050505050565b60098181548110611a5a57600080fd5b90600052602060002090600f0201600091509050806000018054611a7d90613577565b80601f0160208091040260200160405190810160405280929190818152602001828054611aa990613577565b8015611af65780601f10611acb57610100808354040283529160200191611af6565b820191906000526020600020905b815481529060010190602001808311611ad957829003601f168201915b505050505090806001018054611b0b90613577565b80601f0160208091040260200160405190810160405280929190818152602001828054611b3790613577565b8015611b845780601f10611b5957610100808354040283529160200191611b84565b820191906000526020600020905b815481529060010190602001808311611b6757829003601f168201915b505050505090806002018054611b9990613577565b80601f0160208091040260200160405190810160405280929190818152602001828054611bc590613577565b8015611c125780601f10611be757610100808354040283529160200191611c12565b820191906000526020600020905b815481529060010190602001808311611bf557829003601f168201915b5050505060038301546004840154600580860154600687015460408051808201825260078a01546001600160a01b0316815260088a0154602080830191909152825160c08101845260098c0180548252600a8d015492820192909252600b8c015493810193909352600c8b0154999a979996985093969295909492939192606084019160ff1690811115611ca857611ca8612f94565b6005811115611cb957611cb9612f94565b815260200160048201805480602002602001604051908101604052809291908181526020018280548015611d1657602002820191906000526020600020905b81546001600160a01b03168152600190910190602001808311611cf8575b50505050508152602001600582018054611d2f90613577565b80601f0160208091040260200160405190810160405280929190818152602001828054611d5b90613577565b8015611da85780601f10611d7d57610100808354040283529160200191611da8565b820191906000526020600020905b815481529060010190602001808311611d8b57829003601f168201915b505050505081525050905089565b6003546001600160a01b03163314610b425760405162461bcd60e51b815260206004820181905260248201527f4f776e61626c653a2063616c6c6572206973206e6f7420746865206f776e657260448201526064016105bb565b60008082118015611e2357506008548211155b611e625760405162461bcd60e51b815260206004820152601060248201526f2bb937b7339021b7b63632b1ba34b7b760811b60448201526064016105bb565b6106366001836135c8565b6001600160a01b038416611ecd5760405162461bcd60e51b815260206004820152602160248201527f455243313135353a206d696e7420746f20746865207a65726f206164647265736044820152607360f81b60648201526084016105bb565b336000611ed9856125f5565b90506000611ee6856125f5565b9050611ef783600089858589612640565b6000868152602081815260408083206001600160a01b038b16845290915281208054879290611f279084906135f5565b909155505060408051878152602081018790526001600160a01b03808a1692600092918716917fc3d58168c5ae7397731d063d5bbf3d657854427343f4c083240f7aacaa2d0f62910160405180910390a4611f8783600089898989612656565b50505050505050565b8151835114611ff25760405162461bcd60e51b815260206004820152602860248201527f455243313135353a2069647320616e6420616d6f756e7473206c656e677468206044820152670dad2e6dac2e8c6d60c31b60648201526084016105bb565b6001600160a01b0384166120185760405162461bcd60e51b81526004016105bb90613755565b33612027818787878787612640565b60005b845181101561210d576000858281518110612047576120476135df565b602002602001015190506000858381518110612065576120656135df565b602090810291909101810151600084815280835260408082206001600160a01b038e1683529093529190912054909150818110156120b55760405162461bcd60e51b81526004016105bb9061379a565b6000838152602081815260408083206001600160a01b038e8116855292528083208585039055908b168252812080548492906120f29084906135f5565b92505081905550505050806121069061365c565b905061202a565b50846001600160a01b0316866001600160a01b0316826001600160a01b03167f4a39dc06d4c0dbc64b70af90fd698a233a518aa5d07e595d983b8c0526c8f7fb878760405161215d9291906137e4565b60405180910390a46121738187878787876127b2565b505050505050565b6040516001600160f81b031960f883901b1660208201526001600160601b03193360601b1660218201524460358201524260558201526001607582015260009083906095016040516020818303038152906040528051906020012060001c6121e39190613812565b9392505050565b6121f2612b0f565b6040518060c001604052806000815260200160008152602001600081526020016000600581111561222557612225612f94565b81526020016000604051908082528060200260200182016040528015612255578160200160208202803683370190505b50815260408051602081810190925260008152910152919050565b61227861286d565b6003805460ff60a01b191690557f5db9ee0a495bf2e6ff9c91a7834c1ba4fdd244a5e8aa4e537bd38aeae4b073aa335b6040516001600160a01b03909116815260200160405180910390a1565b600380546001600160a01b038381166001600160a01b0319831681179093556040519116919082907f8be0079c531659141344cd1fd0a4f28419497f9722a3daafe3b4186f6b6457e090600090a35050565b61231f612573565b6003805460ff60a01b1916600160a01b1790557f62e78cea01bee320cd4e420270b5ea74000d11b0c9f74754ebdbfc544b05a2586122a83390565b816001600160a01b0316836001600160a01b031614156123ce5760405162461bcd60e51b815260206004820152602960248201527f455243313135353a2073657474696e6720617070726f76616c20737461747573604482015268103337b91039b2b63360b91b60648201526084016105bb565b6001600160a01b03838116600081815260016020908152604080832094871680845294825291829020805460ff191686151590811790915591519182527f17307eab39ab6107e8899845ad3d59bd9653f200f220920489ca2b5937696c31910160405180910390a3505050565b6001600160a01b0384166124615760405162461bcd60e51b81526004016105bb90613755565b33600061246d856125f5565b9050600061247a856125f5565b905061248a838989858589612640565b6000868152602081815260408083206001600160a01b038c168452909152902054858110156124cb5760405162461bcd60e51b81526004016105bb9061379a565b6000878152602081815260408083206001600160a01b038d8116855292528083208985039055908a168252812080548892906125089084906135f5565b909155505060408051888152602081018890526001600160a01b03808b16928c821692918816917fc3d58168c5ae7397731d063d5bbf3d657854427343f4c083240f7aacaa2d0f62910160405180910390a4612568848a8a8a8a8a612656565b505050505050505050565b600354600160a01b900460ff1615610b425760405162461bcd60e51b815260206004820152601060248201526f14185d5cd8589b194e881c185d5cd95960821b60448201526064016105bb565b60006008826040516020016125d59190613826565b60408051601f198184030181529190528051602090910120901c92915050565b6040805160018082528183019092526060916000919060208083019080368337019050509050828160008151811061262f5761262f6135df565b602090810291909101015292915050565b612648612573565b6121738686868686866128bd565b6001600160a01b0384163b156121735760405163f23a6e6160e01b81526001600160a01b0385169063f23a6e619061269a9089908990889088908890600401613842565b6020604051808303816000875af19250505080156126d5575060408051601f3d908101601f191682019092526126d29181019061387c565b60015b612782576126e1613899565b806308c379a0141561271b57506126f66138b5565b80612701575061271d565b8060405162461bcd60e51b81526004016105bb9190612c3c565b505b60405162461bcd60e51b815260206004820152603460248201527f455243313135353a207472616e7366657220746f206e6f6e20455243313135356044820152732932b1b2b4bb32b91034b6b83632b6b2b73a32b960611b60648201526084016105bb565b6001600160e01b0319811663f23a6e6160e01b14611f875760405162461bcd60e51b81526004016105bb9061393f565b6001600160a01b0384163b156121735760405163bc197c8160e01b81526001600160a01b0385169063bc197c81906127f69089908990889088908890600401613987565b6020604051808303816000875af1925050508015612831575060408051601f3d908101601f1916820190925261282e9181019061387c565b60015b61283d576126e1613899565b6001600160e01b0319811663bc197c8160e01b14611f875760405162461bcd60e51b81526004016105bb9061393f565b600354600160a01b900460ff16610b425760405162461bcd60e51b815260206004820152601460248201527314185d5cd8589b194e881b9bdd081c185d5cd95960621b60448201526064016105bb565b6001600160a01b0385166129445760005b8351811015612942578281815181106128e9576128e96135df565b602002602001015160046000868481518110612907576129076135df565b60200260200101518152602001908152602001600020600082825461292c91906135f5565b9091555061293b90508161365c565b90506128ce565b505b6001600160a01b0384166121735760005b8351811015611f87576000848281518110612972576129726135df565b602002602001015190506000848381518110612990576129906135df565b6020026020010151905060006004600084815260200190815260200160002054905081811015612a135760405162461bcd60e51b815260206004820152602860248201527f455243313135353a206275726e20616d6f756e74206578636565647320746f74604482015267616c537570706c7960c01b60648201526084016105bb565b60009283526004602052604090922091039055612a2f8161365c565b9050612955565b828054828255906000526020600020908101928215612a8b579160200282015b82811115612a8b57825182546001600160a01b0319166001600160a01b03909116178255602090920191600190910190612a56565b50612a97929150612b56565b5090565b828054612aa790613577565b90600052602060002090601f016020900481019282612ac95760008555612a8b565b82601f10612ae257805160ff1916838001178555612a8b565b82800160010185558215612a8b579182015b82811115612a8b578251825591602001919060010190612af4565b6040518060c0016040528060008152602001600081526020016000815260200160006005811115612b4257612b42612f94565b815260200160608152602001606081525090565b5b80821115612a975760008155600101612b57565b80356001600160a01b0381168114612b8257600080fd5b919050565b60008060408385031215612b9a57600080fd5b612ba383612b6b565b946020939093013593505050565b6001600160e01b03198116811461157c57600080fd5b600060208284031215612bd957600080fd5b81356121e381612bb1565b60005b83811015612bff578181015183820152602001612be7565b838111156108fe5750506000910152565b60008151808452612c28816020860160208601612be4565b601f01601f19169290920160200192915050565b6020815260006121e36020830184612c10565b600060208284031215612c6157600080fd5b5035919050565b600080600060608486031215612c7d57600080fd5b612c8684612b6b565b95602085013595506040909401359392505050565b634e487b7160e01b600052604160045260246000fd5b601f8201601f1916810167ffffffffffffffff81118282101715612cd757612cd7612c9b565b6040525050565b600067ffffffffffffffff821115612cf857612cf8612c9b565b5060051b60200190565b600082601f830112612d1357600080fd5b81356020612d2082612cde565b604051612d2d8282612cb1565b83815260059390931b8501820192828101915086841115612d4d57600080fd5b8286015b84811015612d685780358352918301918301612d51565b509695505050505050565b600082601f830112612d8457600080fd5b813567ffffffffffffffff811115612d9e57612d9e612c9b565b604051612db5601f8301601f191660200182612cb1565b818152846020838601011115612dca57600080fd5b816020850160208301376000918101602001919091529392505050565b600080600080600060a08688031215612dff57600080fd5b612e0886612b6b565b9450612e1660208701612b6b565b9350604086013567ffffffffffffffff80821115612e3357600080fd5b612e3f89838a01612d02565b94506060880135915080821115612e5557600080fd5b612e6189838a01612d02565b93506080880135915080821115612e7757600080fd5b50612e8488828901612d73565b9150509295509295909350565b600082601f830112612ea257600080fd5b81356020612eaf82612cde565b604051612ebc8282612cb1565b83815260059390931b8501820192828101915086841115612edc57600080fd5b8286015b84811015612d6857612ef181612b6b565b8352918301918301612ee0565b60008060008060008060c08789031215612f1757600080fd5b86359550602087013560068110612f2d57600080fd5b94506040870135935060608701359250608087013567ffffffffffffffff80821115612f5857600080fd5b612f648a838b01612e91565b935060a0890135915080821115612f7a57600080fd5b50612f8789828a01612d73565b9150509295509295509295565b634e487b7160e01b600052602160045260246000fd5b600060c08301825184526020808401518186015260408401516040860152606084015160068110612feb57634e487b7160e01b600052602160045260246000fd5b606086015260808481015160c09187019190915280519283905281019160009060e08701905b8083101561303a5784516001600160a01b03168252938301936001929092019190830190613011565b5060a0860151935086810360a08801526130548185612c10565b979650505050505050565b60006020808301818452808551808352604092508286019150828160051b87010184880160005b8381101561315b57603f19898403018552815161014081518186526130ad82870182612c10565b915050888201518582038a8701526130c58282612c10565b91505087820151858203898701526130dd8282612c10565b606084810151908801526080808501519088015260a0808501519088015260c0808501519088015260e08085015180516001600160a01b0316828a015260208101516101008a01529193509150505061010082015191508481036101208601526131478183612faa565b968901969450505090860190600101613086565b509098975050505050505050565b6000806040838503121561317c57600080fd5b823567ffffffffffffffff8082111561319457600080fd5b6131a086838701612e91565b935060208501359150808211156131b657600080fd5b506131c385828601612d02565b9150509250929050565b600081518084526020808501945080840160005b838110156131fd578151875295820195908201906001016131e1565b509495945050505050565b6020815260006121e360208301846131cd565b60006040828403121561322d57600080fd5b6040516040810181811067ffffffffffffffff8211171561325057613250612c9b565b60405290508061325f83612b6b565b8152602083013560208201525092915050565b60008060008060a0858703121561328857600080fd5b8435935060208501359250604085013591506132a7866060870161321b565b905092959194509250565b600080604083850312156132c557600080fd5b6132ce83612b6b565b9150602083013580151581146132e357600080fd5b809150509250929050565b60008060008060008060e0878903121561330757600080fd5b863567ffffffffffffffff8082111561331f57600080fd5b61332b8a838b01612d73565b9750602089013591508082111561334157600080fd5b61334d8a838b01612d73565b9650604089013591508082111561336357600080fd5b5061337089828a01612d73565b945050606087013592506080870135915061338e8860a0890161321b565b90509295509295509295565b600080604083850312156133ad57600080fd5b6133b683612b6b565b91506133c460208401612b6b565b90509250929050565b600080600080600060a086880312156133e557600080fd5b6133ee86612b6b565b94506133fc60208701612b6b565b93506040860135925060608601359150608086013567ffffffffffffffff81111561342657600080fd5b612e8488828901612d73565b60006020828403121561344457600080fd5b6121e382612b6b565b6000806000806000806000806101e0808a8c03121561346b57600080fd5b8935985060208a0135975060408a0135965060608a0135955060808a013567ffffffffffffffff81111561349e57600080fd5b6134aa8c828d01612d73565b95505060a08a0135935060c08a013592508a818b0111156134ca57600080fd5b5060e0890190509295985092959890939650565b60006101408083526134f28184018d612c10565b90508281036020840152613506818c612c10565b9050828103604084015261351a818b612c10565b90508860608401528760808401528660a08401528560c084015261355460e084018680516001600160a01b03168252602090810151910152565b8281036101208401526135678185612faa565b9c9b505050505050505050505050565b600181811c9082168061358b57607f821691505b602082108114156135ac57634e487b7160e01b600052602260045260246000fd5b50919050565b634e487b7160e01b600052601160045260246000fd5b6000828210156135da576135da6135b2565b500390565b634e487b7160e01b600052603260045260246000fd5b60008219821115613608576136086135b2565b500190565b6020808252602f908201527f455243313135353a2063616c6c6572206973206e6f7420746f6b656e206f776e60408201526e195c881b9bdc88185c1c1c9bdd9959608a1b606082015260800190565b6000600019821415613670576136706135b2565b5060010190565b6000816000190483118215151615613691576136916135b2565b500290565b60006101a0820190508782528660208301528560408301528460608301528360808301526101008360a084013760008152979650505050505050565b634e487b7160e01b600052601260045260246000fd5b6000826136f7576136f76136d2565b500490565b6001600160a01b038616815260c06020820181905260009061372090830187612c10565b6040838101969096528281036060840152600381526213919560ea1b602082015260808301949094525060a001520192915050565b60208082526025908201527f455243313135353a207472616e7366657220746f20746865207a65726f206164604082015264647265737360d81b606082015260800190565b6020808252602a908201527f455243313135353a20696e73756666696369656e742062616c616e636520666f60408201526939103a3930b739b332b960b11b606082015260800190565b6040815260006137f760408301856131cd565b828103602084015261380981856131cd565b95945050505050565b600082613821576138216136d2565b500690565b60008251613838818460208701612be4565b9190910192915050565b6001600160a01b03868116825285166020820152604081018490526060810183905260a06080820181905260009061305490830184612c10565b60006020828403121561388e57600080fd5b81516121e381612bb1565b600060033d11156138b25760046000803e5060005160e01c5b90565b600060443d10156138c35790565b6040516003193d81016004833e81513d67ffffffffffffffff81602484011181841117156138f357505050505090565b828501915081518181111561390b5750505050505090565b843d87010160208285010111156139255750505050505090565b61393460208286010187612cb1565b509095945050505050565b60208082526028908201527f455243313135353a204552433131353552656365697665722072656a656374656040820152676420746f6b656e7360c01b606082015260800190565b6001600160a01b0386811682528516602082015260a0604082018190526000906139b3908301866131cd565b82810360608401526139c581866131cd565b905082810360808401526139d98185612c10565b9897505050505050505056fea264697066735822122041cc7685f48dda52200fa23682e92fa6b500d6088646005f226783a31a6f044564736f6c634300080c0033360894a13ba1a3210667c828492db98dca3e2076cc3735a920a3ca505d382bbc416464726573733a206c6f772d6c6576656c2064656c65676174652063616c6c206661696c6564a26469706673582212205d0a2b5b5671784886cb7c1f53556813c1b3153315e1e378552d511d764f75e464736f6c634300080c0033",
  "linkReferences": {},
  "deployedLinkReferences": {}
}