{
  "_format": "hh-sol-artifact-1",
  "contractName": "FactoryNFTContract",
  "sourceName": "src/backend/contracts/FactoryNFTContract.sol",
  "abi": [
    {
      "inputs": [],
      "stateMutability": "nonpayable",
      "type": "constructor"
    },
    {
      "anonymous": false,
      "inputs": [
        {
          "indexed": false,
          "internalType": "address",
          "name": "previousAdmin",
          "type": "address"
        },
        {
          "indexed": false,
          "internalType": "address",
          "name": "newAdmin",
          "type": "address"
        }
      ],
      "name": "AdminChanged",
      "type": "event"
    },
    {
      "anonymous": false,
      "inputs": [
        {
          "indexed": true,
          "internalType": "address",
          "name": "beacon",
          "type": "address"
        }
      ],
      "name": "BeaconUpgraded",
      "type": "event"
    },
    {
      "anonymous": false,
      "inputs": [
        {
          "indexed": false,
          "internalType": "uint8",
          "name": "version",
          "type": "uint8"
        }
      ],
      "name": "Initialized",
      "type": "event"
    },
    {
      "anonymous": false,
      "inputs": [
        {
          "indexed": true,
          "internalType": "address",
          "name": "previousOwner",
          "type": "address"
        },
        {
          "indexed": true,
          "internalType": "address",
          "name": "newOwner",
          "type": "address"
        }
      ],
      "name": "OwnershipTransferred",
      "type": "event"
    },
    {
      "anonymous": false,
      "inputs": [
        {
          "indexed": true,
          "internalType": "address",
          "name": "implementation",
          "type": "address"
        }
      ],
      "name": "Upgraded",
      "type": "event"
    },
    {
      "inputs": [
        {
          "internalType": "uint256",
          "name": "_communityId",
          "type": "uint256"
        },
        {
          "internalType": "string",
          "name": "_name",
          "type": "string"
        },
        {
          "internalType": "string",
          "name": "_symbol",
          "type": "string"
        }
      ],
      "name": "deployNFTCollectionContract",
      "outputs": [],
      "stateMutability": "nonpayable",
      "type": "function"
    },
    {
      "inputs": [
        {
          "internalType": "address",
          "name": "_mainContractAddress",
          "type": "address"
        }
      ],
      "name": "initialize",
      "outputs": [],
      "stateMutability": "nonpayable",
      "type": "function"
    },
    {
      "inputs": [],
      "name": "owner",
      "outputs": [
        {
          "internalType": "address",
          "name": "",
          "type": "address"
        }
      ],
      "stateMutability": "view",
      "type": "function"
    },
    {
      "inputs": [],
      "name": "proxiableUUID",
      "outputs": [
        {
          "internalType": "bytes32",
          "name": "",
          "type": "bytes32"
        }
      ],
      "stateMutability": "view",
      "type": "function"
    },
    {
      "inputs": [],
      "name": "renounceOwnership",
      "outputs": [],
      "stateMutability": "nonpayable",
      "type": "function"
    },
    {
      "inputs": [
        {
          "internalType": "address",
          "name": "newOwner",
          "type": "address"
        }
      ],
      "name": "transferOwnership",
      "outputs": [],
      "stateMutability": "nonpayable",
      "type": "function"
    },
    {
      "inputs": [
        {
          "internalType": "address",
          "name": "newImplementation",
          "type": "address"
        }
      ],
      "name": "upgradeTo",
      "outputs": [],
      "stateMutability": "nonpayable",
      "type": "function"
    },
    {
      "inputs": [
        {
          "internalType": "address",
          "name": "newImplementation",
          "type": "address"
        },
        {
          "internalType": "bytes",
          "name": "data",
          "type": "bytes"
        }
      ],
      "name": "upgradeToAndCall",
      "outputs": [],
      "stateMutability": "payable",
      "type": "function"
    }
  ],
  "bytecode": "0x60a06040523060805234801561001457600080fd5b5061001d610022565b6100e2565b600054610100900460ff161561008e5760405162461bcd60e51b815260206004820152602760248201527f496e697469616c697a61626c653a20636f6e747261637420697320696e697469604482015266616c697a696e6760c81b606482015260840160405180910390fd5b60005460ff90811610156100e0576000805460ff191660ff9081179091556040519081527f7f26b83ff96e1f2b6a682f133852f6798a09c465da95921460cefb38474024989060200160405180910390a15b565b608051614af5610119600039600081816101af015281816101fb015281816102a4015281816102e701526103830152614af56000f3fe608060405260043610620000855760003560e01c80638da5cb5b11620000545780638da5cb5b146200010b578063c4d66de81462000135578063d6bbb102146200015a578063f2fde38b146200017f57600080fd5b80633659cfe6146200008a5780634f1ef28614620000b157806352d1902d14620000c8578063715018a614620000f3575b600080fd5b3480156200009757600080fd5b50620000af620000a936600462000de5565b620001a4565b005b620000af620000c236600462000e96565b62000299565b348015620000d557600080fd5b50620000e062000376565b6040519081526020015b60405180910390f35b3480156200010057600080fd5b50620000af6200042c565b3480156200011857600080fd5b506033546040516001600160a01b039091168152602001620000ea565b3480156200014257600080fd5b50620000af6200015436600462000de5565b62000444565b3480156200016757600080fd5b50620000af6200017936600462000f22565b62000583565b3480156200018c57600080fd5b50620000af6200019e36600462000de5565b62000822565b306001600160a01b037f0000000000000000000000000000000000000000000000000000000000000000161415620001f95760405162461bcd60e51b8152600401620001f09062000f96565b60405180910390fd5b7f00000000000000000000000000000000000000000000000000000000000000006001600160a01b03166200024460008051602062004a79833981519152546001600160a01b031690565b6001600160a01b0316146200026d5760405162461bcd60e51b8152600401620001f09062000fe2565b62000278816200089e565b604080516000808252602082019092526200029691839190620008a8565b50565b306001600160a01b037f0000000000000000000000000000000000000000000000000000000000000000161415620002e55760405162461bcd60e51b8152600401620001f09062000f96565b7f00000000000000000000000000000000000000000000000000000000000000006001600160a01b03166200033060008051602062004a79833981519152546001600160a01b031690565b6001600160a01b031614620003595760405162461bcd60e51b8152600401620001f09062000fe2565b62000364826200089e565b6200037282826001620008a8565b5050565b6000306001600160a01b037f00000000000000000000000000000000000000000000000000000000000000001614620004185760405162461bcd60e51b815260206004820152603860248201527f555550535570677261646561626c653a206d757374206e6f742062652063616c60448201527f6c6564207468726f7567682064656c656761746563616c6c00000000000000006064820152608401620001f0565b5060008051602062004a7983398151915290565b6200043662000a25565b62000442600062000a81565b565b600054610100900460ff1615808015620004655750600054600160ff909116105b80620004815750303b15801562000481575060005460ff166001145b620004e65760405162461bcd60e51b815260206004820152602e60248201527f496e697469616c697a61626c653a20636f6e747261637420697320616c72656160448201526d191e481a5b9a5d1a585b1a5e995960921b6064820152608401620001f0565b6000805460ff1916600117905580156200050a576000805461ff0019166101001790555b6200051462000ad3565b6200051e62000b07565b60c980546001600160a01b0319166001600160a01b038416179055801562000372576000805461ff0019169055604051600181527f7f26b83ff96e1f2b6a682f133852f6798a09c465da95921460cefb38474024989060200160405180910390a15050565b600382511015620005ef5760405162461bcd60e51b815260206004820152602f60248201527f436f6c6c656374696f6e206e616d652073686f756c64206265206c6f6e67657260448201526e207468616e20322073796d626f6c7360881b6064820152608401620001f0565b60038151101580156200060457506005815111155b6200065c5760405162461bcd60e51b815260206004820152602160248201527f53796d626f6c206c656e6774682073686f756c6420626520332d3520636861726044820152607360f81b6064820152608401620001f0565b60c954604051635b25bfbb60e11b8152600481018590526000916001600160a01b03169063b64b7f76906024016040805180830381865afa158015620006a6573d6000803e3d6000fd5b505050506040513d601f19601f82011682018060405250810190620006cc91906200103f565b50905080156200072b5760405162461bcd60e51b815260206004820152602360248201527f436f6d6d756e69747920616c72656164792068617665204e465420436f6e74726044820152621858dd60ea1b6064820152608401620001f0565b60008383336040516200073e9062000dba565b6200074c93929190620010d4565b604051809103906000f08015801562000769573d6000803e3d6000fd5b5060ca80546001810182556000919091527f42d72674974f694b5f5159593243114d38a5c39c89d6b62fee061ff523240ee10180546001600160a01b0319166001600160a01b0383811691821790925560c95460405163e00f786560e01b8152600481018a9052602481019290925292935091169063e00f786590604401600060405180830381600087803b1580156200080257600080fd5b505af115801562000817573d6000803e3d6000fd5b505050505050505050565b6200082c62000a25565b6001600160a01b038116620008935760405162461bcd60e51b815260206004820152602660248201527f4f776e61626c653a206e6577206f776e657220697320746865207a65726f206160448201526564647265737360d01b6064820152608401620001f0565b620002968162000a81565b6200029662000a25565b7f4910fdfa16fed3260ed0e7147f7cc6da11a60208b5b9406d12a635614ffd91435460ff1615620008e357620008de8362000b31565b505050565b826001600160a01b03166352d1902d6040518163ffffffff1660e01b8152600401602060405180830381865afa92505050801562000940575060408051601f3d908101601f191682019092526200093d9181019062001116565b60015b620009a55760405162461bcd60e51b815260206004820152602e60248201527f45524331393637557067726164653a206e657720696d706c656d656e7461746960448201526d6f6e206973206e6f74205555505360901b6064820152608401620001f0565b60008051602062004a79833981519152811462000a175760405162461bcd60e51b815260206004820152602960248201527f45524331393637557067726164653a20756e737570706f727465642070726f786044820152681a58589b195555525160ba1b6064820152608401620001f0565b50620008de83838362000bd0565b6033546001600160a01b03163314620004425760405162461bcd60e51b815260206004820181905260248201527f4f776e61626c653a2063616c6c6572206973206e6f7420746865206f776e65726044820152606401620001f0565b603380546001600160a01b038381166001600160a01b0319831681179093556040519116919082907f8be0079c531659141344cd1fd0a4f28419497f9722a3daafe3b4186f6b6457e090600090a35050565b600054610100900460ff1662000afd5760405162461bcd60e51b8152600401620001f09062001130565b6200044262000c01565b600054610100900460ff16620004425760405162461bcd60e51b8152600401620001f09062001130565b6001600160a01b0381163b62000ba05760405162461bcd60e51b815260206004820152602d60248201527f455243313936373a206e657720696d706c656d656e746174696f6e206973206e60448201526c1bdd08184818dbdb9d1c9858dd609a1b6064820152608401620001f0565b60008051602062004a7983398151915280546001600160a01b0319166001600160a01b0392909216919091179055565b62000bdb8362000c36565b60008251118062000be95750805b15620008de5762000bfb838362000c78565b50505050565b600054610100900460ff1662000c2b5760405162461bcd60e51b8152600401620001f09062001130565b620004423362000a81565b62000c418162000b31565b6040516001600160a01b038216907fbc7cd75a20ee27fd9adebab32041f755214dbc6bffa90cc0225b39da2e5c2d3b90600090a250565b60606001600160a01b0383163b62000ce25760405162461bcd60e51b815260206004820152602660248201527f416464726573733a2064656c65676174652063616c6c20746f206e6f6e2d636f6044820152651b9d1c9858dd60d21b6064820152608401620001f0565b600080846001600160a01b03168460405162000cff91906200117b565b600060405180830381855af49150503d806000811462000d3c576040519150601f19603f3d011682016040523d82523d6000602084013e62000d41565b606091505b509150915062000d6c828260405180606001604052806027815260200162004a996027913962000d75565b95945050505050565b6060831562000d8657508162000db3565b82511562000d975782518084602001fd5b8160405162461bcd60e51b8152600401620001f0919062001199565b9392505050565b6138ca80620011af83390190565b80356001600160a01b038116811462000de057600080fd5b919050565b60006020828403121562000df857600080fd5b62000db38262000dc8565b634e487b7160e01b600052604160045260246000fd5b600067ffffffffffffffff8084111562000e375762000e3762000e03565b604051601f8501601f19908116603f0116810190828211818310171562000e625762000e6262000e03565b8160405280935085815286868601111562000e7c57600080fd5b858560208301376000602087830101525050509392505050565b6000806040838503121562000eaa57600080fd5b62000eb58362000dc8565b9150602083013567ffffffffffffffff81111562000ed257600080fd5b8301601f8101851362000ee457600080fd5b62000ef58582356020840162000e19565b9150509250929050565b600082601f83011262000f1157600080fd5b62000db38383356020850162000e19565b60008060006060848603121562000f3857600080fd5b83359250602084013567ffffffffffffffff8082111562000f5857600080fd5b62000f668783880162000eff565b9350604086013591508082111562000f7d57600080fd5b5062000f8c8682870162000eff565b9150509250925092565b6020808252602c908201527f46756e6374696f6e206d7573742062652063616c6c6564207468726f7567682060408201526b19195b1959d85d1958d85b1b60a21b606082015260800190565b6020808252602c908201527f46756e6374696f6e206d7573742062652063616c6c6564207468726f7567682060408201526b6163746976652070726f787960a01b606082015260800190565b8051801515811462000de057600080fd5b600080604083850312156200105357600080fd5b6200105e836200102e565b91506200106e602084016200102e565b90509250929050565b60005b83811015620010945781810151838201526020016200107a565b8381111562000bfb5750506000910152565b60008151808452620010c081602086016020860162001077565b601f01601f19169290920160200192915050565b606081526000620010e96060830186620010a6565b8281036020840152620010fd8186620010a6565b91505060018060a01b0383166040830152949350505050565b6000602082840312156200112957600080fd5b5051919050565b6020808252602b908201527f496e697469616c697a61626c653a20636f6e7472616374206973206e6f74206960408201526a6e697469616c697a696e6760a81b606082015260800190565b600082516200118f81846020870162001077565b9190910192915050565b60208152600062000db36020830184620010a656fe60806040523480156200001157600080fd5b50604051620038ca380380620038ca833981016040819052620000349162000366565b6040805160208101909152600081526200004e81620000a7565b506200005a33620000c0565b6003805460ff60a01b19169055620000728162000112565b825162000087906005906020860190620001f3565b5081516200009d906006906020850190620001f3565b5050505062000430565b8051620000bc906002906020840190620001f3565b5050565b600380546001600160a01b038381166001600160a01b0319831681179093556040519116919082907f8be0079c531659141344cd1fd0a4f28419497f9722a3daafe3b4186f6b6457e090600090a35050565b6200011c62000195565b6001600160a01b038116620001875760405162461bcd60e51b815260206004820152602660248201527f4f776e61626c653a206e6577206f776e657220697320746865207a65726f206160448201526564647265737360d01b60648201526084015b60405180910390fd5b6200019281620000c0565b50565b6003546001600160a01b03163314620001f15760405162461bcd60e51b815260206004820181905260248201527f4f776e61626c653a2063616c6c6572206973206e6f7420746865206f776e657260448201526064016200017e565b565b8280546200020190620003f3565b90600052602060002090601f01602090048101928262000225576000855562000270565b82601f106200024057805160ff191683800117855562000270565b8280016001018555821562000270579182015b828111156200027057825182559160200191906001019062000253565b506200027e92915062000282565b5090565b5b808211156200027e576000815560010162000283565b634e487b7160e01b600052604160045260246000fd5b600082601f830112620002c157600080fd5b81516001600160401b0380821115620002de57620002de62000299565b604051601f8301601f19908116603f0116810190828211818310171562000309576200030962000299565b816040528381526020925086838588010111156200032657600080fd5b600091505b838210156200034a57858201830151818301840152908201906200032b565b838211156200035c5760008385830101525b9695505050505050565b6000806000606084860312156200037c57600080fd5b83516001600160401b03808211156200039457600080fd5b620003a287838801620002af565b94506020860151915080821115620003b957600080fd5b50620003c886828701620002af565b604086015190935090506001600160a01b0381168114620003e857600080fd5b809150509250925092565b600181811c908216806200040857607f821691505b602082108114156200042a57634e487b7160e01b600052602260045260246000fd5b50919050565b61348a80620004406000396000f3fe60806040526004361061019b5760003560e01c80635e7ea74c116100ec578063cb27d43f1161008a578063e985e9c511610064578063e985e9c514610496578063f242432a146104df578063f2fde38b146104ff578063fdbda0ec1461051f57600080fd5b8063cb27d43f14610443578063cf1058de14610463578063e6a7dba61461048357600080fd5b80638da5cb5b116100c65780638da5cb5b146103b957806395d89b41146103e1578063a22cb465146103f6578063bd85b0391461041657600080fd5b80635e7ea74c1461036f578063715018a61461038f5780638456cb59146103a457600080fd5b80632eb2c2d61161015957806346e635861161013357806346e63586146102d25780634e1273f4146102f45780634f558e79146103215780635c975abb1461035057600080fd5b80632eb2c2d61461027d578063381da4881461029d5780633f4ba83a146102bd57600080fd5b8062fdd58e146101a057806301ffc9a7146101d357806306fdde03146102035780630e89341c14610225578063156e29f6146102455780632e17af0714610267575b600080fd5b3480156101ac57600080fd5b506101c06101bb366004612751565b610554565b6040519081526020015b60405180910390f35b3480156101df57600080fd5b506101f36101ee366004612791565b6105ea565b60405190151581526020016101ca565b34801561020f57600080fd5b5061021861063c565b6040516101ca91906127fb565b34801561023157600080fd5b5061021861024036600461280e565b6106ca565b34801561025157600080fd5b50610265610260366004612827565b610790565b005b34801561027357600080fd5b506101c060075481565b34801561028957600080fd5b506102656102983660046129a6565b610904565b3480156102a957600080fd5b506102656102b836600461280e565b610950565b3480156102c957600080fd5b50610265610a0d565b3480156102de57600080fd5b506102e7610a1f565b6040516101ca9190612b16565b34801561030057600080fd5b5061031461030f366004612c8d565b610d88565b6040516101ca9190612d2c565b34801561032d57600080fd5b506101f361033c36600461280e565b600090815260046020526040902054151590565b34801561035c57600080fd5b50600354600160a01b900460ff166101f3565b34801561037b57600080fd5b5061026561038a366004612d96565b610eb2565b34801561039b57600080fd5b50610265611055565b3480156103b057600080fd5b50610265611067565b3480156103c557600080fd5b506003546040516001600160a01b0390911681526020016101ca565b3480156103ed57600080fd5b50610218611077565b34801561040257600080fd5b50610265610411366004612de6565b611084565b34801561042257600080fd5b506101c061043136600461280e565b60009081526004602052604090205490565b34801561044f57600080fd5b5061026561045e366004612e19565b611093565b34801561046f57600080fd5b5061026561047e366004612ec5565b611361565b610265610491366004612f39565b611442565b3480156104a257600080fd5b506101f36104b1366004612f65565b6001600160a01b03918216600090815260016020908152604080832093909416825291909152205460ff1690565b3480156104eb57600080fd5b506102656104fa366004612f8f565b611612565b34801561050b57600080fd5b5061026561051a366004612ff4565b611657565b34801561052b57600080fd5b5061053f61053a36600461280e565b6116d0565b6040516101ca9998979695949392919061300f565b60006001600160a01b0383166105c45760405162461bcd60e51b815260206004820152602a60248201527f455243313135353a2061646472657373207a65726f206973206e6f742061207660448201526930b634b21037bbb732b960b11b60648201526084015b60405180910390fd5b506000908152602081815260408083206001600160a01b03949094168352929052205490565b60006001600160e01b03198216636cdb3d1360e11b148061061b57506001600160e01b031982166303a24d0760e21b145b8061063657506301ffc9a760e01b6001600160e01b03198316145b92915050565b60058054610649906130a8565b80601f0160208091040260200160405190810160405280929190818152602001828054610675906130a8565b80156106c25780601f10610697576101008083540402835291602001916106c2565b820191906000526020600020905b8154815290600101906020018083116106a557829003601f168201915b505050505081565b6060600060086106db6001856130f9565b815481106106eb576106eb613110565b90600052602060002090600f0201905080600101805461070a906130a8565b80601f0160208091040260200160405190810160405280929190818152602001828054610736906130a8565b80156107835780601f1061075857610100808354040283529160200191610783565b820191906000526020600020905b81548152906001019060200180831161076657829003601f168201915b5050505050915050919050565b6107986119bb565b600081116107dc5760405162461bcd60e51b815260206004820152601160248201527015dc9bdb99c81b5a5b9d08185b5bdd5b9d607a1b60448201526064016105bb565b6001600160a01b0383166108325760405162461bcd60e51b815260206004820181905260248201527f57726f6e672064657374696e6174696f6e2077616c6c6574204164647265737360448201526064016105bb565b6000600861083f84611a15565b8154811061084f5761084f613110565b90600052602060002090600f020190506000816005015411156108c85781816006015461087c9190613126565b816005015410156108c85760405162461bcd60e51b8152602060048201526016602482015275139bdd08195b9bdd59da081cdd5c1c1b1e481b19599d60521b60448201526064016105bb565b818160060160008282546108dc9190613126565b925050819055506108fe84848460405180602001604052806000815250611a72565b50505050565b6001600160a01b038516331480610920575061092085336104b1565b61093c5760405162461bcd60e51b81526004016105bb9061313e565b6109498585858585611b95565b5050505050565b6109586119bb565b6000600861096583611a15565b8154811061097557610975613110565b90600052602060002090600f0201905061098d611d80565b8051600983019081556020820151600a8401556040820151600b8401556060820151600c8401805460ff191660018360058111156109cd576109cd612a50565b0217905550608082015180516109ed916004840191602090910190612600565b5060a091909101516005909101805460ff19169115159190911790555050565b610a156119bb565b610a1d611dfb565b565b60606008805480602002602001604051908101604052809291908181526020016000905b82821015610d7f57838290600052602060002090600f020160405180610120016040529081600082018054610a77906130a8565b80601f0160208091040260200160405190810160405280929190818152602001828054610aa3906130a8565b8015610af05780601f10610ac557610100808354040283529160200191610af0565b820191906000526020600020905b815481529060010190602001808311610ad357829003601f168201915b50505050508152602001600182018054610b09906130a8565b80601f0160208091040260200160405190810160405280929190818152602001828054610b35906130a8565b8015610b825780601f10610b5757610100808354040283529160200191610b82565b820191906000526020600020905b815481529060010190602001808311610b6557829003601f168201915b50505050508152602001600282018054610b9b906130a8565b80601f0160208091040260200160405190810160405280929190818152602001828054610bc7906130a8565b8015610c145780601f10610be957610100808354040283529160200191610c14565b820191906000526020600020905b815481529060010190602001808311610bf757829003601f168201915b5050505050815260200160038201548152602001600482015481526020016005820154815260200160068201548152602001600782016040518060400160405290816000820160009054906101000a90046001600160a01b03166001600160a01b03166001600160a01b031681526020016001820154815250508152602001600982016040518060c00160405290816000820154815260200160018201548152602001600282015481526020016003820160009054906101000a900460ff166005811115610ce457610ce4612a50565b6005811115610cf557610cf5612a50565b815260200160048201805480602002602001604051908101604052809291908181526020018280548015610d5257602002820191906000526020600020905b81546001600160a01b03168152600190910190602001808311610d34575b50505091835250506005919091015460ff1615156020918201529152918352506001929092019101610a43565b50505050905090565b60608151835114610ded5760405162461bcd60e51b815260206004820152602960248201527f455243313135353a206163636f756e747320616e6420696473206c656e677468604482015268040dad2e6dac2e8c6d60bb1b60648201526084016105bb565b6000835167ffffffffffffffff811115610e0957610e0961285a565b604051908082528060200260200182016040528015610e32578160200160208202803683370190505b50905060005b8451811015610eaa57610e7d858281518110610e5657610e56613110565b6020026020010151858381518110610e7057610e70613110565b6020026020010151610554565b828281518110610e8f57610e8f613110565b6020908102919091010152610ea38161318d565b9050610e38565b509392505050565b610eba6119bb565b60006008610ec786611a15565b81548110610ed757610ed7613110565b60009182526020909120600f9091020190508215610f4d578060060154831015610f4d5760405162461bcd60e51b815260206004820152602160248201527f537570706c79206973206c6573732074686174206d696e74656420616d6f756e6044820152601d60fa1b60648201526084016105bb565b81516001600160a01b031615611015576000826020015111610fb15760405162461bcd60e51b815260206004820152601e60248201527f506c656173652070726f7669646520726f79616c74792070657263656e74000060448201526064016105bb565b605a826020015111156110155760405162461bcd60e51b815260206004820152602660248201527f526f79616c74792070657263656e742063616e2774206265206d6f7265207468604482015265616e2039302560d01b60648201526084016105bb565b6004810193909355600583019190915580516007830180546001600160a01b0319166001600160a01b039092169190911790556020015160089091015550565b61105d6119bb565b610a1d6000611e50565b61106f6119bb565b610a1d611ea2565b60068054610649906130a8565b61108f338383611ee5565b5050565b61109b6119bb565b60008651116110dd5760405162461bcd60e51b815260206004820152600e60248201526d57726f6e67206a736f6e2055524960901b60448201526064016105bb565b60008551116111205760405162461bcd60e51b815260206004820152600f60248201526e57726f6e67206d656469612055524960881b60448201526064016105bb565b80516001600160a01b0316156111a457600081602001511180156111495750605a816020015111155b6111a45760405162461bcd60e51b815260206004820152602660248201527f506c656173652070726f7669646520636f727265637420726f79616c74792070604482015265195c98d95b9d60d21b60648201526084016105bb565b6001600760008282546111b79190613126565b925050819055506008604051806101200160405280868152602001888152602001878152602001600754815260200185815260200184815260200160008152602001838152602001611207611d80565b905281546001810183556000928352602092839020825180519394600f909302909101926112389284920190612665565b5060208281015180516112519260018501920190612665565b506040820151805161126d916002840191602090910190612665565b5060608281015160038301556080830151600483015560a083015160058084019190915560c0840151600684015560e084015180516007850180546001600160a01b0319166001600160a01b03909216919091179055602090810151600885015561010085015180516009860190815591810151600a8601556040810151600b86015592830151600c8501805492939192909160ff1990911690600190849081111561131b5761131b612a50565b02179055506080820151805161133b916004840191602090910190612600565b5060a091909101516005909101805460ff19169115159190911790555050505050505050565b6113696119bb565b6000600861137688611a15565b8154811061138657611386613110565b600091825260208220600f90910201915060048760058111156113ab576113ab612a50565b14156113c2576113bf620f423f6001611fc6565b90505b6040518060c001604052808781526020018681526020018281526020018860058111156113f1576113f1612a50565b8152602080820187905285151560409283015282516009860190815590830151600a86015590820151600b8501556060820151600c8501805460ff1916600183600581111561131b5761131b612a50565b61144a61203a565b6000600861145785611a15565b8154811061146757611467613110565b90600052602060002090600f02019050600083116114bb5760405162461bcd60e51b815260206004820152601160248201527015dc9bdb99c81b5a5b9d08185b5bdd5b9d607a1b60448201526064016105bb565b600581015415611521578281600601546114d59190613126565b816005015410156115215760405162461bcd60e51b8152602060048201526016602482015275139bdd08195b9bdd59da081cdd5c1c1b1e481b19599d60521b60448201526064016105bb565b60048101541561158c57600081600401548461153d91906131a8565b9050803410156115865760405162461bcd60e51b815260206004820152601460248201527315dc9bdb99c81c185e5b595b9d08185b5bdd5b9d60621b60448201526064016105bb565b506115dc565b826001146115dc5760405162461bcd60e51b815260206004820152601e60248201527f596f752063616e2774206d696e74206d6f7265207468616e2031204e4654000060448201526064016105bb565b828160060160008282546115f09190613126565b925050819055506108fe33858560405180602001604052806000815250611a72565b6001600160a01b03851633148061162e575061162e85336104b1565b61164a5760405162461bcd60e51b81526004016105bb9061313e565b6109498585858585612087565b61165f6119bb565b6001600160a01b0381166116c45760405162461bcd60e51b815260206004820152602660248201527f4f776e61626c653a206e6577206f776e657220697320746865207a65726f206160448201526564647265737360d01b60648201526084016105bb565b6116cd81611e50565b50565b600881815481106116e057600080fd5b90600052602060002090600f0201600091509050806000018054611703906130a8565b80601f016020809104026020016040519081016040528092919081815260200182805461172f906130a8565b801561177c5780601f106117515761010080835404028352916020019161177c565b820191906000526020600020905b81548152906001019060200180831161175f57829003601f168201915b505050505090806001018054611791906130a8565b80601f01602080910402602001604051908101604052809291908181526020018280546117bd906130a8565b801561180a5780601f106117df5761010080835404028352916020019161180a565b820191906000526020600020905b8154815290600101906020018083116117ed57829003601f168201915b50505050509080600201805461181f906130a8565b80601f016020809104026020016040519081016040528092919081815260200182805461184b906130a8565b80156118985780601f1061186d57610100808354040283529160200191611898565b820191906000526020600020905b81548152906001019060200180831161187b57829003601f168201915b5050505060038301546004840154600580860154600687015460408051808201825260078a01546001600160a01b0316815260088a0154602080830191909152825160c08101845260098c0180548252600a8d015492820192909252600b8c015493810193909352600c8b0154999a979996985093969295909492939192606084019160ff169081111561192e5761192e612a50565b600581111561193f5761193f612a50565b81526020016004820180548060200260200160405190810160405280929190818152602001828054801561199c57602002820191906000526020600020905b81546001600160a01b0316815260019091019060200180831161197e575b50505091835250506005919091015460ff161515602090910152905089565b6003546001600160a01b03163314610a1d5760405162461bcd60e51b815260206004820181905260248201527f4f776e61626c653a2063616c6c6572206973206e6f7420746865206f776e657260448201526064016105bb565b60008082118015611a2857506007548211155b611a675760405162461bcd60e51b815260206004820152601060248201526f2bb937b7339021b7b63632b1ba34b7b760811b60448201526064016105bb565b6106366001836130f9565b6001600160a01b038416611ad25760405162461bcd60e51b815260206004820152602160248201527f455243313135353a206d696e7420746f20746865207a65726f206164647265736044820152607360f81b60648201526084016105bb565b336000611ade856121bf565b90506000611aeb856121bf565b9050611afc8360008985858961220a565b6000868152602081815260408083206001600160a01b038b16845290915281208054879290611b2c908490613126565b909155505060408051878152602081018790526001600160a01b03808a1692600092918716917fc3d58168c5ae7397731d063d5bbf3d657854427343f4c083240f7aacaa2d0f62910160405180910390a4611b8c83600089898989612220565b50505050505050565b8151835114611bf75760405162461bcd60e51b815260206004820152602860248201527f455243313135353a2069647320616e6420616d6f756e7473206c656e677468206044820152670dad2e6dac2e8c6d60c31b60648201526084016105bb565b6001600160a01b038416611c1d5760405162461bcd60e51b81526004016105bb906131c7565b33611c2c81878787878761220a565b60005b8451811015611d12576000858281518110611c4c57611c4c613110565b602002602001015190506000858381518110611c6a57611c6a613110565b602090810291909101810151600084815280835260408082206001600160a01b038e168352909352919091205490915081811015611cba5760405162461bcd60e51b81526004016105bb9061320c565b6000838152602081815260408083206001600160a01b038e8116855292528083208585039055908b16825281208054849290611cf7908490613126565b9250508190555050505080611d0b9061318d565b9050611c2f565b50846001600160a01b0316866001600160a01b0316826001600160a01b03167f4a39dc06d4c0dbc64b70af90fd698a233a518aa5d07e595d983b8c0526c8f7fb8787604051611d62929190613256565b60405180910390a4611d7881878787878761237c565b505050505050565b611d886126d9565b6040518060c0016040528060008152602001600081526020016000815260200160006005811115611dbb57611dbb612a50565b81526020016000604051908082528060200260200182016040528015611deb578160200160208202803683370190505b5081526000602090910152919050565b611e03612437565b6003805460ff60a01b191690557f5db9ee0a495bf2e6ff9c91a7834c1ba4fdd244a5e8aa4e537bd38aeae4b073aa335b6040516001600160a01b03909116815260200160405180910390a1565b600380546001600160a01b038381166001600160a01b0319831681179093556040519116919082907f8be0079c531659141344cd1fd0a4f28419497f9722a3daafe3b4186f6b6457e090600090a35050565b611eaa61203a565b6003805460ff60a01b1916600160a01b1790557f62e78cea01bee320cd4e420270b5ea74000d11b0c9f74754ebdbfc544b05a258611e333390565b816001600160a01b0316836001600160a01b03161415611f595760405162461bcd60e51b815260206004820152602960248201527f455243313135353a2073657474696e6720617070726f76616c20737461747573604482015268103337b91039b2b63360b91b60648201526084016105bb565b6001600160a01b03838116600081815260016020908152604080832094871680845294825291829020805460ff191686151590811790915591519182527f17307eab39ab6107e8899845ad3d59bd9653f200f220920489ca2b5937696c31910160405180910390a3505050565b6040516001600160f81b031960f883901b1660208201526bffffffffffffffffffffffff193360601b1660218201524460358201524260558201526001607582015260009083906095016040516020818303038152906040528051906020012060001c6120339190613284565b9392505050565b600354600160a01b900460ff1615610a1d5760405162461bcd60e51b815260206004820152601060248201526f14185d5cd8589b194e881c185d5cd95960821b60448201526064016105bb565b6001600160a01b0384166120ad5760405162461bcd60e51b81526004016105bb906131c7565b3360006120b9856121bf565b905060006120c6856121bf565b90506120d683898985858961220a565b6000868152602081815260408083206001600160a01b038c168452909152902054858110156121175760405162461bcd60e51b81526004016105bb9061320c565b6000878152602081815260408083206001600160a01b038d8116855292528083208985039055908a16825281208054889290612154908490613126565b909155505060408051888152602081018890526001600160a01b03808b16928c821692918816917fc3d58168c5ae7397731d063d5bbf3d657854427343f4c083240f7aacaa2d0f62910160405180910390a46121b4848a8a8a8a8a612220565b505050505050505050565b604080516001808252818301909252606091600091906020808301908036833701905050905082816000815181106121f9576121f9613110565b602090810291909101015292915050565b61221261203a565b611d78868686868686612487565b6001600160a01b0384163b15611d785760405163f23a6e6160e01b81526001600160a01b0385169063f23a6e619061226490899089908890889088906004016132a6565b6020604051808303816000875af192505050801561229f575060408051601f3d908101601f1916820190925261229c918101906132eb565b60015b61234c576122ab613308565b806308c379a014156122e557506122c0613324565b806122cb57506122e7565b8060405162461bcd60e51b81526004016105bb91906127fb565b505b60405162461bcd60e51b815260206004820152603460248201527f455243313135353a207472616e7366657220746f206e6f6e20455243313135356044820152732932b1b2b4bb32b91034b6b83632b6b2b73a32b960611b60648201526084016105bb565b6001600160e01b0319811663f23a6e6160e01b14611b8c5760405162461bcd60e51b81526004016105bb906133ae565b6001600160a01b0384163b15611d785760405163bc197c8160e01b81526001600160a01b0385169063bc197c81906123c090899089908890889088906004016133f6565b6020604051808303816000875af19250505080156123fb575060408051601f3d908101601f191682019092526123f8918101906132eb565b60015b612407576122ab613308565b6001600160e01b0319811663bc197c8160e01b14611b8c5760405162461bcd60e51b81526004016105bb906133ae565b600354600160a01b900460ff16610a1d5760405162461bcd60e51b815260206004820152601460248201527314185d5cd8589b194e881b9bdd081c185d5cd95960621b60448201526064016105bb565b6001600160a01b03851661250e5760005b835181101561250c578281815181106124b3576124b3613110565b6020026020010151600460008684815181106124d1576124d1613110565b6020026020010151815260200190815260200160002060008282546124f69190613126565b9091555061250590508161318d565b9050612498565b505b6001600160a01b038416611d785760005b8351811015611b8c57600084828151811061253c5761253c613110565b60200260200101519050600084838151811061255a5761255a613110565b60200260200101519050600060046000848152602001908152602001600020549050818110156125dd5760405162461bcd60e51b815260206004820152602860248201527f455243313135353a206275726e20616d6f756e74206578636565647320746f74604482015267616c537570706c7960c01b60648201526084016105bb565b600092835260046020526040909220910390556125f98161318d565b905061251f565b828054828255906000526020600020908101928215612655579160200282015b8281111561265557825182546001600160a01b0319166001600160a01b03909116178255602090920191600190910190612620565b50612661929150612720565b5090565b828054612671906130a8565b90600052602060002090601f0160209004810192826126935760008555612655565b82601f106126ac57805160ff1916838001178555612655565b82800160010185558215612655579182015b828111156126555782518255916020019190600101906126be565b6040518060c001604052806000815260200160008152602001600081526020016000600581111561270c5761270c612a50565b815260606020820152600060409091015290565b5b808211156126615760008155600101612721565b80356001600160a01b038116811461274c57600080fd5b919050565b6000806040838503121561276457600080fd5b61276d83612735565b946020939093013593505050565b6001600160e01b0319811681146116cd57600080fd5b6000602082840312156127a357600080fd5b81356120338161277b565b6000815180845260005b818110156127d4576020818501810151868301820152016127b8565b818111156127e6576000602083870101525b50601f01601f19169290920160200192915050565b60208152600061203360208301846127ae565b60006020828403121561282057600080fd5b5035919050565b60008060006060848603121561283c57600080fd5b61284584612735565b95602085013595506040909401359392505050565b634e487b7160e01b600052604160045260246000fd5b601f8201601f1916810167ffffffffffffffff811182821017156128965761289661285a565b6040525050565b600067ffffffffffffffff8211156128b7576128b761285a565b5060051b60200190565b600082601f8301126128d257600080fd5b813560206128df8261289d565b6040516128ec8282612870565b83815260059390931b850182019282810191508684111561290c57600080fd5b8286015b848110156129275780358352918301918301612910565b509695505050505050565b600082601f83011261294357600080fd5b813567ffffffffffffffff81111561295d5761295d61285a565b604051612974601f8301601f191660200182612870565b81815284602083860101111561298957600080fd5b816020850160208301376000918101602001919091529392505050565b600080600080600060a086880312156129be57600080fd5b6129c786612735565b94506129d560208701612735565b9350604086013567ffffffffffffffff808211156129f257600080fd5b6129fe89838a016128c1565b94506060880135915080821115612a1457600080fd5b612a2089838a016128c1565b93506080880135915080821115612a3657600080fd5b50612a4388828901612932565b9150509295509295909350565b634e487b7160e01b600052602160045260246000fd5b600060c08301825184526020808401518186015260408401516040860152606084015160068110612aa757634e487b7160e01b600052602160045260246000fd5b606086015260808481015160c09187019190915280519283905281019160009060e08701905b80831015612af65784516001600160a01b03168252938301936001929092019190830190612acd565b5060a08601519350612b0c60a088018515159052565b9695505050505050565b60006020808301818452808551808352604092508286019150828160051b87010184880160005b83811015612c1257603f1989840301855281516101408151818652612b64828701826127ae565b915050888201518582038a870152612b7c82826127ae565b9150508782015185820389870152612b9482826127ae565b606084810151908801526080808501519088015260a0808501519088015260c0808501519088015260e08085015180516001600160a01b0316828a015260208101516101008a0152919350915050506101008201519150848103610120860152612bfe8183612a66565b968901969450505090860190600101612b3d565b509098975050505050505050565b600082601f830112612c3157600080fd5b81356020612c3e8261289d565b604051612c4b8282612870565b83815260059390931b8501820192828101915086841115612c6b57600080fd5b8286015b8481101561292757612c8081612735565b8352918301918301612c6f565b60008060408385031215612ca057600080fd5b823567ffffffffffffffff80821115612cb857600080fd5b612cc486838701612c20565b93506020850135915080821115612cda57600080fd5b50612ce7858286016128c1565b9150509250929050565b600081518084526020808501945080840160005b83811015612d2157815187529582019590820190600101612d05565b509495945050505050565b6020815260006120336020830184612cf1565b600060408284031215612d5157600080fd5b6040516040810181811067ffffffffffffffff82111715612d7457612d7461285a565b604052905080612d8383612735565b8152602083013560208201525092915050565b60008060008060a08587031215612dac57600080fd5b843593506020850135925060408501359150612dcb8660608701612d3f565b905092959194509250565b8035801515811461274c57600080fd5b60008060408385031215612df957600080fd5b612e0283612735565b9150612e1060208401612dd6565b90509250929050565b60008060008060008060e08789031215612e3257600080fd5b863567ffffffffffffffff80821115612e4a57600080fd5b612e568a838b01612932565b97506020890135915080821115612e6c57600080fd5b612e788a838b01612932565b96506040890135915080821115612e8e57600080fd5b50612e9b89828a01612932565b9450506060870135925060808701359150612eb98860a08901612d3f565b90509295509295509295565b60008060008060008060c08789031215612ede57600080fd5b86359550602087013560068110612ef457600080fd5b94506040870135935060608701359250608087013567ffffffffffffffff811115612f1e57600080fd5b612f2a89828a01612c20565b925050612eb960a08801612dd6565b600080600060608486031215612f4e57600080fd5b505081359360208301359350604090920135919050565b60008060408385031215612f7857600080fd5b612f8183612735565b9150612e1060208401612735565b600080600080600060a08688031215612fa757600080fd5b612fb086612735565b9450612fbe60208701612735565b93506040860135925060608601359150608086013567ffffffffffffffff811115612fe857600080fd5b612a4388828901612932565b60006020828403121561300657600080fd5b61203382612735565b60006101408083526130238184018d6127ae565b90508281036020840152613037818c6127ae565b9050828103604084015261304b818b6127ae565b90508860608401528760808401528660a08401528560c084015261308560e084018680516001600160a01b03168252602090810151910152565b8281036101208401526130988185612a66565b9c9b505050505050505050505050565b600181811c908216806130bc57607f821691505b602082108114156130dd57634e487b7160e01b600052602260045260246000fd5b50919050565b634e487b7160e01b600052601160045260246000fd5b60008282101561310b5761310b6130e3565b500390565b634e487b7160e01b600052603260045260246000fd5b60008219821115613139576131396130e3565b500190565b6020808252602f908201527f455243313135353a2063616c6c6572206973206e6f7420746f6b656e206f776e60408201526e195c881b9bdc88185c1c1c9bdd9959608a1b606082015260800190565b60006000198214156131a1576131a16130e3565b5060010190565b60008160001904831182151516156131c2576131c26130e3565b500290565b60208082526025908201527f455243313135353a207472616e7366657220746f20746865207a65726f206164604082015264647265737360d81b606082015260800190565b6020808252602a908201527f455243313135353a20696e73756666696369656e742062616c616e636520666f60408201526939103a3930b739b332b960b11b606082015260800190565b6040815260006132696040830185612cf1565b828103602084015261327b8185612cf1565b95945050505050565b6000826132a157634e487b7160e01b600052601260045260246000fd5b500690565b6001600160a01b03868116825285166020820152604081018490526060810183905260a0608082018190526000906132e0908301846127ae565b979650505050505050565b6000602082840312156132fd57600080fd5b81516120338161277b565b600060033d11156133215760046000803e5060005160e01c5b90565b600060443d10156133325790565b6040516003193d81016004833e81513d67ffffffffffffffff816024840111818411171561336257505050505090565b828501915081518181111561337a5750505050505090565b843d87010160208285010111156133945750505050505090565b6133a360208286010187612870565b509095945050505050565b60208082526028908201527f455243313135353a204552433131353552656365697665722072656a656374656040820152676420746f6b656e7360c01b606082015260800190565b6001600160a01b0386811682528516602082015260a06040820181905260009061342290830186612cf1565b82810360608401526134348186612cf1565b9050828103608084015261344881856127ae565b9897505050505050505056fea2646970667358221220c282e6bed7c811bf42bb3bfd1374acae0e83b2bfd6558fcd8017c78a7e6d149164736f6c634300080c0033360894a13ba1a3210667c828492db98dca3e2076cc3735a920a3ca505d382bbc416464726573733a206c6f772d6c6576656c2064656c65676174652063616c6c206661696c6564a26469706673582212201a448e053391ee606bf46e8501755960351b77480e67bf04f4112bf60f4374ab64736f6c634300080c0033",
  "linkReferences": {},
  "deployedLinkReferences": {}
}