{
  "_format": "hh-sol-artifact-1",
  "contractName": "FactoryFTContract",
  "sourceName": "src/backend/contracts/FactoryFTContract.sol",
  "abi": [
    {
      "inputs": [],
      "stateMutability": "nonpayable",
      "type": "constructor"
    },
    {
      "anonymous": false,
      "inputs": [
        {
          "indexed": false,
          "internalType": "address",
          "name": "previousAdmin",
          "type": "address"
        },
        {
          "indexed": false,
          "internalType": "address",
          "name": "newAdmin",
          "type": "address"
        }
      ],
      "name": "AdminChanged",
      "type": "event"
    },
    {
      "anonymous": false,
      "inputs": [
        {
          "indexed": true,
          "internalType": "address",
          "name": "beacon",
          "type": "address"
        }
      ],
      "name": "BeaconUpgraded",
      "type": "event"
    },
    {
      "anonymous": false,
      "inputs": [
        {
          "indexed": false,
          "internalType": "uint8",
          "name": "version",
          "type": "uint8"
        }
      ],
      "name": "Initialized",
      "type": "event"
    },
    {
      "anonymous": false,
      "inputs": [
        {
          "indexed": true,
          "internalType": "address",
          "name": "previousOwner",
          "type": "address"
        },
        {
          "indexed": true,
          "internalType": "address",
          "name": "newOwner",
          "type": "address"
        }
      ],
      "name": "OwnershipTransferred",
      "type": "event"
    },
    {
      "anonymous": false,
      "inputs": [
        {
          "indexed": true,
          "internalType": "address",
          "name": "implementation",
          "type": "address"
        }
      ],
      "name": "Upgraded",
      "type": "event"
    },
    {
      "inputs": [
        {
          "internalType": "uint256",
          "name": "_communityId",
          "type": "uint256"
        },
        {
          "internalType": "string",
          "name": "_name",
          "type": "string"
        },
        {
          "internalType": "string",
          "name": "_symbol",
          "type": "string"
        },
        {
          "internalType": "uint256",
          "name": "_supply",
          "type": "uint256"
        }
      ],
      "name": "deployFTContract",
      "outputs": [],
      "stateMutability": "nonpayable",
      "type": "function"
    },
    {
      "inputs": [
        {
          "internalType": "address",
          "name": "_mainContractAddress",
          "type": "address"
        }
      ],
      "name": "initialize",
      "outputs": [],
      "stateMutability": "nonpayable",
      "type": "function"
    },
    {
      "inputs": [],
      "name": "owner",
      "outputs": [
        {
          "internalType": "address",
          "name": "",
          "type": "address"
        }
      ],
      "stateMutability": "view",
      "type": "function"
    },
    {
      "inputs": [],
      "name": "proxiableUUID",
      "outputs": [
        {
          "internalType": "bytes32",
          "name": "",
          "type": "bytes32"
        }
      ],
      "stateMutability": "view",
      "type": "function"
    },
    {
      "inputs": [],
      "name": "renounceOwnership",
      "outputs": [],
      "stateMutability": "nonpayable",
      "type": "function"
    },
    {
      "inputs": [
        {
          "internalType": "address",
          "name": "newOwner",
          "type": "address"
        }
      ],
      "name": "transferOwnership",
      "outputs": [],
      "stateMutability": "nonpayable",
      "type": "function"
    },
    {
      "inputs": [
        {
          "internalType": "address",
          "name": "newImplementation",
          "type": "address"
        }
      ],
      "name": "upgradeTo",
      "outputs": [],
      "stateMutability": "nonpayable",
      "type": "function"
    },
    {
      "inputs": [
        {
          "internalType": "address",
          "name": "newImplementation",
          "type": "address"
        },
        {
          "internalType": "bytes",
          "name": "data",
          "type": "bytes"
        }
      ],
      "name": "upgradeToAndCall",
      "outputs": [],
      "stateMutability": "payable",
      "type": "function"
    }
  ],
  "bytecode": "0x60a06040523060805234801561001457600080fd5b5061001d610022565b6100e2565b600054610100900460ff161561008e5760405162461bcd60e51b815260206004820152602760248201527f496e697469616c697a61626c653a20636f6e747261637420697320696e697469604482015266616c697a696e6760c81b606482015260840160405180910390fd5b60005460ff90811610156100e0576000805460ff191660ff9081179091556040519081527f7f26b83ff96e1f2b6a682f133852f6798a09c465da95921460cefb38474024989060200160405180910390a15b565b608051612b3b610119600039600081816101af015281816101fb015281816102a4015281816102e701526103830152612b3b6000f3fe608060405260043610620000855760003560e01c80638da5cb5b11620000545780638da5cb5b146200010b578063c4d66de81462000135578063ee01380d146200015a578063f2fde38b146200017f57600080fd5b80633659cfe6146200008a5780634f1ef28614620000b157806352d1902d14620000c8578063715018a614620000f3575b600080fd5b3480156200009757600080fd5b50620000af620000a936600462000e47565b620001a4565b005b620000af620000c236600462000efa565b62000299565b348015620000d557600080fd5b50620000e062000376565b6040519081526020015b60405180910390f35b3480156200010057600080fd5b50620000af6200042c565b3480156200011857600080fd5b506033546040516001600160a01b039091168152602001620000ea565b3480156200014257600080fd5b50620000af6200015436600462000e47565b62000444565b3480156200016757600080fd5b50620000af6200017936600462000f88565b62000583565b3480156200018c57600080fd5b50620000af6200019e36600462000e47565b6200088b565b306001600160a01b037f0000000000000000000000000000000000000000000000000000000000000000161415620001f95760405162461bcd60e51b8152600401620001f09062001004565b60405180910390fd5b7f00000000000000000000000000000000000000000000000000000000000000006001600160a01b03166200024460008051602062002abf833981519152546001600160a01b031690565b6001600160a01b0316146200026d5760405162461bcd60e51b8152600401620001f09062001050565b620002788162000907565b60408051600080825260208201909252620002969183919062000911565b50565b306001600160a01b037f0000000000000000000000000000000000000000000000000000000000000000161415620002e55760405162461bcd60e51b8152600401620001f09062001004565b7f00000000000000000000000000000000000000000000000000000000000000006001600160a01b03166200033060008051602062002abf833981519152546001600160a01b031690565b6001600160a01b031614620003595760405162461bcd60e51b8152600401620001f09062001050565b620003648262000907565b620003728282600162000911565b5050565b6000306001600160a01b037f00000000000000000000000000000000000000000000000000000000000000001614620004185760405162461bcd60e51b815260206004820152603860248201527f555550535570677261646561626c653a206d757374206e6f742062652063616c60448201527f6c6564207468726f7567682064656c656761746563616c6c00000000000000006064820152608401620001f0565b5060008051602062002abf83398151915290565b6200043662000a8e565b62000442600062000aea565b565b600054610100900460ff1615808015620004655750600054600160ff909116105b80620004815750303b15801562000481575060005460ff166001145b620004e65760405162461bcd60e51b815260206004820152602e60248201527f496e697469616c697a61626c653a20636f6e747261637420697320616c72656160448201526d191e481a5b9a5d1a585b1a5e995960921b6064820152608401620001f0565b6000805460ff1916600117905580156200050a576000805461ff0019166101001790555b6200051462000b3c565b6200051e62000b70565b60c980546001600160a01b0319166001600160a01b038416179055801562000372576000805461ff0019169055604051600181527f7f26b83ff96e1f2b6a682f133852f6798a09c465da95921460cefb38474024989060200160405180910390a15050565b600383511015620005ef5760405162461bcd60e51b815260206004820152602f60248201527f436f6c6c656374696f6e206e616d652073686f756c64206265206c6f6e67657260448201526e207468616e20322073796d626f6c7360881b6064820152608401620001f0565b60038251101580156200060457506005825111155b6200065c5760405162461bcd60e51b815260206004820152602160248201527f53796d626f6c206c656e6774682073686f756c6420626520332d3520636861726044820152607360f81b6064820152608401620001f0565b60008111620006a45760405162461bcd60e51b815260206004820152601360248201527215dc9bdb99c81cdd5c1c1b1e48185b5bdd5b9d606a1b6044820152606401620001f0565b60c95460405163397fd15760e11b81523360048201526024810186905260009182916001600160a01b03909116906372ffa2ae90604401606060405180830381865afa158015620006f9573d6000803e3d6000fd5b505050506040513d601f19601f820116820180604052508101906200071f91906200109c565b919350909150506001600160a01b038116156200078a5760405162461bcd60e51b815260206004820152602260248201527f436f6d6d756e69747920616c7265616479206861766520465420436f6e74726160448201526118dd60f21b6064820152608401620001f0565b6000858533866040516200079e9062000e23565b620007ad949392919062001141565b604051809103906000f080158015620007ca573d6000803e3d6000fd5b5060ca80546001810182556000919091527f42d72674974f694b5f5159593243114d38a5c39c89d6b62fee061ff523240ee10180546001600160a01b0319166001600160a01b0383811691821790925560c9546040516380deed0760e01b81523360048201526024810188905260448101929092529293509116906380deed0790606401600060405180830381600087803b1580156200086957600080fd5b505af11580156200087e573d6000803e3d6000fd5b5050505050505050505050565b6200089562000a8e565b6001600160a01b038116620008fc5760405162461bcd60e51b815260206004820152602660248201527f4f776e61626c653a206e6577206f776e657220697320746865207a65726f206160448201526564647265737360d01b6064820152608401620001f0565b620002968162000aea565b6200029662000a8e565b7f4910fdfa16fed3260ed0e7147f7cc6da11a60208b5b9406d12a635614ffd91435460ff16156200094c57620009478362000b9a565b505050565b826001600160a01b03166352d1902d6040518163ffffffff1660e01b8152600401602060405180830381865afa925050508015620009a9575060408051601f3d908101601f19168201909252620009a69181019062001187565b60015b62000a0e5760405162461bcd60e51b815260206004820152602e60248201527f45524331393637557067726164653a206e657720696d706c656d656e7461746960448201526d6f6e206973206e6f74205555505360901b6064820152608401620001f0565b60008051602062002abf833981519152811462000a805760405162461bcd60e51b815260206004820152602960248201527f45524331393637557067726164653a20756e737570706f727465642070726f786044820152681a58589b195555525160ba1b6064820152608401620001f0565b506200094783838362000c39565b6033546001600160a01b03163314620004425760405162461bcd60e51b815260206004820181905260248201527f4f776e61626c653a2063616c6c6572206973206e6f7420746865206f776e65726044820152606401620001f0565b603380546001600160a01b038381166001600160a01b0319831681179093556040519116919082907f8be0079c531659141344cd1fd0a4f28419497f9722a3daafe3b4186f6b6457e090600090a35050565b600054610100900460ff1662000b665760405162461bcd60e51b8152600401620001f090620011a1565b6200044262000c6a565b600054610100900460ff16620004425760405162461bcd60e51b8152600401620001f090620011a1565b6001600160a01b0381163b62000c095760405162461bcd60e51b815260206004820152602d60248201527f455243313936373a206e657720696d706c656d656e746174696f6e206973206e60448201526c1bdd08184818dbdb9d1c9858dd609a1b6064820152608401620001f0565b60008051602062002abf83398151915280546001600160a01b0319166001600160a01b0392909216919091179055565b62000c448362000c9f565b60008251118062000c525750805b15620009475762000c64838362000ce1565b50505050565b600054610100900460ff1662000c945760405162461bcd60e51b8152600401620001f090620011a1565b620004423362000aea565b62000caa8162000b9a565b6040516001600160a01b038216907fbc7cd75a20ee27fd9adebab32041f755214dbc6bffa90cc0225b39da2e5c2d3b90600090a250565b60606001600160a01b0383163b62000d4b5760405162461bcd60e51b815260206004820152602660248201527f416464726573733a2064656c65676174652063616c6c20746f206e6f6e2d636f6044820152651b9d1c9858dd60d21b6064820152608401620001f0565b600080846001600160a01b03168460405162000d689190620011ec565b600060405180830381855af49150503d806000811462000da5576040519150601f19603f3d011682016040523d82523d6000602084013e62000daa565b606091505b509150915062000dd5828260405180606001604052806027815260200162002adf6027913962000dde565b95945050505050565b6060831562000def57508162000e1c565b82511562000e005782518084602001fd5b8160405162461bcd60e51b8152600401620001f091906200120a565b9392505050565b61189f806200122083390190565b6001600160a01b03811681146200029657600080fd5b60006020828403121562000e5a57600080fd5b813562000e1c8162000e31565b634e487b7160e01b600052604160045260246000fd5b600067ffffffffffffffff8084111562000e9b5762000e9b62000e67565b604051601f8501601f19908116603f0116810190828211818310171562000ec65762000ec662000e67565b8160405280935085815286868601111562000ee057600080fd5b858560208301376000602087830101525050509392505050565b6000806040838503121562000f0e57600080fd5b823562000f1b8162000e31565b9150602083013567ffffffffffffffff81111562000f3857600080fd5b8301601f8101851362000f4a57600080fd5b62000f5b8582356020840162000e7d565b9150509250929050565b600082601f83011262000f7757600080fd5b62000e1c8383356020850162000e7d565b6000806000806080858703121562000f9f57600080fd5b84359350602085013567ffffffffffffffff8082111562000fbf57600080fd5b62000fcd8883890162000f65565b9450604087013591508082111562000fe457600080fd5b5062000ff38782880162000f65565b949793965093946060013593505050565b6020808252602c908201527f46756e6374696f6e206d7573742062652063616c6c6564207468726f7567682060408201526b19195b1959d85d1958d85b1b60a21b606082015260800190565b6020808252602c908201527f46756e6374696f6e206d7573742062652063616c6c6564207468726f7567682060408201526b6163746976652070726f787960a01b606082015260800190565b600080600060608486031215620010b257600080fd5b835192506020840151620010c68162000e31565b6040850151909250620010d98162000e31565b809150509250925092565b60005b8381101562001101578181015183820152602001620010e7565b8381111562000c645750506000910152565b600081518084526200112d816020860160208601620010e4565b601f01601f19169290920160200192915050565b60808152600062001156608083018762001113565b82810360208401526200116a818762001113565b6001600160a01b0395909516604084015250506060015292915050565b6000602082840312156200119a57600080fd5b5051919050565b6020808252602b908201527f496e697469616c697a61626c653a20636f6e7472616374206973206e6f74206960408201526a6e697469616c697a696e6760a81b606082015260800190565b6000825162001200818460208701620010e4565b9190910192915050565b60208152600062000e1c60208301846200111356fe60806040523480156200001157600080fd5b506040516200189f3803806200189f8339810160408190526200003491620004c5565b8351849084906200004d90600390602085019062000352565b5080516200006390600490602084019062000352565b50506005805460ff19169055506200007b33620000af565b6200009a826200009483670de0b6b3a76400006200056e565b62000109565b620000a58262000200565b50505050620005e8565b600580546001600160a01b03838116610100818102610100600160a81b031985161790945560405193909204169182907f8be0079c531659141344cd1fd0a4f28419497f9722a3daafe3b4186f6b6457e090600090a35050565b6001600160a01b038216620001655760405162461bcd60e51b815260206004820152601f60248201527f45524332303a206d696e7420746f20746865207a65726f20616464726573730060448201526064015b60405180910390fd5b62000173600083836200027f565b806002600082825462000187919062000590565b90915550506001600160a01b03821660009081526020819052604081208054839290620001b690849062000590565b90915550506040518181526001600160a01b038316906000907fddf252ad1be2c89b69c2b068fc378daa952ba7f163c4a11628f55a4df523b3ef9060200160405180910390a35050565b6200020a620002a6565b6001600160a01b038116620002715760405162461bcd60e51b815260206004820152602660248201527f4f776e61626c653a206e6577206f776e657220697320746865207a65726f206160448201526564647265737360d01b60648201526084016200015c565b6200027c81620000af565b50565b620002896200030a565b620002a1838383620002a160201b6200057d1760201c565b505050565b6005546001600160a01b03610100909104163314620003085760405162461bcd60e51b815260206004820181905260248201527f4f776e61626c653a2063616c6c6572206973206e6f7420746865206f776e657260448201526064016200015c565b565b60055460ff1615620003085760405162461bcd60e51b815260206004820152601060248201526f14185d5cd8589b194e881c185d5cd95960821b60448201526064016200015c565b8280546200036090620005ab565b90600052602060002090601f016020900481019282620003845760008555620003cf565b82601f106200039f57805160ff1916838001178555620003cf565b82800160010185558215620003cf579182015b82811115620003cf578251825591602001919060010190620003b2565b50620003dd929150620003e1565b5090565b5b80821115620003dd5760008155600101620003e2565b634e487b7160e01b600052604160045260246000fd5b600082601f8301126200042057600080fd5b81516001600160401b03808211156200043d576200043d620003f8565b604051601f8301601f19908116603f01168101908282118183101715620004685762000468620003f8565b816040528381526020925086838588010111156200048557600080fd5b600091505b83821015620004a957858201830151818301840152908201906200048a565b83821115620004bb5760008385830101525b9695505050505050565b60008060008060808587031215620004dc57600080fd5b84516001600160401b0380821115620004f457600080fd5b62000502888389016200040e565b955060208701519150808211156200051957600080fd5b5062000528878288016200040e565b604087015190945090506001600160a01b03811681146200054857600080fd5b6060959095015193969295505050565b634e487b7160e01b600052601160045260246000fd5b60008160001904831182151516156200058b576200058b62000558565b500290565b60008219821115620005a657620005a662000558565b500190565b600181811c90821680620005c057607f821691505b60208210811415620005e257634e487b7160e01b600052602260045260246000fd5b50919050565b6112a780620005f86000396000f3fe608060405234801561001057600080fd5b506004361061012c5760003560e01c806370a08231116100ad57806395d89b411161007157806395d89b411461025f578063a457c2d714610267578063a9059cbb1461027a578063dd62ed3e1461028d578063f2fde38b146102a057600080fd5b806370a08231146101ea578063715018a6146102135780637b0d511d1461021b5780638456cb591461022e5780638da5cb5b1461023657600080fd5b8063381da488116100f4578063381da488146101a657806339509351146101bb5780633f4ba83a146101ce5780635c975abb146101d657806369b0aafa146101e157600080fd5b806306fdde0314610131578063095ea7b31461014f57806318160ddd1461017257806323b872dd14610184578063313ce56714610197575b600080fd5b6101396102b3565b6040516101469190610f0c565b60405180910390f35b61016261015d366004610f7d565b610345565b6040519015158152602001610146565b6002545b604051908152602001610146565b610162610192366004610fa7565b61035d565b60405160128152602001610146565b6101b96101b4366004610fe3565b610381565b005b6101626101c9366004610f7d565b610583565b6101b96105a5565b60055460ff16610162565b61017660065481565b6101766101f8366004610ffc565b6001600160a01b031660009081526020819052604090205490565b6101b96105b7565b6101b961022936600461103d565b6105c9565b6101b961070a565b60055461010090046001600160a01b03166040516001600160a01b039091168152602001610146565b61013961071a565b610162610275366004610f7d565b610729565b610162610288366004610f7d565b6107a9565b61017661029b36600461113f565b6107b7565b6101b96102ae366004610ffc565b6107e2565b6060600380546102c290611172565b80601f01602080910402602001604051908101604052809291908181526020018280546102ee90611172565b801561033b5780601f106103105761010080835404028352916020019161033b565b820191906000526020600020905b81548152906001019060200180831161031e57829003601f168201915b5050505050905090565b600033610353818585610858565b5060019392505050565b60003361036b85828561097c565b6103768585856109f6565b506001949350505050565b610389610bd5565b600754600114156103f85760076000815481106103a8576103a86111ad565b60009182526020822060079091020181815560018101829055600281018290556003810182905560048101805460ff19169055906103e96005830182610e34565b50600601805460ff1916905550565b6000805b60065481101561057d57826007828154811061041a5761041a6111ad565b906000526020600020906007020160000154141561056d576007600160065461044391906111d9565b81548110610453576104536111ad565b906000526020600020906007020160078281548110610474576104746111ad565b600091825260209091208254600790920201908155600180830154818301556002808401549083015560038084015490830155600480840154908301805460ff90921692909160ff1916908360058111156104d1576104d16111f0565b0217905550600582810180546104ea9284019190610e52565b506006918201549101805460ff191660ff9092161515919091179055600780548061051757610517611206565b60008281526020812060076000199093019283020181815560018101829055600281018290556003810182905560048101805460ff191690559061055e6005830182610e34565b50600601805460ff1916905590555b6105768161121c565b90506103fc565b50505b50565b60003361035381858561059683836107b7565b6105a09190611237565b610858565b6105ad610bd5565b6105b5610c35565b565b6105bf610bd5565b6105b56000610c87565b6105d1610bd5565b600060048660058111156105e7576105e76111f0565b14156105fe576105fb620f423f6001610ce1565b90505b6001600660008282546106119190611237565b9250508190555060076040518060e001604052806006548152602001878152602001868152602001838152602001886005811115610651576106516111f0565b8152602080820187905285151560409283015283546001818101865560009586529482902084516007909202019081559083015181850155908201516002820155606082015160038201556080820151600482018054939492939192909160ff1916908360058111156106c6576106c66111f0565b021790555060a082015180516106e6916005840191602090910190610ea2565b5060c091909101516006909101805460ff1916911515919091179055505050505050565b610712610bd5565b6105b5610d55565b6060600480546102c290611172565b6000338161073782866107b7565b90508381101561079c5760405162461bcd60e51b815260206004820152602560248201527f45524332303a2064656372656173656420616c6c6f77616e63652062656c6f77604482015264207a65726f60d81b60648201526084015b60405180910390fd5b6103768286868403610858565b6000336103538185856109f6565b6001600160a01b03918216600090815260016020908152604080832093909416825291909152205490565b6107ea610bd5565b6001600160a01b03811661084f5760405162461bcd60e51b815260206004820152602660248201527f4f776e61626c653a206e6577206f776e657220697320746865207a65726f206160448201526564647265737360d01b6064820152608401610793565b61058081610c87565b6001600160a01b0383166108ba5760405162461bcd60e51b8152602060048201526024808201527f45524332303a20617070726f76652066726f6d20746865207a65726f206164646044820152637265737360e01b6064820152608401610793565b6001600160a01b03821661091b5760405162461bcd60e51b815260206004820152602260248201527f45524332303a20617070726f766520746f20746865207a65726f206164647265604482015261737360f01b6064820152608401610793565b6001600160a01b0383811660008181526001602090815260408083209487168084529482529182902085905590518481527f8c5be1e5ebec7d5bd14f71427d1e84f3dd0314c0f7b2291e5b200ac8c7c3b925910160405180910390a3505050565b600061098884846107b7565b905060001981146109f057818110156109e35760405162461bcd60e51b815260206004820152601d60248201527f45524332303a20696e73756666696369656e7420616c6c6f77616e63650000006044820152606401610793565b6109f08484848403610858565b50505050565b6001600160a01b038316610a5a5760405162461bcd60e51b815260206004820152602560248201527f45524332303a207472616e736665722066726f6d20746865207a65726f206164604482015264647265737360d81b6064820152608401610793565b6001600160a01b038216610abc5760405162461bcd60e51b815260206004820152602360248201527f45524332303a207472616e7366657220746f20746865207a65726f206164647260448201526265737360e81b6064820152608401610793565b610ac7838383610d92565b6001600160a01b03831660009081526020819052604090205481811015610b3f5760405162461bcd60e51b815260206004820152602660248201527f45524332303a207472616e7366657220616d6f756e7420657863656564732062604482015265616c616e636560d01b6064820152608401610793565b6001600160a01b03808516600090815260208190526040808220858503905591851681529081208054849290610b76908490611237565b92505081905550826001600160a01b0316846001600160a01b03167fddf252ad1be2c89b69c2b068fc378daa952ba7f163c4a11628f55a4df523b3ef84604051610bc291815260200190565b60405180910390a36109f084848461057d565b6005546001600160a01b036101009091041633146105b55760405162461bcd60e51b815260206004820181905260248201527f4f776e61626c653a2063616c6c6572206973206e6f7420746865206f776e65726044820152606401610793565b610c3d610da5565b6005805460ff191690557f5db9ee0a495bf2e6ff9c91a7834c1ba4fdd244a5e8aa4e537bd38aeae4b073aa335b6040516001600160a01b03909116815260200160405180910390a1565b600580546001600160a01b03838116610100818102610100600160a81b031985161790945560405193909204169182907f8be0079c531659141344cd1fd0a4f28419497f9722a3daafe3b4186f6b6457e090600090a35050565b6040516001600160f81b031960f883901b1660208201526bffffffffffffffffffffffff193360601b1660218201524460358201524260558201526001607582015260009083906095016040516020818303038152906040528051906020012060001c610d4e919061124f565b9392505050565b610d5d610dee565b6005805460ff191660011790557f62e78cea01bee320cd4e420270b5ea74000d11b0c9f74754ebdbfc544b05a258610c6a3390565b610d9a610dee565b61057d83838361057d565b60055460ff166105b55760405162461bcd60e51b815260206004820152601460248201527314185d5cd8589b194e881b9bdd081c185d5cd95960621b6044820152606401610793565b60055460ff16156105b55760405162461bcd60e51b815260206004820152601060248201526f14185d5cd8589b194e881c185d5cd95960821b6044820152606401610793565b50805460008255906000526020600020908101906105809190610ef7565b828054828255906000526020600020908101928215610e925760005260206000209182015b82811115610e92578254825591600101919060010190610e77565b50610e9e929150610ef7565b5090565b828054828255906000526020600020908101928215610e92579160200282015b82811115610e9257825182546001600160a01b0319166001600160a01b03909116178255602090920191600190910190610ec2565b5b80821115610e9e5760008155600101610ef8565b600060208083528351808285015260005b81811015610f3957858101830151858201604001528201610f1d565b81811115610f4b576000604083870101525b50601f01601f1916929092016040019392505050565b80356001600160a01b0381168114610f7857600080fd5b919050565b60008060408385031215610f9057600080fd5b610f9983610f61565b946020939093013593505050565b600080600060608486031215610fbc57600080fd5b610fc584610f61565b9250610fd360208501610f61565b9150604084013590509250925092565b600060208284031215610ff557600080fd5b5035919050565b60006020828403121561100e57600080fd5b610d4e82610f61565b634e487b7160e01b600052604160045260246000fd5b80358015158114610f7857600080fd5b600080600080600060a0868803121561105557600080fd5b85356006811061106457600080fd5b9450602086810135945060408701359350606087013567ffffffffffffffff8082111561109057600080fd5b818901915089601f8301126110a457600080fd5b8135818111156110b6576110b6611017565b8060051b604051601f19603f830116810181811085821117156110db576110db611017565b60405291825284820192508381018501918c8311156110f957600080fd5b938501935b8285101561111e5761110f85610f61565b845293850193928501926110fe565b8097505050505050506111336080870161102d565b90509295509295909350565b6000806040838503121561115257600080fd5b61115b83610f61565b915061116960208401610f61565b90509250929050565b600181811c9082168061118657607f821691505b602082108114156111a757634e487b7160e01b600052602260045260246000fd5b50919050565b634e487b7160e01b600052603260045260246000fd5b634e487b7160e01b600052601160045260246000fd5b6000828210156111eb576111eb6111c3565b500390565b634e487b7160e01b600052602160045260246000fd5b634e487b7160e01b600052603160045260246000fd5b6000600019821415611230576112306111c3565b5060010190565b6000821982111561124a5761124a6111c3565b500190565b60008261126c57634e487b7160e01b600052601260045260246000fd5b50069056fea264697066735822122026ed819347ea993597caeccca5a4c94775c3edb86c0a027f005016f978c7bb5664736f6c634300080c0033360894a13ba1a3210667c828492db98dca3e2076cc3735a920a3ca505d382bbc416464726573733a206c6f772d6c6576656c2064656c65676174652063616c6c206661696c6564a2646970667358221220d3a4a0c9067837373d83a15c2ab6d2c71398c6a3c4c73ba00ad331cbfe9e057d64736f6c634300080c0033",
  "linkReferences": {},
  "deployedLinkReferences": {}
}