{
  "_format": "hh-sol-artifact-1",
  "contractName": "FungibleToken",
  "sourceName": "src/backend/contracts/_FungibleToken.sol",
  "abi": [
    {
      "inputs": [
        {
          "internalType": "string",
          "name": "_name",
          "type": "string"
        },
        {
          "internalType": "string",
          "name": "_symbol",
          "type": "string"
        },
        {
          "internalType": "address",
          "name": "_owner",
          "type": "address"
        },
        {
          "internalType": "uint256",
          "name": "_supply",
          "type": "uint256"
        }
      ],
      "stateMutability": "nonpayable",
      "type": "constructor"
    },
    {
      "anonymous": false,
      "inputs": [
        {
          "indexed": true,
          "internalType": "address",
          "name": "owner",
          "type": "address"
        },
        {
          "indexed": true,
          "internalType": "address",
          "name": "spender",
          "type": "address"
        },
        {
          "indexed": false,
          "internalType": "uint256",
          "name": "value",
          "type": "uint256"
        }
      ],
      "name": "Approval",
      "type": "event"
    },
    {
      "anonymous": false,
      "inputs": [
        {
          "indexed": true,
          "internalType": "address",
          "name": "previousOwner",
          "type": "address"
        },
        {
          "indexed": true,
          "internalType": "address",
          "name": "newOwner",
          "type": "address"
        }
      ],
      "name": "OwnershipTransferred",
      "type": "event"
    },
    {
      "anonymous": false,
      "inputs": [
        {
          "indexed": false,
          "internalType": "address",
          "name": "account",
          "type": "address"
        }
      ],
      "name": "Paused",
      "type": "event"
    },
    {
      "anonymous": false,
      "inputs": [
        {
          "indexed": true,
          "internalType": "address",
          "name": "from",
          "type": "address"
        },
        {
          "indexed": true,
          "internalType": "address",
          "name": "to",
          "type": "address"
        },
        {
          "indexed": false,
          "internalType": "uint256",
          "name": "value",
          "type": "uint256"
        }
      ],
      "name": "Transfer",
      "type": "event"
    },
    {
      "anonymous": false,
      "inputs": [
        {
          "indexed": false,
          "internalType": "address",
          "name": "account",
          "type": "address"
        }
      ],
      "name": "Unpaused",
      "type": "event"
    },
    {
      "inputs": [
        {
          "internalType": "address",
          "name": "owner",
          "type": "address"
        },
        {
          "internalType": "address",
          "name": "spender",
          "type": "address"
        }
      ],
      "name": "allowance",
      "outputs": [
        {
          "internalType": "uint256",
          "name": "",
          "type": "uint256"
        }
      ],
      "stateMutability": "view",
      "type": "function"
    },
    {
      "inputs": [
        {
          "internalType": "address",
          "name": "spender",
          "type": "address"
        },
        {
          "internalType": "uint256",
          "name": "amount",
          "type": "uint256"
        }
      ],
      "name": "approve",
      "outputs": [
        {
          "internalType": "bool",
          "name": "",
          "type": "bool"
        }
      ],
      "stateMutability": "nonpayable",
      "type": "function"
    },
    {
      "inputs": [
        {
          "internalType": "address",
          "name": "account",
          "type": "address"
        }
      ],
      "name": "balanceOf",
      "outputs": [
        {
          "internalType": "uint256",
          "name": "",
          "type": "uint256"
        }
      ],
      "stateMutability": "view",
      "type": "function"
    },
    {
      "inputs": [],
      "name": "campaignLastId",
      "outputs": [
        {
          "internalType": "uint256",
          "name": "",
          "type": "uint256"
        }
      ],
      "stateMutability": "view",
      "type": "function"
    },
    {
      "inputs": [
        {
          "internalType": "uint256",
          "name": "_campaignId",
          "type": "uint256"
        }
      ],
      "name": "cancelDistributionCampaign",
      "outputs": [],
      "stateMutability": "nonpayable",
      "type": "function"
    },
    {
      "inputs": [
        {
          "internalType": "enum FungibleToken.DistributionType",
          "name": "_distType",
          "type": "uint8"
        },
        {
          "internalType": "uint256",
          "name": "_dateStart",
          "type": "uint256"
        },
        {
          "internalType": "uint256",
          "name": "_dateEnd",
          "type": "uint256"
        },
        {
          "internalType": "address[]",
          "name": "_whitelist",
          "type": "address[]"
        },
        {
          "internalType": "bool",
          "name": "_isProtected",
          "type": "bool"
        }
      ],
      "name": "createDistributionCampaign",
      "outputs": [],
      "stateMutability": "nonpayable",
      "type": "function"
    },
    {
      "inputs": [],
      "name": "decimals",
      "outputs": [
        {
          "internalType": "uint8",
          "name": "",
          "type": "uint8"
        }
      ],
      "stateMutability": "view",
      "type": "function"
    },
    {
      "inputs": [
        {
          "internalType": "address",
          "name": "spender",
          "type": "address"
        },
        {
          "internalType": "uint256",
          "name": "subtractedValue",
          "type": "uint256"
        }
      ],
      "name": "decreaseAllowance",
      "outputs": [
        {
          "internalType": "bool",
          "name": "",
          "type": "bool"
        }
      ],
      "stateMutability": "nonpayable",
      "type": "function"
    },
    {
      "inputs": [
        {
          "internalType": "address",
          "name": "spender",
          "type": "address"
        },
        {
          "internalType": "uint256",
          "name": "addedValue",
          "type": "uint256"
        }
      ],
      "name": "increaseAllowance",
      "outputs": [
        {
          "internalType": "bool",
          "name": "",
          "type": "bool"
        }
      ],
      "stateMutability": "nonpayable",
      "type": "function"
    },
    {
      "inputs": [],
      "name": "name",
      "outputs": [
        {
          "internalType": "string",
          "name": "",
          "type": "string"
        }
      ],
      "stateMutability": "view",
      "type": "function"
    },
    {
      "inputs": [],
      "name": "owner",
      "outputs": [
        {
          "internalType": "address",
          "name": "",
          "type": "address"
        }
      ],
      "stateMutability": "view",
      "type": "function"
    },
    {
      "inputs": [],
      "name": "pause",
      "outputs": [],
      "stateMutability": "nonpayable",
      "type": "function"
    },
    {
      "inputs": [],
      "name": "paused",
      "outputs": [
        {
          "internalType": "bool",
          "name": "",
          "type": "bool"
        }
      ],
      "stateMutability": "view",
      "type": "function"
    },
    {
      "inputs": [],
      "name": "renounceOwnership",
      "outputs": [],
      "stateMutability": "nonpayable",
      "type": "function"
    },
    {
      "inputs": [],
      "name": "symbol",
      "outputs": [
        {
          "internalType": "string",
          "name": "",
          "type": "string"
        }
      ],
      "stateMutability": "view",
      "type": "function"
    },
    {
      "inputs": [],
      "name": "totalSupply",
      "outputs": [
        {
          "internalType": "uint256",
          "name": "",
          "type": "uint256"
        }
      ],
      "stateMutability": "view",
      "type": "function"
    },
    {
      "inputs": [
        {
          "internalType": "address",
          "name": "to",
          "type": "address"
        },
        {
          "internalType": "uint256",
          "name": "amount",
          "type": "uint256"
        }
      ],
      "name": "transfer",
      "outputs": [
        {
          "internalType": "bool",
          "name": "",
          "type": "bool"
        }
      ],
      "stateMutability": "nonpayable",
      "type": "function"
    },
    {
      "inputs": [
        {
          "internalType": "address",
          "name": "from",
          "type": "address"
        },
        {
          "internalType": "address",
          "name": "to",
          "type": "address"
        },
        {
          "internalType": "uint256",
          "name": "amount",
          "type": "uint256"
        }
      ],
      "name": "transferFrom",
      "outputs": [
        {
          "internalType": "bool",
          "name": "",
          "type": "bool"
        }
      ],
      "stateMutability": "nonpayable",
      "type": "function"
    },
    {
      "inputs": [
        {
          "internalType": "address",
          "name": "newOwner",
          "type": "address"
        }
      ],
      "name": "transferOwnership",
      "outputs": [],
      "stateMutability": "nonpayable",
      "type": "function"
    },
    {
      "inputs": [],
      "name": "unpause",
      "outputs": [],
      "stateMutability": "nonpayable",
      "type": "function"
    }
  ],
  "bytecode": "0x60806040523480156200001157600080fd5b506040516200189f3803806200189f8339810160408190526200003491620004c5565b8351849084906200004d90600390602085019062000352565b5080516200006390600490602084019062000352565b50506005805460ff19169055506200007b33620000af565b6200009a826200009483670de0b6b3a76400006200056e565b62000109565b620000a58262000200565b50505050620005e8565b600580546001600160a01b03838116610100818102610100600160a81b031985161790945560405193909204169182907f8be0079c531659141344cd1fd0a4f28419497f9722a3daafe3b4186f6b6457e090600090a35050565b6001600160a01b038216620001655760405162461bcd60e51b815260206004820152601f60248201527f45524332303a206d696e7420746f20746865207a65726f20616464726573730060448201526064015b60405180910390fd5b62000173600083836200027f565b806002600082825462000187919062000590565b90915550506001600160a01b03821660009081526020819052604081208054839290620001b690849062000590565b90915550506040518181526001600160a01b038316906000907fddf252ad1be2c89b69c2b068fc378daa952ba7f163c4a11628f55a4df523b3ef9060200160405180910390a35050565b6200020a620002a6565b6001600160a01b038116620002715760405162461bcd60e51b815260206004820152602660248201527f4f776e61626c653a206e6577206f776e657220697320746865207a65726f206160448201526564647265737360d01b60648201526084016200015c565b6200027c81620000af565b50565b620002896200030a565b620002a1838383620002a160201b6200057d1760201c565b505050565b6005546001600160a01b03610100909104163314620003085760405162461bcd60e51b815260206004820181905260248201527f4f776e61626c653a2063616c6c6572206973206e6f7420746865206f776e657260448201526064016200015c565b565b60055460ff1615620003085760405162461bcd60e51b815260206004820152601060248201526f14185d5cd8589b194e881c185d5cd95960821b60448201526064016200015c565b8280546200036090620005ab565b90600052602060002090601f016020900481019282620003845760008555620003cf565b82601f106200039f57805160ff1916838001178555620003cf565b82800160010185558215620003cf579182015b82811115620003cf578251825591602001919060010190620003b2565b50620003dd929150620003e1565b5090565b5b80821115620003dd5760008155600101620003e2565b634e487b7160e01b600052604160045260246000fd5b600082601f8301126200042057600080fd5b81516001600160401b03808211156200043d576200043d620003f8565b604051601f8301601f19908116603f01168101908282118183101715620004685762000468620003f8565b816040528381526020925086838588010111156200048557600080fd5b600091505b83821015620004a957858201830151818301840152908201906200048a565b83821115620004bb5760008385830101525b9695505050505050565b60008060008060808587031215620004dc57600080fd5b84516001600160401b0380821115620004f457600080fd5b62000502888389016200040e565b955060208701519150808211156200051957600080fd5b5062000528878288016200040e565b604087015190945090506001600160a01b03811681146200054857600080fd5b6060959095015193969295505050565b634e487b7160e01b600052601160045260246000fd5b60008160001904831182151516156200058b576200058b62000558565b500290565b60008219821115620005a657620005a662000558565b500190565b600181811c90821680620005c057607f821691505b60208210811415620005e257634e487b7160e01b600052602260045260246000fd5b50919050565b6112a780620005f86000396000f3fe608060405234801561001057600080fd5b506004361061012c5760003560e01c806370a08231116100ad57806395d89b411161007157806395d89b411461025f578063a457c2d714610267578063a9059cbb1461027a578063dd62ed3e1461028d578063f2fde38b146102a057600080fd5b806370a08231146101ea578063715018a6146102135780637b0d511d1461021b5780638456cb591461022e5780638da5cb5b1461023657600080fd5b8063381da488116100f4578063381da488146101a657806339509351146101bb5780633f4ba83a146101ce5780635c975abb146101d657806369b0aafa146101e157600080fd5b806306fdde0314610131578063095ea7b31461014f57806318160ddd1461017257806323b872dd14610184578063313ce56714610197575b600080fd5b6101396102b3565b6040516101469190610f0c565b60405180910390f35b61016261015d366004610f7d565b610345565b6040519015158152602001610146565b6002545b604051908152602001610146565b610162610192366004610fa7565b61035d565b60405160128152602001610146565b6101b96101b4366004610fe3565b610381565b005b6101626101c9366004610f7d565b610583565b6101b96105a5565b60055460ff16610162565b61017660065481565b6101766101f8366004610ffc565b6001600160a01b031660009081526020819052604090205490565b6101b96105b7565b6101b961022936600461103d565b6105c9565b6101b961070a565b60055461010090046001600160a01b03166040516001600160a01b039091168152602001610146565b61013961071a565b610162610275366004610f7d565b610729565b610162610288366004610f7d565b6107a9565b61017661029b36600461113f565b6107b7565b6101b96102ae366004610ffc565b6107e2565b6060600380546102c290611172565b80601f01602080910402602001604051908101604052809291908181526020018280546102ee90611172565b801561033b5780601f106103105761010080835404028352916020019161033b565b820191906000526020600020905b81548152906001019060200180831161031e57829003601f168201915b5050505050905090565b600033610353818585610858565b5060019392505050565b60003361036b85828561097c565b6103768585856109f6565b506001949350505050565b610389610bd5565b600754600114156103f85760076000815481106103a8576103a86111ad565b60009182526020822060079091020181815560018101829055600281018290556003810182905560048101805460ff19169055906103e96005830182610e34565b50600601805460ff1916905550565b6000805b60065481101561057d57826007828154811061041a5761041a6111ad565b906000526020600020906007020160000154141561056d576007600160065461044391906111d9565b81548110610453576104536111ad565b906000526020600020906007020160078281548110610474576104746111ad565b600091825260209091208254600790920201908155600180830154818301556002808401549083015560038084015490830155600480840154908301805460ff90921692909160ff1916908360058111156104d1576104d16111f0565b0217905550600582810180546104ea9284019190610e52565b506006918201549101805460ff191660ff9092161515919091179055600780548061051757610517611206565b60008281526020812060076000199093019283020181815560018101829055600281018290556003810182905560048101805460ff191690559061055e6005830182610e34565b50600601805460ff1916905590555b6105768161121c565b90506103fc565b50505b50565b60003361035381858561059683836107b7565b6105a09190611237565b610858565b6105ad610bd5565b6105b5610c35565b565b6105bf610bd5565b6105b56000610c87565b6105d1610bd5565b600060048660058111156105e7576105e76111f0565b14156105fe576105fb620f423f6001610ce1565b90505b6001600660008282546106119190611237565b9250508190555060076040518060e001604052806006548152602001878152602001868152602001838152602001886005811115610651576106516111f0565b8152602080820187905285151560409283015283546001818101865560009586529482902084516007909202019081559083015181850155908201516002820155606082015160038201556080820151600482018054939492939192909160ff1916908360058111156106c6576106c66111f0565b021790555060a082015180516106e6916005840191602090910190610ea2565b5060c091909101516006909101805460ff1916911515919091179055505050505050565b610712610bd5565b6105b5610d55565b6060600480546102c290611172565b6000338161073782866107b7565b90508381101561079c5760405162461bcd60e51b815260206004820152602560248201527f45524332303a2064656372656173656420616c6c6f77616e63652062656c6f77604482015264207a65726f60d81b60648201526084015b60405180910390fd5b6103768286868403610858565b6000336103538185856109f6565b6001600160a01b03918216600090815260016020908152604080832093909416825291909152205490565b6107ea610bd5565b6001600160a01b03811661084f5760405162461bcd60e51b815260206004820152602660248201527f4f776e61626c653a206e6577206f776e657220697320746865207a65726f206160448201526564647265737360d01b6064820152608401610793565b61058081610c87565b6001600160a01b0383166108ba5760405162461bcd60e51b8152602060048201526024808201527f45524332303a20617070726f76652066726f6d20746865207a65726f206164646044820152637265737360e01b6064820152608401610793565b6001600160a01b03821661091b5760405162461bcd60e51b815260206004820152602260248201527f45524332303a20617070726f766520746f20746865207a65726f206164647265604482015261737360f01b6064820152608401610793565b6001600160a01b0383811660008181526001602090815260408083209487168084529482529182902085905590518481527f8c5be1e5ebec7d5bd14f71427d1e84f3dd0314c0f7b2291e5b200ac8c7c3b925910160405180910390a3505050565b600061098884846107b7565b905060001981146109f057818110156109e35760405162461bcd60e51b815260206004820152601d60248201527f45524332303a20696e73756666696369656e7420616c6c6f77616e63650000006044820152606401610793565b6109f08484848403610858565b50505050565b6001600160a01b038316610a5a5760405162461bcd60e51b815260206004820152602560248201527f45524332303a207472616e736665722066726f6d20746865207a65726f206164604482015264647265737360d81b6064820152608401610793565b6001600160a01b038216610abc5760405162461bcd60e51b815260206004820152602360248201527f45524332303a207472616e7366657220746f20746865207a65726f206164647260448201526265737360e81b6064820152608401610793565b610ac7838383610d92565b6001600160a01b03831660009081526020819052604090205481811015610b3f5760405162461bcd60e51b815260206004820152602660248201527f45524332303a207472616e7366657220616d6f756e7420657863656564732062604482015265616c616e636560d01b6064820152608401610793565b6001600160a01b03808516600090815260208190526040808220858503905591851681529081208054849290610b76908490611237565b92505081905550826001600160a01b0316846001600160a01b03167fddf252ad1be2c89b69c2b068fc378daa952ba7f163c4a11628f55a4df523b3ef84604051610bc291815260200190565b60405180910390a36109f084848461057d565b6005546001600160a01b036101009091041633146105b55760405162461bcd60e51b815260206004820181905260248201527f4f776e61626c653a2063616c6c6572206973206e6f7420746865206f776e65726044820152606401610793565b610c3d610da5565b6005805460ff191690557f5db9ee0a495bf2e6ff9c91a7834c1ba4fdd244a5e8aa4e537bd38aeae4b073aa335b6040516001600160a01b03909116815260200160405180910390a1565b600580546001600160a01b03838116610100818102610100600160a81b031985161790945560405193909204169182907f8be0079c531659141344cd1fd0a4f28419497f9722a3daafe3b4186f6b6457e090600090a35050565b6040516001600160f81b031960f883901b1660208201526bffffffffffffffffffffffff193360601b1660218201524460358201524260558201526001607582015260009083906095016040516020818303038152906040528051906020012060001c610d4e919061124f565b9392505050565b610d5d610dee565b6005805460ff191660011790557f62e78cea01bee320cd4e420270b5ea74000d11b0c9f74754ebdbfc544b05a258610c6a3390565b610d9a610dee565b61057d83838361057d565b60055460ff166105b55760405162461bcd60e51b815260206004820152601460248201527314185d5cd8589b194e881b9bdd081c185d5cd95960621b6044820152606401610793565b60055460ff16156105b55760405162461bcd60e51b815260206004820152601060248201526f14185d5cd8589b194e881c185d5cd95960821b6044820152606401610793565b50805460008255906000526020600020908101906105809190610ef7565b828054828255906000526020600020908101928215610e925760005260206000209182015b82811115610e92578254825591600101919060010190610e77565b50610e9e929150610ef7565b5090565b828054828255906000526020600020908101928215610e92579160200282015b82811115610e9257825182546001600160a01b0319166001600160a01b03909116178255602090920191600190910190610ec2565b5b80821115610e9e5760008155600101610ef8565b600060208083528351808285015260005b81811015610f3957858101830151858201604001528201610f1d565b81811115610f4b576000604083870101525b50601f01601f1916929092016040019392505050565b80356001600160a01b0381168114610f7857600080fd5b919050565b60008060408385031215610f9057600080fd5b610f9983610f61565b946020939093013593505050565b600080600060608486031215610fbc57600080fd5b610fc584610f61565b9250610fd360208501610f61565b9150604084013590509250925092565b600060208284031215610ff557600080fd5b5035919050565b60006020828403121561100e57600080fd5b610d4e82610f61565b634e487b7160e01b600052604160045260246000fd5b80358015158114610f7857600080fd5b600080600080600060a0868803121561105557600080fd5b85356006811061106457600080fd5b9450602086810135945060408701359350606087013567ffffffffffffffff8082111561109057600080fd5b818901915089601f8301126110a457600080fd5b8135818111156110b6576110b6611017565b8060051b604051601f19603f830116810181811085821117156110db576110db611017565b60405291825284820192508381018501918c8311156110f957600080fd5b938501935b8285101561111e5761110f85610f61565b845293850193928501926110fe565b8097505050505050506111336080870161102d565b90509295509295909350565b6000806040838503121561115257600080fd5b61115b83610f61565b915061116960208401610f61565b90509250929050565b600181811c9082168061118657607f821691505b602082108114156111a757634e487b7160e01b600052602260045260246000fd5b50919050565b634e487b7160e01b600052603260045260246000fd5b634e487b7160e01b600052601160045260246000fd5b6000828210156111eb576111eb6111c3565b500390565b634e487b7160e01b600052602160045260246000fd5b634e487b7160e01b600052603160045260246000fd5b6000600019821415611230576112306111c3565b5060010190565b6000821982111561124a5761124a6111c3565b500190565b60008261126c57634e487b7160e01b600052601260045260246000fd5b50069056fea264697066735822122026ed819347ea993597caeccca5a4c94775c3edb86c0a027f005016f978c7bb5664736f6c634300080c0033",
  "linkReferences": {},
  "deployedLinkReferences": {}
}