{
  "_format": "hh-sol-artifact-1",
  "contractName": "FungibleToken",
  "sourceName": "src/backend/contracts/_FungibleToken.sol",
  "abi": [
    {
      "inputs": [],
      "name": "Initialized",
      "type": "error"
    },
    {
      "inputs": [],
      "name": "ZeroAddress",
      "type": "error"
    },
    {
      "anonymous": false,
      "inputs": [
        {
          "indexed": true,
          "internalType": "address",
          "name": "previousOwner",
          "type": "address"
        },
        {
          "indexed": true,
          "internalType": "address",
          "name": "newOwner",
          "type": "address"
        }
      ],
      "name": "OwnershipTransferred",
      "type": "event"
    },
    {
      "anonymous": false,
      "inputs": [
        {
          "indexed": false,
          "internalType": "address",
          "name": "account",
          "type": "address"
        }
      ],
      "name": "Paused",
      "type": "event"
    },
    {
      "anonymous": false,
      "inputs": [
        {
          "indexed": false,
          "internalType": "address",
          "name": "account",
          "type": "address"
        }
      ],
      "name": "Unpaused",
      "type": "event"
    },
    {
      "stateMutability": "payable",
      "type": "fallback"
    },
    {
      "inputs": [],
      "name": "campaignLastId",
      "outputs": [
        {
          "internalType": "uint256",
          "name": "",
          "type": "uint256"
        }
      ],
      "stateMutability": "view",
      "type": "function"
    },
    {
      "inputs": [
        {
          "internalType": "uint256",
          "name": "_campaignId",
          "type": "uint256"
        }
      ],
      "name": "cancelDistributionCampaign",
      "outputs": [],
      "stateMutability": "nonpayable",
      "type": "function"
    },
    {
      "inputs": [
        {
          "internalType": "uint256",
          "name": "_communityId",
          "type": "uint256"
        },
        {
          "internalType": "uint256",
          "name": "_campaignId",
          "type": "uint256"
        },
        {
          "internalType": "uint256",
          "name": "_eventCode",
          "type": "uint256"
        },
        {
          "internalType": "string",
          "name": "_email",
          "type": "string"
        },
        {
          "internalType": "uint256",
          "name": "root",
          "type": "uint256"
        },
        {
          "internalType": "uint256",
          "name": "nullifierHash",
          "type": "uint256"
        },
        {
          "internalType": "uint256[8]",
          "name": "proof",
          "type": "uint256[8]"
        }
      ],
      "name": "claimFromCampaign",
      "outputs": [],
      "stateMutability": "payable",
      "type": "function"
    },
    {
      "inputs": [
        {
          "internalType": "enum FungibleToken.DistributionType",
          "name": "_distType",
          "type": "uint8"
        },
        {
          "internalType": "uint256",
          "name": "_dateStart",
          "type": "uint256"
        },
        {
          "internalType": "uint256",
          "name": "_dateEnd",
          "type": "uint256"
        },
        {
          "internalType": "address[]",
          "name": "_whitelist",
          "type": "address[]"
        },
        {
          "internalType": "string",
          "name": "_worldcoinAction",
          "type": "string"
        },
        {
          "internalType": "uint256",
          "name": "_tokensTotal",
          "type": "uint256"
        },
        {
          "internalType": "uint256",
          "name": "_tokensPerUser",
          "type": "uint256"
        }
      ],
      "name": "createDistributionCampaign",
      "outputs": [],
      "stateMutability": "payable",
      "type": "function"
    },
    {
      "inputs": [],
      "name": "getCampaigns",
      "outputs": [
        {
          "components": [
            {
              "internalType": "uint256",
              "name": "id",
              "type": "uint256"
            },
            {
              "internalType": "uint256",
              "name": "tokensTotal",
              "type": "uint256"
            },
            {
              "internalType": "uint256",
              "name": "tokensMinted",
              "type": "uint256"
            },
            {
              "internalType": "uint256",
              "name": "tokensPerUser",
              "type": "uint256"
            },
            {
              "internalType": "uint256",
              "name": "dateStart",
              "type": "uint256"
            },
            {
              "internalType": "uint256",
              "name": "dateEnd",
              "type": "uint256"
            },
            {
              "internalType": "uint256",
              "name": "eventCode",
              "type": "uint256"
            },
            {
              "internalType": "enum FungibleToken.DistributionType",
              "name": "distType",
              "type": "uint8"
            },
            {
              "internalType": "address[]",
              "name": "whitelist",
              "type": "address[]"
            },
            {
              "internalType": "string",
              "name": "worldcoinAction",
              "type": "string"
            }
          ],
          "internalType": "struct FungibleToken.DistributionCampaign[]",
          "name": "",
          "type": "tuple[]"
        }
      ],
      "stateMutability": "view",
      "type": "function"
    },
    {
      "inputs": [
        {
          "internalType": "address",
          "name": "_mainContract",
          "type": "address"
        },
        {
          "internalType": "string",
          "name": "_name",
          "type": "string"
        },
        {
          "internalType": "string",
          "name": "_symbol",
          "type": "string"
        },
        {
          "internalType": "address",
          "name": "_owner",
          "type": "address"
        },
        {
          "internalType": "uint256",
          "name": "_supply",
          "type": "uint256"
        },
        {
          "internalType": "contract IWorldID",
          "name": "_worldId",
          "type": "address"
        },
        {
          "internalType": "address",
          "name": "_superTokenFactory",
          "type": "address"
        },
        {
          "internalType": "bytes",
          "name": "userData",
          "type": "bytes"
        }
      ],
      "name": "initialize",
      "outputs": [],
      "stateMutability": "nonpayable",
      "type": "function"
    },
    {
      "inputs": [
        {
          "internalType": "address",
          "name": "initialAddress",
          "type": "address"
        }
      ],
      "name": "initializeProxy",
      "outputs": [],
      "stateMutability": "nonpayable",
      "type": "function"
    },
    {
      "inputs": [],
      "name": "owner",
      "outputs": [
        {
          "internalType": "address",
          "name": "",
          "type": "address"
        }
      ],
      "stateMutability": "view",
      "type": "function"
    },
    {
      "inputs": [],
      "name": "pause",
      "outputs": [],
      "stateMutability": "nonpayable",
      "type": "function"
    },
    {
      "inputs": [],
      "name": "paused",
      "outputs": [
        {
          "internalType": "bool",
          "name": "",
          "type": "bool"
        }
      ],
      "stateMutability": "view",
      "type": "function"
    },
    {
      "inputs": [],
      "name": "renounceOwnership",
      "outputs": [],
      "stateMutability": "nonpayable",
      "type": "function"
    },
    {
      "inputs": [
        {
          "internalType": "address",
          "name": "newOwner",
          "type": "address"
        }
      ],
      "name": "transferOwnership",
      "outputs": [],
      "stateMutability": "nonpayable",
      "type": "function"
    },
    {
      "inputs": [],
      "name": "unpause",
      "outputs": [],
      "stateMutability": "nonpayable",
      "type": "function"
    },
    {
      "stateMutability": "payable",
      "type": "receive"
    }
  ],
  "bytecode": "0x60a0604052600160805234801561001557600080fd5b506020805460ff191690556100293361002e565b610088565b602080546001600160a01b03838116610100818102610100600160a81b031985161790945560405193909204169182907f8be0079c531659141344cd1fd0a4f28419497f9722a3daafe3b4186f6b6457e090600090a35050565b608051611a886100a060003960005050611a886000f3fe6080604052600436106100c65760003560e01c8063715018a61161007f578063a6b0363311610059578063a6b03633146101f1578063edfd1a7b14610213578063f1fb53e114610226578063f2fde38b14610246576100d5565b8063715018a6146101915780638456cb59146101a65780638da5cb5b146101bb576100d5565b806314005050146100dd578063381da488146100f05780633f4ba83a146101105780634a0687ef146101255780635c975abb1461014557806369b0aafa1461016d576100d5565b366100d5576100d3610266565b005b6100d3610266565b6100d36100eb3660046113ff565b610298565b3480156100fc57600080fd5b506100d361010b366004611512565b6104db565b34801561011c57600080fd5b506100d36108fc565b34801561013157600080fd5b506100d361014036600461152b565b61090c565b34801561015157600080fd5b5060205460ff1660405190151581526020015b60405180910390f35b34801561017957600080fd5b5061018360225481565b604051908152602001610164565b34801561019d57600080fd5b506100d36109a8565b3480156101b257600080fd5b506100d36109ba565b3480156101c757600080fd5b5060205461010090046001600160a01b03166040516001600160a01b039091168152602001610164565b3480156101fd57600080fd5b506102066109ca565b6040516101649190611611565b6100d36102213660046116f9565b610b9d565b34801561023257600080fd5b506100d3610241366004611781565b610c85565b34801561025257600080fd5b506100d361026136600461152b565b610cf9565b6102966102917f360894a13ba1a3210667c828492db98dca3e2076cc3735a920a3ca505d382bbc5490565b610d72565b565b6102a0610d96565b848611156102f55760405162461bcd60e51b815260206004820152601960248201527f57726f6e672063616d706169676e20646174652072616e67650000000000000060448201526064015b60405180910390fd5b6000600488600581111561030b5761030b611548565b14156103225761031f620f423f6001610df6565b90505b6040516323b872dd60e01b8152336004820152306024820181905260448201859052906323b872dd906064016020604051808303816000875af115801561036d573d6000803e3d6000fd5b505050506040513d601f19601f820116820180604052508101906103919190611856565b506001602260008282546103a5919061188e565b9250508190555060236040518061014001604052806022548152602001858152602001600081526020018481526020018981526020018881526020018381526020018a60058111156103f9576103f9611548565b8152602080820189905260409182018890528354600181810186556000958652948290208451600a909202019081559083015181850155908201516002820155606082015160038201556080820151600482015560a082015160058083019190915560c0830151600683015560e0830151600783018054949593949193909260ff1990921691849081111561049057610490611548565b021790555061010082015180516104b19160088401916020909101906110c3565b5061012082015180516104ce916009840191602090910190611128565b5050505050505050505050565b6104e3610d96565b6104eb61119c565b60005b60225481101561086e57826023828154811061050c5761050c6118a6565b90600052602060002090600a020160000154141561085e5760238181548110610537576105376118a6565b90600052602060002090600a020160405180610140016040529081600082015481526020016001820154815260200160028201548152602001600382015481526020016004820154815260200160058201548152602001600682015481526020016007820160009054906101000a900460ff1660058111156105bb576105bb611548565b60058111156105cc576105cc611548565b81526020016008820180548060200260200160405190810160405280929190818152602001828054801561062957602002820191906000526020600020905b81546001600160a01b0316815260019091019060200180831161060b575b50505050508152602001600982018054610642906118bc565b80601f016020809104026020016040519081016040528092919081815260200182805461066e906118bc565b80156106bb5780601f10610690576101008083540402835291602001916106bb565b820191906000526020600020905b81548152906001019060200180831161069e57829003601f168201915b5050505050815250509150600160238054905011156107de57602360016022546106e591906118f7565b815481106106f5576106f56118a6565b90600052602060002090600a020160238281548110610716576107166118a6565b90600052602060002090600a0201600082015481600001556001820154816001015560028201548160020155600382015481600301556004820154816004015560058201548160050155600682015481600601556007820160009054906101000a900460ff168160070160006101000a81548160ff021916908360058111156107a1576107a1611548565b0217905550600882810180546107ba9284019190611200565b5060098201816009019080546107cf906118bc565b6107da929190611240565b5050505b60238054806107ef576107ef61190e565b600082815260208120600a6000199093019283020181815560018101829055600281018290556003810182905560048101829055600581018290556006810182905560078101805460ff191690559061084b60088301826112ba565b6108596009830160006112d8565b505090555b61086781611924565b90506104ee565b5060008160400151826020015161088591906118f7565b905080156108f75760405163a9059cbb60e01b815233600482015260248101829052309063a9059cbb906044016020604051808303816000875af11580156108d1573d6000803e3d6000fd5b505050506040513d601f19601f820116820180604052508101906108f59190611856565b505b505050565b610904610d96565b610296610e6a565b6001600160a01b0381166109335760405163d92e233d60e01b815260040160405180910390fd5b600061095d7f360894a13ba1a3210667c828492db98dca3e2076cc3735a920a3ca505d382bbc5490565b6001600160a01b031614610984576040516302ed543d60e51b815260040160405180910390fd5b7f360894a13ba1a3210667c828492db98dca3e2076cc3735a920a3ca505d382bbc55565b6109b0610d96565b6102966000610ebc565b6109c2610d96565b610296610f16565b60606023805480602002602001604051908101604052809291908181526020016000905b82821015610b9457838290600052602060002090600a020160405180610140016040529081600082015481526020016001820154815260200160028201548152602001600382015481526020016004820154815260200160058201548152602001600682015481526020016007820160009054906101000a900460ff166005811115610a7c57610a7c611548565b6005811115610a8d57610a8d611548565b815260200160088201805480602002602001604051908101604052809291908181526020018280548015610aea57602002820191906000526020600020905b81546001600160a01b03168152600190910190602001808311610acc575b50505050508152602001600982018054610b03906118bc565b80601f0160208091040260200160405190810160405280929190818152602001828054610b2f906118bc565b8015610b7c5780601f10610b5157610100808354040283529160200191610b7c565b820191906000526020600020905b815481529060010190602001808311610b5f57829003601f168201915b505050505081525050815260200190600101906109ee565b50505050905090565b610ba5610f53565b60405163a9059cbb60e01b815233600482015260006024820181905290309063a9059cbb906044016020604051808303816000875af1158015610bec573d6000803e3d6000fd5b505050506040513d601f19601f82011682018060405250810190610c109190611856565b506021546040516313c977bb60e21b81526001600160a01b0390911690634f25deec90610c4990339089908d908d90889060040161193f565b600060405180830381600087803b158015610c6357600080fd5b505af1158015610c77573d6000803e3d6000fd5b505050505050505050505050565b602180546001600160a01b0319166001600160a01b038a16179055610cab878784610f99565b610cc785610cc186670de0b6b3a7640000611997565b83611053565b610cd085610cf9565b5050602480546001600160a01b0319166001600160a01b03929092169190911790555050505050565b610d01610d96565b6001600160a01b038116610d665760405162461bcd60e51b815260206004820152602660248201527f4f776e61626c653a206e6577206f776e657220697320746865207a65726f206160448201526564647265737360d01b60648201526084016102ec565b610d6f81610ebc565b50565b3660008037600080366000845af43d6000803e808015610d91573d6000f35b3d6000fd5b6020546001600160a01b036101009091041633146102965760405162461bcd60e51b815260206004820181905260248201527f4f776e61626c653a2063616c6c6572206973206e6f7420746865206f776e657260448201526064016102ec565b6040516001600160f81b031960f883901b1660208201526bffffffffffffffffffffffff193360601b1660218201524460358201524260558201526001607582015260009083906095016040516020818303038152906040528051906020012060001c610e6391906119b6565b9392505050565b610e7261107a565b6020805460ff191690557f5db9ee0a495bf2e6ff9c91a7834c1ba4fdd244a5e8aa4e537bd38aeae4b073aa335b6040516001600160a01b03909116815260200160405180910390a1565b602080546001600160a01b03838116610100818102610100600160a81b031985161790945560405193909204169182907f8be0079c531659141344cd1fd0a4f28419497f9722a3daafe3b4186f6b6457e090600090a35050565b610f1e610f53565b6020805460ff191660011790557f62e78cea01bee320cd4e420270b5ea74000d11b0c9f74754ebdbfc544b05a258610e9f3390565b60205460ff16156102965760405162461bcd60e51b815260206004820152601060248201526f14185d5cd8589b194e881c185d5cd95960821b60448201526064016102ec565b604051633504b4d160e21b81523060048201526001600160a01b0382169063d412d34490602401600060405180830381600087803b158015610fda57600080fd5b505af1158015610fee573d6000803e3d6000fd5b50506040516285fc1360e71b81523092506342fe0980915061101c90600090601290889088906004016119d8565b600060405180830381600087803b15801561103657600080fd5b505af115801561104a573d6000803e3d6000fd5b50505050505050565b60405163c68d428360e01b8152309063c68d42839061101c90869086908690600401611a22565b60205460ff166102965760405162461bcd60e51b815260206004820152601460248201527314185d5cd8589b194e881b9bdd081c185d5cd95960621b60448201526064016102ec565b828054828255906000526020600020908101928215611118579160200282015b8281111561111857825182546001600160a01b0319166001600160a01b039091161782556020909201916001909101906110e3565b5061112492915061130e565b5090565b828054611134906118bc565b90600052602060002090601f0160209004810192826111565760008555611118565b82601f1061116f57805160ff1916838001178555611118565b82800160010185558215611118579182015b82811115611118578251825591602001919060010190611181565b60405180610140016040528060008152602001600081526020016000815260200160008152602001600081526020016000815260200160008152602001600060058111156111ec576111ec611548565b815260200160608152602001606081525090565b8280548282559060005260206000209081019282156111185760005260206000209182015b82811115611118578254825591600101919060010190611225565b82805461124c906118bc565b90600052602060002090601f01602090048101928261126e5760008555611118565b82601f1061127f5780548555611118565b8280016001018555821561111857600052602060002091601f0160209004820182811115611118578254825591600101919060010190611225565b5080546000825590600052602060002090810190610d6f919061130e565b5080546112e4906118bc565b6000825580601f106112f4575050565b601f016020900490600052602060002090810190610d6f91905b5b80821115611124576000815560010161130f565b634e487b7160e01b600052604160045260246000fd5b604051601f8201601f1916810167ffffffffffffffff8111828210171561136257611362611323565b604052919050565b6001600160a01b0381168114610d6f57600080fd5b803561138a8161136a565b919050565b600082601f8301126113a057600080fd5b813567ffffffffffffffff8111156113ba576113ba611323565b6113cd601f8201601f1916602001611339565b8181528460208386010111156113e257600080fd5b816020850160208301376000918101602001919091529392505050565b600080600080600080600060e0888a03121561141a57600080fd5b87356006811061142957600080fd5b9650602088810135965060408901359550606089013567ffffffffffffffff8082111561145557600080fd5b818b0191508b601f83011261146957600080fd5b81358181111561147b5761147b611323565b8060051b61148a858201611339565b918252838101850191858101908f8411156114a457600080fd5b948601945b838610156114ce57853592506114be8361136a565b82825294860194908601906114a9565b995050505060808b01359250808311156114e757600080fd5b50506114f58a828b0161138f565b93505060a0880135915060c0880135905092959891949750929550565b60006020828403121561152457600080fd5b5035919050565b60006020828403121561153d57600080fd5b8135610e638161136a565b634e487b7160e01b600052602160045260246000fd5b6006811061157c57634e487b7160e01b600052602160045260246000fd5b9052565b600081518084526020808501945080840160005b838110156115b95781516001600160a01b031687529582019590820190600101611594565b509495945050505050565b6000815180845260005b818110156115ea576020818501810151868301820152016115ce565b818111156115fc576000602083870101525b50601f01601f19169290920160200192915050565b60006020808301818452808551808352604092508286019150828160051b87010184880160005b838110156116eb57888303603f1901855281518051845287810151888501528681015187850152606080820151908501526080808201519085015260a0808201519085015260c0808201519085015260e080820151610140919061169e8288018261155e565b50506101008083015182828801526116b883880182611580565b9250505061012080830151925085820381870152506116d781836115c4565b968901969450505090860190600101611638565b509098975050505050505050565b60008060008060008060006101c080898b03121561171657600080fd5b883597506020890135965060408901359550606089013567ffffffffffffffff81111561174257600080fd5b61174e8b828c0161138f565b9550506080890135935060a0890135925089818a01111561176e57600080fd5b5060c08801905092959891949750929550565b600080600080600080600080610100898b03121561179e57600080fd5b6117a78961137f565b9750602089013567ffffffffffffffff808211156117c457600080fd5b6117d08c838d0161138f565b985060408b01359150808211156117e657600080fd5b6117f28c838d0161138f565b975061180060608c0161137f565b965060808b0135955061181560a08c0161137f565b945061182360c08c0161137f565b935060e08b013591508082111561183957600080fd5b506118468b828c0161138f565b9150509295985092959890939650565b60006020828403121561186857600080fd5b81518015158114610e6357600080fd5b634e487b7160e01b600052601160045260246000fd5b600082198211156118a1576118a1611878565b500190565b634e487b7160e01b600052603260045260246000fd5b600181811c908216806118d057607f821691505b602082108114156118f157634e487b7160e01b600052602260045260246000fd5b50919050565b60008282101561190957611909611878565b500390565b634e487b7160e01b600052603160045260246000fd5b600060001982141561193857611938611878565b5060010190565b6001600160a01b038616815260c060208201819052600090611963908301876115c4565b60408381019690965282810360608401526002815261119560f21b602082015260808301949094525060a001520192915050565b60008160001904831182151516156119b1576119b1611878565b500290565b6000826119d357634e487b7160e01b600052601260045260246000fd5b500690565b6001600160a01b038516815260ff84166020820152608060408201819052600090611a05908301856115c4565b8281036060840152611a1781856115c4565b979650505050505050565b60018060a01b0384168152826020820152606060408201526000611a4960608301846115c4565b9594505050505056fea26469706673582212205fffcad36c12d8fe08e41942e73bc30f41e961b67667c6ffd462cfd2f5b3afcb64736f6c634300080c0033",
  "linkReferences": {},
  "deployedLinkReferences": {}
}