{
  "_format": "hh-sol-artifact-1",
  "contractName": "FungibleToken",
  "sourceName": "src/backend/contracts/_FungibleToken.sol",
  "abi": [
    {
      "inputs": [
        {
          "internalType": "string",
          "name": "_name",
          "type": "string"
        },
        {
          "internalType": "string",
          "name": "_symbol",
          "type": "string"
        },
        {
          "internalType": "address",
          "name": "_owner",
          "type": "address"
        },
        {
          "internalType": "uint256",
          "name": "_supply",
          "type": "uint256"
        },
        {
          "internalType": "contract IWorldID",
          "name": "_worldId",
          "type": "address"
        }
      ],
      "stateMutability": "nonpayable",
      "type": "constructor"
    },
    {
      "anonymous": false,
      "inputs": [
        {
          "indexed": true,
          "internalType": "address",
          "name": "owner",
          "type": "address"
        },
        {
          "indexed": true,
          "internalType": "address",
          "name": "spender",
          "type": "address"
        },
        {
          "indexed": false,
          "internalType": "uint256",
          "name": "value",
          "type": "uint256"
        }
      ],
      "name": "Approval",
      "type": "event"
    },
    {
      "anonymous": false,
      "inputs": [
        {
          "indexed": true,
          "internalType": "address",
          "name": "previousOwner",
          "type": "address"
        },
        {
          "indexed": true,
          "internalType": "address",
          "name": "newOwner",
          "type": "address"
        }
      ],
      "name": "OwnershipTransferred",
      "type": "event"
    },
    {
      "anonymous": false,
      "inputs": [
        {
          "indexed": false,
          "internalType": "address",
          "name": "account",
          "type": "address"
        }
      ],
      "name": "Paused",
      "type": "event"
    },
    {
      "anonymous": false,
      "inputs": [
        {
          "indexed": true,
          "internalType": "address",
          "name": "from",
          "type": "address"
        },
        {
          "indexed": true,
          "internalType": "address",
          "name": "to",
          "type": "address"
        },
        {
          "indexed": false,
          "internalType": "uint256",
          "name": "value",
          "type": "uint256"
        }
      ],
      "name": "Transfer",
      "type": "event"
    },
    {
      "anonymous": false,
      "inputs": [
        {
          "indexed": false,
          "internalType": "address",
          "name": "account",
          "type": "address"
        }
      ],
      "name": "Unpaused",
      "type": "event"
    },
    {
      "inputs": [
        {
          "internalType": "address",
          "name": "owner",
          "type": "address"
        },
        {
          "internalType": "address",
          "name": "spender",
          "type": "address"
        }
      ],
      "name": "allowance",
      "outputs": [
        {
          "internalType": "uint256",
          "name": "",
          "type": "uint256"
        }
      ],
      "stateMutability": "view",
      "type": "function"
    },
    {
      "inputs": [
        {
          "internalType": "address",
          "name": "spender",
          "type": "address"
        },
        {
          "internalType": "uint256",
          "name": "amount",
          "type": "uint256"
        }
      ],
      "name": "approve",
      "outputs": [
        {
          "internalType": "bool",
          "name": "",
          "type": "bool"
        }
      ],
      "stateMutability": "nonpayable",
      "type": "function"
    },
    {
      "inputs": [
        {
          "internalType": "address",
          "name": "account",
          "type": "address"
        }
      ],
      "name": "balanceOf",
      "outputs": [
        {
          "internalType": "uint256",
          "name": "",
          "type": "uint256"
        }
      ],
      "stateMutability": "view",
      "type": "function"
    },
    {
      "inputs": [],
      "name": "campaignLastId",
      "outputs": [
        {
          "internalType": "uint256",
          "name": "",
          "type": "uint256"
        }
      ],
      "stateMutability": "view",
      "type": "function"
    },
    {
      "inputs": [
        {
          "internalType": "uint256",
          "name": "_campaignId",
          "type": "uint256"
        }
      ],
      "name": "cancelDistributionCampaign",
      "outputs": [],
      "stateMutability": "nonpayable",
      "type": "function"
    },
    {
      "inputs": [
        {
          "internalType": "enum FungibleToken.DistributionType",
          "name": "_distType",
          "type": "uint8"
        },
        {
          "internalType": "uint256",
          "name": "_dateStart",
          "type": "uint256"
        },
        {
          "internalType": "uint256",
          "name": "_dateEnd",
          "type": "uint256"
        },
        {
          "internalType": "address[]",
          "name": "_whitelist",
          "type": "address[]"
        },
        {
          "internalType": "string",
          "name": "_worldcoinAction",
          "type": "string"
        },
        {
          "internalType": "uint256",
          "name": "_tokensTotal",
          "type": "uint256"
        },
        {
          "internalType": "uint256",
          "name": "_tokensPerUser",
          "type": "uint256"
        }
      ],
      "name": "createDistributionCampaign",
      "outputs": [],
      "stateMutability": "payable",
      "type": "function"
    },
    {
      "inputs": [],
      "name": "decimals",
      "outputs": [
        {
          "internalType": "uint8",
          "name": "",
          "type": "uint8"
        }
      ],
      "stateMutability": "view",
      "type": "function"
    },
    {
      "inputs": [
        {
          "internalType": "address",
          "name": "spender",
          "type": "address"
        },
        {
          "internalType": "uint256",
          "name": "subtractedValue",
          "type": "uint256"
        }
      ],
      "name": "decreaseAllowance",
      "outputs": [
        {
          "internalType": "bool",
          "name": "",
          "type": "bool"
        }
      ],
      "stateMutability": "nonpayable",
      "type": "function"
    },
    {
      "inputs": [],
      "name": "getCampaigns",
      "outputs": [
        {
          "components": [
            {
              "internalType": "uint256",
              "name": "id",
              "type": "uint256"
            },
            {
              "internalType": "uint256",
              "name": "tokensTotal",
              "type": "uint256"
            },
            {
              "internalType": "uint256",
              "name": "tokensMinted",
              "type": "uint256"
            },
            {
              "internalType": "uint256",
              "name": "tokensPerUser",
              "type": "uint256"
            },
            {
              "internalType": "uint256",
              "name": "dateStart",
              "type": "uint256"
            },
            {
              "internalType": "uint256",
              "name": "dateEnd",
              "type": "uint256"
            },
            {
              "internalType": "uint256",
              "name": "eventCode",
              "type": "uint256"
            },
            {
              "internalType": "enum FungibleToken.DistributionType",
              "name": "distType",
              "type": "uint8"
            },
            {
              "internalType": "address[]",
              "name": "whitelist",
              "type": "address[]"
            },
            {
              "internalType": "string",
              "name": "worldcoinAction",
              "type": "string"
            }
          ],
          "internalType": "struct FungibleToken.DistributionCampaign[]",
          "name": "",
          "type": "tuple[]"
        }
      ],
      "stateMutability": "view",
      "type": "function"
    },
    {
      "inputs": [
        {
          "internalType": "address",
          "name": "spender",
          "type": "address"
        },
        {
          "internalType": "uint256",
          "name": "addedValue",
          "type": "uint256"
        }
      ],
      "name": "increaseAllowance",
      "outputs": [
        {
          "internalType": "bool",
          "name": "",
          "type": "bool"
        }
      ],
      "stateMutability": "nonpayable",
      "type": "function"
    },
    {
      "inputs": [],
      "name": "name",
      "outputs": [
        {
          "internalType": "string",
          "name": "",
          "type": "string"
        }
      ],
      "stateMutability": "view",
      "type": "function"
    },
    {
      "inputs": [],
      "name": "owner",
      "outputs": [
        {
          "internalType": "address",
          "name": "",
          "type": "address"
        }
      ],
      "stateMutability": "view",
      "type": "function"
    },
    {
      "inputs": [],
      "name": "pause",
      "outputs": [],
      "stateMutability": "nonpayable",
      "type": "function"
    },
    {
      "inputs": [],
      "name": "paused",
      "outputs": [
        {
          "internalType": "bool",
          "name": "",
          "type": "bool"
        }
      ],
      "stateMutability": "view",
      "type": "function"
    },
    {
      "inputs": [],
      "name": "renounceOwnership",
      "outputs": [],
      "stateMutability": "nonpayable",
      "type": "function"
    },
    {
      "inputs": [],
      "name": "symbol",
      "outputs": [
        {
          "internalType": "string",
          "name": "",
          "type": "string"
        }
      ],
      "stateMutability": "view",
      "type": "function"
    },
    {
      "inputs": [],
      "name": "totalSupply",
      "outputs": [
        {
          "internalType": "uint256",
          "name": "",
          "type": "uint256"
        }
      ],
      "stateMutability": "view",
      "type": "function"
    },
    {
      "inputs": [
        {
          "internalType": "address",
          "name": "to",
          "type": "address"
        },
        {
          "internalType": "uint256",
          "name": "amount",
          "type": "uint256"
        }
      ],
      "name": "transfer",
      "outputs": [
        {
          "internalType": "bool",
          "name": "",
          "type": "bool"
        }
      ],
      "stateMutability": "nonpayable",
      "type": "function"
    },
    {
      "inputs": [
        {
          "internalType": "address",
          "name": "from",
          "type": "address"
        },
        {
          "internalType": "address",
          "name": "to",
          "type": "address"
        },
        {
          "internalType": "uint256",
          "name": "amount",
          "type": "uint256"
        }
      ],
      "name": "transferFrom",
      "outputs": [
        {
          "internalType": "bool",
          "name": "",
          "type": "bool"
        }
      ],
      "stateMutability": "nonpayable",
      "type": "function"
    },
    {
      "inputs": [
        {
          "internalType": "address",
          "name": "newOwner",
          "type": "address"
        }
      ],
      "name": "transferOwnership",
      "outputs": [],
      "stateMutability": "nonpayable",
      "type": "function"
    },
    {
      "inputs": [],
      "name": "unpause",
      "outputs": [],
      "stateMutability": "nonpayable",
      "type": "function"
    }
  ],
  "bytecode": "0x60c0604052600160a0523480156200001657600080fd5b5060405162002276380380620022768339810160408190526200003991620004ed565b8451859085906200005290600390602085019062000364565b5080516200006890600490602084019062000364565b50506005805460ff19169055506200008033620000c1565b6200009f836200009984670de0b6b3a7640000620005a3565b6200011b565b620000aa8362000212565b6001600160a01b0316608052506200061d92505050565b600580546001600160a01b03838116610100818102610100600160a81b031985161790945560405193909204169182907f8be0079c531659141344cd1fd0a4f28419497f9722a3daafe3b4186f6b6457e090600090a35050565b6001600160a01b038216620001775760405162461bcd60e51b815260206004820152601f60248201527f45524332303a206d696e7420746f20746865207a65726f20616464726573730060448201526064015b60405180910390fd5b620001856000838362000291565b8060026000828254620001999190620005c5565b90915550506001600160a01b03821660009081526020819052604081208054839290620001c8908490620005c5565b90915550506040518181526001600160a01b038316906000907fddf252ad1be2c89b69c2b068fc378daa952ba7f163c4a11628f55a4df523b3ef9060200160405180910390a35050565b6200021c620002b8565b6001600160a01b038116620002835760405162461bcd60e51b815260206004820152602660248201527f4f776e61626c653a206e6577206f776e657220697320746865207a65726f206160448201526564647265737360d01b60648201526084016200016e565b6200028e81620000c1565b50565b6200029b6200031c565b620002b3838383620002b360201b62000af71760201c565b505050565b6005546001600160a01b036101009091041633146200031a5760405162461bcd60e51b815260206004820181905260248201527f4f776e61626c653a2063616c6c6572206973206e6f7420746865206f776e657260448201526064016200016e565b565b60055460ff16156200031a5760405162461bcd60e51b815260206004820152601060248201526f14185d5cd8589b194e881c185d5cd95960821b60448201526064016200016e565b8280546200037290620005e0565b90600052602060002090601f016020900481019282620003965760008555620003e1565b82601f10620003b157805160ff1916838001178555620003e1565b82800160010185558215620003e1579182015b82811115620003e1578251825591602001919060010190620003c4565b50620003ef929150620003f3565b5090565b5b80821115620003ef5760008155600101620003f4565b634e487b7160e01b600052604160045260246000fd5b600082601f8301126200043257600080fd5b81516001600160401b03808211156200044f576200044f6200040a565b604051601f8301601f19908116603f011681019082821181831017156200047a576200047a6200040a565b816040528381526020925086838588010111156200049757600080fd5b600091505b83821015620004bb57858201830151818301840152908201906200049c565b83821115620004cd5760008385830101525b9695505050505050565b6001600160a01b03811681146200028e57600080fd5b600080600080600060a086880312156200050657600080fd5b85516001600160401b03808211156200051e57600080fd5b6200052c89838a0162000420565b965060208801519150808211156200054357600080fd5b50620005528882890162000420565b94505060408601516200056581620004d7565b6060870151608088015191945092506200057f81620004d7565b809150509295509295909350565b634e487b7160e01b600052601160045260246000fd5b6000816000190483118215151615620005c057620005c06200058d565b500290565b60008219821115620005db57620005db6200058d565b500190565b600181811c90821680620005f557607f821691505b602082108114156200061757634e487b7160e01b600052602260045260246000fd5b50919050565b60805160a051611c396200063d6000396000505060005050611c396000f3fe60806040526004361061012a5760003560e01c806369b0aafa116100ab57806395d89b411161006f57806395d89b4114610313578063a457c2d714610328578063a6b0363314610348578063a9059cbb1461036a578063dd62ed3e1461038a578063f2fde38b146103aa57600080fd5b806369b0aafa1461026757806370a082311461027d578063715018a6146102b35780638456cb59146102c85780638da5cb5b146102dd57600080fd5b8063313ce567116100f2578063313ce567146101de578063381da488146101fa578063395093511461021a5780633f4ba83a1461023a5780635c975abb1461024f57600080fd5b806306fdde031461012f578063095ea7b31461015a578063140050501461018a57806318160ddd1461019f57806323b872dd146101be575b600080fd5b34801561013b57600080fd5b506101446103ca565b60405161015191906116d3565b60405180910390f35b34801561016657600080fd5b5061017a610175366004611702565b61045c565b6040519015158152602001610151565b61019d6101983660046117e3565b610474565b005b3480156101ab57600080fd5b506002545b604051908152602001610151565b3480156101ca57600080fd5b5061017a6101d93660046118f1565b6106b7565b3480156101ea57600080fd5b5060405160128152602001610151565b34801561020657600080fd5b5061019d61021536600461192d565b6106db565b34801561022657600080fd5b5061017a610235366004611702565b610afc565b34801561024657600080fd5b5061019d610b1e565b34801561025b57600080fd5b5060055460ff1661017a565b34801561027357600080fd5b506101b060065481565b34801561028957600080fd5b506101b0610298366004611946565b6001600160a01b031660009081526020819052604090205490565b3480156102bf57600080fd5b5061019d610b30565b3480156102d457600080fd5b5061019d610b42565b3480156102e957600080fd5b5060055461010090046001600160a01b03166040516001600160a01b039091168152602001610151565b34801561031f57600080fd5b50610144610b52565b34801561033457600080fd5b5061017a610343366004611702565b610b61565b34801561035457600080fd5b5061035d610bdc565b60405161015191906119dd565b34801561037657600080fd5b5061017a610385366004611702565b610daf565b34801561039657600080fd5b506101b06103a5366004611ac5565b610dbd565b3480156103b657600080fd5b5061019d6103c5366004611946565b610de8565b6060600380546103d990611af8565b80601f016020809104026020016040519081016040528092919081815260200182805461040590611af8565b80156104525780601f1061042757610100808354040283529160200191610452565b820191906000526020600020905b81548152906001019060200180831161043557829003601f168201915b5050505050905090565b60003361046a818585610e61565b5060019392505050565b61047c610f85565b848611156104d15760405162461bcd60e51b815260206004820152601960248201527f57726f6e672063616d706169676e20646174652072616e67650000000000000060448201526064015b60405180910390fd5b600060048860058111156104e7576104e7611961565b14156104fe576104fb620f423f6001610fe5565b90505b6040516323b872dd60e01b8152336004820152306024820181905260448201859052906323b872dd906064016020604051808303816000875af1158015610549573d6000803e3d6000fd5b505050506040513d601f19601f8201168201806040525081019061056d9190611b33565b506001600660008282546105819190611b6b565b9250508190555060076040518061014001604052806006548152602001858152602001600081526020018481526020018981526020018881526020018381526020018a60058111156105d5576105d5611961565b8152602080820189905260409182018890528354600181810186556000958652948290208451600a909202019081559083015181850155908201516002820155606082015160038201556080820151600482015560a082015160058083019190915560c0830151600683015560e0830151600783018054949593949193909260ff1990921691849081111561066c5761066c611961565b0217905550610100820151805161068d916008840191602090910190611426565b5061012082015180516106aa91600984019160209091019061148b565b5050505050505050505050565b6000336106c5858285611059565b6106d08585856110cd565b506001949350505050565b6106e3610f85565b6106eb6114ff565b60005b600654811015610a6e57826007828154811061070c5761070c611b83565b90600052602060002090600a0201600001541415610a5e576007818154811061073757610737611b83565b90600052602060002090600a020160405180610140016040529081600082015481526020016001820154815260200160028201548152602001600382015481526020016004820154815260200160058201548152602001600682015481526020016007820160009054906101000a900460ff1660058111156107bb576107bb611961565b60058111156107cc576107cc611961565b81526020016008820180548060200260200160405190810160405280929190818152602001828054801561082957602002820191906000526020600020905b81546001600160a01b0316815260019091019060200180831161080b575b5050505050815260200160098201805461084290611af8565b80601f016020809104026020016040519081016040528092919081815260200182805461086e90611af8565b80156108bb5780601f10610890576101008083540402835291602001916108bb565b820191906000526020600020905b81548152906001019060200180831161089e57829003601f168201915b5050505050815250509150600160078054905011156109de57600760016006546108e59190611b99565b815481106108f5576108f5611b83565b90600052602060002090600a02016007828154811061091657610916611b83565b90600052602060002090600a0201600082015481600001556001820154816001015560028201548160020155600382015481600301556004820154816004015560058201548160050155600682015481600601556007820160009054906101000a900460ff168160070160006101000a81548160ff021916908360058111156109a1576109a1611961565b0217905550600882810180546109ba9284019190611563565b5060098201816009019080546109cf90611af8565b6109da9291906115a3565b5050505b60078054806109ef576109ef611bb0565b600082815260208120600a6000199093019283020181815560018101829055600281018290556003810182905560048101829055600581018290556006810182905560078101805460ff1916905590610a4b600883018261161d565b610a5960098301600061163b565b505090555b610a6781611bc6565b90506106ee565b50600081604001518260200151610a859190611b99565b90508015610af75760405163a9059cbb60e01b815233600482015260248101829052309063a9059cbb906044016020604051808303816000875af1158015610ad1573d6000803e3d6000fd5b505050506040513d601f19601f82011682018060405250810190610af59190611b33565b505b505050565b60003361046a818585610b0f8383610dbd565b610b199190611b6b565b610e61565b610b26610f85565b610b2e6112a6565b565b610b38610f85565b610b2e60006112f8565b610b4a610f85565b610b2e611352565b6060600480546103d990611af8565b60003381610b6f8286610dbd565b905083811015610bcf5760405162461bcd60e51b815260206004820152602560248201527f45524332303a2064656372656173656420616c6c6f77616e63652062656c6f77604482015264207a65726f60d81b60648201526084016104c8565b6106d08286868403610e61565b60606007805480602002602001604051908101604052809291908181526020016000905b82821015610da657838290600052602060002090600a020160405180610140016040529081600082015481526020016001820154815260200160028201548152602001600382015481526020016004820154815260200160058201548152602001600682015481526020016007820160009054906101000a900460ff166005811115610c8e57610c8e611961565b6005811115610c9f57610c9f611961565b815260200160088201805480602002602001604051908101604052809291908181526020018280548015610cfc57602002820191906000526020600020905b81546001600160a01b03168152600190910190602001808311610cde575b50505050508152602001600982018054610d1590611af8565b80601f0160208091040260200160405190810160405280929190818152602001828054610d4190611af8565b8015610d8e5780601f10610d6357610100808354040283529160200191610d8e565b820191906000526020600020905b815481529060010190602001808311610d7157829003601f168201915b50505050508152505081526020019060010190610c00565b50505050905090565b60003361046a8185856110cd565b6001600160a01b03918216600090815260016020908152604080832093909416825291909152205490565b610df0610f85565b6001600160a01b038116610e555760405162461bcd60e51b815260206004820152602660248201527f4f776e61626c653a206e6577206f776e657220697320746865207a65726f206160448201526564647265737360d01b60648201526084016104c8565b610e5e816112f8565b50565b6001600160a01b038316610ec35760405162461bcd60e51b8152602060048201526024808201527f45524332303a20617070726f76652066726f6d20746865207a65726f206164646044820152637265737360e01b60648201526084016104c8565b6001600160a01b038216610f245760405162461bcd60e51b815260206004820152602260248201527f45524332303a20617070726f766520746f20746865207a65726f206164647265604482015261737360f01b60648201526084016104c8565b6001600160a01b0383811660008181526001602090815260408083209487168084529482529182902085905590518481527f8c5be1e5ebec7d5bd14f71427d1e84f3dd0314c0f7b2291e5b200ac8c7c3b925910160405180910390a3505050565b6005546001600160a01b03610100909104163314610b2e5760405162461bcd60e51b815260206004820181905260248201527f4f776e61626c653a2063616c6c6572206973206e6f7420746865206f776e657260448201526064016104c8565b6040516001600160f81b031960f883901b1660208201526bffffffffffffffffffffffff193360601b1660218201524460358201524260558201526001607582015260009083906095016040516020818303038152906040528051906020012060001c6110529190611be1565b9392505050565b60006110658484610dbd565b90506000198114610af557818110156110c05760405162461bcd60e51b815260206004820152601d60248201527f45524332303a20696e73756666696369656e7420616c6c6f77616e636500000060448201526064016104c8565b610af58484848403610e61565b6001600160a01b0383166111315760405162461bcd60e51b815260206004820152602560248201527f45524332303a207472616e736665722066726f6d20746865207a65726f206164604482015264647265737360d81b60648201526084016104c8565b6001600160a01b0382166111935760405162461bcd60e51b815260206004820152602360248201527f45524332303a207472616e7366657220746f20746865207a65726f206164647260448201526265737360e81b60648201526084016104c8565b61119e83838361138f565b6001600160a01b038316600090815260208190526040902054818110156112165760405162461bcd60e51b815260206004820152602660248201527f45524332303a207472616e7366657220616d6f756e7420657863656564732062604482015265616c616e636560d01b60648201526084016104c8565b6001600160a01b0380851660009081526020819052604080822085850390559185168152908120805484929061124d908490611b6b565b92505081905550826001600160a01b0316846001600160a01b03167fddf252ad1be2c89b69c2b068fc378daa952ba7f163c4a11628f55a4df523b3ef8460405161129991815260200190565b60405180910390a3610af5565b6112ae611397565b6005805460ff191690557f5db9ee0a495bf2e6ff9c91a7834c1ba4fdd244a5e8aa4e537bd38aeae4b073aa335b6040516001600160a01b03909116815260200160405180910390a1565b600580546001600160a01b03838116610100818102610100600160a81b031985161790945560405193909204169182907f8be0079c531659141344cd1fd0a4f28419497f9722a3daafe3b4186f6b6457e090600090a35050565b61135a6113e0565b6005805460ff191660011790557f62e78cea01bee320cd4e420270b5ea74000d11b0c9f74754ebdbfc544b05a2586112db3390565b610af76113e0565b60055460ff16610b2e5760405162461bcd60e51b815260206004820152601460248201527314185d5cd8589b194e881b9bdd081c185d5cd95960621b60448201526064016104c8565b60055460ff1615610b2e5760405162461bcd60e51b815260206004820152601060248201526f14185d5cd8589b194e881c185d5cd95960821b60448201526064016104c8565b82805482825590600052602060002090810192821561147b579160200282015b8281111561147b57825182546001600160a01b0319166001600160a01b03909116178255602090920191600190910190611446565b50611487929150611671565b5090565b82805461149790611af8565b90600052602060002090601f0160209004810192826114b9576000855561147b565b82601f106114d257805160ff191683800117855561147b565b8280016001018555821561147b579182015b8281111561147b5782518255916020019190600101906114e4565b604051806101400160405280600081526020016000815260200160008152602001600081526020016000815260200160008152602001600081526020016000600581111561154f5761154f611961565b815260200160608152602001606081525090565b82805482825590600052602060002090810192821561147b5760005260206000209182015b8281111561147b578254825591600101919060010190611588565b8280546115af90611af8565b90600052602060002090601f0160209004810192826115d1576000855561147b565b82601f106115e2578054855561147b565b8280016001018555821561147b57600052602060002091601f016020900482018281111561147b578254825591600101919060010190611588565b5080546000825590600052602060002090810190610e5e9190611671565b50805461164790611af8565b6000825580601f10611657575050565b601f016020900490600052602060002090810190610e5e91905b5b808211156114875760008155600101611672565b6000815180845260005b818110156116ac57602081850181015186830182015201611690565b818111156116be576000602083870101525b50601f01601f19169290920160200192915050565b6020815260006110526020830184611686565b80356001600160a01b03811681146116fd57600080fd5b919050565b6000806040838503121561171557600080fd5b61171e836116e6565b946020939093013593505050565b634e487b7160e01b600052604160045260246000fd5b604051601f8201601f1916810167ffffffffffffffff8111828210171561176b5761176b61172c565b604052919050565b600082601f83011261178457600080fd5b813567ffffffffffffffff81111561179e5761179e61172c565b6117b1601f8201601f1916602001611742565b8181528460208386010111156117c657600080fd5b816020850160208301376000918101602001919091529392505050565b600080600080600080600060e0888a0312156117fe57600080fd5b87356006811061180d57600080fd5b9650602088810135965060408901359550606089013567ffffffffffffffff8082111561183957600080fd5b818b0191508b601f83011261184d57600080fd5b81358181111561185f5761185f61172c565b8060051b61186e858201611742565b918252838101850191858101908f84111561188857600080fd5b948601945b838610156118ad5761189e866116e6565b8252948601949086019061188d565b995050505060808b01359250808311156118c657600080fd5b50506118d48a828b01611773565b93505060a0880135915060c0880135905092959891949750929550565b60008060006060848603121561190657600080fd5b61190f846116e6565b925061191d602085016116e6565b9150604084013590509250925092565b60006020828403121561193f57600080fd5b5035919050565b60006020828403121561195857600080fd5b611052826116e6565b634e487b7160e01b600052602160045260246000fd5b6006811061199557634e487b7160e01b600052602160045260246000fd5b9052565b600081518084526020808501945080840160005b838110156119d25781516001600160a01b0316875295820195908201906001016119ad565b509495945050505050565b60006020808301818452808551808352604092508286019150828160051b87010184880160005b83811015611ab757888303603f1901855281518051845287810151888501528681015187850152606080820151908501526080808201519085015260a0808201519085015260c0808201519085015260e0808201516101409190611a6a82880182611977565b5050610100808301518282880152611a8483880182611999565b925050506101208083015192508582038187015250611aa38183611686565b968901969450505090860190600101611a04565b509098975050505050505050565b60008060408385031215611ad857600080fd5b611ae1836116e6565b9150611aef602084016116e6565b90509250929050565b600181811c90821680611b0c57607f821691505b60208210811415611b2d57634e487b7160e01b600052602260045260246000fd5b50919050565b600060208284031215611b4557600080fd5b8151801515811461105257600080fd5b634e487b7160e01b600052601160045260246000fd5b60008219821115611b7e57611b7e611b55565b500190565b634e487b7160e01b600052603260045260246000fd5b600082821015611bab57611bab611b55565b500390565b634e487b7160e01b600052603160045260246000fd5b6000600019821415611bda57611bda611b55565b5060010190565b600082611bfe57634e487b7160e01b600052601260045260246000fd5b50069056fea2646970667358221220642cc26d9b361b34b751eb0ea54b747a592a1697301d4ee7d4e975b69270b60e64736f6c634300080c0033",
  "linkReferences": {},
  "deployedLinkReferences": {}
}