{
  "_format": "hh-sol-artifact-1",
  "contractName": "FungibleToken",
  "sourceName": "src/backend/contracts/_FungibleToken.sol",
  "abi": [
    {
      "inputs": [
        {
          "internalType": "string",
          "name": "_name",
          "type": "string"
        },
        {
          "internalType": "string",
          "name": "_symbol",
          "type": "string"
        },
        {
          "internalType": "address",
          "name": "_owner",
          "type": "address"
        },
        {
          "internalType": "uint256",
          "name": "_supply",
          "type": "uint256"
        }
      ],
      "stateMutability": "nonpayable",
      "type": "constructor"
    },
    {
      "anonymous": false,
      "inputs": [
        {
          "indexed": true,
          "internalType": "address",
          "name": "owner",
          "type": "address"
        },
        {
          "indexed": true,
          "internalType": "address",
          "name": "spender",
          "type": "address"
        },
        {
          "indexed": false,
          "internalType": "uint256",
          "name": "value",
          "type": "uint256"
        }
      ],
      "name": "Approval",
      "type": "event"
    },
    {
      "anonymous": false,
      "inputs": [
        {
          "indexed": true,
          "internalType": "address",
          "name": "previousOwner",
          "type": "address"
        },
        {
          "indexed": true,
          "internalType": "address",
          "name": "newOwner",
          "type": "address"
        }
      ],
      "name": "OwnershipTransferred",
      "type": "event"
    },
    {
      "anonymous": false,
      "inputs": [
        {
          "indexed": false,
          "internalType": "address",
          "name": "account",
          "type": "address"
        }
      ],
      "name": "Paused",
      "type": "event"
    },
    {
      "anonymous": false,
      "inputs": [
        {
          "indexed": true,
          "internalType": "address",
          "name": "from",
          "type": "address"
        },
        {
          "indexed": true,
          "internalType": "address",
          "name": "to",
          "type": "address"
        },
        {
          "indexed": false,
          "internalType": "uint256",
          "name": "value",
          "type": "uint256"
        }
      ],
      "name": "Transfer",
      "type": "event"
    },
    {
      "anonymous": false,
      "inputs": [
        {
          "indexed": false,
          "internalType": "address",
          "name": "account",
          "type": "address"
        }
      ],
      "name": "Unpaused",
      "type": "event"
    },
    {
      "inputs": [
        {
          "internalType": "address",
          "name": "owner",
          "type": "address"
        },
        {
          "internalType": "address",
          "name": "spender",
          "type": "address"
        }
      ],
      "name": "allowance",
      "outputs": [
        {
          "internalType": "uint256",
          "name": "",
          "type": "uint256"
        }
      ],
      "stateMutability": "view",
      "type": "function"
    },
    {
      "inputs": [
        {
          "internalType": "address",
          "name": "spender",
          "type": "address"
        },
        {
          "internalType": "uint256",
          "name": "amount",
          "type": "uint256"
        }
      ],
      "name": "approve",
      "outputs": [
        {
          "internalType": "bool",
          "name": "",
          "type": "bool"
        }
      ],
      "stateMutability": "nonpayable",
      "type": "function"
    },
    {
      "inputs": [
        {
          "internalType": "address",
          "name": "account",
          "type": "address"
        }
      ],
      "name": "balanceOf",
      "outputs": [
        {
          "internalType": "uint256",
          "name": "",
          "type": "uint256"
        }
      ],
      "stateMutability": "view",
      "type": "function"
    },
    {
      "inputs": [],
      "name": "campaignLastId",
      "outputs": [
        {
          "internalType": "uint256",
          "name": "",
          "type": "uint256"
        }
      ],
      "stateMutability": "view",
      "type": "function"
    },
    {
      "inputs": [
        {
          "internalType": "uint256",
          "name": "_campaignId",
          "type": "uint256"
        }
      ],
      "name": "cancelDistributionCampaign",
      "outputs": [],
      "stateMutability": "nonpayable",
      "type": "function"
    },
    {
      "inputs": [
        {
          "internalType": "enum FungibleToken.DistributionType",
          "name": "_distType",
          "type": "uint8"
        },
        {
          "internalType": "uint256",
          "name": "_dateStart",
          "type": "uint256"
        },
        {
          "internalType": "uint256",
          "name": "_dateEnd",
          "type": "uint256"
        },
        {
          "internalType": "address[]",
          "name": "_whitelist",
          "type": "address[]"
        },
        {
          "internalType": "bool",
          "name": "_isProtected",
          "type": "bool"
        },
        {
          "internalType": "uint256",
          "name": "_tokensTotal",
          "type": "uint256"
        }
      ],
      "name": "createDistributionCampaign",
      "outputs": [],
      "stateMutability": "payable",
      "type": "function"
    },
    {
      "inputs": [],
      "name": "decimals",
      "outputs": [
        {
          "internalType": "uint8",
          "name": "",
          "type": "uint8"
        }
      ],
      "stateMutability": "view",
      "type": "function"
    },
    {
      "inputs": [
        {
          "internalType": "address",
          "name": "spender",
          "type": "address"
        },
        {
          "internalType": "uint256",
          "name": "subtractedValue",
          "type": "uint256"
        }
      ],
      "name": "decreaseAllowance",
      "outputs": [
        {
          "internalType": "bool",
          "name": "",
          "type": "bool"
        }
      ],
      "stateMutability": "nonpayable",
      "type": "function"
    },
    {
      "inputs": [],
      "name": "getCampaigns",
      "outputs": [
        {
          "components": [
            {
              "internalType": "uint256",
              "name": "id",
              "type": "uint256"
            },
            {
              "internalType": "uint256",
              "name": "tokensTotal",
              "type": "uint256"
            },
            {
              "internalType": "uint256",
              "name": "tokensMinted",
              "type": "uint256"
            },
            {
              "internalType": "uint256",
              "name": "dateStart",
              "type": "uint256"
            },
            {
              "internalType": "uint256",
              "name": "dateEnd",
              "type": "uint256"
            },
            {
              "internalType": "uint256",
              "name": "eventCode",
              "type": "uint256"
            },
            {
              "internalType": "enum FungibleToken.DistributionType",
              "name": "distType",
              "type": "uint8"
            },
            {
              "internalType": "address[]",
              "name": "whitelist",
              "type": "address[]"
            },
            {
              "internalType": "bool",
              "name": "isProtected",
              "type": "bool"
            }
          ],
          "internalType": "struct FungibleToken.DistributionCampaign[]",
          "name": "",
          "type": "tuple[]"
        }
      ],
      "stateMutability": "view",
      "type": "function"
    },
    {
      "inputs": [
        {
          "internalType": "address",
          "name": "spender",
          "type": "address"
        },
        {
          "internalType": "uint256",
          "name": "addedValue",
          "type": "uint256"
        }
      ],
      "name": "increaseAllowance",
      "outputs": [
        {
          "internalType": "bool",
          "name": "",
          "type": "bool"
        }
      ],
      "stateMutability": "nonpayable",
      "type": "function"
    },
    {
      "inputs": [],
      "name": "name",
      "outputs": [
        {
          "internalType": "string",
          "name": "",
          "type": "string"
        }
      ],
      "stateMutability": "view",
      "type": "function"
    },
    {
      "inputs": [],
      "name": "owner",
      "outputs": [
        {
          "internalType": "address",
          "name": "",
          "type": "address"
        }
      ],
      "stateMutability": "view",
      "type": "function"
    },
    {
      "inputs": [],
      "name": "pause",
      "outputs": [],
      "stateMutability": "nonpayable",
      "type": "function"
    },
    {
      "inputs": [],
      "name": "paused",
      "outputs": [
        {
          "internalType": "bool",
          "name": "",
          "type": "bool"
        }
      ],
      "stateMutability": "view",
      "type": "function"
    },
    {
      "inputs": [],
      "name": "renounceOwnership",
      "outputs": [],
      "stateMutability": "nonpayable",
      "type": "function"
    },
    {
      "inputs": [],
      "name": "symbol",
      "outputs": [
        {
          "internalType": "string",
          "name": "",
          "type": "string"
        }
      ],
      "stateMutability": "view",
      "type": "function"
    },
    {
      "inputs": [],
      "name": "totalSupply",
      "outputs": [
        {
          "internalType": "uint256",
          "name": "",
          "type": "uint256"
        }
      ],
      "stateMutability": "view",
      "type": "function"
    },
    {
      "inputs": [
        {
          "internalType": "address",
          "name": "to",
          "type": "address"
        },
        {
          "internalType": "uint256",
          "name": "amount",
          "type": "uint256"
        }
      ],
      "name": "transfer",
      "outputs": [
        {
          "internalType": "bool",
          "name": "",
          "type": "bool"
        }
      ],
      "stateMutability": "nonpayable",
      "type": "function"
    },
    {
      "inputs": [
        {
          "internalType": "address",
          "name": "from",
          "type": "address"
        },
        {
          "internalType": "address",
          "name": "to",
          "type": "address"
        },
        {
          "internalType": "uint256",
          "name": "amount",
          "type": "uint256"
        }
      ],
      "name": "transferFrom",
      "outputs": [
        {
          "internalType": "bool",
          "name": "",
          "type": "bool"
        }
      ],
      "stateMutability": "nonpayable",
      "type": "function"
    },
    {
      "inputs": [
        {
          "internalType": "address",
          "name": "newOwner",
          "type": "address"
        }
      ],
      "name": "transferOwnership",
      "outputs": [],
      "stateMutability": "nonpayable",
      "type": "function"
    },
    {
      "inputs": [],
      "name": "unpause",
      "outputs": [],
      "stateMutability": "nonpayable",
      "type": "function"
    }
  ],
  "bytecode": "0x60806040523480156200001157600080fd5b5060405162001d3938038062001d398339810160408190526200003491620004c5565b8351849084906200004d90600390602085019062000352565b5080516200006390600490602084019062000352565b50506005805460ff19169055506200007b33620000af565b6200009a826200009483670de0b6b3a76400006200056e565b62000109565b620000a58262000200565b50505050620005e8565b600580546001600160a01b03838116610100818102610100600160a81b031985161790945560405193909204169182907f8be0079c531659141344cd1fd0a4f28419497f9722a3daafe3b4186f6b6457e090600090a35050565b6001600160a01b038216620001655760405162461bcd60e51b815260206004820152601f60248201527f45524332303a206d696e7420746f20746865207a65726f20616464726573730060448201526064015b60405180910390fd5b62000173600083836200027f565b806002600082825462000187919062000590565b90915550506001600160a01b03821660009081526020819052604081208054839290620001b690849062000590565b90915550506040518181526001600160a01b038316906000907fddf252ad1be2c89b69c2b068fc378daa952ba7f163c4a11628f55a4df523b3ef9060200160405180910390a35050565b6200020a620002a6565b6001600160a01b038116620002715760405162461bcd60e51b815260206004820152602660248201527f4f776e61626c653a206e6577206f776e657220697320746865207a65726f206160448201526564647265737360d01b60648201526084016200015c565b6200027c81620000af565b50565b620002896200030a565b620002a1838383620002a160201b62000b921760201c565b505050565b6005546001600160a01b03610100909104163314620003085760405162461bcd60e51b815260206004820181905260248201527f4f776e61626c653a2063616c6c6572206973206e6f7420746865206f776e657260448201526064016200015c565b565b60055460ff1615620003085760405162461bcd60e51b815260206004820152601060248201526f14185d5cd8589b194e881c185d5cd95960821b60448201526064016200015c565b8280546200036090620005ab565b90600052602060002090601f016020900481019282620003845760008555620003cf565b82601f106200039f57805160ff1916838001178555620003cf565b82800160010185558215620003cf579182015b82811115620003cf578251825591602001919060010190620003b2565b50620003dd929150620003e1565b5090565b5b80821115620003dd5760008155600101620003e2565b634e487b7160e01b600052604160045260246000fd5b600082601f8301126200042057600080fd5b81516001600160401b03808211156200043d576200043d620003f8565b604051601f8301601f19908116603f01168101908282118183101715620004685762000468620003f8565b816040528381526020925086838588010111156200048557600080fd5b600091505b83821015620004a957858201830151818301840152908201906200048a565b83821115620004bb5760008385830101525b9695505050505050565b60008060008060808587031215620004dc57600080fd5b84516001600160401b0380821115620004f457600080fd5b62000502888389016200040e565b955060208701519150808211156200051957600080fd5b5062000528878288016200040e565b604087015190945090506001600160a01b03811681146200054857600080fd5b6060959095015193969295505050565b634e487b7160e01b600052601160045260246000fd5b60008160001904831182151516156200058b576200058b62000558565b500290565b60008219821115620005a657620005a662000558565b500190565b600181811c90821680620005c057607f821691505b60208210811415620005e257634e487b7160e01b600052602260045260246000fd5b50919050565b61174180620005f86000396000f3fe60806040526004361061012a5760003560e01c806370a08231116100ab57806395d89b411161006f57806395d89b4114610313578063a457c2d714610328578063a6b0363314610348578063a9059cbb1461036a578063dd62ed3e1461038a578063f2fde38b146103aa57600080fd5b806370a082311461026a578063715018a6146102a05780638456cb59146102b55780638ca926c7146102ca5780638da5cb5b146102dd57600080fd5b8063381da488116100f2578063381da488146101e557806339509351146102075780633f4ba83a146102275780635c975abb1461023c57806369b0aafa1461025457600080fd5b806306fdde031461012f578063095ea7b31461015a57806318160ddd1461018a57806323b872dd146101a9578063313ce567146101c9575b600080fd5b34801561013b57600080fd5b506101446103ca565b604051610151919061123a565b60405180910390f35b34801561016657600080fd5b5061017a6101753660046112ab565b61045c565b6040519015158152602001610151565b34801561019657600080fd5b506002545b604051908152602001610151565b3480156101b557600080fd5b5061017a6101c43660046112d5565b610474565b3480156101d557600080fd5b5060405160128152602001610151565b3480156101f157600080fd5b50610205610200366004611311565b610498565b005b34801561021357600080fd5b5061017a6102223660046112ab565b6106d8565b34801561023357600080fd5b506102056106fa565b34801561024857600080fd5b5060055460ff1661017a565b34801561026057600080fd5b5061019b60065481565b34801561027657600080fd5b5061019b61028536600461132a565b6001600160a01b031660009081526020819052604090205490565b3480156102ac57600080fd5b5061020561070c565b3480156102c157600080fd5b5061020561071e565b6102056102d8366004611374565b61072e565b3480156102e957600080fd5b5060055461010090046001600160a01b03166040516001600160a01b039091168152602001610151565b34801561031f57600080fd5b5061014461090b565b34801561033457600080fd5b5061017a6103433660046112ab565b61091a565b34801561035457600080fd5b5061035d61099a565b60405161015191906114fa565b34801561037657600080fd5b5061017a6103853660046112ab565b610ae3565b34801561039657600080fd5b5061019b6103a53660046115d2565b610af1565b3480156103b657600080fd5b506102056103c536600461132a565b610b1c565b6060600380546103d990611605565b80601f016020809104026020016040519081016040528092919081815260200182805461040590611605565b80156104525780601f1061042757610100808354040283529160200191610452565b820191906000526020600020905b81548152906001019060200180831161043557829003601f168201915b5050505050905090565b60003361046a818585610b97565b5060019392505050565b600033610482858285610cbb565b61048d858585610d35565b506001949350505050565b6104a0610f0e565b6007546001141561051d5760076000815481106104bf576104bf611640565b600091825260208220600990910201818155600181018290556002810182905560038101829055600481018290556005810182905560068101805460ff191690559061050e6007830182611162565b50600801805460ff1916905550565b60005b6006548110156106d357816007828154811061053e5761053e611640565b90600052602060002090600902016000015414156106c35760076001600654610567919061166c565b8154811061057757610577611640565b90600052602060002090600902016007828154811061059857610598611640565b90600052602060002090600902016000820154816000015560018201548160010155600282015481600201556003820154816003015560048201548160040155600582015481600501556006820160009054906101000a900460ff168160060160006101000a81548160ff021916908360058111156106195761061961147e565b0217905550600782810180546106329284019190611180565b506008918201549101805460ff191660ff9092161515919091179055600780548061065f5761065f611683565b600082815260208120600960001990930192830201818155600181018290556002810182905560038101829055600481018290556005810182905560068101805460ff19169055906106b46007830182611162565b50600801805460ff1916905590555b6106cc81611699565b9050610520565b505b50565b60003361046a8185856106eb8383610af1565b6106f591906116b4565b610b97565b610702610f0e565b61070a610f6e565b565b610714610f0e565b61070a6000610fc0565b610726610f0e565b61070a61101a565b610736610f0e565b6000600487600581111561074c5761074c61147e565b141561076357610760620f423f6001611057565b90505b6040516323b872dd60e01b81523360048201523060248201819052604482018490529081906323b872dd906064016020604051808303816000875af11580156107b0573d6000803e3d6000fd5b505050506040513d601f19601f820116820180604052508101906107d491906116cc565b506001600660008282546107e891906116b4565b9250508190555060076040518061012001604052806006548152602001858152602001600081526020018981526020018881526020018481526020018a60058111156108365761083661147e565b8152602080820189905287151560409283015283546001818101865560009586529482902084516009909202019081559083015181850155908201516002820155606082015160038201556080820151600482015560a082015160058083019190915560c0830151600683018054949593949193909260ff199092169184908111156108c4576108c461147e565b021790555060e082015180516108e49160078401916020909101906111d0565b5061010091909101516008909101805460ff19169115159190911790555050505050505050565b6060600480546103d990611605565b600033816109288286610af1565b90508381101561098d5760405162461bcd60e51b815260206004820152602560248201527f45524332303a2064656372656173656420616c6c6f77616e63652062656c6f77604482015264207a65726f60d81b60648201526084015b60405180910390fd5b61048d8286868403610b97565b60606007805480602002602001604051908101604052809291908181526020016000905b82821015610ada5783829060005260206000209060090201604051806101200160405290816000820154815260200160018201548152602001600282015481526020016003820154815260200160048201548152602001600582015481526020016006820160009054906101000a900460ff166005811115610a4257610a4261147e565b6005811115610a5357610a5361147e565b815260200160078201805480602002602001604051908101604052809291908181526020018280548015610ab057602002820191906000526020600020905b81546001600160a01b03168152600190910190602001808311610a92575b50505091835250506008919091015460ff16151560209182015290825260019290920191016109be565b50505050905090565b60003361046a818585610d35565b6001600160a01b03918216600090815260016020908152604080832093909416825291909152205490565b610b24610f0e565b6001600160a01b038116610b895760405162461bcd60e51b815260206004820152602660248201527f4f776e61626c653a206e6577206f776e657220697320746865207a65726f206160448201526564647265737360d01b6064820152608401610984565b6106d581610fc0565b505050565b6001600160a01b038316610bf95760405162461bcd60e51b8152602060048201526024808201527f45524332303a20617070726f76652066726f6d20746865207a65726f206164646044820152637265737360e01b6064820152608401610984565b6001600160a01b038216610c5a5760405162461bcd60e51b815260206004820152602260248201527f45524332303a20617070726f766520746f20746865207a65726f206164647265604482015261737360f01b6064820152608401610984565b6001600160a01b0383811660008181526001602090815260408083209487168084529482529182902085905590518481527f8c5be1e5ebec7d5bd14f71427d1e84f3dd0314c0f7b2291e5b200ac8c7c3b925910160405180910390a3505050565b6000610cc78484610af1565b90506000198114610d2f5781811015610d225760405162461bcd60e51b815260206004820152601d60248201527f45524332303a20696e73756666696369656e7420616c6c6f77616e63650000006044820152606401610984565b610d2f8484848403610b97565b50505050565b6001600160a01b038316610d995760405162461bcd60e51b815260206004820152602560248201527f45524332303a207472616e736665722066726f6d20746865207a65726f206164604482015264647265737360d81b6064820152608401610984565b6001600160a01b038216610dfb5760405162461bcd60e51b815260206004820152602360248201527f45524332303a207472616e7366657220746f20746865207a65726f206164647260448201526265737360e81b6064820152608401610984565b610e068383836110cb565b6001600160a01b03831660009081526020819052604090205481811015610e7e5760405162461bcd60e51b815260206004820152602660248201527f45524332303a207472616e7366657220616d6f756e7420657863656564732062604482015265616c616e636560d01b6064820152608401610984565b6001600160a01b03808516600090815260208190526040808220858503905591851681529081208054849290610eb59084906116b4565b92505081905550826001600160a01b0316846001600160a01b03167fddf252ad1be2c89b69c2b068fc378daa952ba7f163c4a11628f55a4df523b3ef84604051610f0191815260200190565b60405180910390a3610d2f565b6005546001600160a01b0361010090910416331461070a5760405162461bcd60e51b815260206004820181905260248201527f4f776e61626c653a2063616c6c6572206973206e6f7420746865206f776e65726044820152606401610984565b610f766110d3565b6005805460ff191690557f5db9ee0a495bf2e6ff9c91a7834c1ba4fdd244a5e8aa4e537bd38aeae4b073aa335b6040516001600160a01b03909116815260200160405180910390a1565b600580546001600160a01b03838116610100818102610100600160a81b031985161790945560405193909204169182907f8be0079c531659141344cd1fd0a4f28419497f9722a3daafe3b4186f6b6457e090600090a35050565b61102261111c565b6005805460ff191660011790557f62e78cea01bee320cd4e420270b5ea74000d11b0c9f74754ebdbfc544b05a258610fa33390565b6040516001600160f81b031960f883901b1660208201526bffffffffffffffffffffffff193360601b1660218201524460358201524260558201526001607582015260009083906095016040516020818303038152906040528051906020012060001c6110c491906116e9565b9392505050565b610b9261111c565b60055460ff1661070a5760405162461bcd60e51b815260206004820152601460248201527314185d5cd8589b194e881b9bdd081c185d5cd95960621b6044820152606401610984565b60055460ff161561070a5760405162461bcd60e51b815260206004820152601060248201526f14185d5cd8589b194e881c185d5cd95960821b6044820152606401610984565b50805460008255906000526020600020908101906106d59190611225565b8280548282559060005260206000209081019282156111c05760005260206000209182015b828111156111c05782548255916001019190600101906111a5565b506111cc929150611225565b5090565b8280548282559060005260206000209081019282156111c0579160200282015b828111156111c057825182546001600160a01b0319166001600160a01b039091161782556020909201916001909101906111f0565b5b808211156111cc5760008155600101611226565b600060208083528351808285015260005b818110156112675785810183015185820160400152820161124b565b81811115611279576000604083870101525b50601f01601f1916929092016040019392505050565b80356001600160a01b03811681146112a657600080fd5b919050565b600080604083850312156112be57600080fd5b6112c78361128f565b946020939093013593505050565b6000806000606084860312156112ea57600080fd5b6112f38461128f565b92506113016020850161128f565b9150604084013590509250925092565b60006020828403121561132357600080fd5b5035919050565b60006020828403121561133c57600080fd5b6110c48261128f565b634e487b7160e01b600052604160045260246000fd5b80151581146106d557600080fd5b80356112a68161135b565b60008060008060008060c0878903121561138d57600080fd5b86356006811061139c57600080fd5b9550602087810135955060408801359450606088013567ffffffffffffffff808211156113c857600080fd5b818a0191508a601f8301126113dc57600080fd5b8135818111156113ee576113ee611345565b8060051b604051601f19603f8301168101818110858211171561141357611413611345565b60405291825284820192508381018501918d83111561143157600080fd5b938501935b82851015611456576114478561128f565b84529385019392850192611436565b80985050505050505061146b60808801611369565b915060a087013590509295509295509295565b634e487b7160e01b600052602160045260246000fd5b600681106114b257634e487b7160e01b600052602160045260246000fd5b9052565b600081518084526020808501945080840160005b838110156114ef5781516001600160a01b0316875295820195908201906001016114ca565b509495945050505050565b60006020808301818452808551808352604092508286019150828160051b87010184880160005b838110156115c457888303603f1901855281518051845287810151888501528681015187850152606080820151908501526080808201519085015260a0808201519085015260c080820151610120919061157d82880182611494565b505060e0808301518282880152611596838801826114b6565b925050506101008083015192506115b08187018415159052565b509588019593505090860190600101611521565b509098975050505050505050565b600080604083850312156115e557600080fd5b6115ee8361128f565b91506115fc6020840161128f565b90509250929050565b600181811c9082168061161957607f821691505b6020821081141561163a57634e487b7160e01b600052602260045260246000fd5b50919050565b634e487b7160e01b600052603260045260246000fd5b634e487b7160e01b600052601160045260246000fd5b60008282101561167e5761167e611656565b500390565b634e487b7160e01b600052603160045260246000fd5b60006000198214156116ad576116ad611656565b5060010190565b600082198211156116c7576116c7611656565b500190565b6000602082840312156116de57600080fd5b81516110c48161135b565b60008261170657634e487b7160e01b600052601260045260246000fd5b50069056fea264697066735822122015189a0e9f4163cb104a727b7fa40d5b97333c9062a06e88c3f65975e72e8b9c64736f6c634300080c0033",
  "linkReferences": {},
  "deployedLinkReferences": {}
}