{
  "_format": "hh-sol-artifact-1",
  "contractName": "FungibleToken",
  "sourceName": "src/backend/contracts/_FungibleToken.sol",
  "abi": [
    {
      "inputs": [],
      "name": "Initialized",
      "type": "error"
    },
    {
      "inputs": [],
      "name": "InvalidNullifier",
      "type": "error"
    },
    {
      "inputs": [],
      "name": "ZeroAddress",
      "type": "error"
    },
    {
      "anonymous": false,
      "inputs": [
        {
          "indexed": true,
          "internalType": "address",
          "name": "previousOwner",
          "type": "address"
        },
        {
          "indexed": true,
          "internalType": "address",
          "name": "newOwner",
          "type": "address"
        }
      ],
      "name": "OwnershipTransferred",
      "type": "event"
    },
    {
      "anonymous": false,
      "inputs": [
        {
          "indexed": false,
          "internalType": "address",
          "name": "account",
          "type": "address"
        }
      ],
      "name": "Paused",
      "type": "event"
    },
    {
      "anonymous": false,
      "inputs": [
        {
          "indexed": false,
          "internalType": "address",
          "name": "account",
          "type": "address"
        }
      ],
      "name": "Unpaused",
      "type": "event"
    },
    {
      "stateMutability": "payable",
      "type": "fallback"
    },
    {
      "inputs": [
        {
          "internalType": "address",
          "name": "spender",
          "type": "address"
        },
        {
          "internalType": "uint256",
          "name": "amount",
          "type": "uint256"
        }
      ],
      "name": "approve",
      "outputs": [
        {
          "internalType": "bool",
          "name": "",
          "type": "bool"
        }
      ],
      "stateMutability": "nonpayable",
      "type": "function"
    },
    {
      "inputs": [],
      "name": "campaignLastId",
      "outputs": [
        {
          "internalType": "uint256",
          "name": "",
          "type": "uint256"
        }
      ],
      "stateMutability": "view",
      "type": "function"
    },
    {
      "inputs": [
        {
          "internalType": "uint256",
          "name": "",
          "type": "uint256"
        }
      ],
      "name": "campaignsList",
      "outputs": [
        {
          "internalType": "uint256",
          "name": "",
          "type": "uint256"
        }
      ],
      "stateMutability": "view",
      "type": "function"
    },
    {
      "inputs": [
        {
          "internalType": "uint256",
          "name": "_campaignId",
          "type": "uint256"
        }
      ],
      "name": "cancelDistributionCampaign",
      "outputs": [],
      "stateMutability": "nonpayable",
      "type": "function"
    },
    {
      "inputs": [
        {
          "internalType": "uint256",
          "name": "_communityId",
          "type": "uint256"
        },
        {
          "internalType": "uint256",
          "name": "_campaignId",
          "type": "uint256"
        },
        {
          "internalType": "uint256",
          "name": "_eventCode",
          "type": "uint256"
        },
        {
          "internalType": "string",
          "name": "_email",
          "type": "string"
        },
        {
          "internalType": "uint256",
          "name": "root",
          "type": "uint256"
        },
        {
          "internalType": "uint256",
          "name": "nullifierHash",
          "type": "uint256"
        },
        {
          "internalType": "uint256[8]",
          "name": "proof",
          "type": "uint256[8]"
        }
      ],
      "name": "claimFromCampaign",
      "outputs": [],
      "stateMutability": "payable",
      "type": "function"
    },
    {
      "inputs": [
        {
          "internalType": "enum FungibleToken.DistributionType",
          "name": "_distType",
          "type": "uint8"
        },
        {
          "internalType": "uint256",
          "name": "_dateStart",
          "type": "uint256"
        },
        {
          "internalType": "uint256",
          "name": "_dateEnd",
          "type": "uint256"
        },
        {
          "internalType": "address[]",
          "name": "_whitelist",
          "type": "address[]"
        },
        {
          "internalType": "string",
          "name": "_worldcoinAction",
          "type": "string"
        },
        {
          "internalType": "uint256",
          "name": "_tokensTotal",
          "type": "uint256"
        },
        {
          "internalType": "uint256",
          "name": "_tokensPerUser",
          "type": "uint256"
        }
      ],
      "name": "createDistributionCampaign",
      "outputs": [],
      "stateMutability": "payable",
      "type": "function"
    },
    {
      "inputs": [],
      "name": "getCampaigns",
      "outputs": [
        {
          "components": [
            {
              "internalType": "uint256",
              "name": "id",
              "type": "uint256"
            },
            {
              "internalType": "uint256",
              "name": "tokensTotal",
              "type": "uint256"
            },
            {
              "internalType": "uint256",
              "name": "tokensMinted",
              "type": "uint256"
            },
            {
              "internalType": "uint256",
              "name": "tokensPerUser",
              "type": "uint256"
            },
            {
              "internalType": "uint256",
              "name": "dateStart",
              "type": "uint256"
            },
            {
              "internalType": "uint256",
              "name": "dateEnd",
              "type": "uint256"
            },
            {
              "internalType": "uint256",
              "name": "eventCode",
              "type": "uint256"
            },
            {
              "internalType": "enum FungibleToken.DistributionType",
              "name": "distType",
              "type": "uint8"
            },
            {
              "internalType": "address[]",
              "name": "whitelist",
              "type": "address[]"
            },
            {
              "internalType": "string",
              "name": "worldcoinAction",
              "type": "string"
            }
          ],
          "internalType": "struct FungibleToken.DistributionCampaign[]",
          "name": "",
          "type": "tuple[]"
        }
      ],
      "stateMutability": "view",
      "type": "function"
    },
    {
      "inputs": [
        {
          "internalType": "address",
          "name": "_mainContract",
          "type": "address"
        },
        {
          "internalType": "string",
          "name": "_name",
          "type": "string"
        },
        {
          "internalType": "string",
          "name": "_symbol",
          "type": "string"
        },
        {
          "internalType": "address",
          "name": "_owner",
          "type": "address"
        },
        {
          "internalType": "uint256",
          "name": "_supply",
          "type": "uint256"
        },
        {
          "internalType": "contract IWorldID",
          "name": "_worldId",
          "type": "address"
        },
        {
          "internalType": "address",
          "name": "_superTokenFactory",
          "type": "address"
        },
        {
          "internalType": "bytes",
          "name": "userData",
          "type": "bytes"
        }
      ],
      "name": "initialize",
      "outputs": [],
      "stateMutability": "nonpayable",
      "type": "function"
    },
    {
      "inputs": [
        {
          "internalType": "address",
          "name": "initialAddress",
          "type": "address"
        }
      ],
      "name": "initializeProxy",
      "outputs": [],
      "stateMutability": "nonpayable",
      "type": "function"
    },
    {
      "inputs": [
        {
          "internalType": "uint256",
          "name": "",
          "type": "uint256"
        },
        {
          "internalType": "address",
          "name": "",
          "type": "address"
        }
      ],
      "name": "mintedList",
      "outputs": [
        {
          "internalType": "bool",
          "name": "",
          "type": "bool"
        }
      ],
      "stateMutability": "view",
      "type": "function"
    },
    {
      "inputs": [],
      "name": "owner",
      "outputs": [
        {
          "internalType": "address",
          "name": "",
          "type": "address"
        }
      ],
      "stateMutability": "view",
      "type": "function"
    },
    {
      "inputs": [],
      "name": "pause",
      "outputs": [],
      "stateMutability": "nonpayable",
      "type": "function"
    },
    {
      "inputs": [],
      "name": "paused",
      "outputs": [
        {
          "internalType": "bool",
          "name": "",
          "type": "bool"
        }
      ],
      "stateMutability": "view",
      "type": "function"
    },
    {
      "inputs": [],
      "name": "renounceOwnership",
      "outputs": [],
      "stateMutability": "nonpayable",
      "type": "function"
    },
    {
      "inputs": [
        {
          "internalType": "address",
          "name": "newOwner",
          "type": "address"
        }
      ],
      "name": "transferOwnership",
      "outputs": [],
      "stateMutability": "nonpayable",
      "type": "function"
    },
    {
      "inputs": [],
      "name": "unpause",
      "outputs": [],
      "stateMutability": "nonpayable",
      "type": "function"
    },
    {
      "stateMutability": "payable",
      "type": "receive"
    }
  ],
  "bytecode": "0x60a0604052600160805234801561001557600080fd5b506020805460ff191690556100293361002e565b610088565b602080546001600160a01b03838116610100818102610100600160a81b031985161790945560405193909204169182907f8be0079c531659141344cd1fd0a4f28419497f9722a3daafe3b4186f6b6457e090600090a35050565b608051611e7c6100a36000396000610db20152611e7c6000f3fe6080604052600436106100f75760003560e01c80638456cb591161008a578063c3d4450611610059578063c3d44506146102a4578063edfd1a7b146102c4578063f1fb53e1146102d7578063f2fde38b146102f757610106565b80638456cb59146101fc57806385c9d321146102115780638da5cb5b1461024c578063a6b036331461028257610106565b80634a0687ef116100c65780634a0687ef1461018b5780635c975abb146101ab57806369b0aafa146101c3578063715018a6146101e757610106565b8063095ea7b31461010e5780631400505014610143578063381da488146101565780633f4ba83a1461017657610106565b3661010657610104610317565b005b610104610317565b34801561011a57600080fd5b5061012e610129366004611683565b610349565b60405190151581526020015b60405180910390f35b610104610151366004611766565b610361565b34801561016257600080fd5b50610104610171366004611879565b6105d3565b34801561018257600080fd5b50610104610917565b34801561019757600080fd5b506101046101a6366004611892565b610927565b3480156101b757600080fd5b5060205460ff1661012e565b3480156101cf57600080fd5b506101d960225481565b60405190815260200161013a565b3480156101f357600080fd5b506101046109c3565b34801561020857600080fd5b506101046109d5565b34801561021d57600080fd5b5061012e61022c3660046118af565b602760209081526000928352604080842090915290825290205460ff1681565b34801561025857600080fd5b5060205461010090046001600160a01b03166040516001600160a01b03909116815260200161013a565b34801561028e57600080fd5b506102976109e5565b60405161013a91906119b3565b3480156102b057600080fd5b506101d96102bf366004611879565b610c32565b6101046102d2366004611a9b565b610c53565b3480156102e357600080fd5b506101046102f2366004611b23565b61100f565b34801561030357600080fd5b50610104610312366004611892565b611083565b6103476103427f360894a13ba1a3210667c828492db98dca3e2076cc3735a920a3ca505d382bbc5490565b6110fc565b565b600033610357818585611120565b5060019392505050565b61036961118e565b848611156103be5760405162461bcd60e51b815260206004820152601960248201527f57726f6e672063616d706169676e20646174652072616e67650000000000000060448201526064015b60405180910390fd5b600060048860058111156103d4576103d46118df565b14156103eb576103e8620f423f60016111ee565b90505b6040516323b872dd60e01b8152336004820152306024820181905260448201859052906323b872dd906064016020604051808303816000875af1158015610436573d6000803e3d6000fd5b505050506040513d601f19601f8201168201806040525081019061045a9190611bf8565b5060016022600082825461046e9190611c30565b90915550506022546023805460018101825560009182527fd57b2b5166478fd4318d2acc6cc2c704584312bdd8781b32d5d06abda57f423001829055604080516101408101825292835260208301869052820152606081018390526080810188905260a0810187905260c0810182905260e081018960058111156104f4576104f46118df565b815260200186815260200185815250602460006022548152602001908152602001600020600082015181600001556020820151816001015560408201518160020155606082015181600301556080820151816004015560a0820151816005015560c0820151816006015560e08201518160070160006101000a81548160ff02191690836005811115610588576105886118df565b021790555061010082015180516105a99160088401916020909101906114b4565b5061012082015180516105c6916009840191602090910190611519565b5050505050505050505050565b6105db61118e565b600081815260246020908152604080832081516101408101835281548152600182015493810193909352600281015491830191909152600381015460608301526004810154608083015260058082015460a0840152600682015460c0840152600782015460e084019160ff90911690811115610659576106596118df565b600581111561066a5761066a6118df565b8152602001600882018054806020026020016040519081016040528092919081815260200182805480156106c757602002820191906000526020600020905b81546001600160a01b031681526001909101906020018083116106a9575b505050505081526020016009820180546106e090611c48565b80601f016020809104026020016040519081016040528092919081815260200182805461070c90611c48565b80156107595780601f1061072e57610100808354040283529160200191610759565b820191906000526020600020905b81548152906001019060200180831161073c57829003601f168201915b505050505081525050905060008160400151826020015161077a9190611c7d565b905060005b60235481101561083c57836023828154811061079d5761079d611c94565b9060005260206000200154141561082c576023546001101561080457602380546107c990600190611c7d565b815481106107d9576107d9611c94565b9060005260206000200154602382815481106107f7576107f7611c94565b6000918252602090912001555b602380548061081557610815611caa565b600190038181906000526020600020016000905590555b61083581611cc0565b905061077f565b50600083815260246020526040812081815560018101829055600281018290556003810182905560048101829055600581018290556006810182905560078101805460ff1916905590610892600883018261158d565b6108a06009830160006115ab565b505080156109125760405163a9059cbb60e01b815233600482015260248101829052309063a9059cbb906044016020604051808303816000875af11580156108ec573d6000803e3d6000fd5b505050506040513d601f19601f820116820180604052508101906109109190611bf8565b505b505050565b61091f61118e565b61034761125d565b6001600160a01b03811661094e5760405163d92e233d60e01b815260040160405180910390fd5b60006109787f360894a13ba1a3210667c828492db98dca3e2076cc3735a920a3ca505d382bbc5490565b6001600160a01b03161461099f576040516302ed543d60e51b815260040160405180910390fd5b7f360894a13ba1a3210667c828492db98dca3e2076cc3735a920a3ca505d382bbc55565b6109cb61118e565b61034760006112af565b6109dd61118e565b610347611309565b60235460609060009067ffffffffffffffff811115610a0657610a066116af565b604051908082528060200260200182016040528015610a3f57816020015b610a2c6115e5565b815260200190600190039081610a245790505b50905060005b602354811015610c2c576024600060238381548110610a6657610a66611c94565b9060005260206000200154815260200190815260200160002060405180610140016040529081600082015481526020016001820154815260200160028201548152602001600382015481526020016004820154815260200160058201548152602001600682015481526020016007820160009054906101000a900460ff166005811115610af557610af56118df565b6005811115610b0657610b066118df565b815260200160088201805480602002602001604051908101604052809291908181526020018280548015610b6357602002820191906000526020600020905b81546001600160a01b03168152600190910190602001808311610b45575b50505050508152602001600982018054610b7c90611c48565b80601f0160208091040260200160405190810160405280929190818152602001828054610ba890611c48565b8015610bf55780601f10610bca57610100808354040283529160200191610bf5565b820191906000526020600020905b815481529060010190602001808311610bd857829003601f168201915b505050505081525050828281518110610c1057610c10611c94565b602002602001018190525080610c2590611cc0565b9050610a45565b50919050565b60238181548110610c4257600080fd5b600091825260209091200154905081565b610c5b611346565b6000868152602460205260409020600181015460038201546002830154610c829190611c30565b1115610cd05760405162461bcd60e51b815260206004820152601a60248201527f4e6f7420656e6f75676820746f6b656e7320746f20636c61696d00000000000060448201526064016103b5565b600087815260276020908152604080832033845290915290205460ff1615610d3a5760405162461bcd60e51b815260206004820152601860248201527f596f7520616c726561647920636c61696d20746f6b656e73000000000000000060448201526064016103b5565b6000816009018054610d4b90611c48565b90501115610e7e5760008381526026602052604090205460ff1615610d8357604051632ec8265960e11b815260040160405180910390fd5b6025546040516001600160601b03193360601b1660208201526001600160a01b0390911690633bc778e39086907f000000000000000000000000000000000000000000000000000000000000000090610dee906034015b60405160208183030381529060405261138c565b6040516001600160601b03193060601b1660208201528890610e1290603401610dda565b886040518763ffffffff1660e01b8152600401610e3496959493929190611cdb565b60006040518083038186803b158015610e4c57600080fd5b505afa158015610e60573d6000803e3d6000fd5b5050506000848152602660205260409020805460ff19166001179055505b6004600782015460ff166005811115610e9957610e996118df565b1415610ee55785816006015414610ee55760405162461bcd60e51b815260206004820152601060248201526f57726f6e67204576656e7420436f646560801b60448201526064016103b5565b8060030154816002016000828254610efd9190611c30565b9091555050600087815260276020908152604080832033808552925291829020805460ff191660011790556003830154915163a9059cbb60e01b815260048101919091526024810191909152309063a9059cbb906044016020604051808303816000875af1158015610f73573d6000803e3d6000fd5b505050506040513d601f19601f82011682018060405250810190610f979190611bf8565b5060215460038201546040516313c977bb60e21b81526001600160a01b0390921691634f25deec91610fd39133918a918e918e91600401611d17565b600060405180830381600087803b158015610fed57600080fd5b505af1158015611001573d6000803e3d6000fd5b505050505050505050505050565b602180546001600160a01b0319166001600160a01b038a161790556110358787846113c1565b6110518561104b86670de0b6b3a7640000611d6f565b83611444565b61105a85611083565b5050602580546001600160a01b0319166001600160a01b03929092169190911790555050505050565b61108b61118e565b6001600160a01b0381166110f05760405162461bcd60e51b815260206004820152602660248201527f4f776e61626c653a206e6577206f776e657220697320746865207a65726f206160448201526564647265737360d01b60648201526084016103b5565b6110f9816112af565b50565b3660008037600080366000845af43d6000803e80801561111b573d6000f35b3d6000fd5b60405163335097db60e11b81526001600160a01b038085166004830152831660248201526044810182905230906366a12fb6906064015b600060405180830381600087803b15801561117157600080fd5b505af1158015611185573d6000803e3d6000fd5b50505050505050565b6020546001600160a01b036101009091041633146103475760405162461bcd60e51b815260206004820181905260248201527f4f776e61626c653a2063616c6c6572206973206e6f7420746865206f776e657260448201526064016103b5565b6040516001600160f81b031960f883901b1660208201526001600160601b03193360601b1660218201524460358201524260558201526001607582015260009083906095016040516020818303038152906040528051906020012060001c6112569190611d8e565b9392505050565b61126561146b565b6020805460ff191690557f5db9ee0a495bf2e6ff9c91a7834c1ba4fdd244a5e8aa4e537bd38aeae4b073aa335b6040516001600160a01b03909116815260200160405180910390a1565b602080546001600160a01b03838116610100818102610100600160a81b031985161790945560405193909204169182907f8be0079c531659141344cd1fd0a4f28419497f9722a3daafe3b4186f6b6457e090600090a35050565b611311611346565b6020805460ff191660011790557f62e78cea01bee320cd4e420270b5ea74000d11b0c9f74754ebdbfc544b05a2586112923390565b60205460ff16156103475760405162461bcd60e51b815260206004820152601060248201526f14185d5cd8589b194e881c185d5cd95960821b60448201526064016103b5565b60006008826040516020016113a19190611db0565b60408051601f198184030181529190528051602090910120901c92915050565b604051633504b4d160e21b81523060048201526001600160a01b0382169063d412d34490602401600060405180830381600087803b15801561140257600080fd5b505af1158015611416573d6000803e3d6000fd5b50506040516285fc1360e71b81523092506342fe098091506111579060009060129088908890600401611dcc565b60405163c68d428360e01b8152309063c68d42839061115790869086908690600401611e16565b60205460ff166103475760405162461bcd60e51b815260206004820152601460248201527314185d5cd8589b194e881b9bdd081c185d5cd95960621b60448201526064016103b5565b828054828255906000526020600020908101928215611509579160200282015b8281111561150957825182546001600160a01b0319166001600160a01b039091161782556020909201916001909101906114d4565b50611515929150611649565b5090565b82805461152590611c48565b90600052602060002090601f0160209004810192826115475760008555611509565b82601f1061156057805160ff1916838001178555611509565b82800160010185558215611509579182015b82811115611509578251825591602001919060010190611572565b50805460008255906000526020600020908101906110f99190611649565b5080546115b790611c48565b6000825580601f106115c7575050565b601f0160209004906000526020600020908101906110f99190611649565b6040518061014001604052806000815260200160008152602001600081526020016000815260200160008152602001600081526020016000815260200160006005811115611635576116356118df565b815260200160608152602001606081525090565b5b80821115611515576000815560010161164a565b6001600160a01b03811681146110f957600080fd5b803561167e8161165e565b919050565b6000806040838503121561169657600080fd5b82356116a18161165e565b946020939093013593505050565b634e487b7160e01b600052604160045260246000fd5b604051601f8201601f1916810167ffffffffffffffff811182821017156116ee576116ee6116af565b604052919050565b600082601f83011261170757600080fd5b813567ffffffffffffffff811115611721576117216116af565b611734601f8201601f19166020016116c5565b81815284602083860101111561174957600080fd5b816020850160208301376000918101602001919091529392505050565b600080600080600080600060e0888a03121561178157600080fd5b87356006811061179057600080fd5b9650602088810135965060408901359550606089013567ffffffffffffffff808211156117bc57600080fd5b818b0191508b601f8301126117d057600080fd5b8135818111156117e2576117e26116af565b8060051b6117f18582016116c5565b918252838101850191858101908f84111561180b57600080fd5b948601945b8386101561183557853592506118258361165e565b8282529486019490860190611810565b995050505060808b013592508083111561184e57600080fd5b505061185c8a828b016116f6565b93505060a0880135915060c0880135905092959891949750929550565b60006020828403121561188b57600080fd5b5035919050565b6000602082840312156118a457600080fd5b81356112568161165e565b600080604083850312156118c257600080fd5b8235915060208301356118d48161165e565b809150509250929050565b634e487b7160e01b600052602160045260246000fd5b6006811061191357634e487b7160e01b600052602160045260246000fd5b9052565b600081518084526020808501945080840160005b838110156119505781516001600160a01b03168752958201959082019060010161192b565b509495945050505050565b60005b8381101561197657818101518382015260200161195e565b838111156109105750506000910152565b6000815180845261199f81602086016020860161195b565b601f01601f19169290920160200192915050565b60006020808301818452808551808352604092508286019150828160051b87010184880160005b83811015611a8d57888303603f1901855281518051845287810151888501528681015187850152606080820151908501526080808201519085015260a0808201519085015260c0808201519085015260e0808201516101409190611a40828801826118f5565b5050610100808301518282880152611a5a83880182611917565b925050506101208083015192508582038187015250611a798183611987565b9689019694505050908601906001016119da565b509098975050505050505050565b60008060008060008060006101c080898b031215611ab857600080fd5b883597506020890135965060408901359550606089013567ffffffffffffffff811115611ae457600080fd5b611af08b828c016116f6565b9550506080890135935060a0890135925089818a011115611b1057600080fd5b5060c08801905092959891949750929550565b600080600080600080600080610100898b031215611b4057600080fd5b611b4989611673565b9750602089013567ffffffffffffffff80821115611b6657600080fd5b611b728c838d016116f6565b985060408b0135915080821115611b8857600080fd5b611b948c838d016116f6565b9750611ba260608c01611673565b965060808b01359550611bb760a08c01611673565b9450611bc560c08c01611673565b935060e08b0135915080821115611bdb57600080fd5b50611be88b828c016116f6565b9150509295985092959890939650565b600060208284031215611c0a57600080fd5b8151801515811461125657600080fd5b634e487b7160e01b600052601160045260246000fd5b60008219821115611c4357611c43611c1a565b500190565b600181811c90821680611c5c57607f821691505b60208210811415610c2c57634e487b7160e01b600052602260045260246000fd5b600082821015611c8f57611c8f611c1a565b500390565b634e487b7160e01b600052603260045260246000fd5b634e487b7160e01b600052603160045260246000fd5b6000600019821415611cd457611cd4611c1a565b5060010190565b60006101a0820190508782528660208301528560408301528460608301528360808301526101008360a084013760008152979650505050505050565b6001600160a01b038616815260c060208201819052600090611d3b90830187611987565b60408381019690965282810360608401526002815261119560f21b602082015260808301949094525060a001520192915050565b6000816000190483118215151615611d8957611d89611c1a565b500290565b600082611dab57634e487b7160e01b600052601260045260246000fd5b500690565b60008251611dc281846020870161195b565b9190910192915050565b6001600160a01b038516815260ff84166020820152608060408201819052600090611df990830185611987565b8281036060840152611e0b8185611987565b979650505050505050565b60018060a01b0384168152826020820152606060408201526000611e3d6060830184611987565b9594505050505056fea2646970667358221220c8c8977489a5be773aba51ea5661559d5d0a1fd1783c52edb16d65e676b6726464736f6c634300080c0033",
  "linkReferences": {},
  "deployedLinkReferences": {}
}