{
  "_format": "hh-sol-artifact-1",
  "contractName": "MainContract",
  "sourceName": "src/backend/contracts/MainContract.sol",
  "abi": [
    {
      "inputs": [],
      "stateMutability": "nonpayable",
      "type": "constructor"
    },
    {
      "anonymous": false,
      "inputs": [
        {
          "indexed": false,
          "internalType": "address",
          "name": "previousAdmin",
          "type": "address"
        },
        {
          "indexed": false,
          "internalType": "address",
          "name": "newAdmin",
          "type": "address"
        }
      ],
      "name": "AdminChanged",
      "type": "event"
    },
    {
      "anonymous": false,
      "inputs": [
        {
          "indexed": true,
          "internalType": "address",
          "name": "beacon",
          "type": "address"
        }
      ],
      "name": "BeaconUpgraded",
      "type": "event"
    },
    {
      "anonymous": false,
      "inputs": [
        {
          "indexed": false,
          "internalType": "uint8",
          "name": "version",
          "type": "uint8"
        }
      ],
      "name": "Initialized",
      "type": "event"
    },
    {
      "anonymous": false,
      "inputs": [
        {
          "indexed": true,
          "internalType": "address",
          "name": "previousOwner",
          "type": "address"
        },
        {
          "indexed": true,
          "internalType": "address",
          "name": "newOwner",
          "type": "address"
        }
      ],
      "name": "OwnershipTransferred",
      "type": "event"
    },
    {
      "anonymous": false,
      "inputs": [
        {
          "indexed": true,
          "internalType": "address",
          "name": "implementation",
          "type": "address"
        }
      ],
      "name": "Upgraded",
      "type": "event"
    },
    {
      "inputs": [
        {
          "internalType": "enum MainContract.CommunityCategory",
          "name": "",
          "type": "uint8"
        },
        {
          "internalType": "uint256",
          "name": "",
          "type": "uint256"
        }
      ],
      "name": "communityCategory",
      "outputs": [
        {
          "internalType": "uint256",
          "name": "",
          "type": "uint256"
        }
      ],
      "stateMutability": "view",
      "type": "function"
    },
    {
      "inputs": [],
      "name": "communityCount",
      "outputs": [
        {
          "internalType": "uint256",
          "name": "",
          "type": "uint256"
        }
      ],
      "stateMutability": "view",
      "type": "function"
    },
    {
      "inputs": [
        {
          "internalType": "address",
          "name": "",
          "type": "address"
        },
        {
          "internalType": "uint256",
          "name": "",
          "type": "uint256"
        }
      ],
      "name": "communityList",
      "outputs": [
        {
          "internalType": "uint256",
          "name": "id",
          "type": "uint256"
        },
        {
          "internalType": "enum MainContract.CommunityCategory",
          "name": "category",
          "type": "uint8"
        },
        {
          "internalType": "enum MainContract.CommunityPrivacy",
          "name": "privacy",
          "type": "uint8"
        },
        {
          "internalType": "string",
          "name": "name",
          "type": "string"
        },
        {
          "internalType": "string",
          "name": "description",
          "type": "string"
        },
        {
          "internalType": "string",
          "name": "logo",
          "type": "string"
        },
        {
          "internalType": "address",
          "name": "owner",
          "type": "address"
        },
        {
          "internalType": "address",
          "name": "nftContract",
          "type": "address"
        },
        {
          "internalType": "address",
          "name": "ftContract",
          "type": "address"
        }
      ],
      "stateMutability": "view",
      "type": "function"
    },
    {
      "inputs": [
        {
          "internalType": "string",
          "name": "_name",
          "type": "string"
        },
        {
          "internalType": "enum MainContract.CommunityCategory",
          "name": "_category",
          "type": "uint8"
        },
        {
          "internalType": "enum MainContract.CommunityPrivacy",
          "name": "_privacy",
          "type": "uint8"
        },
        {
          "internalType": "string",
          "name": "_description",
          "type": "string"
        },
        {
          "internalType": "string",
          "name": "_logo",
          "type": "string"
        }
      ],
      "name": "createCommunity",
      "outputs": [],
      "stateMutability": "nonpayable",
      "type": "function"
    },
    {
      "inputs": [
        {
          "internalType": "address",
          "name": "_owner",
          "type": "address"
        },
        {
          "internalType": "uint256",
          "name": "_id",
          "type": "uint256"
        }
      ],
      "name": "getCommunityDetailsById",
      "outputs": [
        {
          "internalType": "uint256",
          "name": "",
          "type": "uint256"
        },
        {
          "internalType": "address",
          "name": "",
          "type": "address"
        },
        {
          "internalType": "address",
          "name": "",
          "type": "address"
        }
      ],
      "stateMutability": "view",
      "type": "function"
    },
    {
      "inputs": [
        {
          "internalType": "address",
          "name": "_owner",
          "type": "address"
        }
      ],
      "name": "getUserCommunities",
      "outputs": [
        {
          "components": [
            {
              "internalType": "uint256",
              "name": "id",
              "type": "uint256"
            },
            {
              "internalType": "enum MainContract.CommunityCategory",
              "name": "category",
              "type": "uint8"
            },
            {
              "internalType": "enum MainContract.CommunityPrivacy",
              "name": "privacy",
              "type": "uint8"
            },
            {
              "internalType": "string",
              "name": "name",
              "type": "string"
            },
            {
              "internalType": "string",
              "name": "description",
              "type": "string"
            },
            {
              "internalType": "string",
              "name": "logo",
              "type": "string"
            },
            {
              "internalType": "address",
              "name": "owner",
              "type": "address"
            },
            {
              "internalType": "address",
              "name": "nftContract",
              "type": "address"
            },
            {
              "internalType": "address",
              "name": "ftContract",
              "type": "address"
            }
          ],
          "internalType": "struct MainContract.Community[]",
          "name": "",
          "type": "tuple[]"
        }
      ],
      "stateMutability": "view",
      "type": "function"
    },
    {
      "inputs": [],
      "name": "initialize",
      "outputs": [],
      "stateMutability": "nonpayable",
      "type": "function"
    },
    {
      "inputs": [],
      "name": "owner",
      "outputs": [
        {
          "internalType": "address",
          "name": "",
          "type": "address"
        }
      ],
      "stateMutability": "view",
      "type": "function"
    },
    {
      "inputs": [],
      "name": "proxiableUUID",
      "outputs": [
        {
          "internalType": "bytes32",
          "name": "",
          "type": "bytes32"
        }
      ],
      "stateMutability": "view",
      "type": "function"
    },
    {
      "inputs": [],
      "name": "renounceOwnership",
      "outputs": [],
      "stateMutability": "nonpayable",
      "type": "function"
    },
    {
      "inputs": [
        {
          "internalType": "address",
          "name": "newOwner",
          "type": "address"
        }
      ],
      "name": "transferOwnership",
      "outputs": [],
      "stateMutability": "nonpayable",
      "type": "function"
    },
    {
      "inputs": [
        {
          "internalType": "uint256",
          "name": "_id",
          "type": "uint256"
        },
        {
          "internalType": "string",
          "name": "_name",
          "type": "string"
        },
        {
          "internalType": "enum MainContract.CommunityCategory",
          "name": "_category",
          "type": "uint8"
        },
        {
          "internalType": "enum MainContract.CommunityPrivacy",
          "name": "_privacy",
          "type": "uint8"
        },
        {
          "internalType": "string",
          "name": "_description",
          "type": "string"
        },
        {
          "internalType": "string",
          "name": "_logo",
          "type": "string"
        }
      ],
      "name": "updateCommunity",
      "outputs": [],
      "stateMutability": "nonpayable",
      "type": "function"
    },
    {
      "inputs": [
        {
          "internalType": "address",
          "name": "_owner",
          "type": "address"
        },
        {
          "internalType": "uint256",
          "name": "_index",
          "type": "uint256"
        },
        {
          "internalType": "address",
          "name": "_ftContract",
          "type": "address"
        }
      ],
      "name": "updateCommunityFT",
      "outputs": [],
      "stateMutability": "nonpayable",
      "type": "function"
    },
    {
      "inputs": [
        {
          "internalType": "address",
          "name": "_owner",
          "type": "address"
        },
        {
          "internalType": "uint256",
          "name": "_index",
          "type": "uint256"
        },
        {
          "internalType": "address",
          "name": "_nftContract",
          "type": "address"
        }
      ],
      "name": "updateCommunityNFT",
      "outputs": [],
      "stateMutability": "nonpayable",
      "type": "function"
    },
    {
      "inputs": [
        {
          "internalType": "address",
          "name": "_factoryContractAddress",
          "type": "address"
        }
      ],
      "name": "updateFactoryContractAddress",
      "outputs": [],
      "stateMutability": "nonpayable",
      "type": "function"
    },
    {
      "inputs": [
        {
          "internalType": "address",
          "name": "newImplementation",
          "type": "address"
        }
      ],
      "name": "upgradeTo",
      "outputs": [],
      "stateMutability": "nonpayable",
      "type": "function"
    },
    {
      "inputs": [
        {
          "internalType": "address",
          "name": "newImplementation",
          "type": "address"
        },
        {
          "internalType": "bytes",
          "name": "data",
          "type": "bytes"
        }
      ],
      "name": "upgradeToAndCall",
      "outputs": [],
      "stateMutability": "payable",
      "type": "function"
    }
  ],
  "bytecode": "0x60a06040523060805234801561001457600080fd5b5061001d610022565b6100e2565b600054610100900460ff161561008e5760405162461bcd60e51b815260206004820152602760248201527f496e697469616c697a61626c653a20636f6e747261637420697320696e697469604482015266616c697a696e6760c81b606482015260840160405180910390fd5b60005460ff90811610156100e0576000805460ff191660ff9081179091556040519081527f7f26b83ff96e1f2b6a682f133852f6798a09c465da95921460cefb38474024989060200160405180910390a15b565b6080516122b66200011a6000396000818161072e0152818161076e0152818161080e0152818161084e01526108e101526122b66000f3fe6080604052600436106100fe5760003560e01c806372ffa2ae11610095578063aee8461311610064578063aee84613146102b9578063b1c80f7f146102cf578063d73849aa146102ef578063e907331d1461030f578063f2fde38b1461032f57600080fd5b806372ffa2ae1461021757806380deed071461025c5780638129fc1c1461027c5780638da5cb5b1461029157600080fd5b80634f1ef286116100d15780634f1ef286146101ad57806352d1902d146101c05780636543286f146101d5578063715018a61461020257600080fd5b806310a9ec96146101035780632152a01d1461013657806331738c11146101585780633659cfe61461018d575b600080fd5b34801561010f57600080fd5b5061012361011e366004611b16565b61034f565b6040519081526020015b60405180910390f35b34801561014257600080fd5b50610156610151366004611bfb565b610380565b005b34801561016457600080fd5b50610178610173366004611cc4565b61050c565b60405161012d99989796959493929190611d72565b34801561019957600080fd5b506101566101a8366004611dfe565b610723565b6101566101bb366004611e19565b610803565b3480156101cc57600080fd5b506101236108d4565b3480156101e157600080fd5b506101f56101f0366004611dfe565b610987565b60405161012d9190611e7b565b34801561020e57600080fd5b50610156610c61565b34801561022357600080fd5b50610237610232366004611cc4565b610c75565b604080519384526001600160a01b03928316602085015291169082015260600161012d565b34801561026857600080fd5b50610156610277366004611f8e565b61104d565b34801561028857600080fd5b5061015661110a565b34801561029d57600080fd5b506033546040516001600160a01b03909116815260200161012d565b3480156102c557600080fd5b5061012360ca5481565b3480156102db57600080fd5b506101566102ea366004611f8e565b611222565b3480156102fb57600080fd5b5061015661030a366004611fca565b6112df565b34801561031b57600080fd5b5061015661032a366004611dfe565b6114e4565b34801561033b57600080fd5b5061015661034a366004611dfe565b61150e565b60cc602052816000526040600020818154811061036b57600080fd5b90600052602060002001600091509150505481565b60038551116103d15760405162461bcd60e51b815260206004820152601860248201527710dbdb5b5d5b9a5d1e481b985b59481d1bdbc81cda1bdc9d60421b60448201526064015b60405180910390fd5b60006103dd3388610c75565b505033600090815260cb60205260408120805492935090918390811061040557610405612074565b600091825260209091206005600890920201908101549091506001600160a01b0316331461046e5760405162461bcd60e51b81526020600482015260166024820152754e6f2061636365737320746f20636f6d6d756e69747960501b60448201526064016103c8565b865161048390600283019060208a0190611a69565b5060018082018054889260ff19909116908360148111156104a6576104a6611ce0565b0217905550848160010160016101000a81548160ff021916908360018111156104d1576104d1611ce0565b021790555083516104eb9060038301906020870190611a69565b5082516105019060048301906020860190611a69565b505050505050505050565b60cb602052816000526040600020818154811061052857600080fd5b600091825260209091206008909102018054600182015460028301805492955060ff808316955061010090920490911692916105639061208a565b80601f016020809104026020016040519081016040528092919081815260200182805461058f9061208a565b80156105dc5780601f106105b1576101008083540402835291602001916105dc565b820191906000526020600020905b8154815290600101906020018083116105bf57829003601f168201915b5050505050908060030180546105f19061208a565b80601f016020809104026020016040519081016040528092919081815260200182805461061d9061208a565b801561066a5780601f1061063f5761010080835404028352916020019161066a565b820191906000526020600020905b81548152906001019060200180831161064d57829003601f168201915b50505050509080600401805461067f9061208a565b80601f01602080910402602001604051908101604052809291908181526020018280546106ab9061208a565b80156106f85780601f106106cd576101008083540402835291602001916106f8565b820191906000526020600020905b8154815290600101906020018083116106db57829003601f168201915b505050506005830154600684015460079094015492936001600160a01b039182169390821692501689565b306001600160a01b037f000000000000000000000000000000000000000000000000000000000000000016141561076c5760405162461bcd60e51b81526004016103c8906120c5565b7f00000000000000000000000000000000000000000000000000000000000000006001600160a01b03166107b560008051602061223a833981519152546001600160a01b031690565b6001600160a01b0316146107db5760405162461bcd60e51b81526004016103c890612111565b6107e481611584565b604080516000808252602082019092526108009183919061158c565b50565b306001600160a01b037f000000000000000000000000000000000000000000000000000000000000000016141561084c5760405162461bcd60e51b81526004016103c8906120c5565b7f00000000000000000000000000000000000000000000000000000000000000006001600160a01b031661089560008051602061223a833981519152546001600160a01b031690565b6001600160a01b0316146108bb5760405162461bcd60e51b81526004016103c890612111565b6108c482611584565b6108d08282600161158c565b5050565b6000306001600160a01b037f000000000000000000000000000000000000000000000000000000000000000016146109745760405162461bcd60e51b815260206004820152603860248201527f555550535570677261646561626c653a206d757374206e6f742062652063616c60448201527f6c6564207468726f7567682064656c656761746563616c6c000000000000000060648201526084016103c8565b5060008051602061223a83398151915290565b6001600160a01b038116600090815260cb60209081526040808320805482518185028101850190935280835260609492939192909184015b82821015610c56578382906000526020600020906008020160405180610120016040529081600082015481526020016001820160009054906101000a900460ff166014811115610a1157610a11611ce0565b6014811115610a2257610a22611ce0565b81526020016001820160019054906101000a900460ff166001811115610a4a57610a4a611ce0565b6001811115610a5b57610a5b611ce0565b8152602001600282018054610a6f9061208a565b80601f0160208091040260200160405190810160405280929190818152602001828054610a9b9061208a565b8015610ae85780601f10610abd57610100808354040283529160200191610ae8565b820191906000526020600020905b815481529060010190602001808311610acb57829003601f168201915b50505050508152602001600382018054610b019061208a565b80601f0160208091040260200160405190810160405280929190818152602001828054610b2d9061208a565b8015610b7a5780601f10610b4f57610100808354040283529160200191610b7a565b820191906000526020600020905b815481529060010190602001808311610b5d57829003601f168201915b50505050508152602001600482018054610b939061208a565b80601f0160208091040260200160405190810160405280929190818152602001828054610bbf9061208a565b8015610c0c5780601f10610be157610100808354040283529160200191610c0c565b820191906000526020600020905b815481529060010190602001808311610bef57829003601f168201915b505050918352505060058201546001600160a01b039081166020808401919091526006840154821660408401526007909301541660609091015290825260019290920191016109bf565b505050509050919050565b610c696116fc565b610c736000611756565b565b600080600080610cca60408051610120810190915260008082526020820190815260200160008152606060208201819052604082018190528082015260006080820181905260a0820181905260c09091015290565b60005b6001600160a01b038816600090815260cb6020526040902054811015610fee576001600160a01b038816600090815260cb60205260409020805488919083908110610d1a57610d1a612074565b9060005260206000209060080201600001541415610fde576001600160a01b038816600090815260cb60205260409020805482908110610d5c57610d5c612074565b906000526020600020906008020160405180610120016040529081600082015481526020016001820160009054906101000a900460ff166014811115610da457610da4611ce0565b6014811115610db557610db5611ce0565b81526020016001820160019054906101000a900460ff166001811115610ddd57610ddd611ce0565b6001811115610dee57610dee611ce0565b8152602001600282018054610e029061208a565b80601f0160208091040260200160405190810160405280929190818152602001828054610e2e9061208a565b8015610e7b5780601f10610e5057610100808354040283529160200191610e7b565b820191906000526020600020905b815481529060010190602001808311610e5e57829003601f168201915b50505050508152602001600382018054610e949061208a565b80601f0160208091040260200160405190810160405280929190818152602001828054610ec09061208a565b8015610f0d5780601f10610ee257610100808354040283529160200191610f0d565b820191906000526020600020905b815481529060010190602001808311610ef057829003601f168201915b50505050508152602001600482018054610f269061208a565b80601f0160208091040260200160405190810160405280929190818152602001828054610f529061208a565b8015610f9f5780601f10610f7457610100808354040283529160200191610f9f565b820191906000526020600020905b815481529060010190602001808311610f8257829003601f168201915b505050918352505060058201546001600160a01b0390811660208301526006830154811660408301526007909201549091166060909101529092509050815b610fe781612173565b9050610ccd565b5080516110335760405162461bcd60e51b815260206004820152601360248201527210dbdb5b5d5b9a5d1e481b9bdd08199bdd5b99606a1b60448201526064016103c8565b60e081015161010090910151919450925090509250925092565b60c9546001600160a01b031633146110a35760405162461bcd60e51b815260206004820152601960248201527827379020b1b1b2b9b9903337b9103a3434b99030b1ba34b7b760391b60448201526064016103c8565b6001600160a01b038316600090815260cb602052604090208054829190849081106110d0576110d0612074565b906000526020600020906008020160070160006101000a8154816001600160a01b0302191690836001600160a01b03160217905550505050565b600054610100900460ff161580801561112a5750600054600160ff909116105b806111445750303b158015611144575060005460ff166001145b6111a75760405162461bcd60e51b815260206004820152602e60248201527f496e697469616c697a61626c653a20636f6e747261637420697320616c72656160448201526d191e481a5b9a5d1a585b1a5e995960921b60648201526084016103c8565b6000805460ff1916600117905580156111ca576000805461ff0019166101001790555b6111d26117a8565b6111da6117d7565b8015610800576000805461ff0019169055604051600181527f7f26b83ff96e1f2b6a682f133852f6798a09c465da95921460cefb38474024989060200160405180910390a150565b60c9546001600160a01b031633146112785760405162461bcd60e51b815260206004820152601960248201527827379020b1b1b2b9b9903337b9103a3434b99030b1ba34b7b760391b60448201526064016103c8565b6001600160a01b038316600090815260cb602052604090208054829190849081106112a5576112a5612074565b906000526020600020906008020160060160006101000a8154816001600160a01b0302191690836001600160a01b03160217905550505050565b600385511161132b5760405162461bcd60e51b815260206004820152601860248201527710dbdb5b5d5b9a5d1e481b985b59481d1bdbc81cda1bdc9d60421b60448201526064016103c8565b600160ca600082825461133e919061218e565b909155505033600090815260cb60209081526040918290208251610120810190935260ca5483529190810186601481111561137b5761137b611ce0565b815260200185600181111561139257611392611ce0565b815260208082018990526040820186905260608201859052336080830152600060a0830181905260c09092018290528354600181810186559483529181902083516008909302019182558201518184018054939492939192909160ff19169083601481111561140357611403611ce0565b021790555060408201518160010160016101000a81548160ff0219169083600181111561143257611432611ce0565b021790555060608201518051611452916002840191602090910190611a69565b506080820151805161146e916003840191602090910190611a69565b5060a0820151805161148a916004840191602090910190611a69565b5060c08201516005820180546001600160a01b03199081166001600160a01b039384161790915560e08401516006840180548316918416919091179055610100909301516007909201805490931691161790555050505050565b6114ec6116fc565b60c980546001600160a01b0319166001600160a01b0392909216919091179055565b6115166116fc565b6001600160a01b03811661157b5760405162461bcd60e51b815260206004820152602660248201527f4f776e61626c653a206e6577206f776e657220697320746865207a65726f206160448201526564647265737360d01b60648201526084016103c8565b61080081611756565b6108006116fc565b7f4910fdfa16fed3260ed0e7147f7cc6da11a60208b5b9406d12a635614ffd91435460ff16156115c4576115bf836117fe565b505050565b826001600160a01b03166352d1902d6040518163ffffffff1660e01b8152600401602060405180830381865afa92505050801561161e575060408051601f3d908101601f1916820190925261161b918101906121a6565b60015b6116815760405162461bcd60e51b815260206004820152602e60248201527f45524331393637557067726164653a206e657720696d706c656d656e7461746960448201526d6f6e206973206e6f74205555505360901b60648201526084016103c8565b60008051602061223a83398151915281146116f05760405162461bcd60e51b815260206004820152602960248201527f45524331393637557067726164653a20756e737570706f727465642070726f786044820152681a58589b195555525160ba1b60648201526084016103c8565b506115bf83838361189a565b6033546001600160a01b03163314610c735760405162461bcd60e51b815260206004820181905260248201527f4f776e61626c653a2063616c6c6572206973206e6f7420746865206f776e657260448201526064016103c8565b603380546001600160a01b038381166001600160a01b0319831681179093556040519116919082907f8be0079c531659141344cd1fd0a4f28419497f9722a3daafe3b4186f6b6457e090600090a35050565b600054610100900460ff166117cf5760405162461bcd60e51b81526004016103c8906121bf565b610c736118c5565b600054610100900460ff16610c735760405162461bcd60e51b81526004016103c8906121bf565b6001600160a01b0381163b61186b5760405162461bcd60e51b815260206004820152602d60248201527f455243313936373a206e657720696d706c656d656e746174696f6e206973206e60448201526c1bdd08184818dbdb9d1c9858dd609a1b60648201526084016103c8565b60008051602061223a83398151915280546001600160a01b0319166001600160a01b0392909216919091179055565b6118a3836118f5565b6000825111806118b05750805b156115bf576118bf8383611935565b50505050565b600054610100900460ff166118ec5760405162461bcd60e51b81526004016103c8906121bf565b610c7333611756565b6118fe816117fe565b6040516001600160a01b038216907fbc7cd75a20ee27fd9adebab32041f755214dbc6bffa90cc0225b39da2e5c2d3b90600090a250565b60606001600160a01b0383163b61199d5760405162461bcd60e51b815260206004820152602660248201527f416464726573733a2064656c65676174652063616c6c20746f206e6f6e2d636f6044820152651b9d1c9858dd60d21b60648201526084016103c8565b600080846001600160a01b0316846040516119b8919061220a565b600060405180830381855af49150503d80600081146119f3576040519150601f19603f3d011682016040523d82523d6000602084013e6119f8565b606091505b5091509150611a20828260405180606001604052806027815260200161225a60279139611a29565b95945050505050565b60608315611a38575081611a62565b825115611a485782518084602001fd5b8160405162461bcd60e51b81526004016103c89190612226565b9392505050565b828054611a759061208a565b90600052602060002090601f016020900481019282611a975760008555611add565b82601f10611ab057805160ff1916838001178555611add565b82800160010185558215611add579182015b82811115611add578251825591602001919060010190611ac2565b50611ae9929150611aed565b5090565b5b80821115611ae95760008155600101611aee565b803560158110611b1157600080fd5b919050565b60008060408385031215611b2957600080fd5b611b3283611b02565b946020939093013593505050565b634e487b7160e01b600052604160045260246000fd5b600067ffffffffffffffff80841115611b7157611b71611b40565b604051601f8501601f19908116603f01168101908282118183101715611b9957611b99611b40565b81604052809350858152868686011115611bb257600080fd5b858560208301376000602087830101525050509392505050565b600082601f830112611bdd57600080fd5b611a6283833560208501611b56565b803560028110611b1157600080fd5b60008060008060008060c08789031215611c1457600080fd5b86359550602087013567ffffffffffffffff80821115611c3357600080fd5b611c3f8a838b01611bcc565b9650611c4d60408a01611b02565b9550611c5b60608a01611bec565b94506080890135915080821115611c7157600080fd5b611c7d8a838b01611bcc565b935060a0890135915080821115611c9357600080fd5b50611ca089828a01611bcc565b9150509295509295509295565b80356001600160a01b0381168114611b1157600080fd5b60008060408385031215611cd757600080fd5b611b3283611cad565b634e487b7160e01b600052602160045260246000fd5b60158110611d0657611d06611ce0565b9052565b60028110611d0657611d06611ce0565b60005b83811015611d35578181015183820152602001611d1d565b838111156118bf5750506000910152565b60008151808452611d5e816020860160208601611d1a565b601f01601f19169290920160200192915050565b60006101208b8352611d87602084018c611cf6565b611d94604084018b611d0a565b806060840152611da68184018a611d46565b90508281036080840152611dba8189611d46565b905082810360a0840152611dce8188611d46565b6001600160a01b0396871660c085015294861660e084015250509216610100909201919091529695505050505050565b600060208284031215611e1057600080fd5b611a6282611cad565b60008060408385031215611e2c57600080fd5b611e3583611cad565b9150602083013567ffffffffffffffff811115611e5157600080fd5b8301601f81018513611e6257600080fd5b611e7185823560208401611b56565b9150509250929050565b60006020808301818452808551808352604092508286019150828160051b87010184880160005b83811015611f8057603f1989840301855281516101208151855288820151611ecc8a870182611cf6565b5087820151611edd89870182611d0a565b506060808301518282880152611ef583880182611d46565b9250505060808083015186830382880152611f108382611d46565b9250505060a08083015186830382880152611f2b8382611d46565b9250505060c080830151611f49828801826001600160a01b03169052565b505060e0828101516001600160a01b0390811691870191909152610100928301511691909401529386019390860190600101611ea2565b509098975050505050505050565b600080600060608486031215611fa357600080fd5b611fac84611cad565b925060208401359150611fc160408501611cad565b90509250925092565b600080600080600060a08688031215611fe257600080fd5b853567ffffffffffffffff80821115611ffa57600080fd5b61200689838a01611bcc565b965061201460208901611b02565b955061202260408901611bec565b9450606088013591508082111561203857600080fd5b61204489838a01611bcc565b9350608088013591508082111561205a57600080fd5b5061206788828901611bcc565b9150509295509295909350565b634e487b7160e01b600052603260045260246000fd5b600181811c9082168061209e57607f821691505b602082108114156120bf57634e487b7160e01b600052602260045260246000fd5b50919050565b6020808252602c908201527f46756e6374696f6e206d7573742062652063616c6c6564207468726f7567682060408201526b19195b1959d85d1958d85b1b60a21b606082015260800190565b6020808252602c908201527f46756e6374696f6e206d7573742062652063616c6c6564207468726f7567682060408201526b6163746976652070726f787960a01b606082015260800190565b634e487b7160e01b600052601160045260246000fd5b60006000198214156121875761218761215d565b5060010190565b600082198211156121a1576121a161215d565b500190565b6000602082840312156121b857600080fd5b5051919050565b6020808252602b908201527f496e697469616c697a61626c653a20636f6e7472616374206973206e6f74206960408201526a6e697469616c697a696e6760a81b606082015260800190565b6000825161221c818460208701611d1a565b9190910192915050565b602081526000611a626020830184611d4656fe360894a13ba1a3210667c828492db98dca3e2076cc3735a920a3ca505d382bbc416464726573733a206c6f772d6c6576656c2064656c65676174652063616c6c206661696c6564a2646970667358221220bac24dec97a131e21c7470337c0db3bf8ce9d5f150cd3671a04f02ed6d1610de64736f6c634300080c0033",
  "linkReferences": {},
  "deployedLinkReferences": {}
}