{
  "_format": "hh-sol-artifact-1",
  "contractName": "MainContract",
  "sourceName": "src/backend/contracts/MainContract.sol",
  "abi": [
    {
      "inputs": [],
      "stateMutability": "nonpayable",
      "type": "constructor"
    },
    {
      "anonymous": false,
      "inputs": [
        {
          "indexed": false,
          "internalType": "address",
          "name": "previousAdmin",
          "type": "address"
        },
        {
          "indexed": false,
          "internalType": "address",
          "name": "newAdmin",
          "type": "address"
        }
      ],
      "name": "AdminChanged",
      "type": "event"
    },
    {
      "anonymous": false,
      "inputs": [
        {
          "indexed": true,
          "internalType": "address",
          "name": "beacon",
          "type": "address"
        }
      ],
      "name": "BeaconUpgraded",
      "type": "event"
    },
    {
      "anonymous": false,
      "inputs": [
        {
          "indexed": false,
          "internalType": "uint8",
          "name": "version",
          "type": "uint8"
        }
      ],
      "name": "Initialized",
      "type": "event"
    },
    {
      "anonymous": false,
      "inputs": [
        {
          "indexed": true,
          "internalType": "address",
          "name": "previousOwner",
          "type": "address"
        },
        {
          "indexed": true,
          "internalType": "address",
          "name": "newOwner",
          "type": "address"
        }
      ],
      "name": "OwnershipTransferred",
      "type": "event"
    },
    {
      "anonymous": false,
      "inputs": [
        {
          "indexed": true,
          "internalType": "address",
          "name": "implementation",
          "type": "address"
        }
      ],
      "name": "Upgraded",
      "type": "event"
    },
    {
      "inputs": [
        {
          "internalType": "enum MainContract.CommunityCategory",
          "name": "",
          "type": "uint8"
        },
        {
          "internalType": "uint256",
          "name": "",
          "type": "uint256"
        }
      ],
      "name": "communityCategory",
      "outputs": [
        {
          "internalType": "uint256",
          "name": "",
          "type": "uint256"
        }
      ],
      "stateMutability": "view",
      "type": "function"
    },
    {
      "inputs": [],
      "name": "communityCount",
      "outputs": [
        {
          "internalType": "uint256",
          "name": "",
          "type": "uint256"
        }
      ],
      "stateMutability": "view",
      "type": "function"
    },
    {
      "inputs": [
        {
          "internalType": "address",
          "name": "",
          "type": "address"
        },
        {
          "internalType": "uint256",
          "name": "",
          "type": "uint256"
        }
      ],
      "name": "communityList",
      "outputs": [
        {
          "internalType": "uint256",
          "name": "id",
          "type": "uint256"
        },
        {
          "internalType": "enum MainContract.CommunityCategory",
          "name": "category",
          "type": "uint8"
        },
        {
          "internalType": "enum MainContract.CommunityPrivacy",
          "name": "privacy",
          "type": "uint8"
        },
        {
          "internalType": "string",
          "name": "name",
          "type": "string"
        },
        {
          "internalType": "string",
          "name": "description",
          "type": "string"
        },
        {
          "internalType": "string",
          "name": "logo",
          "type": "string"
        },
        {
          "internalType": "address",
          "name": "owner",
          "type": "address"
        },
        {
          "internalType": "address",
          "name": "nftContract",
          "type": "address"
        },
        {
          "internalType": "address",
          "name": "ftContract",
          "type": "address"
        }
      ],
      "stateMutability": "view",
      "type": "function"
    },
    {
      "inputs": [
        {
          "internalType": "string",
          "name": "_name",
          "type": "string"
        },
        {
          "internalType": "enum MainContract.CommunityCategory",
          "name": "_category",
          "type": "uint8"
        },
        {
          "internalType": "enum MainContract.CommunityPrivacy",
          "name": "_privacy",
          "type": "uint8"
        },
        {
          "internalType": "string",
          "name": "_description",
          "type": "string"
        }
      ],
      "name": "createCommunity",
      "outputs": [],
      "stateMutability": "nonpayable",
      "type": "function"
    },
    {
      "inputs": [
        {
          "internalType": "address",
          "name": "_owner",
          "type": "address"
        },
        {
          "internalType": "uint256",
          "name": "_id",
          "type": "uint256"
        }
      ],
      "name": "getCommunityDetailsById",
      "outputs": [
        {
          "internalType": "uint256",
          "name": "",
          "type": "uint256"
        },
        {
          "internalType": "address",
          "name": "",
          "type": "address"
        },
        {
          "internalType": "address",
          "name": "",
          "type": "address"
        }
      ],
      "stateMutability": "view",
      "type": "function"
    },
    {
      "inputs": [
        {
          "internalType": "address",
          "name": "_owner",
          "type": "address"
        }
      ],
      "name": "getUserCommunities",
      "outputs": [
        {
          "components": [
            {
              "internalType": "uint256",
              "name": "id",
              "type": "uint256"
            },
            {
              "internalType": "enum MainContract.CommunityCategory",
              "name": "category",
              "type": "uint8"
            },
            {
              "internalType": "enum MainContract.CommunityPrivacy",
              "name": "privacy",
              "type": "uint8"
            },
            {
              "internalType": "string",
              "name": "name",
              "type": "string"
            },
            {
              "internalType": "string",
              "name": "description",
              "type": "string"
            },
            {
              "internalType": "string",
              "name": "logo",
              "type": "string"
            },
            {
              "internalType": "address",
              "name": "owner",
              "type": "address"
            },
            {
              "internalType": "address",
              "name": "nftContract",
              "type": "address"
            },
            {
              "internalType": "address",
              "name": "ftContract",
              "type": "address"
            }
          ],
          "internalType": "struct MainContract.Community[]",
          "name": "",
          "type": "tuple[]"
        }
      ],
      "stateMutability": "view",
      "type": "function"
    },
    {
      "inputs": [],
      "name": "initialize",
      "outputs": [],
      "stateMutability": "nonpayable",
      "type": "function"
    },
    {
      "inputs": [],
      "name": "owner",
      "outputs": [
        {
          "internalType": "address",
          "name": "",
          "type": "address"
        }
      ],
      "stateMutability": "view",
      "type": "function"
    },
    {
      "inputs": [],
      "name": "proxiableUUID",
      "outputs": [
        {
          "internalType": "bytes32",
          "name": "",
          "type": "bytes32"
        }
      ],
      "stateMutability": "view",
      "type": "function"
    },
    {
      "inputs": [],
      "name": "renounceOwnership",
      "outputs": [],
      "stateMutability": "nonpayable",
      "type": "function"
    },
    {
      "inputs": [
        {
          "internalType": "address",
          "name": "newOwner",
          "type": "address"
        }
      ],
      "name": "transferOwnership",
      "outputs": [],
      "stateMutability": "nonpayable",
      "type": "function"
    },
    {
      "inputs": [
        {
          "internalType": "uint256",
          "name": "_id",
          "type": "uint256"
        },
        {
          "internalType": "string",
          "name": "_name",
          "type": "string"
        },
        {
          "internalType": "enum MainContract.CommunityCategory",
          "name": "_category",
          "type": "uint8"
        },
        {
          "internalType": "enum MainContract.CommunityPrivacy",
          "name": "_privacy",
          "type": "uint8"
        },
        {
          "internalType": "string",
          "name": "_description",
          "type": "string"
        }
      ],
      "name": "updateCommunity",
      "outputs": [],
      "stateMutability": "nonpayable",
      "type": "function"
    },
    {
      "inputs": [
        {
          "internalType": "address",
          "name": "_owner",
          "type": "address"
        },
        {
          "internalType": "uint256",
          "name": "_index",
          "type": "uint256"
        },
        {
          "internalType": "address",
          "name": "_ftContract",
          "type": "address"
        }
      ],
      "name": "updateCommunityFT",
      "outputs": [],
      "stateMutability": "nonpayable",
      "type": "function"
    },
    {
      "inputs": [
        {
          "internalType": "address",
          "name": "_owner",
          "type": "address"
        },
        {
          "internalType": "uint256",
          "name": "_index",
          "type": "uint256"
        },
        {
          "internalType": "address",
          "name": "_nftContract",
          "type": "address"
        }
      ],
      "name": "updateCommunityNFT",
      "outputs": [],
      "stateMutability": "nonpayable",
      "type": "function"
    },
    {
      "inputs": [
        {
          "internalType": "address",
          "name": "_factoryContractAddress",
          "type": "address"
        }
      ],
      "name": "updateFactoryContractAddress",
      "outputs": [],
      "stateMutability": "nonpayable",
      "type": "function"
    },
    {
      "inputs": [
        {
          "internalType": "address",
          "name": "newImplementation",
          "type": "address"
        }
      ],
      "name": "upgradeTo",
      "outputs": [],
      "stateMutability": "nonpayable",
      "type": "function"
    },
    {
      "inputs": [
        {
          "internalType": "address",
          "name": "newImplementation",
          "type": "address"
        },
        {
          "internalType": "bytes",
          "name": "data",
          "type": "bytes"
        }
      ],
      "name": "upgradeToAndCall",
      "outputs": [],
      "stateMutability": "payable",
      "type": "function"
    }
  ],
  "bytecode": "0x60a06040523060805234801561001457600080fd5b5061001d610022565b6100e2565b600054610100900460ff161561008e5760405162461bcd60e51b815260206004820152602760248201527f496e697469616c697a61626c653a20636f6e747261637420697320696e697469604482015266616c697a696e6760c81b606482015260840160405180910390fd5b60005460ff90811610156100e0576000805460ff191660ff9081179091556040519081527f7f26b83ff96e1f2b6a682f133852f6798a09c465da95921460cefb38474024989060200160405180910390a15b565b6080516122676200011a600039600081816105a2015281816105eb0152818161068b015281816106cb015261075e01526122676000f3fe6080604052600436106100fe5760003560e01c806372ffa2ae11610095578063aee8461311610064578063aee84613146102b9578063b1c80f7f146102cf578063bb1dce4e146102ef578063e907331d1461030f578063f2fde38b1461032f57600080fd5b806372ffa2ae1461021757806380deed071461025c5780638129fc1c1461027c5780638da5cb5b1461029157600080fd5b806352d1902d116100d157806352d1902d146101a05780636543286f146101b557806369d66d04146101e2578063715018a61461020257600080fd5b806310a9ec961461010357806331738c11146101365780633659cfe61461016b5780634f1ef2861461018d575b600080fd5b34801561010f57600080fd5b5061012361011e366004611b0f565b61034f565b6040519081526020015b60405180910390f35b34801561014257600080fd5b50610156610151366004611b50565b610380565b60405161012d99989796959493929190611bfe565b34801561017757600080fd5b5061018b610186366004611c8a565b610597565b005b61018b61019b366004611d31565b610680565b3480156101ac57600080fd5b50610123610751565b3480156101c157600080fd5b506101d56101d0366004611c8a565b610804565b60405161012d9190611d93565b3480156101ee57600080fd5b5061018b6101fd366004611ed5565b610ade565b34801561020e57600080fd5b5061018b610c4e565b34801561022357600080fd5b50610237610232366004611b50565b610c62565b604080519384526001600160a01b03928316602085015291169082015260600161012d565b34801561026857600080fd5b5061018b610277366004611f64565b61103a565b34801561028857600080fd5b5061018b6110f7565b34801561029d57600080fd5b506033546040516001600160a01b03909116815260200161012d565b3480156102c557600080fd5b5061012360ca5481565b3480156102db57600080fd5b5061018b6102ea366004611f64565b61120f565b3480156102fb57600080fd5b5061018b61030a366004611fa0565b6112cc565b34801561031b57600080fd5b5061018b61032a366004611c8a565b6114dd565b34801561033b57600080fd5b5061018b61034a366004611c8a565b611507565b60cc602052816000526040600020818154811061036b57600080fd5b90600052602060002001600091509150505481565b60cb602052816000526040600020818154811061039c57600080fd5b600091825260209091206008909102018054600182015460028301805492955060ff808316955061010090920490911692916103d790612025565b80601f016020809104026020016040519081016040528092919081815260200182805461040390612025565b80156104505780601f1061042557610100808354040283529160200191610450565b820191906000526020600020905b81548152906001019060200180831161043357829003601f168201915b50505050509080600301805461046590612025565b80601f016020809104026020016040519081016040528092919081815260200182805461049190612025565b80156104de5780601f106104b3576101008083540402835291602001916104de565b820191906000526020600020905b8154815290600101906020018083116104c157829003601f168201915b5050505050908060040180546104f390612025565b80601f016020809104026020016040519081016040528092919081815260200182805461051f90612025565b801561056c5780601f106105415761010080835404028352916020019161056c565b820191906000526020600020905b81548152906001019060200180831161054f57829003601f168201915b505050506005830154600684015460079094015492936001600160a01b039182169390821692501689565b306001600160a01b037f00000000000000000000000000000000000000000000000000000000000000001614156105e95760405162461bcd60e51b81526004016105e090612060565b60405180910390fd5b7f00000000000000000000000000000000000000000000000000000000000000006001600160a01b03166106326000805160206121eb833981519152546001600160a01b031690565b6001600160a01b0316146106585760405162461bcd60e51b81526004016105e0906120ac565b6106618161157d565b6040805160008082526020820190925261067d91839190611585565b50565b306001600160a01b037f00000000000000000000000000000000000000000000000000000000000000001614156106c95760405162461bcd60e51b81526004016105e090612060565b7f00000000000000000000000000000000000000000000000000000000000000006001600160a01b03166107126000805160206121eb833981519152546001600160a01b031690565b6001600160a01b0316146107385760405162461bcd60e51b81526004016105e0906120ac565b6107418261157d565b61074d82826001611585565b5050565b6000306001600160a01b037f000000000000000000000000000000000000000000000000000000000000000016146107f15760405162461bcd60e51b815260206004820152603860248201527f555550535570677261646561626c653a206d757374206e6f742062652063616c60448201527f6c6564207468726f7567682064656c656761746563616c6c000000000000000060648201526084016105e0565b506000805160206121eb83398151915290565b6001600160a01b038116600090815260cb60209081526040808320805482518185028101850190935280835260609492939192909184015b82821015610ad3578382906000526020600020906008020160405180610120016040529081600082015481526020016001820160009054906101000a900460ff16601481111561088e5761088e611b6c565b601481111561089f5761089f611b6c565b81526020016001820160019054906101000a900460ff1660018111156108c7576108c7611b6c565b60018111156108d8576108d8611b6c565b81526020016002820180546108ec90612025565b80601f016020809104026020016040519081016040528092919081815260200182805461091890612025565b80156109655780601f1061093a57610100808354040283529160200191610965565b820191906000526020600020905b81548152906001019060200180831161094857829003601f168201915b5050505050815260200160038201805461097e90612025565b80601f01602080910402602001604051908101604052809291908181526020018280546109aa90612025565b80156109f75780601f106109cc576101008083540402835291602001916109f7565b820191906000526020600020905b8154815290600101906020018083116109da57829003601f168201915b50505050508152602001600482018054610a1090612025565b80601f0160208091040260200160405190810160405280929190818152602001828054610a3c90612025565b8015610a895780601f10610a5e57610100808354040283529160200191610a89565b820191906000526020600020905b815481529060010190602001808311610a6c57829003601f168201915b505050918352505060058201546001600160a01b0390811660208084019190915260068401548216604084015260079093015416606090910152908252600192909201910161083c565b505050509050919050565b6003845111610b2a5760405162461bcd60e51b815260206004820152601860248201527710dbdb5b5d5b9a5d1e481b985b59481d1bdbc81cda1bdc9d60421b60448201526064016105e0565b6000610b363387610c62565b505033600090815260cb602052604081208054929350909183908110610b5e57610b5e6120f8565b600091825260209091206005600890920201908101549091506001600160a01b03163314610bc75760405162461bcd60e51b81526020600482015260166024820152754e6f2061636365737320746f20636f6d6d756e69747960501b60448201526064016105e0565b8551610bdc9060028301906020890190611a62565b5060018082018054879260ff1990911690836014811115610bff57610bff611b6c565b0217905550838160010160016101000a81548160ff02191690836001811115610c2a57610c2a611b6c565b02179055508251610c449060038301906020860190611a62565b5050505050505050565b610c566116f5565b610c60600061174f565b565b600080600080610cb760408051610120810190915260008082526020820190815260200160008152606060208201819052604082018190528082015260006080820181905260a0820181905260c09091015290565b60005b6001600160a01b038816600090815260cb6020526040902054811015610fdb576001600160a01b038816600090815260cb60205260409020805488919083908110610d0757610d076120f8565b9060005260206000209060080201600001541415610fcb576001600160a01b038816600090815260cb60205260409020805482908110610d4957610d496120f8565b906000526020600020906008020160405180610120016040529081600082015481526020016001820160009054906101000a900460ff166014811115610d9157610d91611b6c565b6014811115610da257610da2611b6c565b81526020016001820160019054906101000a900460ff166001811115610dca57610dca611b6c565b6001811115610ddb57610ddb611b6c565b8152602001600282018054610def90612025565b80601f0160208091040260200160405190810160405280929190818152602001828054610e1b90612025565b8015610e685780601f10610e3d57610100808354040283529160200191610e68565b820191906000526020600020905b815481529060010190602001808311610e4b57829003601f168201915b50505050508152602001600382018054610e8190612025565b80601f0160208091040260200160405190810160405280929190818152602001828054610ead90612025565b8015610efa5780601f10610ecf57610100808354040283529160200191610efa565b820191906000526020600020905b815481529060010190602001808311610edd57829003601f168201915b50505050508152602001600482018054610f1390612025565b80601f0160208091040260200160405190810160405280929190818152602001828054610f3f90612025565b8015610f8c5780601f10610f6157610100808354040283529160200191610f8c565b820191906000526020600020905b815481529060010190602001808311610f6f57829003601f168201915b505050918352505060058201546001600160a01b0390811660208301526006830154811660408301526007909201549091166060909101529092509050815b610fd481612124565b9050610cba565b5080516110205760405162461bcd60e51b815260206004820152601360248201527210dbdb5b5d5b9a5d1e481b9bdd08199bdd5b99606a1b60448201526064016105e0565b60e081015161010090910151919450925090509250925092565b60c9546001600160a01b031633146110905760405162461bcd60e51b815260206004820152601960248201527827379020b1b1b2b9b9903337b9103a3434b99030b1ba34b7b760391b60448201526064016105e0565b6001600160a01b038316600090815260cb602052604090208054829190849081106110bd576110bd6120f8565b906000526020600020906008020160070160006101000a8154816001600160a01b0302191690836001600160a01b03160217905550505050565b600054610100900460ff16158080156111175750600054600160ff909116105b806111315750303b158015611131575060005460ff166001145b6111945760405162461bcd60e51b815260206004820152602e60248201527f496e697469616c697a61626c653a20636f6e747261637420697320616c72656160448201526d191e481a5b9a5d1a585b1a5e995960921b60648201526084016105e0565b6000805460ff1916600117905580156111b7576000805461ff0019166101001790555b6111bf6117a1565b6111c76117d0565b801561067d576000805461ff0019169055604051600181527f7f26b83ff96e1f2b6a682f133852f6798a09c465da95921460cefb38474024989060200160405180910390a150565b60c9546001600160a01b031633146112655760405162461bcd60e51b815260206004820152601960248201527827379020b1b1b2b9b9903337b9103a3434b99030b1ba34b7b760391b60448201526064016105e0565b6001600160a01b038316600090815260cb60205260409020805482919084908110611292576112926120f8565b906000526020600020906008020160060160006101000a8154816001600160a01b0302191690836001600160a01b03160217905550505050565b60038451116113185760405162461bcd60e51b815260206004820152601860248201527710dbdb5b5d5b9a5d1e481b985b59481d1bdbc81cda1bdc9d60421b60448201526064016105e0565b600160ca600082825461132b919061213f565b909155505033600090815260cb60209081526040918290208251610120810190935260ca5483529190810185601481111561136857611368611b6c565b815260200184600181111561137f5761137f611b6c565b81526020808201889052604080830186905280518083019091526000808252606084019190915233608084015260a0830181905260c09092018290528354600181810186559483529181902083516008909302019182558201518184018054939492939192909160ff1916908360148111156113fd576113fd611b6c565b021790555060408201518160010160016101000a81548160ff0219169083600181111561142c5761142c611b6c565b02179055506060820151805161144c916002840191602090910190611a62565b5060808201518051611468916003840191602090910190611a62565b5060a08201518051611484916004840191602090910190611a62565b5060c08201516005820180546001600160a01b03199081166001600160a01b039384161790915560e084015160068401805483169184169190911790556101009093015160079092018054909316911617905550505050565b6114e56116f5565b60c980546001600160a01b0319166001600160a01b0392909216919091179055565b61150f6116f5565b6001600160a01b0381166115745760405162461bcd60e51b815260206004820152602660248201527f4f776e61626c653a206e6577206f776e657220697320746865207a65726f206160448201526564647265737360d01b60648201526084016105e0565b61067d8161174f565b61067d6116f5565b7f4910fdfa16fed3260ed0e7147f7cc6da11a60208b5b9406d12a635614ffd91435460ff16156115bd576115b8836117f7565b505050565b826001600160a01b03166352d1902d6040518163ffffffff1660e01b8152600401602060405180830381865afa925050508015611617575060408051601f3d908101601f1916820190925261161491810190612157565b60015b61167a5760405162461bcd60e51b815260206004820152602e60248201527f45524331393637557067726164653a206e657720696d706c656d656e7461746960448201526d6f6e206973206e6f74205555505360901b60648201526084016105e0565b6000805160206121eb83398151915281146116e95760405162461bcd60e51b815260206004820152602960248201527f45524331393637557067726164653a20756e737570706f727465642070726f786044820152681a58589b195555525160ba1b60648201526084016105e0565b506115b8838383611893565b6033546001600160a01b03163314610c605760405162461bcd60e51b815260206004820181905260248201527f4f776e61626c653a2063616c6c6572206973206e6f7420746865206f776e657260448201526064016105e0565b603380546001600160a01b038381166001600160a01b0319831681179093556040519116919082907f8be0079c531659141344cd1fd0a4f28419497f9722a3daafe3b4186f6b6457e090600090a35050565b600054610100900460ff166117c85760405162461bcd60e51b81526004016105e090612170565b610c606118be565b600054610100900460ff16610c605760405162461bcd60e51b81526004016105e090612170565b6001600160a01b0381163b6118645760405162461bcd60e51b815260206004820152602d60248201527f455243313936373a206e657720696d706c656d656e746174696f6e206973206e60448201526c1bdd08184818dbdb9d1c9858dd609a1b60648201526084016105e0565b6000805160206121eb83398151915280546001600160a01b0319166001600160a01b0392909216919091179055565b61189c836118ee565b6000825111806118a95750805b156115b8576118b8838361192e565b50505050565b600054610100900460ff166118e55760405162461bcd60e51b81526004016105e090612170565b610c603361174f565b6118f7816117f7565b6040516001600160a01b038216907fbc7cd75a20ee27fd9adebab32041f755214dbc6bffa90cc0225b39da2e5c2d3b90600090a250565b60606001600160a01b0383163b6119965760405162461bcd60e51b815260206004820152602660248201527f416464726573733a2064656c65676174652063616c6c20746f206e6f6e2d636f6044820152651b9d1c9858dd60d21b60648201526084016105e0565b600080846001600160a01b0316846040516119b191906121bb565b600060405180830381855af49150503d80600081146119ec576040519150601f19603f3d011682016040523d82523d6000602084013e6119f1565b606091505b5091509150611a19828260405180606001604052806027815260200161220b60279139611a22565b95945050505050565b60608315611a31575081611a5b565b825115611a415782518084602001fd5b8160405162461bcd60e51b81526004016105e091906121d7565b9392505050565b828054611a6e90612025565b90600052602060002090601f016020900481019282611a905760008555611ad6565b82601f10611aa957805160ff1916838001178555611ad6565b82800160010185558215611ad6579182015b82811115611ad6578251825591602001919060010190611abb565b50611ae2929150611ae6565b5090565b5b80821115611ae25760008155600101611ae7565b803560158110611b0a57600080fd5b919050565b60008060408385031215611b2257600080fd5b611b2b83611afb565b946020939093013593505050565b80356001600160a01b0381168114611b0a57600080fd5b60008060408385031215611b6357600080fd5b611b2b83611b39565b634e487b7160e01b600052602160045260246000fd5b60158110611b9257611b92611b6c565b9052565b60028110611b9257611b92611b6c565b60005b83811015611bc1578181015183820152602001611ba9565b838111156118b85750506000910152565b60008151808452611bea816020860160208601611ba6565b601f01601f19169290920160200192915050565b60006101208b8352611c13602084018c611b82565b611c20604084018b611b96565b806060840152611c328184018a611bd2565b90508281036080840152611c468189611bd2565b905082810360a0840152611c5a8188611bd2565b6001600160a01b0396871660c085015294861660e084015250509216610100909201919091529695505050505050565b600060208284031215611c9c57600080fd5b611a5b82611b39565b634e487b7160e01b600052604160045260246000fd5b600067ffffffffffffffff80841115611cd657611cd6611ca5565b604051601f8501601f19908116603f01168101908282118183101715611cfe57611cfe611ca5565b81604052809350858152868686011115611d1757600080fd5b858560208301376000602087830101525050509392505050565b60008060408385031215611d4457600080fd5b611d4d83611b39565b9150602083013567ffffffffffffffff811115611d6957600080fd5b8301601f81018513611d7a57600080fd5b611d8985823560208401611cbb565b9150509250929050565b60006020808301818452808551808352604092508286019150828160051b87010184880160005b83811015611e9857603f1989840301855281516101208151855288820151611de48a870182611b82565b5087820151611df589870182611b96565b506060808301518282880152611e0d83880182611bd2565b9250505060808083015186830382880152611e288382611bd2565b9250505060a08083015186830382880152611e438382611bd2565b9250505060c080830151611e61828801826001600160a01b03169052565b505060e0828101516001600160a01b0390811691870191909152610100928301511691909401529386019390860190600101611dba565b509098975050505050505050565b600082601f830112611eb757600080fd5b611a5b83833560208501611cbb565b803560028110611b0a57600080fd5b600080600080600060a08688031215611eed57600080fd5b85359450602086013567ffffffffffffffff80821115611f0c57600080fd5b611f1889838a01611ea6565b9550611f2660408901611afb565b9450611f3460608901611ec6565b93506080880135915080821115611f4a57600080fd5b50611f5788828901611ea6565b9150509295509295909350565b600080600060608486031215611f7957600080fd5b611f8284611b39565b925060208401359150611f9760408501611b39565b90509250925092565b60008060008060808587031215611fb657600080fd5b843567ffffffffffffffff80821115611fce57600080fd5b611fda88838901611ea6565b9550611fe860208801611afb565b9450611ff660408801611ec6565b9350606087013591508082111561200c57600080fd5b5061201987828801611ea6565b91505092959194509250565b600181811c9082168061203957607f821691505b6020821081141561205a57634e487b7160e01b600052602260045260246000fd5b50919050565b6020808252602c908201527f46756e6374696f6e206d7573742062652063616c6c6564207468726f7567682060408201526b19195b1959d85d1958d85b1b60a21b606082015260800190565b6020808252602c908201527f46756e6374696f6e206d7573742062652063616c6c6564207468726f7567682060408201526b6163746976652070726f787960a01b606082015260800190565b634e487b7160e01b600052603260045260246000fd5b634e487b7160e01b600052601160045260246000fd5b60006000198214156121385761213861210e565b5060010190565b600082198211156121525761215261210e565b500190565b60006020828403121561216957600080fd5b5051919050565b6020808252602b908201527f496e697469616c697a61626c653a20636f6e7472616374206973206e6f74206960408201526a6e697469616c697a696e6760a81b606082015260800190565b600082516121cd818460208701611ba6565b9190910192915050565b602081526000611a5b6020830184611bd256fe360894a13ba1a3210667c828492db98dca3e2076cc3735a920a3ca505d382bbc416464726573733a206c6f772d6c6576656c2064656c65676174652063616c6c206661696c6564a2646970667358221220b0a9a885f8628a501afacf8c374da679d85ea7185a5e7bb159553a6b707311bc64736f6c634300080c0033",
  "linkReferences": {},
  "deployedLinkReferences": {}
}