{
  "_format": "hh-sol-artifact-1",
  "contractName": "NFTCollection",
  "sourceName": "src/backend/contracts/_NFTCollection.sol",
  "abi": [
    {
      "inputs": [
        {
          "internalType": "string",
          "name": "_name",
          "type": "string"
        },
        {
          "internalType": "string",
          "name": "_symbol",
          "type": "string"
        },
        {
          "internalType": "address",
          "name": "_owner",
          "type": "address"
        }
      ],
      "stateMutability": "nonpayable",
      "type": "constructor"
    },
    {
      "anonymous": false,
      "inputs": [
        {
          "indexed": true,
          "internalType": "address",
          "name": "owner",
          "type": "address"
        },
        {
          "indexed": true,
          "internalType": "address",
          "name": "approved",
          "type": "address"
        },
        {
          "indexed": true,
          "internalType": "uint256",
          "name": "tokenId",
          "type": "uint256"
        }
      ],
      "name": "Approval",
      "type": "event"
    },
    {
      "anonymous": false,
      "inputs": [
        {
          "indexed": true,
          "internalType": "address",
          "name": "owner",
          "type": "address"
        },
        {
          "indexed": true,
          "internalType": "address",
          "name": "operator",
          "type": "address"
        },
        {
          "indexed": false,
          "internalType": "bool",
          "name": "approved",
          "type": "bool"
        }
      ],
      "name": "ApprovalForAll",
      "type": "event"
    },
    {
      "anonymous": false,
      "inputs": [
        {
          "indexed": true,
          "internalType": "address",
          "name": "previousOwner",
          "type": "address"
        },
        {
          "indexed": true,
          "internalType": "address",
          "name": "newOwner",
          "type": "address"
        }
      ],
      "name": "OwnershipTransferred",
      "type": "event"
    },
    {
      "anonymous": false,
      "inputs": [
        {
          "indexed": false,
          "internalType": "address",
          "name": "account",
          "type": "address"
        }
      ],
      "name": "Paused",
      "type": "event"
    },
    {
      "anonymous": false,
      "inputs": [
        {
          "indexed": true,
          "internalType": "address",
          "name": "from",
          "type": "address"
        },
        {
          "indexed": true,
          "internalType": "address",
          "name": "to",
          "type": "address"
        },
        {
          "indexed": true,
          "internalType": "uint256",
          "name": "tokenId",
          "type": "uint256"
        }
      ],
      "name": "Transfer",
      "type": "event"
    },
    {
      "anonymous": false,
      "inputs": [
        {
          "indexed": false,
          "internalType": "address",
          "name": "account",
          "type": "address"
        }
      ],
      "name": "Unpaused",
      "type": "event"
    },
    {
      "inputs": [
        {
          "internalType": "address",
          "name": "to",
          "type": "address"
        },
        {
          "internalType": "uint256",
          "name": "tokenId",
          "type": "uint256"
        }
      ],
      "name": "approve",
      "outputs": [],
      "stateMutability": "nonpayable",
      "type": "function"
    },
    {
      "inputs": [
        {
          "internalType": "address",
          "name": "owner",
          "type": "address"
        }
      ],
      "name": "balanceOf",
      "outputs": [
        {
          "internalType": "uint256",
          "name": "",
          "type": "uint256"
        }
      ],
      "stateMutability": "view",
      "type": "function"
    },
    {
      "inputs": [
        {
          "internalType": "uint256",
          "name": "",
          "type": "uint256"
        }
      ],
      "name": "collectionItems",
      "outputs": [
        {
          "internalType": "string",
          "name": "uri",
          "type": "string"
        },
        {
          "internalType": "uint256",
          "name": "id",
          "type": "uint256"
        },
        {
          "internalType": "uint256",
          "name": "price",
          "type": "uint256"
        },
        {
          "internalType": "uint256",
          "name": "supply",
          "type": "uint256"
        },
        {
          "internalType": "uint256",
          "name": "mintedAmount",
          "type": "uint256"
        }
      ],
      "stateMutability": "view",
      "type": "function"
    },
    {
      "inputs": [],
      "name": "collectionItemsTotal",
      "outputs": [
        {
          "internalType": "uint256",
          "name": "",
          "type": "uint256"
        }
      ],
      "stateMutability": "view",
      "type": "function"
    },
    {
      "inputs": [
        {
          "internalType": "uint256",
          "name": "tokenId",
          "type": "uint256"
        }
      ],
      "name": "getApproved",
      "outputs": [
        {
          "internalType": "address",
          "name": "",
          "type": "address"
        }
      ],
      "stateMutability": "view",
      "type": "function"
    },
    {
      "inputs": [
        {
          "internalType": "address",
          "name": "owner",
          "type": "address"
        },
        {
          "internalType": "address",
          "name": "operator",
          "type": "address"
        }
      ],
      "name": "isApprovedForAll",
      "outputs": [
        {
          "internalType": "bool",
          "name": "",
          "type": "bool"
        }
      ],
      "stateMutability": "view",
      "type": "function"
    },
    {
      "inputs": [],
      "name": "name",
      "outputs": [
        {
          "internalType": "string",
          "name": "",
          "type": "string"
        }
      ],
      "stateMutability": "view",
      "type": "function"
    },
    {
      "inputs": [
        {
          "internalType": "string",
          "name": "_uri",
          "type": "string"
        },
        {
          "internalType": "uint256",
          "name": "_price",
          "type": "uint256"
        },
        {
          "internalType": "uint256",
          "name": "_supply",
          "type": "uint256"
        }
      ],
      "name": "newCollectionItem",
      "outputs": [],
      "stateMutability": "nonpayable",
      "type": "function"
    },
    {
      "inputs": [],
      "name": "owner",
      "outputs": [
        {
          "internalType": "address",
          "name": "",
          "type": "address"
        }
      ],
      "stateMutability": "view",
      "type": "function"
    },
    {
      "inputs": [
        {
          "internalType": "uint256",
          "name": "tokenId",
          "type": "uint256"
        }
      ],
      "name": "ownerOf",
      "outputs": [
        {
          "internalType": "address",
          "name": "",
          "type": "address"
        }
      ],
      "stateMutability": "view",
      "type": "function"
    },
    {
      "inputs": [],
      "name": "pause",
      "outputs": [],
      "stateMutability": "nonpayable",
      "type": "function"
    },
    {
      "inputs": [],
      "name": "paused",
      "outputs": [
        {
          "internalType": "bool",
          "name": "",
          "type": "bool"
        }
      ],
      "stateMutability": "view",
      "type": "function"
    },
    {
      "inputs": [
        {
          "internalType": "uint256",
          "name": "_collectionId",
          "type": "uint256"
        }
      ],
      "name": "payToMint",
      "outputs": [],
      "stateMutability": "payable",
      "type": "function"
    },
    {
      "inputs": [],
      "name": "renounceOwnership",
      "outputs": [],
      "stateMutability": "nonpayable",
      "type": "function"
    },
    {
      "inputs": [
        {
          "internalType": "address",
          "name": "_to",
          "type": "address"
        },
        {
          "internalType": "uint256",
          "name": "_collectionId",
          "type": "uint256"
        }
      ],
      "name": "safeMint",
      "outputs": [],
      "stateMutability": "nonpayable",
      "type": "function"
    },
    {
      "inputs": [
        {
          "internalType": "address",
          "name": "from",
          "type": "address"
        },
        {
          "internalType": "address",
          "name": "to",
          "type": "address"
        },
        {
          "internalType": "uint256",
          "name": "tokenId",
          "type": "uint256"
        }
      ],
      "name": "safeTransferFrom",
      "outputs": [],
      "stateMutability": "nonpayable",
      "type": "function"
    },
    {
      "inputs": [
        {
          "internalType": "address",
          "name": "from",
          "type": "address"
        },
        {
          "internalType": "address",
          "name": "to",
          "type": "address"
        },
        {
          "internalType": "uint256",
          "name": "tokenId",
          "type": "uint256"
        },
        {
          "internalType": "bytes",
          "name": "data",
          "type": "bytes"
        }
      ],
      "name": "safeTransferFrom",
      "outputs": [],
      "stateMutability": "nonpayable",
      "type": "function"
    },
    {
      "inputs": [
        {
          "internalType": "address",
          "name": "operator",
          "type": "address"
        },
        {
          "internalType": "bool",
          "name": "approved",
          "type": "bool"
        }
      ],
      "name": "setApprovalForAll",
      "outputs": [],
      "stateMutability": "nonpayable",
      "type": "function"
    },
    {
      "inputs": [
        {
          "internalType": "bytes4",
          "name": "interfaceId",
          "type": "bytes4"
        }
      ],
      "name": "supportsInterface",
      "outputs": [
        {
          "internalType": "bool",
          "name": "",
          "type": "bool"
        }
      ],
      "stateMutability": "view",
      "type": "function"
    },
    {
      "inputs": [],
      "name": "symbol",
      "outputs": [
        {
          "internalType": "string",
          "name": "",
          "type": "string"
        }
      ],
      "stateMutability": "view",
      "type": "function"
    },
    {
      "inputs": [
        {
          "internalType": "uint256",
          "name": "index",
          "type": "uint256"
        }
      ],
      "name": "tokenByIndex",
      "outputs": [
        {
          "internalType": "uint256",
          "name": "",
          "type": "uint256"
        }
      ],
      "stateMutability": "view",
      "type": "function"
    },
    {
      "inputs": [
        {
          "internalType": "address",
          "name": "owner",
          "type": "address"
        },
        {
          "internalType": "uint256",
          "name": "index",
          "type": "uint256"
        }
      ],
      "name": "tokenOfOwnerByIndex",
      "outputs": [
        {
          "internalType": "uint256",
          "name": "",
          "type": "uint256"
        }
      ],
      "stateMutability": "view",
      "type": "function"
    },
    {
      "inputs": [
        {
          "internalType": "uint256",
          "name": "tokenId",
          "type": "uint256"
        }
      ],
      "name": "tokenURI",
      "outputs": [
        {
          "internalType": "string",
          "name": "",
          "type": "string"
        }
      ],
      "stateMutability": "view",
      "type": "function"
    },
    {
      "inputs": [],
      "name": "totalSupply",
      "outputs": [
        {
          "internalType": "uint256",
          "name": "",
          "type": "uint256"
        }
      ],
      "stateMutability": "view",
      "type": "function"
    },
    {
      "inputs": [
        {
          "internalType": "address",
          "name": "from",
          "type": "address"
        },
        {
          "internalType": "address",
          "name": "to",
          "type": "address"
        },
        {
          "internalType": "uint256",
          "name": "tokenId",
          "type": "uint256"
        }
      ],
      "name": "transferFrom",
      "outputs": [],
      "stateMutability": "nonpayable",
      "type": "function"
    },
    {
      "inputs": [
        {
          "internalType": "address",
          "name": "newOwner",
          "type": "address"
        }
      ],
      "name": "transferOwnership",
      "outputs": [],
      "stateMutability": "nonpayable",
      "type": "function"
    },
    {
      "inputs": [],
      "name": "unpause",
      "outputs": [],
      "stateMutability": "nonpayable",
      "type": "function"
    },
    {
      "inputs": [
        {
          "internalType": "uint256",
          "name": "_collectionId",
          "type": "uint256"
        },
        {
          "internalType": "uint256",
          "name": "_price",
          "type": "uint256"
        },
        {
          "internalType": "uint256",
          "name": "_supply",
          "type": "uint256"
        }
      ],
      "name": "updateCollectionItem",
      "outputs": [],
      "stateMutability": "nonpayable",
      "type": "function"
    }
  ],
  "bytecode": "0x60806040523480156200001157600080fd5b506040516200294338038062002943833981016040819052620000349162000343565b8251839083906200004d906000906020850190620001d0565b50805162000063906001906020840190620001d0565b5050600b805460ff19169055506200007b336200008f565b6200008681620000e9565b5050506200040d565b600b80546001600160a01b03838116610100818102610100600160a81b031985161790945560405193909204169182907f8be0079c531659141344cd1fd0a4f28419497f9722a3daafe3b4186f6b6457e090600090a35050565b620000f36200016c565b6001600160a01b0381166200015e5760405162461bcd60e51b815260206004820152602660248201527f4f776e61626c653a206e6577206f776e657220697320746865207a65726f206160448201526564647265737360d01b60648201526084015b60405180910390fd5b62000169816200008f565b50565b600b546001600160a01b03610100909104163314620001ce5760405162461bcd60e51b815260206004820181905260248201527f4f776e61626c653a2063616c6c6572206973206e6f7420746865206f776e6572604482015260640162000155565b565b828054620001de90620003d0565b90600052602060002090601f0160209004810192826200020257600085556200024d565b82601f106200021d57805160ff19168380011785556200024d565b828001600101855582156200024d579182015b828111156200024d57825182559160200191906001019062000230565b506200025b9291506200025f565b5090565b5b808211156200025b576000815560010162000260565b634e487b7160e01b600052604160045260246000fd5b600082601f8301126200029e57600080fd5b81516001600160401b0380821115620002bb57620002bb62000276565b604051601f8301601f19908116603f01168101908282118183101715620002e657620002e662000276565b816040528381526020925086838588010111156200030357600080fd5b600091505b8382101562000327578582018301518183018401529082019062000308565b83821115620003395760008385830101525b9695505050505050565b6000806000606084860312156200035957600080fd5b83516001600160401b03808211156200037157600080fd5b6200037f878388016200028c565b945060208601519150808211156200039657600080fd5b50620003a5868287016200028c565b604086015190935090506001600160a01b0381168114620003c557600080fd5b809150509250925092565b600181811c90821680620003e557607f821691505b602082108114156200040757634e487b7160e01b600052602260045260246000fd5b50919050565b612526806200041d6000396000f3fe6080604052600436106101b75760003560e01c80636352211e116100ec578063a22cb4651161008a578063b88d4fde11610064578063b88d4fde146104b5578063c87b56dd146104d5578063e985e9c5146104f5578063f2fde38b1461053e57600080fd5b8063a22cb4651461044e578063abcacc5d1461046e578063adcb4b7c1461048457600080fd5b80638456cb59116100c65780638456cb59146103e15780638da5cb5b146103f657806395d89b4114610419578063a14481941461042e57600080fd5b80636352211e1461038c57806370a08231146103ac578063715018a6146103cc57600080fd5b8063253366681161015957806342842e0e1161013357806342842e0e146103215780634f6ccce7146103415780635c4c94ae146103615780635c975abb1461037457600080fd5b806325336668146102cc5780632f745c59146102ec5780633f4ba83a1461030c57600080fd5b8063095ea7b311610195578063095ea7b31461024b57806318160ddd1461026d578063217603ab1461028c57806323b872dd146102ac57600080fd5b806301ffc9a7146101bc57806306fdde03146101f1578063081812fc14610213575b600080fd5b3480156101c857600080fd5b506101dc6101d7366004611f1e565b61055e565b60405190151581526020015b60405180910390f35b3480156101fd57600080fd5b5061020661056f565b6040516101e89190611f93565b34801561021f57600080fd5b5061023361022e366004611fa6565b610601565b6040516001600160a01b0390911681526020016101e8565b34801561025757600080fd5b5061026b610266366004611fdb565b610628565b005b34801561027957600080fd5b506008545b6040519081526020016101e8565b34801561029857600080fd5b5061026b6102a7366004612005565b610743565b3480156102b857600080fd5b5061026b6102c7366004612031565b610815565b3480156102d857600080fd5b5061026b6102e73660046120f9565b610846565b3480156102f857600080fd5b5061027e610307366004611fdb565b610949565b34801561031857600080fd5b5061026b6109df565b34801561032d57600080fd5b5061026b61033c366004612031565b6109f1565b34801561034d57600080fd5b5061027e61035c366004611fa6565b610a0c565b61026b61036f366004611fa6565b610a9f565b34801561038057600080fd5b50600b5460ff166101dc565b34801561039857600080fd5b506102336103a7366004611fa6565b610c79565b3480156103b857600080fd5b5061027e6103c736600461215b565b610cd9565b3480156103d857600080fd5b5061026b610d5f565b3480156103ed57600080fd5b5061026b610d71565b34801561040257600080fd5b50600b5461010090046001600160a01b0316610233565b34801561042557600080fd5b50610206610d81565b34801561043a57600080fd5b5061026b610449366004611fdb565b610d90565b34801561045a57600080fd5b5061026b610469366004612176565b610e91565b34801561047a57600080fd5b5061027e600d5481565b34801561049057600080fd5b506104a461049f366004611fa6565b610ea0565b6040516101e89594939291906121b2565b3480156104c157600080fd5b5061026b6104d03660046121e9565b610f6e565b3480156104e157600080fd5b506102066104f0366004611fa6565b610fa0565b34801561050157600080fd5b506101dc610510366004612265565b6001600160a01b03918216600090815260056020908152604080832093909416825291909152205460ff1690565b34801561054a57600080fd5b5061026b61055936600461215b565b610fab565b600061056982611024565b92915050565b60606000805461057e90612298565b80601f01602080910402602001604051908101604052809291908181526020018280546105aa90612298565b80156105f75780601f106105cc576101008083540402835291602001916105f7565b820191906000526020600020905b8154815290600101906020018083116105da57829003601f168201915b5050505050905090565b600061060c82611049565b506000908152600460205260409020546001600160a01b031690565b600061063382610c79565b9050806001600160a01b0316836001600160a01b031614156106a65760405162461bcd60e51b815260206004820152602160248201527f4552433732313a20617070726f76616c20746f2063757272656e74206f776e656044820152603960f91b60648201526084015b60405180910390fd5b336001600160a01b03821614806106c257506106c28133610510565b6107345760405162461bcd60e51b815260206004820152603e60248201527f4552433732313a20617070726f76652063616c6c6572206973206e6f7420746f60448201527f6b656e206f776e6572206e6f7220617070726f76656420666f7220616c6c0000606482015260840161069d565b61073e83836110a8565b505050565b61074b611116565b600d5483111561076d5760405162461bcd60e51b815260040161069d906122d3565b6000600c61077c600186612313565b8154811061078c5761078c61232a565b9060005260206000209060050201905060008211156108045780600401548210156108045760405162461bcd60e51b815260206004820152602260248201527f537570706c79206973206c657373207468617420616c7265616479206d696e74604482015261195960f21b606482015260840161069d565b600281019290925560039091015550565b61081f3382611176565b61083b5760405162461bcd60e51b815260040161069d90612340565b61073e8383836111f5565b61084e611116565b600083511161088b5760405162461bcd60e51b815260206004820152600960248201526857726f6e672055524960b81b604482015260640161069d565b6001600d600082825461089e919061238e565b90915550506040805160a081018252848152600d5460208083019190915291810184905260608101839052600060808201819052600c8054600181018255915281518051929360059092027fdf6966c971051c3d54ec59162606531493a51404a002842f56009d7e5cf4a8c701926109199284920190611e6f565b50602082015181600101556040820151816002015560608201518160030155608082015181600401555050505050565b600061095483610cd9565b82106109b65760405162461bcd60e51b815260206004820152602b60248201527f455243373231456e756d657261626c653a206f776e657220696e646578206f7560448201526a74206f6620626f756e647360a81b606482015260840161069d565b506001600160a01b03919091166000908152600660209081526040808320938352929052205490565b6109e7611116565b6109ef61139c565b565b61073e83838360405180602001604052806000815250610f6e565b6000610a1760085490565b8210610a7a5760405162461bcd60e51b815260206004820152602c60248201527f455243373231456e756d657261626c653a20676c6f62616c20696e646578206f60448201526b7574206f6620626f756e647360a01b606482015260840161069d565b60088281548110610a8d57610a8d61232a565b90600052602060002001549050919050565b610aa76113ee565b600d54811115610ac95760405162461bcd60e51b815260040161069d906122d3565b6000600c610ad8600184612313565b81548110610ae857610ae861232a565b90600052602060002090600502019050600081600201541115610b585734816002015414610b585760405162461bcd60e51b815260206004820152601c60248201527f57726f6e67207061796d656e7420616d6f756e7420746f206d696e7400000000604482015260640161069d565b600381015415610bae578060040154816003015411610bae5760405162461bcd60e51b8152602060048201526012602482015271105b1b08139195081dd85cc81b5a5b9d195960721b604482015260640161069d565b6001816004016000828254610bc3919061238e565b9091555050600e54610bd9600e80546001019055565b610be33382611434565b61073e81836000018054610bf690612298565b80601f0160208091040260200160405190810160405280929190818152602001828054610c2290612298565b8015610c6f5780601f10610c4457610100808354040283529160200191610c6f565b820191906000526020600020905b815481529060010190602001808311610c5257829003601f168201915b505050505061144e565b6000818152600260205260408120546001600160a01b0316806105695760405162461bcd60e51b8152602060048201526018602482015277115490cdcc8c4e881a5b9d985b1a59081d1bdad95b88125160421b604482015260640161069d565b60006001600160a01b038216610d435760405162461bcd60e51b815260206004820152602960248201527f4552433732313a2061646472657373207a65726f206973206e6f7420612076616044820152683634b21037bbb732b960b91b606482015260840161069d565b506001600160a01b031660009081526003602052604090205490565b610d67611116565b6109ef60006114e8565b610d79611116565b6109ef611542565b60606001805461057e90612298565b610d98611116565b610da06113ee565b600d54811115610dc25760405162461bcd60e51b815260040161069d906122d3565b6001600160a01b038216610e0f5760405162461bcd60e51b815260206004820152601460248201527357726f6e672077616c6c6574204164647265737360601b604482015260640161069d565b6000610e1a600e5490565b90506000600c610e2b600185612313565b81548110610e3b57610e3b61232a565b906000526020600020906005020190506001816004016000828254610e60919061238e565b9091555050600e80546001019055610e788483611434565b610e8b82826000018054610bf690612298565b50505050565b610e9c33838361157f565b5050565b600c8181548110610eb057600080fd5b9060005260206000209060050201600091509050806000018054610ed390612298565b80601f0160208091040260200160405190810160405280929190818152602001828054610eff90612298565b8015610f4c5780601f10610f2157610100808354040283529160200191610f4c565b820191906000526020600020905b815481529060010190602001808311610f2f57829003601f168201915b5050505050908060010154908060020154908060030154908060040154905085565b610f783383611176565b610f945760405162461bcd60e51b815260040161069d90612340565b610e8b8484848461164e565b606061056982611681565b610fb3611116565b6001600160a01b0381166110185760405162461bcd60e51b815260206004820152602660248201527f4f776e61626c653a206e6577206f776e657220697320746865207a65726f206160448201526564647265737360d01b606482015260840161069d565b611021816114e8565b50565b60006001600160e01b0319821663780e9d6360e01b148061056957506105698261178a565b6000818152600260205260409020546001600160a01b03166110215760405162461bcd60e51b8152602060048201526018602482015277115490cdcc8c4e881a5b9d985b1a59081d1bdad95b88125160421b604482015260640161069d565b600081815260046020526040902080546001600160a01b0319166001600160a01b03841690811790915581906110dd82610c79565b6001600160a01b03167f8c5be1e5ebec7d5bd14f71427d1e84f3dd0314c0f7b2291e5b200ac8c7c3b92560405160405180910390a45050565b600b546001600160a01b036101009091041633146109ef5760405162461bcd60e51b815260206004820181905260248201527f4f776e61626c653a2063616c6c6572206973206e6f7420746865206f776e6572604482015260640161069d565b60008061118283610c79565b9050806001600160a01b0316846001600160a01b031614806111c957506001600160a01b0380821660009081526005602090815260408083209388168352929052205460ff165b806111ed5750836001600160a01b03166111e284610601565b6001600160a01b0316145b949350505050565b826001600160a01b031661120882610c79565b6001600160a01b03161461126c5760405162461bcd60e51b815260206004820152602560248201527f4552433732313a207472616e736665722066726f6d20696e636f72726563742060448201526437bbb732b960d91b606482015260840161069d565b6001600160a01b0382166112ce5760405162461bcd60e51b8152602060048201526024808201527f4552433732313a207472616e7366657220746f20746865207a65726f206164646044820152637265737360e01b606482015260840161069d565b6112d98383836117da565b6112e46000826110a8565b6001600160a01b038316600090815260036020526040812080546001929061130d908490612313565b90915550506001600160a01b038216600090815260036020526040812080546001929061133b90849061238e565b909155505060008181526002602052604080822080546001600160a01b0319166001600160a01b0386811691821790925591518493918716917fddf252ad1be2c89b69c2b068fc378daa952ba7f163c4a11628f55a4df523b3ef91a4505050565b6113a46117ed565b600b805460ff191690557f5db9ee0a495bf2e6ff9c91a7834c1ba4fdd244a5e8aa4e537bd38aeae4b073aa335b6040516001600160a01b03909116815260200160405180910390a1565b600b5460ff16156109ef5760405162461bcd60e51b815260206004820152601060248201526f14185d5cd8589b194e881c185d5cd95960821b604482015260640161069d565b610e9c828260405180602001604052806000815250611836565b6000828152600260205260409020546001600160a01b03166114c95760405162461bcd60e51b815260206004820152602e60248201527f45524337323155524953746f726167653a2055524920736574206f66206e6f6e60448201526d32bc34b9ba32b73a103a37b5b2b760911b606482015260840161069d565b6000828152600a60209081526040909120825161073e92840190611e6f565b600b80546001600160a01b03838116610100818102610100600160a81b031985161790945560405193909204169182907f8be0079c531659141344cd1fd0a4f28419497f9722a3daafe3b4186f6b6457e090600090a35050565b61154a6113ee565b600b805460ff191660011790557f62e78cea01bee320cd4e420270b5ea74000d11b0c9f74754ebdbfc544b05a2586113d13390565b816001600160a01b0316836001600160a01b031614156115e15760405162461bcd60e51b815260206004820152601960248201527f4552433732313a20617070726f766520746f2063616c6c657200000000000000604482015260640161069d565b6001600160a01b03838116600081815260056020908152604080832094871680845294825291829020805460ff191686151590811790915591519182527f17307eab39ab6107e8899845ad3d59bd9653f200f220920489ca2b5937696c31910160405180910390a3505050565b6116598484846111f5565b61166584848484611869565b610e8b5760405162461bcd60e51b815260040161069d906123a6565b606061168c82611049565b6000828152600a6020526040812080546116a590612298565b80601f01602080910402602001604051908101604052809291908181526020018280546116d190612298565b801561171e5780601f106116f35761010080835404028352916020019161171e565b820191906000526020600020905b81548152906001019060200180831161170157829003601f168201915b50505050509050600061173c60408051602081019091526000815290565b905080516000141561174f575092915050565b8151156117815780826040516020016117699291906123f8565b60405160208183030381529060405292505050919050565b6111ed84611967565b60006001600160e01b031982166380ac58cd60e01b14806117bb57506001600160e01b03198216635b5e139f60e01b145b8061056957506301ffc9a760e01b6001600160e01b0319831614610569565b6117e26113ee565b61073e8383836119db565b600b5460ff166109ef5760405162461bcd60e51b815260206004820152601460248201527314185d5cd8589b194e881b9bdd081c185d5cd95960621b604482015260640161069d565b6118408383611a93565b61184d6000848484611869565b61073e5760405162461bcd60e51b815260040161069d906123a6565b60006001600160a01b0384163b1561195c57604051630a85bd0160e11b81526001600160a01b0385169063150b7a02906118ad903390899088908890600401612427565b6020604051808303816000875af19250505080156118e8575060408051601f3d908101601f191682019092526118e591810190612464565b60015b611942573d808015611916576040519150601f19603f3d011682016040523d82523d6000602084013e61191b565b606091505b50805161193a5760405162461bcd60e51b815260040161069d906123a6565b805181602001fd5b6001600160e01b031916630a85bd0160e11b1490506111ed565b506001949350505050565b606061197282611049565b600061198960408051602081019091526000815290565b905060008151116119a957604051806020016040528060008152506119d4565b806119b384611be1565b6040516020016119c49291906123f8565b6040516020818303038152906040525b9392505050565b6001600160a01b038316611a3657611a3181600880546000838152600960205260408120829055600182018355919091527ff3f7a9fe364faab93b216da50a3214154f22a0a2b415b23a84c8169e8b636ee30155565b611a59565b816001600160a01b0316836001600160a01b031614611a5957611a598382611cdf565b6001600160a01b038216611a705761073e81611d7c565b826001600160a01b0316826001600160a01b03161461073e5761073e8282611e2b565b6001600160a01b038216611ae95760405162461bcd60e51b815260206004820181905260248201527f4552433732313a206d696e7420746f20746865207a65726f2061646472657373604482015260640161069d565b6000818152600260205260409020546001600160a01b031615611b4e5760405162461bcd60e51b815260206004820152601c60248201527f4552433732313a20746f6b656e20616c7265616479206d696e74656400000000604482015260640161069d565b611b5a600083836117da565b6001600160a01b0382166000908152600360205260408120805460019290611b8390849061238e565b909155505060008181526002602052604080822080546001600160a01b0319166001600160a01b03861690811790915590518392907fddf252ad1be2c89b69c2b068fc378daa952ba7f163c4a11628f55a4df523b3ef908290a45050565b606081611c055750506040805180820190915260018152600360fc1b602082015290565b8160005b8115611c2f5780611c1981612481565b9150611c289050600a836124b2565b9150611c09565b60008167ffffffffffffffff811115611c4a57611c4a61206d565b6040519080825280601f01601f191660200182016040528015611c74576020820181803683370190505b5090505b84156111ed57611c89600183612313565b9150611c96600a866124c6565b611ca190603061238e565b60f81b818381518110611cb657611cb661232a565b60200101906001600160f81b031916908160001a905350611cd8600a866124b2565b9450611c78565b60006001611cec84610cd9565b611cf69190612313565b600083815260076020526040902054909150808214611d49576001600160a01b03841660009081526006602090815260408083208584528252808320548484528184208190558352600790915290208190555b5060009182526007602090815260408084208490556001600160a01b039094168352600681528383209183525290812055565b600854600090611d8e90600190612313565b60008381526009602052604081205460088054939450909284908110611db657611db661232a565b906000526020600020015490508060088381548110611dd757611dd761232a565b6000918252602080832090910192909255828152600990915260408082208490558582528120556008805480611e0f57611e0f6124da565b6001900381819060005260206000200160009055905550505050565b6000611e3683610cd9565b6001600160a01b039093166000908152600660209081526040808320868452825280832085905593825260079052919091209190915550565b828054611e7b90612298565b90600052602060002090601f016020900481019282611e9d5760008555611ee3565b82601f10611eb657805160ff1916838001178555611ee3565b82800160010185558215611ee3579182015b82811115611ee3578251825591602001919060010190611ec8565b50611eef929150611ef3565b5090565b5b80821115611eef5760008155600101611ef4565b6001600160e01b03198116811461102157600080fd5b600060208284031215611f3057600080fd5b81356119d481611f08565b60005b83811015611f56578181015183820152602001611f3e565b83811115610e8b5750506000910152565b60008151808452611f7f816020860160208601611f3b565b601f01601f19169290920160200192915050565b6020815260006119d46020830184611f67565b600060208284031215611fb857600080fd5b5035919050565b80356001600160a01b0381168114611fd657600080fd5b919050565b60008060408385031215611fee57600080fd5b611ff783611fbf565b946020939093013593505050565b60008060006060848603121561201a57600080fd5b505081359360208301359350604090920135919050565b60008060006060848603121561204657600080fd5b61204f84611fbf565b925061205d60208501611fbf565b9150604084013590509250925092565b634e487b7160e01b600052604160045260246000fd5b600067ffffffffffffffff8084111561209e5761209e61206d565b604051601f8501601f19908116603f011681019082821181831017156120c6576120c661206d565b816040528093508581528686860111156120df57600080fd5b858560208301376000602087830101525050509392505050565b60008060006060848603121561210e57600080fd5b833567ffffffffffffffff81111561212557600080fd5b8401601f8101861361213657600080fd5b61214586823560208401612083565b9660208601359650604090950135949350505050565b60006020828403121561216d57600080fd5b6119d482611fbf565b6000806040838503121561218957600080fd5b61219283611fbf565b9150602083013580151581146121a757600080fd5b809150509250929050565b60a0815260006121c560a0830188611f67565b90508560208301528460408301528360608301528260808301529695505050505050565b600080600080608085870312156121ff57600080fd5b61220885611fbf565b935061221660208601611fbf565b925060408501359150606085013567ffffffffffffffff81111561223957600080fd5b8501601f8101871361224a57600080fd5b61225987823560208401612083565b91505092959194509250565b6000806040838503121561227857600080fd5b61228183611fbf565b915061228f60208401611fbf565b90509250929050565b600181811c908216806122ac57607f821691505b602082108114156122cd57634e487b7160e01b600052602260045260246000fd5b50919050565b60208082526010908201526f2bb937b7339021b7b63632b1ba34b7b760811b604082015260600190565b634e487b7160e01b600052601160045260246000fd5b600082821015612325576123256122fd565b500390565b634e487b7160e01b600052603260045260246000fd5b6020808252602e908201527f4552433732313a2063616c6c6572206973206e6f7420746f6b656e206f776e6560408201526d1c881b9bdc88185c1c1c9bdd995960921b606082015260800190565b600082198211156123a1576123a16122fd565b500190565b60208082526032908201527f4552433732313a207472616e7366657220746f206e6f6e20455243373231526560408201527131b2b4bb32b91034b6b83632b6b2b73a32b960711b606082015260800190565b6000835161240a818460208801611f3b565b83519083019061241e818360208801611f3b565b01949350505050565b6001600160a01b038581168252841660208201526040810183905260806060820181905260009061245a90830184611f67565b9695505050505050565b60006020828403121561247657600080fd5b81516119d481611f08565b6000600019821415612495576124956122fd565b5060010190565b634e487b7160e01b600052601260045260246000fd5b6000826124c1576124c161249c565b500490565b6000826124d5576124d561249c565b500690565b634e487b7160e01b600052603160045260246000fdfea264697066735822122070cfb71f7588d74de2a807a95d4b24dad20e89f3993357cb0b4923c26640f35164736f6c634300080c0033",
  "linkReferences": {},
  "deployedLinkReferences": {}
}