{
  "_format": "hh-sol-artifact-1",
  "contractName": "NFTCollection",
  "sourceName": "src/backend/contracts/_NFTCollection.sol",
  "abi": [
    {
      "inputs": [
        {
          "internalType": "address",
          "name": "_mainContract",
          "type": "address"
        },
        {
          "internalType": "string",
          "name": "_name",
          "type": "string"
        },
        {
          "internalType": "string",
          "name": "_symbol",
          "type": "string"
        },
        {
          "internalType": "address",
          "name": "_owner",
          "type": "address"
        },
        {
          "internalType": "contract IWorldID",
          "name": "_worldId",
          "type": "address"
        }
      ],
      "stateMutability": "nonpayable",
      "type": "constructor"
    },
    {
      "inputs": [],
      "name": "InvalidNullifier",
      "type": "error"
    },
    {
      "anonymous": false,
      "inputs": [
        {
          "indexed": true,
          "internalType": "address",
          "name": "account",
          "type": "address"
        },
        {
          "indexed": true,
          "internalType": "address",
          "name": "operator",
          "type": "address"
        },
        {
          "indexed": false,
          "internalType": "bool",
          "name": "approved",
          "type": "bool"
        }
      ],
      "name": "ApprovalForAll",
      "type": "event"
    },
    {
      "anonymous": false,
      "inputs": [
        {
          "indexed": true,
          "internalType": "address",
          "name": "previousOwner",
          "type": "address"
        },
        {
          "indexed": true,
          "internalType": "address",
          "name": "newOwner",
          "type": "address"
        }
      ],
      "name": "OwnershipTransferred",
      "type": "event"
    },
    {
      "anonymous": false,
      "inputs": [
        {
          "indexed": false,
          "internalType": "address",
          "name": "account",
          "type": "address"
        }
      ],
      "name": "Paused",
      "type": "event"
    },
    {
      "anonymous": false,
      "inputs": [
        {
          "indexed": true,
          "internalType": "address",
          "name": "operator",
          "type": "address"
        },
        {
          "indexed": true,
          "internalType": "address",
          "name": "from",
          "type": "address"
        },
        {
          "indexed": true,
          "internalType": "address",
          "name": "to",
          "type": "address"
        },
        {
          "indexed": false,
          "internalType": "uint256[]",
          "name": "ids",
          "type": "uint256[]"
        },
        {
          "indexed": false,
          "internalType": "uint256[]",
          "name": "values",
          "type": "uint256[]"
        }
      ],
      "name": "TransferBatch",
      "type": "event"
    },
    {
      "anonymous": false,
      "inputs": [
        {
          "indexed": true,
          "internalType": "address",
          "name": "operator",
          "type": "address"
        },
        {
          "indexed": true,
          "internalType": "address",
          "name": "from",
          "type": "address"
        },
        {
          "indexed": true,
          "internalType": "address",
          "name": "to",
          "type": "address"
        },
        {
          "indexed": false,
          "internalType": "uint256",
          "name": "id",
          "type": "uint256"
        },
        {
          "indexed": false,
          "internalType": "uint256",
          "name": "value",
          "type": "uint256"
        }
      ],
      "name": "TransferSingle",
      "type": "event"
    },
    {
      "anonymous": false,
      "inputs": [
        {
          "indexed": false,
          "internalType": "string",
          "name": "value",
          "type": "string"
        },
        {
          "indexed": true,
          "internalType": "uint256",
          "name": "id",
          "type": "uint256"
        }
      ],
      "name": "URI",
      "type": "event"
    },
    {
      "anonymous": false,
      "inputs": [
        {
          "indexed": false,
          "internalType": "address",
          "name": "account",
          "type": "address"
        }
      ],
      "name": "Unpaused",
      "type": "event"
    },
    {
      "inputs": [
        {
          "internalType": "address",
          "name": "account",
          "type": "address"
        },
        {
          "internalType": "uint256",
          "name": "id",
          "type": "uint256"
        }
      ],
      "name": "balanceOf",
      "outputs": [
        {
          "internalType": "uint256",
          "name": "",
          "type": "uint256"
        }
      ],
      "stateMutability": "view",
      "type": "function"
    },
    {
      "inputs": [
        {
          "internalType": "address[]",
          "name": "accounts",
          "type": "address[]"
        },
        {
          "internalType": "uint256[]",
          "name": "ids",
          "type": "uint256[]"
        }
      ],
      "name": "balanceOfBatch",
      "outputs": [
        {
          "internalType": "uint256[]",
          "name": "",
          "type": "uint256[]"
        }
      ],
      "stateMutability": "view",
      "type": "function"
    },
    {
      "inputs": [
        {
          "internalType": "uint256",
          "name": "_collectionId",
          "type": "uint256"
        }
      ],
      "name": "cancelDistributionCampaign",
      "outputs": [],
      "stateMutability": "nonpayable",
      "type": "function"
    },
    {
      "inputs": [
        {
          "internalType": "uint256",
          "name": "",
          "type": "uint256"
        }
      ],
      "name": "collections",
      "outputs": [
        {
          "internalType": "string",
          "name": "title",
          "type": "string"
        },
        {
          "internalType": "string",
          "name": "jsonUri",
          "type": "string"
        },
        {
          "internalType": "string",
          "name": "mediaUri",
          "type": "string"
        },
        {
          "internalType": "uint256",
          "name": "id",
          "type": "uint256"
        },
        {
          "internalType": "uint256",
          "name": "price",
          "type": "uint256"
        },
        {
          "internalType": "uint256",
          "name": "supply",
          "type": "uint256"
        },
        {
          "internalType": "uint256",
          "name": "mintedTotal",
          "type": "uint256"
        },
        {
          "components": [
            {
              "internalType": "address",
              "name": "account",
              "type": "address"
            },
            {
              "internalType": "uint256",
              "name": "percent",
              "type": "uint256"
            }
          ],
          "internalType": "struct NFTCollection.CollectionRoyalty",
          "name": "royalty",
          "type": "tuple"
        },
        {
          "components": [
            {
              "internalType": "uint256",
              "name": "dateStart",
              "type": "uint256"
            },
            {
              "internalType": "uint256",
              "name": "dateEnd",
              "type": "uint256"
            },
            {
              "internalType": "uint256",
              "name": "eventCode",
              "type": "uint256"
            },
            {
              "internalType": "enum NFTCollection.DistributionType",
              "name": "distType",
              "type": "uint8"
            },
            {
              "internalType": "address[]",
              "name": "whitelist",
              "type": "address[]"
            },
            {
              "internalType": "string",
              "name": "worldcoinAction",
              "type": "string"
            }
          ],
          "internalType": "struct NFTCollection.DistributionCampaign",
          "name": "distribution",
          "type": "tuple"
        }
      ],
      "stateMutability": "view",
      "type": "function"
    },
    {
      "inputs": [],
      "name": "collectionsTotal",
      "outputs": [
        {
          "internalType": "uint256",
          "name": "",
          "type": "uint256"
        }
      ],
      "stateMutability": "view",
      "type": "function"
    },
    {
      "inputs": [
        {
          "internalType": "uint256",
          "name": "_collectionId",
          "type": "uint256"
        },
        {
          "internalType": "enum NFTCollection.DistributionType",
          "name": "_distType",
          "type": "uint8"
        },
        {
          "internalType": "uint256",
          "name": "_dateStart",
          "type": "uint256"
        },
        {
          "internalType": "uint256",
          "name": "_dateEnd",
          "type": "uint256"
        },
        {
          "internalType": "address[]",
          "name": "_whitelist",
          "type": "address[]"
        },
        {
          "internalType": "string",
          "name": "_worldcoinAction",
          "type": "string"
        }
      ],
      "name": "createDistributionCampaign",
      "outputs": [],
      "stateMutability": "nonpayable",
      "type": "function"
    },
    {
      "inputs": [
        {
          "internalType": "uint256",
          "name": "id",
          "type": "uint256"
        }
      ],
      "name": "exists",
      "outputs": [
        {
          "internalType": "bool",
          "name": "",
          "type": "bool"
        }
      ],
      "stateMutability": "view",
      "type": "function"
    },
    {
      "inputs": [],
      "name": "getCollections",
      "outputs": [
        {
          "components": [
            {
              "internalType": "string",
              "name": "title",
              "type": "string"
            },
            {
              "internalType": "string",
              "name": "jsonUri",
              "type": "string"
            },
            {
              "internalType": "string",
              "name": "mediaUri",
              "type": "string"
            },
            {
              "internalType": "uint256",
              "name": "id",
              "type": "uint256"
            },
            {
              "internalType": "uint256",
              "name": "price",
              "type": "uint256"
            },
            {
              "internalType": "uint256",
              "name": "supply",
              "type": "uint256"
            },
            {
              "internalType": "uint256",
              "name": "mintedTotal",
              "type": "uint256"
            },
            {
              "components": [
                {
                  "internalType": "address",
                  "name": "account",
                  "type": "address"
                },
                {
                  "internalType": "uint256",
                  "name": "percent",
                  "type": "uint256"
                }
              ],
              "internalType": "struct NFTCollection.CollectionRoyalty",
              "name": "royalty",
              "type": "tuple"
            },
            {
              "components": [
                {
                  "internalType": "uint256",
                  "name": "dateStart",
                  "type": "uint256"
                },
                {
                  "internalType": "uint256",
                  "name": "dateEnd",
                  "type": "uint256"
                },
                {
                  "internalType": "uint256",
                  "name": "eventCode",
                  "type": "uint256"
                },
                {
                  "internalType": "enum NFTCollection.DistributionType",
                  "name": "distType",
                  "type": "uint8"
                },
                {
                  "internalType": "address[]",
                  "name": "whitelist",
                  "type": "address[]"
                },
                {
                  "internalType": "string",
                  "name": "worldcoinAction",
                  "type": "string"
                }
              ],
              "internalType": "struct NFTCollection.DistributionCampaign",
              "name": "distribution",
              "type": "tuple"
            }
          ],
          "internalType": "struct NFTCollection.Collection[]",
          "name": "",
          "type": "tuple[]"
        }
      ],
      "stateMutability": "view",
      "type": "function"
    },
    {
      "inputs": [
        {
          "internalType": "address",
          "name": "account",
          "type": "address"
        },
        {
          "internalType": "address",
          "name": "operator",
          "type": "address"
        }
      ],
      "name": "isApprovedForAll",
      "outputs": [
        {
          "internalType": "bool",
          "name": "",
          "type": "bool"
        }
      ],
      "stateMutability": "view",
      "type": "function"
    },
    {
      "inputs": [
        {
          "internalType": "address",
          "name": "_account",
          "type": "address"
        },
        {
          "internalType": "uint256",
          "name": "_collectionId",
          "type": "uint256"
        },
        {
          "internalType": "uint256",
          "name": "_amount",
          "type": "uint256"
        }
      ],
      "name": "mint",
      "outputs": [],
      "stateMutability": "nonpayable",
      "type": "function"
    },
    {
      "inputs": [],
      "name": "mintedTotal",
      "outputs": [
        {
          "internalType": "uint256",
          "name": "",
          "type": "uint256"
        }
      ],
      "stateMutability": "view",
      "type": "function"
    },
    {
      "inputs": [],
      "name": "name",
      "outputs": [
        {
          "internalType": "string",
          "name": "",
          "type": "string"
        }
      ],
      "stateMutability": "view",
      "type": "function"
    },
    {
      "inputs": [
        {
          "internalType": "string",
          "name": "_jsonUri",
          "type": "string"
        },
        {
          "internalType": "string",
          "name": "_mediaUri",
          "type": "string"
        },
        {
          "internalType": "string",
          "name": "_title",
          "type": "string"
        },
        {
          "internalType": "uint256",
          "name": "_price",
          "type": "uint256"
        },
        {
          "internalType": "uint256",
          "name": "_supply",
          "type": "uint256"
        },
        {
          "components": [
            {
              "internalType": "address",
              "name": "account",
              "type": "address"
            },
            {
              "internalType": "uint256",
              "name": "percent",
              "type": "uint256"
            }
          ],
          "internalType": "struct NFTCollection.CollectionRoyalty",
          "name": "_royalty",
          "type": "tuple"
        }
      ],
      "name": "newCollectionItem",
      "outputs": [],
      "stateMutability": "nonpayable",
      "type": "function"
    },
    {
      "inputs": [],
      "name": "owner",
      "outputs": [
        {
          "internalType": "address",
          "name": "",
          "type": "address"
        }
      ],
      "stateMutability": "view",
      "type": "function"
    },
    {
      "inputs": [],
      "name": "pause",
      "outputs": [],
      "stateMutability": "nonpayable",
      "type": "function"
    },
    {
      "inputs": [],
      "name": "paused",
      "outputs": [
        {
          "internalType": "bool",
          "name": "",
          "type": "bool"
        }
      ],
      "stateMutability": "view",
      "type": "function"
    },
    {
      "inputs": [
        {
          "internalType": "uint256",
          "name": "_communityId",
          "type": "uint256"
        },
        {
          "internalType": "uint256",
          "name": "_collectionId",
          "type": "uint256"
        },
        {
          "internalType": "uint256",
          "name": "_amount",
          "type": "uint256"
        },
        {
          "internalType": "uint256",
          "name": "_eventCode",
          "type": "uint256"
        },
        {
          "internalType": "string",
          "name": "_email",
          "type": "string"
        },
        {
          "internalType": "uint256",
          "name": "root",
          "type": "uint256"
        },
        {
          "internalType": "uint256",
          "name": "nullifierHash",
          "type": "uint256"
        },
        {
          "internalType": "uint256[8]",
          "name": "proof",
          "type": "uint256[8]"
        }
      ],
      "name": "payToMint",
      "outputs": [],
      "stateMutability": "payable",
      "type": "function"
    },
    {
      "inputs": [],
      "name": "renounceOwnership",
      "outputs": [],
      "stateMutability": "nonpayable",
      "type": "function"
    },
    {
      "inputs": [
        {
          "internalType": "address",
          "name": "from",
          "type": "address"
        },
        {
          "internalType": "address",
          "name": "to",
          "type": "address"
        },
        {
          "internalType": "uint256[]",
          "name": "ids",
          "type": "uint256[]"
        },
        {
          "internalType": "uint256[]",
          "name": "amounts",
          "type": "uint256[]"
        },
        {
          "internalType": "bytes",
          "name": "data",
          "type": "bytes"
        }
      ],
      "name": "safeBatchTransferFrom",
      "outputs": [],
      "stateMutability": "nonpayable",
      "type": "function"
    },
    {
      "inputs": [
        {
          "internalType": "address",
          "name": "from",
          "type": "address"
        },
        {
          "internalType": "address",
          "name": "to",
          "type": "address"
        },
        {
          "internalType": "uint256",
          "name": "id",
          "type": "uint256"
        },
        {
          "internalType": "uint256",
          "name": "amount",
          "type": "uint256"
        },
        {
          "internalType": "bytes",
          "name": "data",
          "type": "bytes"
        }
      ],
      "name": "safeTransferFrom",
      "outputs": [],
      "stateMutability": "nonpayable",
      "type": "function"
    },
    {
      "inputs": [
        {
          "internalType": "address",
          "name": "operator",
          "type": "address"
        },
        {
          "internalType": "bool",
          "name": "approved",
          "type": "bool"
        }
      ],
      "name": "setApprovalForAll",
      "outputs": [],
      "stateMutability": "nonpayable",
      "type": "function"
    },
    {
      "inputs": [
        {
          "internalType": "bytes4",
          "name": "interfaceId",
          "type": "bytes4"
        }
      ],
      "name": "supportsInterface",
      "outputs": [
        {
          "internalType": "bool",
          "name": "",
          "type": "bool"
        }
      ],
      "stateMutability": "view",
      "type": "function"
    },
    {
      "inputs": [],
      "name": "symbol",
      "outputs": [
        {
          "internalType": "string",
          "name": "",
          "type": "string"
        }
      ],
      "stateMutability": "view",
      "type": "function"
    },
    {
      "inputs": [
        {
          "internalType": "uint256",
          "name": "id",
          "type": "uint256"
        }
      ],
      "name": "totalSupply",
      "outputs": [
        {
          "internalType": "uint256",
          "name": "",
          "type": "uint256"
        }
      ],
      "stateMutability": "view",
      "type": "function"
    },
    {
      "inputs": [
        {
          "internalType": "address",
          "name": "newOwner",
          "type": "address"
        }
      ],
      "name": "transferOwnership",
      "outputs": [],
      "stateMutability": "nonpayable",
      "type": "function"
    },
    {
      "inputs": [],
      "name": "unpause",
      "outputs": [],
      "stateMutability": "nonpayable",
      "type": "function"
    },
    {
      "inputs": [
        {
          "internalType": "uint256",
          "name": "_collectionId",
          "type": "uint256"
        },
        {
          "internalType": "uint256",
          "name": "_price",
          "type": "uint256"
        },
        {
          "internalType": "uint256",
          "name": "_supply",
          "type": "uint256"
        },
        {
          "components": [
            {
              "internalType": "address",
              "name": "account",
              "type": "address"
            },
            {
              "internalType": "uint256",
              "name": "percent",
              "type": "uint256"
            }
          ],
          "internalType": "struct NFTCollection.CollectionRoyalty",
          "name": "_royalty",
          "type": "tuple"
        }
      ],
      "name": "updateCollectionItem",
      "outputs": [],
      "stateMutability": "nonpayable",
      "type": "function"
    },
    {
      "inputs": [
        {
          "internalType": "uint256",
          "name": "_tokenId",
          "type": "uint256"
        }
      ],
      "name": "uri",
      "outputs": [
        {
          "internalType": "string",
          "name": "",
          "type": "string"
        }
      ],
      "stateMutability": "view",
      "type": "function"
    }
  ],
  "bytecode": "0x60a060405260016080523480156200001657600080fd5b5060405162003f1c38038062003f1c8339810160408190526200003991620003b2565b6040805160208101909152600081526200005381620000dd565b506200005f33620000f6565b6003805460ff60a01b19169055620000778262000148565b83516200008c90600690602087019062000229565b508251620000a290600790602086019062000229565b50600b80546001600160a01b039283166001600160a01b0319918216179091556005805496909216951694909417909355506200049b915050565b8051620000f290600290602084019062000229565b5050565b600380546001600160a01b038381166001600160a01b0319831681179093556040519116919082907f8be0079c531659141344cd1fd0a4f28419497f9722a3daafe3b4186f6b6457e090600090a35050565b62000152620001cb565b6001600160a01b038116620001bd5760405162461bcd60e51b815260206004820152602660248201527f4f776e61626c653a206e6577206f776e657220697320746865207a65726f206160448201526564647265737360d01b60648201526084015b60405180910390fd5b620001c881620000f6565b50565b6003546001600160a01b03163314620002275760405162461bcd60e51b815260206004820181905260248201527f4f776e61626c653a2063616c6c6572206973206e6f7420746865206f776e65726044820152606401620001b4565b565b82805462000237906200045e565b90600052602060002090601f0160209004810192826200025b5760008555620002a6565b82601f106200027657805160ff1916838001178555620002a6565b82800160010185558215620002a6579182015b82811115620002a657825182559160200191906001019062000289565b50620002b4929150620002b8565b5090565b5b80821115620002b45760008155600101620002b9565b6001600160a01b0381168114620001c857600080fd5b634e487b7160e01b600052604160045260246000fd5b600082601f8301126200030d57600080fd5b81516001600160401b03808211156200032a576200032a620002e5565b604051601f8301601f19908116603f01168101908282118183101715620003555762000355620002e5565b816040528381526020925086838588010111156200037257600080fd5b600091505b8382101562000396578582018301518183018401529082019062000377565b83821115620003a85760008385830101525b9695505050505050565b600080600080600060a08688031215620003cb57600080fd5b8551620003d881620002cf565b60208701519095506001600160401b0380821115620003f657600080fd5b6200040489838a01620002fb565b955060408801519150808211156200041b57600080fd5b506200042a88828901620002fb565b93505060608601516200043d81620002cf565b60808701519092506200045081620002cf565b809150509295509295909350565b600181811c908216806200047357607f821691505b602082108114156200049557634e487b7160e01b600052602260045260246000fd5b50919050565b608051613a65620004b760003960006117c50152613a656000f3fe6080604052600436106101b65760003560e01c80635e7ea74c116100ec578063bd85b0391161008a578063f242432a11610064578063f242432a146104fd578063f2fde38b1461051d578063f944a55f1461053d578063fdbda0ec1461055057600080fd5b8063bd85b03914610467578063cb27d43f14610494578063e985e9c5146104b457600080fd5b8063891aaf68116100c6578063891aaf68146103f45780638da5cb5b1461040a57806395d89b4114610432578063a22cb4651461044757600080fd5b80635e7ea74c146103aa578063715018a6146103ca5780638456cb59146103df57600080fd5b8063360ca3b91161015957806346e635861161013357806346e635861461030d5780634e1273f41461032f5780634f558e791461035c5780635c975abb1461038b57600080fd5b8063360ca3b9146102b8578063381da488146102d85780633f4ba83a146102f857600080fd5b80630e89341c116101955780630e89341c14610240578063156e29f6146102605780632e17af07146102825780632eb2c2d61461029857600080fd5b8062fdd58e146101bb57806301ffc9a7146101ee57806306fdde031461021e575b600080fd5b3480156101c757600080fd5b506101db6101d6366004612bd1565b610585565b6040519081526020015b60405180910390f35b3480156101fa57600080fd5b5061020e610209366004612c11565b61061b565b60405190151581526020016101e5565b34801561022a57600080fd5b5061023361066d565b6040516101e59190612c86565b34801561024c57600080fd5b5061023361025b366004612c99565b6106fb565b34801561026c57600080fd5b5061028061027b366004612cb2565b6107c1565b005b34801561028e57600080fd5b506101db60085481565b3480156102a457600080fd5b506102806102b3366004612e31565b610935565b3480156102c457600080fd5b506102806102d3366004612f48565b610981565b3480156102e457600080fd5b506102806102f3366004612c99565b610aaa565b34801561030457600080fd5b50610280610b63565b34801561031957600080fd5b50610322610b75565b6040516101e591906130a9565b34801561033b57600080fd5b5061034f61034a3660046131b3565b610f5f565b6040516101e59190613252565b34801561036857600080fd5b5061020e610377366004612c99565b600090815260046020526040902054151590565b34801561039757600080fd5b50600354600160a01b900460ff1661020e565b3480156103b657600080fd5b506102806103c53660046132bc565b611089565b3480156103d657600080fd5b5061028061122c565b3480156103eb57600080fd5b5061028061123e565b34801561040057600080fd5b506101db60095481565b34801561041657600080fd5b506003546040516001600160a01b0390911681526020016101e5565b34801561043e57600080fd5b5061023361124e565b34801561045357600080fd5b506102806104623660046132fc565b61125b565b34801561047357600080fd5b506101db610482366004612c99565b60009081526004602052604090205490565b3480156104a057600080fd5b506102806104af366004613338565b61126a565b3480156104c057600080fd5b5061020e6104cf3660046133e4565b6001600160a01b03918216600090815260016020908152604080832093909416825291909152205460ff1690565b34801561050957600080fd5b50610280610518366004613417565b6114f2565b34801561052957600080fd5b5061028061053836600461347c565b611537565b61028061054b366004613497565b6115b0565b34801561055c57600080fd5b5061057061056b366004612c99565b611a94565b6040516101e599989796959493929190613528565b60006001600160a01b0383166105f55760405162461bcd60e51b815260206004820152602a60248201527f455243313135353a2061646472657373207a65726f206973206e6f742061207660448201526930b634b21037bbb732b960b11b60648201526084015b60405180910390fd5b506000908152602081815260408083206001600160a01b03949094168352929052205490565b60006001600160e01b03198216636cdb3d1360e11b148061064c57506001600160e01b031982166303a24d0760e21b145b8061066757506301ffc9a760e01b6001600160e01b03198316145b92915050565b6006805461067a906135c1565b80601f01602080910402602001604051908101604052809291908181526020018280546106a6906135c1565b80156106f35780601f106106c8576101008083540402835291602001916106f3565b820191906000526020600020905b8154815290600101906020018083116106d657829003601f168201915b505050505081565b60606000600a61070c600185613612565b8154811061071c5761071c613629565b90600052602060002090600f0201905080600101805461073b906135c1565b80601f0160208091040260200160405190810160405280929190818152602001828054610767906135c1565b80156107b45780601f10610789576101008083540402835291602001916107b4565b820191906000526020600020905b81548152906001019060200180831161079757829003601f168201915b5050505050915050919050565b6107c9611e00565b6000811161080d5760405162461bcd60e51b815260206004820152601160248201527015dc9bdb99c81b5a5b9d08185b5bdd5b9d607a1b60448201526064016105ec565b6001600160a01b0383166108635760405162461bcd60e51b815260206004820181905260248201527f57726f6e672064657374696e6174696f6e2077616c6c6574204164647265737360448201526064016105ec565b6000600a61087084611e5a565b8154811061088057610880613629565b90600052602060002090600f020190506000816005015411156108f9578181600601546108ad919061363f565b816005015410156108f95760405162461bcd60e51b8152602060048201526016602482015275139bdd08195b9bdd59da081cdd5c1c1b1e481b19599d60521b60448201526064016105ec565b8181600601600082825461090d919061363f565b9250508190555061092f84848460405180602001604052806000815250611eb7565b50505050565b6001600160a01b038516331480610951575061095185336104cf565b61096d5760405162461bcd60e51b81526004016105ec90613657565b61097a8585858585611fda565b5050505050565b610989611e00565b6000600a61099688611e5a565b815481106109a6576109a6613629565b600091825260208220600f90910201915060048760058111156109cb576109cb612fde565b14156109e2576109df620f423f60016121c5565b90505b6040518060c00160405280878152602001868152602001828152602001886005811115610a1157610a11612fde565b81526020808201879052604091820186905282516009860190815590830151600a86015590820151600b8501556060820151600c8501805460ff19166001836005811115610a6157610a61612fde565b021790555060808201518051610a81916004840191602090910190612a80565b5060a08201518051610a9d916005840191602090910190612ae5565b5050505050505050505050565b610ab2611e00565b6000600a610abf83611e5a565b81548110610acf57610acf613629565b90600052602060002090600f02019050610ae7612234565b8051600983019081556020820151600a8401556040820151600b8401556060820151600c8401805460ff19166001836005811115610b2757610b27612fde565b021790555060808201518051610b47916004840191602090910190612a80565b5060a0820151805161097a916005840191602090910190612ae5565b610b6b611e00565b610b736122ba565b565b6060600a805480602002602001604051908101604052809291908181526020016000905b82821015610f5657838290600052602060002090600f020160405180610120016040529081600082018054610bcd906135c1565b80601f0160208091040260200160405190810160405280929190818152602001828054610bf9906135c1565b8015610c465780601f10610c1b57610100808354040283529160200191610c46565b820191906000526020600020905b815481529060010190602001808311610c2957829003601f168201915b50505050508152602001600182018054610c5f906135c1565b80601f0160208091040260200160405190810160405280929190818152602001828054610c8b906135c1565b8015610cd85780601f10610cad57610100808354040283529160200191610cd8565b820191906000526020600020905b815481529060010190602001808311610cbb57829003601f168201915b50505050508152602001600282018054610cf1906135c1565b80601f0160208091040260200160405190810160405280929190818152602001828054610d1d906135c1565b8015610d6a5780601f10610d3f57610100808354040283529160200191610d6a565b820191906000526020600020905b815481529060010190602001808311610d4d57829003601f168201915b5050505050815260200160038201548152602001600482015481526020016005820154815260200160068201548152602001600782016040518060400160405290816000820160009054906101000a90046001600160a01b03166001600160a01b03166001600160a01b031681526020016001820154815250508152602001600982016040518060c00160405290816000820154815260200160018201548152602001600282015481526020016003820160009054906101000a900460ff166005811115610e3a57610e3a612fde565b6005811115610e4b57610e4b612fde565b815260200160048201805480602002602001604051908101604052809291908181526020018280548015610ea857602002820191906000526020600020905b81546001600160a01b03168152600190910190602001808311610e8a575b50505050508152602001600582018054610ec1906135c1565b80601f0160208091040260200160405190810160405280929190818152602001828054610eed906135c1565b8015610f3a5780601f10610f0f57610100808354040283529160200191610f3a565b820191906000526020600020905b815481529060010190602001808311610f1d57829003601f168201915b5050505050815250508152505081526020019060010190610b99565b50505050905090565b60608151835114610fc45760405162461bcd60e51b815260206004820152602960248201527f455243313135353a206163636f756e747320616e6420696473206c656e677468604482015268040dad2e6dac2e8c6d60bb1b60648201526084016105ec565b6000835167ffffffffffffffff811115610fe057610fe0612ce5565b604051908082528060200260200182016040528015611009578160200160208202803683370190505b50905060005b84518110156110815761105485828151811061102d5761102d613629565b602002602001015185838151811061104757611047613629565b6020026020010151610585565b82828151811061106657611066613629565b602090810291909101015261107a816136a6565b905061100f565b509392505050565b611091611e00565b6000600a61109e86611e5a565b815481106110ae576110ae613629565b60009182526020909120600f90910201905082156111245780600601548310156111245760405162461bcd60e51b815260206004820152602160248201527f537570706c79206973206c6573732074686174206d696e74656420616d6f756e6044820152601d60fa1b60648201526084016105ec565b81516001600160a01b0316156111ec5760008260200151116111885760405162461bcd60e51b815260206004820152601e60248201527f506c656173652070726f7669646520726f79616c74792070657263656e74000060448201526064016105ec565b605a826020015111156111ec5760405162461bcd60e51b815260206004820152602660248201527f526f79616c74792070657263656e742063616e2774206265206d6f7265207468604482015265616e2039302560d01b60648201526084016105ec565b6004810193909355600583019190915580516007830180546001600160a01b0319166001600160a01b039092169190911790556020015160089091015550565b611234611e00565b610b73600061230f565b611246611e00565b610b73612361565b6007805461067a906135c1565b6112663383836123a4565b5050565b611272611e00565b60008651116112b45760405162461bcd60e51b815260206004820152600e60248201526d57726f6e67206a736f6e2055524960901b60448201526064016105ec565b60008551116112f75760405162461bcd60e51b815260206004820152600f60248201526e57726f6e67206d656469612055524960881b60448201526064016105ec565b80516001600160a01b03161561137b57600081602001511180156113205750605a816020015111155b61137b5760405162461bcd60e51b815260206004820152602660248201527f506c656173652070726f7669646520636f727265637420726f79616c74792070604482015265195c98d95b9d60d21b60648201526084016105ec565b60016008600082825461138e919061363f565b92505081905550600a6040518061012001604052808681526020018881526020018781526020016008548152602001858152602001848152602001600081526020018381526020016113de612234565b905281546001810183556000928352602092839020825180519394600f9093029091019261140f9284920190612ae5565b5060208281015180516114289260018501920190612ae5565b5060408201518051611444916002840191602090910190612ae5565b5060608281015160038301556080830151600483015560a083015160058084019190915560c0840151600684015560e084015180516007850180546001600160a01b0319166001600160a01b03909216919091179055602090810151600885015561010085015180516009860190815591810151600a8601556040810151600b86015592830151600c8501805492939192909160ff19909116906001908490811115610a6157610a61612fde565b6001600160a01b03851633148061150e575061150e85336104cf565b61152a5760405162461bcd60e51b81526004016105ec90613657565b61097a8585858585612485565b61153f611e00565b6001600160a01b0381166115a45760405162461bcd60e51b815260206004820152602660248201527f4f776e61626c653a206e6577206f776e657220697320746865207a65726f206160448201526564647265737360d01b60648201526084016105ec565b6115ad8161230f565b50565b6115b86125bd565b6000600a6115c589611e5a565b815481106115d5576115d5613629565b90600052602060002090600f02019050600087116116295760405162461bcd60e51b815260206004820152601160248201527015dc9bdb99c81b5a5b9d08185b5bdd5b9d607a1b60448201526064016105ec565b60058101541561168f57868160060154611643919061363f565b8160050154101561168f5760405162461bcd60e51b8152602060048201526016602482015275139bdd08195b9bdd59da081cdd5c1c1b1e481b19599d60521b60448201526064016105ec565b6004810154156116fa5760008160040154886116ab91906136c1565b9050803410156116f45760405162461bcd60e51b815260206004820152601460248201527315dc9bdb99c81c185e5b595b9d08185b5bdd5b9d60621b60448201526064016105ec565b5061174a565b8660011461174a5760405162461bcd60e51b815260206004820152601e60248201527f596f752063616e2774206d696e74206d6f7265207468616e2031204e4654000060448201526064016105ec565b600081600901600501805461175e906135c1565b90501115611891576000838152600c602052604090205460ff161561179657604051632ec8265960e11b815260040160405180910390fd5b600b546040516001600160601b03193360601b1660208201526001600160a01b0390911690633bc778e39086907f000000000000000000000000000000000000000000000000000000000000000090611801906034015b60405160208183030381529060405261260a565b6040516001600160601b03193060601b1660208201528890611825906034016117ed565b886040518763ffffffff1660e01b8152600401611847969594939291906136e0565b60006040518083038186803b15801561185f57600080fd5b505afa158015611873573d6000803e3d6000fd5b5050506000848152600c60205260409020805460ff19166001179055505b6004600c82015460ff1660058111156118ac576118ac612fde565b14156118f857600b81015486146118f85760405162461bcd60e51b815260206004820152601060248201526f57726f6e67204576656e7420436f646560801b60448201526064016105ec565b60078101546001600160a01b0316156119d057600881015460009060649061192090346136c1565b61192a9190613732565b60078301546040519192506000916001600160a01b039091169083908381818185875af1925050503d806000811461197e576040519150601f19603f3d011682016040523d82523d6000602084013e611983565b606091505b50509050806119cd5760405162461bcd60e51b81526020600482015260166024820152754661696c656420746f2073656e6420726f79616c747960501b60448201526064016105ec565b50505b868160060160008282546119e4919061363f565b9250508190555086600960008282546119fd919061363f565b92505081905550611a1f33898960405180602001604052806000815250611eb7565b6005546040516313c977bb60e21b81526001600160a01b0390911690634f25deec90611a5790339089908e908e903490600401613746565b600060405180830381600087803b158015611a7157600080fd5b505af1158015611a85573d6000803e3d6000fd5b50505050505050505050505050565b600a8181548110611aa457600080fd5b90600052602060002090600f0201600091509050806000018054611ac7906135c1565b80601f0160208091040260200160405190810160405280929190818152602001828054611af3906135c1565b8015611b405780601f10611b1557610100808354040283529160200191611b40565b820191906000526020600020905b815481529060010190602001808311611b2357829003601f168201915b505050505090806001018054611b55906135c1565b80601f0160208091040260200160405190810160405280929190818152602001828054611b81906135c1565b8015611bce5780601f10611ba357610100808354040283529160200191611bce565b820191906000526020600020905b815481529060010190602001808311611bb157829003601f168201915b505050505090806002018054611be3906135c1565b80601f0160208091040260200160405190810160405280929190818152602001828054611c0f906135c1565b8015611c5c5780601f10611c3157610100808354040283529160200191611c5c565b820191906000526020600020905b815481529060010190602001808311611c3f57829003601f168201915b5050505060038301546004840154600580860154600687015460408051808201825260078a01546001600160a01b0316815260088a0154602080830191909152825160c08101845260098c0180548252600a8d015492820192909252600b8c015493810193909352600c8b0154999a979996985093969295909492939192606084019160ff1690811115611cf257611cf2612fde565b6005811115611d0357611d03612fde565b815260200160048201805480602002602001604051908101604052809291908181526020018280548015611d6057602002820191906000526020600020905b81546001600160a01b03168152600190910190602001808311611d42575b50505050508152602001600582018054611d79906135c1565b80601f0160208091040260200160405190810160405280929190818152602001828054611da5906135c1565b8015611df25780601f10611dc757610100808354040283529160200191611df2565b820191906000526020600020905b815481529060010190602001808311611dd557829003601f168201915b505050505081525050905089565b6003546001600160a01b03163314610b735760405162461bcd60e51b815260206004820181905260248201527f4f776e61626c653a2063616c6c6572206973206e6f7420746865206f776e657260448201526064016105ec565b60008082118015611e6d57506008548211155b611eac5760405162461bcd60e51b815260206004820152601060248201526f2bb937b7339021b7b63632b1ba34b7b760811b60448201526064016105ec565b610667600183613612565b6001600160a01b038416611f175760405162461bcd60e51b815260206004820152602160248201527f455243313135353a206d696e7420746f20746865207a65726f206164647265736044820152607360f81b60648201526084016105ec565b336000611f238561263f565b90506000611f308561263f565b9050611f418360008985858961268a565b6000868152602081815260408083206001600160a01b038b16845290915281208054879290611f7190849061363f565b909155505060408051878152602081018790526001600160a01b03808a1692600092918716917fc3d58168c5ae7397731d063d5bbf3d657854427343f4c083240f7aacaa2d0f62910160405180910390a4611fd1836000898989896126a0565b50505050505050565b815183511461203c5760405162461bcd60e51b815260206004820152602860248201527f455243313135353a2069647320616e6420616d6f756e7473206c656e677468206044820152670dad2e6dac2e8c6d60c31b60648201526084016105ec565b6001600160a01b0384166120625760405162461bcd60e51b81526004016105ec9061379f565b3361207181878787878761268a565b60005b845181101561215757600085828151811061209157612091613629565b6020026020010151905060008583815181106120af576120af613629565b602090810291909101810151600084815280835260408082206001600160a01b038e1683529093529190912054909150818110156120ff5760405162461bcd60e51b81526004016105ec906137e4565b6000838152602081815260408083206001600160a01b038e8116855292528083208585039055908b1682528120805484929061213c90849061363f565b9250508190555050505080612150906136a6565b9050612074565b50846001600160a01b0316866001600160a01b0316826001600160a01b03167f4a39dc06d4c0dbc64b70af90fd698a233a518aa5d07e595d983b8c0526c8f7fb87876040516121a792919061382e565b60405180910390a46121bd8187878787876127fc565b505050505050565b6040516001600160f81b031960f883901b1660208201526001600160601b03193360601b1660218201524460358201524260558201526001607582015260009083906095016040516020818303038152906040528051906020012060001c61222d919061385c565b9392505050565b61223c612b59565b6040518060c001604052806000815260200160008152602001600081526020016000600581111561226f5761226f612fde565b8152602001600060405190808252806020026020018201604052801561229f578160200160208202803683370190505b50815260408051602081810190925260008152910152919050565b6122c26128b7565b6003805460ff60a01b191690557f5db9ee0a495bf2e6ff9c91a7834c1ba4fdd244a5e8aa4e537bd38aeae4b073aa335b6040516001600160a01b03909116815260200160405180910390a1565b600380546001600160a01b038381166001600160a01b0319831681179093556040519116919082907f8be0079c531659141344cd1fd0a4f28419497f9722a3daafe3b4186f6b6457e090600090a35050565b6123696125bd565b6003805460ff60a01b1916600160a01b1790557f62e78cea01bee320cd4e420270b5ea74000d11b0c9f74754ebdbfc544b05a2586122f23390565b816001600160a01b0316836001600160a01b031614156124185760405162461bcd60e51b815260206004820152602960248201527f455243313135353a2073657474696e6720617070726f76616c20737461747573604482015268103337b91039b2b63360b91b60648201526084016105ec565b6001600160a01b03838116600081815260016020908152604080832094871680845294825291829020805460ff191686151590811790915591519182527f17307eab39ab6107e8899845ad3d59bd9653f200f220920489ca2b5937696c31910160405180910390a3505050565b6001600160a01b0384166124ab5760405162461bcd60e51b81526004016105ec9061379f565b3360006124b78561263f565b905060006124c48561263f565b90506124d483898985858961268a565b6000868152602081815260408083206001600160a01b038c168452909152902054858110156125155760405162461bcd60e51b81526004016105ec906137e4565b6000878152602081815260408083206001600160a01b038d8116855292528083208985039055908a1682528120805488929061255290849061363f565b909155505060408051888152602081018890526001600160a01b03808b16928c821692918816917fc3d58168c5ae7397731d063d5bbf3d657854427343f4c083240f7aacaa2d0f62910160405180910390a46125b2848a8a8a8a8a6126a0565b505050505050505050565b600354600160a01b900460ff1615610b735760405162461bcd60e51b815260206004820152601060248201526f14185d5cd8589b194e881c185d5cd95960821b60448201526064016105ec565b600060088260405160200161261f9190613870565b60408051601f198184030181529190528051602090910120901c92915050565b6040805160018082528183019092526060916000919060208083019080368337019050509050828160008151811061267957612679613629565b602090810291909101015292915050565b6126926125bd565b6121bd868686868686612907565b6001600160a01b0384163b156121bd5760405163f23a6e6160e01b81526001600160a01b0385169063f23a6e61906126e4908990899088908890889060040161388c565b6020604051808303816000875af192505050801561271f575060408051601f3d908101601f1916820190925261271c918101906138c6565b60015b6127cc5761272b6138e3565b806308c379a0141561276557506127406138ff565b8061274b5750612767565b8060405162461bcd60e51b81526004016105ec9190612c86565b505b60405162461bcd60e51b815260206004820152603460248201527f455243313135353a207472616e7366657220746f206e6f6e20455243313135356044820152732932b1b2b4bb32b91034b6b83632b6b2b73a32b960611b60648201526084016105ec565b6001600160e01b0319811663f23a6e6160e01b14611fd15760405162461bcd60e51b81526004016105ec90613989565b6001600160a01b0384163b156121bd5760405163bc197c8160e01b81526001600160a01b0385169063bc197c819061284090899089908890889088906004016139d1565b6020604051808303816000875af192505050801561287b575060408051601f3d908101601f19168201909252612878918101906138c6565b60015b6128875761272b6138e3565b6001600160e01b0319811663bc197c8160e01b14611fd15760405162461bcd60e51b81526004016105ec90613989565b600354600160a01b900460ff16610b735760405162461bcd60e51b815260206004820152601460248201527314185d5cd8589b194e881b9bdd081c185d5cd95960621b60448201526064016105ec565b6001600160a01b03851661298e5760005b835181101561298c5782818151811061293357612933613629565b60200260200101516004600086848151811061295157612951613629565b602002602001015181526020019081526020016000206000828254612976919061363f565b909155506129859050816136a6565b9050612918565b505b6001600160a01b0384166121bd5760005b8351811015611fd15760008482815181106129bc576129bc613629565b6020026020010151905060008483815181106129da576129da613629565b6020026020010151905060006004600084815260200190815260200160002054905081811015612a5d5760405162461bcd60e51b815260206004820152602860248201527f455243313135353a206275726e20616d6f756e74206578636565647320746f74604482015267616c537570706c7960c01b60648201526084016105ec565b60009283526004602052604090922091039055612a79816136a6565b905061299f565b828054828255906000526020600020908101928215612ad5579160200282015b82811115612ad557825182546001600160a01b0319166001600160a01b03909116178255602090920191600190910190612aa0565b50612ae1929150612ba0565b5090565b828054612af1906135c1565b90600052602060002090601f016020900481019282612b135760008555612ad5565b82601f10612b2c57805160ff1916838001178555612ad5565b82800160010185558215612ad5579182015b82811115612ad5578251825591602001919060010190612b3e565b6040518060c0016040528060008152602001600081526020016000815260200160006005811115612b8c57612b8c612fde565b815260200160608152602001606081525090565b5b80821115612ae15760008155600101612ba1565b80356001600160a01b0381168114612bcc57600080fd5b919050565b60008060408385031215612be457600080fd5b612bed83612bb5565b946020939093013593505050565b6001600160e01b0319811681146115ad57600080fd5b600060208284031215612c2357600080fd5b813561222d81612bfb565b60005b83811015612c49578181015183820152602001612c31565b8381111561092f5750506000910152565b60008151808452612c72816020860160208601612c2e565b601f01601f19169290920160200192915050565b60208152600061222d6020830184612c5a565b600060208284031215612cab57600080fd5b5035919050565b600080600060608486031215612cc757600080fd5b612cd084612bb5565b95602085013595506040909401359392505050565b634e487b7160e01b600052604160045260246000fd5b601f8201601f1916810167ffffffffffffffff81118282101715612d2157612d21612ce5565b6040525050565b600067ffffffffffffffff821115612d4257612d42612ce5565b5060051b60200190565b600082601f830112612d5d57600080fd5b81356020612d6a82612d28565b604051612d778282612cfb565b83815260059390931b8501820192828101915086841115612d9757600080fd5b8286015b84811015612db25780358352918301918301612d9b565b509695505050505050565b600082601f830112612dce57600080fd5b813567ffffffffffffffff811115612de857612de8612ce5565b604051612dff601f8301601f191660200182612cfb565b818152846020838601011115612e1457600080fd5b816020850160208301376000918101602001919091529392505050565b600080600080600060a08688031215612e4957600080fd5b612e5286612bb5565b9450612e6060208701612bb5565b9350604086013567ffffffffffffffff80821115612e7d57600080fd5b612e8989838a01612d4c565b94506060880135915080821115612e9f57600080fd5b612eab89838a01612d4c565b93506080880135915080821115612ec157600080fd5b50612ece88828901612dbd565b9150509295509295909350565b600082601f830112612eec57600080fd5b81356020612ef982612d28565b604051612f068282612cfb565b83815260059390931b8501820192828101915086841115612f2657600080fd5b8286015b84811015612db257612f3b81612bb5565b8352918301918301612f2a565b60008060008060008060c08789031215612f6157600080fd5b86359550602087013560068110612f7757600080fd5b94506040870135935060608701359250608087013567ffffffffffffffff80821115612fa257600080fd5b612fae8a838b01612edb565b935060a0890135915080821115612fc457600080fd5b50612fd189828a01612dbd565b9150509295509295509295565b634e487b7160e01b600052602160045260246000fd5b600060c0830182518452602080840151818601526040840151604086015260608401516006811061303557634e487b7160e01b600052602160045260246000fd5b606086015260808481015160c09187019190915280519283905281019160009060e08701905b808310156130845784516001600160a01b0316825293830193600192909201919083019061305b565b5060a0860151935086810360a088015261309e8185612c5a565b979650505050505050565b60006020808301818452808551808352604092508286019150828160051b87010184880160005b838110156131a557603f19898403018552815161014081518186526130f782870182612c5a565b915050888201518582038a87015261310f8282612c5a565b91505087820151858203898701526131278282612c5a565b606084810151908801526080808501519088015260a0808501519088015260c0808501519088015260e08085015180516001600160a01b0316828a015260208101516101008a01529193509150505061010082015191508481036101208601526131918183612ff4565b9689019694505050908601906001016130d0565b509098975050505050505050565b600080604083850312156131c657600080fd5b823567ffffffffffffffff808211156131de57600080fd5b6131ea86838701612edb565b9350602085013591508082111561320057600080fd5b5061320d85828601612d4c565b9150509250929050565b600081518084526020808501945080840160005b838110156132475781518752958201959082019060010161322b565b509495945050505050565b60208152600061222d6020830184613217565b60006040828403121561327757600080fd5b6040516040810181811067ffffffffffffffff8211171561329a5761329a612ce5565b6040529050806132a983612bb5565b8152602083013560208201525092915050565b60008060008060a085870312156132d257600080fd5b8435935060208501359250604085013591506132f18660608701613265565b905092959194509250565b6000806040838503121561330f57600080fd5b61331883612bb5565b91506020830135801515811461332d57600080fd5b809150509250929050565b60008060008060008060e0878903121561335157600080fd5b863567ffffffffffffffff8082111561336957600080fd5b6133758a838b01612dbd565b9750602089013591508082111561338b57600080fd5b6133978a838b01612dbd565b965060408901359150808211156133ad57600080fd5b506133ba89828a01612dbd565b94505060608701359250608087013591506133d88860a08901613265565b90509295509295509295565b600080604083850312156133f757600080fd5b61340083612bb5565b915061340e60208401612bb5565b90509250929050565b600080600080600060a0868803121561342f57600080fd5b61343886612bb5565b945061344660208701612bb5565b93506040860135925060608601359150608086013567ffffffffffffffff81111561347057600080fd5b612ece88828901612dbd565b60006020828403121561348e57600080fd5b61222d82612bb5565b6000806000806000806000806101e0808a8c0312156134b557600080fd5b8935985060208a0135975060408a0135965060608a0135955060808a013567ffffffffffffffff8111156134e857600080fd5b6134f48c828d01612dbd565b95505060a08a0135935060c08a013592508a818b01111561351457600080fd5b5060e0890190509295985092959890939650565b600061014080835261353c8184018d612c5a565b90508281036020840152613550818c612c5a565b90508281036040840152613564818b612c5a565b90508860608401528760808401528660a08401528560c084015261359e60e084018680516001600160a01b03168252602090810151910152565b8281036101208401526135b18185612ff4565b9c9b505050505050505050505050565b600181811c908216806135d557607f821691505b602082108114156135f657634e487b7160e01b600052602260045260246000fd5b50919050565b634e487b7160e01b600052601160045260246000fd5b600082821015613624576136246135fc565b500390565b634e487b7160e01b600052603260045260246000fd5b60008219821115613652576136526135fc565b500190565b6020808252602f908201527f455243313135353a2063616c6c6572206973206e6f7420746f6b656e206f776e60408201526e195c881b9bdc88185c1c1c9bdd9959608a1b606082015260800190565b60006000198214156136ba576136ba6135fc565b5060010190565b60008160001904831182151516156136db576136db6135fc565b500290565b60006101a0820190508782528660208301528560408301528460608301528360808301526101008360a084013760008152979650505050505050565b634e487b7160e01b600052601260045260246000fd5b6000826137415761374161371c565b500490565b6001600160a01b038616815260c06020820181905260009061376a90830187612c5a565b6040838101969096528281036060840152600381526213919560ea1b602082015260808301949094525060a001520192915050565b60208082526025908201527f455243313135353a207472616e7366657220746f20746865207a65726f206164604082015264647265737360d81b606082015260800190565b6020808252602a908201527f455243313135353a20696e73756666696369656e742062616c616e636520666f60408201526939103a3930b739b332b960b11b606082015260800190565b6040815260006138416040830185613217565b82810360208401526138538185613217565b95945050505050565b60008261386b5761386b61371c565b500690565b60008251613882818460208701612c2e565b9190910192915050565b6001600160a01b03868116825285166020820152604081018490526060810183905260a06080820181905260009061309e90830184612c5a565b6000602082840312156138d857600080fd5b815161222d81612bfb565b600060033d11156138fc5760046000803e5060005160e01c5b90565b600060443d101561390d5790565b6040516003193d81016004833e81513d67ffffffffffffffff816024840111818411171561393d57505050505090565b82850191508151818111156139555750505050505090565b843d870101602082850101111561396f5750505050505090565b61397e60208286010187612cfb565b509095945050505050565b60208082526028908201527f455243313135353a204552433131353552656365697665722072656a656374656040820152676420746f6b656e7360c01b606082015260800190565b6001600160a01b0386811682528516602082015260a0604082018190526000906139fd90830186613217565b8281036060840152613a0f8186613217565b90508281036080840152613a238185612c5a565b9897505050505050505056fea26469706673582212203b86d42be02a93cb178abe28f2c479f5cfae1898113c42469251281ce9ec21da64736f6c634300080c0033",
  "linkReferences": {},
  "deployedLinkReferences": {}
}