{
  "_format": "hh-sol-artifact-1",
  "contractName": "NFTCollection",
  "sourceName": "src/backend/contracts/_NFTCollection.sol",
  "abi": [
    {
      "inputs": [
        {
          "internalType": "string",
          "name": "_name",
          "type": "string"
        },
        {
          "internalType": "string",
          "name": "_symbol",
          "type": "string"
        },
        {
          "internalType": "address",
          "name": "_owner",
          "type": "address"
        }
      ],
      "stateMutability": "nonpayable",
      "type": "constructor"
    },
    {
      "anonymous": false,
      "inputs": [
        {
          "indexed": true,
          "internalType": "address",
          "name": "account",
          "type": "address"
        },
        {
          "indexed": true,
          "internalType": "address",
          "name": "operator",
          "type": "address"
        },
        {
          "indexed": false,
          "internalType": "bool",
          "name": "approved",
          "type": "bool"
        }
      ],
      "name": "ApprovalForAll",
      "type": "event"
    },
    {
      "anonymous": false,
      "inputs": [
        {
          "indexed": true,
          "internalType": "address",
          "name": "previousOwner",
          "type": "address"
        },
        {
          "indexed": true,
          "internalType": "address",
          "name": "newOwner",
          "type": "address"
        }
      ],
      "name": "OwnershipTransferred",
      "type": "event"
    },
    {
      "anonymous": false,
      "inputs": [
        {
          "indexed": false,
          "internalType": "address",
          "name": "account",
          "type": "address"
        }
      ],
      "name": "Paused",
      "type": "event"
    },
    {
      "anonymous": false,
      "inputs": [
        {
          "indexed": true,
          "internalType": "address",
          "name": "operator",
          "type": "address"
        },
        {
          "indexed": true,
          "internalType": "address",
          "name": "from",
          "type": "address"
        },
        {
          "indexed": true,
          "internalType": "address",
          "name": "to",
          "type": "address"
        },
        {
          "indexed": false,
          "internalType": "uint256[]",
          "name": "ids",
          "type": "uint256[]"
        },
        {
          "indexed": false,
          "internalType": "uint256[]",
          "name": "values",
          "type": "uint256[]"
        }
      ],
      "name": "TransferBatch",
      "type": "event"
    },
    {
      "anonymous": false,
      "inputs": [
        {
          "indexed": true,
          "internalType": "address",
          "name": "operator",
          "type": "address"
        },
        {
          "indexed": true,
          "internalType": "address",
          "name": "from",
          "type": "address"
        },
        {
          "indexed": true,
          "internalType": "address",
          "name": "to",
          "type": "address"
        },
        {
          "indexed": false,
          "internalType": "uint256",
          "name": "id",
          "type": "uint256"
        },
        {
          "indexed": false,
          "internalType": "uint256",
          "name": "value",
          "type": "uint256"
        }
      ],
      "name": "TransferSingle",
      "type": "event"
    },
    {
      "anonymous": false,
      "inputs": [
        {
          "indexed": false,
          "internalType": "string",
          "name": "value",
          "type": "string"
        },
        {
          "indexed": true,
          "internalType": "uint256",
          "name": "id",
          "type": "uint256"
        }
      ],
      "name": "URI",
      "type": "event"
    },
    {
      "anonymous": false,
      "inputs": [
        {
          "indexed": false,
          "internalType": "address",
          "name": "account",
          "type": "address"
        }
      ],
      "name": "Unpaused",
      "type": "event"
    },
    {
      "inputs": [
        {
          "internalType": "address",
          "name": "account",
          "type": "address"
        },
        {
          "internalType": "uint256",
          "name": "id",
          "type": "uint256"
        }
      ],
      "name": "balanceOf",
      "outputs": [
        {
          "internalType": "uint256",
          "name": "",
          "type": "uint256"
        }
      ],
      "stateMutability": "view",
      "type": "function"
    },
    {
      "inputs": [
        {
          "internalType": "address[]",
          "name": "accounts",
          "type": "address[]"
        },
        {
          "internalType": "uint256[]",
          "name": "ids",
          "type": "uint256[]"
        }
      ],
      "name": "balanceOfBatch",
      "outputs": [
        {
          "internalType": "uint256[]",
          "name": "",
          "type": "uint256[]"
        }
      ],
      "stateMutability": "view",
      "type": "function"
    },
    {
      "inputs": [
        {
          "internalType": "uint256",
          "name": "",
          "type": "uint256"
        }
      ],
      "name": "collections",
      "outputs": [
        {
          "internalType": "uint256",
          "name": "id",
          "type": "uint256"
        },
        {
          "internalType": "uint256",
          "name": "price",
          "type": "uint256"
        },
        {
          "internalType": "uint256",
          "name": "supply",
          "type": "uint256"
        },
        {
          "internalType": "uint256",
          "name": "mintedTotal",
          "type": "uint256"
        },
        {
          "internalType": "string",
          "name": "uri",
          "type": "string"
        }
      ],
      "stateMutability": "view",
      "type": "function"
    },
    {
      "inputs": [],
      "name": "collectionsTotal",
      "outputs": [
        {
          "internalType": "uint256",
          "name": "",
          "type": "uint256"
        }
      ],
      "stateMutability": "view",
      "type": "function"
    },
    {
      "inputs": [
        {
          "internalType": "uint256",
          "name": "id",
          "type": "uint256"
        }
      ],
      "name": "exists",
      "outputs": [
        {
          "internalType": "bool",
          "name": "",
          "type": "bool"
        }
      ],
      "stateMutability": "view",
      "type": "function"
    },
    {
      "inputs": [],
      "name": "getCollections",
      "outputs": [
        {
          "components": [
            {
              "internalType": "uint256",
              "name": "id",
              "type": "uint256"
            },
            {
              "internalType": "uint256",
              "name": "price",
              "type": "uint256"
            },
            {
              "internalType": "uint256",
              "name": "supply",
              "type": "uint256"
            },
            {
              "internalType": "uint256",
              "name": "mintedTotal",
              "type": "uint256"
            },
            {
              "internalType": "string",
              "name": "uri",
              "type": "string"
            }
          ],
          "internalType": "struct NFTCollection.Collection[]",
          "name": "",
          "type": "tuple[]"
        }
      ],
      "stateMutability": "view",
      "type": "function"
    },
    {
      "inputs": [
        {
          "internalType": "address",
          "name": "account",
          "type": "address"
        },
        {
          "internalType": "address",
          "name": "operator",
          "type": "address"
        }
      ],
      "name": "isApprovedForAll",
      "outputs": [
        {
          "internalType": "bool",
          "name": "",
          "type": "bool"
        }
      ],
      "stateMutability": "view",
      "type": "function"
    },
    {
      "inputs": [
        {
          "internalType": "address",
          "name": "_account",
          "type": "address"
        },
        {
          "internalType": "uint256",
          "name": "_collectionId",
          "type": "uint256"
        },
        {
          "internalType": "uint256",
          "name": "_amount",
          "type": "uint256"
        }
      ],
      "name": "mint",
      "outputs": [],
      "stateMutability": "nonpayable",
      "type": "function"
    },
    {
      "inputs": [],
      "name": "name",
      "outputs": [
        {
          "internalType": "string",
          "name": "",
          "type": "string"
        }
      ],
      "stateMutability": "view",
      "type": "function"
    },
    {
      "inputs": [
        {
          "internalType": "string",
          "name": "_uri",
          "type": "string"
        },
        {
          "internalType": "uint256",
          "name": "_price",
          "type": "uint256"
        },
        {
          "internalType": "uint256",
          "name": "_supply",
          "type": "uint256"
        }
      ],
      "name": "newCollectionItem",
      "outputs": [],
      "stateMutability": "nonpayable",
      "type": "function"
    },
    {
      "inputs": [],
      "name": "owner",
      "outputs": [
        {
          "internalType": "address",
          "name": "",
          "type": "address"
        }
      ],
      "stateMutability": "view",
      "type": "function"
    },
    {
      "inputs": [],
      "name": "pause",
      "outputs": [],
      "stateMutability": "nonpayable",
      "type": "function"
    },
    {
      "inputs": [],
      "name": "paused",
      "outputs": [
        {
          "internalType": "bool",
          "name": "",
          "type": "bool"
        }
      ],
      "stateMutability": "view",
      "type": "function"
    },
    {
      "inputs": [
        {
          "internalType": "uint256",
          "name": "_collectionId",
          "type": "uint256"
        },
        {
          "internalType": "uint256",
          "name": "_amount",
          "type": "uint256"
        }
      ],
      "name": "payToMint",
      "outputs": [],
      "stateMutability": "payable",
      "type": "function"
    },
    {
      "inputs": [],
      "name": "renounceOwnership",
      "outputs": [],
      "stateMutability": "nonpayable",
      "type": "function"
    },
    {
      "inputs": [
        {
          "internalType": "address",
          "name": "from",
          "type": "address"
        },
        {
          "internalType": "address",
          "name": "to",
          "type": "address"
        },
        {
          "internalType": "uint256[]",
          "name": "ids",
          "type": "uint256[]"
        },
        {
          "internalType": "uint256[]",
          "name": "amounts",
          "type": "uint256[]"
        },
        {
          "internalType": "bytes",
          "name": "data",
          "type": "bytes"
        }
      ],
      "name": "safeBatchTransferFrom",
      "outputs": [],
      "stateMutability": "nonpayable",
      "type": "function"
    },
    {
      "inputs": [
        {
          "internalType": "address",
          "name": "from",
          "type": "address"
        },
        {
          "internalType": "address",
          "name": "to",
          "type": "address"
        },
        {
          "internalType": "uint256",
          "name": "id",
          "type": "uint256"
        },
        {
          "internalType": "uint256",
          "name": "amount",
          "type": "uint256"
        },
        {
          "internalType": "bytes",
          "name": "data",
          "type": "bytes"
        }
      ],
      "name": "safeTransferFrom",
      "outputs": [],
      "stateMutability": "nonpayable",
      "type": "function"
    },
    {
      "inputs": [
        {
          "internalType": "address",
          "name": "operator",
          "type": "address"
        },
        {
          "internalType": "bool",
          "name": "approved",
          "type": "bool"
        }
      ],
      "name": "setApprovalForAll",
      "outputs": [],
      "stateMutability": "nonpayable",
      "type": "function"
    },
    {
      "inputs": [
        {
          "internalType": "string",
          "name": "_newUri",
          "type": "string"
        }
      ],
      "name": "setURI",
      "outputs": [],
      "stateMutability": "nonpayable",
      "type": "function"
    },
    {
      "inputs": [
        {
          "internalType": "bytes4",
          "name": "interfaceId",
          "type": "bytes4"
        }
      ],
      "name": "supportsInterface",
      "outputs": [
        {
          "internalType": "bool",
          "name": "",
          "type": "bool"
        }
      ],
      "stateMutability": "view",
      "type": "function"
    },
    {
      "inputs": [],
      "name": "symbol",
      "outputs": [
        {
          "internalType": "string",
          "name": "",
          "type": "string"
        }
      ],
      "stateMutability": "view",
      "type": "function"
    },
    {
      "inputs": [
        {
          "internalType": "uint256",
          "name": "id",
          "type": "uint256"
        }
      ],
      "name": "totalSupply",
      "outputs": [
        {
          "internalType": "uint256",
          "name": "",
          "type": "uint256"
        }
      ],
      "stateMutability": "view",
      "type": "function"
    },
    {
      "inputs": [
        {
          "internalType": "address",
          "name": "newOwner",
          "type": "address"
        }
      ],
      "name": "transferOwnership",
      "outputs": [],
      "stateMutability": "nonpayable",
      "type": "function"
    },
    {
      "inputs": [],
      "name": "unpause",
      "outputs": [],
      "stateMutability": "nonpayable",
      "type": "function"
    },
    {
      "inputs": [
        {
          "internalType": "uint256",
          "name": "_collectionId",
          "type": "uint256"
        },
        {
          "internalType": "uint256",
          "name": "_price",
          "type": "uint256"
        },
        {
          "internalType": "uint256",
          "name": "_supply",
          "type": "uint256"
        }
      ],
      "name": "updateCollectionItem",
      "outputs": [],
      "stateMutability": "nonpayable",
      "type": "function"
    },
    {
      "inputs": [
        {
          "internalType": "uint256",
          "name": "_tokenId",
          "type": "uint256"
        }
      ],
      "name": "uri",
      "outputs": [
        {
          "internalType": "string",
          "name": "",
          "type": "string"
        }
      ],
      "stateMutability": "view",
      "type": "function"
    }
  ],
  "bytecode": "0x60806040523480156200001157600080fd5b5060405162002e5338038062002e53833981016040819052620000349162000366565b6040805160208101909152600081526200004e81620000a7565b506200005a33620000c0565b6003805460ff60a01b19169055620000728162000112565b825162000087906005906020860190620001f3565b5081516200009d906006906020850190620001f3565b5050505062000430565b8051620000bc906002906020840190620001f3565b5050565b600380546001600160a01b038381166001600160a01b0319831681179093556040519116919082907f8be0079c531659141344cd1fd0a4f28419497f9722a3daafe3b4186f6b6457e090600090a35050565b6200011c62000195565b6001600160a01b038116620001875760405162461bcd60e51b815260206004820152602660248201527f4f776e61626c653a206e6577206f776e657220697320746865207a65726f206160448201526564647265737360d01b60648201526084015b60405180910390fd5b6200019281620000c0565b50565b6003546001600160a01b03163314620001f15760405162461bcd60e51b815260206004820181905260248201527f4f776e61626c653a2063616c6c6572206973206e6f7420746865206f776e657260448201526064016200017e565b565b8280546200020190620003f3565b90600052602060002090601f01602090048101928262000225576000855562000270565b82601f106200024057805160ff191683800117855562000270565b8280016001018555821562000270579182015b828111156200027057825182559160200191906001019062000253565b506200027e92915062000282565b5090565b5b808211156200027e576000815560010162000283565b634e487b7160e01b600052604160045260246000fd5b600082601f830112620002c157600080fd5b81516001600160401b0380821115620002de57620002de62000299565b604051601f8301601f19908116603f0116810190828211818310171562000309576200030962000299565b816040528381526020925086838588010111156200032657600080fd5b600091505b838210156200034a57858201830151818301840152908201906200032b565b838211156200035c5760008385830101525b9695505050505050565b6000806000606084860312156200037c57600080fd5b83516001600160401b03808211156200039457600080fd5b620003a287838801620002af565b94506020860151915080821115620003b957600080fd5b50620003c886828701620002af565b604086015190935090506001600160a01b0381168114620003e857600080fd5b809150509250925092565b600181811c908216806200040857607f821691505b602082108114156200042a57634e487b7160e01b600052602260045260246000fd5b50919050565b612a1380620004406000396000f3fe6080604052600436106101805760003560e01c80634f558e79116100d157806395d89b411161008a578063e985e9c511610064578063e985e9c51461045b578063f242432a146104a4578063f2fde38b146104c4578063fdbda0ec146104e457600080fd5b806395d89b41146103f9578063a22cb4651461040e578063bd85b0391461042e57600080fd5b80634f558e79146103465780635c975abb14610375578063715018a6146103945780638456cb59146103a95780638da5cb5b146103be57806392676fda146103e657600080fd5b8063217603ab1161013e5780632eb2c2d6116101185780632eb2c2d6146102c25780633f4ba83a146102e257806346e63586146102f75780634e1273f41461031957600080fd5b8063217603ab1461026c578063253366681461028c5780632e17af07146102ac57600080fd5b8062fdd58e1461018557806301ffc9a7146101b857806302fe5305146101e857806306fdde031461020a5780630e89341c1461022c578063156e29f61461024c575b600080fd5b34801561019157600080fd5b506101a56101a0366004611ed2565b610515565b6040519081526020015b60405180910390f35b3480156101c457600080fd5b506101d86101d3366004611f12565b6105ab565b60405190151581526020016101af565b3480156101f457600080fd5b50610208610203366004611fed565b6105fd565b005b34801561021657600080fd5b5061021f610611565b6040516101af919061207a565b34801561023857600080fd5b5061021f61024736600461208d565b61069f565b34801561025857600080fd5b506102086102673660046120a6565b61078e565b34801561027857600080fd5b506102086102873660046120d9565b610946565b34801561029857600080fd5b506102086102a7366004612105565b610a18565b3480156102b857600080fd5b506101a560075481565b3480156102ce57600080fd5b506102086102dd3660046121e8565b610b8f565b3480156102ee57600080fd5b50610208610bdb565b34801561030357600080fd5b5061030c610bed565b6040516101af9190612292565b34801561032557600080fd5b50610339610334366004612327565b610d06565b6040516101af919061242d565b34801561035257600080fd5b506101d861036136600461208d565b600090815260046020526040902054151590565b34801561038157600080fd5b50600354600160a01b900460ff166101d8565b3480156103a057600080fd5b50610208610e30565b3480156103b557600080fd5b50610208610e42565b3480156103ca57600080fd5b506003546040516001600160a01b0390911681526020016101af565b6102086103f4366004612440565b610e52565b34801561040557600080fd5b5061021f61106e565b34801561041a57600080fd5b50610208610429366004612462565b61107b565b34801561043a57600080fd5b506101a561044936600461208d565b60009081526004602052604090205490565b34801561046757600080fd5b506101d861047636600461249e565b6001600160a01b03918216600090815260016020908152604080832093909416825291909152205460ff1690565b3480156104b057600080fd5b506102086104bf3660046124d1565b61108a565b3480156104d057600080fd5b506102086104df366004612536565b6110cf565b3480156104f057600080fd5b506105046104ff36600461208d565b611145565b6040516101af959493929190612551565b60006001600160a01b0383166105855760405162461bcd60e51b815260206004820152602a60248201527f455243313135353a2061646472657373207a65726f206973206e6f742061207660448201526930b634b21037bbb732b960b11b60648201526084015b60405180910390fd5b506000908152602081815260408083206001600160a01b03949094168352929052205490565b60006001600160e01b03198216636cdb3d1360e11b14806105dc57506001600160e01b031982166303a24d0760e21b145b806105f757506301ffc9a760e01b6001600160e01b03198316145b92915050565b610605611213565b61060e8161126d565b50565b6005805461061e90612587565b80601f016020809104026020016040519081016040528092919081815260200182805461064a90612587565b80156106975780601f1061066c57610100808354040283529160200191610697565b820191906000526020600020905b81548152906001019060200180831161067a57829003601f168201915b505050505081565b6060600060086106b06001856125d8565b815481106106c0576106c06125ef565b906000526020600020906005020160040180546106dc90612587565b80601f016020809104026020016040519081016040528092919081815260200182805461070890612587565b80156107555780601f1061072a57610100808354040283529160200191610755565b820191906000526020600020905b81548152906001019060200180831161073857829003601f168201915b505050505090508061076684611280565b604051602001610777929190612605565b604051602081830303815290604052915050919050565b610796611213565b600081116107da5760405162461bcd60e51b815260206004820152601160248201527015dc9bdb99c81b5a5b9d08185b5bdd5b9d607a1b604482015260640161057c565b600082116107fa5760405162461bcd60e51b815260040161057c90612674565b60075482111561081c5760405162461bcd60e51b815260040161057c90612674565b6001600160a01b0383166108725760405162461bcd60e51b815260206004820181905260248201527f57726f6e672064657374696e6174696f6e2077616c6c65742041646472657373604482015260640161057c565b600060086108816001856125d8565b81548110610891576108916125ef565b9060005260206000209060050201905060008160020154111561090a578181600301546108be919061269e565b8160020154101561090a5760405162461bcd60e51b8152602060048201526016602482015275139bdd08195b9bdd59da081cdd5c1c1b1e481b19599d60521b604482015260640161057c565b8181600301600082825461091e919061269e565b9250508190555061094084848460405180602001604052806000815250611386565b50505050565b61094e611213565b6007548311156109705760405162461bcd60e51b815260040161057c90612674565b6000600861097f6001866125d8565b8154811061098f5761098f6125ef565b906000526020600020906005020190506000821115610a07578060030154821015610a075760405162461bcd60e51b815260206004820152602260248201527f537570706c79206973206c657373207468617420616c7265616479206d696e74604482015261195960f21b606482015260840161057c565b600181019290925560029091015550565b610a20611213565b6000835111610a5d5760405162461bcd60e51b815260206004820152600960248201526857726f6e672055524960b81b604482015260640161057c565b600160076000828254610a70919061269e565b90915550506040805160a0810182526007548152602080820185815292820184815260006060840181815260808501898152600880546001810182559352855160059093027ff3f7a9fe364faab93b216da50a3214154f22a0a2b415b23a84c8169e8b636ee3810193845596517ff3f7a9fe364faab93b216da50a3214154f22a0a2b415b23a84c8169e8b636ee488015592517ff3f7a9fe364faab93b216da50a3214154f22a0a2b415b23a84c8169e8b636ee5870155517ff3f7a9fe364faab93b216da50a3214154f22a0a2b415b23a84c8169e8b636ee68601559051805193949193610b87937ff3f7a9fe364faab93b216da50a3214154f22a0a2b415b23a84c8169e8b636ee7909301929190910190611e1d565b505050505050565b6001600160a01b038516331480610bab5750610bab8533610476565b610bc75760405162461bcd60e51b815260040161057c906126b6565b610bd485858585856114a9565b5050505050565b610be3611213565b610beb61168c565b565b60606008805480602002602001604051908101604052809291908181526020016000905b82821015610cfd57838290600052602060002090600502016040518060a001604052908160008201548152602001600182015481526020016002820154815260200160038201548152602001600482018054610c6c90612587565b80601f0160208091040260200160405190810160405280929190818152602001828054610c9890612587565b8015610ce55780601f10610cba57610100808354040283529160200191610ce5565b820191906000526020600020905b815481529060010190602001808311610cc857829003601f168201915b50505050508152505081526020019060010190610c11565b50505050905090565b60608151835114610d6b5760405162461bcd60e51b815260206004820152602960248201527f455243313135353a206163636f756e747320616e6420696473206c656e677468604482015268040dad2e6dac2e8c6d60bb1b606482015260840161057c565b6000835167ffffffffffffffff811115610d8757610d87611f36565b604051908082528060200260200182016040528015610db0578160200160208202803683370190505b50905060005b8451811015610e2857610dfb858281518110610dd457610dd46125ef565b6020026020010151858381518110610dee57610dee6125ef565b6020026020010151610515565b828281518110610e0d57610e0d6125ef565b6020908102919091010152610e2181612705565b9050610db6565b509392505050565b610e38611213565b610beb60006116e1565b610e4a611213565b610beb611733565b610e5a611776565b60008111610e9e5760405162461bcd60e51b815260206004820152601160248201527015dc9bdb99c81b5a5b9d08185b5bdd5b9d607a1b604482015260640161057c565b60008211610ebe5760405162461bcd60e51b815260040161057c90612674565b600754821115610ee05760405162461bcd60e51b815260040161057c90612674565b60006008610eef6001856125d8565b81548110610eff57610eff6125ef565b90600052602060002090600502019050600081600201541115610f7857818160030154610f2c919061269e565b81600201541015610f785760405162461bcd60e51b8152602060048201526016602482015275139bdd08195b9bdd59da081cdd5c1c1b1e481b19599d60521b604482015260640161057c565b600181015415610fe3576000816001015483610f949190612720565b905080341015610fdd5760405162461bcd60e51b815260206004820152601460248201527315dc9bdb99c81c185e5b595b9d08185b5bdd5b9d60621b604482015260640161057c565b50611033565b816001146110335760405162461bcd60e51b815260206004820152601e60248201527f596f752063616e2774206d696e74206d6f7265207468616e2031204e46540000604482015260640161057c565b81816003016000828254611047919061269e565b9250508190555061106933848460405180602001604052806000815250611386565b505050565b6006805461061e90612587565b6110863383836117c3565b5050565b6001600160a01b0385163314806110a657506110a68533610476565b6110c25760405162461bcd60e51b815260040161057c906126b6565b610bd485858585856118a4565b6110d7611213565b6001600160a01b03811661113c5760405162461bcd60e51b815260206004820152602660248201527f4f776e61626c653a206e6577206f776e657220697320746865207a65726f206160448201526564647265737360d01b606482015260840161057c565b61060e816116e1565b6008818154811061115557600080fd5b906000526020600020906005020160009150905080600001549080600101549080600201549080600301549080600401805461119090612587565b80601f01602080910402602001604051908101604052809291908181526020018280546111bc90612587565b80156112095780601f106111de57610100808354040283529160200191611209565b820191906000526020600020905b8154815290600101906020018083116111ec57829003601f168201915b5050505050905085565b6003546001600160a01b03163314610beb5760405162461bcd60e51b815260206004820181905260248201527f4f776e61626c653a2063616c6c6572206973206e6f7420746865206f776e6572604482015260640161057c565b8051611086906002906020840190611e1d565b6060816112a45750506040805180820190915260018152600360fc1b602082015290565b8160005b81156112ce57806112b881612705565b91506112c79050600a83612755565b91506112a8565b60008167ffffffffffffffff8111156112e9576112e9611f36565b6040519080825280601f01601f191660200182016040528015611313576020820181803683370190505b5090505b841561137e576113286001836125d8565b9150611335600a86612769565b61134090603061269e565b60f81b818381518110611355576113556125ef565b60200101906001600160f81b031916908160001a905350611377600a86612755565b9450611317565b949350505050565b6001600160a01b0384166113e65760405162461bcd60e51b815260206004820152602160248201527f455243313135353a206d696e7420746f20746865207a65726f206164647265736044820152607360f81b606482015260840161057c565b3360006113f2856119dc565b905060006113ff856119dc565b905061141083600089858589611a27565b6000868152602081815260408083206001600160a01b038b1684529091528120805487929061144090849061269e565b909155505060408051878152602081018790526001600160a01b03808a1692600092918716917fc3d58168c5ae7397731d063d5bbf3d657854427343f4c083240f7aacaa2d0f62910160405180910390a46114a083600089898989611a3d565b50505050505050565b815183511461150b5760405162461bcd60e51b815260206004820152602860248201527f455243313135353a2069647320616e6420616d6f756e7473206c656e677468206044820152670dad2e6dac2e8c6d60c31b606482015260840161057c565b6001600160a01b0384166115315760405162461bcd60e51b815260040161057c9061277d565b33611540818787878787611a27565b60005b8451811015611626576000858281518110611560576115606125ef565b60200260200101519050600085838151811061157e5761157e6125ef565b602090810291909101810151600084815280835260408082206001600160a01b038e1683529093529190912054909150818110156115ce5760405162461bcd60e51b815260040161057c906127c2565b6000838152602081815260408083206001600160a01b038e8116855292528083208585039055908b1682528120805484929061160b90849061269e565b925050819055505050508061161f90612705565b9050611543565b50846001600160a01b0316866001600160a01b0316826001600160a01b03167f4a39dc06d4c0dbc64b70af90fd698a233a518aa5d07e595d983b8c0526c8f7fb878760405161167692919061280c565b60405180910390a4610b87818787878787611b99565b611694611c54565b6003805460ff60a01b191690557f5db9ee0a495bf2e6ff9c91a7834c1ba4fdd244a5e8aa4e537bd38aeae4b073aa335b6040516001600160a01b03909116815260200160405180910390a1565b600380546001600160a01b038381166001600160a01b0319831681179093556040519116919082907f8be0079c531659141344cd1fd0a4f28419497f9722a3daafe3b4186f6b6457e090600090a35050565b61173b611776565b6003805460ff60a01b1916600160a01b1790557f62e78cea01bee320cd4e420270b5ea74000d11b0c9f74754ebdbfc544b05a2586116c43390565b600354600160a01b900460ff1615610beb5760405162461bcd60e51b815260206004820152601060248201526f14185d5cd8589b194e881c185d5cd95960821b604482015260640161057c565b816001600160a01b0316836001600160a01b031614156118375760405162461bcd60e51b815260206004820152602960248201527f455243313135353a2073657474696e6720617070726f76616c20737461747573604482015268103337b91039b2b63360b91b606482015260840161057c565b6001600160a01b03838116600081815260016020908152604080832094871680845294825291829020805460ff191686151590811790915591519182527f17307eab39ab6107e8899845ad3d59bd9653f200f220920489ca2b5937696c31910160405180910390a3505050565b6001600160a01b0384166118ca5760405162461bcd60e51b815260040161057c9061277d565b3360006118d6856119dc565b905060006118e3856119dc565b90506118f3838989858589611a27565b6000868152602081815260408083206001600160a01b038c168452909152902054858110156119345760405162461bcd60e51b815260040161057c906127c2565b6000878152602081815260408083206001600160a01b038d8116855292528083208985039055908a1682528120805488929061197190849061269e565b909155505060408051888152602081018890526001600160a01b03808b16928c821692918816917fc3d58168c5ae7397731d063d5bbf3d657854427343f4c083240f7aacaa2d0f62910160405180910390a46119d1848a8a8a8a8a611a3d565b505050505050505050565b60408051600180825281830190925260609160009190602080830190803683370190505090508281600081518110611a1657611a166125ef565b602090810291909101015292915050565b611a2f611776565b610b87868686868686611ca4565b6001600160a01b0384163b15610b875760405163f23a6e6160e01b81526001600160a01b0385169063f23a6e6190611a81908990899088908890889060040161283a565b6020604051808303816000875af1925050508015611abc575060408051601f3d908101601f19168201909252611ab991810190612874565b60015b611b6957611ac8612891565b806308c379a01415611b025750611add6128ad565b80611ae85750611b04565b8060405162461bcd60e51b815260040161057c919061207a565b505b60405162461bcd60e51b815260206004820152603460248201527f455243313135353a207472616e7366657220746f206e6f6e20455243313135356044820152732932b1b2b4bb32b91034b6b83632b6b2b73a32b960611b606482015260840161057c565b6001600160e01b0319811663f23a6e6160e01b146114a05760405162461bcd60e51b815260040161057c90612937565b6001600160a01b0384163b15610b875760405163bc197c8160e01b81526001600160a01b0385169063bc197c8190611bdd908990899088908890889060040161297f565b6020604051808303816000875af1925050508015611c18575060408051601f3d908101601f19168201909252611c1591810190612874565b60015b611c2457611ac8612891565b6001600160e01b0319811663bc197c8160e01b146114a05760405162461bcd60e51b815260040161057c90612937565b600354600160a01b900460ff16610beb5760405162461bcd60e51b815260206004820152601460248201527314185d5cd8589b194e881b9bdd081c185d5cd95960621b604482015260640161057c565b6001600160a01b038516611d2b5760005b8351811015611d2957828181518110611cd057611cd06125ef565b602002602001015160046000868481518110611cee57611cee6125ef565b602002602001015181526020019081526020016000206000828254611d13919061269e565b90915550611d22905081612705565b9050611cb5565b505b6001600160a01b038416610b875760005b83518110156114a0576000848281518110611d5957611d596125ef565b602002602001015190506000848381518110611d7757611d776125ef565b6020026020010151905060006004600084815260200190815260200160002054905081811015611dfa5760405162461bcd60e51b815260206004820152602860248201527f455243313135353a206275726e20616d6f756e74206578636565647320746f74604482015267616c537570706c7960c01b606482015260840161057c565b60009283526004602052604090922091039055611e1681612705565b9050611d3c565b828054611e2990612587565b90600052602060002090601f016020900481019282611e4b5760008555611e91565b82601f10611e6457805160ff1916838001178555611e91565b82800160010185558215611e91579182015b82811115611e91578251825591602001919060010190611e76565b50611e9d929150611ea1565b5090565b5b80821115611e9d5760008155600101611ea2565b80356001600160a01b0381168114611ecd57600080fd5b919050565b60008060408385031215611ee557600080fd5b611eee83611eb6565b946020939093013593505050565b6001600160e01b03198116811461060e57600080fd5b600060208284031215611f2457600080fd5b8135611f2f81611efc565b9392505050565b634e487b7160e01b600052604160045260246000fd5b601f8201601f1916810167ffffffffffffffff81118282101715611f7257611f72611f36565b6040525050565b600082601f830112611f8a57600080fd5b813567ffffffffffffffff811115611fa457611fa4611f36565b604051611fbb601f8301601f191660200182611f4c565b818152846020838601011115611fd057600080fd5b816020850160208301376000918101602001919091529392505050565b600060208284031215611fff57600080fd5b813567ffffffffffffffff81111561201657600080fd5b61137e84828501611f79565b60005b8381101561203d578181015183820152602001612025565b838111156109405750506000910152565b60008151808452612066816020860160208601612022565b601f01601f19169290920160200192915050565b602081526000611f2f602083018461204e565b60006020828403121561209f57600080fd5b5035919050565b6000806000606084860312156120bb57600080fd5b6120c484611eb6565b95602085013595506040909401359392505050565b6000806000606084860312156120ee57600080fd5b505081359360208301359350604090920135919050565b60008060006060848603121561211a57600080fd5b833567ffffffffffffffff81111561213157600080fd5b61213d86828701611f79565b9660208601359650604090950135949350505050565b600067ffffffffffffffff82111561216d5761216d611f36565b5060051b60200190565b600082601f83011261218857600080fd5b8135602061219582612153565b6040516121a28282611f4c565b83815260059390931b85018201928281019150868411156121c257600080fd5b8286015b848110156121dd57803583529183019183016121c6565b509695505050505050565b600080600080600060a0868803121561220057600080fd5b61220986611eb6565b945061221760208701611eb6565b9350604086013567ffffffffffffffff8082111561223457600080fd5b61224089838a01612177565b9450606088013591508082111561225657600080fd5b61226289838a01612177565b9350608088013591508082111561227857600080fd5b5061228588828901611f79565b9150509295509295909350565b60006020808301818452808551808352604092508286019150828160051b87010184880160005b8381101561231957888303603f19018552815180518452878101518885015286810151878501526060808201519085015260809081015160a0918501829052906123058186018361204e565b9689019694505050908601906001016122b9565b509098975050505050505050565b6000806040838503121561233a57600080fd5b823567ffffffffffffffff8082111561235257600080fd5b818501915085601f83011261236657600080fd5b8135602061237382612153565b6040516123808282611f4c565b83815260059390931b85018201928281019150898411156123a057600080fd5b948201945b838610156123c5576123b686611eb6565b825294820194908201906123a5565b965050860135925050808211156123db57600080fd5b506123e885828601612177565b9150509250929050565b600081518084526020808501945080840160005b8381101561242257815187529582019590820190600101612406565b509495945050505050565b602081526000611f2f60208301846123f2565b6000806040838503121561245357600080fd5b50508035926020909101359150565b6000806040838503121561247557600080fd5b61247e83611eb6565b91506020830135801515811461249357600080fd5b809150509250929050565b600080604083850312156124b157600080fd5b6124ba83611eb6565b91506124c860208401611eb6565b90509250929050565b600080600080600060a086880312156124e957600080fd5b6124f286611eb6565b945061250060208701611eb6565b93506040860135925060608601359150608086013567ffffffffffffffff81111561252a57600080fd5b61228588828901611f79565b60006020828403121561254857600080fd5b611f2f82611eb6565b85815284602082015283604082015282606082015260a06080820152600061257c60a083018461204e565b979650505050505050565b600181811c9082168061259b57607f821691505b602082108114156125bc57634e487b7160e01b600052602260045260246000fd5b50919050565b634e487b7160e01b600052601160045260246000fd5b6000828210156125ea576125ea6125c2565b500390565b634e487b7160e01b600052603260045260246000fd5b7468747470733a2f2f697066732e696f2f697066732f60581b815260008351612635816015850160208801612022565b602f60f81b6015918401918201528351612656816016840160208801612022565b64173539b7b760d91b60169290910191820152601b01949350505050565b60208082526010908201526f2bb937b7339021b7b63632b1ba34b7b760811b604082015260600190565b600082198211156126b1576126b16125c2565b500190565b6020808252602f908201527f455243313135353a2063616c6c6572206973206e6f7420746f6b656e206f776e60408201526e195c881b9bdc88185c1c1c9bdd9959608a1b606082015260800190565b6000600019821415612719576127196125c2565b5060010190565b600081600019048311821515161561273a5761273a6125c2565b500290565b634e487b7160e01b600052601260045260246000fd5b6000826127645761276461273f565b500490565b6000826127785761277861273f565b500690565b60208082526025908201527f455243313135353a207472616e7366657220746f20746865207a65726f206164604082015264647265737360d81b606082015260800190565b6020808252602a908201527f455243313135353a20696e73756666696369656e742062616c616e636520666f60408201526939103a3930b739b332b960b11b606082015260800190565b60408152600061281f60408301856123f2565b828103602084015261283181856123f2565b95945050505050565b6001600160a01b03868116825285166020820152604081018490526060810183905260a06080820181905260009061257c9083018461204e565b60006020828403121561288657600080fd5b8151611f2f81611efc565b600060033d11156128aa5760046000803e5060005160e01c5b90565b600060443d10156128bb5790565b6040516003193d81016004833e81513d67ffffffffffffffff81602484011181841117156128eb57505050505090565b82850191508151818111156129035750505050505090565b843d870101602082850101111561291d5750505050505090565b61292c60208286010187611f4c565b509095945050505050565b60208082526028908201527f455243313135353a204552433131353552656365697665722072656a656374656040820152676420746f6b656e7360c01b606082015260800190565b6001600160a01b0386811682528516602082015260a0604082018190526000906129ab908301866123f2565b82810360608401526129bd81866123f2565b905082810360808401526129d1818561204e565b9897505050505050505056fea26469706673582212207667bb5f06e5627901b518fd51f3d9f57ff885bfd89ad21f79d352a6114bda2064736f6c634300080c0033",
  "linkReferences": {},
  "deployedLinkReferences": {}
}