{
  "_format": "hh-sol-artifact-1",
  "contractName": "NFTCollection",
  "sourceName": "src/backend/contracts/_NFTCollection.sol",
  "abi": [
    {
      "inputs": [
        {
          "internalType": "string",
          "name": "_name",
          "type": "string"
        },
        {
          "internalType": "string",
          "name": "_symbol",
          "type": "string"
        },
        {
          "internalType": "address",
          "name": "_owner",
          "type": "address"
        }
      ],
      "stateMutability": "nonpayable",
      "type": "constructor"
    },
    {
      "anonymous": false,
      "inputs": [
        {
          "indexed": true,
          "internalType": "address",
          "name": "owner",
          "type": "address"
        },
        {
          "indexed": true,
          "internalType": "address",
          "name": "approved",
          "type": "address"
        },
        {
          "indexed": true,
          "internalType": "uint256",
          "name": "tokenId",
          "type": "uint256"
        }
      ],
      "name": "Approval",
      "type": "event"
    },
    {
      "anonymous": false,
      "inputs": [
        {
          "indexed": true,
          "internalType": "address",
          "name": "owner",
          "type": "address"
        },
        {
          "indexed": true,
          "internalType": "address",
          "name": "operator",
          "type": "address"
        },
        {
          "indexed": false,
          "internalType": "bool",
          "name": "approved",
          "type": "bool"
        }
      ],
      "name": "ApprovalForAll",
      "type": "event"
    },
    {
      "anonymous": false,
      "inputs": [
        {
          "indexed": true,
          "internalType": "address",
          "name": "previousOwner",
          "type": "address"
        },
        {
          "indexed": true,
          "internalType": "address",
          "name": "newOwner",
          "type": "address"
        }
      ],
      "name": "OwnershipTransferred",
      "type": "event"
    },
    {
      "anonymous": false,
      "inputs": [
        {
          "indexed": false,
          "internalType": "address",
          "name": "account",
          "type": "address"
        }
      ],
      "name": "Paused",
      "type": "event"
    },
    {
      "anonymous": false,
      "inputs": [
        {
          "indexed": true,
          "internalType": "address",
          "name": "from",
          "type": "address"
        },
        {
          "indexed": true,
          "internalType": "address",
          "name": "to",
          "type": "address"
        },
        {
          "indexed": true,
          "internalType": "uint256",
          "name": "tokenId",
          "type": "uint256"
        }
      ],
      "name": "Transfer",
      "type": "event"
    },
    {
      "anonymous": false,
      "inputs": [
        {
          "indexed": false,
          "internalType": "address",
          "name": "account",
          "type": "address"
        }
      ],
      "name": "Unpaused",
      "type": "event"
    },
    {
      "inputs": [
        {
          "internalType": "address",
          "name": "to",
          "type": "address"
        },
        {
          "internalType": "uint256",
          "name": "tokenId",
          "type": "uint256"
        }
      ],
      "name": "approve",
      "outputs": [],
      "stateMutability": "nonpayable",
      "type": "function"
    },
    {
      "inputs": [
        {
          "internalType": "address",
          "name": "owner",
          "type": "address"
        }
      ],
      "name": "balanceOf",
      "outputs": [
        {
          "internalType": "uint256",
          "name": "",
          "type": "uint256"
        }
      ],
      "stateMutability": "view",
      "type": "function"
    },
    {
      "inputs": [
        {
          "internalType": "uint256",
          "name": "",
          "type": "uint256"
        }
      ],
      "name": "collectionItems",
      "outputs": [
        {
          "internalType": "string",
          "name": "uri",
          "type": "string"
        },
        {
          "internalType": "uint256",
          "name": "id",
          "type": "uint256"
        },
        {
          "internalType": "uint256",
          "name": "price",
          "type": "uint256"
        },
        {
          "internalType": "uint256",
          "name": "supply",
          "type": "uint256"
        },
        {
          "internalType": "uint256",
          "name": "mintedAmount",
          "type": "uint256"
        }
      ],
      "stateMutability": "view",
      "type": "function"
    },
    {
      "inputs": [],
      "name": "collectionItemsTotal",
      "outputs": [
        {
          "internalType": "uint256",
          "name": "",
          "type": "uint256"
        }
      ],
      "stateMutability": "view",
      "type": "function"
    },
    {
      "inputs": [
        {
          "internalType": "uint256",
          "name": "tokenId",
          "type": "uint256"
        }
      ],
      "name": "getApproved",
      "outputs": [
        {
          "internalType": "address",
          "name": "",
          "type": "address"
        }
      ],
      "stateMutability": "view",
      "type": "function"
    },
    {
      "inputs": [],
      "name": "getCollectionItems",
      "outputs": [
        {
          "components": [
            {
              "internalType": "string",
              "name": "uri",
              "type": "string"
            },
            {
              "internalType": "uint256",
              "name": "id",
              "type": "uint256"
            },
            {
              "internalType": "uint256",
              "name": "price",
              "type": "uint256"
            },
            {
              "internalType": "uint256",
              "name": "supply",
              "type": "uint256"
            },
            {
              "internalType": "uint256",
              "name": "mintedAmount",
              "type": "uint256"
            }
          ],
          "internalType": "struct NFTCollection.Collection[]",
          "name": "",
          "type": "tuple[]"
        }
      ],
      "stateMutability": "view",
      "type": "function"
    },
    {
      "inputs": [
        {
          "internalType": "address",
          "name": "owner",
          "type": "address"
        },
        {
          "internalType": "address",
          "name": "operator",
          "type": "address"
        }
      ],
      "name": "isApprovedForAll",
      "outputs": [
        {
          "internalType": "bool",
          "name": "",
          "type": "bool"
        }
      ],
      "stateMutability": "view",
      "type": "function"
    },
    {
      "inputs": [],
      "name": "name",
      "outputs": [
        {
          "internalType": "string",
          "name": "",
          "type": "string"
        }
      ],
      "stateMutability": "view",
      "type": "function"
    },
    {
      "inputs": [
        {
          "internalType": "string",
          "name": "_uri",
          "type": "string"
        },
        {
          "internalType": "uint256",
          "name": "_price",
          "type": "uint256"
        },
        {
          "internalType": "uint256",
          "name": "_supply",
          "type": "uint256"
        }
      ],
      "name": "newCollectionItem",
      "outputs": [],
      "stateMutability": "nonpayable",
      "type": "function"
    },
    {
      "inputs": [],
      "name": "owner",
      "outputs": [
        {
          "internalType": "address",
          "name": "",
          "type": "address"
        }
      ],
      "stateMutability": "view",
      "type": "function"
    },
    {
      "inputs": [
        {
          "internalType": "uint256",
          "name": "tokenId",
          "type": "uint256"
        }
      ],
      "name": "ownerOf",
      "outputs": [
        {
          "internalType": "address",
          "name": "",
          "type": "address"
        }
      ],
      "stateMutability": "view",
      "type": "function"
    },
    {
      "inputs": [],
      "name": "pause",
      "outputs": [],
      "stateMutability": "nonpayable",
      "type": "function"
    },
    {
      "inputs": [],
      "name": "paused",
      "outputs": [
        {
          "internalType": "bool",
          "name": "",
          "type": "bool"
        }
      ],
      "stateMutability": "view",
      "type": "function"
    },
    {
      "inputs": [
        {
          "internalType": "uint256",
          "name": "_collectionId",
          "type": "uint256"
        }
      ],
      "name": "payToMint",
      "outputs": [],
      "stateMutability": "payable",
      "type": "function"
    },
    {
      "inputs": [],
      "name": "renounceOwnership",
      "outputs": [],
      "stateMutability": "nonpayable",
      "type": "function"
    },
    {
      "inputs": [
        {
          "internalType": "address",
          "name": "_to",
          "type": "address"
        },
        {
          "internalType": "uint256",
          "name": "_collectionId",
          "type": "uint256"
        }
      ],
      "name": "safeMint",
      "outputs": [],
      "stateMutability": "nonpayable",
      "type": "function"
    },
    {
      "inputs": [
        {
          "internalType": "address",
          "name": "from",
          "type": "address"
        },
        {
          "internalType": "address",
          "name": "to",
          "type": "address"
        },
        {
          "internalType": "uint256",
          "name": "tokenId",
          "type": "uint256"
        }
      ],
      "name": "safeTransferFrom",
      "outputs": [],
      "stateMutability": "nonpayable",
      "type": "function"
    },
    {
      "inputs": [
        {
          "internalType": "address",
          "name": "from",
          "type": "address"
        },
        {
          "internalType": "address",
          "name": "to",
          "type": "address"
        },
        {
          "internalType": "uint256",
          "name": "tokenId",
          "type": "uint256"
        },
        {
          "internalType": "bytes",
          "name": "data",
          "type": "bytes"
        }
      ],
      "name": "safeTransferFrom",
      "outputs": [],
      "stateMutability": "nonpayable",
      "type": "function"
    },
    {
      "inputs": [
        {
          "internalType": "address",
          "name": "operator",
          "type": "address"
        },
        {
          "internalType": "bool",
          "name": "approved",
          "type": "bool"
        }
      ],
      "name": "setApprovalForAll",
      "outputs": [],
      "stateMutability": "nonpayable",
      "type": "function"
    },
    {
      "inputs": [
        {
          "internalType": "bytes4",
          "name": "interfaceId",
          "type": "bytes4"
        }
      ],
      "name": "supportsInterface",
      "outputs": [
        {
          "internalType": "bool",
          "name": "",
          "type": "bool"
        }
      ],
      "stateMutability": "view",
      "type": "function"
    },
    {
      "inputs": [],
      "name": "symbol",
      "outputs": [
        {
          "internalType": "string",
          "name": "",
          "type": "string"
        }
      ],
      "stateMutability": "view",
      "type": "function"
    },
    {
      "inputs": [
        {
          "internalType": "uint256",
          "name": "index",
          "type": "uint256"
        }
      ],
      "name": "tokenByIndex",
      "outputs": [
        {
          "internalType": "uint256",
          "name": "",
          "type": "uint256"
        }
      ],
      "stateMutability": "view",
      "type": "function"
    },
    {
      "inputs": [
        {
          "internalType": "address",
          "name": "owner",
          "type": "address"
        },
        {
          "internalType": "uint256",
          "name": "index",
          "type": "uint256"
        }
      ],
      "name": "tokenOfOwnerByIndex",
      "outputs": [
        {
          "internalType": "uint256",
          "name": "",
          "type": "uint256"
        }
      ],
      "stateMutability": "view",
      "type": "function"
    },
    {
      "inputs": [
        {
          "internalType": "uint256",
          "name": "tokenId",
          "type": "uint256"
        }
      ],
      "name": "tokenURI",
      "outputs": [
        {
          "internalType": "string",
          "name": "",
          "type": "string"
        }
      ],
      "stateMutability": "view",
      "type": "function"
    },
    {
      "inputs": [],
      "name": "totalSupply",
      "outputs": [
        {
          "internalType": "uint256",
          "name": "",
          "type": "uint256"
        }
      ],
      "stateMutability": "view",
      "type": "function"
    },
    {
      "inputs": [
        {
          "internalType": "address",
          "name": "from",
          "type": "address"
        },
        {
          "internalType": "address",
          "name": "to",
          "type": "address"
        },
        {
          "internalType": "uint256",
          "name": "tokenId",
          "type": "uint256"
        }
      ],
      "name": "transferFrom",
      "outputs": [],
      "stateMutability": "nonpayable",
      "type": "function"
    },
    {
      "inputs": [
        {
          "internalType": "address",
          "name": "newOwner",
          "type": "address"
        }
      ],
      "name": "transferOwnership",
      "outputs": [],
      "stateMutability": "nonpayable",
      "type": "function"
    },
    {
      "inputs": [],
      "name": "unpause",
      "outputs": [],
      "stateMutability": "nonpayable",
      "type": "function"
    },
    {
      "inputs": [
        {
          "internalType": "uint256",
          "name": "_collectionId",
          "type": "uint256"
        },
        {
          "internalType": "uint256",
          "name": "_price",
          "type": "uint256"
        },
        {
          "internalType": "uint256",
          "name": "_supply",
          "type": "uint256"
        }
      ],
      "name": "updateCollectionItem",
      "outputs": [],
      "stateMutability": "nonpayable",
      "type": "function"
    }
  ],
  "bytecode": "0x60806040523480156200001157600080fd5b5060405162002b1e38038062002b1e833981016040819052620000349162000343565b8251839083906200004d906000906020850190620001d0565b50805162000063906001906020840190620001d0565b5050600b805460ff19169055506200007b336200008f565b6200008681620000e9565b5050506200040d565b600b80546001600160a01b03838116610100818102610100600160a81b031985161790945560405193909204169182907f8be0079c531659141344cd1fd0a4f28419497f9722a3daafe3b4186f6b6457e090600090a35050565b620000f36200016c565b6001600160a01b0381166200015e5760405162461bcd60e51b815260206004820152602660248201527f4f776e61626c653a206e6577206f776e657220697320746865207a65726f206160448201526564647265737360d01b60648201526084015b60405180910390fd5b62000169816200008f565b50565b600b546001600160a01b03610100909104163314620001ce5760405162461bcd60e51b815260206004820181905260248201527f4f776e61626c653a2063616c6c6572206973206e6f7420746865206f776e6572604482015260640162000155565b565b828054620001de90620003d0565b90600052602060002090601f0160209004810192826200020257600085556200024d565b82601f106200021d57805160ff19168380011785556200024d565b828001600101855582156200024d579182015b828111156200024d57825182559160200191906001019062000230565b506200025b9291506200025f565b5090565b5b808211156200025b576000815560010162000260565b634e487b7160e01b600052604160045260246000fd5b600082601f8301126200029e57600080fd5b81516001600160401b0380821115620002bb57620002bb62000276565b604051601f8301601f19908116603f01168101908282118183101715620002e657620002e662000276565b816040528381526020925086838588010111156200030357600080fd5b600091505b8382101562000327578582018301518183018401529082019062000308565b83821115620003395760008385830101525b9695505050505050565b6000806000606084860312156200035957600080fd5b83516001600160401b03808211156200037157600080fd5b6200037f878388016200028c565b945060208601519150808211156200039657600080fd5b50620003a5868287016200028c565b604086015190935090506001600160a01b0381168114620003c557600080fd5b809150509250925092565b600181811c90821680620003e557607f821691505b602082108114156200040757634e487b7160e01b600052602260045260246000fd5b50919050565b612701806200041d6000396000f3fe6080604052600436106101c25760003560e01c80635c975abb116100f7578063a144819411610095578063b88d4fde11610064578063b88d4fde146104e2578063c87b56dd14610502578063e985e9c514610522578063f2fde38b1461056b57600080fd5b8063a14481941461045b578063a22cb4651461047b578063abcacc5d1461049b578063adcb4b7c146104b157600080fd5b8063715018a6116100d1578063715018a6146103f95780638456cb591461040e5780638da5cb5b1461042357806395d89b411461044657600080fd5b80635c975abb146103a15780636352211e146103b957806370a08231146103d957600080fd5b806323b872dd116101645780633f4ba83a1161013e5780633f4ba83a1461033957806342842e0e1461034e5780634f6ccce71461036e5780635c4c94ae1461038e57600080fd5b806323b872dd146102d957806325336668146102f95780632f745c591461031957600080fd5b8063095ea7b3116101a0578063095ea7b31461025657806318160ddd146102785780631a99e72014610297578063217603ab146102b957600080fd5b806301ffc9a7146101c757806306fdde03146101fc578063081812fc1461021e575b600080fd5b3480156101d357600080fd5b506101e76101e2366004612064565b61058b565b60405190151581526020015b60405180910390f35b34801561020857600080fd5b5061021161059c565b6040516101f391906120d9565b34801561022a57600080fd5b5061023e6102393660046120ec565b61062e565b6040516001600160a01b0390911681526020016101f3565b34801561026257600080fd5b50610276610271366004612121565b610655565b005b34801561028457600080fd5b506008545b6040519081526020016101f3565b3480156102a357600080fd5b506102ac610770565b6040516101f3919061214b565b3480156102c557600080fd5b506102766102d43660046121e0565b610889565b3480156102e557600080fd5b506102766102f436600461220c565b61095b565b34801561030557600080fd5b506102766103143660046122d4565b61098c565b34801561032557600080fd5b50610289610334366004612121565b610a8f565b34801561034557600080fd5b50610276610b25565b34801561035a57600080fd5b5061027661036936600461220c565b610b37565b34801561037a57600080fd5b506102896103893660046120ec565b610b52565b61027661039c3660046120ec565b610be5565b3480156103ad57600080fd5b50600b5460ff166101e7565b3480156103c557600080fd5b5061023e6103d43660046120ec565b610dbf565b3480156103e557600080fd5b506102896103f4366004612336565b610e1f565b34801561040557600080fd5b50610276610ea5565b34801561041a57600080fd5b50610276610eb7565b34801561042f57600080fd5b50600b5461010090046001600160a01b031661023e565b34801561045257600080fd5b50610211610ec7565b34801561046757600080fd5b50610276610476366004612121565b610ed6565b34801561048757600080fd5b50610276610496366004612351565b610fd7565b3480156104a757600080fd5b50610289600d5481565b3480156104bd57600080fd5b506104d16104cc3660046120ec565b610fe6565b6040516101f395949392919061238d565b3480156104ee57600080fd5b506102766104fd3660046123c4565b6110b4565b34801561050e57600080fd5b5061021161051d3660046120ec565b6110e6565b34801561052e57600080fd5b506101e761053d366004612440565b6001600160a01b03918216600090815260056020908152604080832093909416825291909152205460ff1690565b34801561057757600080fd5b50610276610586366004612336565b6110f1565b60006105968261116a565b92915050565b6060600080546105ab90612473565b80601f01602080910402602001604051908101604052809291908181526020018280546105d790612473565b80156106245780601f106105f957610100808354040283529160200191610624565b820191906000526020600020905b81548152906001019060200180831161060757829003601f168201915b5050505050905090565b60006106398261118f565b506000908152600460205260409020546001600160a01b031690565b600061066082610dbf565b9050806001600160a01b0316836001600160a01b031614156106d35760405162461bcd60e51b815260206004820152602160248201527f4552433732313a20617070726f76616c20746f2063757272656e74206f776e656044820152603960f91b60648201526084015b60405180910390fd5b336001600160a01b03821614806106ef57506106ef813361053d565b6107615760405162461bcd60e51b815260206004820152603e60248201527f4552433732313a20617070726f76652063616c6c6572206973206e6f7420746f60448201527f6b656e206f776e6572206e6f7220617070726f76656420666f7220616c6c000060648201526084016106ca565b61076b83836111ee565b505050565b6060600c805480602002602001604051908101604052809291908181526020016000905b8282101561088057838290600052602060002090600502016040518060a00160405290816000820180546107c790612473565b80601f01602080910402602001604051908101604052809291908181526020018280546107f390612473565b80156108405780601f1061081557610100808354040283529160200191610840565b820191906000526020600020905b81548152906001019060200180831161082357829003601f168201915b5050505050815260200160018201548152602001600282015481526020016003820154815260200160048201548152505081526020019060010190610794565b50505050905090565b61089161125c565b600d548311156108b35760405162461bcd60e51b81526004016106ca906124ae565b6000600c6108c26001866124ee565b815481106108d2576108d2612505565b90600052602060002090600502019050600082111561094a57806004015482101561094a5760405162461bcd60e51b815260206004820152602260248201527f537570706c79206973206c657373207468617420616c7265616479206d696e74604482015261195960f21b60648201526084016106ca565b600281019290925560039091015550565b61096533826112bc565b6109815760405162461bcd60e51b81526004016106ca9061251b565b61076b83838361133b565b61099461125c565b60008351116109d15760405162461bcd60e51b815260206004820152600960248201526857726f6e672055524960b81b60448201526064016106ca565b6001600d60008282546109e49190612569565b90915550506040805160a081018252848152600d5460208083019190915291810184905260608101839052600060808201819052600c8054600181018255915281518051929360059092027fdf6966c971051c3d54ec59162606531493a51404a002842f56009d7e5cf4a8c70192610a5f9284920190611fb5565b50602082015181600101556040820151816002015560608201518160030155608082015181600401555050505050565b6000610a9a83610e1f565b8210610afc5760405162461bcd60e51b815260206004820152602b60248201527f455243373231456e756d657261626c653a206f776e657220696e646578206f7560448201526a74206f6620626f756e647360a81b60648201526084016106ca565b506001600160a01b03919091166000908152600660209081526040808320938352929052205490565b610b2d61125c565b610b356114e2565b565b61076b838383604051806020016040528060008152506110b4565b6000610b5d60085490565b8210610bc05760405162461bcd60e51b815260206004820152602c60248201527f455243373231456e756d657261626c653a20676c6f62616c20696e646578206f60448201526b7574206f6620626f756e647360a01b60648201526084016106ca565b60088281548110610bd357610bd3612505565b90600052602060002001549050919050565b610bed611534565b600d54811115610c0f5760405162461bcd60e51b81526004016106ca906124ae565b6000600c610c1e6001846124ee565b81548110610c2e57610c2e612505565b90600052602060002090600502019050600081600201541115610c9e5734816002015414610c9e5760405162461bcd60e51b815260206004820152601c60248201527f57726f6e67207061796d656e7420616d6f756e7420746f206d696e740000000060448201526064016106ca565b600381015415610cf4578060040154816003015411610cf45760405162461bcd60e51b8152602060048201526012602482015271105b1b08139195081dd85cc81b5a5b9d195960721b60448201526064016106ca565b6001816004016000828254610d099190612569565b9091555050600e54610d1f600e80546001019055565b610d29338261157a565b61076b81836000018054610d3c90612473565b80601f0160208091040260200160405190810160405280929190818152602001828054610d6890612473565b8015610db55780601f10610d8a57610100808354040283529160200191610db5565b820191906000526020600020905b815481529060010190602001808311610d9857829003601f168201915b5050505050611594565b6000818152600260205260408120546001600160a01b0316806105965760405162461bcd60e51b8152602060048201526018602482015277115490cdcc8c4e881a5b9d985b1a59081d1bdad95b88125160421b60448201526064016106ca565b60006001600160a01b038216610e895760405162461bcd60e51b815260206004820152602960248201527f4552433732313a2061646472657373207a65726f206973206e6f7420612076616044820152683634b21037bbb732b960b91b60648201526084016106ca565b506001600160a01b031660009081526003602052604090205490565b610ead61125c565b610b35600061162e565b610ebf61125c565b610b35611688565b6060600180546105ab90612473565b610ede61125c565b610ee6611534565b600d54811115610f085760405162461bcd60e51b81526004016106ca906124ae565b6001600160a01b038216610f555760405162461bcd60e51b815260206004820152601460248201527357726f6e672077616c6c6574204164647265737360601b60448201526064016106ca565b6000610f60600e5490565b90506000600c610f716001856124ee565b81548110610f8157610f81612505565b906000526020600020906005020190506001816004016000828254610fa69190612569565b9091555050600e80546001019055610fbe848361157a565b610fd182826000018054610d3c90612473565b50505050565b610fe23383836116c5565b5050565b600c8181548110610ff657600080fd5b906000526020600020906005020160009150905080600001805461101990612473565b80601f016020809104026020016040519081016040528092919081815260200182805461104590612473565b80156110925780601f1061106757610100808354040283529160200191611092565b820191906000526020600020905b81548152906001019060200180831161107557829003601f168201915b5050505050908060010154908060020154908060030154908060040154905085565b6110be33836112bc565b6110da5760405162461bcd60e51b81526004016106ca9061251b565b610fd184848484611794565b6060610596826117c7565b6110f961125c565b6001600160a01b03811661115e5760405162461bcd60e51b815260206004820152602660248201527f4f776e61626c653a206e6577206f776e657220697320746865207a65726f206160448201526564647265737360d01b60648201526084016106ca565b6111678161162e565b50565b60006001600160e01b0319821663780e9d6360e01b14806105965750610596826118d0565b6000818152600260205260409020546001600160a01b03166111675760405162461bcd60e51b8152602060048201526018602482015277115490cdcc8c4e881a5b9d985b1a59081d1bdad95b88125160421b60448201526064016106ca565b600081815260046020526040902080546001600160a01b0319166001600160a01b038416908117909155819061122382610dbf565b6001600160a01b03167f8c5be1e5ebec7d5bd14f71427d1e84f3dd0314c0f7b2291e5b200ac8c7c3b92560405160405180910390a45050565b600b546001600160a01b03610100909104163314610b355760405162461bcd60e51b815260206004820181905260248201527f4f776e61626c653a2063616c6c6572206973206e6f7420746865206f776e657260448201526064016106ca565b6000806112c883610dbf565b9050806001600160a01b0316846001600160a01b0316148061130f57506001600160a01b0380821660009081526005602090815260408083209388168352929052205460ff165b806113335750836001600160a01b03166113288461062e565b6001600160a01b0316145b949350505050565b826001600160a01b031661134e82610dbf565b6001600160a01b0316146113b25760405162461bcd60e51b815260206004820152602560248201527f4552433732313a207472616e736665722066726f6d20696e636f72726563742060448201526437bbb732b960d91b60648201526084016106ca565b6001600160a01b0382166114145760405162461bcd60e51b8152602060048201526024808201527f4552433732313a207472616e7366657220746f20746865207a65726f206164646044820152637265737360e01b60648201526084016106ca565b61141f838383611920565b61142a6000826111ee565b6001600160a01b03831660009081526003602052604081208054600192906114539084906124ee565b90915550506001600160a01b0382166000908152600360205260408120805460019290611481908490612569565b909155505060008181526002602052604080822080546001600160a01b0319166001600160a01b0386811691821790925591518493918716917fddf252ad1be2c89b69c2b068fc378daa952ba7f163c4a11628f55a4df523b3ef91a4505050565b6114ea611933565b600b805460ff191690557f5db9ee0a495bf2e6ff9c91a7834c1ba4fdd244a5e8aa4e537bd38aeae4b073aa335b6040516001600160a01b03909116815260200160405180910390a1565b600b5460ff1615610b355760405162461bcd60e51b815260206004820152601060248201526f14185d5cd8589b194e881c185d5cd95960821b60448201526064016106ca565b610fe282826040518060200160405280600081525061197c565b6000828152600260205260409020546001600160a01b031661160f5760405162461bcd60e51b815260206004820152602e60248201527f45524337323155524953746f726167653a2055524920736574206f66206e6f6e60448201526d32bc34b9ba32b73a103a37b5b2b760911b60648201526084016106ca565b6000828152600a60209081526040909120825161076b92840190611fb5565b600b80546001600160a01b03838116610100818102610100600160a81b031985161790945560405193909204169182907f8be0079c531659141344cd1fd0a4f28419497f9722a3daafe3b4186f6b6457e090600090a35050565b611690611534565b600b805460ff191660011790557f62e78cea01bee320cd4e420270b5ea74000d11b0c9f74754ebdbfc544b05a2586115173390565b816001600160a01b0316836001600160a01b031614156117275760405162461bcd60e51b815260206004820152601960248201527f4552433732313a20617070726f766520746f2063616c6c65720000000000000060448201526064016106ca565b6001600160a01b03838116600081815260056020908152604080832094871680845294825291829020805460ff191686151590811790915591519182527f17307eab39ab6107e8899845ad3d59bd9653f200f220920489ca2b5937696c31910160405180910390a3505050565b61179f84848461133b565b6117ab848484846119af565b610fd15760405162461bcd60e51b81526004016106ca90612581565b60606117d28261118f565b6000828152600a6020526040812080546117eb90612473565b80601f016020809104026020016040519081016040528092919081815260200182805461181790612473565b80156118645780601f1061183957610100808354040283529160200191611864565b820191906000526020600020905b81548152906001019060200180831161184757829003601f168201915b50505050509050600061188260408051602081019091526000815290565b9050805160001415611895575092915050565b8151156118c75780826040516020016118af9291906125d3565b60405160208183030381529060405292505050919050565b61133384611aad565b60006001600160e01b031982166380ac58cd60e01b148061190157506001600160e01b03198216635b5e139f60e01b145b8061059657506301ffc9a760e01b6001600160e01b0319831614610596565b611928611534565b61076b838383611b21565b600b5460ff16610b355760405162461bcd60e51b815260206004820152601460248201527314185d5cd8589b194e881b9bdd081c185d5cd95960621b60448201526064016106ca565b6119868383611bd9565b61199360008484846119af565b61076b5760405162461bcd60e51b81526004016106ca90612581565b60006001600160a01b0384163b15611aa257604051630a85bd0160e11b81526001600160a01b0385169063150b7a02906119f3903390899088908890600401612602565b6020604051808303816000875af1925050508015611a2e575060408051601f3d908101601f19168201909252611a2b9181019061263f565b60015b611a88573d808015611a5c576040519150601f19603f3d011682016040523d82523d6000602084013e611a61565b606091505b508051611a805760405162461bcd60e51b81526004016106ca90612581565b805181602001fd5b6001600160e01b031916630a85bd0160e11b149050611333565b506001949350505050565b6060611ab88261118f565b6000611acf60408051602081019091526000815290565b90506000815111611aef5760405180602001604052806000815250611b1a565b80611af984611d27565b604051602001611b0a9291906125d3565b6040516020818303038152906040525b9392505050565b6001600160a01b038316611b7c57611b7781600880546000838152600960205260408120829055600182018355919091527ff3f7a9fe364faab93b216da50a3214154f22a0a2b415b23a84c8169e8b636ee30155565b611b9f565b816001600160a01b0316836001600160a01b031614611b9f57611b9f8382611e25565b6001600160a01b038216611bb65761076b81611ec2565b826001600160a01b0316826001600160a01b03161461076b5761076b8282611f71565b6001600160a01b038216611c2f5760405162461bcd60e51b815260206004820181905260248201527f4552433732313a206d696e7420746f20746865207a65726f206164647265737360448201526064016106ca565b6000818152600260205260409020546001600160a01b031615611c945760405162461bcd60e51b815260206004820152601c60248201527f4552433732313a20746f6b656e20616c7265616479206d696e7465640000000060448201526064016106ca565b611ca060008383611920565b6001600160a01b0382166000908152600360205260408120805460019290611cc9908490612569565b909155505060008181526002602052604080822080546001600160a01b0319166001600160a01b03861690811790915590518392907fddf252ad1be2c89b69c2b068fc378daa952ba7f163c4a11628f55a4df523b3ef908290a45050565b606081611d4b5750506040805180820190915260018152600360fc1b602082015290565b8160005b8115611d755780611d5f8161265c565b9150611d6e9050600a8361268d565b9150611d4f565b60008167ffffffffffffffff811115611d9057611d90612248565b6040519080825280601f01601f191660200182016040528015611dba576020820181803683370190505b5090505b841561133357611dcf6001836124ee565b9150611ddc600a866126a1565b611de7906030612569565b60f81b818381518110611dfc57611dfc612505565b60200101906001600160f81b031916908160001a905350611e1e600a8661268d565b9450611dbe565b60006001611e3284610e1f565b611e3c91906124ee565b600083815260076020526040902054909150808214611e8f576001600160a01b03841660009081526006602090815260408083208584528252808320548484528184208190558352600790915290208190555b5060009182526007602090815260408084208490556001600160a01b039094168352600681528383209183525290812055565b600854600090611ed4906001906124ee565b60008381526009602052604081205460088054939450909284908110611efc57611efc612505565b906000526020600020015490508060088381548110611f1d57611f1d612505565b6000918252602080832090910192909255828152600990915260408082208490558582528120556008805480611f5557611f556126b5565b6001900381819060005260206000200160009055905550505050565b6000611f7c83610e1f565b6001600160a01b039093166000908152600660209081526040808320868452825280832085905593825260079052919091209190915550565b828054611fc190612473565b90600052602060002090601f016020900481019282611fe35760008555612029565b82601f10611ffc57805160ff1916838001178555612029565b82800160010185558215612029579182015b8281111561202957825182559160200191906001019061200e565b50612035929150612039565b5090565b5b80821115612035576000815560010161203a565b6001600160e01b03198116811461116757600080fd5b60006020828403121561207657600080fd5b8135611b1a8161204e565b60005b8381101561209c578181015183820152602001612084565b83811115610fd15750506000910152565b600081518084526120c5816020860160208601612081565b601f01601f19169290920160200192915050565b602081526000611b1a60208301846120ad565b6000602082840312156120fe57600080fd5b5035919050565b80356001600160a01b038116811461211c57600080fd5b919050565b6000806040838503121561213457600080fd5b61213d83612105565b946020939093013593505050565b60006020808301818452808551808352604092508286019150828160051b87010184880160005b838110156121d257603f19898403018552815160a08151818652612198828701826120ad565b838b0151878c0152898401518a88015260608085015190880152608093840151939096019290925250509386019390860190600101612172565b509098975050505050505050565b6000806000606084860312156121f557600080fd5b505081359360208301359350604090920135919050565b60008060006060848603121561222157600080fd5b61222a84612105565b925061223860208501612105565b9150604084013590509250925092565b634e487b7160e01b600052604160045260246000fd5b600067ffffffffffffffff8084111561227957612279612248565b604051601f8501601f19908116603f011681019082821181831017156122a1576122a1612248565b816040528093508581528686860111156122ba57600080fd5b858560208301376000602087830101525050509392505050565b6000806000606084860312156122e957600080fd5b833567ffffffffffffffff81111561230057600080fd5b8401601f8101861361231157600080fd5b6123208682356020840161225e565b9660208601359650604090950135949350505050565b60006020828403121561234857600080fd5b611b1a82612105565b6000806040838503121561236457600080fd5b61236d83612105565b91506020830135801515811461238257600080fd5b809150509250929050565b60a0815260006123a060a08301886120ad565b90508560208301528460408301528360608301528260808301529695505050505050565b600080600080608085870312156123da57600080fd5b6123e385612105565b93506123f160208601612105565b925060408501359150606085013567ffffffffffffffff81111561241457600080fd5b8501601f8101871361242557600080fd5b6124348782356020840161225e565b91505092959194509250565b6000806040838503121561245357600080fd5b61245c83612105565b915061246a60208401612105565b90509250929050565b600181811c9082168061248757607f821691505b602082108114156124a857634e487b7160e01b600052602260045260246000fd5b50919050565b60208082526010908201526f2bb937b7339021b7b63632b1ba34b7b760811b604082015260600190565b634e487b7160e01b600052601160045260246000fd5b600082821015612500576125006124d8565b500390565b634e487b7160e01b600052603260045260246000fd5b6020808252602e908201527f4552433732313a2063616c6c6572206973206e6f7420746f6b656e206f776e6560408201526d1c881b9bdc88185c1c1c9bdd995960921b606082015260800190565b6000821982111561257c5761257c6124d8565b500190565b60208082526032908201527f4552433732313a207472616e7366657220746f206e6f6e20455243373231526560408201527131b2b4bb32b91034b6b83632b6b2b73a32b960711b606082015260800190565b600083516125e5818460208801612081565b8351908301906125f9818360208801612081565b01949350505050565b6001600160a01b0385811682528416602082015260408101839052608060608201819052600090612635908301846120ad565b9695505050505050565b60006020828403121561265157600080fd5b8151611b1a8161204e565b6000600019821415612670576126706124d8565b5060010190565b634e487b7160e01b600052601260045260246000fd5b60008261269c5761269c612677565b500490565b6000826126b0576126b0612677565b500690565b634e487b7160e01b600052603160045260246000fdfea26469706673582212202eddc35563cb1fe60afa6b5749633f9c71ef3bcac980eda19f9d31995f98c07764736f6c634300080c0033",
  "linkReferences": {},
  "deployedLinkReferences": {}
}