{
  "_format": "hh-sol-artifact-1",
  "contractName": "Web3Community",
  "sourceName": "src/backend/contracts/Web3Community.sol",
  "abi": [
    {
      "inputs": [],
      "stateMutability": "nonpayable",
      "type": "constructor"
    },
    {
      "anonymous": false,
      "inputs": [
        {
          "indexed": false,
          "internalType": "address",
          "name": "previousAdmin",
          "type": "address"
        },
        {
          "indexed": false,
          "internalType": "address",
          "name": "newAdmin",
          "type": "address"
        }
      ],
      "name": "AdminChanged",
      "type": "event"
    },
    {
      "anonymous": false,
      "inputs": [
        {
          "indexed": true,
          "internalType": "address",
          "name": "beacon",
          "type": "address"
        }
      ],
      "name": "BeaconUpgraded",
      "type": "event"
    },
    {
      "anonymous": false,
      "inputs": [
        {
          "indexed": false,
          "internalType": "uint8",
          "name": "version",
          "type": "uint8"
        }
      ],
      "name": "Initialized",
      "type": "event"
    },
    {
      "anonymous": false,
      "inputs": [
        {
          "indexed": true,
          "internalType": "address",
          "name": "previousOwner",
          "type": "address"
        },
        {
          "indexed": true,
          "internalType": "address",
          "name": "newOwner",
          "type": "address"
        }
      ],
      "name": "OwnershipTransferred",
      "type": "event"
    },
    {
      "anonymous": false,
      "inputs": [
        {
          "indexed": true,
          "internalType": "address",
          "name": "implementation",
          "type": "address"
        }
      ],
      "name": "Upgraded",
      "type": "event"
    },
    {
      "inputs": [],
      "name": "communityCount",
      "outputs": [
        {
          "internalType": "uint256",
          "name": "",
          "type": "uint256"
        }
      ],
      "stateMutability": "view",
      "type": "function"
    },
    {
      "inputs": [
        {
          "internalType": "address",
          "name": "",
          "type": "address"
        },
        {
          "internalType": "uint256",
          "name": "",
          "type": "uint256"
        }
      ],
      "name": "communityList",
      "outputs": [
        {
          "internalType": "uint256",
          "name": "id",
          "type": "uint256"
        },
        {
          "internalType": "string",
          "name": "name",
          "type": "string"
        },
        {
          "internalType": "string",
          "name": "logo",
          "type": "string"
        },
        {
          "internalType": "address",
          "name": "nftContract",
          "type": "address"
        },
        {
          "internalType": "address",
          "name": "ftContract",
          "type": "address"
        }
      ],
      "stateMutability": "view",
      "type": "function"
    },
    {
      "inputs": [
        {
          "internalType": "string",
          "name": "_name",
          "type": "string"
        },
        {
          "internalType": "string",
          "name": "_logo",
          "type": "string"
        }
      ],
      "name": "createCommunity",
      "outputs": [],
      "stateMutability": "nonpayable",
      "type": "function"
    },
    {
      "inputs": [
        {
          "internalType": "address",
          "name": "_owner",
          "type": "address"
        }
      ],
      "name": "getUserCommunities",
      "outputs": [
        {
          "components": [
            {
              "internalType": "uint256",
              "name": "id",
              "type": "uint256"
            },
            {
              "internalType": "string",
              "name": "name",
              "type": "string"
            },
            {
              "internalType": "string",
              "name": "logo",
              "type": "string"
            },
            {
              "internalType": "address",
              "name": "nftContract",
              "type": "address"
            },
            {
              "internalType": "address",
              "name": "ftContract",
              "type": "address"
            }
          ],
          "internalType": "struct Web3Community.Community[]",
          "name": "",
          "type": "tuple[]"
        }
      ],
      "stateMutability": "view",
      "type": "function"
    },
    {
      "inputs": [],
      "name": "initialize",
      "outputs": [],
      "stateMutability": "nonpayable",
      "type": "function"
    },
    {
      "inputs": [],
      "name": "owner",
      "outputs": [
        {
          "internalType": "address",
          "name": "",
          "type": "address"
        }
      ],
      "stateMutability": "view",
      "type": "function"
    },
    {
      "inputs": [],
      "name": "proxiableUUID",
      "outputs": [
        {
          "internalType": "bytes32",
          "name": "",
          "type": "bytes32"
        }
      ],
      "stateMutability": "view",
      "type": "function"
    },
    {
      "inputs": [],
      "name": "renounceOwnership",
      "outputs": [],
      "stateMutability": "nonpayable",
      "type": "function"
    },
    {
      "inputs": [
        {
          "internalType": "address",
          "name": "newOwner",
          "type": "address"
        }
      ],
      "name": "transferOwnership",
      "outputs": [],
      "stateMutability": "nonpayable",
      "type": "function"
    },
    {
      "inputs": [
        {
          "internalType": "address",
          "name": "newImplementation",
          "type": "address"
        }
      ],
      "name": "upgradeTo",
      "outputs": [],
      "stateMutability": "nonpayable",
      "type": "function"
    },
    {
      "inputs": [
        {
          "internalType": "address",
          "name": "newImplementation",
          "type": "address"
        },
        {
          "internalType": "bytes",
          "name": "data",
          "type": "bytes"
        }
      ],
      "name": "upgradeToAndCall",
      "outputs": [],
      "stateMutability": "payable",
      "type": "function"
    }
  ],
  "bytecode": "0x60a06040523060805234801561001457600080fd5b5061001d610022565b6100e2565b600054610100900460ff161561008e5760405162461bcd60e51b815260206004820152602760248201527f496e697469616c697a61626c653a20636f6e747261637420697320696e697469604482015266616c697a696e6760c81b606482015260840160405180910390fd5b60005460ff90811610156100e0576000805460ff191660ff9081179091556040519081527f7f26b83ff96e1f2b6a682f133852f6798a09c465da95921460cefb38474024989060200160405180910390a15b565b6080516114dc61011960003960008181610462015281816104ab0152818161054b0152818161058b015261061e01526114dc6000f3fe60806040526004361061009c5760003560e01c80636543286f116100645780636543286f14610153578063715018a6146101805780638129fc1c146101955780638da5cb5b146101aa578063aee84613146101d2578063f2fde38b146101e857600080fd5b806303b28c33146100a157806331738c11146100c35780633659cfe6146100fd5780634f1ef2861461011d57806352d1902d14610130575b600080fd5b3480156100ad57600080fd5b506100c16100bc366004611059565b610208565b005b3480156100cf57600080fd5b506100e36100de3660046110d9565b6102e7565b6040516100f495949392919061115b565b60405180910390f35b34801561010957600080fd5b506100c16101183660046111ac565b610457565b6100c161012b3660046111c7565b610540565b34801561013c57600080fd5b50610145610611565b6040519081526020016100f4565b34801561015f57600080fd5b5061017361016e3660046111ac565b6106c4565b6040516100f4919061121f565b34801561018c57600080fd5b506100c161088d565b3480156101a157600080fd5b506100c16108a1565b3480156101b657600080fd5b506033546040516001600160a01b0390911681526020016100f4565b3480156101de57600080fd5b5061014560c95481565b3480156101f457600080fd5b506100c16102033660046111ac565b6109b9565b600160c9600082825461021b91906112d3565b909155505033600090815260ca60209081526040808320815160a08101835260c954815280840187815292810186905260608101859052608081018590528154600181810184559286529484902081516005909602019485559151805192949361028b9392850192910190610f14565b50604082015180516102a7916002840191602090910190610f14565b5060608201516003820180546001600160a01b03199081166001600160a01b03938416179091556080909301516004909201805490931691161790555050565b60ca602052816000526040600020818154811061030357600080fd5b90600052602060002090600502016000915091505080600001549080600101805461032d906112f9565b80601f0160208091040260200160405190810160405280929190818152602001828054610359906112f9565b80156103a65780601f1061037b576101008083540402835291602001916103a6565b820191906000526020600020905b81548152906001019060200180831161038957829003601f168201915b5050505050908060020180546103bb906112f9565b80601f01602080910402602001604051908101604052809291908181526020018280546103e7906112f9565b80156104345780601f1061040957610100808354040283529160200191610434565b820191906000526020600020905b81548152906001019060200180831161041757829003601f168201915b50505050600383015460049093015491926001600160a01b039081169216905085565b306001600160a01b037f00000000000000000000000000000000000000000000000000000000000000001614156104a95760405162461bcd60e51b81526004016104a090611334565b60405180910390fd5b7f00000000000000000000000000000000000000000000000000000000000000006001600160a01b03166104f2600080516020611460833981519152546001600160a01b031690565b6001600160a01b0316146105185760405162461bcd60e51b81526004016104a090611380565b61052181610a2f565b6040805160008082526020820190925261053d91839190610a37565b50565b306001600160a01b037f00000000000000000000000000000000000000000000000000000000000000001614156105895760405162461bcd60e51b81526004016104a090611334565b7f00000000000000000000000000000000000000000000000000000000000000006001600160a01b03166105d2600080516020611460833981519152546001600160a01b031690565b6001600160a01b0316146105f85760405162461bcd60e51b81526004016104a090611380565b61060182610a2f565b61060d82826001610a37565b5050565b6000306001600160a01b037f000000000000000000000000000000000000000000000000000000000000000016146106b15760405162461bcd60e51b815260206004820152603860248201527f555550535570677261646561626c653a206d757374206e6f742062652063616c60448201527f6c6564207468726f7567682064656c656761746563616c6c000000000000000060648201526084016104a0565b5060008051602061146083398151915290565b6001600160a01b038116600090815260ca60209081526040808320805482518185028101850190935280835260609492939192909184015b8282101561088257838290600052602060002090600502016040518060a001604052908160008201548152602001600182018054610739906112f9565b80601f0160208091040260200160405190810160405280929190818152602001828054610765906112f9565b80156107b25780601f10610787576101008083540402835291602001916107b2565b820191906000526020600020905b81548152906001019060200180831161079557829003601f168201915b505050505081526020016002820180546107cb906112f9565b80601f01602080910402602001604051908101604052809291908181526020018280546107f7906112f9565b80156108445780601f1061081957610100808354040283529160200191610844565b820191906000526020600020905b81548152906001019060200180831161082757829003601f168201915b505050918352505060038201546001600160a01b039081166020808401919091526004909301541660409091015290825260019290920191016106fc565b505050509050919050565b610895610ba7565b61089f6000610c01565b565b600054610100900460ff16158080156108c15750600054600160ff909116105b806108db5750303b1580156108db575060005460ff166001145b61093e5760405162461bcd60e51b815260206004820152602e60248201527f496e697469616c697a61626c653a20636f6e747261637420697320616c72656160448201526d191e481a5b9a5d1a585b1a5e995960921b60648201526084016104a0565b6000805460ff191660011790558015610961576000805461ff0019166101001790555b610969610c53565b610971610c82565b801561053d576000805461ff0019169055604051600181527f7f26b83ff96e1f2b6a682f133852f6798a09c465da95921460cefb38474024989060200160405180910390a150565b6109c1610ba7565b6001600160a01b038116610a265760405162461bcd60e51b815260206004820152602660248201527f4f776e61626c653a206e6577206f776e657220697320746865207a65726f206160448201526564647265737360d01b60648201526084016104a0565b61053d81610c01565b61053d610ba7565b7f4910fdfa16fed3260ed0e7147f7cc6da11a60208b5b9406d12a635614ffd91435460ff1615610a6f57610a6a83610ca9565b505050565b826001600160a01b03166352d1902d6040518163ffffffff1660e01b8152600401602060405180830381865afa925050508015610ac9575060408051601f3d908101601f19168201909252610ac6918101906113cc565b60015b610b2c5760405162461bcd60e51b815260206004820152602e60248201527f45524331393637557067726164653a206e657720696d706c656d656e7461746960448201526d6f6e206973206e6f74205555505360901b60648201526084016104a0565b6000805160206114608339815191528114610b9b5760405162461bcd60e51b815260206004820152602960248201527f45524331393637557067726164653a20756e737570706f727465642070726f786044820152681a58589b195555525160ba1b60648201526084016104a0565b50610a6a838383610d45565b6033546001600160a01b0316331461089f5760405162461bcd60e51b815260206004820181905260248201527f4f776e61626c653a2063616c6c6572206973206e6f7420746865206f776e657260448201526064016104a0565b603380546001600160a01b038381166001600160a01b0319831681179093556040519116919082907f8be0079c531659141344cd1fd0a4f28419497f9722a3daafe3b4186f6b6457e090600090a35050565b600054610100900460ff16610c7a5760405162461bcd60e51b81526004016104a0906113e5565b61089f610d70565b600054610100900460ff1661089f5760405162461bcd60e51b81526004016104a0906113e5565b6001600160a01b0381163b610d165760405162461bcd60e51b815260206004820152602d60248201527f455243313936373a206e657720696d706c656d656e746174696f6e206973206e60448201526c1bdd08184818dbdb9d1c9858dd609a1b60648201526084016104a0565b60008051602061146083398151915280546001600160a01b0319166001600160a01b0392909216919091179055565b610d4e83610da0565b600082511180610d5b5750805b15610a6a57610d6a8383610de0565b50505050565b600054610100900460ff16610d975760405162461bcd60e51b81526004016104a0906113e5565b61089f33610c01565b610da981610ca9565b6040516001600160a01b038216907fbc7cd75a20ee27fd9adebab32041f755214dbc6bffa90cc0225b39da2e5c2d3b90600090a250565b60606001600160a01b0383163b610e485760405162461bcd60e51b815260206004820152602660248201527f416464726573733a2064656c65676174652063616c6c20746f206e6f6e2d636f6044820152651b9d1c9858dd60d21b60648201526084016104a0565b600080846001600160a01b031684604051610e639190611430565b600060405180830381855af49150503d8060008114610e9e576040519150601f19603f3d011682016040523d82523d6000602084013e610ea3565b606091505b5091509150610ecb828260405180606001604052806027815260200161148060279139610ed4565b95945050505050565b60608315610ee3575081610f0d565b825115610ef35782518084602001fd5b8160405162461bcd60e51b81526004016104a0919061144c565b9392505050565b828054610f20906112f9565b90600052602060002090601f016020900481019282610f425760008555610f88565b82601f10610f5b57805160ff1916838001178555610f88565b82800160010185558215610f88579182015b82811115610f88578251825591602001919060010190610f6d565b50610f94929150610f98565b5090565b5b80821115610f945760008155600101610f99565b634e487b7160e01b600052604160045260246000fd5b600067ffffffffffffffff80841115610fde57610fde610fad565b604051601f8501601f19908116603f0116810190828211818310171561100657611006610fad565b8160405280935085815286868601111561101f57600080fd5b858560208301376000602087830101525050509392505050565b600082601f83011261104a57600080fd5b610f0d83833560208501610fc3565b6000806040838503121561106c57600080fd5b823567ffffffffffffffff8082111561108457600080fd5b61109086838701611039565b935060208501359150808211156110a657600080fd5b506110b385828601611039565b9150509250929050565b80356001600160a01b03811681146110d457600080fd5b919050565b600080604083850312156110ec57600080fd5b6110f5836110bd565b946020939093013593505050565b60005b8381101561111e578181015183820152602001611106565b83811115610d6a5750506000910152565b60008151808452611147816020860160208601611103565b601f01601f19169290920160200192915050565b85815260a06020820152600061117460a083018761112f565b8281036040840152611186818761112f565b6001600160a01b0395861660608501529390941660809092019190915250949350505050565b6000602082840312156111be57600080fd5b610f0d826110bd565b600080604083850312156111da57600080fd5b6111e3836110bd565b9150602083013567ffffffffffffffff8111156111ff57600080fd5b8301601f8101851361121057600080fd5b6110b385823560208401610fc3565b60006020808301818452808551808352604092508286019150828160051b87010184880160005b838110156112c557603f19898403018552815160a08151855288820151818a8701526112748287018261112f565b915050878201518582038987015261128c828261112f565b6060848101516001600160a01b039081169189019190915260809485015116939096019290925250509386019390860190600101611246565b509098975050505050505050565b600082198211156112f457634e487b7160e01b600052601160045260246000fd5b500190565b600181811c9082168061130d57607f821691505b6020821081141561132e57634e487b7160e01b600052602260045260246000fd5b50919050565b6020808252602c908201527f46756e6374696f6e206d7573742062652063616c6c6564207468726f7567682060408201526b19195b1959d85d1958d85b1b60a21b606082015260800190565b6020808252602c908201527f46756e6374696f6e206d7573742062652063616c6c6564207468726f7567682060408201526b6163746976652070726f787960a01b606082015260800190565b6000602082840312156113de57600080fd5b5051919050565b6020808252602b908201527f496e697469616c697a61626c653a20636f6e7472616374206973206e6f74206960408201526a6e697469616c697a696e6760a81b606082015260800190565b60008251611442818460208701611103565b9190910192915050565b602081526000610f0d602083018461112f56fe360894a13ba1a3210667c828492db98dca3e2076cc3735a920a3ca505d382bbc416464726573733a206c6f772d6c6576656c2064656c65676174652063616c6c206661696c6564a2646970667358221220d4dd05dbbc59658c8d872d6dd5a4059b9b812eb95476006cab2c877361bda6fd64736f6c634300080c0033",
  "linkReferences": {},
  "deployedLinkReferences": {}
}