{
  "_format": "hh-sol-artifact-1",
  "contractName": "Web3Community",
  "sourceName": "src/backend/contracts/Web3Community.sol",
  "abi": [
    {
      "inputs": [],
      "stateMutability": "nonpayable",
      "type": "constructor"
    },
    {
      "anonymous": false,
      "inputs": [
        {
          "indexed": false,
          "internalType": "address",
          "name": "previousAdmin",
          "type": "address"
        },
        {
          "indexed": false,
          "internalType": "address",
          "name": "newAdmin",
          "type": "address"
        }
      ],
      "name": "AdminChanged",
      "type": "event"
    },
    {
      "anonymous": false,
      "inputs": [
        {
          "indexed": true,
          "internalType": "address",
          "name": "beacon",
          "type": "address"
        }
      ],
      "name": "BeaconUpgraded",
      "type": "event"
    },
    {
      "anonymous": false,
      "inputs": [
        {
          "indexed": false,
          "internalType": "uint8",
          "name": "version",
          "type": "uint8"
        }
      ],
      "name": "Initialized",
      "type": "event"
    },
    {
      "anonymous": false,
      "inputs": [
        {
          "indexed": true,
          "internalType": "address",
          "name": "previousOwner",
          "type": "address"
        },
        {
          "indexed": true,
          "internalType": "address",
          "name": "newOwner",
          "type": "address"
        }
      ],
      "name": "OwnershipTransferred",
      "type": "event"
    },
    {
      "anonymous": false,
      "inputs": [
        {
          "indexed": true,
          "internalType": "address",
          "name": "implementation",
          "type": "address"
        }
      ],
      "name": "Upgraded",
      "type": "event"
    },
    {
      "inputs": [],
      "name": "communityCount",
      "outputs": [
        {
          "internalType": "uint256",
          "name": "",
          "type": "uint256"
        }
      ],
      "stateMutability": "view",
      "type": "function"
    },
    {
      "inputs": [
        {
          "internalType": "address",
          "name": "",
          "type": "address"
        },
        {
          "internalType": "uint256",
          "name": "",
          "type": "uint256"
        }
      ],
      "name": "communityList",
      "outputs": [
        {
          "internalType": "uint256",
          "name": "id",
          "type": "uint256"
        },
        {
          "internalType": "string",
          "name": "name",
          "type": "string"
        },
        {
          "internalType": "string",
          "name": "logo",
          "type": "string"
        },
        {
          "internalType": "address",
          "name": "nftContract",
          "type": "address"
        },
        {
          "internalType": "address",
          "name": "ftContract",
          "type": "address"
        }
      ],
      "stateMutability": "view",
      "type": "function"
    },
    {
      "inputs": [
        {
          "internalType": "string",
          "name": "_name",
          "type": "string"
        },
        {
          "internalType": "string",
          "name": "_logo",
          "type": "string"
        }
      ],
      "name": "createCommunity",
      "outputs": [],
      "stateMutability": "nonpayable",
      "type": "function"
    },
    {
      "inputs": [],
      "name": "initialize",
      "outputs": [],
      "stateMutability": "nonpayable",
      "type": "function"
    },
    {
      "inputs": [],
      "name": "owner",
      "outputs": [
        {
          "internalType": "address",
          "name": "",
          "type": "address"
        }
      ],
      "stateMutability": "view",
      "type": "function"
    },
    {
      "inputs": [],
      "name": "proxiableUUID",
      "outputs": [
        {
          "internalType": "bytes32",
          "name": "",
          "type": "bytes32"
        }
      ],
      "stateMutability": "view",
      "type": "function"
    },
    {
      "inputs": [],
      "name": "renounceOwnership",
      "outputs": [],
      "stateMutability": "nonpayable",
      "type": "function"
    },
    {
      "inputs": [
        {
          "internalType": "address",
          "name": "newOwner",
          "type": "address"
        }
      ],
      "name": "transferOwnership",
      "outputs": [],
      "stateMutability": "nonpayable",
      "type": "function"
    },
    {
      "inputs": [
        {
          "internalType": "address",
          "name": "newImplementation",
          "type": "address"
        }
      ],
      "name": "upgradeTo",
      "outputs": [],
      "stateMutability": "nonpayable",
      "type": "function"
    },
    {
      "inputs": [
        {
          "internalType": "address",
          "name": "newImplementation",
          "type": "address"
        },
        {
          "internalType": "bytes",
          "name": "data",
          "type": "bytes"
        }
      ],
      "name": "upgradeToAndCall",
      "outputs": [],
      "stateMutability": "payable",
      "type": "function"
    }
  ],
  "bytecode": "0x60a06040523060805234801561001457600080fd5b5061001d610022565b6100e2565b600054610100900460ff161561008e5760405162461bcd60e51b815260206004820152602760248201527f496e697469616c697a61626c653a20636f6e747261637420697320696e697469604482015266616c697a696e6760c81b606482015260840160405180910390fd5b60005460ff90811610156100e0576000805460ff191660ff9081179091556040519081527f7f26b83ff96e1f2b6a682f133852f6798a09c465da95921460cefb38474024989060200160405180910390a15b565b6080516112276101196000396000818161042a01528181610473015281816105130152818161055301526105e601526112276000f3fe6080604052600436106100915760003560e01c8063715018a611610059578063715018a6146101485780638129fc1c1461015d5780638da5cb5b14610172578063aee846131461019a578063f2fde38b146101b057600080fd5b806303b28c331461009657806331738c11146100b85780633659cfe6146100f25780634f1ef2861461011257806352d1902d14610125575b600080fd5b3480156100a257600080fd5b506100b66100b1366004610e58565b6101d0565b005b3480156100c457600080fd5b506100d86100d3366004610ed8565b6102af565b6040516100e9959493929190610f5a565b60405180910390f35b3480156100fe57600080fd5b506100b661010d366004610fab565b61041f565b6100b6610120366004610fc6565b610508565b34801561013157600080fd5b5061013a6105d9565b6040519081526020016100e9565b34801561015457600080fd5b506100b661068c565b34801561016957600080fd5b506100b66106a0565b34801561017e57600080fd5b506033546040516001600160a01b0390911681526020016100e9565b3480156101a657600080fd5b5061013a60c95481565b3480156101bc57600080fd5b506100b66101cb366004610fab565b6107b8565b600160c960008282546101e3919061101e565b909155505033600090815260ca60209081526040808320815160a08101835260c95481528084018781529281018690526060810185905260808101859052815460018181018455928652948490208151600590960201948555915180519294936102539392850192910190610d13565b506040820151805161026f916002840191602090910190610d13565b5060608201516003820180546001600160a01b03199081166001600160a01b03938416179091556080909301516004909201805490931691161790555050565b60ca60205281600052604060002081815481106102cb57600080fd5b9060005260206000209060050201600091509150508060000154908060010180546102f590611044565b80601f016020809104026020016040519081016040528092919081815260200182805461032190611044565b801561036e5780601f106103435761010080835404028352916020019161036e565b820191906000526020600020905b81548152906001019060200180831161035157829003601f168201915b50505050509080600201805461038390611044565b80601f01602080910402602001604051908101604052809291908181526020018280546103af90611044565b80156103fc5780601f106103d1576101008083540402835291602001916103fc565b820191906000526020600020905b8154815290600101906020018083116103df57829003601f168201915b50505050600383015460049093015491926001600160a01b039081169216905085565b306001600160a01b037f00000000000000000000000000000000000000000000000000000000000000001614156104715760405162461bcd60e51b81526004016104689061107f565b60405180910390fd5b7f00000000000000000000000000000000000000000000000000000000000000006001600160a01b03166104ba6000805160206111ab833981519152546001600160a01b031690565b6001600160a01b0316146104e05760405162461bcd60e51b8152600401610468906110cb565b6104e98161082e565b6040805160008082526020820190925261050591839190610836565b50565b306001600160a01b037f00000000000000000000000000000000000000000000000000000000000000001614156105515760405162461bcd60e51b81526004016104689061107f565b7f00000000000000000000000000000000000000000000000000000000000000006001600160a01b031661059a6000805160206111ab833981519152546001600160a01b031690565b6001600160a01b0316146105c05760405162461bcd60e51b8152600401610468906110cb565b6105c98261082e565b6105d582826001610836565b5050565b6000306001600160a01b037f000000000000000000000000000000000000000000000000000000000000000016146106795760405162461bcd60e51b815260206004820152603860248201527f555550535570677261646561626c653a206d757374206e6f742062652063616c60448201527f6c6564207468726f7567682064656c656761746563616c6c00000000000000006064820152608401610468565b506000805160206111ab83398151915290565b6106946109a6565b61069e6000610a00565b565b600054610100900460ff16158080156106c05750600054600160ff909116105b806106da5750303b1580156106da575060005460ff166001145b61073d5760405162461bcd60e51b815260206004820152602e60248201527f496e697469616c697a61626c653a20636f6e747261637420697320616c72656160448201526d191e481a5b9a5d1a585b1a5e995960921b6064820152608401610468565b6000805460ff191660011790558015610760576000805461ff0019166101001790555b610768610a52565b610770610a81565b8015610505576000805461ff0019169055604051600181527f7f26b83ff96e1f2b6a682f133852f6798a09c465da95921460cefb38474024989060200160405180910390a150565b6107c06109a6565b6001600160a01b0381166108255760405162461bcd60e51b815260206004820152602660248201527f4f776e61626c653a206e6577206f776e657220697320746865207a65726f206160448201526564647265737360d01b6064820152608401610468565b61050581610a00565b6105056109a6565b7f4910fdfa16fed3260ed0e7147f7cc6da11a60208b5b9406d12a635614ffd91435460ff161561086e5761086983610aa8565b505050565b826001600160a01b03166352d1902d6040518163ffffffff1660e01b8152600401602060405180830381865afa9250505080156108c8575060408051601f3d908101601f191682019092526108c591810190611117565b60015b61092b5760405162461bcd60e51b815260206004820152602e60248201527f45524331393637557067726164653a206e657720696d706c656d656e7461746960448201526d6f6e206973206e6f74205555505360901b6064820152608401610468565b6000805160206111ab833981519152811461099a5760405162461bcd60e51b815260206004820152602960248201527f45524331393637557067726164653a20756e737570706f727465642070726f786044820152681a58589b195555525160ba1b6064820152608401610468565b50610869838383610b44565b6033546001600160a01b0316331461069e5760405162461bcd60e51b815260206004820181905260248201527f4f776e61626c653a2063616c6c6572206973206e6f7420746865206f776e65726044820152606401610468565b603380546001600160a01b038381166001600160a01b0319831681179093556040519116919082907f8be0079c531659141344cd1fd0a4f28419497f9722a3daafe3b4186f6b6457e090600090a35050565b600054610100900460ff16610a795760405162461bcd60e51b815260040161046890611130565b61069e610b6f565b600054610100900460ff1661069e5760405162461bcd60e51b815260040161046890611130565b6001600160a01b0381163b610b155760405162461bcd60e51b815260206004820152602d60248201527f455243313936373a206e657720696d706c656d656e746174696f6e206973206e60448201526c1bdd08184818dbdb9d1c9858dd609a1b6064820152608401610468565b6000805160206111ab83398151915280546001600160a01b0319166001600160a01b0392909216919091179055565b610b4d83610b9f565b600082511180610b5a5750805b1561086957610b698383610bdf565b50505050565b600054610100900460ff16610b965760405162461bcd60e51b815260040161046890611130565b61069e33610a00565b610ba881610aa8565b6040516001600160a01b038216907fbc7cd75a20ee27fd9adebab32041f755214dbc6bffa90cc0225b39da2e5c2d3b90600090a250565b60606001600160a01b0383163b610c475760405162461bcd60e51b815260206004820152602660248201527f416464726573733a2064656c65676174652063616c6c20746f206e6f6e2d636f6044820152651b9d1c9858dd60d21b6064820152608401610468565b600080846001600160a01b031684604051610c62919061117b565b600060405180830381855af49150503d8060008114610c9d576040519150601f19603f3d011682016040523d82523d6000602084013e610ca2565b606091505b5091509150610cca82826040518060600160405280602781526020016111cb60279139610cd3565b95945050505050565b60608315610ce2575081610d0c565b825115610cf25782518084602001fd5b8160405162461bcd60e51b81526004016104689190611197565b9392505050565b828054610d1f90611044565b90600052602060002090601f016020900481019282610d415760008555610d87565b82601f10610d5a57805160ff1916838001178555610d87565b82800160010185558215610d87579182015b82811115610d87578251825591602001919060010190610d6c565b50610d93929150610d97565b5090565b5b80821115610d935760008155600101610d98565b634e487b7160e01b600052604160045260246000fd5b600067ffffffffffffffff80841115610ddd57610ddd610dac565b604051601f8501601f19908116603f01168101908282118183101715610e0557610e05610dac565b81604052809350858152868686011115610e1e57600080fd5b858560208301376000602087830101525050509392505050565b600082601f830112610e4957600080fd5b610d0c83833560208501610dc2565b60008060408385031215610e6b57600080fd5b823567ffffffffffffffff80821115610e8357600080fd5b610e8f86838701610e38565b93506020850135915080821115610ea557600080fd5b50610eb285828601610e38565b9150509250929050565b80356001600160a01b0381168114610ed357600080fd5b919050565b60008060408385031215610eeb57600080fd5b610ef483610ebc565b946020939093013593505050565b60005b83811015610f1d578181015183820152602001610f05565b83811115610b695750506000910152565b60008151808452610f46816020860160208601610f02565b601f01601f19169290920160200192915050565b85815260a060208201526000610f7360a0830187610f2e565b8281036040840152610f858187610f2e565b6001600160a01b0395861660608501529390941660809092019190915250949350505050565b600060208284031215610fbd57600080fd5b610d0c82610ebc565b60008060408385031215610fd957600080fd5b610fe283610ebc565b9150602083013567ffffffffffffffff811115610ffe57600080fd5b8301601f8101851361100f57600080fd5b610eb285823560208401610dc2565b6000821982111561103f57634e487b7160e01b600052601160045260246000fd5b500190565b600181811c9082168061105857607f821691505b6020821081141561107957634e487b7160e01b600052602260045260246000fd5b50919050565b6020808252602c908201527f46756e6374696f6e206d7573742062652063616c6c6564207468726f7567682060408201526b19195b1959d85d1958d85b1b60a21b606082015260800190565b6020808252602c908201527f46756e6374696f6e206d7573742062652063616c6c6564207468726f7567682060408201526b6163746976652070726f787960a01b606082015260800190565b60006020828403121561112957600080fd5b5051919050565b6020808252602b908201527f496e697469616c697a61626c653a20636f6e7472616374206973206e6f74206960408201526a6e697469616c697a696e6760a81b606082015260800190565b6000825161118d818460208701610f02565b9190910192915050565b602081526000610d0c6020830184610f2e56fe360894a13ba1a3210667c828492db98dca3e2076cc3735a920a3ca505d382bbc416464726573733a206c6f772d6c6576656c2064656c65676174652063616c6c206661696c6564a264697066735822122094ec63003b76becf1cd3ad26877195d8f48016aacdcbec98c6c7ad2512ba386d64736f6c634300080c0033",
  "linkReferences": {},
  "deployedLinkReferences": {}
}